{
  "_format": "hh-sol-artifact-1",
  "contractName": "FairlaunchFactory",
  "sourceName": "contracts/fairlaunch/FairlaunchFactory.sol",
  "abi": [
    {
      "inputs": [
        {
          "internalType": "uint256",
          "name": "_deploymentFee",
          "type": "uint256"
        },
        {
          "internalType": "address",
          "name": "_feeSplitter",
          "type": "address"
        },
        {
          "internalType": "address",
          "name": "_treasuryWallet",
          "type": "address"
        },
        {
          "internalType": "address",
          "name": "_adminExecutor",
          "type": "address"
        }
      ],
      "stateMutability": "nonpayable",
      "type": "constructor"
    },
    {
      "inputs": [],
      "name": "AccessControlBadConfirmation",
      "type": "error"
    },
    {
      "inputs": [
        {
          "internalType": "address",
          "name": "account",
          "type": "address"
        },
        {
          "internalType": "bytes32",
          "name": "neededRole",
          "type": "bytes32"
        }
      ],
      "name": "AccessControlUnauthorizedAccount",
      "type": "error"
    },
    {
      "inputs": [],
      "name": "FeeTransferFailed",
      "type": "error"
    },
    {
      "inputs": [],
      "name": "InsufficientDeploymentFee",
      "type": "error"
    },
    {
      "inputs": [],
      "name": "InsufficientLPLockDuration",
      "type": "error"
    },
    {
      "inputs": [],
      "name": "InsufficientLiquidityPercent",
      "type": "error"
    },
    {
      "inputs": [],
      "name": "InsufficientTokenBalance",
      "type": "error"
    },
    {
      "inputs": [],
      "name": "InvalidContributionRange",
      "type": "error"
    },
    {
      "inputs": [],
      "name": "InvalidSoftcap",
      "type": "error"
    },
    {
      "inputs": [],
      "name": "InvalidTimeRange",
      "type": "error"
    },
    {
      "inputs": [
        {
          "internalType": "address",
          "name": "token",
          "type": "address"
        }
      ],
      "name": "SafeERC20FailedOperation",
      "type": "error"
    },
    {
      "inputs": [],
      "name": "TokenTransferFailed",
      "type": "error"
    },
    {
      "inputs": [],
      "name": "ZeroAddress",
      "type": "error"
    },
    {
      "anonymous": false,
      "inputs": [
        {
          "indexed": true,
          "internalType": "uint256",
          "name": "fairlaunchId",
          "type": "uint256"
        },
        {
          "indexed": true,
          "internalType": "address",
          "name": "fairlaunch",
          "type": "address"
        },
        {
          "indexed": true,
          "internalType": "address",
          "name": "vesting",
          "type": "address"
        },
        {
          "indexed": false,
          "internalType": "address",
          "name": "projectToken",
          "type": "address"
        }
      ],
      "name": "FairlaunchCreated",
      "type": "event"
    },
    {
      "anonymous": false,
      "inputs": [
        {
          "indexed": true,
          "internalType": "address",
          "name": "fairlaunch",
          "type": "address"
        },
        {
          "indexed": false,
          "internalType": "uint256",
          "name": "lockMonths",
          "type": "uint256"
        },
        {
          "indexed": false,
          "internalType": "bytes32",
          "name": "dexId",
          "type": "bytes32"
        },
        {
          "indexed": false,
          "internalType": "uint256",
          "name": "liquidityPercent",
          "type": "uint256"
        }
      ],
      "name": "LPPlanRecorded",
      "type": "event"
    },
    {
      "anonymous": false,
      "inputs": [
        {
          "indexed": true,
          "internalType": "bytes32",
          "name": "role",
          "type": "bytes32"
        },
        {
          "indexed": true,
          "internalType": "bytes32",
          "name": "previousAdminRole",
          "type": "bytes32"
        },
        {
          "indexed": true,
          "internalType": "bytes32",
          "name": "newAdminRole",
          "type": "bytes32"
        }
      ],
      "name": "RoleAdminChanged",
      "type": "event"
    },
    {
      "anonymous": false,
      "inputs": [
        {
          "indexed": true,
          "internalType": "bytes32",
          "name": "role",
          "type": "bytes32"
        },
        {
          "indexed": true,
          "internalType": "address",
          "name": "account",
          "type": "address"
        },
        {
          "indexed": true,
          "internalType": "address",
          "name": "sender",
          "type": "address"
        }
      ],
      "name": "RoleGranted",
      "type": "event"
    },
    {
      "anonymous": false,
      "inputs": [
        {
          "indexed": true,
          "internalType": "bytes32",
          "name": "role",
          "type": "bytes32"
        },
        {
          "indexed": true,
          "internalType": "address",
          "name": "account",
          "type": "address"
        },
        {
          "indexed": true,
          "internalType": "address",
          "name": "sender",
          "type": "address"
        }
      ],
      "name": "RoleRevoked",
      "type": "event"
    },
    {
      "inputs": [],
      "name": "DEFAULT_ADMIN_ROLE",
      "outputs": [
        {
          "internalType": "bytes32",
          "name": "",
          "type": "bytes32"
        }
      ],
      "stateMutability": "view",
      "type": "function"
    },
    {
      "inputs": [],
      "name": "DEPLOYMENT_FEE",
      "outputs": [
        {
          "internalType": "uint256",
          "name": "",
          "type": "uint256"
        }
      ],
      "stateMutability": "view",
      "type": "function"
    },
    {
      "inputs": [],
      "name": "FACTORY_ADMIN_ROLE",
      "outputs": [
        {
          "internalType": "bytes32",
          "name": "",
          "type": "bytes32"
        }
      ],
      "stateMutability": "view",
      "type": "function"
    },
    {
      "inputs": [],
      "name": "adminExecutor",
      "outputs": [
        {
          "internalType": "address",
          "name": "",
          "type": "address"
        }
      ],
      "stateMutability": "view",
      "type": "function"
    },
    {
      "inputs": [
        {
          "components": [
            {
              "internalType": "address",
              "name": "projectToken",
              "type": "address"
            },
            {
              "internalType": "address",
              "name": "paymentToken",
              "type": "address"
            },
            {
              "internalType": "uint256",
              "name": "softcap",
              "type": "uint256"
            },
            {
              "internalType": "uint256",
              "name": "tokensForSale",
              "type": "uint256"
            },
            {
              "internalType": "uint256",
              "name": "minContribution",
              "type": "uint256"
            },
            {
              "internalType": "uint256",
              "name": "maxContribution",
              "type": "uint256"
            },
            {
              "internalType": "uint256",
              "name": "startTime",
              "type": "uint256"
            },
            {
              "internalType": "uint256",
              "name": "endTime",
              "type": "uint256"
            },
            {
              "internalType": "address",
              "name": "projectOwner",
              "type": "address"
            },
            {
              "internalType": "uint16",
              "name": "listingPremiumBps",
              "type": "uint16"
            }
          ],
          "internalType": "struct FairlaunchFactory.CreateFairlaunchParams",
          "name": "params",
          "type": "tuple"
        },
        {
          "components": [
            {
              "internalType": "address",
              "name": "beneficiary",
              "type": "address"
            },
            {
              "internalType": "uint256",
              "name": "startTime",
              "type": "uint256"
            },
            {
              "internalType": "uint256[]",
              "name": "durations",
              "type": "uint256[]"
            },
            {
              "internalType": "uint256[]",
              "name": "amounts",
              "type": "uint256[]"
            }
          ],
          "internalType": "struct FairlaunchFactory.TeamVestingParams",
          "name": "vestingParams",
          "type": "tuple"
        },
        {
          "components": [
            {
              "internalType": "uint256",
              "name": "lockMonths",
              "type": "uint256"
            },
            {
              "internalType": "uint256",
              "name": "liquidityPercent",
              "type": "uint256"
            },
            {
              "internalType": "bytes32",
              "name": "dexId",
              "type": "bytes32"
            }
          ],
          "internalType": "struct FairlaunchFactory.LPLockPlan",
          "name": "lpPlan",
          "type": "tuple"
        }
      ],
      "name": "createFairlaunch",
      "outputs": [
        {
          "internalType": "address",
          "name": "fairlaunch",
          "type": "address"
        },
        {
          "internalType": "address",
          "name": "vesting",
          "type": "address"
        }
      ],
      "stateMutability": "payable",
      "type": "function"
    },
    {
      "inputs": [],
      "name": "fairlaunchCount",
      "outputs": [
        {
          "internalType": "uint256",
          "name": "",
          "type": "uint256"
        }
      ],
      "stateMutability": "view",
      "type": "function"
    },
    {
      "inputs": [
        {
          "internalType": "address",
          "name": "",
          "type": "address"
        }
      ],
      "name": "fairlaunchToLPPlan",
      "outputs": [
        {
          "internalType": "uint256",
          "name": "lockMonths",
          "type": "uint256"
        },
        {
          "internalType": "uint256",
          "name": "liquidityPercent",
          "type": "uint256"
        },
        {
          "internalType": "bytes32",
          "name": "dexId",
          "type": "bytes32"
        }
      ],
      "stateMutability": "view",
      "type": "function"
    },
    {
      "inputs": [
        {
          "internalType": "address",
          "name": "",
          "type": "address"
        }
      ],
      "name": "fairlaunchToVesting",
      "outputs": [
        {
          "internalType": "address",
          "name": "",
          "type": "address"
        }
      ],
      "stateMutability": "view",
      "type": "function"
    },
    {
      "inputs": [
        {
          "internalType": "uint256",
          "name": "",
          "type": "uint256"
        }
      ],
      "name": "fairlaunches",
      "outputs": [
        {
          "internalType": "address",
          "name": "",
          "type": "address"
        }
      ],
      "stateMutability": "view",
      "type": "function"
    },
    {
      "inputs": [],
      "name": "feeSplitter",
      "outputs": [
        {
          "internalType": "address",
          "name": "",
          "type": "address"
        }
      ],
      "stateMutability": "view",
      "type": "function"
    },
    {
      "inputs": [
        {
          "internalType": "uint256",
          "name": "fairlaunchId",
          "type": "uint256"
        }
      ],
      "name": "getFairlaunchDetails",
      "outputs": [
        {
          "internalType": "address",
          "name": "fairlaunch",
          "type": "address"
        },
        {
          "internalType": "address",
          "name": "vesting",
          "type": "address"
        },
        {
          "components": [
            {
              "internalType": "uint256",
              "name": "lockMonths",
              "type": "uint256"
            },
            {
              "internalType": "uint256",
              "name": "liquidityPercent",
              "type": "uint256"
            },
            {
              "internalType": "bytes32",
              "name": "dexId",
              "type": "bytes32"
            }
          ],
          "internalType": "struct FairlaunchFactory.LPLockPlan",
          "name": "lpPlan",
          "type": "tuple"
        }
      ],
      "stateMutability": "view",
      "type": "function"
    },
    {
      "inputs": [
        {
          "internalType": "bytes32",
          "name": "role",
          "type": "bytes32"
        }
      ],
      "name": "getRoleAdmin",
      "outputs": [
        {
          "internalType": "bytes32",
          "name": "",
          "type": "bytes32"
        }
      ],
      "stateMutability": "view",
      "type": "function"
    },
    {
      "inputs": [
        {
          "internalType": "bytes32",
          "name": "role",
          "type": "bytes32"
        },
        {
          "internalType": "address",
          "name": "account",
          "type": "address"
        }
      ],
      "name": "grantRole",
      "outputs": [],
      "stateMutability": "nonpayable",
      "type": "function"
    },
    {
      "inputs": [
        {
          "internalType": "bytes32",
          "name": "role",
          "type": "bytes32"
        },
        {
          "internalType": "address",
          "name": "account",
          "type": "address"
        }
      ],
      "name": "hasRole",
      "outputs": [
        {
          "internalType": "bool",
          "name": "",
          "type": "bool"
        }
      ],
      "stateMutability": "view",
      "type": "function"
    },
    {
      "inputs": [
        {
          "internalType": "bytes32",
          "name": "role",
          "type": "bytes32"
        },
        {
          "internalType": "address",
          "name": "callerConfirmation",
          "type": "address"
        }
      ],
      "name": "renounceRole",
      "outputs": [],
      "stateMutability": "nonpayable",
      "type": "function"
    },
    {
      "inputs": [
        {
          "internalType": "bytes32",
          "name": "role",
          "type": "bytes32"
        },
        {
          "internalType": "address",
          "name": "account",
          "type": "address"
        }
      ],
      "name": "revokeRole",
      "outputs": [],
      "stateMutability": "nonpayable",
      "type": "function"
    },
    {
      "inputs": [
        {
          "internalType": "bytes4",
          "name": "interfaceId",
          "type": "bytes4"
        }
      ],
      "name": "supportsInterface",
      "outputs": [
        {
          "internalType": "bool",
          "name": "",
          "type": "bool"
        }
      ],
      "stateMutability": "view",
      "type": "function"
    },
    {
      "inputs": [],
      "name": "treasuryWallet",
      "outputs": [
        {
          "internalType": "address",
          "name": "",
          "type": "address"
        }
      ],
      "stateMutability": "view",
      "type": "function"
    }
  ],
  "bytecode": "0x610100346200013157601f62004ba438819003918201601f191683019291906001600160401b0384118385101762000136578160809284926040968752833981010312620001315780519062000058602082016200014c565b6200007360606200006b8685016200014c565b93016200014c565b926001600160a01b038281161562000120578084161562000120578416156200010f5760e05260805260a05260c052620000ad3362000161565b50620000b933620001e1565b505161490090816200028482396080518181816102f40152610630015260a0518181816104cd0152610aec015260c05181818161066b015281816109f20152610c36015260e0518181816101d5015261041e0152f35b845163d92e233d60e01b8152600490fd5b855163d92e233d60e01b8152600490fd5b600080fd5b634e487b7160e01b600052604160045260246000fd5b51906001600160a01b03821682036200013157565b6001600160a01b031660008181527fad3228b676f7d3cd4284a5443f17f1962b36e491b30a40b2405849e597ba5fb5602052604081205490919060ff16620001dd57818052816020526040822081835260205260408220600160ff19825416179055339160008051602062004b848339815191528180a4600190565b5090565b6001600160a01b031660008181527f40d6054e7c1e32abf36e71c717b2201c6fb50ee4639813ce060d4f8ffbb78bdd60205260408120549091907fbd5d72ac35ae1e83aa0625c57eddda63fbb064a87fca99dfdd7ce027384ae2829060ff166200027e57808352826020526040832082845260205260408320600160ff1982541617905560008051602062004b84833981519152339380a4600190565b50509056fe60808060405260043610156200001457600080fd5b60003560e01c90816301ffc9a71462000c65575080631d1b49d31462000c1e578063248a9ca31462000bed5780632f2ff15d1462000ba65780633360cf5e1462000b6957806336568abe1462000b1b5780634626402b1462000ad457806347fce11914620003d05780635148695f14620003235780636052970c14620002dc57806391d14854146200028b5780639e1f288e146200026b578063a186d14f1462000216578063a217fddf14620001f8578063a8f3225114620001bb578063d547741f1462000172578063e0fe61fe14620001335763e249cbec14620000f857600080fd5b346200012e5760203660031901126200012e576004356000526002602052602060018060a01b0360406000205416604051908152f35b600080fd5b346200012e5760203660031901126200012e5760206001600160a01b03806200015b62000cd4565b166000526003825260406000205416604051908152f35b346200012e5760403660031901126200012e57620001b96004356200019662000cbd565b90806000526000602052620001b360016040600020015462000ceb565b62000daf565b005b346200012e5760003660031901126200012e5760206040517f00000000000000000000000000000000000000000000000000000000000000008152f35b346200012e5760003660031901126200012e57602060405160008152f35b346200012e5760203660031901126200012e576001600160a01b036200023b62000cd4565b16600052600460205260606040600020805490600260018201549101549060405192835260208301526040820152f35b346200012e5760003660031901126200012e576020600154604051908152f35b346200012e5760403660031901126200012e57620002a862000cbd565b600435600052600060205260406000209060018060a01b0316600052602052602060ff604060002054166040519015158152f35b346200012e5760003660031901126200012e576040517f00000000000000000000000000000000000000000000000000000000000000006001600160a01b03168152602090f35b346200012e576020806003193601126200012e5760a0906000604080516200034b8162000e25565b8281528284820152015260043560005260028152600180831b03908160406000205416918260005260038252604060002054166004825260406000209060405190620003978262000e25565b82548252600260018401549385840194855201549360408301948552604051958652850152516040840152516060830152516080820152f35b6003193681016101c081126200012e57610140136200012e5767ffffffffffffffff61014435116200012e5760809061014435360301126200012e576060366101631901126200012e5760007f0000000000000000000000000000000000000000000000000000000000000000341062000ac2576044351562000ab05760e43560c435101562000a9e574260c435111562000a9e5760a4356084351162000a8c576084351562000a8c57600c610164351062000a7a57611b58610184351062000a68576001600160a01b03620004a562000e7b565b161562000a56576001600160a01b03620004be62000e92565b161562000a56576000808080347f00000000000000000000000000000000000000000000000000000000000000005af13d1562000a50573d67ffffffffffffffff8111620008fd5760405190601f1967ffffffffffffffff601f83018216603f018216840190811190841117620008fd57603f81601f840116011682016040528152600060203d92013e5b1562000a3e5762000567606461014435016101443560040162000e42565b905062000913575b6200057962000e7b565b906024356001600160a01b03811690036200012e57610124359161ffff831683036200012e57620005a962000e92565b90604051938461293581011067ffffffffffffffff61293587011117620008fd5761ffff9161293562000f9287396001600160a01b0390811661293587019081526024358216602082015260443560408201526064356060820152608435608082015260a43560a082015260c43560c082015260e43560e0820152929091166101008301527f000000000000000000000000000000000000000000000000000000000000000081166101208301528381166101408301529182166101608201527f0000000000000000000000000000000000000000000000000000000000000000909116610180820152610184356101a0820152610164356101c08201526101a4356101e08201819052929081900361020001906000f08015620008f1576001600160a01b039081169190620006de62000e7b565b16610184356064350260643581046101843514606435151715620008db57620007126127106200071b920460643562000ecf565b84338462000eed565b6001600160a01b0382161515908162000853575b506040936200081591600154600052600260205285600020906bffffffffffffffffffffffff60a01b9186838254161790556200082d575b50836000526004602052806002866000206101643581556101843560018201550155837fda79e99dc31a6b02a1a6d9e3758c6d0ef34606738cc48a1ff703d6566b040626606060015493620007bb62000e7b565b89516001600160a01b03918216815290881690859087907f83690fc050263340e4f4dd8cb0061beabb83623cc56df48714b6ad16a68b1ab390602090a488519061016435825260208201526101843589820152a262000edd565b60015582519182526001600160a01b03166020820152f35b6000858152600360205286902080549091166001600160a01b0385161790558562000767565b6200086b606461014435016101443560040162000e42565b906000916000915b818310620008b2575050509160409591838562000815956200089c575b5050509150936200072f565b620008a992339062000eed565b86808562000890565b909192620008cc620008d3918560051b8401359062000ecf565b9362000edd565b919062000873565b634e487b7160e01b600052601160045260246000fd5b6040513d6000823e3d90fd5b634e487b7160e01b600052604160045260246000fd5b506200091e62000e7b565b60046101443501356001600160a01b03811681036200012e576200094f604461014435016101443560040162000e42565b9190926200096a606461014435016101443560040162000e42565b9091604051958661100481011067ffffffffffffffff61100489011117620008fd578695620009f095620009d993611004620038c78a396001600160a01b039081166110048a01908152911660208201526101443560240135604082015260c060608201819052019162000eaa565b916110048501830360806110048701015262000eaa565b7f00000000000000000000000000000000000000000000000000000000000000006001600160a01b0316611004830160a0015203906000f08015620008f1576001600160a01b03166200056f565b604051634033e4e360e01b8152600490fd5b62000549565b60405163d92e233d60e01b8152600490fd5b604051634c87d75360e11b8152600490fd5b6040516376a12a0f60e11b8152600490fd5b60405163102df2a160e11b8152600490fd5b60405163536a71af60e01b8152600490fd5b604051636858a31f60e11b8152600490fd5b6040516354605d0160e11b8152600490fd5b346200012e5760003660031901126200012e576040517f00000000000000000000000000000000000000000000000000000000000000006001600160a01b03168152602090f35b346200012e5760403660031901126200012e5762000b3862000cbd565b336001600160a01b0382160362000b5757620001b99060043562000daf565b60405163334bd91960e11b8152600490fd5b346200012e5760003660031901126200012e5760206040517fbd5d72ac35ae1e83aa0625c57eddda63fbb064a87fca99dfdd7ce027384ae2828152f35b346200012e5760403660031901126200012e57620001b960043562000bca62000cbd565b9080600052600060205262000be760016040600020015462000ceb565b62000d30565b346200012e5760203660031901126200012e5760043560005260006020526020600160406000200154604051908152f35b346200012e5760003660031901126200012e576040517f00000000000000000000000000000000000000000000000000000000000000006001600160a01b03168152602090f35b346200012e5760203660031901126200012e576004359063ffffffff60e01b82168092036200012e57602091637965db0b60e01b811490811562000cab575b5015158152f35b6301ffc9a760e01b1490508362000ca4565b602435906001600160a01b03821682036200012e57565b600435906001600160a01b03821682036200012e57565b80600052600060205260406000203360005260205260ff604060002054161562000d125750565b6044906040519063e2517d3f60e01b82523360048301526024820152fd5b9060009180835282602052604083209160018060a01b03169182845260205260ff6040842054161560001462000daa57808352826020526040832082845260205260408320600160ff198254161790557f2f8788117e7eff1d82e926ec794901d17c78024a50270940304540a733656f0d339380a4600190565b505090565b9060009180835282602052604083209160018060a01b03169182845260205260ff60408420541660001462000daa5780835282602052604083208284526020526040832060ff1981541690557ff6391f5c32d9c69d2a47ea670b442974b53935d1edc7fd64eb21e047a839171b339380a4600190565b6060810190811067ffffffffffffffff821117620008fd57604052565b903590601e19813603018212156200012e570180359067ffffffffffffffff82116200012e57602001918160051b360383136200012e57565b6004356001600160a01b03811681036200012e5790565b610104356001600160a01b03811681036200012e5790565b81835290916001600160fb1b0383116200012e5760209260051b809284830137010190565b91908201809211620008db57565b6000198114620008db5760010190565b6040516323b872dd60e01b602082019081526001600160a01b039384166024830152938316604482015260648082019590955293845292909160a082019067ffffffffffffffff821183831017620008fd57602092600092604052519082865af115620008f1576000513d62000f8757508082163b155b62000f6d575050565b604051635274afe760e01b81529116600482015260249150fd5b6001141562000f6456fe3462000402576200293538819003610280601f8201601f19168101906001600160401b038211908210176200040757610200928291604052610280391262000402576200004e6102806200041d565b6200005b6102a06200041d565b6102c0516102e051610300516103205161034051610360516103805195979590949392919061ffff81168103620004025762000175956200009e6103a06200041d565b92620000ac6103c06200041d565b94620000ba6103e06200041d565b96620000c86104006200041d565b986101a061028001519d6101c061028001519d6101e061028001519d6001805560805260a05260c05260e05261010052610120526101405261016052610180526101a0526101c0526101e05261022094855261024093845261026092835260ff60a01b1960025416600255603846148015620003f7575b600090156200036357507310ed43c718714eb63d5aa57b78b54704e256024e5b610200526200016e8162000432565b50620004b2565b50604051916123c09384620005558539608051848181610a2101528181610b0c015281816115d60152818161165d0152818161179801528181611b0b01528181611ba701528181611e350152611f4e015260a051848181610306015281816106b9015281816108fc01528181610ca6015281816114790152818161160e0152818161199a01528181611abd01528181611ddd01528181611e6301528181611f7601526120b0015260c05184818161023501526113e4015260e051848181610abc01528181610da60152818161142c01528181611b4d01526123500152610100518481816104c901526111ce0152610120518481816105ec01526112180152610140518481816107750152818161225801526122e8015261016051848181610c6e0152818161222e01526122be015261018051848181610de4015261153601526101a05184818161086a015281816114a7015261208f01526101c051848181610826015281816119620152611b8601526101e051848181610501015281816118e3015281816119cc0152611a9c015261020051848181610e1d01528181611595015281816116ae015281816116f10152818161174001528181611d9c01528181611ebb0152611efe01525183818161048e0152611507015251828181610627015261182b01525181610d410152f35b600146148015620003ea575b15620003915750737a250d5630b4cf539739df2c5dacb4c659f2488d6200015f565b6121054614908115620003dc575b5015620003c157734752ba5dbc23f44d87826276bf6fd6b1c372ad246200015f565b737a250d5630b4cf539739df2c5dacb4c659f2488d6200015f565b4662014a341491506200039f565b5062aa36a746146200036f565b50606146146200013f565b600080fd5b634e487b7160e01b600052604160045260246000fd5b51906001600160a01b03821682036200040257565b6001600160a01b031660008181527fad3228b676f7d3cd4284a5443f17f1962b36e491b30a40b2405849e597ba5fb5602052604081205490919060ff16620004ae57818052816020526040822081835260205260408220600160ff198254161790553391600080516020620029158339815191528180a4600190565b5090565b6001600160a01b031660008181527f7d7ffb7a348e1c6a02869081a26547b49160dd3df72d1d75a570eb9b698292ec60205260408120549091907fa49807205ce4d355092ef5a8a18f56e8913cf4a201fbe287825b095693c217759060ff166200054f57808352826020526040832082845260205260408320600160ff1982541617905560008051602062002915833981519152339380a4600190565b50509056fe608060408181526004918236101561001657600080fd5b600092833560e01c91826301ffc9a714610e755750816303fc201314610e4c5781630758d92414610e085781630b7c1ae114610dc957816312aef8c314610d8e5781631cc645441461054b578163200d2ed214610d64578163220c095614610d29578163248a9ca314610cff5781632f2ff15d14610cd55781633013ce2914610c915781633197cbb614610c56578163362f04c014610c3857816336568abe14610bf25781633f4ba83a14610ba757816342e94c90146103a257816348c54b9d14610a505781634b60ce7714610a0c5781634bb278f3146109eb5781634e69d560146109be578163590e1ae3146108995781636052970c14610855578163619f3d6c1461081157816373b2e80e146107d357816375b238fc1461079857816378e979251461075d5781638160059a146106995781638456cb591461064a5781638bcd85151461060f5781638d3d6576146105d45781638d4e4083146105b057816391d148541461056a5781639ce05df71461054b578163a217fddf14610530578163a4475ce4146104ec578163aaffadf3146104b1578163b068375514610476578163b187bd261461044f578163b524f87b14610407578163b920ade2146103da578163bb8b2b47146103a2578163c5c4744c14610383578163d547741f14610344578163d7bb99ba146102ee578163ea8a1af01461025c575063f89be5931461021f57600080fd5b34610258578160031936011261025857602090517f00000000000000000000000000000000000000000000000000000000000000008152f35b5080fd5b9050346102ea57826003193601126102ea57610276610f22565b6002549160ff8360a01c1660068110156102d7576003146102ca57505060ff60a01b1916600560a01b176002557f63b958841f79ab97cb5456da181454b9932c0e15a3b17f1cbd27e2a8bc6104378180a180f35b516307a92f1960e51b8152fd5b634e487b7160e01b855260218352602485fd5b8280fd5b919050826003193601126102ea576103046110b5565b7f00000000000000000000000000000000000000000000000000000000000000006001600160a01b03166102ca578261033d343361119b565b6001805580f35b919050346102ea57806003193601126102ea5761037f913561037a6001610369610ef1565b938387528660205286200154610f9c565b611040565b5080f35b5050346102585781600319360112610258576020906003549051908152f35b5050346102585760203660031901126102585760209181906001600160a01b036103ca610f0c565b1681526007845220549051908152f35b505034610258576020366003190112610258576020906104006103fb610f0c565b61230f565b9051908152f35b833461044c57602036600319011261044c57610421610f0c565b610429610f22565b60018060a01b03166bffffffffffffffffffffffff60a01b600254161760025580f35b80fd5b50503461025857816003193601126102585760209060ff60065460081c1690519015158152f35b505034610258578160031936011261025857602090517f00000000000000000000000000000000000000000000000000000000000000008152f35b505034610258578160031936011261025857602090517f00000000000000000000000000000000000000000000000000000000000000008152f35b505034610258578160031936011261025857517f00000000000000000000000000000000000000000000000000000000000000006001600160a01b03168152602090f35b50503461025857816003193601126102585751908152602090f35b5050346102585781600319360112610258576020906005549051908152f35b9050346102ea57816003193601126102ea578160209360ff9261058b610ef1565b903582528186528282206001600160a01b039091168252855220549151911615158152f35b50503461025857816003193601126102585760209060ff6006541690519015158152f35b505034610258578160031936011261025857602090517f00000000000000000000000000000000000000000000000000000000000000008152f35b505034610258578160031936011261025857602090517f00000000000000000000000000000000000000000000000000000000000000008152f35b833461044c578060031936011261044c57610663610f22565b61010061ff001960065416176006557f9e87fac88ff661f02d44f95383c817fece4bce600a3dab7a54406878b965e7528180a180f35b838334610258576020366003190112610258578235906106b76110b5565b7f00000000000000000000000000000000000000000000000000000000000000006001600160a01b0316801561074d5781516323b872dd60e01b6020820152336024820152306044820152606480820185905281529160a083019067ffffffffffffffff82118483101761073a575261033d929161073491611110565b3361119b565b634e487b7160e01b865260418752602486fd5b81516307a92f1960e51b81528590fd5b505034610258578160031936011261025857602090517f00000000000000000000000000000000000000000000000000000000000000008152f35b505034610258578160031936011261025857602090517fa49807205ce4d355092ef5a8a18f56e8913cf4a201fbe287825b095693c217758152f35b5050346102585760203660031901126102585760209160ff9082906001600160a01b036107fe610f0c565b1681526008855220541690519015158152f35b505034610258578160031936011261025857517f00000000000000000000000000000000000000000000000000000000000000006001600160a01b03168152602090f35b505034610258578160031936011261025857517f00000000000000000000000000000000000000000000000000000000000000006001600160a01b03168152602090f35b919050346102ea57826003193601126102ea576108b46110b5565b60ff60025460a01c1660068110156109ab5782811415908161099f575b506102ca573383526007602052808320541561099257338352600760205280832080549084905591827f00000000000000000000000000000000000000000000000000000000000000006001600160a01b03168061098157508480808093335af161093a611365565b501561097357505b519081527fd7dee2702d63ad89917b6a4da9981c90c4d24f8c2bdfd64c604ecae57d8d065160203392a26001805580f35b90516312171d8360e31b8152fd5b61098d92503390612155565b610942565b5163f76aef6560e01b8152fd5b600591501415386108d1565b634e487b7160e01b845260218352602484fd5b5050346102585781600319360112610258576109e7906109dc61227f565b905191829182610ec8565b0390f35b833461044c578060031936011261044c57610a046110b5565b61033d6113a5565b505034610258578160031936011261025857517f00000000000000000000000000000000000000000000000000000000000000006001600160a01b03168152602090f35b9050346102ea57826003193601126102ea57610a6a6110b5565b60ff60025460a01c166006811015610b9457600303610b865733835260076020528183205415610b7857338352600860205260ff8284205416610b6a57503382526007602052610aea610ae1828420547f00000000000000000000000000000000000000000000000000000000000000009061130d565b60035490611320565b338084526008602052828420805460ff19166001179055909190610b399083907f00000000000000000000000000000000000000000000000000000000000000006001600160a01b0316612155565b519081527f896e034966eaaf1adc54acc0f257056febbd300c9e47182cf761982cf1f5e43060203392a26001805580f35b9051630c8d9eab60e31b8152fd5b9051631971fbf360e21b8152fd5b90516307a92f1960e51b8152fd5b634e487b7160e01b845260218252602484fd5b833461044c578060031936011261044c57610bc0610f22565b61ff0019600654166006557fa45f47fdea8a1efdd9029a5691c7f759c32b7c698632b563573e155625d169338180a180f35b838334610258578060031936011261025857610c0c610ef1565b90336001600160a01b03831603610c29575061037f919235611040565b5163334bd91960e11b81528390fd5b9050346102ea57826003193601126102ea5760209250549051908152f35b505034610258578160031936011261025857602090517f00000000000000000000000000000000000000000000000000000000000000008152f35b505034610258578160031936011261025857517f00000000000000000000000000000000000000000000000000000000000000006001600160a01b03168152602090f35b919050346102ea57806003193601126102ea5761037f9135610cfa6001610369610ef1565b610fc2565b9050346102ea5760203660031901126102ea57816020936001923581528085522001549051908152f35b505034610258578160031936011261025857602090517f00000000000000000000000000000000000000000000000000000000000000008152f35b5050346102585781600319360112610258576109e79060ff60025460a01c16905191829182610ec8565b505034610258578160031936011261025857602090517f00000000000000000000000000000000000000000000000000000000000000008152f35b5050346102585781600319360112610258576020905161ffff7f0000000000000000000000000000000000000000000000000000000000000000168152f35b505034610258578160031936011261025857517f00000000000000000000000000000000000000000000000000000000000000006001600160a01b03168152602090f35b50503461025857816003193601126102585760025490516001600160a01b039091168152602090f35b8491346102ea5760203660031901126102ea573563ffffffff60e01b81168091036102ea5760209250637965db0b60e01b8114908115610eb7575b5015158152f35b6301ffc9a760e01b14905083610eb0565b919060208301926006821015610edb5752565b634e487b7160e01b600052602160045260246000fd5b602435906001600160a01b0382168203610f0757565b600080fd5b600435906001600160a01b0382168203610f0757565b3360009081527f7d7ffb7a348e1c6a02869081a26547b49160dd3df72d1d75a570eb9b698292ec60205260409020547fa49807205ce4d355092ef5a8a18f56e8913cf4a201fbe287825b095693c217759060ff1615610f7e5750565b6044906040519063e2517d3f60e01b82523360048301526024820152fd5b80600052600060205260406000203360005260205260ff6040600020541615610f7e5750565b9060009180835282602052604083209160018060a01b03169182845260205260ff6040842054161560001461103b57808352826020526040832082845260205260408320600160ff198254161790557f2f8788117e7eff1d82e926ec794901d17c78024a50270940304540a733656f0d339380a4600190565b505090565b9060009180835282602052604083209160018060a01b03169182845260205260ff60408420541660001461103b5780835282602052604083208284526020526040832060ff1981541690557ff6391f5c32d9c69d2a47ea670b442974b53935d1edc7fd64eb21e047a839171b339380a4600190565b6002600154146110c6576002600155565b604051633ee5aeb560e01b8152600490fd5b90601f8019910116810190811067ffffffffffffffff8211176110fa57604052565b634e487b7160e01b600052604160045260246000fd5b906000602091828151910182855af11561116c576000513d61116357506001600160a01b0381163b155b6111415750565b604051635274afe760e01b81526001600160a01b039091166004820152602490fd5b6001141561113a565b6040513d6000823e3d90fd5b9190820180921161118557565b634e487b7160e01b600052601160045260246000fd5b9190916111a66121d2565b60ff60025460a01c166006811015610edb576001036112fb5760ff60065460081c166112e9577f000000000000000000000000000000000000000000000000000000000000000083106112d75760018060a01b031660009281845260076020526040906112168183872054611178565b7f000000000000000000000000000000000000000000000000000000000000000081116112c6578386526007602052828620541561129b575b8286857ffa35a310d7113dddce1c275da946348e9aaebf9050b00b372033c4d84b0bd6eb969798526007602052205561128a81600354611178565b8060035582519182526020820152a2565b60045460001981146112b25760010160045561124f565b634e487b7160e01b87526011600452602487fd5b8251635e508cd360e11b8152600490fd5b604051636c7591b560e11b8152600490fd5b60405163ab35696f60e01b8152600490fd5b6040516307a92f1960e51b8152600490fd5b8181029291811591840414171561118557565b811561132a570490565b634e487b7160e01b600052601260045260246000fd5b9190820391821161118557565b90816020910312610f0757518015158103610f075790565b3d156113a0573d9067ffffffffffffffff82116110fa5760405191611394601f8201601f1916602001846110d8565b82523d6000602084013e565b606090565b6113ad6121d2565b600254600060ff8260a01c166006811015612141576002036112fb5760065460ff81166112fb5760ff1916600117600655600354917f0000000000000000000000000000000000000000000000000000000000000000831061210a5750670de0b6b3a76400008083029183159284810483148417156120f657611451907f000000000000000000000000000000000000000000000000000000000000000090611320565b6005556101f492838502938585041417156120e2576114766127108094048095611340565b937f00000000000000000000000000000000000000000000000000000000000000006001600160a01b0316612086577f00000000000000000000000000000000000000000000000000000000000000006001600160a01b0316803b156102ea5782906024604051809481936339650d1f60e01b83523060048401525af18015611d025761205a575b50905b8261152c7f00000000000000000000000000000000000000000000000000000000000000008661130d565b049260055461ffff7f000000000000000000000000000000000000000000000000000000000000000016820190818311611c80579061156a9161130d565b0490808402908482041484151715611d79579061158691611320565b60405163095ea7b360e01b81527f00000000000000000000000000000000000000000000000000000000000000006001600160a01b031660048201526024810182905260208180604481010381867f00000000000000000000000000000000000000000000000000000000000000006001600160a01b03165af18015611cc85761203b575b507f00000000000000000000000000000000000000000000000000000000000000006001600160a01b0316611d8d5761012c4201804211611d79576040519163f305d71960e01b835260018060a01b037f0000000000000000000000000000000000000000000000000000000000000000166004840152602483015282604483015282606483015230608483015260a482015260608160c4818660018060a01b037f0000000000000000000000000000000000000000000000000000000000000000165af18015611d0257611d4b575b5060405163c45a015560e01b81526020816004817f00000000000000000000000000000000000000000000000000000000000000006001600160a01b03165afa908115611d02578291611d2c575b506040516315ab88c960e31b8152906020826004817f00000000000000000000000000000000000000000000000000000000000000006001600160a01b03165afa918215611cc857916020916117d6938592611d0d575b5060405163e6a4390560e01b81526001600160a01b037f00000000000000000000000000000000000000000000000000000000000000008116600483015290921660248301529092839190829081906044820190565b03916001600160a01b03165afa908115611d02578291611cd3575b50925b6040516370a0823160e01b8152306004820152926020846024816001600160a01b0389165afa938415611cc8578394611c94575b507f000000000000000000000000000000000000000000000000000000000000000062278d00908082810204821481151715611c8057611869910242611178565b60025460405163095ea7b360e01b81526001600160a01b0390911660048201526024810186905260208180604481010381886001600160a01b038c165af18015611c4657611c51575b50600254604051630aa393f360e01b81526001600160a01b03888116600483015260248201889052604482018490527f0000000000000000000000000000000000000000000000000000000000000000811660648301529091602091839160849183918a91165af18015611c4657611c1b575b506040519085825260208201527fac1d76749e5447b7b16f5ab61447e1bd502f3bb4807af3b28e620d1700a6ee45604060018060a01b03881692a27f00000000000000000000000000000000000000000000000000000000000000006001600160a01b0316611aef575b61199891611340565b7f00000000000000000000000000000000000000000000000000000000000000006001600160a01b0316611a6d57818080927f00000000000000000000000000000000000000000000000000000000000000005af16119f5611365565b5015611a5b577f6e4389167d2afbd1ccb4797ea87e29958adbf74cd16ba077a2ee5ab8460784e5916080915b600360a01b60ff60a01b19600254161760025560055491600354604051938452602084015260018060a01b031660408301526060820152a1565b6040516312171d8360e31b8152600490fd5b7f6e4389167d2afbd1ccb4797ea87e29958adbf74cd16ba077a2ee5ab8460784e59360809390925090611aea907f00000000000000000000000000000000000000000000000000000000000000007f00000000000000000000000000000000000000000000000000000000000000006001600160a01b0316612155565b611a21565b6040516370a0823160e01b8152306004820152916020836024817f00000000000000000000000000000000000000000000000000000000000000006001600160a01b03165afa928315611c10578493611bda575b50611b72611998937f000000000000000000000000000000000000000000000000000000000000000090611340565b80611b80575b50915061198f565b611bd4907f00000000000000000000000000000000000000000000000000000000000000007f00000000000000000000000000000000000000000000000000000000000000006001600160a01b0316612155565b38611b78565b92506020833d602011611c08575b81611bf5602093836110d8565b81010312610f0757915191611b72611b43565b3d9150611be8565b6040513d86823e3d90fd5b602090813d8311611c3f575b611c3181836110d8565b81010312610f075738611925565b503d611c27565b6040513d87823e3d90fd5b611c729060203d602011611c79575b611c6a81836110d8565b81019061134d565b50386118b2565b503d611c60565b634e487b7160e01b85526011600452602485fd5b9093506020813d602011611cc0575b81611cb0602093836110d8565b81010312610f0757519238611828565b3d9150611ca3565b6040513d85823e3d90fd5b611cf5915060203d602011611cfb575b611ced81836110d8565b8101906121b3565b386117f1565b503d611ce3565b6040513d84823e3d90fd5b611d25919250833d8511611cfb57611ced81836110d8565b9038611780565b611d45915060203d602011611cfb57611ced81836110d8565b38611729565b611d6b9060603d8111611d72575b611d6381836110d8565b810190612198565b50506116db565b503d611d59565b634e487b7160e01b83526011600452602483fd5b60405163095ea7b360e01b81527f00000000000000000000000000000000000000000000000000000000000000006001600160a01b031660048201526024810184905260208180604481010381867f00000000000000000000000000000000000000000000000000000000000000006001600160a01b03165af18015611cc85761201c575b5061012c4201804211611d79576040519162e8e33760e81b835260018060a01b037f000000000000000000000000000000000000000000000000000000000000000016600484015260018060a01b037f000000000000000000000000000000000000000000000000000000000000000016602484015260448301528360648301528260848301528260a48301523060c483015260e4820152606081610104818560018060a01b037f0000000000000000000000000000000000000000000000000000000000000000165af18015611d0257611ffe575b5060405163c45a015560e01b81526020816004817f00000000000000000000000000000000000000000000000000000000000000006001600160a01b03165afa908115611d02578291611fdf575b5060405163e6a4390560e01b81526001600160a01b037f0000000000000000000000000000000000000000000000000000000000000000811660048301527f000000000000000000000000000000000000000000000000000000000000000081166024830152909160209183916044918391165afa908115611d02578291611fc0575b50926117f4565b611fd9915060203d602011611cfb57611ced81836110d8565b38611fb9565b611ff8915060203d602011611cfb57611ced81836110d8565b38611f36565b6120159060603d8111611d7257611d6381836110d8565b5050611ee8565b6120349060203d602011611c7957611c6a81836110d8565b5038611e12565b6120539060203d602011611c7957611c6a81836110d8565b503861160b565b67ffffffffffffffff811161207257604052386114fe565b634e487b7160e01b82526041600452602482fd5b9091906120dd907f00000000000000000000000000000000000000000000000000000000000000007f00000000000000000000000000000000000000000000000000000000000000006001600160a01b0316612155565b611501565b634e487b7160e01b81526011600452602490fd5b634e487b7160e01b82526011600452602482fd5b60ff60a01b1916600160a21b176002557fe48846a3dca191c762ab6aaa1e929ccaf55e31a875fb78ad1b93e15ef4830aca915080a1565b634e487b7160e01b82526021600452602482fd5b60405163a9059cbb60e01b60208201526001600160a01b03929092166024830152604480830193909352918152612196916121916064836110d8565b611110565b565b90816060910312610f07578051916040602083015192015190565b90816020910312610f0757516001600160a01b0381168103610f075790565b60025460ff8160a01c166006811015610edb57801580612255575b156122095750506002805460ff60a01b1916600160a01b179055565b6001148061222b575b6122195750565b60ff60a01b1916600160a11b17600255565b507f0000000000000000000000000000000000000000000000000000000000000000421015612212565b507f00000000000000000000000000000000000000000000000000000000000000004210156121ed565b60ff60025460a01c166006811015610edb578015806122e5575b156122a45750600190565b60018114806122bb575b6122b55790565b50600290565b507f00000000000000000000000000000000000000000000000000000000000000004210156122ae565b507f0000000000000000000000000000000000000000000000000000000000000000421015612299565b60ff60025460a01c166006811015610edb5760030361238457600354801561237d5761237a9160018060a01b031660005260076020526123756040600020547f00000000000000000000000000000000000000000000000000000000000000009061130d565b611320565b90565b5050600090565b5060009056fea26469706673582212206f7083b8b1b3ce9203bb789c244c0d75240bf1745773e585798f7ba4d437973864736f6c634300081400332f8788117e7eff1d82e926ec794901d17c78024a50270940304540a733656f0d604060c0815234620003775762001004803803806200001e816200037c565b928339810160c08282031262000377576200003982620003a2565b906020916200004a838501620003a2565b8585015160608087015190966001600160401b03939092909184811162000377578662000079918501620003b7565b9560808401519085821162000377576200009c60a091620000a4938701620003b7565b9401620003a2565b6001808055959091906001600160a01b03808216156200034357841615620002ff578751855103620002c957875115620002945792620000f78795989693620000fe938d9b999660805260a05262000434565b50620004b4565b5060009586925b62000175575b505050507f721ddaabe5cc50a5a5fdc5ce1e5636612da513f19115ed78a77b4e60665f07b494508260035551908351928352820152a151610a8d908162000557823960805181818160e801526103e9015260a05181818161017a0152818161031a015261062a0152f35b9193959092949686518510156200028857506200019384876200041f565b51620001a085846200041f565b518a51918a83018381108782111762000272578c5282528882019081528a8201916000835260029182546801000000000000000081101562000272578981018085558110156200025c578360005260038c600020910201915182555188820155019051151560ff801983541691161790556200021d84836200041f565b518101809111620002465796600019841462000246578480940191899795939198969462000105565b634e487b7160e01b600052601160045260246000fd5b634e487b7160e01b600052603260045260246000fd5b634e487b7160e01b600052604160045260246000fd5b9694819694506200010b565b8a5162461bcd60e51b8152600481018a9052600e60248201526d456d707479207363686564756c6560901b6044820152606490fd5b8a5162461bcd60e51b8152600481018a9052600f60248201526e098cadccee8d040dad2e6dac2e8c6d608b1b6044820152606490fd5b8a5162461bcd60e51b8152600481018a9052601360248201527f496e76616c69642062656e6566696369617279000000000000000000000000006044820152606490fd5b8b5162461bcd60e51b8152600481018b9052600d60248201526c24b73b30b634b2103a37b5b2b760991b6044820152606490fd5b600080fd5b6040519190601f01601f191682016001600160401b038111838210176200027257604052565b51906001600160a01b03821682036200037757565b81601f8201121562000377578051916001600160401b03831162000272578260051b6020928380620003eb8185016200037c565b80978152019282010192831162000377578301905b8282106200040f575050505090565b8151815290830190830162000400565b80518210156200025c5760209160051b010190565b6001600160a01b031660008181527fad3228b676f7d3cd4284a5443f17f1962b36e491b30a40b2405849e597ba5fb5602052604081205490919060ff16620004b057818052816020526040822081835260205260408220600160ff19825416179055339160008051602062000fe48339815191528180a4600190565b5090565b6001600160a01b031660008181527fb9b0ac02325ee7cf4551d296a88408527c705a37fefd0e298966a9ada940b4c460205260408120549091907fc8a41221bcd7fcf2c225f5a9265e1d4d39949d89197159d59e5f4b87b62c419e9060ff166200055157808352826020526040832082845260205260408320600160ff1982541617905560008051602062000fe4833981519152339380a4600190565b50509056fe608060408181526004918236101561001657600080fd5b600092833560e01c91826301ffc9a71461075557508163248a9ca31461072b57816326fadbe2146105cc5781632db94d19146105ad5781632f2ff15d1461058f57816336568abe146105545781634e71d92d1461033d57816378e979251461030257816391d14854146102c8578163a217fddf146102ad578163bdc6d9ab1461025a578163ced3a4031461021f578163d547741f146101ea578163d54ad2a1146101c857508063ee28b7441461011b5763fc0c546a146100d557600080fd5b34610117578160031936011261011757517f00000000000000000000000000000000000000000000000000000000000000006001600160a01b03168152602090f35b5080fd5b503461011757816003193601126101175781906002928354905b818110610146576020848451908152f35b60ff8561015283610807565b500154161561016a575b6101659061098f565b610135565b61019e61017682610807565b50547f00000000000000000000000000000000000000000000000000000000000000006109b4565b421061015c57926101c06101659160016101b787610807565b500154906109b4565b93905061015c565b9050346101e657826003193601126101e65760209250549051908152f35b8280fd5b50503461011757600161021b91610216610203366107dc565b9390928387528660205286200154610858565b61091a565b5080f35b505034610117578160031936011261011757602090517fc8a41221bcd7fcf2c225f5a9265e1d4d39949d89197159d59e5f4b87b62c419e8152f35b9050346101e65760203660031901126101e65735916002548310156102aa5750610285606092610807565b509081549160ff60026001830154920154169082519384526020840152151590820152f35b80fd5b50503461011757816003193601126101175751908152602090f35b5050346101175760ff816020936102de366107dc565b9082528186528282206001600160a01b039091168252855220549151911615158152f35b505034610117578160031936011261011757602090517f00000000000000000000000000000000000000000000000000000000000000008152f35b919050346101e657826003193601126101e65760029060019282845414610546578284557fc8a41221bcd7fcf2c225f5a9265e1d4d39949d89197159d59e5f4b87b62c419e8086528560205282862033875260205260ff908184882054161561052957508593805491875b8381106104c4575050505082156104b7576103c48382546109b4565b8155815163a9059cbb60e01b60208201908152336024830152604480830186905282527f00000000000000000000000000000000000000000000000000000000000000006001600160a01b0316916080810167ffffffffffffffff8111828210176104a45785525160209188919082855af11561049a57855185903d610493575050803b155b61047f575050519081527f896e034966eaaf1adc54acc0f257056febbd300c9e47182cf761982cf1f5e43060203392a2805580f35b6024925191635274afe760e01b8352820152fd5b141561044a565b82513d87823e3d90fd5b634e487b7160e01b895260418552602489fd5b905162f3f86160e41b8152fd5b81836104cf83610807565b50015416156104e7575b6104e29061098f565b6103a8565b6104f361017682610807565b42106104d957956105216104e2918461050b8a610807565b5001805460ff19168b179055896101b78a610807565b9690506104d9565b9050604492519163e2517d3f60e01b835233908301526024820152fd5b9051633ee5aeb560e01b8152fd5b83833461011757610564366107dc565b91336001600160a01b0384160361058057509061021b9161091a565b5163334bd91960e11b81528490fd5b50503461011757600161021b916105a8610203366107dc565b61089c565b5050346101175781600319360112610117576020906003549051908152f35b5050346101175781600319360112610117576002918254906105ed82610a11565b926105f783610a11565b610600846109f9565b9061060d835192836109c1565b848252610619856109f9565b6020978389019691601f19013688377f0000000000000000000000000000000000000000000000000000000000000000865b8381106106b95750505050958091610680610673988551998a9960608b5260608b01906107a8565b90898203858b01526107a8565b938785039088015251928381520193925b8281106106a057505050500390f35b8351151585528695509381019392810192600101610691565b808a6106e2826106dc9d9e9b9a9c9d6106d461072096610807565b5054876109b4565b92610a43565b5260016106ee82610807565b5001546106fb8288610a43565b5260ff8461070883610807565b500154166107168289610a43565b901515905261098f565b99989795969961064b565b9050346101e65760203660031901126101e657816020936001923581528085522001549051908152f35b8491346101e65760203660031901126101e6573563ffffffff60e01b81168091036101e65760209250637965db0b60e01b8114908115610797575b5015158152f35b6301ffc9a760e01b14905083610790565b90815180825260208080930193019160005b8281106107c8575050505090565b8351855293810193928101926001016107ba565b604090600319011261080257600435906024356001600160a01b03811681036108025790565b600080fd5b600254811015610842576003906002600052027f405787fa12a823e0f2b7631cc41b3ba8828b3321ca811111fa75cd3aa3bb5ace0190600090565b634e487b7160e01b600052603260045260246000fd5b80600052600060205260406000203360005260205260ff604060002054161561087e5750565b6044906040519063e2517d3f60e01b82523360048301526024820152fd5b9060009180835282602052604083209160018060a01b03169182845260205260ff6040842054161560001461091557808352826020526040832082845260205260408320600160ff198254161790557f2f8788117e7eff1d82e926ec794901d17c78024a50270940304540a733656f0d339380a4600190565b505090565b9060009180835282602052604083209160018060a01b03169182845260205260ff6040842054166000146109155780835282602052604083208284526020526040832060ff1981541690557ff6391f5c32d9c69d2a47ea670b442974b53935d1edc7fd64eb21e047a839171b339380a4600190565b600019811461099e5760010190565b634e487b7160e01b600052601160045260246000fd5b9190820180921161099e57565b90601f8019910116810190811067ffffffffffffffff8211176109e357604052565b634e487b7160e01b600052604160045260246000fd5b67ffffffffffffffff81116109e35760051b60200190565b90610a1b826109f9565b610a2860405191826109c1565b8281528092610a39601f19916109f9565b0190602036910137565b80518210156108425760209160051b01019056fea2646970667358221220ab0dbad7314e73d77bf03df8edac5c8d9b05024f87d1f2e40e2234aa9960610464736f6c634300081400332f8788117e7eff1d82e926ec794901d17c78024a50270940304540a733656f0da2646970667358221220dfa2afb3878d8a412642eee7d2253f93cb15ff855d6c31b061312c85876923d564736f6c634300081400332f8788117e7eff1d82e926ec794901d17c78024a50270940304540a733656f0d",
  "linkReferences": {},
  "deployedLinkReferences": {}
}