{
  "_format": "hh-sol-artifact-1",
  "contractName": "FairlaunchFactory",
  "sourceName": "contracts/fairlaunch/FairlaunchFactory.sol",
  "abi": [
    {
      "inputs": [
        {
          "internalType": "uint256",
          "name": "_deploymentFee",
          "type": "uint256"
        },
        {
          "internalType": "address",
          "name": "_feeSplitter",
          "type": "address"
        },
        {
          "internalType": "address",
          "name": "_treasuryWallet",
          "type": "address"
        },
        {
          "internalType": "address",
          "name": "_adminExecutor",
          "type": "address"
        }
      ],
      "stateMutability": "nonpayable",
      "type": "constructor"
    },
    {
      "inputs": [],
      "name": "AccessControlBadConfirmation",
      "type": "error"
    },
    {
      "inputs": [
        {
          "internalType": "address",
          "name": "account",
          "type": "address"
        },
        {
          "internalType": "bytes32",
          "name": "neededRole",
          "type": "bytes32"
        }
      ],
      "name": "AccessControlUnauthorizedAccount",
      "type": "error"
    },
    {
      "inputs": [],
      "name": "FeeTransferFailed",
      "type": "error"
    },
    {
      "inputs": [],
      "name": "InsufficientDeploymentFee",
      "type": "error"
    },
    {
      "inputs": [],
      "name": "InsufficientLPLockDuration",
      "type": "error"
    },
    {
      "inputs": [],
      "name": "InsufficientLiquidityPercent",
      "type": "error"
    },
    {
      "inputs": [],
      "name": "InsufficientTokenBalance",
      "type": "error"
    },
    {
      "inputs": [],
      "name": "InvalidContributionRange",
      "type": "error"
    },
    {
      "inputs": [],
      "name": "InvalidSoftcap",
      "type": "error"
    },
    {
      "inputs": [],
      "name": "InvalidTimeRange",
      "type": "error"
    },
    {
      "inputs": [
        {
          "internalType": "address",
          "name": "token",
          "type": "address"
        }
      ],
      "name": "SafeERC20FailedOperation",
      "type": "error"
    },
    {
      "inputs": [],
      "name": "TokenTransferFailed",
      "type": "error"
    },
    {
      "inputs": [],
      "name": "ZeroAddress",
      "type": "error"
    },
    {
      "anonymous": false,
      "inputs": [
        {
          "indexed": true,
          "internalType": "uint256",
          "name": "fairlaunchId",
          "type": "uint256"
        },
        {
          "indexed": true,
          "internalType": "address",
          "name": "fairlaunch",
          "type": "address"
        },
        {
          "indexed": true,
          "internalType": "address",
          "name": "vesting",
          "type": "address"
        },
        {
          "indexed": false,
          "internalType": "address",
          "name": "projectToken",
          "type": "address"
        }
      ],
      "name": "FairlaunchCreated",
      "type": "event"
    },
    {
      "anonymous": false,
      "inputs": [
        {
          "indexed": true,
          "internalType": "address",
          "name": "fairlaunch",
          "type": "address"
        },
        {
          "indexed": false,
          "internalType": "uint256",
          "name": "lockMonths",
          "type": "uint256"
        },
        {
          "indexed": false,
          "internalType": "bytes32",
          "name": "dexId",
          "type": "bytes32"
        },
        {
          "indexed": false,
          "internalType": "uint256",
          "name": "liquidityPercent",
          "type": "uint256"
        }
      ],
      "name": "LPPlanRecorded",
      "type": "event"
    },
    {
      "anonymous": false,
      "inputs": [
        {
          "indexed": true,
          "internalType": "bytes32",
          "name": "role",
          "type": "bytes32"
        },
        {
          "indexed": true,
          "internalType": "bytes32",
          "name": "previousAdminRole",
          "type": "bytes32"
        },
        {
          "indexed": true,
          "internalType": "bytes32",
          "name": "newAdminRole",
          "type": "bytes32"
        }
      ],
      "name": "RoleAdminChanged",
      "type": "event"
    },
    {
      "anonymous": false,
      "inputs": [
        {
          "indexed": true,
          "internalType": "bytes32",
          "name": "role",
          "type": "bytes32"
        },
        {
          "indexed": true,
          "internalType": "address",
          "name": "account",
          "type": "address"
        },
        {
          "indexed": true,
          "internalType": "address",
          "name": "sender",
          "type": "address"
        }
      ],
      "name": "RoleGranted",
      "type": "event"
    },
    {
      "anonymous": false,
      "inputs": [
        {
          "indexed": true,
          "internalType": "bytes32",
          "name": "role",
          "type": "bytes32"
        },
        {
          "indexed": true,
          "internalType": "address",
          "name": "account",
          "type": "address"
        },
        {
          "indexed": true,
          "internalType": "address",
          "name": "sender",
          "type": "address"
        }
      ],
      "name": "RoleRevoked",
      "type": "event"
    },
    {
      "inputs": [],
      "name": "DEFAULT_ADMIN_ROLE",
      "outputs": [
        {
          "internalType": "bytes32",
          "name": "",
          "type": "bytes32"
        }
      ],
      "stateMutability": "view",
      "type": "function"
    },
    {
      "inputs": [],
      "name": "DEPLOYMENT_FEE",
      "outputs": [
        {
          "internalType": "uint256",
          "name": "",
          "type": "uint256"
        }
      ],
      "stateMutability": "view",
      "type": "function"
    },
    {
      "inputs": [],
      "name": "FACTORY_ADMIN_ROLE",
      "outputs": [
        {
          "internalType": "bytes32",
          "name": "",
          "type": "bytes32"
        }
      ],
      "stateMutability": "view",
      "type": "function"
    },
    {
      "inputs": [],
      "name": "adminExecutor",
      "outputs": [
        {
          "internalType": "address",
          "name": "",
          "type": "address"
        }
      ],
      "stateMutability": "view",
      "type": "function"
    },
    {
      "inputs": [
        {
          "components": [
            {
              "internalType": "address",
              "name": "projectToken",
              "type": "address"
            },
            {
              "internalType": "address",
              "name": "paymentToken",
              "type": "address"
            },
            {
              "internalType": "uint256",
              "name": "softcap",
              "type": "uint256"
            },
            {
              "internalType": "uint256",
              "name": "tokensForSale",
              "type": "uint256"
            },
            {
              "internalType": "uint256",
              "name": "minContribution",
              "type": "uint256"
            },
            {
              "internalType": "uint256",
              "name": "maxContribution",
              "type": "uint256"
            },
            {
              "internalType": "uint256",
              "name": "startTime",
              "type": "uint256"
            },
            {
              "internalType": "uint256",
              "name": "endTime",
              "type": "uint256"
            },
            {
              "internalType": "address",
              "name": "projectOwner",
              "type": "address"
            },
            {
              "internalType": "uint16",
              "name": "listingPremiumBps",
              "type": "uint16"
            }
          ],
          "internalType": "struct FairlaunchFactory.CreateFairlaunchParams",
          "name": "params",
          "type": "tuple"
        },
        {
          "components": [
            {
              "internalType": "address",
              "name": "beneficiary",
              "type": "address"
            },
            {
              "internalType": "uint256",
              "name": "startTime",
              "type": "uint256"
            },
            {
              "internalType": "uint256[]",
              "name": "durations",
              "type": "uint256[]"
            },
            {
              "internalType": "uint256[]",
              "name": "amounts",
              "type": "uint256[]"
            }
          ],
          "internalType": "struct FairlaunchFactory.TeamVestingParams",
          "name": "vestingParams",
          "type": "tuple"
        },
        {
          "components": [
            {
              "internalType": "uint256",
              "name": "lockMonths",
              "type": "uint256"
            },
            {
              "internalType": "uint256",
              "name": "liquidityPercent",
              "type": "uint256"
            },
            {
              "internalType": "bytes32",
              "name": "dexId",
              "type": "bytes32"
            }
          ],
          "internalType": "struct FairlaunchFactory.LPLockPlan",
          "name": "lpPlan",
          "type": "tuple"
        }
      ],
      "name": "createFairlaunch",
      "outputs": [
        {
          "internalType": "address",
          "name": "fairlaunch",
          "type": "address"
        },
        {
          "internalType": "address",
          "name": "vesting",
          "type": "address"
        }
      ],
      "stateMutability": "payable",
      "type": "function"
    },
    {
      "inputs": [],
      "name": "fairlaunchCount",
      "outputs": [
        {
          "internalType": "uint256",
          "name": "",
          "type": "uint256"
        }
      ],
      "stateMutability": "view",
      "type": "function"
    },
    {
      "inputs": [
        {
          "internalType": "address",
          "name": "",
          "type": "address"
        }
      ],
      "name": "fairlaunchToLPPlan",
      "outputs": [
        {
          "internalType": "uint256",
          "name": "lockMonths",
          "type": "uint256"
        },
        {
          "internalType": "uint256",
          "name": "liquidityPercent",
          "type": "uint256"
        },
        {
          "internalType": "bytes32",
          "name": "dexId",
          "type": "bytes32"
        }
      ],
      "stateMutability": "view",
      "type": "function"
    },
    {
      "inputs": [
        {
          "internalType": "address",
          "name": "",
          "type": "address"
        }
      ],
      "name": "fairlaunchToVesting",
      "outputs": [
        {
          "internalType": "address",
          "name": "",
          "type": "address"
        }
      ],
      "stateMutability": "view",
      "type": "function"
    },
    {
      "inputs": [
        {
          "internalType": "uint256",
          "name": "",
          "type": "uint256"
        }
      ],
      "name": "fairlaunches",
      "outputs": [
        {
          "internalType": "address",
          "name": "",
          "type": "address"
        }
      ],
      "stateMutability": "view",
      "type": "function"
    },
    {
      "inputs": [],
      "name": "feeSplitter",
      "outputs": [
        {
          "internalType": "address",
          "name": "",
          "type": "address"
        }
      ],
      "stateMutability": "view",
      "type": "function"
    },
    {
      "inputs": [
        {
          "internalType": "uint256",
          "name": "fairlaunchId",
          "type": "uint256"
        }
      ],
      "name": "getFairlaunchDetails",
      "outputs": [
        {
          "internalType": "address",
          "name": "fairlaunch",
          "type": "address"
        },
        {
          "internalType": "address",
          "name": "vesting",
          "type": "address"
        },
        {
          "components": [
            {
              "internalType": "uint256",
              "name": "lockMonths",
              "type": "uint256"
            },
            {
              "internalType": "uint256",
              "name": "liquidityPercent",
              "type": "uint256"
            },
            {
              "internalType": "bytes32",
              "name": "dexId",
              "type": "bytes32"
            }
          ],
          "internalType": "struct FairlaunchFactory.LPLockPlan",
          "name": "lpPlan",
          "type": "tuple"
        }
      ],
      "stateMutability": "view",
      "type": "function"
    },
    {
      "inputs": [
        {
          "internalType": "bytes32",
          "name": "role",
          "type": "bytes32"
        }
      ],
      "name": "getRoleAdmin",
      "outputs": [
        {
          "internalType": "bytes32",
          "name": "",
          "type": "bytes32"
        }
      ],
      "stateMutability": "view",
      "type": "function"
    },
    {
      "inputs": [
        {
          "internalType": "bytes32",
          "name": "role",
          "type": "bytes32"
        },
        {
          "internalType": "address",
          "name": "account",
          "type": "address"
        }
      ],
      "name": "grantRole",
      "outputs": [],
      "stateMutability": "nonpayable",
      "type": "function"
    },
    {
      "inputs": [
        {
          "internalType": "bytes32",
          "name": "role",
          "type": "bytes32"
        },
        {
          "internalType": "address",
          "name": "account",
          "type": "address"
        }
      ],
      "name": "hasRole",
      "outputs": [
        {
          "internalType": "bool",
          "name": "",
          "type": "bool"
        }
      ],
      "stateMutability": "view",
      "type": "function"
    },
    {
      "inputs": [
        {
          "internalType": "bytes32",
          "name": "role",
          "type": "bytes32"
        },
        {
          "internalType": "address",
          "name": "callerConfirmation",
          "type": "address"
        }
      ],
      "name": "renounceRole",
      "outputs": [],
      "stateMutability": "nonpayable",
      "type": "function"
    },
    {
      "inputs": [
        {
          "internalType": "bytes32",
          "name": "role",
          "type": "bytes32"
        },
        {
          "internalType": "address",
          "name": "account",
          "type": "address"
        }
      ],
      "name": "revokeRole",
      "outputs": [],
      "stateMutability": "nonpayable",
      "type": "function"
    },
    {
      "inputs": [
        {
          "internalType": "bytes4",
          "name": "interfaceId",
          "type": "bytes4"
        }
      ],
      "name": "supportsInterface",
      "outputs": [
        {
          "internalType": "bool",
          "name": "",
          "type": "bool"
        }
      ],
      "stateMutability": "view",
      "type": "function"
    },
    {
      "inputs": [],
      "name": "treasuryWallet",
      "outputs": [
        {
          "internalType": "address",
          "name": "",
          "type": "address"
        }
      ],
      "stateMutability": "view",
      "type": "function"
    }
  ],
  "bytecode": "0x610100346200013157601f62004c5e38819003918201601f191683019291906001600160401b0384118385101762000136578160809284926040968752833981010312620001315780519062000058602082016200014c565b6200007360606200006b8685016200014c565b93016200014c565b926001600160a01b038281161562000120578084161562000120578416156200010f5760e05260805260a05260c052620000ad3362000161565b50620000b933620001e1565b50516149ba90816200028482396080518181816102f40152610630015260a0518181816104cd0152610aec015260c05181818161066b015281816109f20152610c36015260e0518181816101d5015261041e0152f35b845163d92e233d60e01b8152600490fd5b855163d92e233d60e01b8152600490fd5b600080fd5b634e487b7160e01b600052604160045260246000fd5b51906001600160a01b03821682036200013157565b6001600160a01b031660008181527fad3228b676f7d3cd4284a5443f17f1962b36e491b30a40b2405849e597ba5fb5602052604081205490919060ff16620001dd57818052816020526040822081835260205260408220600160ff19825416179055339160008051602062004c3e8339815191528180a4600190565b5090565b6001600160a01b031660008181527f40d6054e7c1e32abf36e71c717b2201c6fb50ee4639813ce060d4f8ffbb78bdd60205260408120549091907fbd5d72ac35ae1e83aa0625c57eddda63fbb064a87fca99dfdd7ce027384ae2829060ff166200027e57808352826020526040832082845260205260408320600160ff1982541617905560008051602062004c3e833981519152339380a4600190565b50509056fe60808060405260043610156200001457600080fd5b60003560e01c90816301ffc9a71462000c65575080631d1b49d31462000c1e578063248a9ca31462000bed5780632f2ff15d1462000ba65780633360cf5e1462000b6957806336568abe1462000b1b5780634626402b1462000ad457806347fce11914620003d05780635148695f14620003235780636052970c14620002dc57806391d14854146200028b5780639e1f288e146200026b578063a186d14f1462000216578063a217fddf14620001f8578063a8f3225114620001bb578063d547741f1462000172578063e0fe61fe14620001335763e249cbec14620000f857600080fd5b346200012e5760203660031901126200012e576004356000526002602052602060018060a01b0360406000205416604051908152f35b600080fd5b346200012e5760203660031901126200012e5760206001600160a01b03806200015b62000cd4565b166000526003825260406000205416604051908152f35b346200012e5760403660031901126200012e57620001b96004356200019662000cbd565b90806000526000602052620001b360016040600020015462000ceb565b62000daf565b005b346200012e5760003660031901126200012e5760206040517f00000000000000000000000000000000000000000000000000000000000000008152f35b346200012e5760003660031901126200012e57602060405160008152f35b346200012e5760203660031901126200012e576001600160a01b036200023b62000cd4565b16600052600460205260606040600020805490600260018201549101549060405192835260208301526040820152f35b346200012e5760003660031901126200012e576020600154604051908152f35b346200012e5760403660031901126200012e57620002a862000cbd565b600435600052600060205260406000209060018060a01b0316600052602052602060ff604060002054166040519015158152f35b346200012e5760003660031901126200012e576040517f00000000000000000000000000000000000000000000000000000000000000006001600160a01b03168152602090f35b346200012e576020806003193601126200012e5760a0906000604080516200034b8162000e25565b8281528284820152015260043560005260028152600180831b03908160406000205416918260005260038252604060002054166004825260406000209060405190620003978262000e25565b82548252600260018401549385840194855201549360408301948552604051958652850152516040840152516060830152516080820152f35b6003193681016101c081126200012e57610140136200012e5767ffffffffffffffff61014435116200012e5760809061014435360301126200012e576060366101631901126200012e5760007f0000000000000000000000000000000000000000000000000000000000000000341062000ac2576044351562000ab05760e43560c435101562000a9e574260c435111562000a9e5760a4356084351162000a8c576084351562000a8c57600c610164351062000a7a57611b58610184351062000a68576001600160a01b03620004a562000e7b565b161562000a56576001600160a01b03620004be62000e92565b161562000a56576000808080347f00000000000000000000000000000000000000000000000000000000000000005af13d1562000a50573d67ffffffffffffffff8111620008fd5760405190601f1967ffffffffffffffff601f83018216603f018216840190811190841117620008fd57603f81601f840116011682016040528152600060203d92013e5b1562000a3e5762000567606461014435016101443560040162000e42565b905062000913575b6200057962000e7b565b906024356001600160a01b03811690036200012e57610124359161ffff831683036200012e57620005a962000e92565b9060405193846129ef81011067ffffffffffffffff6129ef87011117620008fd5761ffff916129ef62000f9287396001600160a01b039081166129ef87019081526024358216602082015260443560408201526064356060820152608435608082015260a43560a082015260c43560c082015260e43560e0820152929091166101008301527f000000000000000000000000000000000000000000000000000000000000000081166101208301528381166101408301529182166101608201527f0000000000000000000000000000000000000000000000000000000000000000909116610180820152610184356101a0820152610164356101c08201526101a4356101e08201819052929081900361020001906000f08015620008f1576001600160a01b039081169190620006de62000e7b565b16610184356064350260643581046101843514606435151715620008db57620007126127106200071b920460643562000ecf565b84338462000eed565b6001600160a01b0382161515908162000853575b506040936200081591600154600052600260205285600020906bffffffffffffffffffffffff60a01b9186838254161790556200082d575b50836000526004602052806002866000206101643581556101843560018201550155837fda79e99dc31a6b02a1a6d9e3758c6d0ef34606738cc48a1ff703d6566b040626606060015493620007bb62000e7b565b89516001600160a01b03918216815290881690859087907f83690fc050263340e4f4dd8cb0061beabb83623cc56df48714b6ad16a68b1ab390602090a488519061016435825260208201526101843589820152a262000edd565b60015582519182526001600160a01b03166020820152f35b6000858152600360205286902080549091166001600160a01b0385161790558562000767565b6200086b606461014435016101443560040162000e42565b906000916000915b818310620008b2575050509160409591838562000815956200089c575b5050509150936200072f565b620008a992339062000eed565b86808562000890565b909192620008cc620008d3918560051b8401359062000ecf565b9362000edd565b919062000873565b634e487b7160e01b600052601160045260246000fd5b6040513d6000823e3d90fd5b634e487b7160e01b600052604160045260246000fd5b506200091e62000e7b565b60046101443501356001600160a01b03811681036200012e576200094f604461014435016101443560040162000e42565b9190926200096a606461014435016101443560040162000e42565b9091604051958661100481011067ffffffffffffffff61100489011117620008fd578695620009f095620009d993611004620039818a396001600160a01b039081166110048a01908152911660208201526101443560240135604082015260c060608201819052019162000eaa565b916110048501830360806110048701015262000eaa565b7f00000000000000000000000000000000000000000000000000000000000000006001600160a01b0316611004830160a0015203906000f08015620008f1576001600160a01b03166200056f565b604051634033e4e360e01b8152600490fd5b62000549565b60405163d92e233d60e01b8152600490fd5b604051634c87d75360e11b8152600490fd5b6040516376a12a0f60e11b8152600490fd5b60405163102df2a160e11b8152600490fd5b60405163536a71af60e01b8152600490fd5b604051636858a31f60e11b8152600490fd5b6040516354605d0160e11b8152600490fd5b346200012e5760003660031901126200012e576040517f00000000000000000000000000000000000000000000000000000000000000006001600160a01b03168152602090f35b346200012e5760403660031901126200012e5762000b3862000cbd565b336001600160a01b0382160362000b5757620001b99060043562000daf565b60405163334bd91960e11b8152600490fd5b346200012e5760003660031901126200012e5760206040517fbd5d72ac35ae1e83aa0625c57eddda63fbb064a87fca99dfdd7ce027384ae2828152f35b346200012e5760403660031901126200012e57620001b960043562000bca62000cbd565b9080600052600060205262000be760016040600020015462000ceb565b62000d30565b346200012e5760203660031901126200012e5760043560005260006020526020600160406000200154604051908152f35b346200012e5760003660031901126200012e576040517f00000000000000000000000000000000000000000000000000000000000000006001600160a01b03168152602090f35b346200012e5760203660031901126200012e576004359063ffffffff60e01b82168092036200012e57602091637965db0b60e01b811490811562000cab575b5015158152f35b6301ffc9a760e01b1490508362000ca4565b602435906001600160a01b03821682036200012e57565b600435906001600160a01b03821682036200012e57565b80600052600060205260406000203360005260205260ff604060002054161562000d125750565b6044906040519063e2517d3f60e01b82523360048301526024820152fd5b9060009180835282602052604083209160018060a01b03169182845260205260ff6040842054161560001462000daa57808352826020526040832082845260205260408320600160ff198254161790557f2f8788117e7eff1d82e926ec794901d17c78024a50270940304540a733656f0d339380a4600190565b505090565b9060009180835282602052604083209160018060a01b03169182845260205260ff60408420541660001462000daa5780835282602052604083208284526020526040832060ff1981541690557ff6391f5c32d9c69d2a47ea670b442974b53935d1edc7fd64eb21e047a839171b339380a4600190565b6060810190811067ffffffffffffffff821117620008fd57604052565b903590601e19813603018212156200012e570180359067ffffffffffffffff82116200012e57602001918160051b360383136200012e57565b6004356001600160a01b03811681036200012e5790565b610104356001600160a01b03811681036200012e5790565b81835290916001600160fb1b0383116200012e5760209260051b809284830137010190565b91908201809211620008db57565b6000198114620008db5760010190565b6040516323b872dd60e01b602082019081526001600160a01b039384166024830152938316604482015260648082019590955293845292909160a082019067ffffffffffffffff821183831017620008fd57602092600092604052519082865af115620008f1576000513d62000f8757508082163b155b62000f6d575050565b604051635274afe760e01b81529116600482015260249150fd5b6001141562000f6456fe34620003b357620029ef38819003610280601f8201601f19168101906001600160401b03821190821017620003b8576102009282916040526102803912620003b3576200004e610280620003ce565b6200005b6102a0620003ce565b6102c0516102e051610300516103205161034051610360516103805195979590949392919061ffff81168103620003b35762000167956200009e6103a0620003ce565b92620000ac6103c0620003ce565b94620000ba6103e0620003ce565b96620000c8610400620003ce565b6104205161044051610460516001805560809e909e5260a09e909e5260c09e909e5260e09990995261010052610120526101405261016052610180526101a0526101c0526101e0526102209485526102409384526102609283526002805460ff60a01b19169055600046603803620002fa57507310ed43c718714eb63d5aa57b78b54704e256024e5b610200526200016081620003e3565b5062000463565b50604051916124c99384620005068539608051848181610b5101528181610c3c01528181610ec601528181611f4b0152611fe7015260a05184818161031c015281816107e901528181610a2c01528181610dd601528181610f0a01528181611a7801528181611dda01528181611efd01526121ec015260c05184818161024b01526119e4015260e051848181610bec0152818161136701528181611a2b01528181611f8d01526124590152610100518481816105cd01526117660152610120518481816106f001526117b00152610140518481816108a50152818161236101526123f1015261016051848181610d9e0152818161233701526123c70152610180518481816113a50152611b5b01526101a05184818161099a01528181611aa601526121cb01526101c05184818161095601528181611da20152611fc601526101e05184818161060501528181611cff01528181611e0c0152611edc015261020051848181610e9001526113de0152518381816105920152611b2c01525182818161072b0152611c3d015251816113020152f35b466061036200031f575073d99d1c33f9fc3444f8101754abc46c52416550d162000151565b600146148015620003a6575b156200034d5750737a250d5630b4cf539739df2c5dacb4c659f2488d62000151565b612105461490811562000398575b50156200037d57734752ba5dbc23f44d87826276bf6fd6b1c372ad2462000151565b737a250d5630b4cf539739df2c5dacb4c659f2488d62000151565b4662014a341491506200035b565b5062aa36a746146200032b565b600080fd5b634e487b7160e01b600052604160045260246000fd5b51906001600160a01b0382168203620003b357565b6001600160a01b031660008181527fad3228b676f7d3cd4284a5443f17f1962b36e491b30a40b2405849e597ba5fb5602052604081205490919060ff166200045f57818052816020526040822081835260205260408220600160ff198254161790553391600080516020620029cf8339815191528180a4600190565b5090565b6001600160a01b031660008181527f7d7ffb7a348e1c6a02869081a26547b49160dd3df72d1d75a570eb9b698292ec60205260408120549091907fa49807205ce4d355092ef5a8a18f56e8913cf4a201fbe287825b095693c217759060ff166200050057808352826020526040832082845260205260408320600160ff19825416179055600080516020620029cf833981519152339380a4600190565b50509056fe608060408181526004918236101561001657600080fd5b600092833560e01c91826301ffc9a71461140d5750816303fc20131461074e5781630758d924146113c95781630b7c1ae11461138a57816312aef8c31461134f5781631cc645441461064f578163200d2ed214611325578163220c0956146112ea578163224e93fe14610e59578163248a9ca314610e2f5781632f2ff15d14610e055781633013ce2914610dc15781633197cbb614610d86578163362f04c014610d6857816336568abe14610d225781633f4ba83a14610cd757816342e94c90146103b857816348c54b9d14610b805781634b60ce7714610b3c5781634bb278f314610b1b5781634e69d56014610aee578163590e1ae3146109c95781636052970c14610985578163619f3d6c1461094157816373b2e80e1461090357816375b238fc146108c857816378e979251461088d5781638160059a146107c95781638456cb591461077757816389dda6a01461074e5781638bcd8515146107135781638d3d6576146106d85781638d4e4083146106b457816391d148541461066e5781639ce05df71461064f578163a217fddf14610634578163a4475ce4146105f0578163aaffadf3146105b5578163b06837551461057a578163b187bd2614610553578163b524f87b1461041d578163b920ade2146103f0578163bb8b2b47146103b8578163c5c4744c14610399578163d547741f1461035a578163d7bb99ba14610304578163ea8a1af014610272575063f89be5931461023557600080fd5b3461026e578160031936011261026e57602090517f00000000000000000000000000000000000000000000000000000000000000008152f35b5080fd5b90503461030057826003193601126103005761028c6114ba565b6002549160ff8360a01c1660068110156102ed576003146102e057505060ff60a01b1916600560a01b176002557f63b958841f79ab97cb5456da181454b9932c0e15a3b17f1cbd27e2a8bc6104378180a180f35b516307a92f1960e51b8152fd5b634e487b7160e01b855260218352602485fd5b8280fd5b919050826003193601126103005761031a61164d565b7f00000000000000000000000000000000000000000000000000000000000000006001600160a01b03166102e057826103533433611733565b6001805580f35b919050346103005780600319360112610300576103959135610390600161037f611489565b938387528660205286200154611534565b6115d8565b5080f35b50503461026e578160031936011261026e576020906003549051908152f35b50503461026e57602036600319011261026e5760209181906001600160a01b036103e06114a4565b1681526007845220549051908152f35b50503461026e57602036600319011261026e576020906104166104116114a4565b612418565b9051908152f35b8391503461026e57602036600319011261026e576104396114a4565b6104416114ba565b600254906001600160a01b03908183166105185760ff600654166104e1571691821561049e57506001600160a01b03191681176002557ff3e056d0219310a4e47c749671cfbc8607538f3327bb8c6bf872a1119b622d2f8280a280f35b606490602086519162461bcd60e51b8352820152601960248201527f496e76616c6964204c50204c6f636b65722061646472657373000000000000006044820152fd5b855162461bcd60e51b81526020818601526011602482015270105b1c9958591e48199a5b985b1a5e9959607a1b6044820152606490fd5b855162461bcd60e51b81526020818601526015602482015274131408131bd8dad95c88185b1c9958591e481cd95d605a1b6044820152606490fd5b50503461026e578160031936011261026e5760209060ff60065460081c1690519015158152f35b50503461026e578160031936011261026e57602090517f00000000000000000000000000000000000000000000000000000000000000008152f35b50503461026e578160031936011261026e57602090517f00000000000000000000000000000000000000000000000000000000000000008152f35b50503461026e578160031936011261026e57517f00000000000000000000000000000000000000000000000000000000000000006001600160a01b03168152602090f35b50503461026e578160031936011261026e5751908152602090f35b50503461026e578160031936011261026e576020906005549051908152f35b9050346103005781600319360112610300578160209360ff9261068f611489565b903582528186528282206001600160a01b039091168252855220549151911615158152f35b50503461026e578160031936011261026e5760209060ff6006541690519015158152f35b50503461026e578160031936011261026e57602090517f00000000000000000000000000000000000000000000000000000000000000008152f35b50503461026e578160031936011261026e57602090517f00000000000000000000000000000000000000000000000000000000000000008152f35b50503461026e578160031936011261026e5760025490516001600160a01b039091168152602090f35b83346107c657806003193601126107c6576107906114ba565b61010061ff001960065416176006557f9e87fac88ff661f02d44f95383c817fece4bce600a3dab7a54406878b965e7528180a180f35b80fd5b83833461026e57602036600319011261026e578235906107e761164d565b7f00000000000000000000000000000000000000000000000000000000000000006001600160a01b0316801561087d5781516323b872dd60e01b6020820152336024820152306044820152606480820185905281529160a083019067ffffffffffffffff82118483101761086a57526103539291610864916116a8565b33611733565b634e487b7160e01b865260418752602486fd5b81516307a92f1960e51b81528590fd5b50503461026e578160031936011261026e57602090517f00000000000000000000000000000000000000000000000000000000000000008152f35b50503461026e578160031936011261026e57602090517fa49807205ce4d355092ef5a8a18f56e8913cf4a201fbe287825b095693c217758152f35b50503461026e57602036600319011261026e5760209160ff9082906001600160a01b0361092e6114a4565b1681526008855220541690519015158152f35b50503461026e578160031936011261026e57517f00000000000000000000000000000000000000000000000000000000000000006001600160a01b03168152602090f35b50503461026e578160031936011261026e57517f00000000000000000000000000000000000000000000000000000000000000006001600160a01b03168152602090f35b919050346103005782600319360112610300576109e461164d565b60ff60025460a01c166006811015610adb57828114159081610acf575b506102e05733835260076020528083205415610ac257338352600760205280832080549084905591827f00000000000000000000000000000000000000000000000000000000000000006001600160a01b031680610ab157508480808093335af1610a6a6118e5565b5015610aa357505b519081527fd7dee2702d63ad89917b6a4da9981c90c4d24f8c2bdfd64c604ecae57d8d065160203392a26001805580f35b90516312171d8360e31b8152fd5b610abd9250339061227d565b610a72565b5163f76aef6560e01b8152fd5b60059150141538610a01565b634e487b7160e01b845260218352602484fd5b50503461026e578160031936011261026e57610b1790610b0c612388565b905191829182611460565b0390f35b83346107c657806003193601126107c657610b3461164d565b6103536119a5565b50503461026e578160031936011261026e57517f00000000000000000000000000000000000000000000000000000000000000006001600160a01b03168152602090f35b905034610300578260031936011261030057610b9a61164d565b60ff60025460a01c166006811015610cc457600303610cb65733835260076020528183205415610ca857338352600860205260ff8284205416610c9a57503382526007602052610c1a610c11828420547f0000000000000000000000000000000000000000000000000000000000000000906118a5565b600354906118b8565b338084526008602052828420805460ff19166001179055909190610c699083907f00000000000000000000000000000000000000000000000000000000000000006001600160a01b031661227d565b519081527f896e034966eaaf1adc54acc0f257056febbd300c9e47182cf761982cf1f5e43060203392a26001805580f35b9051630c8d9eab60e31b8152fd5b9051631971fbf360e21b8152fd5b90516307a92f1960e51b8152fd5b634e487b7160e01b845260218252602484fd5b83346107c657806003193601126107c657610cf06114ba565b61ff0019600654166006557fa45f47fdea8a1efdd9029a5691c7f759c32b7c698632b563573e155625d169338180a180f35b83833461026e578060031936011261026e57610d3c611489565b90336001600160a01b03831603610d5957506103959192356115d8565b5163334bd91960e11b81528390fd5b90503461030057826003193601126103005760209250549051908152f35b50503461026e578160031936011261026e57602090517f00000000000000000000000000000000000000000000000000000000000000008152f35b50503461026e578160031936011261026e57517f00000000000000000000000000000000000000000000000000000000000000006001600160a01b03168152602090f35b919050346103005780600319360112610300576103959135610e2a600161037f611489565b61155a565b90503461030057602036600319011261030057816020936001923581528085522001549051908152f35b8284346107c657816003193601126107c657823590602435933033036112dc57835163095ea7b360e01b8082526001600160a01b037f00000000000000000000000000000000000000000000000000000000000000008116848401818152602080820189905299929791947f000000000000000000000000000000000000000000000000000000000000000094858a16929091908c908290819060400103818c875af180156112d2576112b5575b507f00000000000000000000000000000000000000000000000000000000000000009089821690816110ef5750505061012c4201928342116110dc576060929160c4918b51958694859363f305d71960e01b85528b85015260248401528a60448401528a606484015230608484015260a4830152875af18015611085576110ae575b50855163c45a015560e01b81529187838581845afa9283156110855784918991879561108f575b5088516315ab88c960e31b815295869182905afa93841561108557918689949261101296948895611066575b50895163e6a4390560e01b81526001600160a01b0393841691810191825292909416602085015290948593849291839160400190565b0392165afa91821561105b579161102e575b50915b5191168152f35b61104e9150843d8611611054575b6110468183611670565b81019061196e565b84611024565b503d61103c565b8451903d90823e3d90fd5b61107e919550863d8811611054576110468183611670565b938b610fdc565b87513d87823e3d90fd5b6110a7919550823d8411611054576110468183611670565b938a610fb0565b6110ce9060603d81116110d5575b6110c68183611670565b8101906122c0565b5050610f89565b503d6110bc565b634e487b7160e01b885260118752602488fd5b8b519081526001600160a01b038816818a01908152602081018790529298979593949193928d908290819060400103818d885af180156112ab5761127e575b5061012c42019283421161126b578b519462e8e33760e81b8652888601526024850152604484015260648301528660848301528660a48301523060c483015260e48201526060816101048189865af18015611261579189918593611243575b50885163c45a015560e01b815294859182905afa9283156110855791868994926111ee969488946112245750895163e6a4390560e01b81526001600160a01b0393841691810191825292909416602085015290948593849291839160400190565b0392165afa91821561105b5791611207575b5091611027565b61121e9150843d8611611054576110468183611670565b84611200565b61123c919450863d8811611054576110468183611670565b928b610fdc565b61125a9060603d81116110d5576110c68183611670565b505061118d565b88513d88823e3d90fd5b634e487b7160e01b8a526011885260248afd5b61129d908d803d106112a4575b6112958183611670565b81019061198d565b508c61112e565b503d61128b565b8c513d8c823e3d90fd5b6112cb908c8d3d106112a4576112958183611670565b508b610f07565b8b513d8b823e3d90fd5b835163ea8e4eb560e01b8152fd5b50503461026e578160031936011261026e57602090517f00000000000000000000000000000000000000000000000000000000000000008152f35b50503461026e578160031936011261026e57610b179060ff60025460a01c16905191829182611460565b50503461026e578160031936011261026e57602090517f00000000000000000000000000000000000000000000000000000000000000008152f35b50503461026e578160031936011261026e576020905161ffff7f0000000000000000000000000000000000000000000000000000000000000000168152f35b50503461026e578160031936011261026e57517f00000000000000000000000000000000000000000000000000000000000000006001600160a01b03168152602090f35b849134610300576020366003190112610300573563ffffffff60e01b81168091036103005760209250637965db0b60e01b811490811561144f575b5015158152f35b6301ffc9a760e01b14905083611448565b9190602083019260068210156114735752565b634e487b7160e01b600052602160045260246000fd5b602435906001600160a01b038216820361149f57565b600080fd5b600435906001600160a01b038216820361149f57565b3360009081527f7d7ffb7a348e1c6a02869081a26547b49160dd3df72d1d75a570eb9b698292ec60205260409020547fa49807205ce4d355092ef5a8a18f56e8913cf4a201fbe287825b095693c217759060ff16156115165750565b6044906040519063e2517d3f60e01b82523360048301526024820152fd5b80600052600060205260406000203360005260205260ff60406000205416156115165750565b9060009180835282602052604083209160018060a01b03169182845260205260ff604084205416156000146115d357808352826020526040832082845260205260408320600160ff198254161790557f2f8788117e7eff1d82e926ec794901d17c78024a50270940304540a733656f0d339380a4600190565b505090565b9060009180835282602052604083209160018060a01b03169182845260205260ff6040842054166000146115d35780835282602052604083208284526020526040832060ff1981541690557ff6391f5c32d9c69d2a47ea670b442974b53935d1edc7fd64eb21e047a839171b339380a4600190565b60026001541461165e576002600155565b604051633ee5aeb560e01b8152600490fd5b90601f8019910116810190811067ffffffffffffffff82111761169257604052565b634e487b7160e01b600052604160045260246000fd5b906000602091828151910182855af115611704576000513d6116fb57506001600160a01b0381163b155b6116d95750565b604051635274afe760e01b81526001600160a01b039091166004820152602490fd5b600114156116d2565b6040513d6000823e3d90fd5b9190820180921161171d57565b634e487b7160e01b600052601160045260246000fd5b91909161173e6122db565b60ff60025460a01c166006811015611473576001036118935760ff60065460081c16611881577f0000000000000000000000000000000000000000000000000000000000000000831061186f5760018060a01b031660009281845260076020526040906117ae8183872054611710565b7f0000000000000000000000000000000000000000000000000000000000000000811161185e5783865260076020528286205415611833575b8286857ffa35a310d7113dddce1c275da946348e9aaebf9050b00b372033c4d84b0bd6eb969798526007602052205561182281600354611710565b8060035582519182526020820152a2565b600454600019811461184a576001016004556117e7565b634e487b7160e01b87526011600452602487fd5b8251635e508cd360e11b8152600490fd5b604051636c7591b560e11b8152600490fd5b60405163ab35696f60e01b8152600490fd5b6040516307a92f1960e51b8152600490fd5b8181029291811591840414171561171d57565b81156118c2570490565b634e487b7160e01b600052601260045260246000fd5b9190820391821161171d57565b3d15611920573d9067ffffffffffffffff82116116925760405191611914601f8201601f191660200184611670565b82523d6000602084013e565b606090565b6020808252825181830181905290939260005b82811061195a57505060409293506000838284010152601f8019910116010190565b818101860151848201604001528501611938565b9081602091031261149f57516001600160a01b038116810361149f5790565b9081602091031261149f5751801515810361149f5790565b6119ad6122db565b600254600060ff8260a01c166006811015612269576002036118935760065460ff81166118935760ff1916600117600655600354917f000000000000000000000000000000000000000000000000000000000000000083106122325750811590670de0b6b3a7640000838102848104821484171561216957611a50907f0000000000000000000000000000000000000000000000000000000000000000906118b8565b6005556101f4928385029385850414171561221e57611a7561271080940480956118d8565b937f00000000000000000000000000000000000000000000000000000000000000006001600160a01b03166121c5577f00000000000000000000000000000000000000000000000000000000000000006001600160a01b0316803b156121c15783906024604051809481936339650d1f60e01b83523060048401525af19081612191575b50611b2657611b22611b096118e5565b604051630fb6a2b560e21b815291829160048301611925565b0390fd5b82611b517f0000000000000000000000000000000000000000000000000000000000000000866118a5565b049260055461ffff7f00000000000000000000000000000000000000000000000000000000000000001682019081831161217d5790611b8f916118a5565b04908084029084820414841517156121695790611bab916118b8565b6040519063112749ff60e11b8252600482015282602482015260208160448185305af1829181612148575b50611bff57611b22611be66118e5565b604051630abc035f60e41b815291829160048301611925565b6040516370a0823160e01b8152306004820152909390926020846024816001600160a01b0389165afa93841561213d578394612109575b5062278d007f00000000000000000000000000000000000000000000000000000000000000008181029181159183041417156120f557611c769042611710565b6002546001600160a01b031680156120b05760405163095ea7b360e01b81526001600160a01b0390911660048201526024810186905260208180604481010381886001600160a01b038c165af180156120a557612086575b50600254604051630aa393f360e01b81526001600160a01b03888116600483015260248201889052604482018490527f0000000000000000000000000000000000000000000000000000000000000000811660648301529091602091839160849183918a91165af1908161205b575b50611d6657611b22611d4d6118e5565b6040516301953ea360e11b815291829160048301611925565b6040519085825260208201527fe3afae9ec63e6f2e914c17bab8493b603680a72d9e6dfacf25ac6a4806555d41604060018060a01b03881692a27f00000000000000000000000000000000000000000000000000000000000000006001600160a01b0316611f2f575b611dd8916118d8565b7f00000000000000000000000000000000000000000000000000000000000000006001600160a01b0316611ead57818080927f00000000000000000000000000000000000000000000000000000000000000005af1611e356118e5565b5015611e9b577f6e4389167d2afbd1ccb4797ea87e29958adbf74cd16ba077a2ee5ab8460784e5916080915b600360a01b60ff60a01b19600254161760025560055491600354604051938452602084015260018060a01b031660408301526060820152a1565b6040516312171d8360e31b8152600490fd5b7f6e4389167d2afbd1ccb4797ea87e29958adbf74cd16ba077a2ee5ab8460784e59360809390925090611f2a907f00000000000000000000000000000000000000000000000000000000000000007f00000000000000000000000000000000000000000000000000000000000000006001600160a01b031661227d565b611e61565b6040516370a0823160e01b8152306004820152916020836024817f00000000000000000000000000000000000000000000000000000000000000006001600160a01b03165afa92831561205057849361201a575b50611fb2611dd8937f0000000000000000000000000000000000000000000000000000000000000000906118d8565b80611fc0575b509150611dcf565b612014907f00000000000000000000000000000000000000000000000000000000000000007f00000000000000000000000000000000000000000000000000000000000000006001600160a01b031661227d565b38611fb8565b92506020833d602011612048575b8161203560209383611670565b8101031261149f57915191611fb2611f83565b3d9150612028565b6040513d86823e3d90fd5b602090813d831161207f575b6120718183611670565b8101031261149f5738611d3d565b503d612067565b61209e9060203d6020116112a4576112958183611670565b5038611cce565b6040513d87823e3d90fd5b60405162461bcd60e51b815260206004820152601860248201527f4c50204c6f636b6572206e6f7420636f6e6669677572656400000000000000006044820152606490fd5b634e487b7160e01b84526011600452602484fd5b9093506020813d602011612135575b8161212560209383611670565b8101031261149f57519238611c36565b3d9150612118565b6040513d85823e3d90fd5b61216291925060203d602011611054576110468183611670565b9038611bd6565b634e487b7160e01b83526011600452602483fd5b634e487b7160e01b85526011600452602485fd5b67ffffffffffffffff81949294116121ad576040529138611af9565b634e487b7160e01b82526041600452602482fd5b8380fd5b612219907f00000000000000000000000000000000000000000000000000000000000000007f00000000000000000000000000000000000000000000000000000000000000006001600160a01b031661227d565b611b26565b634e487b7160e01b82526011600452602482fd5b60ff60a01b1916600160a21b176002557fe48846a3dca191c762ab6aaa1e929ccaf55e31a875fb78ad1b93e15ef4830aca915080a1565b634e487b7160e01b82526021600452602482fd5b60405163a9059cbb60e01b60208201526001600160a01b039290921660248301526044808301939093529181526122be916122b9606483611670565b6116a8565b565b9081606091031261149f578051916040602083015192015190565b60025460ff8160a01c1660068110156114735780158061235e575b156123125750506002805460ff60a01b1916600160a01b179055565b60011480612334575b6123225750565b60ff60a01b1916600160a11b17600255565b507f000000000000000000000000000000000000000000000000000000000000000042101561231b565b507f00000000000000000000000000000000000000000000000000000000000000004210156122f6565b60ff60025460a01c166006811015611473578015806123ee575b156123ad5750600190565b60018114806123c4575b6123be5790565b50600290565b507f00000000000000000000000000000000000000000000000000000000000000004210156123b7565b507f00000000000000000000000000000000000000000000000000000000000000004210156123a2565b60ff60025460a01c1660068110156114735760030361248d576003548015612486576124839160018060a01b0316600052600760205261247e6040600020547f0000000000000000000000000000000000000000000000000000000000000000906118a5565b6118b8565b90565b5050600090565b5060009056fea2646970667358221220e11760ea770a19a552934a81c3e6be5c43a14bc7613194500927888bdb49aafd64736f6c634300081400332f8788117e7eff1d82e926ec794901d17c78024a50270940304540a733656f0d604060c0815234620003775762001004803803806200001e816200037c565b928339810160c08282031262000377576200003982620003a2565b906020916200004a838501620003a2565b8585015160608087015190966001600160401b03939092909184811162000377578662000079918501620003b7565b9560808401519085821162000377576200009c60a091620000a4938701620003b7565b9401620003a2565b6001808055959091906001600160a01b03808216156200034357841615620002ff578751855103620002c957875115620002945792620000f78795989693620000fe938d9b999660805260a05262000434565b50620004b4565b5060009586925b62000175575b505050507f721ddaabe5cc50a5a5fdc5ce1e5636612da513f19115ed78a77b4e60665f07b494508260035551908351928352820152a151610a8d908162000557823960805181818160e801526103e9015260a05181818161017a0152818161031a015261062a0152f35b9193959092949686518510156200028857506200019384876200041f565b51620001a085846200041f565b518a51918a83018381108782111762000272578c5282528882019081528a8201916000835260029182546801000000000000000081101562000272578981018085558110156200025c578360005260038c600020910201915182555188820155019051151560ff801983541691161790556200021d84836200041f565b518101809111620002465796600019841462000246578480940191899795939198969462000105565b634e487b7160e01b600052601160045260246000fd5b634e487b7160e01b600052603260045260246000fd5b634e487b7160e01b600052604160045260246000fd5b9694819694506200010b565b8a5162461bcd60e51b8152600481018a9052600e60248201526d456d707479207363686564756c6560901b6044820152606490fd5b8a5162461bcd60e51b8152600481018a9052600f60248201526e098cadccee8d040dad2e6dac2e8c6d608b1b6044820152606490fd5b8a5162461bcd60e51b8152600481018a9052601360248201527f496e76616c69642062656e6566696369617279000000000000000000000000006044820152606490fd5b8b5162461bcd60e51b8152600481018b9052600d60248201526c24b73b30b634b2103a37b5b2b760991b6044820152606490fd5b600080fd5b6040519190601f01601f191682016001600160401b038111838210176200027257604052565b51906001600160a01b03821682036200037757565b81601f8201121562000377578051916001600160401b03831162000272578260051b6020928380620003eb8185016200037c565b80978152019282010192831162000377578301905b8282106200040f575050505090565b8151815290830190830162000400565b80518210156200025c5760209160051b010190565b6001600160a01b031660008181527fad3228b676f7d3cd4284a5443f17f1962b36e491b30a40b2405849e597ba5fb5602052604081205490919060ff16620004b057818052816020526040822081835260205260408220600160ff19825416179055339160008051602062000fe48339815191528180a4600190565b5090565b6001600160a01b031660008181527fb9b0ac02325ee7cf4551d296a88408527c705a37fefd0e298966a9ada940b4c460205260408120549091907fc8a41221bcd7fcf2c225f5a9265e1d4d39949d89197159d59e5f4b87b62c419e9060ff166200055157808352826020526040832082845260205260408320600160ff1982541617905560008051602062000fe4833981519152339380a4600190565b50509056fe608060408181526004918236101561001657600080fd5b600092833560e01c91826301ffc9a71461075557508163248a9ca31461072b57816326fadbe2146105cc5781632db94d19146105ad5781632f2ff15d1461058f57816336568abe146105545781634e71d92d1461033d57816378e979251461030257816391d14854146102c8578163a217fddf146102ad578163bdc6d9ab1461025a578163ced3a4031461021f578163d547741f146101ea578163d54ad2a1146101c857508063ee28b7441461011b5763fc0c546a146100d557600080fd5b34610117578160031936011261011757517f00000000000000000000000000000000000000000000000000000000000000006001600160a01b03168152602090f35b5080fd5b503461011757816003193601126101175781906002928354905b818110610146576020848451908152f35b60ff8561015283610807565b500154161561016a575b6101659061098f565b610135565b61019e61017682610807565b50547f00000000000000000000000000000000000000000000000000000000000000006109b4565b421061015c57926101c06101659160016101b787610807565b500154906109b4565b93905061015c565b9050346101e657826003193601126101e65760209250549051908152f35b8280fd5b50503461011757600161021b91610216610203366107dc565b9390928387528660205286200154610858565b61091a565b5080f35b505034610117578160031936011261011757602090517fc8a41221bcd7fcf2c225f5a9265e1d4d39949d89197159d59e5f4b87b62c419e8152f35b9050346101e65760203660031901126101e65735916002548310156102aa5750610285606092610807565b509081549160ff60026001830154920154169082519384526020840152151590820152f35b80fd5b50503461011757816003193601126101175751908152602090f35b5050346101175760ff816020936102de366107dc565b9082528186528282206001600160a01b039091168252855220549151911615158152f35b505034610117578160031936011261011757602090517f00000000000000000000000000000000000000000000000000000000000000008152f35b919050346101e657826003193601126101e65760029060019282845414610546578284557fc8a41221bcd7fcf2c225f5a9265e1d4d39949d89197159d59e5f4b87b62c419e8086528560205282862033875260205260ff908184882054161561052957508593805491875b8381106104c4575050505082156104b7576103c48382546109b4565b8155815163a9059cbb60e01b60208201908152336024830152604480830186905282527f00000000000000000000000000000000000000000000000000000000000000006001600160a01b0316916080810167ffffffffffffffff8111828210176104a45785525160209188919082855af11561049a57855185903d610493575050803b155b61047f575050519081527f896e034966eaaf1adc54acc0f257056febbd300c9e47182cf761982cf1f5e43060203392a2805580f35b6024925191635274afe760e01b8352820152fd5b141561044a565b82513d87823e3d90fd5b634e487b7160e01b895260418552602489fd5b905162f3f86160e41b8152fd5b81836104cf83610807565b50015416156104e7575b6104e29061098f565b6103a8565b6104f361017682610807565b42106104d957956105216104e2918461050b8a610807565b5001805460ff19168b179055896101b78a610807565b9690506104d9565b9050604492519163e2517d3f60e01b835233908301526024820152fd5b9051633ee5aeb560e01b8152fd5b83833461011757610564366107dc565b91336001600160a01b0384160361058057509061021b9161091a565b5163334bd91960e11b81528490fd5b50503461011757600161021b916105a8610203366107dc565b61089c565b5050346101175781600319360112610117576020906003549051908152f35b5050346101175781600319360112610117576002918254906105ed82610a11565b926105f783610a11565b610600846109f9565b9061060d835192836109c1565b848252610619856109f9565b6020978389019691601f19013688377f0000000000000000000000000000000000000000000000000000000000000000865b8381106106b95750505050958091610680610673988551998a9960608b5260608b01906107a8565b90898203858b01526107a8565b938785039088015251928381520193925b8281106106a057505050500390f35b8351151585528695509381019392810192600101610691565b808a6106e2826106dc9d9e9b9a9c9d6106d461072096610807565b5054876109b4565b92610a43565b5260016106ee82610807565b5001546106fb8288610a43565b5260ff8461070883610807565b500154166107168289610a43565b901515905261098f565b99989795969961064b565b9050346101e65760203660031901126101e657816020936001923581528085522001549051908152f35b8491346101e65760203660031901126101e6573563ffffffff60e01b81168091036101e65760209250637965db0b60e01b8114908115610797575b5015158152f35b6301ffc9a760e01b14905083610790565b90815180825260208080930193019160005b8281106107c8575050505090565b8351855293810193928101926001016107ba565b604090600319011261080257600435906024356001600160a01b03811681036108025790565b600080fd5b600254811015610842576003906002600052027f405787fa12a823e0f2b7631cc41b3ba8828b3321ca811111fa75cd3aa3bb5ace0190600090565b634e487b7160e01b600052603260045260246000fd5b80600052600060205260406000203360005260205260ff604060002054161561087e5750565b6044906040519063e2517d3f60e01b82523360048301526024820152fd5b9060009180835282602052604083209160018060a01b03169182845260205260ff6040842054161560001461091557808352826020526040832082845260205260408320600160ff198254161790557f2f8788117e7eff1d82e926ec794901d17c78024a50270940304540a733656f0d339380a4600190565b505090565b9060009180835282602052604083209160018060a01b03169182845260205260ff6040842054166000146109155780835282602052604083208284526020526040832060ff1981541690557ff6391f5c32d9c69d2a47ea670b442974b53935d1edc7fd64eb21e047a839171b339380a4600190565b600019811461099e5760010190565b634e487b7160e01b600052601160045260246000fd5b9190820180921161099e57565b90601f8019910116810190811067ffffffffffffffff8211176109e357604052565b634e487b7160e01b600052604160045260246000fd5b67ffffffffffffffff81116109e35760051b60200190565b90610a1b826109f9565b610a2860405191826109c1565b8281528092610a39601f19916109f9565b0190602036910137565b80518210156108425760209160051b01019056fea2646970667358221220ab0dbad7314e73d77bf03df8edac5c8d9b05024f87d1f2e40e2234aa9960610464736f6c634300081400332f8788117e7eff1d82e926ec794901d17c78024a50270940304540a733656f0da2646970667358221220fe9ea58c504c53a917fec9c77a6c5c20dade413c1df09dca56968299ba7a2ca464736f6c634300081400332f8788117e7eff1d82e926ec794901d17c78024a50270940304540a733656f0d",
  "linkReferences": {},
  "deployedLinkReferences": {}
}