{
  "_format": "hh-sol-artifact-1",
  "contractName": "Fairlaunch",
  "sourceName": "contracts/fairlaunch/Fairlaunch.sol",
  "abi": [
    {
      "inputs": [
        {
          "internalType": "address",
          "name": "_projectToken",
          "type": "address"
        },
        {
          "internalType": "address",
          "name": "_paymentToken",
          "type": "address"
        },
        {
          "internalType": "uint256",
          "name": "_softcap",
          "type": "uint256"
        },
        {
          "internalType": "uint256",
          "name": "_tokensForSale",
          "type": "uint256"
        },
        {
          "internalType": "uint256",
          "name": "_minContribution",
          "type": "uint256"
        },
        {
          "internalType": "uint256",
          "name": "_maxContribution",
          "type": "uint256"
        },
        {
          "internalType": "uint256",
          "name": "_startTime",
          "type": "uint256"
        },
        {
          "internalType": "uint256",
          "name": "_endTime",
          "type": "uint256"
        },
        {
          "internalType": "uint16",
          "name": "_listingPremiumBps",
          "type": "uint16"
        },
        {
          "internalType": "address",
          "name": "_feeSplitter",
          "type": "address"
        },
        {
          "internalType": "address",
          "name": "_teamVesting",
          "type": "address"
        },
        {
          "internalType": "address",
          "name": "_projectOwner",
          "type": "address"
        },
        {
          "internalType": "address",
          "name": "_adminExecutor",
          "type": "address"
        },
        {
          "internalType": "uint256",
          "name": "_liquidityPercent",
          "type": "uint256"
        },
        {
          "internalType": "uint256",
          "name": "_lpLockMonths",
          "type": "uint256"
        },
        {
          "internalType": "bytes32",
          "name": "_dexId",
          "type": "bytes32"
        }
      ],
      "stateMutability": "nonpayable",
      "type": "constructor"
    },
    {
      "inputs": [],
      "name": "AccessControlBadConfirmation",
      "type": "error"
    },
    {
      "inputs": [
        {
          "internalType": "address",
          "name": "account",
          "type": "address"
        },
        {
          "internalType": "bytes32",
          "name": "neededRole",
          "type": "bytes32"
        }
      ],
      "name": "AccessControlUnauthorizedAccount",
      "type": "error"
    },
    {
      "inputs": [],
      "name": "AlreadyClaimed",
      "type": "error"
    },
    {
      "inputs": [],
      "name": "ContractPaused",
      "type": "error"
    },
    {
      "inputs": [],
      "name": "ContributionTooHigh",
      "type": "error"
    },
    {
      "inputs": [],
      "name": "ContributionTooLow",
      "type": "error"
    },
    {
      "inputs": [
        {
          "internalType": "bytes",
          "name": "reason",
          "type": "bytes"
        }
      ],
      "name": "DexAddLiquidityCallFailed",
      "type": "error"
    },
    {
      "inputs": [
        {
          "internalType": "bytes",
          "name": "reason",
          "type": "bytes"
        }
      ],
      "name": "FeeSplitterCallFailed",
      "type": "error"
    },
    {
      "inputs": [],
      "name": "InvalidStatus",
      "type": "error"
    },
    {
      "inputs": [
        {
          "internalType": "bytes",
          "name": "reason",
          "type": "bytes"
        }
      ],
      "name": "LPLockerCallFailed",
      "type": "error"
    },
    {
      "inputs": [],
      "name": "NoContribution",
      "type": "error"
    },
    {
      "inputs": [],
      "name": "NotAuthorized",
      "type": "error"
    },
    {
      "inputs": [],
      "name": "NothingToRefund",
      "type": "error"
    },
    {
      "inputs": [],
      "name": "ReentrancyGuardReentrantCall",
      "type": "error"
    },
    {
      "inputs": [
        {
          "internalType": "address",
          "name": "token",
          "type": "address"
        }
      ],
      "name": "SafeERC20FailedOperation",
      "type": "error"
    },
    {
      "inputs": [],
      "name": "SoftcapNotMet",
      "type": "error"
    },
    {
      "inputs": [],
      "name": "TransferFailed",
      "type": "error"
    },
    {
      "anonymous": false,
      "inputs": [],
      "name": "Cancelled",
      "type": "event"
    },
    {
      "anonymous": false,
      "inputs": [
        {
          "indexed": true,
          "internalType": "address",
          "name": "user",
          "type": "address"
        },
        {
          "indexed": false,
          "internalType": "uint256",
          "name": "amount",
          "type": "uint256"
        },
        {
          "indexed": false,
          "internalType": "uint256",
          "name": "totalRaised",
          "type": "uint256"
        }
      ],
      "name": "Contributed",
      "type": "event"
    },
    {
      "anonymous": false,
      "inputs": [],
      "name": "FinalizedFail",
      "type": "event"
    },
    {
      "anonymous": false,
      "inputs": [
        {
          "indexed": false,
          "internalType": "uint256",
          "name": "finalPrice",
          "type": "uint256"
        },
        {
          "indexed": false,
          "internalType": "uint256",
          "name": "totalRaised",
          "type": "uint256"
        },
        {
          "indexed": false,
          "internalType": "address",
          "name": "lpToken",
          "type": "address"
        },
        {
          "indexed": false,
          "internalType": "uint256",
          "name": "lpAmount",
          "type": "uint256"
        }
      ],
      "name": "FinalizedSuccess",
      "type": "event"
    },
    {
      "anonymous": false,
      "inputs": [
        {
          "indexed": true,
          "internalType": "address",
          "name": "lpLocker",
          "type": "address"
        }
      ],
      "name": "LPLockerSet",
      "type": "event"
    },
    {
      "anonymous": false,
      "inputs": [
        {
          "indexed": true,
          "internalType": "address",
          "name": "lpToken",
          "type": "address"
        },
        {
          "indexed": false,
          "internalType": "uint256",
          "name": "lpAmount",
          "type": "uint256"
        },
        {
          "indexed": false,
          "internalType": "uint256",
          "name": "unlockTime",
          "type": "uint256"
        }
      ],
      "name": "LiquidityAdded",
      "type": "event"
    },
    {
      "anonymous": false,
      "inputs": [
        {
          "indexed": true,
          "internalType": "address",
          "name": "lpToken",
          "type": "address"
        },
        {
          "indexed": false,
          "internalType": "uint256",
          "name": "amount",
          "type": "uint256"
        },
        {
          "indexed": false,
          "internalType": "uint256",
          "name": "unlockTime",
          "type": "uint256"
        }
      ],
      "name": "LiquidityLocked",
      "type": "event"
    },
    {
      "anonymous": false,
      "inputs": [],
      "name": "Paused",
      "type": "event"
    },
    {
      "anonymous": false,
      "inputs": [
        {
          "indexed": true,
          "internalType": "address",
          "name": "user",
          "type": "address"
        },
        {
          "indexed": false,
          "internalType": "uint256",
          "name": "amount",
          "type": "uint256"
        }
      ],
      "name": "Refunded",
      "type": "event"
    },
    {
      "anonymous": false,
      "inputs": [
        {
          "indexed": true,
          "internalType": "bytes32",
          "name": "role",
          "type": "bytes32"
        },
        {
          "indexed": true,
          "internalType": "bytes32",
          "name": "previousAdminRole",
          "type": "bytes32"
        },
        {
          "indexed": true,
          "internalType": "bytes32",
          "name": "newAdminRole",
          "type": "bytes32"
        }
      ],
      "name": "RoleAdminChanged",
      "type": "event"
    },
    {
      "anonymous": false,
      "inputs": [
        {
          "indexed": true,
          "internalType": "bytes32",
          "name": "role",
          "type": "bytes32"
        },
        {
          "indexed": true,
          "internalType": "address",
          "name": "account",
          "type": "address"
        },
        {
          "indexed": true,
          "internalType": "address",
          "name": "sender",
          "type": "address"
        }
      ],
      "name": "RoleGranted",
      "type": "event"
    },
    {
      "anonymous": false,
      "inputs": [
        {
          "indexed": true,
          "internalType": "bytes32",
          "name": "role",
          "type": "bytes32"
        },
        {
          "indexed": true,
          "internalType": "address",
          "name": "account",
          "type": "address"
        },
        {
          "indexed": true,
          "internalType": "address",
          "name": "sender",
          "type": "address"
        }
      ],
      "name": "RoleRevoked",
      "type": "event"
    },
    {
      "anonymous": false,
      "inputs": [
        {
          "indexed": true,
          "internalType": "address",
          "name": "user",
          "type": "address"
        },
        {
          "indexed": false,
          "internalType": "uint256",
          "name": "amount",
          "type": "uint256"
        }
      ],
      "name": "TokensClaimed",
      "type": "event"
    },
    {
      "anonymous": false,
      "inputs": [],
      "name": "Unpaused",
      "type": "event"
    },
    {
      "inputs": [],
      "name": "ADMIN_ROLE",
      "outputs": [
        {
          "internalType": "bytes32",
          "name": "",
          "type": "bytes32"
        }
      ],
      "stateMutability": "view",
      "type": "function"
    },
    {
      "inputs": [],
      "name": "DEFAULT_ADMIN_ROLE",
      "outputs": [
        {
          "internalType": "bytes32",
          "name": "",
          "type": "bytes32"
        }
      ],
      "stateMutability": "view",
      "type": "function"
    },
    {
      "inputs": [
        {
          "internalType": "uint256",
          "name": "tokenAmount",
          "type": "uint256"
        },
        {
          "internalType": "uint256",
          "name": "fundAmount",
          "type": "uint256"
        }
      ],
      "name": "__addLiquidityExternal",
      "outputs": [
        {
          "internalType": "address",
          "name": "lpToken",
          "type": "address"
        }
      ],
      "stateMutability": "nonpayable",
      "type": "function"
    },
    {
      "inputs": [],
      "name": "cancel",
      "outputs": [],
      "stateMutability": "nonpayable",
      "type": "function"
    },
    {
      "inputs": [],
      "name": "claimTokens",
      "outputs": [],
      "stateMutability": "nonpayable",
      "type": "function"
    },
    {
      "inputs": [],
      "name": "contribute",
      "outputs": [],
      "stateMutability": "payable",
      "type": "function"
    },
    {
      "inputs": [
        {
          "internalType": "uint256",
          "name": "amount",
          "type": "uint256"
        }
      ],
      "name": "contributeERC20",
      "outputs": [],
      "stateMutability": "nonpayable",
      "type": "function"
    },
    {
      "inputs": [
        {
          "internalType": "address",
          "name": "",
          "type": "address"
        }
      ],
      "name": "contributions",
      "outputs": [
        {
          "internalType": "uint256",
          "name": "",
          "type": "uint256"
        }
      ],
      "stateMutability": "view",
      "type": "function"
    },
    {
      "inputs": [],
      "name": "dexId",
      "outputs": [
        {
          "internalType": "bytes32",
          "name": "",
          "type": "bytes32"
        }
      ],
      "stateMutability": "view",
      "type": "function"
    },
    {
      "inputs": [],
      "name": "dexRouter",
      "outputs": [
        {
          "internalType": "contract IUniswapV2Router02",
          "name": "",
          "type": "address"
        }
      ],
      "stateMutability": "view",
      "type": "function"
    },
    {
      "inputs": [],
      "name": "endTime",
      "outputs": [
        {
          "internalType": "uint256",
          "name": "",
          "type": "uint256"
        }
      ],
      "stateMutability": "view",
      "type": "function"
    },
    {
      "inputs": [],
      "name": "feeSplitter",
      "outputs": [
        {
          "internalType": "address",
          "name": "",
          "type": "address"
        }
      ],
      "stateMutability": "view",
      "type": "function"
    },
    {
      "inputs": [],
      "name": "finalTokenPrice",
      "outputs": [
        {
          "internalType": "uint256",
          "name": "",
          "type": "uint256"
        }
      ],
      "stateMutability": "view",
      "type": "function"
    },
    {
      "inputs": [],
      "name": "finalize",
      "outputs": [],
      "stateMutability": "nonpayable",
      "type": "function"
    },
    {
      "inputs": [],
      "name": "getFinalPrice",
      "outputs": [
        {
          "internalType": "uint256",
          "name": "",
          "type": "uint256"
        }
      ],
      "stateMutability": "view",
      "type": "function"
    },
    {
      "inputs": [
        {
          "internalType": "bytes32",
          "name": "role",
          "type": "bytes32"
        }
      ],
      "name": "getRoleAdmin",
      "outputs": [
        {
          "internalType": "bytes32",
          "name": "",
          "type": "bytes32"
        }
      ],
      "stateMutability": "view",
      "type": "function"
    },
    {
      "inputs": [],
      "name": "getStatus",
      "outputs": [
        {
          "internalType": "enum Fairlaunch.Status",
          "name": "",
          "type": "uint8"
        }
      ],
      "stateMutability": "view",
      "type": "function"
    },
    {
      "inputs": [
        {
          "internalType": "address",
          "name": "user",
          "type": "address"
        }
      ],
      "name": "getUserAllocation",
      "outputs": [
        {
          "internalType": "uint256",
          "name": "",
          "type": "uint256"
        }
      ],
      "stateMutability": "view",
      "type": "function"
    },
    {
      "inputs": [
        {
          "internalType": "address",
          "name": "user",
          "type": "address"
        }
      ],
      "name": "getUserContribution",
      "outputs": [
        {
          "internalType": "uint256",
          "name": "",
          "type": "uint256"
        }
      ],
      "stateMutability": "view",
      "type": "function"
    },
    {
      "inputs": [
        {
          "internalType": "bytes32",
          "name": "role",
          "type": "bytes32"
        },
        {
          "internalType": "address",
          "name": "account",
          "type": "address"
        }
      ],
      "name": "grantRole",
      "outputs": [],
      "stateMutability": "nonpayable",
      "type": "function"
    },
    {
      "inputs": [
        {
          "internalType": "address",
          "name": "",
          "type": "address"
        }
      ],
      "name": "hasClaimed",
      "outputs": [
        {
          "internalType": "bool",
          "name": "",
          "type": "bool"
        }
      ],
      "stateMutability": "view",
      "type": "function"
    },
    {
      "inputs": [
        {
          "internalType": "bytes32",
          "name": "role",
          "type": "bytes32"
        },
        {
          "internalType": "address",
          "name": "account",
          "type": "address"
        }
      ],
      "name": "hasRole",
      "outputs": [
        {
          "internalType": "bool",
          "name": "",
          "type": "bool"
        }
      ],
      "stateMutability": "view",
      "type": "function"
    },
    {
      "inputs": [],
      "name": "isFinalized",
      "outputs": [
        {
          "internalType": "bool",
          "name": "",
          "type": "bool"
        }
      ],
      "stateMutability": "view",
      "type": "function"
    },
    {
      "inputs": [],
      "name": "isPaused",
      "outputs": [
        {
          "internalType": "bool",
          "name": "",
          "type": "bool"
        }
      ],
      "stateMutability": "view",
      "type": "function"
    },
    {
      "inputs": [],
      "name": "liquidityPercent",
      "outputs": [
        {
          "internalType": "uint256",
          "name": "",
          "type": "uint256"
        }
      ],
      "stateMutability": "view",
      "type": "function"
    },
    {
      "inputs": [],
      "name": "listingPremiumBps",
      "outputs": [
        {
          "internalType": "uint16",
          "name": "",
          "type": "uint16"
        }
      ],
      "stateMutability": "view",
      "type": "function"
    },
    {
      "inputs": [],
      "name": "lpLockMonths",
      "outputs": [
        {
          "internalType": "uint256",
          "name": "",
          "type": "uint256"
        }
      ],
      "stateMutability": "view",
      "type": "function"
    },
    {
      "inputs": [],
      "name": "lpLocker",
      "outputs": [
        {
          "internalType": "contract ILPLocker",
          "name": "",
          "type": "address"
        }
      ],
      "stateMutability": "view",
      "type": "function"
    },
    {
      "inputs": [],
      "name": "lpLockerAddress",
      "outputs": [
        {
          "internalType": "address",
          "name": "",
          "type": "address"
        }
      ],
      "stateMutability": "view",
      "type": "function"
    },
    {
      "inputs": [],
      "name": "maxContribution",
      "outputs": [
        {
          "internalType": "uint256",
          "name": "",
          "type": "uint256"
        }
      ],
      "stateMutability": "view",
      "type": "function"
    },
    {
      "inputs": [],
      "name": "minContribution",
      "outputs": [
        {
          "internalType": "uint256",
          "name": "",
          "type": "uint256"
        }
      ],
      "stateMutability": "view",
      "type": "function"
    },
    {
      "inputs": [],
      "name": "participantCount",
      "outputs": [
        {
          "internalType": "uint256",
          "name": "",
          "type": "uint256"
        }
      ],
      "stateMutability": "view",
      "type": "function"
    },
    {
      "inputs": [],
      "name": "pause",
      "outputs": [],
      "stateMutability": "nonpayable",
      "type": "function"
    },
    {
      "inputs": [],
      "name": "paymentToken",
      "outputs": [
        {
          "internalType": "address",
          "name": "",
          "type": "address"
        }
      ],
      "stateMutability": "view",
      "type": "function"
    },
    {
      "inputs": [],
      "name": "projectOwner",
      "outputs": [
        {
          "internalType": "address",
          "name": "",
          "type": "address"
        }
      ],
      "stateMutability": "view",
      "type": "function"
    },
    {
      "inputs": [],
      "name": "projectToken",
      "outputs": [
        {
          "internalType": "address",
          "name": "",
          "type": "address"
        }
      ],
      "stateMutability": "view",
      "type": "function"
    },
    {
      "inputs": [],
      "name": "refund",
      "outputs": [],
      "stateMutability": "nonpayable",
      "type": "function"
    },
    {
      "inputs": [
        {
          "internalType": "bytes32",
          "name": "role",
          "type": "bytes32"
        },
        {
          "internalType": "address",
          "name": "callerConfirmation",
          "type": "address"
        }
      ],
      "name": "renounceRole",
      "outputs": [],
      "stateMutability": "nonpayable",
      "type": "function"
    },
    {
      "inputs": [
        {
          "internalType": "bytes32",
          "name": "role",
          "type": "bytes32"
        },
        {
          "internalType": "address",
          "name": "account",
          "type": "address"
        }
      ],
      "name": "revokeRole",
      "outputs": [],
      "stateMutability": "nonpayable",
      "type": "function"
    },
    {
      "inputs": [
        {
          "internalType": "address",
          "name": "_lpLocker",
          "type": "address"
        }
      ],
      "name": "setLPLocker",
      "outputs": [],
      "stateMutability": "nonpayable",
      "type": "function"
    },
    {
      "inputs": [],
      "name": "softcap",
      "outputs": [
        {
          "internalType": "uint256",
          "name": "",
          "type": "uint256"
        }
      ],
      "stateMutability": "view",
      "type": "function"
    },
    {
      "inputs": [],
      "name": "startTime",
      "outputs": [
        {
          "internalType": "uint256",
          "name": "",
          "type": "uint256"
        }
      ],
      "stateMutability": "view",
      "type": "function"
    },
    {
      "inputs": [],
      "name": "status",
      "outputs": [
        {
          "internalType": "enum Fairlaunch.Status",
          "name": "",
          "type": "uint8"
        }
      ],
      "stateMutability": "view",
      "type": "function"
    },
    {
      "inputs": [
        {
          "internalType": "bytes4",
          "name": "interfaceId",
          "type": "bytes4"
        }
      ],
      "name": "supportsInterface",
      "outputs": [
        {
          "internalType": "bool",
          "name": "",
          "type": "bool"
        }
      ],
      "stateMutability": "view",
      "type": "function"
    },
    {
      "inputs": [],
      "name": "teamVesting",
      "outputs": [
        {
          "internalType": "address",
          "name": "",
          "type": "address"
        }
      ],
      "stateMutability": "view",
      "type": "function"
    },
    {
      "inputs": [],
      "name": "tokensForSale",
      "outputs": [
        {
          "internalType": "uint256",
          "name": "",
          "type": "uint256"
        }
      ],
      "stateMutability": "view",
      "type": "function"
    },
    {
      "inputs": [],
      "name": "totalRaised",
      "outputs": [
        {
          "internalType": "uint256",
          "name": "",
          "type": "uint256"
        }
      ],
      "stateMutability": "view",
      "type": "function"
    },
    {
      "inputs": [],
      "name": "unpause",
      "outputs": [],
      "stateMutability": "nonpayable",
      "type": "function"
    }
  ],
  "bytecode": "0x34620003b357620029ef38819003610280601f8201601f19168101906001600160401b03821190821017620003b8576102009282916040526102803912620003b3576200004e610280620003ce565b6200005b6102a0620003ce565b6102c0516102e051610300516103205161034051610360516103805195979590949392919061ffff81168103620003b35762000167956200009e6103a0620003ce565b92620000ac6103c0620003ce565b94620000ba6103e0620003ce565b96620000c8610400620003ce565b6104205161044051610460516001805560809e909e5260a09e909e5260c09e909e5260e09990995261010052610120526101405261016052610180526101a0526101c0526101e0526102209485526102409384526102609283526002805460ff60a01b19169055600046603803620002fa57507310ed43c718714eb63d5aa57b78b54704e256024e5b610200526200016081620003e3565b5062000463565b50604051916124c99384620005068539608051848181610b5101528181610c3c01528181610ec601528181611f4b0152611fe7015260a05184818161031c015281816107e901528181610a2c01528181610dd601528181610f0a01528181611a7801528181611dda01528181611efd01526121ec015260c05184818161024b01526119e4015260e051848181610bec0152818161136701528181611a2b01528181611f8d01526124590152610100518481816105cd01526117660152610120518481816106f001526117b00152610140518481816108a50152818161236101526123f1015261016051848181610d9e0152818161233701526123c70152610180518481816113a50152611b5b01526101a05184818161099a01528181611aa601526121cb01526101c05184818161095601528181611da20152611fc601526101e05184818161060501528181611cff01528181611e0c0152611edc015261020051848181610e9001526113de0152518381816105920152611b2c01525182818161072b0152611c3d015251816113020152f35b466061036200031f575073d99d1c33f9fc3444f8101754abc46c52416550d162000151565b600146148015620003a6575b156200034d5750737a250d5630b4cf539739df2c5dacb4c659f2488d62000151565b612105461490811562000398575b50156200037d57734752ba5dbc23f44d87826276bf6fd6b1c372ad2462000151565b737a250d5630b4cf539739df2c5dacb4c659f2488d62000151565b4662014a341491506200035b565b5062aa36a746146200032b565b600080fd5b634e487b7160e01b600052604160045260246000fd5b51906001600160a01b0382168203620003b357565b6001600160a01b031660008181527fad3228b676f7d3cd4284a5443f17f1962b36e491b30a40b2405849e597ba5fb5602052604081205490919060ff166200045f57818052816020526040822081835260205260408220600160ff198254161790553391600080516020620029cf8339815191528180a4600190565b5090565b6001600160a01b031660008181527f7d7ffb7a348e1c6a02869081a26547b49160dd3df72d1d75a570eb9b698292ec60205260408120549091907fa49807205ce4d355092ef5a8a18f56e8913cf4a201fbe287825b095693c217759060ff166200050057808352826020526040832082845260205260408320600160ff19825416179055600080516020620029cf833981519152339380a4600190565b50509056fe608060408181526004918236101561001657600080fd5b600092833560e01c91826301ffc9a71461140d5750816303fc20131461074e5781630758d924146113c95781630b7c1ae11461138a57816312aef8c31461134f5781631cc645441461064f578163200d2ed214611325578163220c0956146112ea578163224e93fe14610e59578163248a9ca314610e2f5781632f2ff15d14610e055781633013ce2914610dc15781633197cbb614610d86578163362f04c014610d6857816336568abe14610d225781633f4ba83a14610cd757816342e94c90146103b857816348c54b9d14610b805781634b60ce7714610b3c5781634bb278f314610b1b5781634e69d56014610aee578163590e1ae3146109c95781636052970c14610985578163619f3d6c1461094157816373b2e80e1461090357816375b238fc146108c857816378e979251461088d5781638160059a146107c95781638456cb591461077757816389dda6a01461074e5781638bcd8515146107135781638d3d6576146106d85781638d4e4083146106b457816391d148541461066e5781639ce05df71461064f578163a217fddf14610634578163a4475ce4146105f0578163aaffadf3146105b5578163b06837551461057a578163b187bd2614610553578163b524f87b1461041d578163b920ade2146103f0578163bb8b2b47146103b8578163c5c4744c14610399578163d547741f1461035a578163d7bb99ba14610304578163ea8a1af014610272575063f89be5931461023557600080fd5b3461026e578160031936011261026e57602090517f00000000000000000000000000000000000000000000000000000000000000008152f35b5080fd5b90503461030057826003193601126103005761028c6114ba565b6002549160ff8360a01c1660068110156102ed576003146102e057505060ff60a01b1916600560a01b176002557f63b958841f79ab97cb5456da181454b9932c0e15a3b17f1cbd27e2a8bc6104378180a180f35b516307a92f1960e51b8152fd5b634e487b7160e01b855260218352602485fd5b8280fd5b919050826003193601126103005761031a61164d565b7f00000000000000000000000000000000000000000000000000000000000000006001600160a01b03166102e057826103533433611733565b6001805580f35b919050346103005780600319360112610300576103959135610390600161037f611489565b938387528660205286200154611534565b6115d8565b5080f35b50503461026e578160031936011261026e576020906003549051908152f35b50503461026e57602036600319011261026e5760209181906001600160a01b036103e06114a4565b1681526007845220549051908152f35b50503461026e57602036600319011261026e576020906104166104116114a4565b612418565b9051908152f35b8391503461026e57602036600319011261026e576104396114a4565b6104416114ba565b600254906001600160a01b03908183166105185760ff600654166104e1571691821561049e57506001600160a01b03191681176002557ff3e056d0219310a4e47c749671cfbc8607538f3327bb8c6bf872a1119b622d2f8280a280f35b606490602086519162461bcd60e51b8352820152601960248201527f496e76616c6964204c50204c6f636b65722061646472657373000000000000006044820152fd5b855162461bcd60e51b81526020818601526011602482015270105b1c9958591e48199a5b985b1a5e9959607a1b6044820152606490fd5b855162461bcd60e51b81526020818601526015602482015274131408131bd8dad95c88185b1c9958591e481cd95d605a1b6044820152606490fd5b50503461026e578160031936011261026e5760209060ff60065460081c1690519015158152f35b50503461026e578160031936011261026e57602090517f00000000000000000000000000000000000000000000000000000000000000008152f35b50503461026e578160031936011261026e57602090517f00000000000000000000000000000000000000000000000000000000000000008152f35b50503461026e578160031936011261026e57517f00000000000000000000000000000000000000000000000000000000000000006001600160a01b03168152602090f35b50503461026e578160031936011261026e5751908152602090f35b50503461026e578160031936011261026e576020906005549051908152f35b9050346103005781600319360112610300578160209360ff9261068f611489565b903582528186528282206001600160a01b039091168252855220549151911615158152f35b50503461026e578160031936011261026e5760209060ff6006541690519015158152f35b50503461026e578160031936011261026e57602090517f00000000000000000000000000000000000000000000000000000000000000008152f35b50503461026e578160031936011261026e57602090517f00000000000000000000000000000000000000000000000000000000000000008152f35b50503461026e578160031936011261026e5760025490516001600160a01b039091168152602090f35b83346107c657806003193601126107c6576107906114ba565b61010061ff001960065416176006557f9e87fac88ff661f02d44f95383c817fece4bce600a3dab7a54406878b965e7528180a180f35b80fd5b83833461026e57602036600319011261026e578235906107e761164d565b7f00000000000000000000000000000000000000000000000000000000000000006001600160a01b0316801561087d5781516323b872dd60e01b6020820152336024820152306044820152606480820185905281529160a083019067ffffffffffffffff82118483101761086a57526103539291610864916116a8565b33611733565b634e487b7160e01b865260418752602486fd5b81516307a92f1960e51b81528590fd5b50503461026e578160031936011261026e57602090517f00000000000000000000000000000000000000000000000000000000000000008152f35b50503461026e578160031936011261026e57602090517fa49807205ce4d355092ef5a8a18f56e8913cf4a201fbe287825b095693c217758152f35b50503461026e57602036600319011261026e5760209160ff9082906001600160a01b0361092e6114a4565b1681526008855220541690519015158152f35b50503461026e578160031936011261026e57517f00000000000000000000000000000000000000000000000000000000000000006001600160a01b03168152602090f35b50503461026e578160031936011261026e57517f00000000000000000000000000000000000000000000000000000000000000006001600160a01b03168152602090f35b919050346103005782600319360112610300576109e461164d565b60ff60025460a01c166006811015610adb57828114159081610acf575b506102e05733835260076020528083205415610ac257338352600760205280832080549084905591827f00000000000000000000000000000000000000000000000000000000000000006001600160a01b031680610ab157508480808093335af1610a6a6118e5565b5015610aa357505b519081527fd7dee2702d63ad89917b6a4da9981c90c4d24f8c2bdfd64c604ecae57d8d065160203392a26001805580f35b90516312171d8360e31b8152fd5b610abd9250339061227d565b610a72565b5163f76aef6560e01b8152fd5b60059150141538610a01565b634e487b7160e01b845260218352602484fd5b50503461026e578160031936011261026e57610b1790610b0c612388565b905191829182611460565b0390f35b83346107c657806003193601126107c657610b3461164d565b6103536119a5565b50503461026e578160031936011261026e57517f00000000000000000000000000000000000000000000000000000000000000006001600160a01b03168152602090f35b905034610300578260031936011261030057610b9a61164d565b60ff60025460a01c166006811015610cc457600303610cb65733835260076020528183205415610ca857338352600860205260ff8284205416610c9a57503382526007602052610c1a610c11828420547f0000000000000000000000000000000000000000000000000000000000000000906118a5565b600354906118b8565b338084526008602052828420805460ff19166001179055909190610c699083907f00000000000000000000000000000000000000000000000000000000000000006001600160a01b031661227d565b519081527f896e034966eaaf1adc54acc0f257056febbd300c9e47182cf761982cf1f5e43060203392a26001805580f35b9051630c8d9eab60e31b8152fd5b9051631971fbf360e21b8152fd5b90516307a92f1960e51b8152fd5b634e487b7160e01b845260218252602484fd5b83346107c657806003193601126107c657610cf06114ba565b61ff0019600654166006557fa45f47fdea8a1efdd9029a5691c7f759c32b7c698632b563573e155625d169338180a180f35b83833461026e578060031936011261026e57610d3c611489565b90336001600160a01b03831603610d5957506103959192356115d8565b5163334bd91960e11b81528390fd5b90503461030057826003193601126103005760209250549051908152f35b50503461026e578160031936011261026e57602090517f00000000000000000000000000000000000000000000000000000000000000008152f35b50503461026e578160031936011261026e57517f00000000000000000000000000000000000000000000000000000000000000006001600160a01b03168152602090f35b919050346103005780600319360112610300576103959135610e2a600161037f611489565b61155a565b90503461030057602036600319011261030057816020936001923581528085522001549051908152f35b8284346107c657816003193601126107c657823590602435933033036112dc57835163095ea7b360e01b8082526001600160a01b037f00000000000000000000000000000000000000000000000000000000000000008116848401818152602080820189905299929791947f000000000000000000000000000000000000000000000000000000000000000094858a16929091908c908290819060400103818c875af180156112d2576112b5575b507f00000000000000000000000000000000000000000000000000000000000000009089821690816110ef5750505061012c4201928342116110dc576060929160c4918b51958694859363f305d71960e01b85528b85015260248401528a60448401528a606484015230608484015260a4830152875af18015611085576110ae575b50855163c45a015560e01b81529187838581845afa9283156110855784918991879561108f575b5088516315ab88c960e31b815295869182905afa93841561108557918689949261101296948895611066575b50895163e6a4390560e01b81526001600160a01b0393841691810191825292909416602085015290948593849291839160400190565b0392165afa91821561105b579161102e575b50915b5191168152f35b61104e9150843d8611611054575b6110468183611670565b81019061196e565b84611024565b503d61103c565b8451903d90823e3d90fd5b61107e919550863d8811611054576110468183611670565b938b610fdc565b87513d87823e3d90fd5b6110a7919550823d8411611054576110468183611670565b938a610fb0565b6110ce9060603d81116110d5575b6110c68183611670565b8101906122c0565b5050610f89565b503d6110bc565b634e487b7160e01b885260118752602488fd5b8b519081526001600160a01b038816818a01908152602081018790529298979593949193928d908290819060400103818d885af180156112ab5761127e575b5061012c42019283421161126b578b519462e8e33760e81b8652888601526024850152604484015260648301528660848301528660a48301523060c483015260e48201526060816101048189865af18015611261579189918593611243575b50885163c45a015560e01b815294859182905afa9283156110855791868994926111ee969488946112245750895163e6a4390560e01b81526001600160a01b0393841691810191825292909416602085015290948593849291839160400190565b0392165afa91821561105b5791611207575b5091611027565b61121e9150843d8611611054576110468183611670565b84611200565b61123c919450863d8811611054576110468183611670565b928b610fdc565b61125a9060603d81116110d5576110c68183611670565b505061118d565b88513d88823e3d90fd5b634e487b7160e01b8a526011885260248afd5b61129d908d803d106112a4575b6112958183611670565b81019061198d565b508c61112e565b503d61128b565b8c513d8c823e3d90fd5b6112cb908c8d3d106112a4576112958183611670565b508b610f07565b8b513d8b823e3d90fd5b835163ea8e4eb560e01b8152fd5b50503461026e578160031936011261026e57602090517f00000000000000000000000000000000000000000000000000000000000000008152f35b50503461026e578160031936011261026e57610b179060ff60025460a01c16905191829182611460565b50503461026e578160031936011261026e57602090517f00000000000000000000000000000000000000000000000000000000000000008152f35b50503461026e578160031936011261026e576020905161ffff7f0000000000000000000000000000000000000000000000000000000000000000168152f35b50503461026e578160031936011261026e57517f00000000000000000000000000000000000000000000000000000000000000006001600160a01b03168152602090f35b849134610300576020366003190112610300573563ffffffff60e01b81168091036103005760209250637965db0b60e01b811490811561144f575b5015158152f35b6301ffc9a760e01b14905083611448565b9190602083019260068210156114735752565b634e487b7160e01b600052602160045260246000fd5b602435906001600160a01b038216820361149f57565b600080fd5b600435906001600160a01b038216820361149f57565b3360009081527f7d7ffb7a348e1c6a02869081a26547b49160dd3df72d1d75a570eb9b698292ec60205260409020547fa49807205ce4d355092ef5a8a18f56e8913cf4a201fbe287825b095693c217759060ff16156115165750565b6044906040519063e2517d3f60e01b82523360048301526024820152fd5b80600052600060205260406000203360005260205260ff60406000205416156115165750565b9060009180835282602052604083209160018060a01b03169182845260205260ff604084205416156000146115d357808352826020526040832082845260205260408320600160ff198254161790557f2f8788117e7eff1d82e926ec794901d17c78024a50270940304540a733656f0d339380a4600190565b505090565b9060009180835282602052604083209160018060a01b03169182845260205260ff6040842054166000146115d35780835282602052604083208284526020526040832060ff1981541690557ff6391f5c32d9c69d2a47ea670b442974b53935d1edc7fd64eb21e047a839171b339380a4600190565b60026001541461165e576002600155565b604051633ee5aeb560e01b8152600490fd5b90601f8019910116810190811067ffffffffffffffff82111761169257604052565b634e487b7160e01b600052604160045260246000fd5b906000602091828151910182855af115611704576000513d6116fb57506001600160a01b0381163b155b6116d95750565b604051635274afe760e01b81526001600160a01b039091166004820152602490fd5b600114156116d2565b6040513d6000823e3d90fd5b9190820180921161171d57565b634e487b7160e01b600052601160045260246000fd5b91909161173e6122db565b60ff60025460a01c166006811015611473576001036118935760ff60065460081c16611881577f0000000000000000000000000000000000000000000000000000000000000000831061186f5760018060a01b031660009281845260076020526040906117ae8183872054611710565b7f0000000000000000000000000000000000000000000000000000000000000000811161185e5783865260076020528286205415611833575b8286857ffa35a310d7113dddce1c275da946348e9aaebf9050b00b372033c4d84b0bd6eb969798526007602052205561182281600354611710565b8060035582519182526020820152a2565b600454600019811461184a576001016004556117e7565b634e487b7160e01b87526011600452602487fd5b8251635e508cd360e11b8152600490fd5b604051636c7591b560e11b8152600490fd5b60405163ab35696f60e01b8152600490fd5b6040516307a92f1960e51b8152600490fd5b8181029291811591840414171561171d57565b81156118c2570490565b634e487b7160e01b600052601260045260246000fd5b9190820391821161171d57565b3d15611920573d9067ffffffffffffffff82116116925760405191611914601f8201601f191660200184611670565b82523d6000602084013e565b606090565b6020808252825181830181905290939260005b82811061195a57505060409293506000838284010152601f8019910116010190565b818101860151848201604001528501611938565b9081602091031261149f57516001600160a01b038116810361149f5790565b9081602091031261149f5751801515810361149f5790565b6119ad6122db565b600254600060ff8260a01c166006811015612269576002036118935760065460ff81166118935760ff1916600117600655600354917f000000000000000000000000000000000000000000000000000000000000000083106122325750811590670de0b6b3a7640000838102848104821484171561216957611a50907f0000000000000000000000000000000000000000000000000000000000000000906118b8565b6005556101f4928385029385850414171561221e57611a7561271080940480956118d8565b937f00000000000000000000000000000000000000000000000000000000000000006001600160a01b03166121c5577f00000000000000000000000000000000000000000000000000000000000000006001600160a01b0316803b156121c15783906024604051809481936339650d1f60e01b83523060048401525af19081612191575b50611b2657611b22611b096118e5565b604051630fb6a2b560e21b815291829160048301611925565b0390fd5b82611b517f0000000000000000000000000000000000000000000000000000000000000000866118a5565b049260055461ffff7f00000000000000000000000000000000000000000000000000000000000000001682019081831161217d5790611b8f916118a5565b04908084029084820414841517156121695790611bab916118b8565b6040519063112749ff60e11b8252600482015282602482015260208160448185305af1829181612148575b50611bff57611b22611be66118e5565b604051630abc035f60e41b815291829160048301611925565b6040516370a0823160e01b8152306004820152909390926020846024816001600160a01b0389165afa93841561213d578394612109575b5062278d007f00000000000000000000000000000000000000000000000000000000000000008181029181159183041417156120f557611c769042611710565b6002546001600160a01b031680156120b05760405163095ea7b360e01b81526001600160a01b0390911660048201526024810186905260208180604481010381886001600160a01b038c165af180156120a557612086575b50600254604051630aa393f360e01b81526001600160a01b03888116600483015260248201889052604482018490527f0000000000000000000000000000000000000000000000000000000000000000811660648301529091602091839160849183918a91165af1908161205b575b50611d6657611b22611d4d6118e5565b6040516301953ea360e11b815291829160048301611925565b6040519085825260208201527fe3afae9ec63e6f2e914c17bab8493b603680a72d9e6dfacf25ac6a4806555d41604060018060a01b03881692a27f00000000000000000000000000000000000000000000000000000000000000006001600160a01b0316611f2f575b611dd8916118d8565b7f00000000000000000000000000000000000000000000000000000000000000006001600160a01b0316611ead57818080927f00000000000000000000000000000000000000000000000000000000000000005af1611e356118e5565b5015611e9b577f6e4389167d2afbd1ccb4797ea87e29958adbf74cd16ba077a2ee5ab8460784e5916080915b600360a01b60ff60a01b19600254161760025560055491600354604051938452602084015260018060a01b031660408301526060820152a1565b6040516312171d8360e31b8152600490fd5b7f6e4389167d2afbd1ccb4797ea87e29958adbf74cd16ba077a2ee5ab8460784e59360809390925090611f2a907f00000000000000000000000000000000000000000000000000000000000000007f00000000000000000000000000000000000000000000000000000000000000006001600160a01b031661227d565b611e61565b6040516370a0823160e01b8152306004820152916020836024817f00000000000000000000000000000000000000000000000000000000000000006001600160a01b03165afa92831561205057849361201a575b50611fb2611dd8937f0000000000000000000000000000000000000000000000000000000000000000906118d8565b80611fc0575b509150611dcf565b612014907f00000000000000000000000000000000000000000000000000000000000000007f00000000000000000000000000000000000000000000000000000000000000006001600160a01b031661227d565b38611fb8565b92506020833d602011612048575b8161203560209383611670565b8101031261149f57915191611fb2611f83565b3d9150612028565b6040513d86823e3d90fd5b602090813d831161207f575b6120718183611670565b8101031261149f5738611d3d565b503d612067565b61209e9060203d6020116112a4576112958183611670565b5038611cce565b6040513d87823e3d90fd5b60405162461bcd60e51b815260206004820152601860248201527f4c50204c6f636b6572206e6f7420636f6e6669677572656400000000000000006044820152606490fd5b634e487b7160e01b84526011600452602484fd5b9093506020813d602011612135575b8161212560209383611670565b8101031261149f57519238611c36565b3d9150612118565b6040513d85823e3d90fd5b61216291925060203d602011611054576110468183611670565b9038611bd6565b634e487b7160e01b83526011600452602483fd5b634e487b7160e01b85526011600452602485fd5b67ffffffffffffffff81949294116121ad576040529138611af9565b634e487b7160e01b82526041600452602482fd5b8380fd5b612219907f00000000000000000000000000000000000000000000000000000000000000007f00000000000000000000000000000000000000000000000000000000000000006001600160a01b031661227d565b611b26565b634e487b7160e01b82526011600452602482fd5b60ff60a01b1916600160a21b176002557fe48846a3dca191c762ab6aaa1e929ccaf55e31a875fb78ad1b93e15ef4830aca915080a1565b634e487b7160e01b82526021600452602482fd5b60405163a9059cbb60e01b60208201526001600160a01b039290921660248301526044808301939093529181526122be916122b9606483611670565b6116a8565b565b9081606091031261149f578051916040602083015192015190565b60025460ff8160a01c1660068110156114735780158061235e575b156123125750506002805460ff60a01b1916600160a01b179055565b60011480612334575b6123225750565b60ff60a01b1916600160a11b17600255565b507f000000000000000000000000000000000000000000000000000000000000000042101561231b565b507f00000000000000000000000000000000000000000000000000000000000000004210156122f6565b60ff60025460a01c166006811015611473578015806123ee575b156123ad5750600190565b60018114806123c4575b6123be5790565b50600290565b507f00000000000000000000000000000000000000000000000000000000000000004210156123b7565b507f00000000000000000000000000000000000000000000000000000000000000004210156123a2565b60ff60025460a01c1660068110156114735760030361248d576003548015612486576124839160018060a01b0316600052600760205261247e6040600020547f0000000000000000000000000000000000000000000000000000000000000000906118a5565b6118b8565b90565b5050600090565b5060009056fea2646970667358221220e11760ea770a19a552934a81c3e6be5c43a14bc7613194500927888bdb49aafd64736f6c634300081400332f8788117e7eff1d82e926ec794901d17c78024a50270940304540a733656f0d",
  "linkReferences": {},
  "deployedLinkReferences": {}
}