{
  "_format": "hh-sol-artifact-1",
  "contractName": "Fairlaunch",
  "sourceName": "contracts/fairlaunch/Fairlaunch.sol",
  "abi": [
    {
      "inputs": [
        {
          "internalType": "address",
          "name": "_projectToken",
          "type": "address"
        },
        {
          "internalType": "address",
          "name": "_paymentToken",
          "type": "address"
        },
        {
          "internalType": "uint256",
          "name": "_softcap",
          "type": "uint256"
        },
        {
          "internalType": "uint256",
          "name": "_tokensForSale",
          "type": "uint256"
        },
        {
          "internalType": "uint256",
          "name": "_minContribution",
          "type": "uint256"
        },
        {
          "internalType": "uint256",
          "name": "_maxContribution",
          "type": "uint256"
        },
        {
          "internalType": "uint256",
          "name": "_startTime",
          "type": "uint256"
        },
        {
          "internalType": "uint256",
          "name": "_endTime",
          "type": "uint256"
        },
        {
          "internalType": "uint16",
          "name": "_listingPremiumBps",
          "type": "uint16"
        },
        {
          "internalType": "address",
          "name": "_feeSplitter",
          "type": "address"
        },
        {
          "internalType": "address",
          "name": "_teamVesting",
          "type": "address"
        },
        {
          "internalType": "address",
          "name": "_projectOwner",
          "type": "address"
        },
        {
          "internalType": "address",
          "name": "_adminExecutor",
          "type": "address"
        },
        {
          "internalType": "uint256",
          "name": "_liquidityPercent",
          "type": "uint256"
        },
        {
          "internalType": "uint256",
          "name": "_lpLockMonths",
          "type": "uint256"
        },
        {
          "internalType": "bytes32",
          "name": "_dexId",
          "type": "bytes32"
        }
      ],
      "stateMutability": "nonpayable",
      "type": "constructor"
    },
    {
      "inputs": [],
      "name": "AccessControlBadConfirmation",
      "type": "error"
    },
    {
      "inputs": [
        {
          "internalType": "address",
          "name": "account",
          "type": "address"
        },
        {
          "internalType": "bytes32",
          "name": "neededRole",
          "type": "bytes32"
        }
      ],
      "name": "AccessControlUnauthorizedAccount",
      "type": "error"
    },
    {
      "inputs": [],
      "name": "AlreadyClaimed",
      "type": "error"
    },
    {
      "inputs": [],
      "name": "ContractPaused",
      "type": "error"
    },
    {
      "inputs": [],
      "name": "ContributionTooHigh",
      "type": "error"
    },
    {
      "inputs": [],
      "name": "ContributionTooLow",
      "type": "error"
    },
    {
      "inputs": [
        {
          "internalType": "bytes",
          "name": "reason",
          "type": "bytes"
        }
      ],
      "name": "DexAddLiquidityCallFailed",
      "type": "error"
    },
    {
      "inputs": [
        {
          "internalType": "bytes",
          "name": "reason",
          "type": "bytes"
        }
      ],
      "name": "FeeSplitterCallFailed",
      "type": "error"
    },
    {
      "inputs": [],
      "name": "InvalidStatus",
      "type": "error"
    },
    {
      "inputs": [
        {
          "internalType": "bytes",
          "name": "reason",
          "type": "bytes"
        }
      ],
      "name": "LPLockerCallFailed",
      "type": "error"
    },
    {
      "inputs": [],
      "name": "NoContribution",
      "type": "error"
    },
    {
      "inputs": [],
      "name": "NotAuthorized",
      "type": "error"
    },
    {
      "inputs": [],
      "name": "NothingToRefund",
      "type": "error"
    },
    {
      "inputs": [],
      "name": "ReentrancyGuardReentrantCall",
      "type": "error"
    },
    {
      "inputs": [
        {
          "internalType": "address",
          "name": "token",
          "type": "address"
        }
      ],
      "name": "SafeERC20FailedOperation",
      "type": "error"
    },
    {
      "inputs": [],
      "name": "SoftcapNotMet",
      "type": "error"
    },
    {
      "inputs": [],
      "name": "TransferFailed",
      "type": "error"
    },
    {
      "anonymous": false,
      "inputs": [],
      "name": "Cancelled",
      "type": "event"
    },
    {
      "anonymous": false,
      "inputs": [
        {
          "indexed": true,
          "internalType": "address",
          "name": "user",
          "type": "address"
        },
        {
          "indexed": false,
          "internalType": "uint256",
          "name": "amount",
          "type": "uint256"
        },
        {
          "indexed": false,
          "internalType": "uint256",
          "name": "totalRaised",
          "type": "uint256"
        }
      ],
      "name": "Contributed",
      "type": "event"
    },
    {
      "anonymous": false,
      "inputs": [
        {
          "indexed": false,
          "internalType": "enum Fairlaunch.FinalizeStep",
          "name": "step",
          "type": "uint8"
        }
      ],
      "name": "FinalizationStepCompleted",
      "type": "event"
    },
    {
      "anonymous": false,
      "inputs": [],
      "name": "FinalizedFail",
      "type": "event"
    },
    {
      "anonymous": false,
      "inputs": [
        {
          "indexed": false,
          "internalType": "uint256",
          "name": "finalPrice",
          "type": "uint256"
        },
        {
          "indexed": false,
          "internalType": "uint256",
          "name": "totalRaised",
          "type": "uint256"
        },
        {
          "indexed": false,
          "internalType": "address",
          "name": "lpToken",
          "type": "address"
        },
        {
          "indexed": false,
          "internalType": "uint256",
          "name": "lpAmount",
          "type": "uint256"
        }
      ],
      "name": "FinalizedSuccess",
      "type": "event"
    },
    {
      "anonymous": false,
      "inputs": [
        {
          "indexed": true,
          "internalType": "address",
          "name": "lpLocker",
          "type": "address"
        }
      ],
      "name": "LPLockerSet",
      "type": "event"
    },
    {
      "anonymous": false,
      "inputs": [
        {
          "indexed": true,
          "internalType": "address",
          "name": "lpToken",
          "type": "address"
        },
        {
          "indexed": false,
          "internalType": "uint256",
          "name": "lpAmount",
          "type": "uint256"
        },
        {
          "indexed": false,
          "internalType": "uint256",
          "name": "unlockTime",
          "type": "uint256"
        }
      ],
      "name": "LiquidityAdded",
      "type": "event"
    },
    {
      "anonymous": false,
      "inputs": [
        {
          "indexed": true,
          "internalType": "address",
          "name": "lpToken",
          "type": "address"
        },
        {
          "indexed": false,
          "internalType": "uint256",
          "name": "amount",
          "type": "uint256"
        },
        {
          "indexed": false,
          "internalType": "uint256",
          "name": "unlockTime",
          "type": "uint256"
        }
      ],
      "name": "LiquidityLocked",
      "type": "event"
    },
    {
      "anonymous": false,
      "inputs": [],
      "name": "Paused",
      "type": "event"
    },
    {
      "anonymous": false,
      "inputs": [
        {
          "indexed": true,
          "internalType": "address",
          "name": "user",
          "type": "address"
        },
        {
          "indexed": false,
          "internalType": "uint256",
          "name": "amount",
          "type": "uint256"
        }
      ],
      "name": "Refunded",
      "type": "event"
    },
    {
      "anonymous": false,
      "inputs": [
        {
          "indexed": true,
          "internalType": "bytes32",
          "name": "role",
          "type": "bytes32"
        },
        {
          "indexed": true,
          "internalType": "bytes32",
          "name": "previousAdminRole",
          "type": "bytes32"
        },
        {
          "indexed": true,
          "internalType": "bytes32",
          "name": "newAdminRole",
          "type": "bytes32"
        }
      ],
      "name": "RoleAdminChanged",
      "type": "event"
    },
    {
      "anonymous": false,
      "inputs": [
        {
          "indexed": true,
          "internalType": "bytes32",
          "name": "role",
          "type": "bytes32"
        },
        {
          "indexed": true,
          "internalType": "address",
          "name": "account",
          "type": "address"
        },
        {
          "indexed": true,
          "internalType": "address",
          "name": "sender",
          "type": "address"
        }
      ],
      "name": "RoleGranted",
      "type": "event"
    },
    {
      "anonymous": false,
      "inputs": [
        {
          "indexed": true,
          "internalType": "bytes32",
          "name": "role",
          "type": "bytes32"
        },
        {
          "indexed": true,
          "internalType": "address",
          "name": "account",
          "type": "address"
        },
        {
          "indexed": true,
          "internalType": "address",
          "name": "sender",
          "type": "address"
        }
      ],
      "name": "RoleRevoked",
      "type": "event"
    },
    {
      "anonymous": false,
      "inputs": [
        {
          "indexed": true,
          "internalType": "address",
          "name": "user",
          "type": "address"
        },
        {
          "indexed": false,
          "internalType": "uint256",
          "name": "amount",
          "type": "uint256"
        }
      ],
      "name": "TokensClaimed",
      "type": "event"
    },
    {
      "anonymous": false,
      "inputs": [],
      "name": "Unpaused",
      "type": "event"
    },
    {
      "inputs": [],
      "name": "ADMIN_ROLE",
      "outputs": [
        {
          "internalType": "bytes32",
          "name": "",
          "type": "bytes32"
        }
      ],
      "stateMutability": "view",
      "type": "function"
    },
    {
      "inputs": [],
      "name": "DEFAULT_ADMIN_ROLE",
      "outputs": [
        {
          "internalType": "bytes32",
          "name": "",
          "type": "bytes32"
        }
      ],
      "stateMutability": "view",
      "type": "function"
    },
    {
      "inputs": [
        {
          "internalType": "uint256",
          "name": "tokenAmount",
          "type": "uint256"
        },
        {
          "internalType": "uint256",
          "name": "fundAmount",
          "type": "uint256"
        }
      ],
      "name": "__addLiquidityExternal",
      "outputs": [
        {
          "internalType": "address",
          "name": "lpToken",
          "type": "address"
        }
      ],
      "stateMutability": "nonpayable",
      "type": "function"
    },
    {
      "inputs": [],
      "name": "adminAddLiquidity",
      "outputs": [],
      "stateMutability": "nonpayable",
      "type": "function"
    },
    {
      "inputs": [],
      "name": "adminDistributeFee",
      "outputs": [],
      "stateMutability": "nonpayable",
      "type": "function"
    },
    {
      "inputs": [],
      "name": "adminDistributeFunds",
      "outputs": [],
      "stateMutability": "nonpayable",
      "type": "function"
    },
    {
      "inputs": [],
      "name": "adminLockLP",
      "outputs": [],
      "stateMutability": "nonpayable",
      "type": "function"
    },
    {
      "inputs": [],
      "name": "cancel",
      "outputs": [],
      "stateMutability": "nonpayable",
      "type": "function"
    },
    {
      "inputs": [],
      "name": "claimTokens",
      "outputs": [],
      "stateMutability": "nonpayable",
      "type": "function"
    },
    {
      "inputs": [],
      "name": "contribute",
      "outputs": [],
      "stateMutability": "payable",
      "type": "function"
    },
    {
      "inputs": [
        {
          "internalType": "uint256",
          "name": "amount",
          "type": "uint256"
        }
      ],
      "name": "contributeERC20",
      "outputs": [],
      "stateMutability": "nonpayable",
      "type": "function"
    },
    {
      "inputs": [
        {
          "internalType": "address",
          "name": "",
          "type": "address"
        }
      ],
      "name": "contributions",
      "outputs": [
        {
          "internalType": "uint256",
          "name": "",
          "type": "uint256"
        }
      ],
      "stateMutability": "view",
      "type": "function"
    },
    {
      "inputs": [],
      "name": "dexId",
      "outputs": [
        {
          "internalType": "bytes32",
          "name": "",
          "type": "bytes32"
        }
      ],
      "stateMutability": "view",
      "type": "function"
    },
    {
      "inputs": [],
      "name": "dexRouter",
      "outputs": [
        {
          "internalType": "contract IUniswapV2Router02",
          "name": "",
          "type": "address"
        }
      ],
      "stateMutability": "view",
      "type": "function"
    },
    {
      "inputs": [],
      "name": "endTime",
      "outputs": [
        {
          "internalType": "uint256",
          "name": "",
          "type": "uint256"
        }
      ],
      "stateMutability": "view",
      "type": "function"
    },
    {
      "inputs": [],
      "name": "feeSplitter",
      "outputs": [
        {
          "internalType": "address",
          "name": "",
          "type": "address"
        }
      ],
      "stateMutability": "view",
      "type": "function"
    },
    {
      "inputs": [],
      "name": "finalTokenPrice",
      "outputs": [
        {
          "internalType": "uint256",
          "name": "",
          "type": "uint256"
        }
      ],
      "stateMutability": "view",
      "type": "function"
    },
    {
      "inputs": [],
      "name": "finalize",
      "outputs": [],
      "stateMutability": "nonpayable",
      "type": "function"
    },
    {
      "inputs": [],
      "name": "finalizeStep",
      "outputs": [
        {
          "internalType": "enum Fairlaunch.FinalizeStep",
          "name": "",
          "type": "uint8"
        }
      ],
      "stateMutability": "view",
      "type": "function"
    },
    {
      "inputs": [],
      "name": "getFinalPrice",
      "outputs": [
        {
          "internalType": "uint256",
          "name": "",
          "type": "uint256"
        }
      ],
      "stateMutability": "view",
      "type": "function"
    },
    {
      "inputs": [
        {
          "internalType": "bytes32",
          "name": "role",
          "type": "bytes32"
        }
      ],
      "name": "getRoleAdmin",
      "outputs": [
        {
          "internalType": "bytes32",
          "name": "",
          "type": "bytes32"
        }
      ],
      "stateMutability": "view",
      "type": "function"
    },
    {
      "inputs": [],
      "name": "getStatus",
      "outputs": [
        {
          "internalType": "enum Fairlaunch.Status",
          "name": "",
          "type": "uint8"
        }
      ],
      "stateMutability": "view",
      "type": "function"
    },
    {
      "inputs": [
        {
          "internalType": "address",
          "name": "user",
          "type": "address"
        }
      ],
      "name": "getUserAllocation",
      "outputs": [
        {
          "internalType": "uint256",
          "name": "",
          "type": "uint256"
        }
      ],
      "stateMutability": "view",
      "type": "function"
    },
    {
      "inputs": [
        {
          "internalType": "address",
          "name": "user",
          "type": "address"
        }
      ],
      "name": "getUserContribution",
      "outputs": [
        {
          "internalType": "uint256",
          "name": "",
          "type": "uint256"
        }
      ],
      "stateMutability": "view",
      "type": "function"
    },
    {
      "inputs": [
        {
          "internalType": "bytes32",
          "name": "role",
          "type": "bytes32"
        },
        {
          "internalType": "address",
          "name": "account",
          "type": "address"
        }
      ],
      "name": "grantRole",
      "outputs": [],
      "stateMutability": "nonpayable",
      "type": "function"
    },
    {
      "inputs": [
        {
          "internalType": "address",
          "name": "",
          "type": "address"
        }
      ],
      "name": "hasClaimed",
      "outputs": [
        {
          "internalType": "bool",
          "name": "",
          "type": "bool"
        }
      ],
      "stateMutability": "view",
      "type": "function"
    },
    {
      "inputs": [
        {
          "internalType": "bytes32",
          "name": "role",
          "type": "bytes32"
        },
        {
          "internalType": "address",
          "name": "account",
          "type": "address"
        }
      ],
      "name": "hasRole",
      "outputs": [
        {
          "internalType": "bool",
          "name": "",
          "type": "bool"
        }
      ],
      "stateMutability": "view",
      "type": "function"
    },
    {
      "inputs": [],
      "name": "isFinalized",
      "outputs": [
        {
          "internalType": "bool",
          "name": "",
          "type": "bool"
        }
      ],
      "stateMutability": "view",
      "type": "function"
    },
    {
      "inputs": [],
      "name": "isPaused",
      "outputs": [
        {
          "internalType": "bool",
          "name": "",
          "type": "bool"
        }
      ],
      "stateMutability": "view",
      "type": "function"
    },
    {
      "inputs": [],
      "name": "liquidityPercent",
      "outputs": [
        {
          "internalType": "uint256",
          "name": "",
          "type": "uint256"
        }
      ],
      "stateMutability": "view",
      "type": "function"
    },
    {
      "inputs": [],
      "name": "listingPremiumBps",
      "outputs": [
        {
          "internalType": "uint16",
          "name": "",
          "type": "uint16"
        }
      ],
      "stateMutability": "view",
      "type": "function"
    },
    {
      "inputs": [],
      "name": "lpLockMonths",
      "outputs": [
        {
          "internalType": "uint256",
          "name": "",
          "type": "uint256"
        }
      ],
      "stateMutability": "view",
      "type": "function"
    },
    {
      "inputs": [],
      "name": "lpLocker",
      "outputs": [
        {
          "internalType": "contract ILPLocker",
          "name": "",
          "type": "address"
        }
      ],
      "stateMutability": "view",
      "type": "function"
    },
    {
      "inputs": [],
      "name": "lpLockerAddress",
      "outputs": [
        {
          "internalType": "address",
          "name": "",
          "type": "address"
        }
      ],
      "stateMutability": "view",
      "type": "function"
    },
    {
      "inputs": [],
      "name": "lpTokenAddress",
      "outputs": [
        {
          "internalType": "address",
          "name": "",
          "type": "address"
        }
      ],
      "stateMutability": "view",
      "type": "function"
    },
    {
      "inputs": [],
      "name": "maxContribution",
      "outputs": [
        {
          "internalType": "uint256",
          "name": "",
          "type": "uint256"
        }
      ],
      "stateMutability": "view",
      "type": "function"
    },
    {
      "inputs": [],
      "name": "minContribution",
      "outputs": [
        {
          "internalType": "uint256",
          "name": "",
          "type": "uint256"
        }
      ],
      "stateMutability": "view",
      "type": "function"
    },
    {
      "inputs": [],
      "name": "participantCount",
      "outputs": [
        {
          "internalType": "uint256",
          "name": "",
          "type": "uint256"
        }
      ],
      "stateMutability": "view",
      "type": "function"
    },
    {
      "inputs": [],
      "name": "pause",
      "outputs": [],
      "stateMutability": "nonpayable",
      "type": "function"
    },
    {
      "inputs": [],
      "name": "paymentToken",
      "outputs": [
        {
          "internalType": "address",
          "name": "",
          "type": "address"
        }
      ],
      "stateMutability": "view",
      "type": "function"
    },
    {
      "inputs": [],
      "name": "projectOwner",
      "outputs": [
        {
          "internalType": "address",
          "name": "",
          "type": "address"
        }
      ],
      "stateMutability": "view",
      "type": "function"
    },
    {
      "inputs": [],
      "name": "projectToken",
      "outputs": [
        {
          "internalType": "address",
          "name": "",
          "type": "address"
        }
      ],
      "stateMutability": "view",
      "type": "function"
    },
    {
      "inputs": [],
      "name": "refund",
      "outputs": [],
      "stateMutability": "nonpayable",
      "type": "function"
    },
    {
      "inputs": [
        {
          "internalType": "bytes32",
          "name": "role",
          "type": "bytes32"
        },
        {
          "internalType": "address",
          "name": "callerConfirmation",
          "type": "address"
        }
      ],
      "name": "renounceRole",
      "outputs": [],
      "stateMutability": "nonpayable",
      "type": "function"
    },
    {
      "inputs": [
        {
          "internalType": "bytes32",
          "name": "role",
          "type": "bytes32"
        },
        {
          "internalType": "address",
          "name": "account",
          "type": "address"
        }
      ],
      "name": "revokeRole",
      "outputs": [],
      "stateMutability": "nonpayable",
      "type": "function"
    },
    {
      "inputs": [
        {
          "internalType": "address",
          "name": "_lpLocker",
          "type": "address"
        }
      ],
      "name": "setLPLocker",
      "outputs": [],
      "stateMutability": "nonpayable",
      "type": "function"
    },
    {
      "inputs": [],
      "name": "softcap",
      "outputs": [
        {
          "internalType": "uint256",
          "name": "",
          "type": "uint256"
        }
      ],
      "stateMutability": "view",
      "type": "function"
    },
    {
      "inputs": [],
      "name": "startTime",
      "outputs": [
        {
          "internalType": "uint256",
          "name": "",
          "type": "uint256"
        }
      ],
      "stateMutability": "view",
      "type": "function"
    },
    {
      "inputs": [],
      "name": "status",
      "outputs": [
        {
          "internalType": "enum Fairlaunch.Status",
          "name": "",
          "type": "uint8"
        }
      ],
      "stateMutability": "view",
      "type": "function"
    },
    {
      "inputs": [
        {
          "internalType": "bytes4",
          "name": "interfaceId",
          "type": "bytes4"
        }
      ],
      "name": "supportsInterface",
      "outputs": [
        {
          "internalType": "bool",
          "name": "",
          "type": "bool"
        }
      ],
      "stateMutability": "view",
      "type": "function"
    },
    {
      "inputs": [],
      "name": "teamVesting",
      "outputs": [
        {
          "internalType": "address",
          "name": "",
          "type": "address"
        }
      ],
      "stateMutability": "view",
      "type": "function"
    },
    {
      "inputs": [],
      "name": "tokensForSale",
      "outputs": [
        {
          "internalType": "uint256",
          "name": "",
          "type": "uint256"
        }
      ],
      "stateMutability": "view",
      "type": "function"
    },
    {
      "inputs": [],
      "name": "totalRaised",
      "outputs": [
        {
          "internalType": "uint256",
          "name": "",
          "type": "uint256"
        }
      ],
      "stateMutability": "view",
      "type": "function"
    },
    {
      "inputs": [],
      "name": "unpause",
      "outputs": [],
      "stateMutability": "nonpayable",
      "type": "function"
    }
  ],
  "bytecode": "0x34620003a55762002d2838819003610280601f8201601f19168101906001600160401b03821190821017620003aa576102009282916040526102803912620003a5576200004e610280620003c0565b6200005b6102a0620003c0565b6102c0516102e051610300516103205161034051610360516103805195979590949392919061ffff81168103620003a55762000167956200009e6103a0620003c0565b92620000ac6103c0620003c0565b94620000ba6103e0620003c0565b96620000c8610400620003c0565b6104205161044051610460516001805560809e909e5260a09e909e5260c09e909e5260e09990995261010052610120526101405261016052610180526101a0526101c0526101e0526102209485526102409384526102609283526002805460ff60a01b19169055600046603803620002ec57507310ed43c718714eb63d5aa57b78b54704e256024e5b610200526200016081620003d5565b5062000455565b50604051916128109384620004f88539608051848181610c6f01528181610d5a01528181611026015261252f015260a051848181610387015281816108d501528181610b5d01528181610ef40152818161106a01528181611d2901526123e4015260c05184818161028a01528181611a7f0152611b92015260e051848181610d0a015281816114c701528181611e64015281816125700152612780015261010051848181610690015261190e0152610120518481816107df0152611958015261014051848181610991015281816126880152612718015261016051848181610ebc0152818161265e01526126ee0152610180518481816115050152611f5901526101a051848181610a8601528181611d520152611e1701526101c051848181610a4201526123ba01526101e0518481816106c8015281816121a00152818161241301526124f0015261020051848181610ff0015261153e0152518381816105fd01528181611f2a015261238301525182818161081a01526120e0015251816114620152f35b4660610362000311575073d99d1c33f9fc3444f8101754abc46c52416550d162000151565b60014614801562000398575b156200033f5750737a250d5630b4cf539739df2c5dacb4c659f2488d62000151565b61210546149081156200038a575b50156200036f57734752ba5dbc23f44d87826276bf6fd6b1c372ad2462000151565b737a250d5630b4cf539739df2c5dacb4c659f2488d62000151565b4662014a341491506200034d565b5062aa36a746146200031d565b600080fd5b634e487b7160e01b600052604160045260246000fd5b51906001600160a01b0382168203620003a557565b6001600160a01b031660008181527fad3228b676f7d3cd4284a5443f17f1962b36e491b30a40b2405849e597ba5fb5602052604081205490919060ff166200045157818052816020526040822081835260205260408220600160ff19825416179055339160008051602062002d088339815191528180a4600190565b5090565b6001600160a01b031660008181527f7d7ffb7a348e1c6a02869081a26547b49160dd3df72d1d75a570eb9b698292ec60205260408120549091907fa49807205ce4d355092ef5a8a18f56e8913cf4a201fbe287825b095693c217759060ff16620004f257808352826020526040832082845260205260408320600160ff1982541617905560008051602062002d08833981519152339380a4600190565b50509056fe6040608081526004908136101561001557600080fd5b600091823560e01c908162c3702d146115c357816301ffc9a71461156d57816303fc20131461083d5781630758d924146115295781630b7c1ae1146114ea57816312aef8c3146114af5781631cc645441461073e578163200d2ed214611485578163220c09561461144a578163224e93fe14610fb9578163248a9ca314610f8f5781632c51c7e014610f4d5781632f2ff15d14610f235781633013ce2914610edf5781633197cbb614610ea4578163362f04c014610e8657816336568abe14610e405781633f4ba83a14610df557816342e94c901461042357816348c54b9d14610c9e5781634b60ce7714610c5a5781634bb278f314610c395781634e69d56014610c0c578163590e1ae314610afa5781635d49dff414610ab55781636052970c14610a71578163619f3d6c14610a2d57816373b2e80e146109ef57816375b238fc146109b457816378e97925146109795781638160059a146108b55781638456cb591461086657816389dda6a01461083d5781638bcd8515146108025781638d3d6576146107c75781638d4e4083146107a357816391d148541461075d5781639ce05df71461073e5781639e014fd514610712578163a217fddf146106f7578163a4475ce4146106b3578163aaffadf314610678578163af1a9cab14610620578163b0683755146105e5578163b187bd26146105be578163b524f87b14610488578163b920ade21461045b578163bb8b2b4714610423578163c5c4744c14610404578163d547741f146103c5578163d7bb99ba1461036f578163ea8a1af0146102dd57508063f5ae497a146102b15763f89be5931461027457600080fd5b346102ad57816003193601126102ad57602090517f00000000000000000000000000000000000000000000000000000000000000008152f35b5080fd5b50346102ad57816003193601126102ad57600654905160189190911c6001600160a01b03168152602090f35b90503461036b578260031936011261036b576102f7611662565b6002549160ff8360a01c1660068110156103585760031461034b57505060ff60a01b1916600560a01b176002557f63b958841f79ab97cb5456da181454b9932c0e15a3b17f1cbd27e2a8bc6104378180a180f35b516307a92f1960e51b8152fd5b634e487b7160e01b855260218352602485fd5b8280fd5b9190508260031936011261036b576103856117f5565b7f00000000000000000000000000000000000000000000000000000000000000006001600160a01b031661034b57826103be34336118db565b6001805580f35b9190503461036b578060031936011261036b5761040091356103fb60016103ea611631565b9383875286602052862001546116dc565b611780565b5080f35b5050346102ad57816003193601126102ad576020906003549051908152f35b5050346102ad5760203660031901126102ad5760209181906001600160a01b0361044b61164c565b1681526007845220549051908152f35b5050346102ad5760203660031901126102ad5760209061048161047c61164c565b61273f565b9051908152f35b839150346102ad5760203660031901126102ad576104a461164c565b6104ac611662565b600254906001600160a01b03908183166105835760ff6006541661054c571691821561050957506001600160a01b03191681176002557ff3e056d0219310a4e47c749671cfbc8607538f3327bb8c6bf872a1119b622d2f8280a280f35b606490602086519162461bcd60e51b8352820152601960248201527f496e76616c6964204c50204c6f636b65722061646472657373000000000000006044820152fd5b855162461bcd60e51b81526020818601526011602482015270105b1c9958591e48199a5b985b1a5e9959607a1b6044820152606490fd5b855162461bcd60e51b81526020818601526015602482015274131408131bd8dad95c88185b1c9958591e481cd95d605a1b6044820152606490fd5b5050346102ad57816003193601126102ad5760209060ff60065460081c1690519015158152f35b5050346102ad57816003193601126102ad57602090517f00000000000000000000000000000000000000000000000000000000000000008152f35b9190503461036b578260031936011261036b5761063b6117f5565b610643611662565b60ff60065460101c1660058110156106655760010361034b57826103be611efe565b634e487b7160e01b845260218352602484fd5b5050346102ad57816003193601126102ad57602090517f00000000000000000000000000000000000000000000000000000000000000008152f35b5050346102ad57816003193601126102ad57517f00000000000000000000000000000000000000000000000000000000000000006001600160a01b03168152602090f35b5050346102ad57816003193601126102ad5751908152602090f35b833461073b578060031936011261073b5761072b6117f5565b610733611662565b6103be611b73565b80fd5b5050346102ad57816003193601126102ad576020906005549051908152f35b90503461036b578160031936011261036b578160209360ff9261077e611631565b903582528186528282206001600160a01b039091168252855220549151911615158152f35b5050346102ad57816003193601126102ad5760209060ff6006541690519015158152f35b5050346102ad57816003193601126102ad57602090517f00000000000000000000000000000000000000000000000000000000000000008152f35b5050346102ad57816003193601126102ad57602090517f00000000000000000000000000000000000000000000000000000000000000008152f35b5050346102ad57816003193601126102ad5760025490516001600160a01b039091168152602090f35b833461073b578060031936011261073b5761087f611662565b61010061ff001960065416176006557f9e87fac88ff661f02d44f95383c817fece4bce600a3dab7a54406878b965e7528180a180f35b8383346102ad5760203660031901126102ad578235906108d36117f5565b7f00000000000000000000000000000000000000000000000000000000000000006001600160a01b031680156109695781516323b872dd60e01b6020820152336024820152306044820152606480820185905281529160a083019067ffffffffffffffff82118483101761095657526103be929161095091611850565b336118db565b634e487b7160e01b865260418752602486fd5b81516307a92f1960e51b81528590fd5b5050346102ad57816003193601126102ad57602090517f00000000000000000000000000000000000000000000000000000000000000008152f35b5050346102ad57816003193601126102ad57602090517fa49807205ce4d355092ef5a8a18f56e8913cf4a201fbe287825b095693c217758152f35b5050346102ad5760203660031901126102ad5760209160ff9082906001600160a01b03610a1a61164c565b1681526008855220541690519015158152f35b5050346102ad57816003193601126102ad57517f00000000000000000000000000000000000000000000000000000000000000006001600160a01b03168152602090f35b5050346102ad57816003193601126102ad57517f00000000000000000000000000000000000000000000000000000000000000006001600160a01b03168152602090f35b9190503461036b578260031936011261036b57610ad06117f5565b610ad8611662565b60ff60065460101c1660058110156106655760020361034b57826103be612087565b9190503461036b578260031936011261036b57610b156117f5565b60ff60025460a01c16600681101561066557828114159081610c00575b5061034b5733835260076020528083205415610bf357338352600760205280832080549084905591827f00000000000000000000000000000000000000000000000000000000000000006001600160a01b031680610be257508480808093335af1610b9b611c71565b5015610bd457505b519081527fd7dee2702d63ad89917b6a4da9981c90c4d24f8c2bdfd64c604ecae57d8d065160203392a26001805580f35b90516312171d8360e31b8152fd5b610bee92503390611e91565b610ba3565b5163f76aef6560e01b8152fd5b60059150141538610b32565b5050346102ad57816003193601126102ad57610c3590610c2a6126af565b905191829182611608565b0390f35b833461073b578060031936011261073b57610c526117f5565b6103be611a4d565b5050346102ad57816003193601126102ad57517f00000000000000000000000000000000000000000000000000000000000000006001600160a01b03168152602090f35b90503461036b578260031936011261036b57610cb86117f5565b60ff60025460a01c166006811015610de257600303610dd45733835260076020528183205415610dc657338352600860205260ff8284205416610db857503382526007602052610d38610d2f828420547f000000000000000000000000000000000000000000000000000000000000000090611c3e565b60035490611c51565b338084526008602052828420805460ff19166001179055909190610d879083907f00000000000000000000000000000000000000000000000000000000000000006001600160a01b0316611e91565b519081527f896e034966eaaf1adc54acc0f257056febbd300c9e47182cf761982cf1f5e43060203392a26001805580f35b9051630c8d9eab60e31b8152fd5b9051631971fbf360e21b8152fd5b90516307a92f1960e51b8152fd5b634e487b7160e01b845260218252602484fd5b833461073b578060031936011261073b57610e0e611662565b61ff0019600654166006557fa45f47fdea8a1efdd9029a5691c7f759c32b7c698632b563573e155625d169338180a180f35b8383346102ad57806003193601126102ad57610e5a611631565b90336001600160a01b03831603610e775750610400919235611780565b5163334bd91960e11b81528390fd5b90503461036b578260031936011261036b5760209250549051908152f35b5050346102ad57816003193601126102ad57602090517f00000000000000000000000000000000000000000000000000000000000000008152f35b5050346102ad57816003193601126102ad57517f00000000000000000000000000000000000000000000000000000000000000006001600160a01b03168152602090f35b9190503461036b578060031936011261036b576104009135610f4860016103ea611631565b611702565b8383346102ad57816003193601126102ad5760ff60065460101c169051916005821015610f7c57602083838152f35b634e487b7160e01b815260218452602490fd5b90503461036b57602036600319011261036b57816020936001923581528085522001549051908152f35b82843461073b578160031936011261073b578235906024359330330361143c57835163095ea7b360e01b8082526001600160a01b037f00000000000000000000000000000000000000000000000000000000000000008116848401818152602080820189905299929791947f000000000000000000000000000000000000000000000000000000000000000094858a16929091908c908290819060400103818c875af1801561143257611415575b507f000000000000000000000000000000000000000000000000000000000000000090898216908161124f5750505061012c42019283421161123c576060929160c4918b51958694859363f305d71960e01b85528b85015260248401528a60448401528a606484015230608484015260a4830152875af180156111e55761120e575b50855163c45a015560e01b81529187838581845afa9283156111e5578491899187956111ef575b5088516315ab88c960e31b815295869182905afa9384156111e5579186899492611172969488956111c6575b50895163e6a4390560e01b81526001600160a01b0393841691810191825292909416602085015290948593849291839160400190565b0392165afa9182156111bb579161118e575b50915b5191168152f35b6111ae9150843d86116111b4575b6111a68183611818565b810190611edf565b84611184565b503d61119c565b8451903d90823e3d90fd5b6111de919550863d88116111b4576111a68183611818565b938b61113c565b87513d87823e3d90fd5b611207919550823d84116111b4576111a68183611818565b938a611110565b61122e9060603d8111611235575b6112268183611818565b8101906125e7565b50506110e9565b503d61121c565b634e487b7160e01b885260118752602488fd5b8b519081526001600160a01b038816818a01908152602081018790529298979593949193928d908290819060400103818d885af1801561140b576113de575b5061012c4201928342116113cb578b519462e8e33760e81b8652888601526024850152604484015260648301528660848301528660a48301523060c483015260e48201526060816101048189865af180156113c15791899185936113a3575b50885163c45a015560e01b815294859182905afa9283156111e557918689949261134e969488946113845750895163e6a4390560e01b81526001600160a01b0393841691810191825292909416602085015290948593849291839160400190565b0392165afa9182156111bb5791611367575b5091611187565b61137e9150843d86116111b4576111a68183611818565b84611360565b61139c919450863d88116111b4576111a68183611818565b928b61113c565b6113ba9060603d8111611235576112268183611818565b50506112ed565b88513d88823e3d90fd5b634e487b7160e01b8a526011885260248afd5b6113fd908d803d10611404575b6113f58183611818565b81019061206f565b508c61128e565b503d6113eb565b8c513d8c823e3d90fd5b61142b908c8d3d10611404576113f58183611818565b508b611067565b8b513d8b823e3d90fd5b835163ea8e4eb560e01b8152fd5b5050346102ad57816003193601126102ad57602090517f00000000000000000000000000000000000000000000000000000000000000008152f35b5050346102ad57816003193601126102ad57610c359060ff60025460a01c16905191829182611608565b5050346102ad57816003193601126102ad57602090517f00000000000000000000000000000000000000000000000000000000000000008152f35b5050346102ad57816003193601126102ad576020905161ffff7f0000000000000000000000000000000000000000000000000000000000000000168152f35b5050346102ad57816003193601126102ad57517f00000000000000000000000000000000000000000000000000000000000000006001600160a01b03168152602090f35b90503461036b57602036600319011261036b57359063ffffffff60e01b821680920361036b5760209250637965db0b60e01b82149182156115b2575b50519015158152f35b6301ffc9a760e01b149150386115a9565b9190503461036b578260031936011261036b576115de6117f5565b6115e6611662565b60ff60065460101c1660058110156106655760030361034b57826103be612354565b91906020830192600682101561161b5752565b634e487b7160e01b600052602160045260246000fd5b602435906001600160a01b038216820361164757565b600080fd5b600435906001600160a01b038216820361164757565b3360009081527f7d7ffb7a348e1c6a02869081a26547b49160dd3df72d1d75a570eb9b698292ec60205260409020547fa49807205ce4d355092ef5a8a18f56e8913cf4a201fbe287825b095693c217759060ff16156116be5750565b6044906040519063e2517d3f60e01b82523360048301526024820152fd5b80600052600060205260406000203360005260205260ff60406000205416156116be5750565b9060009180835282602052604083209160018060a01b03169182845260205260ff6040842054161560001461177b57808352826020526040832082845260205260408320600160ff198254161790557f2f8788117e7eff1d82e926ec794901d17c78024a50270940304540a733656f0d339380a4600190565b505090565b9060009180835282602052604083209160018060a01b03169182845260205260ff60408420541660001461177b5780835282602052604083208284526020526040832060ff1981541690557ff6391f5c32d9c69d2a47ea670b442974b53935d1edc7fd64eb21e047a839171b339380a4600190565b600260015414611806576002600155565b604051633ee5aeb560e01b8152600490fd5b90601f8019910116810190811067ffffffffffffffff82111761183a57604052565b634e487b7160e01b600052604160045260246000fd5b906000602091828151910182855af1156118ac576000513d6118a357506001600160a01b0381163b155b6118815750565b604051635274afe760e01b81526001600160a01b039091166004820152602490fd5b6001141561187a565b6040513d6000823e3d90fd5b919082018092116118c557565b634e487b7160e01b600052601160045260246000fd5b9190916118e6612602565b60ff60025460a01c16600681101561161b57600103611a3b5760ff60065460081c16611a29577f00000000000000000000000000000000000000000000000000000000000000008310611a175760018060a01b0316600092818452600760205260409061195681838720546118b8565b7f00000000000000000000000000000000000000000000000000000000000000008111611a0657838652600760205282862054156119db575b8286857ffa35a310d7113dddce1c275da946348e9aaebf9050b00b372033c4d84b0bd6eb96979852600760205220556119ca816003546118b8565b8060035582519182526020820152a2565b60045460001981146119f25760010160045561198f565b634e487b7160e01b87526011600452602487fd5b8251635e508cd360e11b8152600490fd5b604051636c7591b560e11b8152600490fd5b60405163ab35696f60e01b8152600490fd5b6040516307a92f1960e51b8152600490fd5b611a55612602565b60025460ff808260a01c16600681101561161b57600203611a3b57600654818116611b6e576003547f000000000000000000000000000000000000000000000000000000000000000011611b355781925060101c16600581101561161b5715611b28575b8060065460101c16600581101561161b57600114611b1b575b8060065460101c16600581101561161b57600214611b0e575b60065460101c16600581101561161b57600314611b0457565b611b0c612354565b565b611b16612087565b611aeb565b611b23611efe565b611ad2565b611b30611cfa565b611ab9565b505060ff60a01b1916600160a21b176002557fe48846a3dca191c762ab6aaa1e929ccaf55e31a875fb78ad1b93e15ef4830aca600080a1565b505050565b600260ff815460a01c16600681101561161b578103611c0d575b6003547f000000000000000000000000000000000000000000000000000000000000000011611bd5575060ff60065460101c16600581101561161b57611a3b57611b0c611cfa565b805460ff60a01b1916600160a21b1790557fe48846a3dca191c762ab6aaa1e929ccaf55e31a875fb78ad1b93e15ef4830aca600080a1565b611c15612602565b60ff815460a01c16600681101561161b578114611b8d576040516307a92f1960e51b8152600490fd5b818102929181159184041417156118c557565b8115611c5b570490565b634e487b7160e01b600052601260045260246000fd5b3d15611cac573d9067ffffffffffffffff821161183a5760405191611ca0601f8201601f191660200184611818565b82523d6000602084013e565b606090565b6020808252825181830181905290939260005b828110611ce657505060409293506000838284010152601f8019910116010190565b818101860151848201604001528501611cc4565b60055415611e41575b6003546101f4908181029181830414901517156118c55761271090046001600160a01b037f0000000000000000000000000000000000000000000000000000000000000000811680611e0f57507f000000000000000000000000000000000000000000000000000000000000000016803b15611647576000906024604051809481936339650d1f60e01b83523060048401525af19081611df7575b50611dcb57611dc7611dae611c71565b604051630fb6a2b560e21b815291829160048301611cb1565b0390fd5b6201000062ff00001960065416176006556000805160206127bb833981519152602060405160018152a1565b67ffffffffffffffff811161183a5760405238611d9e565b611e3c9291507f000000000000000000000000000000000000000000000000000000000000000090611e91565b611dcb565b600354670de0b6b3a7640000908181029181830414901517156118c557611e89907f000000000000000000000000000000000000000000000000000000000000000090611c51565b600555611d03565b60405163a9059cbb60e01b60208201526001600160a01b03929092166024830152604480830193909352918152611b0c91611ecd606483611818565b611850565b919082039182116118c557565b9081602091031261164757516001600160a01b03811681036116475790565b6003546101f48082029082820414821517156118c557611f4f611f28612710938480940490611ed2565b7f000000000000000000000000000000000000000000000000000000000000000090611c3e565b049060055461ffff7f00000000000000000000000000000000000000000000000000000000000000001682018083116118c557611f8b91611c3e565b04670de0b6b3a7640000908183029183830414831517156118c557611faf91611c51565b906040519163112749ff60e11b8352600483015260248201526020816044816000305af16000918161204f575b5061200557611dc7611fec611c71565b604051630abc035f60e41b815291829160048301611cb1565b6006805462010000600160b81b03191660189290921b6301000000600160b81b03169190911762020000179055604051600281526000805160206127bb83398151915290602090a1565b61206891925060203d81116111b4576111a68183611818565b9038611fdc565b90816020910312611647575180151581036116475790565b6006546001600160a01b039060181c8116801561231c57816002541680156122d757604080516370a0823160e01b815230600482015290936020938483602481845afa92831561229d576000936122a8575b5062278d007f0000000000000000000000000000000000000000000000000000000000000000818102929181159184041417156118c55783869161212061215894426118b8565b895163095ea7b360e01b81526001600160a01b0390981660048901526024880192909252909592839190829060009082906044820190565b03925af1801561229d57612280575b5060008480836002541660848560065460181c168a519586938492630aa393f360e01b845260048401528960248401528a6044840152887f00000000000000000000000000000000000000000000000000000000000000001660648401525af19182612257575b50506121f857611dc7856121e0611c71565b90516301953ea360e11b815291829160048301611cb1565b9162030000917fe3afae9ec63e6f2e914c17bab8493b603680a72d9e6dfacf25ac6a4806555d41866000805160206127bb8339815191529795600654948251948552888501528460181c1692a262ff00001916176006555160038152a1565b813d8311612279575b61226a8183611818565b810103126116475784386121ce565b503d612260565b61229690853d8711611404576113f58183611818565b5038612167565b86513d6000823e3d90fd5b90928582813d83116122d0575b6122bf8183611818565b8101031261073b57505191386120d9565b503d6122b5565b60405162461bcd60e51b815260206004820152601860248201527f4c50204c6f636b6572206e6f7420636f6e6669677572656400000000000000006044820152606490fd5b60405162461bcd60e51b815260206004820152601060248201526f131408151bdad95b881b9bdd081cd95d60821b6044820152606490fd5b6003546101f48082029082820414821517156118c55761237d6123af9261271080930490611ed2565b906123a87f000000000000000000000000000000000000000000000000000000000000000083611c3e565b0490611ed2565b6001600160a01b03907f000000000000000000000000000000000000000000000000000000000000000082811661251a575b507f00000000000000000000000000000000000000000000000000000000000000008216806124e457506000808080937f00000000000000000000000000000000000000000000000000000000000000005af161243c611c71565b50156124d25762040001905b600360a01b60ff60a01b1960025416176002557f6e4389167d2afbd1ccb4797ea87e29958adbf74cd16ba077a2ee5ab8460784e5608060065492600554906003546040519283526020830152600160ff1986161760181c16604082015260006060820152a162ff00ff1916176006556000805160206127bb833981519152602060405160048152a1565b6040516312171d8360e31b8152600490fd5b620400019291612515917f000000000000000000000000000000000000000000000000000000000000000090611e91565b612448565b6040516370a0823160e01b81523060048201527f000000000000000000000000000000000000000000000000000000000000000084169190602081602481865afa80156118ac576000906125b4575b61259591507f000000000000000000000000000000000000000000000000000000000000000090611ed2565b90816125a3575b50506123e1565b6125ac92611e91565b38808061259c565b6020823d82116125df575b816125cc60209383611818565b8101031261073b57506125959051612569565b3d91506125bf565b90816060910312611647578051916040602083015192015190565b60025460ff8160a01c16600681101561161b57801580612685575b156126395750506002805460ff60a01b1916600160a01b179055565b6001148061265b575b6126495750565b60ff60a01b1916600160a11b17600255565b507f0000000000000000000000000000000000000000000000000000000000000000421015612642565b507f000000000000000000000000000000000000000000000000000000000000000042101561261d565b60ff60025460a01c16600681101561161b57801580612715575b156126d45750600190565b60018114806126eb575b6126e55790565b50600290565b507f00000000000000000000000000000000000000000000000000000000000000004210156126de565b507f00000000000000000000000000000000000000000000000000000000000000004210156126c9565b60ff60025460a01c16600681101561161b576003036127b45760035480156127ad576127aa9160018060a01b031660005260076020526127a56040600020547f000000000000000000000000000000000000000000000000000000000000000090611c3e565b611c51565b90565b5050600090565b5060009056fe359f75319d3abf464a20742906c9b06c2e0cf50adc178c5f23eb44e3e83220b8a264697066735822122029bc2c72a228ad4f75b2dedf973020740170b9037e0dc5873c903b713895247364736f6c634300081400332f8788117e7eff1d82e926ec794901d17c78024a50270940304540a733656f0d",
  "linkReferences": {},
  "deployedLinkReferences": {}
}