{
  "_format": "hh-sol-artifact-1",
  "contractName": "Fairlaunch",
  "sourceName": "contracts/fairlaunch/Fairlaunch.sol",
  "abi": [
    {
      "inputs": [
        {
          "internalType": "address",
          "name": "_projectToken",
          "type": "address"
        },
        {
          "internalType": "address",
          "name": "_paymentToken",
          "type": "address"
        },
        {
          "internalType": "uint256",
          "name": "_softcap",
          "type": "uint256"
        },
        {
          "internalType": "uint256",
          "name": "_tokensForSale",
          "type": "uint256"
        },
        {
          "internalType": "uint256",
          "name": "_minContribution",
          "type": "uint256"
        },
        {
          "internalType": "uint256",
          "name": "_maxContribution",
          "type": "uint256"
        },
        {
          "internalType": "uint256",
          "name": "_startTime",
          "type": "uint256"
        },
        {
          "internalType": "uint256",
          "name": "_endTime",
          "type": "uint256"
        },
        {
          "internalType": "uint16",
          "name": "_listingPremiumBps",
          "type": "uint16"
        },
        {
          "internalType": "address",
          "name": "_feeSplitter",
          "type": "address"
        },
        {
          "internalType": "address",
          "name": "_teamVesting",
          "type": "address"
        },
        {
          "internalType": "address",
          "name": "_projectOwner",
          "type": "address"
        },
        {
          "internalType": "address",
          "name": "_adminExecutor",
          "type": "address"
        },
        {
          "internalType": "uint256",
          "name": "_liquidityPercent",
          "type": "uint256"
        },
        {
          "internalType": "uint256",
          "name": "_lpLockMonths",
          "type": "uint256"
        },
        {
          "internalType": "bytes32",
          "name": "_dexId",
          "type": "bytes32"
        }
      ],
      "stateMutability": "nonpayable",
      "type": "constructor"
    },
    {
      "inputs": [],
      "name": "AccessControlBadConfirmation",
      "type": "error"
    },
    {
      "inputs": [
        {
          "internalType": "address",
          "name": "account",
          "type": "address"
        },
        {
          "internalType": "bytes32",
          "name": "neededRole",
          "type": "bytes32"
        }
      ],
      "name": "AccessControlUnauthorizedAccount",
      "type": "error"
    },
    {
      "inputs": [],
      "name": "AlreadyClaimed",
      "type": "error"
    },
    {
      "inputs": [],
      "name": "ContractPaused",
      "type": "error"
    },
    {
      "inputs": [],
      "name": "ContributionTooHigh",
      "type": "error"
    },
    {
      "inputs": [],
      "name": "ContributionTooLow",
      "type": "error"
    },
    {
      "inputs": [],
      "name": "InvalidStatus",
      "type": "error"
    },
    {
      "inputs": [],
      "name": "NoContribution",
      "type": "error"
    },
    {
      "inputs": [],
      "name": "NotAuthorized",
      "type": "error"
    },
    {
      "inputs": [],
      "name": "NothingToRefund",
      "type": "error"
    },
    {
      "inputs": [],
      "name": "ReentrancyGuardReentrantCall",
      "type": "error"
    },
    {
      "inputs": [
        {
          "internalType": "address",
          "name": "token",
          "type": "address"
        }
      ],
      "name": "SafeERC20FailedOperation",
      "type": "error"
    },
    {
      "inputs": [],
      "name": "SoftcapNotMet",
      "type": "error"
    },
    {
      "inputs": [],
      "name": "TransferFailed",
      "type": "error"
    },
    {
      "anonymous": false,
      "inputs": [],
      "name": "Cancelled",
      "type": "event"
    },
    {
      "anonymous": false,
      "inputs": [
        {
          "indexed": true,
          "internalType": "address",
          "name": "user",
          "type": "address"
        },
        {
          "indexed": false,
          "internalType": "uint256",
          "name": "amount",
          "type": "uint256"
        },
        {
          "indexed": false,
          "internalType": "uint256",
          "name": "totalRaised",
          "type": "uint256"
        }
      ],
      "name": "Contributed",
      "type": "event"
    },
    {
      "anonymous": false,
      "inputs": [],
      "name": "FinalizedFail",
      "type": "event"
    },
    {
      "anonymous": false,
      "inputs": [
        {
          "indexed": false,
          "internalType": "uint256",
          "name": "finalPrice",
          "type": "uint256"
        },
        {
          "indexed": false,
          "internalType": "uint256",
          "name": "totalRaised",
          "type": "uint256"
        },
        {
          "indexed": false,
          "internalType": "address",
          "name": "lpToken",
          "type": "address"
        },
        {
          "indexed": false,
          "internalType": "uint256",
          "name": "lpAmount",
          "type": "uint256"
        }
      ],
      "name": "FinalizedSuccess",
      "type": "event"
    },
    {
      "anonymous": false,
      "inputs": [
        {
          "indexed": true,
          "internalType": "address",
          "name": "lpToken",
          "type": "address"
        },
        {
          "indexed": false,
          "internalType": "uint256",
          "name": "lpAmount",
          "type": "uint256"
        },
        {
          "indexed": false,
          "internalType": "uint256",
          "name": "unlockTime",
          "type": "uint256"
        }
      ],
      "name": "LiquidityAdded",
      "type": "event"
    },
    {
      "anonymous": false,
      "inputs": [],
      "name": "Paused",
      "type": "event"
    },
    {
      "anonymous": false,
      "inputs": [
        {
          "indexed": true,
          "internalType": "address",
          "name": "user",
          "type": "address"
        },
        {
          "indexed": false,
          "internalType": "uint256",
          "name": "amount",
          "type": "uint256"
        }
      ],
      "name": "Refunded",
      "type": "event"
    },
    {
      "anonymous": false,
      "inputs": [
        {
          "indexed": true,
          "internalType": "bytes32",
          "name": "role",
          "type": "bytes32"
        },
        {
          "indexed": true,
          "internalType": "bytes32",
          "name": "previousAdminRole",
          "type": "bytes32"
        },
        {
          "indexed": true,
          "internalType": "bytes32",
          "name": "newAdminRole",
          "type": "bytes32"
        }
      ],
      "name": "RoleAdminChanged",
      "type": "event"
    },
    {
      "anonymous": false,
      "inputs": [
        {
          "indexed": true,
          "internalType": "bytes32",
          "name": "role",
          "type": "bytes32"
        },
        {
          "indexed": true,
          "internalType": "address",
          "name": "account",
          "type": "address"
        },
        {
          "indexed": true,
          "internalType": "address",
          "name": "sender",
          "type": "address"
        }
      ],
      "name": "RoleGranted",
      "type": "event"
    },
    {
      "anonymous": false,
      "inputs": [
        {
          "indexed": true,
          "internalType": "bytes32",
          "name": "role",
          "type": "bytes32"
        },
        {
          "indexed": true,
          "internalType": "address",
          "name": "account",
          "type": "address"
        },
        {
          "indexed": true,
          "internalType": "address",
          "name": "sender",
          "type": "address"
        }
      ],
      "name": "RoleRevoked",
      "type": "event"
    },
    {
      "anonymous": false,
      "inputs": [
        {
          "indexed": true,
          "internalType": "address",
          "name": "user",
          "type": "address"
        },
        {
          "indexed": false,
          "internalType": "uint256",
          "name": "amount",
          "type": "uint256"
        }
      ],
      "name": "TokensClaimed",
      "type": "event"
    },
    {
      "anonymous": false,
      "inputs": [],
      "name": "Unpaused",
      "type": "event"
    },
    {
      "inputs": [],
      "name": "ADMIN_ROLE",
      "outputs": [
        {
          "internalType": "bytes32",
          "name": "",
          "type": "bytes32"
        }
      ],
      "stateMutability": "view",
      "type": "function"
    },
    {
      "inputs": [],
      "name": "DEFAULT_ADMIN_ROLE",
      "outputs": [
        {
          "internalType": "bytes32",
          "name": "",
          "type": "bytes32"
        }
      ],
      "stateMutability": "view",
      "type": "function"
    },
    {
      "inputs": [],
      "name": "cancel",
      "outputs": [],
      "stateMutability": "nonpayable",
      "type": "function"
    },
    {
      "inputs": [],
      "name": "claimTokens",
      "outputs": [],
      "stateMutability": "nonpayable",
      "type": "function"
    },
    {
      "inputs": [],
      "name": "contribute",
      "outputs": [],
      "stateMutability": "payable",
      "type": "function"
    },
    {
      "inputs": [
        {
          "internalType": "uint256",
          "name": "amount",
          "type": "uint256"
        }
      ],
      "name": "contributeERC20",
      "outputs": [],
      "stateMutability": "nonpayable",
      "type": "function"
    },
    {
      "inputs": [
        {
          "internalType": "address",
          "name": "",
          "type": "address"
        }
      ],
      "name": "contributions",
      "outputs": [
        {
          "internalType": "uint256",
          "name": "",
          "type": "uint256"
        }
      ],
      "stateMutability": "view",
      "type": "function"
    },
    {
      "inputs": [],
      "name": "dexId",
      "outputs": [
        {
          "internalType": "bytes32",
          "name": "",
          "type": "bytes32"
        }
      ],
      "stateMutability": "view",
      "type": "function"
    },
    {
      "inputs": [],
      "name": "dexRouter",
      "outputs": [
        {
          "internalType": "contract IUniswapV2Router02",
          "name": "",
          "type": "address"
        }
      ],
      "stateMutability": "view",
      "type": "function"
    },
    {
      "inputs": [],
      "name": "endTime",
      "outputs": [
        {
          "internalType": "uint256",
          "name": "",
          "type": "uint256"
        }
      ],
      "stateMutability": "view",
      "type": "function"
    },
    {
      "inputs": [],
      "name": "feeSplitter",
      "outputs": [
        {
          "internalType": "address",
          "name": "",
          "type": "address"
        }
      ],
      "stateMutability": "view",
      "type": "function"
    },
    {
      "inputs": [],
      "name": "finalTokenPrice",
      "outputs": [
        {
          "internalType": "uint256",
          "name": "",
          "type": "uint256"
        }
      ],
      "stateMutability": "view",
      "type": "function"
    },
    {
      "inputs": [],
      "name": "finalize",
      "outputs": [],
      "stateMutability": "nonpayable",
      "type": "function"
    },
    {
      "inputs": [],
      "name": "getFinalPrice",
      "outputs": [
        {
          "internalType": "uint256",
          "name": "",
          "type": "uint256"
        }
      ],
      "stateMutability": "view",
      "type": "function"
    },
    {
      "inputs": [
        {
          "internalType": "bytes32",
          "name": "role",
          "type": "bytes32"
        }
      ],
      "name": "getRoleAdmin",
      "outputs": [
        {
          "internalType": "bytes32",
          "name": "",
          "type": "bytes32"
        }
      ],
      "stateMutability": "view",
      "type": "function"
    },
    {
      "inputs": [],
      "name": "getStatus",
      "outputs": [
        {
          "internalType": "enum Fairlaunch.Status",
          "name": "",
          "type": "uint8"
        }
      ],
      "stateMutability": "view",
      "type": "function"
    },
    {
      "inputs": [
        {
          "internalType": "address",
          "name": "user",
          "type": "address"
        }
      ],
      "name": "getUserAllocation",
      "outputs": [
        {
          "internalType": "uint256",
          "name": "",
          "type": "uint256"
        }
      ],
      "stateMutability": "view",
      "type": "function"
    },
    {
      "inputs": [
        {
          "internalType": "address",
          "name": "user",
          "type": "address"
        }
      ],
      "name": "getUserContribution",
      "outputs": [
        {
          "internalType": "uint256",
          "name": "",
          "type": "uint256"
        }
      ],
      "stateMutability": "view",
      "type": "function"
    },
    {
      "inputs": [
        {
          "internalType": "bytes32",
          "name": "role",
          "type": "bytes32"
        },
        {
          "internalType": "address",
          "name": "account",
          "type": "address"
        }
      ],
      "name": "grantRole",
      "outputs": [],
      "stateMutability": "nonpayable",
      "type": "function"
    },
    {
      "inputs": [
        {
          "internalType": "address",
          "name": "",
          "type": "address"
        }
      ],
      "name": "hasClaimed",
      "outputs": [
        {
          "internalType": "bool",
          "name": "",
          "type": "bool"
        }
      ],
      "stateMutability": "view",
      "type": "function"
    },
    {
      "inputs": [
        {
          "internalType": "bytes32",
          "name": "role",
          "type": "bytes32"
        },
        {
          "internalType": "address",
          "name": "account",
          "type": "address"
        }
      ],
      "name": "hasRole",
      "outputs": [
        {
          "internalType": "bool",
          "name": "",
          "type": "bool"
        }
      ],
      "stateMutability": "view",
      "type": "function"
    },
    {
      "inputs": [],
      "name": "isFinalized",
      "outputs": [
        {
          "internalType": "bool",
          "name": "",
          "type": "bool"
        }
      ],
      "stateMutability": "view",
      "type": "function"
    },
    {
      "inputs": [],
      "name": "isPaused",
      "outputs": [
        {
          "internalType": "bool",
          "name": "",
          "type": "bool"
        }
      ],
      "stateMutability": "view",
      "type": "function"
    },
    {
      "inputs": [],
      "name": "liquidityPercent",
      "outputs": [
        {
          "internalType": "uint256",
          "name": "",
          "type": "uint256"
        }
      ],
      "stateMutability": "view",
      "type": "function"
    },
    {
      "inputs": [],
      "name": "listingPremiumBps",
      "outputs": [
        {
          "internalType": "uint16",
          "name": "",
          "type": "uint16"
        }
      ],
      "stateMutability": "view",
      "type": "function"
    },
    {
      "inputs": [],
      "name": "lpLockMonths",
      "outputs": [
        {
          "internalType": "uint256",
          "name": "",
          "type": "uint256"
        }
      ],
      "stateMutability": "view",
      "type": "function"
    },
    {
      "inputs": [],
      "name": "lpLocker",
      "outputs": [
        {
          "internalType": "contract ILPLocker",
          "name": "",
          "type": "address"
        }
      ],
      "stateMutability": "view",
      "type": "function"
    },
    {
      "inputs": [],
      "name": "maxContribution",
      "outputs": [
        {
          "internalType": "uint256",
          "name": "",
          "type": "uint256"
        }
      ],
      "stateMutability": "view",
      "type": "function"
    },
    {
      "inputs": [],
      "name": "minContribution",
      "outputs": [
        {
          "internalType": "uint256",
          "name": "",
          "type": "uint256"
        }
      ],
      "stateMutability": "view",
      "type": "function"
    },
    {
      "inputs": [],
      "name": "participantCount",
      "outputs": [
        {
          "internalType": "uint256",
          "name": "",
          "type": "uint256"
        }
      ],
      "stateMutability": "view",
      "type": "function"
    },
    {
      "inputs": [],
      "name": "pause",
      "outputs": [],
      "stateMutability": "nonpayable",
      "type": "function"
    },
    {
      "inputs": [],
      "name": "paymentToken",
      "outputs": [
        {
          "internalType": "address",
          "name": "",
          "type": "address"
        }
      ],
      "stateMutability": "view",
      "type": "function"
    },
    {
      "inputs": [],
      "name": "projectOwner",
      "outputs": [
        {
          "internalType": "address",
          "name": "",
          "type": "address"
        }
      ],
      "stateMutability": "view",
      "type": "function"
    },
    {
      "inputs": [],
      "name": "projectToken",
      "outputs": [
        {
          "internalType": "address",
          "name": "",
          "type": "address"
        }
      ],
      "stateMutability": "view",
      "type": "function"
    },
    {
      "inputs": [],
      "name": "refund",
      "outputs": [],
      "stateMutability": "nonpayable",
      "type": "function"
    },
    {
      "inputs": [
        {
          "internalType": "bytes32",
          "name": "role",
          "type": "bytes32"
        },
        {
          "internalType": "address",
          "name": "callerConfirmation",
          "type": "address"
        }
      ],
      "name": "renounceRole",
      "outputs": [],
      "stateMutability": "nonpayable",
      "type": "function"
    },
    {
      "inputs": [
        {
          "internalType": "bytes32",
          "name": "role",
          "type": "bytes32"
        },
        {
          "internalType": "address",
          "name": "account",
          "type": "address"
        }
      ],
      "name": "revokeRole",
      "outputs": [],
      "stateMutability": "nonpayable",
      "type": "function"
    },
    {
      "inputs": [],
      "name": "softcap",
      "outputs": [
        {
          "internalType": "uint256",
          "name": "",
          "type": "uint256"
        }
      ],
      "stateMutability": "view",
      "type": "function"
    },
    {
      "inputs": [],
      "name": "startTime",
      "outputs": [
        {
          "internalType": "uint256",
          "name": "",
          "type": "uint256"
        }
      ],
      "stateMutability": "view",
      "type": "function"
    },
    {
      "inputs": [],
      "name": "status",
      "outputs": [
        {
          "internalType": "enum Fairlaunch.Status",
          "name": "",
          "type": "uint8"
        }
      ],
      "stateMutability": "view",
      "type": "function"
    },
    {
      "inputs": [
        {
          "internalType": "bytes4",
          "name": "interfaceId",
          "type": "bytes4"
        }
      ],
      "name": "supportsInterface",
      "outputs": [
        {
          "internalType": "bool",
          "name": "",
          "type": "bool"
        }
      ],
      "stateMutability": "view",
      "type": "function"
    },
    {
      "inputs": [],
      "name": "teamVesting",
      "outputs": [
        {
          "internalType": "address",
          "name": "",
          "type": "address"
        }
      ],
      "stateMutability": "view",
      "type": "function"
    },
    {
      "inputs": [],
      "name": "tokensForSale",
      "outputs": [
        {
          "internalType": "uint256",
          "name": "",
          "type": "uint256"
        }
      ],
      "stateMutability": "view",
      "type": "function"
    },
    {
      "inputs": [],
      "name": "totalRaised",
      "outputs": [
        {
          "internalType": "uint256",
          "name": "",
          "type": "uint256"
        }
      ],
      "stateMutability": "view",
      "type": "function"
    },
    {
      "inputs": [],
      "name": "unpause",
      "outputs": [],
      "stateMutability": "nonpayable",
      "type": "function"
    }
  ],
  "bytecode": "0x34620003ed576200277d38819003610280601f8201601f19168101906001600160401b03821190821017620003f2576102009282916040526102803912620003ed576200004e61028062000408565b6200005b6102a062000408565b6102c0516102e051610300516103205161034051610360516103805195979590949392919061ffff81168103620003ed5762000175956200009e6103a062000408565b92620000ac6103c062000408565b94620000ba6103e062000408565b96620000c861040062000408565b986101a061028001519d6101c061028001519d6101e061028001519d6001805560805260a05260c05260e05261010052610120526101405261016052610180526101a0526101c0526101e05261022094855261024093845261026092835260ff60a01b1960025416600255603846148015620003e2575b600090156200034e57507310ed43c718714eb63d5aa57b78b54704e256024e5b610200526200016e816200041d565b506200049d565b506040519161221d93846200054085396080518481816109d101528181610abc0152818161156e015281816115f501528181611730015281816119bd01528181611a3601528181611c6b0152611d84015260a0518481816102fb01528181610669015281816108ac01528181610c5601528181611411015281816115a60152818161189d0152818161197701528181611c1301528181611c9901528181611dac0152611ef5015260c05184818161022a015261137c015260e051848181610a6c01528181610d56015281816113c4015281816119ff01526121ad015261010051848181610476015261117e01526101205184818161059901526111c8015261014051848181610725015281816120b50152612145015261016051848181610c1e0152818161208b015261211b015261018051848181610d9401526114ce01526101a05184818161081a0152818161143f0152611ed401526101c0518481816107d6015261186101526101e0518481816104ae0152611828015261020051848181610dcd0152818161152d0152818161164601528181611689015281816116d801528181611bd201528181611cf10152611d3401525183818161043b015261149f0152518281816105d401526117c801525181610cf10152f35b600146148015620003d5575b156200037c5750737a250d5630b4cf539739df2c5dacb4c659f2488d6200015f565b6121054614908115620003c7575b5015620003ac57734752ba5dbc23f44d87826276bf6fd6b1c372ad246200015f565b737a250d5630b4cf539739df2c5dacb4c659f2488d6200015f565b4662014a341491506200038a565b5062aa36a746146200035a565b50606146146200013f565b600080fd5b634e487b7160e01b600052604160045260246000fd5b51906001600160a01b0382168203620003ed57565b6001600160a01b031660008181527fad3228b676f7d3cd4284a5443f17f1962b36e491b30a40b2405849e597ba5fb5602052604081205490919060ff166200049957818052816020526040822081835260205260408220600160ff1982541617905533916000805160206200275d8339815191528180a4600190565b5090565b6001600160a01b031660008181527f7d7ffb7a348e1c6a02869081a26547b49160dd3df72d1d75a570eb9b698292ec60205260408120549091907fa49807205ce4d355092ef5a8a18f56e8913cf4a201fbe287825b095693c217759060ff166200053a57808352826020526040832082845260205260408320600160ff198254161790556000805160206200275d833981519152339380a4600190565b50509056fe608060408181526004918236101561001657600080fd5b600092833560e01c91826301ffc9a714610e255750816303fc201314610dfc5781630758d92414610db85781630b7c1ae114610d7957816312aef8c314610d3e5781631cc64544146104f8578163200d2ed214610d14578163220c095614610cd9578163248a9ca314610caf5781632f2ff15d14610c855781633013ce2914610c415781633197cbb614610c06578163362f04c014610be857816336568abe14610ba25781633f4ba83a14610b5757816342e94c901461039757816348c54b9d14610a005781634b60ce77146109bc5781634bb278f31461099b5781634e69d5601461096e578163590e1ae3146108495781636052970c14610805578163619f3d6c146107c157816373b2e80e1461078357816375b238fc1461074857816378e979251461070d5781638160059a146106495781638456cb59146105f75781638bcd8515146105bc5781638d3d6576146105815781638d4e40831461055d57816391d14854146105175781639ce05df7146104f8578163a217fddf146104dd578163a4475ce414610499578163aaffadf31461045e578163b068375514610423578163b187bd26146103fc578163b920ade2146103cf578163bb8b2b4714610397578163c5c4744c14610378578163d547741f14610339578163d7bb99ba146102e3578163ea8a1af014610251575063f89be5931461021457600080fd5b3461024d578160031936011261024d57602090517f00000000000000000000000000000000000000000000000000000000000000008152f35b5080fd5b9050346102df57826003193601126102df5761026b610ed2565b6002549160ff8360a01c1660068110156102cc576003146102bf57505060ff60a01b1916600560a01b176002557f63b958841f79ab97cb5456da181454b9932c0e15a3b17f1cbd27e2a8bc6104378180a180f35b516307a92f1960e51b8152fd5b634e487b7160e01b855260218352602485fd5b8280fd5b919050826003193601126102df576102f9611065565b7f00000000000000000000000000000000000000000000000000000000000000006001600160a01b03166102bf5782610332343361114b565b6001805580f35b919050346102df57806003193601126102df57610374913561036f600161035e610ea1565b938387528660205286200154610f4c565b610ff0565b5080f35b50503461024d578160031936011261024d576020906003549051908152f35b50503461024d57602036600319011261024d5760209181906001600160a01b036103bf610ebc565b1681526007845220549051908152f35b50503461024d57602036600319011261024d576020906103f56103f0610ebc565b61216c565b9051908152f35b50503461024d578160031936011261024d5760209060ff60065460081c1690519015158152f35b50503461024d578160031936011261024d57602090517f00000000000000000000000000000000000000000000000000000000000000008152f35b50503461024d578160031936011261024d57602090517f00000000000000000000000000000000000000000000000000000000000000008152f35b50503461024d578160031936011261024d57517f00000000000000000000000000000000000000000000000000000000000000006001600160a01b03168152602090f35b50503461024d578160031936011261024d5751908152602090f35b50503461024d578160031936011261024d576020906005549051908152f35b9050346102df57816003193601126102df578160209360ff92610538610ea1565b903582528186528282206001600160a01b039091168252855220549151911615158152f35b50503461024d578160031936011261024d5760209060ff6006541690519015158152f35b50503461024d578160031936011261024d57602090517f00000000000000000000000000000000000000000000000000000000000000008152f35b50503461024d578160031936011261024d57602090517f00000000000000000000000000000000000000000000000000000000000000008152f35b8334610646578060031936011261064657610610610ed2565b61010061ff001960065416176006557f9e87fac88ff661f02d44f95383c817fece4bce600a3dab7a54406878b965e7528180a180f35b80fd5b83833461024d57602036600319011261024d57823590610667611065565b7f00000000000000000000000000000000000000000000000000000000000000006001600160a01b031680156106fd5781516323b872dd60e01b6020820152336024820152306044820152606480820185905281529160a083019067ffffffffffffffff8211848310176106ea575261033292916106e4916110c0565b3361114b565b634e487b7160e01b865260418752602486fd5b81516307a92f1960e51b81528590fd5b50503461024d578160031936011261024d57602090517f00000000000000000000000000000000000000000000000000000000000000008152f35b50503461024d578160031936011261024d57602090517fa49807205ce4d355092ef5a8a18f56e8913cf4a201fbe287825b095693c217758152f35b50503461024d57602036600319011261024d5760209160ff9082906001600160a01b036107ae610ebc565b1681526008855220541690519015158152f35b50503461024d578160031936011261024d57517f00000000000000000000000000000000000000000000000000000000000000006001600160a01b03168152602090f35b50503461024d578160031936011261024d57517f00000000000000000000000000000000000000000000000000000000000000006001600160a01b03168152602090f35b919050346102df57826003193601126102df57610864611065565b60ff60025460a01c16600681101561095b5782811415908161094f575b506102bf573383526007602052808320541561094257338352600760205280832080549084905591827f00000000000000000000000000000000000000000000000000000000000000006001600160a01b03168061093157508480808093335af16108ea6112fd565b501561092357505b519081527fd7dee2702d63ad89917b6a4da9981c90c4d24f8c2bdfd64c604ecae57d8d065160203392a26001805580f35b90516312171d8360e31b8152fd5b61093d92503390611f9a565b6108f2565b5163f76aef6560e01b8152fd5b60059150141538610881565b634e487b7160e01b845260218352602484fd5b50503461024d578160031936011261024d576109979061098c6120dc565b905191829182610e78565b0390f35b83346106465780600319360112610646576109b4611065565b61033261133d565b50503461024d578160031936011261024d57517f00000000000000000000000000000000000000000000000000000000000000006001600160a01b03168152602090f35b9050346102df57826003193601126102df57610a1a611065565b60ff60025460a01c166006811015610b4457600303610b365733835260076020528183205415610b2857338352600860205260ff8284205416610b1a57503382526007602052610a9a610a91828420547f0000000000000000000000000000000000000000000000000000000000000000906112bd565b600354906112d0565b338084526008602052828420805460ff19166001179055909190610ae99083907f00000000000000000000000000000000000000000000000000000000000000006001600160a01b0316611f9a565b519081527f896e034966eaaf1adc54acc0f257056febbd300c9e47182cf761982cf1f5e43060203392a26001805580f35b9051630c8d9eab60e31b8152fd5b9051631971fbf360e21b8152fd5b90516307a92f1960e51b8152fd5b634e487b7160e01b845260218252602484fd5b8334610646578060031936011261064657610b70610ed2565b61ff0019600654166006557fa45f47fdea8a1efdd9029a5691c7f759c32b7c698632b563573e155625d169338180a180f35b83833461024d578060031936011261024d57610bbc610ea1565b90336001600160a01b03831603610bd95750610374919235610ff0565b5163334bd91960e11b81528390fd5b9050346102df57826003193601126102df5760209250549051908152f35b50503461024d578160031936011261024d57602090517f00000000000000000000000000000000000000000000000000000000000000008152f35b50503461024d578160031936011261024d57517f00000000000000000000000000000000000000000000000000000000000000006001600160a01b03168152602090f35b919050346102df57806003193601126102df576103749135610caa600161035e610ea1565b610f72565b9050346102df5760203660031901126102df57816020936001923581528085522001549051908152f35b50503461024d578160031936011261024d57602090517f00000000000000000000000000000000000000000000000000000000000000008152f35b50503461024d578160031936011261024d576109979060ff60025460a01c16905191829182610e78565b50503461024d578160031936011261024d57602090517f00000000000000000000000000000000000000000000000000000000000000008152f35b50503461024d578160031936011261024d576020905161ffff7f0000000000000000000000000000000000000000000000000000000000000000168152f35b50503461024d578160031936011261024d57517f00000000000000000000000000000000000000000000000000000000000000006001600160a01b03168152602090f35b50503461024d578160031936011261024d5760025490516001600160a01b039091168152602090f35b8491346102df5760203660031901126102df573563ffffffff60e01b81168091036102df5760209250637965db0b60e01b8114908115610e67575b5015158152f35b6301ffc9a760e01b14905083610e60565b919060208301926006821015610e8b5752565b634e487b7160e01b600052602160045260246000fd5b602435906001600160a01b0382168203610eb757565b600080fd5b600435906001600160a01b0382168203610eb757565b3360009081527f7d7ffb7a348e1c6a02869081a26547b49160dd3df72d1d75a570eb9b698292ec60205260409020547fa49807205ce4d355092ef5a8a18f56e8913cf4a201fbe287825b095693c217759060ff1615610f2e5750565b6044906040519063e2517d3f60e01b82523360048301526024820152fd5b80600052600060205260406000203360005260205260ff6040600020541615610f2e5750565b9060009180835282602052604083209160018060a01b03169182845260205260ff60408420541615600014610feb57808352826020526040832082845260205260408320600160ff198254161790557f2f8788117e7eff1d82e926ec794901d17c78024a50270940304540a733656f0d339380a4600190565b505090565b9060009180835282602052604083209160018060a01b03169182845260205260ff604084205416600014610feb5780835282602052604083208284526020526040832060ff1981541690557ff6391f5c32d9c69d2a47ea670b442974b53935d1edc7fd64eb21e047a839171b339380a4600190565b600260015414611076576002600155565b604051633ee5aeb560e01b8152600490fd5b90601f8019910116810190811067ffffffffffffffff8211176110aa57604052565b634e487b7160e01b600052604160045260246000fd5b906000602091828151910182855af11561111c576000513d61111357506001600160a01b0381163b155b6110f15750565b604051635274afe760e01b81526001600160a01b039091166004820152602490fd5b600114156110ea565b6040513d6000823e3d90fd5b9190820180921161113557565b634e487b7160e01b600052601160045260246000fd5b91909161115661202f565b60ff60025460a01c166006811015610e8b576001036112ab5760ff60065460081c16611299577f000000000000000000000000000000000000000000000000000000000000000083106112875760018060a01b031660009281845260076020526040906111c68183872054611128565b7f00000000000000000000000000000000000000000000000000000000000000008111611276578386526007602052828620541561124b575b8286857ffa35a310d7113dddce1c275da946348e9aaebf9050b00b372033c4d84b0bd6eb969798526007602052205561123a81600354611128565b8060035582519182526020820152a2565b6004546000198114611262576001016004556111ff565b634e487b7160e01b87526011600452602487fd5b8251635e508cd360e11b8152600490fd5b604051636c7591b560e11b8152600490fd5b60405163ab35696f60e01b8152600490fd5b6040516307a92f1960e51b8152600490fd5b8181029291811591840414171561113557565b81156112da570490565b634e487b7160e01b600052601260045260246000fd5b9190820391821161113557565b3d15611338573d9067ffffffffffffffff82116110aa576040519161132c601f8201601f191660200184611088565b82523d6000602084013e565b606090565b61134561202f565b600254600060ff8260a01c166006811015611f86576002036112ab5760065460ff81166112ab5760ff1916600117600655600354917f00000000000000000000000000000000000000000000000000000000000000008310611f4f5750670de0b6b3a7640000808302918315928481048314841715611f3b576113e9907f0000000000000000000000000000000000000000000000000000000000000000906112d0565b6005556101f49283850293858504141715611f275761140e61271080940480956112f0565b937f00000000000000000000000000000000000000000000000000000000000000006001600160a01b0316611ecb577f00000000000000000000000000000000000000000000000000000000000000006001600160a01b0316803b156102df5782906024604051809481936339650d1f60e01b83523060048401525af18015611b2d57611e9f575b50905b826114c47f0000000000000000000000000000000000000000000000000000000000000000866112bd565b049260055461ffff7f000000000000000000000000000000000000000000000000000000000000000016820190818311611aab5790611502916112bd565b0490808402908482041484151715611baf579061151e916112d0565b60405163095ea7b360e01b81527f00000000000000000000000000000000000000000000000000000000000000006001600160a01b031660048201526024810182905260208180604481010381867f00000000000000000000000000000000000000000000000000000000000000006001600160a01b03165af18015611b5757611e80575b507f00000000000000000000000000000000000000000000000000000000000000006001600160a01b0316611bc35761012c4201804211611baf576040519163f305d71960e01b835260018060a01b037f0000000000000000000000000000000000000000000000000000000000000000166004840152602483015282604483015282606483015230608483015260a482015260608160c4818660018060a01b037f0000000000000000000000000000000000000000000000000000000000000000165af18015611b2d57611b81575b5060405163c45a015560e01b81526020816004817f00000000000000000000000000000000000000000000000000000000000000006001600160a01b03165afa908115611b2d578291611b62575b506040516315ab88c960e31b8152906020826004817f00000000000000000000000000000000000000000000000000000000000000006001600160a01b03165afa918215611b57579160209161176e938592611b38575b5060405163e6a4390560e01b81526001600160a01b037f00000000000000000000000000000000000000000000000000000000000000008116600483015290921660248301529092839190829081906044820190565b03916001600160a01b03165afa908115611b2d578291611afe575b505b60018060a01b031692604051926370a0823160e01b90818552306004860152602085602481895afa948515611af3578495611abf575b5062278d007f0000000000000000000000000000000000000000000000000000000000000000818102918115918304141715611aab576118019042611128565b92867fac1d76749e5447b7b16f5ab61447e1bd502f3bb4807af3b28e620d1700a6ee4560407f0000000000000000000000000000000000000000000000000000000000000000966118538a8986611f9a565b8151908a82526020820152a27f00000000000000000000000000000000000000000000000000000000000000006001600160a01b0381166119a9575b5061189a92506112f0565b907f00000000000000000000000000000000000000000000000000000000000000006001600160a01b03166119485782809281925af16118d86112fd565b5015611936577f6e4389167d2afbd1ccb4797ea87e29958adbf74cd16ba077a2ee5ab8460784e5916080915b600360a01b60ff60a01b19600254161760025560055491600354604051938452602084015260408301526060820152a1565b6040516312171d8360e31b8152600490fd5b7f6e4389167d2afbd1ccb4797ea87e29958adbf74cd16ba077a2ee5ab8460784e594608094909350916119a4917f00000000000000000000000000000000000000000000000000000000000000006001600160a01b0316611f9a565b611904565b6040519384523060048501526020846024817f00000000000000000000000000000000000000000000000000000000000000006001600160a01b03165afa938415611aa0578694611a6a575b50611a2461189a947f0000000000000000000000000000000000000000000000000000000000000000906112f0565b80611a30575b5061188f565b611a63917f00000000000000000000000000000000000000000000000000000000000000006001600160a01b0316611f9a565b3880611a2a565b93506020843d602011611a98575b81611a8560209383611088565b81010312610eb757925192611a246119f5565b3d9150611a78565b6040513d88823e3d90fd5b634e487b7160e01b85526011600452602485fd5b9094506020813d602011611aeb575b81611adb60209383611088565b81010312610eb7575193386117c1565b3d9150611ace565b6040513d86823e3d90fd5b611b20915060203d602011611b26575b611b188183611088565b810190612010565b38611789565b503d611b0e565b6040513d84823e3d90fd5b611b50919250833d8511611b2657611b188183611088565b9038611718565b6040513d85823e3d90fd5b611b7b915060203d602011611b2657611b188183611088565b386116c1565b611ba19060603d8111611ba8575b611b998183611088565b810190611ff5565b5050611673565b503d611b8f565b634e487b7160e01b83526011600452602483fd5b60405163095ea7b360e01b81527f00000000000000000000000000000000000000000000000000000000000000006001600160a01b031660048201526024810184905260208180604481010381867f00000000000000000000000000000000000000000000000000000000000000006001600160a01b03165af18015611b5757611e51575b5061012c4201804211611baf576040519162e8e33760e81b835260018060a01b037f000000000000000000000000000000000000000000000000000000000000000016600484015260018060a01b037f000000000000000000000000000000000000000000000000000000000000000016602484015260448301528360648301528260848301528260a48301523060c483015260e4820152606081610104818560018060a01b037f0000000000000000000000000000000000000000000000000000000000000000165af18015611b2d57611e33575b5060405163c45a015560e01b81526020816004817f00000000000000000000000000000000000000000000000000000000000000006001600160a01b03165afa908115611b2d578291611e14575b5060405163e6a4390560e01b81526001600160a01b037f0000000000000000000000000000000000000000000000000000000000000000811660048301527f000000000000000000000000000000000000000000000000000000000000000081166024830152909160209183916044918391165afa908115611b2d578291611df5575b5061178b565b611e0e915060203d602011611b2657611b188183611088565b38611def565b611e2d915060203d602011611b2657611b188183611088565b38611d6c565b611e4a9060603d8111611ba857611b998183611088565b5050611d1e565b611e729060203d602011611e79575b611e6a8183611088565b810190611fdd565b5038611c48565b503d611e60565b611e989060203d602011611e7957611e6a8183611088565b50386115a3565b67ffffffffffffffff8111611eb75760405238611496565b634e487b7160e01b82526041600452602482fd5b909190611f22907f00000000000000000000000000000000000000000000000000000000000000007f00000000000000000000000000000000000000000000000000000000000000006001600160a01b0316611f9a565b611499565b634e487b7160e01b81526011600452602490fd5b634e487b7160e01b82526011600452602482fd5b60ff60a01b1916600160a21b176002557fe48846a3dca191c762ab6aaa1e929ccaf55e31a875fb78ad1b93e15ef4830aca915080a1565b634e487b7160e01b82526021600452602482fd5b60405163a9059cbb60e01b60208201526001600160a01b03929092166024830152604480830193909352918152611fdb91611fd6606483611088565b6110c0565b565b90816020910312610eb757518015158103610eb75790565b90816060910312610eb7578051916040602083015192015190565b90816020910312610eb757516001600160a01b0381168103610eb75790565b60025460ff8160a01c166006811015610e8b578015806120b2575b156120665750506002805460ff60a01b1916600160a01b179055565b60011480612088575b6120765750565b60ff60a01b1916600160a11b17600255565b507f000000000000000000000000000000000000000000000000000000000000000042101561206f565b507f000000000000000000000000000000000000000000000000000000000000000042101561204a565b60ff60025460a01c166006811015610e8b57801580612142575b156121015750600190565b6001811480612118575b6121125790565b50600290565b507f000000000000000000000000000000000000000000000000000000000000000042101561210b565b507f00000000000000000000000000000000000000000000000000000000000000004210156120f6565b60ff60025460a01c166006811015610e8b576003036121e15760035480156121da576121d79160018060a01b031660005260076020526121d26040600020547f0000000000000000000000000000000000000000000000000000000000000000906112bd565b6112d0565b90565b5050600090565b5060009056fea26469706673582212203d194616234d860dffac536f1f2555c0ccb8c1569a3254c321c536a6c0c9875864736f6c634300081400332f8788117e7eff1d82e926ec794901d17c78024a50270940304540a733656f0d",
  "linkReferences": {},
  "deployedLinkReferences": {}
}