{
  "_format": "hh-sol-artifact-1",
  "contractName": "Fairlaunch",
  "sourceName": "contracts/fairlaunch/Fairlaunch.sol",
  "abi": [
    {
      "inputs": [
        {
          "internalType": "address",
          "name": "_projectToken",
          "type": "address"
        },
        {
          "internalType": "address",
          "name": "_paymentToken",
          "type": "address"
        },
        {
          "internalType": "uint256",
          "name": "_softcap",
          "type": "uint256"
        },
        {
          "internalType": "uint256",
          "name": "_tokensForSale",
          "type": "uint256"
        },
        {
          "internalType": "uint256",
          "name": "_minContribution",
          "type": "uint256"
        },
        {
          "internalType": "uint256",
          "name": "_maxContribution",
          "type": "uint256"
        },
        {
          "internalType": "uint256",
          "name": "_startTime",
          "type": "uint256"
        },
        {
          "internalType": "uint256",
          "name": "_endTime",
          "type": "uint256"
        },
        {
          "internalType": "uint16",
          "name": "_listingPremiumBps",
          "type": "uint16"
        },
        {
          "internalType": "address",
          "name": "_feeSplitter",
          "type": "address"
        },
        {
          "internalType": "address",
          "name": "_teamVesting",
          "type": "address"
        },
        {
          "internalType": "address",
          "name": "_projectOwner",
          "type": "address"
        },
        {
          "internalType": "address",
          "name": "_adminExecutor",
          "type": "address"
        },
        {
          "internalType": "uint256",
          "name": "_liquidityPercent",
          "type": "uint256"
        },
        {
          "internalType": "uint256",
          "name": "_lpLockMonths",
          "type": "uint256"
        },
        {
          "internalType": "bytes32",
          "name": "_dexId",
          "type": "bytes32"
        }
      ],
      "stateMutability": "nonpayable",
      "type": "constructor"
    },
    {
      "inputs": [],
      "name": "AccessControlBadConfirmation",
      "type": "error"
    },
    {
      "inputs": [
        {
          "internalType": "address",
          "name": "account",
          "type": "address"
        },
        {
          "internalType": "bytes32",
          "name": "neededRole",
          "type": "bytes32"
        }
      ],
      "name": "AccessControlUnauthorizedAccount",
      "type": "error"
    },
    {
      "inputs": [],
      "name": "AlreadyClaimed",
      "type": "error"
    },
    {
      "inputs": [],
      "name": "ContractPaused",
      "type": "error"
    },
    {
      "inputs": [],
      "name": "ContributionTooHigh",
      "type": "error"
    },
    {
      "inputs": [],
      "name": "ContributionTooLow",
      "type": "error"
    },
    {
      "inputs": [],
      "name": "InvalidStatus",
      "type": "error"
    },
    {
      "inputs": [],
      "name": "NoContribution",
      "type": "error"
    },
    {
      "inputs": [],
      "name": "NotAuthorized",
      "type": "error"
    },
    {
      "inputs": [],
      "name": "NothingToRefund",
      "type": "error"
    },
    {
      "inputs": [],
      "name": "ReentrancyGuardReentrantCall",
      "type": "error"
    },
    {
      "inputs": [
        {
          "internalType": "address",
          "name": "token",
          "type": "address"
        }
      ],
      "name": "SafeERC20FailedOperation",
      "type": "error"
    },
    {
      "inputs": [],
      "name": "SoftcapNotMet",
      "type": "error"
    },
    {
      "inputs": [],
      "name": "TransferFailed",
      "type": "error"
    },
    {
      "anonymous": false,
      "inputs": [],
      "name": "Cancelled",
      "type": "event"
    },
    {
      "anonymous": false,
      "inputs": [
        {
          "indexed": true,
          "internalType": "address",
          "name": "user",
          "type": "address"
        },
        {
          "indexed": false,
          "internalType": "uint256",
          "name": "amount",
          "type": "uint256"
        },
        {
          "indexed": false,
          "internalType": "uint256",
          "name": "totalRaised",
          "type": "uint256"
        }
      ],
      "name": "Contributed",
      "type": "event"
    },
    {
      "anonymous": false,
      "inputs": [],
      "name": "FinalizedFail",
      "type": "event"
    },
    {
      "anonymous": false,
      "inputs": [
        {
          "indexed": false,
          "internalType": "uint256",
          "name": "finalPrice",
          "type": "uint256"
        },
        {
          "indexed": false,
          "internalType": "uint256",
          "name": "totalRaised",
          "type": "uint256"
        },
        {
          "indexed": false,
          "internalType": "address",
          "name": "lpToken",
          "type": "address"
        },
        {
          "indexed": false,
          "internalType": "uint256",
          "name": "lpAmount",
          "type": "uint256"
        }
      ],
      "name": "FinalizedSuccess",
      "type": "event"
    },
    {
      "anonymous": false,
      "inputs": [
        {
          "indexed": true,
          "internalType": "address",
          "name": "lpToken",
          "type": "address"
        },
        {
          "indexed": false,
          "internalType": "uint256",
          "name": "lpAmount",
          "type": "uint256"
        },
        {
          "indexed": false,
          "internalType": "uint256",
          "name": "unlockTime",
          "type": "uint256"
        }
      ],
      "name": "LiquidityAdded",
      "type": "event"
    },
    {
      "anonymous": false,
      "inputs": [],
      "name": "Paused",
      "type": "event"
    },
    {
      "anonymous": false,
      "inputs": [
        {
          "indexed": true,
          "internalType": "address",
          "name": "user",
          "type": "address"
        },
        {
          "indexed": false,
          "internalType": "uint256",
          "name": "amount",
          "type": "uint256"
        }
      ],
      "name": "Refunded",
      "type": "event"
    },
    {
      "anonymous": false,
      "inputs": [
        {
          "indexed": true,
          "internalType": "bytes32",
          "name": "role",
          "type": "bytes32"
        },
        {
          "indexed": true,
          "internalType": "bytes32",
          "name": "previousAdminRole",
          "type": "bytes32"
        },
        {
          "indexed": true,
          "internalType": "bytes32",
          "name": "newAdminRole",
          "type": "bytes32"
        }
      ],
      "name": "RoleAdminChanged",
      "type": "event"
    },
    {
      "anonymous": false,
      "inputs": [
        {
          "indexed": true,
          "internalType": "bytes32",
          "name": "role",
          "type": "bytes32"
        },
        {
          "indexed": true,
          "internalType": "address",
          "name": "account",
          "type": "address"
        },
        {
          "indexed": true,
          "internalType": "address",
          "name": "sender",
          "type": "address"
        }
      ],
      "name": "RoleGranted",
      "type": "event"
    },
    {
      "anonymous": false,
      "inputs": [
        {
          "indexed": true,
          "internalType": "bytes32",
          "name": "role",
          "type": "bytes32"
        },
        {
          "indexed": true,
          "internalType": "address",
          "name": "account",
          "type": "address"
        },
        {
          "indexed": true,
          "internalType": "address",
          "name": "sender",
          "type": "address"
        }
      ],
      "name": "RoleRevoked",
      "type": "event"
    },
    {
      "anonymous": false,
      "inputs": [
        {
          "indexed": true,
          "internalType": "address",
          "name": "user",
          "type": "address"
        },
        {
          "indexed": false,
          "internalType": "uint256",
          "name": "amount",
          "type": "uint256"
        }
      ],
      "name": "TokensClaimed",
      "type": "event"
    },
    {
      "anonymous": false,
      "inputs": [],
      "name": "Unpaused",
      "type": "event"
    },
    {
      "inputs": [],
      "name": "ADMIN_ROLE",
      "outputs": [
        {
          "internalType": "bytes32",
          "name": "",
          "type": "bytes32"
        }
      ],
      "stateMutability": "view",
      "type": "function"
    },
    {
      "inputs": [],
      "name": "DEFAULT_ADMIN_ROLE",
      "outputs": [
        {
          "internalType": "bytes32",
          "name": "",
          "type": "bytes32"
        }
      ],
      "stateMutability": "view",
      "type": "function"
    },
    {
      "inputs": [],
      "name": "cancel",
      "outputs": [],
      "stateMutability": "nonpayable",
      "type": "function"
    },
    {
      "inputs": [],
      "name": "claimTokens",
      "outputs": [],
      "stateMutability": "nonpayable",
      "type": "function"
    },
    {
      "inputs": [],
      "name": "contribute",
      "outputs": [],
      "stateMutability": "payable",
      "type": "function"
    },
    {
      "inputs": [
        {
          "internalType": "uint256",
          "name": "amount",
          "type": "uint256"
        }
      ],
      "name": "contributeERC20",
      "outputs": [],
      "stateMutability": "nonpayable",
      "type": "function"
    },
    {
      "inputs": [
        {
          "internalType": "address",
          "name": "",
          "type": "address"
        }
      ],
      "name": "contributions",
      "outputs": [
        {
          "internalType": "uint256",
          "name": "",
          "type": "uint256"
        }
      ],
      "stateMutability": "view",
      "type": "function"
    },
    {
      "inputs": [],
      "name": "dexId",
      "outputs": [
        {
          "internalType": "bytes32",
          "name": "",
          "type": "bytes32"
        }
      ],
      "stateMutability": "view",
      "type": "function"
    },
    {
      "inputs": [],
      "name": "dexRouter",
      "outputs": [
        {
          "internalType": "contract IUniswapV2Router02",
          "name": "",
          "type": "address"
        }
      ],
      "stateMutability": "view",
      "type": "function"
    },
    {
      "inputs": [],
      "name": "endTime",
      "outputs": [
        {
          "internalType": "uint256",
          "name": "",
          "type": "uint256"
        }
      ],
      "stateMutability": "view",
      "type": "function"
    },
    {
      "inputs": [],
      "name": "feeSplitter",
      "outputs": [
        {
          "internalType": "address",
          "name": "",
          "type": "address"
        }
      ],
      "stateMutability": "view",
      "type": "function"
    },
    {
      "inputs": [],
      "name": "finalTokenPrice",
      "outputs": [
        {
          "internalType": "uint256",
          "name": "",
          "type": "uint256"
        }
      ],
      "stateMutability": "view",
      "type": "function"
    },
    {
      "inputs": [],
      "name": "finalize",
      "outputs": [],
      "stateMutability": "nonpayable",
      "type": "function"
    },
    {
      "inputs": [],
      "name": "getFinalPrice",
      "outputs": [
        {
          "internalType": "uint256",
          "name": "",
          "type": "uint256"
        }
      ],
      "stateMutability": "view",
      "type": "function"
    },
    {
      "inputs": [
        {
          "internalType": "bytes32",
          "name": "role",
          "type": "bytes32"
        }
      ],
      "name": "getRoleAdmin",
      "outputs": [
        {
          "internalType": "bytes32",
          "name": "",
          "type": "bytes32"
        }
      ],
      "stateMutability": "view",
      "type": "function"
    },
    {
      "inputs": [],
      "name": "getStatus",
      "outputs": [
        {
          "internalType": "enum Fairlaunch.Status",
          "name": "",
          "type": "uint8"
        }
      ],
      "stateMutability": "view",
      "type": "function"
    },
    {
      "inputs": [
        {
          "internalType": "address",
          "name": "user",
          "type": "address"
        }
      ],
      "name": "getUserAllocation",
      "outputs": [
        {
          "internalType": "uint256",
          "name": "",
          "type": "uint256"
        }
      ],
      "stateMutability": "view",
      "type": "function"
    },
    {
      "inputs": [
        {
          "internalType": "address",
          "name": "user",
          "type": "address"
        }
      ],
      "name": "getUserContribution",
      "outputs": [
        {
          "internalType": "uint256",
          "name": "",
          "type": "uint256"
        }
      ],
      "stateMutability": "view",
      "type": "function"
    },
    {
      "inputs": [
        {
          "internalType": "bytes32",
          "name": "role",
          "type": "bytes32"
        },
        {
          "internalType": "address",
          "name": "account",
          "type": "address"
        }
      ],
      "name": "grantRole",
      "outputs": [],
      "stateMutability": "nonpayable",
      "type": "function"
    },
    {
      "inputs": [
        {
          "internalType": "address",
          "name": "",
          "type": "address"
        }
      ],
      "name": "hasClaimed",
      "outputs": [
        {
          "internalType": "bool",
          "name": "",
          "type": "bool"
        }
      ],
      "stateMutability": "view",
      "type": "function"
    },
    {
      "inputs": [
        {
          "internalType": "bytes32",
          "name": "role",
          "type": "bytes32"
        },
        {
          "internalType": "address",
          "name": "account",
          "type": "address"
        }
      ],
      "name": "hasRole",
      "outputs": [
        {
          "internalType": "bool",
          "name": "",
          "type": "bool"
        }
      ],
      "stateMutability": "view",
      "type": "function"
    },
    {
      "inputs": [],
      "name": "isFinalized",
      "outputs": [
        {
          "internalType": "bool",
          "name": "",
          "type": "bool"
        }
      ],
      "stateMutability": "view",
      "type": "function"
    },
    {
      "inputs": [],
      "name": "isPaused",
      "outputs": [
        {
          "internalType": "bool",
          "name": "",
          "type": "bool"
        }
      ],
      "stateMutability": "view",
      "type": "function"
    },
    {
      "inputs": [],
      "name": "liquidityPercent",
      "outputs": [
        {
          "internalType": "uint256",
          "name": "",
          "type": "uint256"
        }
      ],
      "stateMutability": "view",
      "type": "function"
    },
    {
      "inputs": [],
      "name": "listingPremiumBps",
      "outputs": [
        {
          "internalType": "uint16",
          "name": "",
          "type": "uint16"
        }
      ],
      "stateMutability": "view",
      "type": "function"
    },
    {
      "inputs": [],
      "name": "lpLockMonths",
      "outputs": [
        {
          "internalType": "uint256",
          "name": "",
          "type": "uint256"
        }
      ],
      "stateMutability": "view",
      "type": "function"
    },
    {
      "inputs": [],
      "name": "lpLocker",
      "outputs": [
        {
          "internalType": "contract ILPLocker",
          "name": "",
          "type": "address"
        }
      ],
      "stateMutability": "view",
      "type": "function"
    },
    {
      "inputs": [],
      "name": "maxContribution",
      "outputs": [
        {
          "internalType": "uint256",
          "name": "",
          "type": "uint256"
        }
      ],
      "stateMutability": "view",
      "type": "function"
    },
    {
      "inputs": [],
      "name": "minContribution",
      "outputs": [
        {
          "internalType": "uint256",
          "name": "",
          "type": "uint256"
        }
      ],
      "stateMutability": "view",
      "type": "function"
    },
    {
      "inputs": [],
      "name": "participantCount",
      "outputs": [
        {
          "internalType": "uint256",
          "name": "",
          "type": "uint256"
        }
      ],
      "stateMutability": "view",
      "type": "function"
    },
    {
      "inputs": [],
      "name": "pause",
      "outputs": [],
      "stateMutability": "nonpayable",
      "type": "function"
    },
    {
      "inputs": [],
      "name": "paymentToken",
      "outputs": [
        {
          "internalType": "address",
          "name": "",
          "type": "address"
        }
      ],
      "stateMutability": "view",
      "type": "function"
    },
    {
      "inputs": [],
      "name": "projectOwner",
      "outputs": [
        {
          "internalType": "address",
          "name": "",
          "type": "address"
        }
      ],
      "stateMutability": "view",
      "type": "function"
    },
    {
      "inputs": [],
      "name": "projectToken",
      "outputs": [
        {
          "internalType": "address",
          "name": "",
          "type": "address"
        }
      ],
      "stateMutability": "view",
      "type": "function"
    },
    {
      "inputs": [],
      "name": "refund",
      "outputs": [],
      "stateMutability": "nonpayable",
      "type": "function"
    },
    {
      "inputs": [
        {
          "internalType": "bytes32",
          "name": "role",
          "type": "bytes32"
        },
        {
          "internalType": "address",
          "name": "callerConfirmation",
          "type": "address"
        }
      ],
      "name": "renounceRole",
      "outputs": [],
      "stateMutability": "nonpayable",
      "type": "function"
    },
    {
      "inputs": [
        {
          "internalType": "bytes32",
          "name": "role",
          "type": "bytes32"
        },
        {
          "internalType": "address",
          "name": "account",
          "type": "address"
        }
      ],
      "name": "revokeRole",
      "outputs": [],
      "stateMutability": "nonpayable",
      "type": "function"
    },
    {
      "inputs": [
        {
          "internalType": "address",
          "name": "_lpLocker",
          "type": "address"
        }
      ],
      "name": "setLPLocker",
      "outputs": [],
      "stateMutability": "nonpayable",
      "type": "function"
    },
    {
      "inputs": [],
      "name": "softcap",
      "outputs": [
        {
          "internalType": "uint256",
          "name": "",
          "type": "uint256"
        }
      ],
      "stateMutability": "view",
      "type": "function"
    },
    {
      "inputs": [],
      "name": "startTime",
      "outputs": [
        {
          "internalType": "uint256",
          "name": "",
          "type": "uint256"
        }
      ],
      "stateMutability": "view",
      "type": "function"
    },
    {
      "inputs": [],
      "name": "status",
      "outputs": [
        {
          "internalType": "enum Fairlaunch.Status",
          "name": "",
          "type": "uint8"
        }
      ],
      "stateMutability": "view",
      "type": "function"
    },
    {
      "inputs": [
        {
          "internalType": "bytes4",
          "name": "interfaceId",
          "type": "bytes4"
        }
      ],
      "name": "supportsInterface",
      "outputs": [
        {
          "internalType": "bool",
          "name": "",
          "type": "bool"
        }
      ],
      "stateMutability": "view",
      "type": "function"
    },
    {
      "inputs": [],
      "name": "teamVesting",
      "outputs": [
        {
          "internalType": "address",
          "name": "",
          "type": "address"
        }
      ],
      "stateMutability": "view",
      "type": "function"
    },
    {
      "inputs": [],
      "name": "tokensForSale",
      "outputs": [
        {
          "internalType": "uint256",
          "name": "",
          "type": "uint256"
        }
      ],
      "stateMutability": "view",
      "type": "function"
    },
    {
      "inputs": [],
      "name": "totalRaised",
      "outputs": [
        {
          "internalType": "uint256",
          "name": "",
          "type": "uint256"
        }
      ],
      "stateMutability": "view",
      "type": "function"
    },
    {
      "inputs": [],
      "name": "unpause",
      "outputs": [],
      "stateMutability": "nonpayable",
      "type": "function"
    }
  ],
  "bytecode": "0x3462000402576200293538819003610280601f8201601f19168101906001600160401b038211908210176200040757610200928291604052610280391262000402576200004e6102806200041d565b6200005b6102a06200041d565b6102c0516102e051610300516103205161034051610360516103805195979590949392919061ffff81168103620004025762000175956200009e6103a06200041d565b92620000ac6103c06200041d565b94620000ba6103e06200041d565b96620000c86104006200041d565b986101a061028001519d6101c061028001519d6101e061028001519d6001805560805260a05260c05260e05261010052610120526101405261016052610180526101a0526101c0526101e05261022094855261024093845261026092835260ff60a01b1960025416600255603846148015620003f7575b600090156200036357507310ed43c718714eb63d5aa57b78b54704e256024e5b610200526200016e8162000432565b50620004b2565b50604051916123c09384620005558539608051848181610a2101528181610b0c015281816115d60152818161165d0152818161179801528181611b0b01528181611ba701528181611e350152611f4e015260a051848181610306015281816106b9015281816108fc01528181610ca6015281816114790152818161160e0152818161199a01528181611abd01528181611ddd01528181611e6301528181611f7601526120b0015260c05184818161023501526113e4015260e051848181610abc01528181610da60152818161142c01528181611b4d01526123500152610100518481816104c901526111ce0152610120518481816105ec01526112180152610140518481816107750152818161225801526122e8015261016051848181610c6e0152818161222e01526122be015261018051848181610de4015261153601526101a05184818161086a015281816114a7015261208f01526101c051848181610826015281816119620152611b8601526101e051848181610501015281816118e3015281816119cc0152611a9c015261020051848181610e1d01528181611595015281816116ae015281816116f10152818161174001528181611d9c01528181611ebb0152611efe01525183818161048e0152611507015251828181610627015261182b01525181610d410152f35b600146148015620003ea575b15620003915750737a250d5630b4cf539739df2c5dacb4c659f2488d6200015f565b6121054614908115620003dc575b5015620003c157734752ba5dbc23f44d87826276bf6fd6b1c372ad246200015f565b737a250d5630b4cf539739df2c5dacb4c659f2488d6200015f565b4662014a341491506200039f565b5062aa36a746146200036f565b50606146146200013f565b600080fd5b634e487b7160e01b600052604160045260246000fd5b51906001600160a01b03821682036200040257565b6001600160a01b031660008181527fad3228b676f7d3cd4284a5443f17f1962b36e491b30a40b2405849e597ba5fb5602052604081205490919060ff16620004ae57818052816020526040822081835260205260408220600160ff198254161790553391600080516020620029158339815191528180a4600190565b5090565b6001600160a01b031660008181527f7d7ffb7a348e1c6a02869081a26547b49160dd3df72d1d75a570eb9b698292ec60205260408120549091907fa49807205ce4d355092ef5a8a18f56e8913cf4a201fbe287825b095693c217759060ff166200054f57808352826020526040832082845260205260408320600160ff1982541617905560008051602062002915833981519152339380a4600190565b50509056fe608060408181526004918236101561001657600080fd5b600092833560e01c91826301ffc9a714610e755750816303fc201314610e4c5781630758d92414610e085781630b7c1ae114610dc957816312aef8c314610d8e5781631cc645441461054b578163200d2ed214610d64578163220c095614610d29578163248a9ca314610cff5781632f2ff15d14610cd55781633013ce2914610c915781633197cbb614610c56578163362f04c014610c3857816336568abe14610bf25781633f4ba83a14610ba757816342e94c90146103a257816348c54b9d14610a505781634b60ce7714610a0c5781634bb278f3146109eb5781634e69d560146109be578163590e1ae3146108995781636052970c14610855578163619f3d6c1461081157816373b2e80e146107d357816375b238fc1461079857816378e979251461075d5781638160059a146106995781638456cb591461064a5781638bcd85151461060f5781638d3d6576146105d45781638d4e4083146105b057816391d148541461056a5781639ce05df71461054b578163a217fddf14610530578163a4475ce4146104ec578163aaffadf3146104b1578163b068375514610476578163b187bd261461044f578163b524f87b14610407578163b920ade2146103da578163bb8b2b47146103a2578163c5c4744c14610383578163d547741f14610344578163d7bb99ba146102ee578163ea8a1af01461025c575063f89be5931461021f57600080fd5b34610258578160031936011261025857602090517f00000000000000000000000000000000000000000000000000000000000000008152f35b5080fd5b9050346102ea57826003193601126102ea57610276610f22565b6002549160ff8360a01c1660068110156102d7576003146102ca57505060ff60a01b1916600560a01b176002557f63b958841f79ab97cb5456da181454b9932c0e15a3b17f1cbd27e2a8bc6104378180a180f35b516307a92f1960e51b8152fd5b634e487b7160e01b855260218352602485fd5b8280fd5b919050826003193601126102ea576103046110b5565b7f00000000000000000000000000000000000000000000000000000000000000006001600160a01b03166102ca578261033d343361119b565b6001805580f35b919050346102ea57806003193601126102ea5761037f913561037a6001610369610ef1565b938387528660205286200154610f9c565b611040565b5080f35b5050346102585781600319360112610258576020906003549051908152f35b5050346102585760203660031901126102585760209181906001600160a01b036103ca610f0c565b1681526007845220549051908152f35b505034610258576020366003190112610258576020906104006103fb610f0c565b61230f565b9051908152f35b833461044c57602036600319011261044c57610421610f0c565b610429610f22565b60018060a01b03166bffffffffffffffffffffffff60a01b600254161760025580f35b80fd5b50503461025857816003193601126102585760209060ff60065460081c1690519015158152f35b505034610258578160031936011261025857602090517f00000000000000000000000000000000000000000000000000000000000000008152f35b505034610258578160031936011261025857602090517f00000000000000000000000000000000000000000000000000000000000000008152f35b505034610258578160031936011261025857517f00000000000000000000000000000000000000000000000000000000000000006001600160a01b03168152602090f35b50503461025857816003193601126102585751908152602090f35b5050346102585781600319360112610258576020906005549051908152f35b9050346102ea57816003193601126102ea578160209360ff9261058b610ef1565b903582528186528282206001600160a01b039091168252855220549151911615158152f35b50503461025857816003193601126102585760209060ff6006541690519015158152f35b505034610258578160031936011261025857602090517f00000000000000000000000000000000000000000000000000000000000000008152f35b505034610258578160031936011261025857602090517f00000000000000000000000000000000000000000000000000000000000000008152f35b833461044c578060031936011261044c57610663610f22565b61010061ff001960065416176006557f9e87fac88ff661f02d44f95383c817fece4bce600a3dab7a54406878b965e7528180a180f35b838334610258576020366003190112610258578235906106b76110b5565b7f00000000000000000000000000000000000000000000000000000000000000006001600160a01b0316801561074d5781516323b872dd60e01b6020820152336024820152306044820152606480820185905281529160a083019067ffffffffffffffff82118483101761073a575261033d929161073491611110565b3361119b565b634e487b7160e01b865260418752602486fd5b81516307a92f1960e51b81528590fd5b505034610258578160031936011261025857602090517f00000000000000000000000000000000000000000000000000000000000000008152f35b505034610258578160031936011261025857602090517fa49807205ce4d355092ef5a8a18f56e8913cf4a201fbe287825b095693c217758152f35b5050346102585760203660031901126102585760209160ff9082906001600160a01b036107fe610f0c565b1681526008855220541690519015158152f35b505034610258578160031936011261025857517f00000000000000000000000000000000000000000000000000000000000000006001600160a01b03168152602090f35b505034610258578160031936011261025857517f00000000000000000000000000000000000000000000000000000000000000006001600160a01b03168152602090f35b919050346102ea57826003193601126102ea576108b46110b5565b60ff60025460a01c1660068110156109ab5782811415908161099f575b506102ca573383526007602052808320541561099257338352600760205280832080549084905591827f00000000000000000000000000000000000000000000000000000000000000006001600160a01b03168061098157508480808093335af161093a611365565b501561097357505b519081527fd7dee2702d63ad89917b6a4da9981c90c4d24f8c2bdfd64c604ecae57d8d065160203392a26001805580f35b90516312171d8360e31b8152fd5b61098d92503390612155565b610942565b5163f76aef6560e01b8152fd5b600591501415386108d1565b634e487b7160e01b845260218352602484fd5b5050346102585781600319360112610258576109e7906109dc61227f565b905191829182610ec8565b0390f35b833461044c578060031936011261044c57610a046110b5565b61033d6113a5565b505034610258578160031936011261025857517f00000000000000000000000000000000000000000000000000000000000000006001600160a01b03168152602090f35b9050346102ea57826003193601126102ea57610a6a6110b5565b60ff60025460a01c166006811015610b9457600303610b865733835260076020528183205415610b7857338352600860205260ff8284205416610b6a57503382526007602052610aea610ae1828420547f00000000000000000000000000000000000000000000000000000000000000009061130d565b60035490611320565b338084526008602052828420805460ff19166001179055909190610b399083907f00000000000000000000000000000000000000000000000000000000000000006001600160a01b0316612155565b519081527f896e034966eaaf1adc54acc0f257056febbd300c9e47182cf761982cf1f5e43060203392a26001805580f35b9051630c8d9eab60e31b8152fd5b9051631971fbf360e21b8152fd5b90516307a92f1960e51b8152fd5b634e487b7160e01b845260218252602484fd5b833461044c578060031936011261044c57610bc0610f22565b61ff0019600654166006557fa45f47fdea8a1efdd9029a5691c7f759c32b7c698632b563573e155625d169338180a180f35b838334610258578060031936011261025857610c0c610ef1565b90336001600160a01b03831603610c29575061037f919235611040565b5163334bd91960e11b81528390fd5b9050346102ea57826003193601126102ea5760209250549051908152f35b505034610258578160031936011261025857602090517f00000000000000000000000000000000000000000000000000000000000000008152f35b505034610258578160031936011261025857517f00000000000000000000000000000000000000000000000000000000000000006001600160a01b03168152602090f35b919050346102ea57806003193601126102ea5761037f9135610cfa6001610369610ef1565b610fc2565b9050346102ea5760203660031901126102ea57816020936001923581528085522001549051908152f35b505034610258578160031936011261025857602090517f00000000000000000000000000000000000000000000000000000000000000008152f35b5050346102585781600319360112610258576109e79060ff60025460a01c16905191829182610ec8565b505034610258578160031936011261025857602090517f00000000000000000000000000000000000000000000000000000000000000008152f35b5050346102585781600319360112610258576020905161ffff7f0000000000000000000000000000000000000000000000000000000000000000168152f35b505034610258578160031936011261025857517f00000000000000000000000000000000000000000000000000000000000000006001600160a01b03168152602090f35b50503461025857816003193601126102585760025490516001600160a01b039091168152602090f35b8491346102ea5760203660031901126102ea573563ffffffff60e01b81168091036102ea5760209250637965db0b60e01b8114908115610eb7575b5015158152f35b6301ffc9a760e01b14905083610eb0565b919060208301926006821015610edb5752565b634e487b7160e01b600052602160045260246000fd5b602435906001600160a01b0382168203610f0757565b600080fd5b600435906001600160a01b0382168203610f0757565b3360009081527f7d7ffb7a348e1c6a02869081a26547b49160dd3df72d1d75a570eb9b698292ec60205260409020547fa49807205ce4d355092ef5a8a18f56e8913cf4a201fbe287825b095693c217759060ff1615610f7e5750565b6044906040519063e2517d3f60e01b82523360048301526024820152fd5b80600052600060205260406000203360005260205260ff6040600020541615610f7e5750565b9060009180835282602052604083209160018060a01b03169182845260205260ff6040842054161560001461103b57808352826020526040832082845260205260408320600160ff198254161790557f2f8788117e7eff1d82e926ec794901d17c78024a50270940304540a733656f0d339380a4600190565b505090565b9060009180835282602052604083209160018060a01b03169182845260205260ff60408420541660001461103b5780835282602052604083208284526020526040832060ff1981541690557ff6391f5c32d9c69d2a47ea670b442974b53935d1edc7fd64eb21e047a839171b339380a4600190565b6002600154146110c6576002600155565b604051633ee5aeb560e01b8152600490fd5b90601f8019910116810190811067ffffffffffffffff8211176110fa57604052565b634e487b7160e01b600052604160045260246000fd5b906000602091828151910182855af11561116c576000513d61116357506001600160a01b0381163b155b6111415750565b604051635274afe760e01b81526001600160a01b039091166004820152602490fd5b6001141561113a565b6040513d6000823e3d90fd5b9190820180921161118557565b634e487b7160e01b600052601160045260246000fd5b9190916111a66121d2565b60ff60025460a01c166006811015610edb576001036112fb5760ff60065460081c166112e9577f000000000000000000000000000000000000000000000000000000000000000083106112d75760018060a01b031660009281845260076020526040906112168183872054611178565b7f000000000000000000000000000000000000000000000000000000000000000081116112c6578386526007602052828620541561129b575b8286857ffa35a310d7113dddce1c275da946348e9aaebf9050b00b372033c4d84b0bd6eb969798526007602052205561128a81600354611178565b8060035582519182526020820152a2565b60045460001981146112b25760010160045561124f565b634e487b7160e01b87526011600452602487fd5b8251635e508cd360e11b8152600490fd5b604051636c7591b560e11b8152600490fd5b60405163ab35696f60e01b8152600490fd5b6040516307a92f1960e51b8152600490fd5b8181029291811591840414171561118557565b811561132a570490565b634e487b7160e01b600052601260045260246000fd5b9190820391821161118557565b90816020910312610f0757518015158103610f075790565b3d156113a0573d9067ffffffffffffffff82116110fa5760405191611394601f8201601f1916602001846110d8565b82523d6000602084013e565b606090565b6113ad6121d2565b600254600060ff8260a01c166006811015612141576002036112fb5760065460ff81166112fb5760ff1916600117600655600354917f0000000000000000000000000000000000000000000000000000000000000000831061210a5750670de0b6b3a76400008083029183159284810483148417156120f657611451907f000000000000000000000000000000000000000000000000000000000000000090611320565b6005556101f492838502938585041417156120e2576114766127108094048095611340565b937f00000000000000000000000000000000000000000000000000000000000000006001600160a01b0316612086577f00000000000000000000000000000000000000000000000000000000000000006001600160a01b0316803b156102ea5782906024604051809481936339650d1f60e01b83523060048401525af18015611d025761205a575b50905b8261152c7f00000000000000000000000000000000000000000000000000000000000000008661130d565b049260055461ffff7f000000000000000000000000000000000000000000000000000000000000000016820190818311611c80579061156a9161130d565b0490808402908482041484151715611d79579061158691611320565b60405163095ea7b360e01b81527f00000000000000000000000000000000000000000000000000000000000000006001600160a01b031660048201526024810182905260208180604481010381867f00000000000000000000000000000000000000000000000000000000000000006001600160a01b03165af18015611cc85761203b575b507f00000000000000000000000000000000000000000000000000000000000000006001600160a01b0316611d8d5761012c4201804211611d79576040519163f305d71960e01b835260018060a01b037f0000000000000000000000000000000000000000000000000000000000000000166004840152602483015282604483015282606483015230608483015260a482015260608160c4818660018060a01b037f0000000000000000000000000000000000000000000000000000000000000000165af18015611d0257611d4b575b5060405163c45a015560e01b81526020816004817f00000000000000000000000000000000000000000000000000000000000000006001600160a01b03165afa908115611d02578291611d2c575b506040516315ab88c960e31b8152906020826004817f00000000000000000000000000000000000000000000000000000000000000006001600160a01b03165afa918215611cc857916020916117d6938592611d0d575b5060405163e6a4390560e01b81526001600160a01b037f00000000000000000000000000000000000000000000000000000000000000008116600483015290921660248301529092839190829081906044820190565b03916001600160a01b03165afa908115611d02578291611cd3575b50925b6040516370a0823160e01b8152306004820152926020846024816001600160a01b0389165afa938415611cc8578394611c94575b507f000000000000000000000000000000000000000000000000000000000000000062278d00908082810204821481151715611c8057611869910242611178565b60025460405163095ea7b360e01b81526001600160a01b0390911660048201526024810186905260208180604481010381886001600160a01b038c165af18015611c4657611c51575b50600254604051630aa393f360e01b81526001600160a01b03888116600483015260248201889052604482018490527f0000000000000000000000000000000000000000000000000000000000000000811660648301529091602091839160849183918a91165af18015611c4657611c1b575b506040519085825260208201527fac1d76749e5447b7b16f5ab61447e1bd502f3bb4807af3b28e620d1700a6ee45604060018060a01b03881692a27f00000000000000000000000000000000000000000000000000000000000000006001600160a01b0316611aef575b61199891611340565b7f00000000000000000000000000000000000000000000000000000000000000006001600160a01b0316611a6d57818080927f00000000000000000000000000000000000000000000000000000000000000005af16119f5611365565b5015611a5b577f6e4389167d2afbd1ccb4797ea87e29958adbf74cd16ba077a2ee5ab8460784e5916080915b600360a01b60ff60a01b19600254161760025560055491600354604051938452602084015260018060a01b031660408301526060820152a1565b6040516312171d8360e31b8152600490fd5b7f6e4389167d2afbd1ccb4797ea87e29958adbf74cd16ba077a2ee5ab8460784e59360809390925090611aea907f00000000000000000000000000000000000000000000000000000000000000007f00000000000000000000000000000000000000000000000000000000000000006001600160a01b0316612155565b611a21565b6040516370a0823160e01b8152306004820152916020836024817f00000000000000000000000000000000000000000000000000000000000000006001600160a01b03165afa928315611c10578493611bda575b50611b72611998937f000000000000000000000000000000000000000000000000000000000000000090611340565b80611b80575b50915061198f565b611bd4907f00000000000000000000000000000000000000000000000000000000000000007f00000000000000000000000000000000000000000000000000000000000000006001600160a01b0316612155565b38611b78565b92506020833d602011611c08575b81611bf5602093836110d8565b81010312610f0757915191611b72611b43565b3d9150611be8565b6040513d86823e3d90fd5b602090813d8311611c3f575b611c3181836110d8565b81010312610f075738611925565b503d611c27565b6040513d87823e3d90fd5b611c729060203d602011611c79575b611c6a81836110d8565b81019061134d565b50386118b2565b503d611c60565b634e487b7160e01b85526011600452602485fd5b9093506020813d602011611cc0575b81611cb0602093836110d8565b81010312610f0757519238611828565b3d9150611ca3565b6040513d85823e3d90fd5b611cf5915060203d602011611cfb575b611ced81836110d8565b8101906121b3565b386117f1565b503d611ce3565b6040513d84823e3d90fd5b611d25919250833d8511611cfb57611ced81836110d8565b9038611780565b611d45915060203d602011611cfb57611ced81836110d8565b38611729565b611d6b9060603d8111611d72575b611d6381836110d8565b810190612198565b50506116db565b503d611d59565b634e487b7160e01b83526011600452602483fd5b60405163095ea7b360e01b81527f00000000000000000000000000000000000000000000000000000000000000006001600160a01b031660048201526024810184905260208180604481010381867f00000000000000000000000000000000000000000000000000000000000000006001600160a01b03165af18015611cc85761201c575b5061012c4201804211611d79576040519162e8e33760e81b835260018060a01b037f000000000000000000000000000000000000000000000000000000000000000016600484015260018060a01b037f000000000000000000000000000000000000000000000000000000000000000016602484015260448301528360648301528260848301528260a48301523060c483015260e4820152606081610104818560018060a01b037f0000000000000000000000000000000000000000000000000000000000000000165af18015611d0257611ffe575b5060405163c45a015560e01b81526020816004817f00000000000000000000000000000000000000000000000000000000000000006001600160a01b03165afa908115611d02578291611fdf575b5060405163e6a4390560e01b81526001600160a01b037f0000000000000000000000000000000000000000000000000000000000000000811660048301527f000000000000000000000000000000000000000000000000000000000000000081166024830152909160209183916044918391165afa908115611d02578291611fc0575b50926117f4565b611fd9915060203d602011611cfb57611ced81836110d8565b38611fb9565b611ff8915060203d602011611cfb57611ced81836110d8565b38611f36565b6120159060603d8111611d7257611d6381836110d8565b5050611ee8565b6120349060203d602011611c7957611c6a81836110d8565b5038611e12565b6120539060203d602011611c7957611c6a81836110d8565b503861160b565b67ffffffffffffffff811161207257604052386114fe565b634e487b7160e01b82526041600452602482fd5b9091906120dd907f00000000000000000000000000000000000000000000000000000000000000007f00000000000000000000000000000000000000000000000000000000000000006001600160a01b0316612155565b611501565b634e487b7160e01b81526011600452602490fd5b634e487b7160e01b82526011600452602482fd5b60ff60a01b1916600160a21b176002557fe48846a3dca191c762ab6aaa1e929ccaf55e31a875fb78ad1b93e15ef4830aca915080a1565b634e487b7160e01b82526021600452602482fd5b60405163a9059cbb60e01b60208201526001600160a01b03929092166024830152604480830193909352918152612196916121916064836110d8565b611110565b565b90816060910312610f07578051916040602083015192015190565b90816020910312610f0757516001600160a01b0381168103610f075790565b60025460ff8160a01c166006811015610edb57801580612255575b156122095750506002805460ff60a01b1916600160a01b179055565b6001148061222b575b6122195750565b60ff60a01b1916600160a11b17600255565b507f0000000000000000000000000000000000000000000000000000000000000000421015612212565b507f00000000000000000000000000000000000000000000000000000000000000004210156121ed565b60ff60025460a01c166006811015610edb578015806122e5575b156122a45750600190565b60018114806122bb575b6122b55790565b50600290565b507f00000000000000000000000000000000000000000000000000000000000000004210156122ae565b507f0000000000000000000000000000000000000000000000000000000000000000421015612299565b60ff60025460a01c166006811015610edb5760030361238457600354801561237d5761237a9160018060a01b031660005260076020526123756040600020547f00000000000000000000000000000000000000000000000000000000000000009061130d565b611320565b90565b5050600090565b5060009056fea26469706673582212206f7083b8b1b3ce9203bb789c244c0d75240bf1745773e585798f7ba4d437973864736f6c634300081400332f8788117e7eff1d82e926ec794901d17c78024a50270940304540a733656f0d",
  "linkReferences": {},
  "deployedLinkReferences": {}
}