{"contracts/bonding-curve/SelsipadBCToken.sol":{"SelsipadBCToken":{"abi":[{"inputs":[{"internalType":"string","name":"_name","type":"string"},{"internalType":"string","name":"_symbol","type":"string"},{"internalType":"address","name":"","type":"address"}],"stateMutability":"nonpayable","type":"constructor"},{"inputs":[],"name":"InsufficientAllowance","type":"error"},{"inputs":[],"name":"InsufficientBalance","type":"error"},{"inputs":[],"name":"MaxSupplyExceeded","type":"error"},{"inputs":[],"name":"OnlyFactory","type":"error"},{"anonymous":false,"inputs":[{"indexed":true,"internalType":"address","name":"owner","type":"address"},{"indexed":true,"internalType":"address","name":"spender","type":"address"},{"indexed":false,"internalType":"uint256","name":"value","type":"uint256"}],"name":"Approval","type":"event"},{"anonymous":false,"inputs":[{"indexed":true,"internalType":"address","name":"from","type":"address"},{"indexed":true,"internalType":"address","name":"to","type":"address"},{"indexed":false,"internalType":"uint256","name":"value","type":"uint256"}],"name":"Transfer","type":"event"},{"inputs":[],"name":"MAX_SUPPLY","outputs":[{"internalType":"uint256","name":"","type":"uint256"}],"stateMutability":"view","type":"function"},{"inputs":[{"internalType":"address","name":"","type":"address"},{"internalType":"address","name":"","type":"address"}],"name":"allowance","outputs":[{"internalType":"uint256","name":"","type":"uint256"}],"stateMutability":"view","type":"function"},{"inputs":[{"internalType":"address","name":"spender","type":"address"},{"internalType":"uint256","name":"amount","type":"uint256"}],"name":"approve","outputs":[{"internalType":"bool","name":"","type":"bool"}],"stateMutability":"nonpayable","type":"function"},{"inputs":[{"internalType":"address","name":"","type":"address"}],"name":"balanceOf","outputs":[{"internalType":"uint256","name":"","type":"uint256"}],"stateMutability":"view","type":"function"},{"inputs":[],"name":"decimals","outputs":[{"internalType":"uint8","name":"","type":"uint8"}],"stateMutability":"view","type":"function"},{"inputs":[],"name":"factory","outputs":[{"internalType":"address","name":"","type":"address"}],"stateMutability":"view","type":"function"},{"inputs":[{"internalType":"address","name":"to","type":"address"},{"internalType":"uint256","name":"amount","type":"uint256"}],"name":"mintFromFactory","outputs":[],"stateMutability":"nonpayable","type":"function"},{"inputs":[],"name":"name","outputs":[{"internalType":"string","name":"","type":"string"}],"stateMutability":"view","type":"function"},{"inputs":[],"name":"symbol","outputs":[{"internalType":"string","name":"","type":"string"}],"stateMutability":"view","type":"function"},{"inputs":[],"name":"totalSupply","outputs":[{"internalType":"uint256","name":"","type":"uint256"}],"stateMutability":"view","type":"function"},{"inputs":[{"internalType":"address","name":"to","type":"address"},{"internalType":"uint256","name":"amount","type":"uint256"}],"name":"transfer","outputs":[{"internalType":"bool","name":"","type":"bool"}],"stateMutability":"nonpayable","type":"function"},{"inputs":[{"internalType":"address","name":"from","type":"address"},{"internalType":"address","name":"to","type":"address"},{"internalType":"uint256","name":"amount","type":"uint256"}],"name":"transferFrom","outputs":[{"internalType":"bool","name":"","type":"bool"}],"stateMutability":"nonpayable","type":"function"}],"evm":{"bytecode":{"linkReferences":{},"object":"604060a0815234620003c85762000c5890813803806200001f81620003cd565b9384398201606083820312620003c85782516001600160401b0390818111620003c8578262000050918601620003f3565b60209283860151838111620003c85785916200006e918801620003f3565b9501516001600160a01b03811603620003c857805191808311620003b2576000928354906001938483811c93168015620003a7575b8784101462000393578190601f9384811162000340575b508790848311600114620002dc578792620002d0575b5050600019600383901b1c191690841b1784555b8651918211620002bc5782548381811c91168015620002b1575b868210146200029d5781811162000255575b5084908211600114620001f2578394959682939492620001e6575b5050600019600383901b1c191690821b1790555b336080526b033b2e3c9fd0803ce800000091826200015f60025462000465565b11620001d5577fddf252ad1be2c89b69c2b068fc378daa952ba7f163c4a11628f55a4df523b3ef90338352600381528483206200019d815462000465565b9055620001ac60025462000465565b60025584519384523393a3516107c29081620004968239608051818181610107015261036c0152f35b8351638a164f6360e01b8152600490fd5b0151905038806200012b565b82845284842090601f198316855b8181106200023f5750978385969798991062000225575b505050811b0190556200013f565b015160001960f88460031b161c1916905538808062000217565b8983015184559285019291870191870162000200565b8385528585208280850160051c82019288861062000293575b0160051c019084905b8281106200028757505062000110565b86815501849062000277565b925081926200026e565b634e487b7160e01b85526022600452602485fd5b90607f1690620000fe565b634e487b7160e01b84526041600452602484fd5b015190503880620000d0565b8780528888208794509190601f198416895b8b8282106200032957505084116200030f575b505050811b018455620000e4565b015160001960f88460031b161c1916905538808062000301565b8385015186558a97909501949384019301620002ee565b9091508680528787208480850160051c8201928a861062000389575b918891869594930160051c01915b8281106200037a575050620000ba565b8981558594508891016200036a565b925081926200035c565b634e487b7160e01b86526022600452602486fd5b92607f1692620000a3565b634e487b7160e01b600052604160045260246000fd5b600080fd5b6040519190601f01601f191682016001600160401b03811183821017620003b257604052565b919080601f84011215620003c85782516001600160401b038111620003b25760209062000429601f8201601f19168301620003cd565b92818452828287010111620003c85760005b8181106200045157508260009394955001015290565b85810183015184820184015282016200043b565b906b033b2e3c9fd0803ce800000082018092116200047f57565b634e487b7160e01b600052601160045260246000fdfe6080604081815260048036101561001557600080fd5b600092833560e01c90816306fdde03146105ef57508063095ea7b31461058157806318160ddd1461056257806323b872dd14610468578063313ce5671461044c57806332cb6b0c1461042557806364a7102b1461034357806370a082311461030b57806395d89b41146101ea578063a9059cbb1461013a578063c45a0155146100f25763dd62ed3e146100a757600080fd5b346100ee57816003193601126100ee5760209282916100c461072b565b6100cc610746565b6001600160a01b03918216845291865283832091168252845220549051908152f35b8280fd5b505034610136578160031936011261013657517f00000000000000000000000000000000000000000000000000000000000000006001600160a01b03168152602090f35b5080fd5b5091346101e757816003193601126101e75761015461072b565b926024359033835260036020528184842054106101d95750826020943384526003865281842061018584825461077f565b90556001600160a01b031680845260038652922080546101a690839061075c565b905582519081527fddf252ad1be2c89b69c2b068fc378daa952ba7f163c4a11628f55a4df523b3ef843392a35160018152f35b8351631e9acf1760e31b8152fd5b80fd5b5091903461013657816003193601126101365780519082600180549081811c90808316928315610301575b60209384841081146102ee578388529081156102d2575060011461027d575b505050829003601f01601f191682019267ffffffffffffffff84118385101761026a57508291826102669252826106e2565b0390f35b634e487b7160e01b815260418552602490fd5b8087529192508591837fb10e2d527612073b26eecdfd717e6a320cf44b4afac2b0732d9fcbe2b7fa0cf65b8385106102be5750505050830101388080610234565b8054888601830152930192849082016102a8565b60ff1916878501525050151560051b8401019050388080610234565b634e487b7160e01b895260228a52602489fd5b91607f1691610215565b5050346101365760203660031901126101365760209181906001600160a01b0361033361072b565b1681526003845220549051908152f35b50346100ee57816003193601126100ee5761035c61072b565b602435916001600160a01b0391907f000000000000000000000000000000000000000000000000000000000000000083163303610417576b033b2e3c9fd0803ce80000006103ac8560025461075c565b11610409575084927fddf252ad1be2c89b69c2b068fc378daa952ba7f163c4a11628f55a4df523b3ef926020921694858552600383528085206103f083825461075c565b90556103fe8260025461075c565b60025551908152a380f35b8451638a164f6360e01b8152fd5b8451630636a15760e11b8152fd5b505034610136578160031936011261013657602090516b033b2e3c9fd0803ce80000008152f35b5050346101365781600319360112610136576020905160128152f35b5091346101e75760603660031901126101e75761048361072b565b61048b610746565b906044359060018060a01b0380911692838552602096600388528387872054106105545784865280885286862033875288528387872054106105465787927fddf252ad1be2c89b69c2b068fc378daa952ba7f163c4a11628f55a4df523b3ef949288928789526003865283892061050386825461077f565b90558789528552828820338952855282882061052085825461077f565b90551695868152600384522061053782825461075c565b90558551908152a35160018152f35b86516313be252b60e01b8152fd5b8651631e9acf1760e31b8152fd5b5050346101365781600319360112610136576020906002549051908152f35b50346100ee57816003193601126100ee5760209261059d61072b565b918360243592839233825287528181209460018060a01b0316948582528752205582519081527f8c5be1e5ebec7d5bd14f71427d1e84f3dd0314c0f7b2291e5b200ac8c7c3b925843392a35160018152f35b84915083346100ee57826003193601126100ee57828354600181811c908083169283156106d8575b60209384841081146102ee578388529081156106bc575060011461066757505050829003601f01601f191682019267ffffffffffffffff84118385101761026a57508291826102669252826106e2565b8680529192508591837f290decd9548b62a8d60345a988386fc84ba6bc95484008f6362f93160ef3e5635b8385106106a85750505050830101858080610234565b805488860183015293019284908201610692565b60ff1916878501525050151560051b8401019050858080610234565b91607f1691610617565b6020808252825181830181905290939260005b82811061071757505060409293506000838284010152601f8019910116010190565b8181018601518482016040015285016106f5565b600435906001600160a01b038216820361074157565b600080fd5b602435906001600160a01b038216820361074157565b9190820180921161076957565b634e487b7160e01b600052601160045260246000fd5b919082039182116107695756fea2646970667358221220b4a7a81306531b98d4ab9038f068809c2ec4c02f5bca341a764b2fb59a3b63e864736f6c63430008140033","opcodes":"PUSH1 0x40 PUSH1 0xA0 DUP2 MSTORE CALLVALUE PUSH3 0x3C8 JUMPI PUSH3 0xC58 SWAP1 DUP2 CODESIZE SUB DUP1 PUSH3 0x1F DUP2 PUSH3 0x3CD JUMP JUMPDEST SWAP4 DUP5 CODECOPY DUP3 ADD PUSH1 0x60 DUP4 DUP3 SUB SLT PUSH3 0x3C8 JUMPI DUP3 MLOAD PUSH1 0x1 PUSH1 0x1 PUSH1 0x40 SHL SUB SWAP1 DUP2 DUP2 GT PUSH3 0x3C8 JUMPI DUP3 PUSH3 0x50 SWAP2 DUP7 ADD PUSH3 0x3F3 JUMP JUMPDEST PUSH1 0x20 SWAP3 DUP4 DUP7 ADD MLOAD DUP4 DUP2 GT PUSH3 0x3C8 JUMPI DUP6 SWAP2 PUSH3 0x6E SWAP2 DUP9 ADD PUSH3 0x3F3 JUMP JUMPDEST SWAP6 ADD MLOAD PUSH1 0x1 PUSH1 0x1 PUSH1 0xA0 SHL SUB DUP2 AND SUB PUSH3 0x3C8 JUMPI DUP1 MLOAD SWAP2 DUP1 DUP4 GT PUSH3 0x3B2 JUMPI PUSH1 0x0 SWAP3 DUP4 SLOAD SWAP1 PUSH1 0x1 SWAP4 DUP5 DUP4 DUP2 SHR SWAP4 AND DUP1 ISZERO PUSH3 0x3A7 JUMPI JUMPDEST DUP8 DUP5 LT EQ PUSH3 0x393 JUMPI DUP2 SWAP1 PUSH1 0x1F SWAP4 DUP5 DUP2 GT PUSH3 0x340 JUMPI JUMPDEST POP DUP8 SWAP1 DUP5 DUP4 GT PUSH1 0x1 EQ PUSH3 0x2DC JUMPI DUP8 SWAP3 PUSH3 0x2D0 JUMPI JUMPDEST POP POP PUSH1 0x0 NOT PUSH1 0x3 DUP4 SWAP1 SHL SHR NOT AND SWAP1 DUP5 SHL OR DUP5 SSTORE JUMPDEST DUP7 MLOAD SWAP2 DUP3 GT PUSH3 0x2BC JUMPI DUP3 SLOAD DUP4 DUP2 DUP2 SHR SWAP2 AND DUP1 ISZERO PUSH3 0x2B1 JUMPI JUMPDEST DUP7 DUP3 LT EQ PUSH3 0x29D JUMPI DUP2 DUP2 GT PUSH3 0x255 JUMPI JUMPDEST POP DUP5 SWAP1 DUP3 GT PUSH1 0x1 EQ PUSH3 0x1F2 JUMPI DUP4 SWAP5 SWAP6 SWAP7 DUP3 SWAP4 SWAP5 SWAP3 PUSH3 0x1E6 JUMPI JUMPDEST POP POP PUSH1 0x0 NOT PUSH1 0x3 DUP4 SWAP1 SHL SHR NOT AND SWAP1 DUP3 SHL OR SWAP1 SSTORE JUMPDEST CALLER PUSH1 0x80 MSTORE PUSH12 0x33B2E3C9FD0803CE8000000 SWAP2 DUP3 PUSH3 0x15F PUSH1 0x2 SLOAD PUSH3 0x465 JUMP JUMPDEST GT PUSH3 0x1D5 JUMPI PUSH32 0xDDF252AD1BE2C89B69C2B068FC378DAA952BA7F163C4A11628F55A4DF523B3EF SWAP1 CALLER DUP4 MSTORE PUSH1 0x3 DUP2 MSTORE DUP5 DUP4 KECCAK256 PUSH3 0x19D DUP2 SLOAD PUSH3 0x465 JUMP JUMPDEST SWAP1 SSTORE PUSH3 0x1AC PUSH1 0x2 SLOAD PUSH3 0x465 JUMP JUMPDEST PUSH1 0x2 SSTORE DUP5 MLOAD SWAP4 DUP5 MSTORE CALLER SWAP4 LOG3 MLOAD PUSH2 0x7C2 SWAP1 DUP2 PUSH3 0x496 DUP3 CODECOPY PUSH1 0x80 MLOAD DUP2 DUP2 DUP2 PUSH2 0x107 ADD MSTORE PUSH2 0x36C ADD MSTORE RETURN JUMPDEST DUP4 MLOAD PUSH4 0x8A164F63 PUSH1 0xE0 SHL DUP2 MSTORE PUSH1 0x4 SWAP1 REVERT JUMPDEST ADD MLOAD SWAP1 POP CODESIZE DUP1 PUSH3 0x12B JUMP JUMPDEST DUP3 DUP5 MSTORE DUP5 DUP5 KECCAK256 SWAP1 PUSH1 0x1F NOT DUP4 AND DUP6 JUMPDEST DUP2 DUP2 LT PUSH3 0x23F JUMPI POP SWAP8 DUP4 DUP6 SWAP7 SWAP8 SWAP9 SWAP10 LT PUSH3 0x225 JUMPI JUMPDEST POP POP POP DUP2 SHL ADD SWAP1 SSTORE PUSH3 0x13F JUMP JUMPDEST ADD MLOAD PUSH1 0x0 NOT PUSH1 0xF8 DUP5 PUSH1 0x3 SHL AND SHR NOT AND SWAP1 SSTORE CODESIZE DUP1 DUP1 PUSH3 0x217 JUMP JUMPDEST DUP10 DUP4 ADD MLOAD DUP5 SSTORE SWAP3 DUP6 ADD SWAP3 SWAP2 DUP8 ADD SWAP2 DUP8 ADD PUSH3 0x200 JUMP JUMPDEST DUP4 DUP6 MSTORE DUP6 DUP6 KECCAK256 DUP3 DUP1 DUP6 ADD PUSH1 0x5 SHR DUP3 ADD SWAP3 DUP9 DUP7 LT PUSH3 0x293 JUMPI JUMPDEST ADD PUSH1 0x5 SHR ADD SWAP1 DUP5 SWAP1 JUMPDEST DUP3 DUP2 LT PUSH3 0x287 JUMPI POP POP PUSH3 0x110 JUMP JUMPDEST DUP7 DUP2 SSTORE ADD DUP5 SWAP1 PUSH3 0x277 JUMP JUMPDEST SWAP3 POP DUP2 SWAP3 PUSH3 0x26E JUMP JUMPDEST PUSH4 0x4E487B71 PUSH1 0xE0 SHL DUP6 MSTORE PUSH1 0x22 PUSH1 0x4 MSTORE PUSH1 0x24 DUP6 REVERT JUMPDEST SWAP1 PUSH1 0x7F AND SWAP1 PUSH3 0xFE JUMP JUMPDEST PUSH4 0x4E487B71 PUSH1 0xE0 SHL DUP5 MSTORE PUSH1 0x41 PUSH1 0x4 MSTORE PUSH1 0x24 DUP5 REVERT JUMPDEST ADD MLOAD SWAP1 POP CODESIZE DUP1 PUSH3 0xD0 JUMP JUMPDEST DUP8 DUP1 MSTORE DUP9 DUP9 KECCAK256 DUP8 SWAP5 POP SWAP2 SWAP1 PUSH1 0x1F NOT DUP5 AND DUP10 JUMPDEST DUP12 DUP3 DUP3 LT PUSH3 0x329 JUMPI POP POP DUP5 GT PUSH3 0x30F JUMPI JUMPDEST POP POP POP DUP2 SHL ADD DUP5 SSTORE PUSH3 0xE4 JUMP JUMPDEST ADD MLOAD PUSH1 0x0 NOT PUSH1 0xF8 DUP5 PUSH1 0x3 SHL AND SHR NOT AND SWAP1 SSTORE CODESIZE DUP1 DUP1 PUSH3 0x301 JUMP JUMPDEST DUP4 DUP6 ADD MLOAD DUP7 SSTORE DUP11 SWAP8 SWAP1 SWAP6 ADD SWAP5 SWAP4 DUP5 ADD SWAP4 ADD PUSH3 0x2EE JUMP JUMPDEST SWAP1 SWAP2 POP DUP7 DUP1 MSTORE DUP8 DUP8 KECCAK256 DUP5 DUP1 DUP6 ADD PUSH1 0x5 SHR DUP3 ADD SWAP3 DUP11 DUP7 LT PUSH3 0x389 JUMPI JUMPDEST SWAP2 DUP9 SWAP2 DUP7 SWAP6 SWAP5 SWAP4 ADD PUSH1 0x5 SHR ADD SWAP2 JUMPDEST DUP3 DUP2 LT PUSH3 0x37A JUMPI POP POP PUSH3 0xBA JUMP JUMPDEST DUP10 DUP2 SSTORE DUP6 SWAP5 POP DUP9 SWAP2 ADD PUSH3 0x36A JUMP JUMPDEST SWAP3 POP DUP2 SWAP3 PUSH3 0x35C JUMP JUMPDEST PUSH4 0x4E487B71 PUSH1 0xE0 SHL DUP7 MSTORE PUSH1 0x22 PUSH1 0x4 MSTORE PUSH1 0x24 DUP7 REVERT JUMPDEST SWAP3 PUSH1 0x7F AND SWAP3 PUSH3 0xA3 JUMP JUMPDEST PUSH4 0x4E487B71 PUSH1 0xE0 SHL PUSH1 0x0 MSTORE PUSH1 0x41 PUSH1 0x4 MSTORE PUSH1 0x24 PUSH1 0x0 REVERT JUMPDEST PUSH1 0x0 DUP1 REVERT JUMPDEST PUSH1 0x40 MLOAD SWAP2 SWAP1 PUSH1 0x1F ADD PUSH1 0x1F NOT AND DUP3 ADD PUSH1 0x1 PUSH1 0x1 PUSH1 0x40 SHL SUB DUP2 GT DUP4 DUP3 LT OR PUSH3 0x3B2 JUMPI PUSH1 0x40 MSTORE JUMP JUMPDEST SWAP2 SWAP1 DUP1 PUSH1 0x1F DUP5 ADD SLT ISZERO PUSH3 0x3C8 JUMPI DUP3 MLOAD PUSH1 0x1 PUSH1 0x1 PUSH1 0x40 SHL SUB DUP2 GT PUSH3 0x3B2 JUMPI PUSH1 0x20 SWAP1 PUSH3 0x429 PUSH1 0x1F DUP3 ADD PUSH1 0x1F NOT AND DUP4 ADD PUSH3 0x3CD JUMP JUMPDEST SWAP3 DUP2 DUP5 MSTORE DUP3 DUP3 DUP8 ADD ADD GT PUSH3 0x3C8 JUMPI PUSH1 0x0 JUMPDEST DUP2 DUP2 LT PUSH3 0x451 JUMPI POP DUP3 PUSH1 0x0 SWAP4 SWAP5 SWAP6 POP ADD ADD MSTORE SWAP1 JUMP JUMPDEST DUP6 DUP2 ADD DUP4 ADD MLOAD DUP5 DUP3 ADD DUP5 ADD MSTORE DUP3 ADD PUSH3 0x43B JUMP JUMPDEST SWAP1 PUSH12 0x33B2E3C9FD0803CE8000000 DUP3 ADD DUP1 SWAP3 GT PUSH3 0x47F JUMPI JUMP JUMPDEST PUSH4 0x4E487B71 PUSH1 0xE0 SHL PUSH1 0x0 MSTORE PUSH1 0x11 PUSH1 0x4 MSTORE PUSH1 0x24 PUSH1 0x0 REVERT INVALID PUSH1 0x80 PUSH1 0x40 DUP2 DUP2 MSTORE PUSH1 0x4 DUP1 CALLDATASIZE LT ISZERO PUSH2 0x15 JUMPI PUSH1 0x0 DUP1 REVERT JUMPDEST PUSH1 0x0 SWAP3 DUP4 CALLDATALOAD PUSH1 0xE0 SHR SWAP1 DUP2 PUSH4 0x6FDDE03 EQ PUSH2 0x5EF JUMPI POP DUP1 PUSH4 0x95EA7B3 EQ PUSH2 0x581 JUMPI DUP1 PUSH4 0x18160DDD EQ PUSH2 0x562 JUMPI DUP1 PUSH4 0x23B872DD EQ PUSH2 0x468 JUMPI DUP1 PUSH4 0x313CE567 EQ PUSH2 0x44C JUMPI DUP1 PUSH4 0x32CB6B0C EQ PUSH2 0x425 JUMPI DUP1 PUSH4 0x64A7102B EQ PUSH2 0x343 JUMPI DUP1 PUSH4 0x70A08231 EQ PUSH2 0x30B JUMPI DUP1 PUSH4 0x95D89B41 EQ PUSH2 0x1EA JUMPI DUP1 PUSH4 0xA9059CBB EQ PUSH2 0x13A JUMPI DUP1 PUSH4 0xC45A0155 EQ PUSH2 0xF2 JUMPI PUSH4 0xDD62ED3E EQ PUSH2 0xA7 JUMPI PUSH1 0x0 DUP1 REVERT JUMPDEST CALLVALUE PUSH2 0xEE JUMPI DUP2 PUSH1 0x3 NOT CALLDATASIZE ADD SLT PUSH2 0xEE JUMPI PUSH1 0x20 SWAP3 DUP3 SWAP2 PUSH2 0xC4 PUSH2 0x72B JUMP JUMPDEST PUSH2 0xCC PUSH2 0x746 JUMP JUMPDEST PUSH1 0x1 PUSH1 0x1 PUSH1 0xA0 SHL SUB SWAP2 DUP3 AND DUP5 MSTORE SWAP2 DUP7 MSTORE DUP4 DUP4 KECCAK256 SWAP2 AND DUP3 MSTORE DUP5 MSTORE KECCAK256 SLOAD SWAP1 MLOAD SWAP1 DUP2 MSTORE RETURN JUMPDEST DUP3 DUP1 REVERT JUMPDEST POP POP CALLVALUE PUSH2 0x136 JUMPI DUP2 PUSH1 0x3 NOT CALLDATASIZE ADD SLT PUSH2 0x136 JUMPI MLOAD PUSH32 0x0 PUSH1 0x1 PUSH1 0x1 PUSH1 0xA0 SHL SUB AND DUP2 MSTORE PUSH1 0x20 SWAP1 RETURN JUMPDEST POP DUP1 REVERT JUMPDEST POP SWAP2 CALLVALUE PUSH2 0x1E7 JUMPI DUP2 PUSH1 0x3 NOT CALLDATASIZE ADD SLT PUSH2 0x1E7 JUMPI PUSH2 0x154 PUSH2 0x72B JUMP JUMPDEST SWAP3 PUSH1 0x24 CALLDATALOAD SWAP1 CALLER DUP4 MSTORE PUSH1 0x3 PUSH1 0x20 MSTORE DUP2 DUP5 DUP5 KECCAK256 SLOAD LT PUSH2 0x1D9 JUMPI POP DUP3 PUSH1 0x20 SWAP5 CALLER DUP5 MSTORE PUSH1 0x3 DUP7 MSTORE DUP2 DUP5 KECCAK256 PUSH2 0x185 DUP5 DUP3 SLOAD PUSH2 0x77F JUMP JUMPDEST SWAP1 SSTORE PUSH1 0x1 PUSH1 0x1 PUSH1 0xA0 SHL SUB AND DUP1 DUP5 MSTORE PUSH1 0x3 DUP7 MSTORE SWAP3 KECCAK256 DUP1 SLOAD PUSH2 0x1A6 SWAP1 DUP4 SWAP1 PUSH2 0x75C JUMP JUMPDEST SWAP1 SSTORE DUP3 MLOAD SWAP1 DUP2 MSTORE PUSH32 0xDDF252AD1BE2C89B69C2B068FC378DAA952BA7F163C4A11628F55A4DF523B3EF DUP5 CALLER SWAP3 LOG3 MLOAD PUSH1 0x1 DUP2 MSTORE RETURN JUMPDEST DUP4 MLOAD PUSH4 0x1E9ACF17 PUSH1 0xE3 SHL DUP2 MSTORE REVERT JUMPDEST DUP1 REVERT JUMPDEST POP SWAP2 SWAP1 CALLVALUE PUSH2 0x136 JUMPI DUP2 PUSH1 0x3 NOT CALLDATASIZE ADD SLT PUSH2 0x136 JUMPI DUP1 MLOAD SWAP1 DUP3 PUSH1 0x1 DUP1 SLOAD SWAP1 DUP2 DUP2 SHR SWAP1 DUP1 DUP4 AND SWAP3 DUP4 ISZERO PUSH2 0x301 JUMPI JUMPDEST PUSH1 0x20 SWAP4 DUP5 DUP5 LT DUP2 EQ PUSH2 0x2EE JUMPI DUP4 DUP9 MSTORE SWAP1 DUP2 ISZERO PUSH2 0x2D2 JUMPI POP PUSH1 0x1 EQ PUSH2 0x27D JUMPI JUMPDEST POP POP POP DUP3 SWAP1 SUB PUSH1 0x1F ADD PUSH1 0x1F NOT AND DUP3 ADD SWAP3 PUSH8 0xFFFFFFFFFFFFFFFF DUP5 GT DUP4 DUP6 LT OR PUSH2 0x26A JUMPI POP DUP3 SWAP2 DUP3 PUSH2 0x266 SWAP3 MSTORE DUP3 PUSH2 0x6E2 JUMP JUMPDEST SUB SWAP1 RETURN JUMPDEST PUSH4 0x4E487B71 PUSH1 0xE0 SHL DUP2 MSTORE PUSH1 0x41 DUP6 MSTORE PUSH1 0x24 SWAP1 REVERT JUMPDEST DUP1 DUP8 MSTORE SWAP2 SWAP3 POP DUP6 SWAP2 DUP4 PUSH32 0xB10E2D527612073B26EECDFD717E6A320CF44B4AFAC2B0732D9FCBE2B7FA0CF6 JUMPDEST DUP4 DUP6 LT PUSH2 0x2BE JUMPI POP POP POP POP DUP4 ADD ADD CODESIZE DUP1 DUP1 PUSH2 0x234 JUMP JUMPDEST DUP1 SLOAD DUP9 DUP7 ADD DUP4 ADD MSTORE SWAP4 ADD SWAP3 DUP5 SWAP1 DUP3 ADD PUSH2 0x2A8 JUMP JUMPDEST PUSH1 0xFF NOT AND DUP8 DUP6 ADD MSTORE POP POP ISZERO ISZERO PUSH1 0x5 SHL DUP5 ADD ADD SWAP1 POP CODESIZE DUP1 DUP1 PUSH2 0x234 JUMP JUMPDEST PUSH4 0x4E487B71 PUSH1 0xE0 SHL DUP10 MSTORE PUSH1 0x22 DUP11 MSTORE PUSH1 0x24 DUP10 REVERT JUMPDEST SWAP2 PUSH1 0x7F AND SWAP2 PUSH2 0x215 JUMP JUMPDEST POP POP CALLVALUE PUSH2 0x136 JUMPI PUSH1 0x20 CALLDATASIZE PUSH1 0x3 NOT ADD SLT PUSH2 0x136 JUMPI PUSH1 0x20 SWAP2 DUP2 SWAP1 PUSH1 0x1 PUSH1 0x1 PUSH1 0xA0 SHL SUB PUSH2 0x333 PUSH2 0x72B JUMP JUMPDEST AND DUP2 MSTORE PUSH1 0x3 DUP5 MSTORE KECCAK256 SLOAD SWAP1 MLOAD SWAP1 DUP2 MSTORE RETURN JUMPDEST POP CALLVALUE PUSH2 0xEE JUMPI DUP2 PUSH1 0x3 NOT CALLDATASIZE ADD SLT PUSH2 0xEE JUMPI PUSH2 0x35C PUSH2 0x72B JUMP JUMPDEST PUSH1 0x24 CALLDATALOAD SWAP2 PUSH1 0x1 PUSH1 0x1 PUSH1 0xA0 SHL SUB SWAP2 SWAP1 PUSH32 0x0 DUP4 AND CALLER SUB PUSH2 0x417 JUMPI PUSH12 0x33B2E3C9FD0803CE8000000 PUSH2 0x3AC DUP6 PUSH1 0x2 SLOAD PUSH2 0x75C JUMP JUMPDEST GT PUSH2 0x409 JUMPI POP DUP5 SWAP3 PUSH32 0xDDF252AD1BE2C89B69C2B068FC378DAA952BA7F163C4A11628F55A4DF523B3EF SWAP3 PUSH1 0x20 SWAP3 AND SWAP5 DUP6 DUP6 MSTORE PUSH1 0x3 DUP4 MSTORE DUP1 DUP6 KECCAK256 PUSH2 0x3F0 DUP4 DUP3 SLOAD PUSH2 0x75C JUMP JUMPDEST SWAP1 SSTORE PUSH2 0x3FE DUP3 PUSH1 0x2 SLOAD PUSH2 0x75C JUMP JUMPDEST PUSH1 0x2 SSTORE MLOAD SWAP1 DUP2 MSTORE LOG3 DUP1 RETURN JUMPDEST DUP5 MLOAD PUSH4 0x8A164F63 PUSH1 0xE0 SHL DUP2 MSTORE REVERT JUMPDEST DUP5 MLOAD PUSH4 0x636A157 PUSH1 0xE1 SHL DUP2 MSTORE REVERT JUMPDEST POP POP CALLVALUE PUSH2 0x136 JUMPI DUP2 PUSH1 0x3 NOT CALLDATASIZE ADD SLT PUSH2 0x136 JUMPI PUSH1 0x20 SWAP1 MLOAD PUSH12 0x33B2E3C9FD0803CE8000000 DUP2 MSTORE RETURN JUMPDEST POP POP CALLVALUE PUSH2 0x136 JUMPI DUP2 PUSH1 0x3 NOT CALLDATASIZE ADD SLT PUSH2 0x136 JUMPI PUSH1 0x20 SWAP1 MLOAD PUSH1 0x12 DUP2 MSTORE RETURN JUMPDEST POP SWAP2 CALLVALUE PUSH2 0x1E7 JUMPI PUSH1 0x60 CALLDATASIZE PUSH1 0x3 NOT ADD SLT PUSH2 0x1E7 JUMPI PUSH2 0x483 PUSH2 0x72B JUMP JUMPDEST PUSH2 0x48B PUSH2 0x746 JUMP JUMPDEST SWAP1 PUSH1 0x44 CALLDATALOAD SWAP1 PUSH1 0x1 DUP1 PUSH1 0xA0 SHL SUB DUP1 SWAP2 AND SWAP3 DUP4 DUP6 MSTORE PUSH1 0x20 SWAP7 PUSH1 0x3 DUP9 MSTORE DUP4 DUP8 DUP8 KECCAK256 SLOAD LT PUSH2 0x554 JUMPI DUP5 DUP7 MSTORE DUP1 DUP9 MSTORE DUP7 DUP7 KECCAK256 CALLER DUP8 MSTORE DUP9 MSTORE DUP4 DUP8 DUP8 KECCAK256 SLOAD LT PUSH2 0x546 JUMPI DUP8 SWAP3 PUSH32 0xDDF252AD1BE2C89B69C2B068FC378DAA952BA7F163C4A11628F55A4DF523B3EF SWAP5 SWAP3 DUP9 SWAP3 DUP8 DUP10 MSTORE PUSH1 0x3 DUP7 MSTORE DUP4 DUP10 KECCAK256 PUSH2 0x503 DUP7 DUP3 SLOAD PUSH2 0x77F JUMP JUMPDEST SWAP1 SSTORE DUP8 DUP10 MSTORE DUP6 MSTORE DUP3 DUP9 KECCAK256 CALLER DUP10 MSTORE DUP6 MSTORE DUP3 DUP9 KECCAK256 PUSH2 0x520 DUP6 DUP3 SLOAD PUSH2 0x77F JUMP JUMPDEST SWAP1 SSTORE AND SWAP6 DUP7 DUP2 MSTORE PUSH1 0x3 DUP5 MSTORE KECCAK256 PUSH2 0x537 DUP3 DUP3 SLOAD PUSH2 0x75C JUMP JUMPDEST SWAP1 SSTORE DUP6 MLOAD SWAP1 DUP2 MSTORE LOG3 MLOAD PUSH1 0x1 DUP2 MSTORE RETURN JUMPDEST DUP7 MLOAD PUSH4 0x13BE252B PUSH1 0xE0 SHL DUP2 MSTORE REVERT JUMPDEST DUP7 MLOAD PUSH4 0x1E9ACF17 PUSH1 0xE3 SHL DUP2 MSTORE REVERT JUMPDEST POP POP CALLVALUE PUSH2 0x136 JUMPI DUP2 PUSH1 0x3 NOT CALLDATASIZE ADD SLT PUSH2 0x136 JUMPI PUSH1 0x20 SWAP1 PUSH1 0x2 SLOAD SWAP1 MLOAD SWAP1 DUP2 MSTORE RETURN JUMPDEST POP CALLVALUE PUSH2 0xEE JUMPI DUP2 PUSH1 0x3 NOT CALLDATASIZE ADD SLT PUSH2 0xEE JUMPI PUSH1 0x20 SWAP3 PUSH2 0x59D PUSH2 0x72B JUMP JUMPDEST SWAP2 DUP4 PUSH1 0x24 CALLDATALOAD SWAP3 DUP4 SWAP3 CALLER DUP3 MSTORE DUP8 MSTORE DUP2 DUP2 KECCAK256 SWAP5 PUSH1 0x1 DUP1 PUSH1 0xA0 SHL SUB AND SWAP5 DUP6 DUP3 MSTORE DUP8 MSTORE KECCAK256 SSTORE DUP3 MLOAD SWAP1 DUP2 MSTORE PUSH32 0x8C5BE1E5EBEC7D5BD14F71427D1E84F3DD0314C0F7B2291E5B200AC8C7C3B925 DUP5 CALLER SWAP3 LOG3 MLOAD PUSH1 0x1 DUP2 MSTORE RETURN JUMPDEST DUP5 SWAP2 POP DUP4 CALLVALUE PUSH2 0xEE JUMPI DUP3 PUSH1 0x3 NOT CALLDATASIZE ADD SLT PUSH2 0xEE JUMPI DUP3 DUP4 SLOAD PUSH1 0x1 DUP2 DUP2 SHR SWAP1 DUP1 DUP4 AND SWAP3 DUP4 ISZERO PUSH2 0x6D8 JUMPI JUMPDEST PUSH1 0x20 SWAP4 DUP5 DUP5 LT DUP2 EQ PUSH2 0x2EE JUMPI DUP4 DUP9 MSTORE SWAP1 DUP2 ISZERO PUSH2 0x6BC JUMPI POP PUSH1 0x1 EQ PUSH2 0x667 JUMPI POP POP POP DUP3 SWAP1 SUB PUSH1 0x1F ADD PUSH1 0x1F NOT AND DUP3 ADD SWAP3 PUSH8 0xFFFFFFFFFFFFFFFF DUP5 GT DUP4 DUP6 LT OR PUSH2 0x26A JUMPI POP DUP3 SWAP2 DUP3 PUSH2 0x266 SWAP3 MSTORE DUP3 PUSH2 0x6E2 JUMP JUMPDEST DUP7 DUP1 MSTORE SWAP2 SWAP3 POP DUP6 SWAP2 DUP4 PUSH32 0x290DECD9548B62A8D60345A988386FC84BA6BC95484008F6362F93160EF3E563 JUMPDEST DUP4 DUP6 LT PUSH2 0x6A8 JUMPI POP POP POP POP DUP4 ADD ADD DUP6 DUP1 DUP1 PUSH2 0x234 JUMP JUMPDEST DUP1 SLOAD DUP9 DUP7 ADD DUP4 ADD MSTORE SWAP4 ADD SWAP3 DUP5 SWAP1 DUP3 ADD PUSH2 0x692 JUMP JUMPDEST PUSH1 0xFF NOT AND DUP8 DUP6 ADD MSTORE POP POP ISZERO ISZERO PUSH1 0x5 SHL DUP5 ADD ADD SWAP1 POP DUP6 DUP1 DUP1 PUSH2 0x234 JUMP JUMPDEST SWAP2 PUSH1 0x7F AND SWAP2 PUSH2 0x617 JUMP JUMPDEST PUSH1 0x20 DUP1 DUP3 MSTORE DUP3 MLOAD DUP2 DUP4 ADD DUP2 SWAP1 MSTORE SWAP1 SWAP4 SWAP3 PUSH1 0x0 JUMPDEST DUP3 DUP2 LT PUSH2 0x717 JUMPI POP POP PUSH1 0x40 SWAP3 SWAP4 POP PUSH1 0x0 DUP4 DUP3 DUP5 ADD ADD MSTORE PUSH1 0x1F DUP1 NOT SWAP2 ADD AND ADD ADD SWAP1 JUMP JUMPDEST DUP2 DUP2 ADD DUP7 ADD MLOAD DUP5 DUP3 ADD PUSH1 0x40 ADD MSTORE DUP6 ADD PUSH2 0x6F5 JUMP JUMPDEST PUSH1 0x4 CALLDATALOAD SWAP1 PUSH1 0x1 PUSH1 0x1 PUSH1 0xA0 SHL SUB DUP3 AND DUP3 SUB PUSH2 0x741 JUMPI JUMP JUMPDEST PUSH1 0x0 DUP1 REVERT JUMPDEST PUSH1 0x24 CALLDATALOAD SWAP1 PUSH1 0x1 PUSH1 0x1 PUSH1 0xA0 SHL SUB DUP3 AND DUP3 SUB PUSH2 0x741 JUMPI JUMP JUMPDEST SWAP2 SWAP1 DUP3 ADD DUP1 SWAP3 GT PUSH2 0x769 JUMPI JUMP JUMPDEST PUSH4 0x4E487B71 PUSH1 0xE0 SHL PUSH1 0x0 MSTORE PUSH1 0x11 PUSH1 0x4 MSTORE PUSH1 0x24 PUSH1 0x0 REVERT JUMPDEST SWAP2 SWAP1 DUP3 SUB SWAP2 DUP3 GT PUSH2 0x769 JUMPI JUMP INVALID LOG2 PUSH5 0x6970667358 0x22 SLT KECCAK256 0xB4 0xA7 0xA8 SGT MOD MSTORE8 SHL SWAP9 0xD4 0xAB SWAP1 CODESIZE CREATE PUSH9 0x809C2EC4C02F5BCA34 BYTE PUSH23 0x4B2FB59A3B63E864736F6C634300081400330000000000 "},"methodIdentifiers":{"MAX_SUPPLY()":"32cb6b0c","allowance(address,address)":"dd62ed3e","approve(address,uint256)":"095ea7b3","balanceOf(address)":"70a08231","decimals()":"313ce567","factory()":"c45a0155","mintFromFactory(address,uint256)":"64a7102b","name()":"06fdde03","symbol()":"95d89b41","totalSupply()":"18160ddd","transfer(address,uint256)":"a9059cbb","transferFrom(address,address,uint256)":"23b872dd"}}}}}