{"contracts/fairlaunch/Fairlaunch.sol":{"Fairlaunch":{"abi":[{"inputs":[{"internalType":"address","name":"_projectToken","type":"address"},{"internalType":"address","name":"_paymentToken","type":"address"},{"internalType":"uint256","name":"_softcap","type":"uint256"},{"internalType":"uint256","name":"_tokensForSale","type":"uint256"},{"internalType":"uint256","name":"_minContribution","type":"uint256"},{"internalType":"uint256","name":"_maxContribution","type":"uint256"},{"internalType":"uint256","name":"_startTime","type":"uint256"},{"internalType":"uint256","name":"_endTime","type":"uint256"},{"internalType":"uint16","name":"_listingPremiumBps","type":"uint16"},{"internalType":"address","name":"_feeSplitter","type":"address"},{"internalType":"address","name":"_teamVesting","type":"address"},{"internalType":"address","name":"_projectOwner","type":"address"},{"internalType":"address","name":"_adminExecutor","type":"address"},{"internalType":"uint256","name":"_liquidityPercent","type":"uint256"},{"internalType":"uint256","name":"_lpLockMonths","type":"uint256"},{"internalType":"bytes32","name":"_dexId","type":"bytes32"}],"stateMutability":"nonpayable","type":"constructor"},{"inputs":[],"name":"AccessControlBadConfirmation","type":"error"},{"inputs":[{"internalType":"address","name":"account","type":"address"},{"internalType":"bytes32","name":"neededRole","type":"bytes32"}],"name":"AccessControlUnauthorizedAccount","type":"error"},{"inputs":[],"name":"AlreadyClaimed","type":"error"},{"inputs":[],"name":"ContractPaused","type":"error"},{"inputs":[],"name":"ContributionTooHigh","type":"error"},{"inputs":[],"name":"ContributionTooLow","type":"error"},{"inputs":[],"name":"InvalidStatus","type":"error"},{"inputs":[],"name":"NoContribution","type":"error"},{"inputs":[],"name":"NotAuthorized","type":"error"},{"inputs":[],"name":"NothingToRefund","type":"error"},{"inputs":[],"name":"ReentrancyGuardReentrantCall","type":"error"},{"inputs":[{"internalType":"address","name":"token","type":"address"}],"name":"SafeERC20FailedOperation","type":"error"},{"inputs":[],"name":"SoftcapNotMet","type":"error"},{"inputs":[],"name":"TransferFailed","type":"error"},{"anonymous":false,"inputs":[],"name":"Cancelled","type":"event"},{"anonymous":false,"inputs":[{"indexed":true,"internalType":"address","name":"user","type":"address"},{"indexed":false,"internalType":"uint256","name":"amount","type":"uint256"},{"indexed":false,"internalType":"uint256","name":"totalRaised","type":"uint256"}],"name":"Contributed","type":"event"},{"anonymous":false,"inputs":[],"name":"FinalizedFail","type":"event"},{"anonymous":false,"inputs":[{"indexed":false,"internalType":"uint256","name":"finalPrice","type":"uint256"},{"indexed":false,"internalType":"uint256","name":"totalRaised","type":"uint256"},{"indexed":false,"internalType":"address","name":"lpToken","type":"address"},{"indexed":false,"internalType":"uint256","name":"lpAmount","type":"uint256"}],"name":"FinalizedSuccess","type":"event"},{"anonymous":false,"inputs":[{"indexed":true,"internalType":"address","name":"lpToken","type":"address"},{"indexed":false,"internalType":"uint256","name":"lpAmount","type":"uint256"},{"indexed":false,"internalType":"uint256","name":"unlockTime","type":"uint256"}],"name":"LiquidityAdded","type":"event"},{"anonymous":false,"inputs":[],"name":"Paused","type":"event"},{"anonymous":false,"inputs":[{"indexed":true,"internalType":"address","name":"user","type":"address"},{"indexed":false,"internalType":"uint256","name":"amount","type":"uint256"}],"name":"Refunded","type":"event"},{"anonymous":false,"inputs":[{"indexed":true,"internalType":"bytes32","name":"role","type":"bytes32"},{"indexed":true,"internalType":"bytes32","name":"previousAdminRole","type":"bytes32"},{"indexed":true,"internalType":"bytes32","name":"newAdminRole","type":"bytes32"}],"name":"RoleAdminChanged","type":"event"},{"anonymous":false,"inputs":[{"indexed":true,"internalType":"bytes32","name":"role","type":"bytes32"},{"indexed":true,"internalType":"address","name":"account","type":"address"},{"indexed":true,"internalType":"address","name":"sender","type":"address"}],"name":"RoleGranted","type":"event"},{"anonymous":false,"inputs":[{"indexed":true,"internalType":"bytes32","name":"role","type":"bytes32"},{"indexed":true,"internalType":"address","name":"account","type":"address"},{"indexed":true,"internalType":"address","name":"sender","type":"address"}],"name":"RoleRevoked","type":"event"},{"anonymous":false,"inputs":[{"indexed":true,"internalType":"address","name":"user","type":"address"},{"indexed":false,"internalType":"uint256","name":"amount","type":"uint256"}],"name":"TokensClaimed","type":"event"},{"anonymous":false,"inputs":[],"name":"Unpaused","type":"event"},{"inputs":[],"name":"ADMIN_ROLE","outputs":[{"internalType":"bytes32","name":"","type":"bytes32"}],"stateMutability":"view","type":"function"},{"inputs":[],"name":"DEFAULT_ADMIN_ROLE","outputs":[{"internalType":"bytes32","name":"","type":"bytes32"}],"stateMutability":"view","type":"function"},{"inputs":[],"name":"cancel","outputs":[],"stateMutability":"nonpayable","type":"function"},{"inputs":[],"name":"claimTokens","outputs":[],"stateMutability":"nonpayable","type":"function"},{"inputs":[],"name":"contribute","outputs":[],"stateMutability":"payable","type":"function"},{"inputs":[{"internalType":"uint256","name":"amount","type":"uint256"}],"name":"contributeERC20","outputs":[],"stateMutability":"nonpayable","type":"function"},{"inputs":[{"internalType":"address","name":"","type":"address"}],"name":"contributions","outputs":[{"internalType":"uint256","name":"","type":"uint256"}],"stateMutability":"view","type":"function"},{"inputs":[],"name":"dexId","outputs":[{"internalType":"bytes32","name":"","type":"bytes32"}],"stateMutability":"view","type":"function"},{"inputs":[],"name":"dexRouter","outputs":[{"internalType":"contract IUniswapV2Router02","name":"","type":"address"}],"stateMutability":"view","type":"function"},{"inputs":[],"name":"endTime","outputs":[{"internalType":"uint256","name":"","type":"uint256"}],"stateMutability":"view","type":"function"},{"inputs":[],"name":"feeSplitter","outputs":[{"internalType":"address","name":"","type":"address"}],"stateMutability":"view","type":"function"},{"inputs":[],"name":"finalTokenPrice","outputs":[{"internalType":"uint256","name":"","type":"uint256"}],"stateMutability":"view","type":"function"},{"inputs":[],"name":"finalize","outputs":[],"stateMutability":"nonpayable","type":"function"},{"inputs":[],"name":"getFinalPrice","outputs":[{"internalType":"uint256","name":"","type":"uint256"}],"stateMutability":"view","type":"function"},{"inputs":[{"internalType":"bytes32","name":"role","type":"bytes32"}],"name":"getRoleAdmin","outputs":[{"internalType":"bytes32","name":"","type":"bytes32"}],"stateMutability":"view","type":"function"},{"inputs":[],"name":"getStatus","outputs":[{"internalType":"enum Fairlaunch.Status","name":"","type":"uint8"}],"stateMutability":"view","type":"function"},{"inputs":[{"internalType":"address","name":"user","type":"address"}],"name":"getUserAllocation","outputs":[{"internalType":"uint256","name":"","type":"uint256"}],"stateMutability":"view","type":"function"},{"inputs":[{"internalType":"address","name":"user","type":"address"}],"name":"getUserContribution","outputs":[{"internalType":"uint256","name":"","type":"uint256"}],"stateMutability":"view","type":"function"},{"inputs":[{"internalType":"bytes32","name":"role","type":"bytes32"},{"internalType":"address","name":"account","type":"address"}],"name":"grantRole","outputs":[],"stateMutability":"nonpayable","type":"function"},{"inputs":[{"internalType":"address","name":"","type":"address"}],"name":"hasClaimed","outputs":[{"internalType":"bool","name":"","type":"bool"}],"stateMutability":"view","type":"function"},{"inputs":[{"internalType":"bytes32","name":"role","type":"bytes32"},{"internalType":"address","name":"account","type":"address"}],"name":"hasRole","outputs":[{"internalType":"bool","name":"","type":"bool"}],"stateMutability":"view","type":"function"},{"inputs":[],"name":"isFinalized","outputs":[{"internalType":"bool","name":"","type":"bool"}],"stateMutability":"view","type":"function"},{"inputs":[],"name":"isPaused","outputs":[{"internalType":"bool","name":"","type":"bool"}],"stateMutability":"view","type":"function"},{"inputs":[],"name":"liquidityPercent","outputs":[{"internalType":"uint256","name":"","type":"uint256"}],"stateMutability":"view","type":"function"},{"inputs":[],"name":"listingPremiumBps","outputs":[{"internalType":"uint16","name":"","type":"uint16"}],"stateMutability":"view","type":"function"},{"inputs":[],"name":"lpLockMonths","outputs":[{"internalType":"uint256","name":"","type":"uint256"}],"stateMutability":"view","type":"function"},{"inputs":[],"name":"lpLocker","outputs":[{"internalType":"contract ILPLocker","name":"","type":"address"}],"stateMutability":"view","type":"function"},{"inputs":[],"name":"maxContribution","outputs":[{"internalType":"uint256","name":"","type":"uint256"}],"stateMutability":"view","type":"function"},{"inputs":[],"name":"minContribution","outputs":[{"internalType":"uint256","name":"","type":"uint256"}],"stateMutability":"view","type":"function"},{"inputs":[],"name":"participantCount","outputs":[{"internalType":"uint256","name":"","type":"uint256"}],"stateMutability":"view","type":"function"},{"inputs":[],"name":"pause","outputs":[],"stateMutability":"nonpayable","type":"function"},{"inputs":[],"name":"paymentToken","outputs":[{"internalType":"address","name":"","type":"address"}],"stateMutability":"view","type":"function"},{"inputs":[],"name":"projectOwner","outputs":[{"internalType":"address","name":"","type":"address"}],"stateMutability":"view","type":"function"},{"inputs":[],"name":"projectToken","outputs":[{"internalType":"address","name":"","type":"address"}],"stateMutability":"view","type":"function"},{"inputs":[],"name":"refund","outputs":[],"stateMutability":"nonpayable","type":"function"},{"inputs":[{"internalType":"bytes32","name":"role","type":"bytes32"},{"internalType":"address","name":"callerConfirmation","type":"address"}],"name":"renounceRole","outputs":[],"stateMutability":"nonpayable","type":"function"},{"inputs":[{"internalType":"bytes32","name":"role","type":"bytes32"},{"internalType":"address","name":"account","type":"address"}],"name":"revokeRole","outputs":[],"stateMutability":"nonpayable","type":"function"},{"inputs":[{"internalType":"address","name":"_lpLocker","type":"address"}],"name":"setLPLocker","outputs":[],"stateMutability":"nonpayable","type":"function"},{"inputs":[],"name":"softcap","outputs":[{"internalType":"uint256","name":"","type":"uint256"}],"stateMutability":"view","type":"function"},{"inputs":[],"name":"startTime","outputs":[{"internalType":"uint256","name":"","type":"uint256"}],"stateMutability":"view","type":"function"},{"inputs":[],"name":"status","outputs":[{"internalType":"enum Fairlaunch.Status","name":"","type":"uint8"}],"stateMutability":"view","type":"function"},{"inputs":[{"internalType":"bytes4","name":"interfaceId","type":"bytes4"}],"name":"supportsInterface","outputs":[{"internalType":"bool","name":"","type":"bool"}],"stateMutability":"view","type":"function"},{"inputs":[],"name":"teamVesting","outputs":[{"internalType":"address","name":"","type":"address"}],"stateMutability":"view","type":"function"},{"inputs":[],"name":"tokensForSale","outputs":[{"internalType":"uint256","name":"","type":"uint256"}],"stateMutability":"view","type":"function"},{"inputs":[],"name":"totalRaised","outputs":[{"internalType":"uint256","name":"","type":"uint256"}],"stateMutability":"view","type":"function"},{"inputs":[],"name":"unpause","outputs":[],"stateMutability":"nonpayable","type":"function"}],"evm":{"bytecode":{"linkReferences":{},"object":"3462000402576200293538819003610280601f8201601f19168101906001600160401b038211908210176200040757610200928291604052610280391262000402576200004e6102806200041d565b6200005b6102a06200041d565b6102c0516102e051610300516103205161034051610360516103805195979590949392919061ffff81168103620004025762000175956200009e6103a06200041d565b92620000ac6103c06200041d565b94620000ba6103e06200041d565b96620000c86104006200041d565b986101a061028001519d6101c061028001519d6101e061028001519d6001805560805260a05260c05260e05261010052610120526101405261016052610180526101a0526101c0526101e05261022094855261024093845261026092835260ff60a01b1960025416600255603846148015620003f7575b600090156200036357507310ed43c718714eb63d5aa57b78b54704e256024e5b610200526200016e8162000432565b50620004b2565b50604051916123c09384620005558539608051848181610a2101528181610b0c015281816115d60152818161165d0152818161179801528181611b0b01528181611ba701528181611e350152611f4e015260a051848181610306015281816106b9015281816108fc01528181610ca6015281816114790152818161160e0152818161199a01528181611abd01528181611ddd01528181611e6301528181611f7601526120b0015260c05184818161023501526113e4015260e051848181610abc01528181610da60152818161142c01528181611b4d01526123500152610100518481816104c901526111ce0152610120518481816105ec01526112180152610140518481816107750152818161225801526122e8015261016051848181610c6e0152818161222e01526122be015261018051848181610de4015261153601526101a05184818161086a015281816114a7015261208f01526101c051848181610826015281816119620152611b8601526101e051848181610501015281816118e3015281816119cc0152611a9c015261020051848181610e1d01528181611595015281816116ae015281816116f10152818161174001528181611d9c01528181611ebb0152611efe01525183818161048e0152611507015251828181610627015261182b01525181610d410152f35b600146148015620003ea575b15620003915750737a250d5630b4cf539739df2c5dacb4c659f2488d6200015f565b6121054614908115620003dc575b5015620003c157734752ba5dbc23f44d87826276bf6fd6b1c372ad246200015f565b737a250d5630b4cf539739df2c5dacb4c659f2488d6200015f565b4662014a341491506200039f565b5062aa36a746146200036f565b50606146146200013f565b600080fd5b634e487b7160e01b600052604160045260246000fd5b51906001600160a01b03821682036200040257565b6001600160a01b031660008181527fad3228b676f7d3cd4284a5443f17f1962b36e491b30a40b2405849e597ba5fb5602052604081205490919060ff16620004ae57818052816020526040822081835260205260408220600160ff198254161790553391600080516020620029158339815191528180a4600190565b5090565b6001600160a01b031660008181527f7d7ffb7a348e1c6a02869081a26547b49160dd3df72d1d75a570eb9b698292ec60205260408120549091907fa49807205ce4d355092ef5a8a18f56e8913cf4a201fbe287825b095693c217759060ff166200054f57808352826020526040832082845260205260408320600160ff1982541617905560008051602062002915833981519152339380a4600190565b50509056fe608060408181526004918236101561001657600080fd5b600092833560e01c91826301ffc9a714610e755750816303fc201314610e4c5781630758d92414610e085781630b7c1ae114610dc957816312aef8c314610d8e5781631cc645441461054b578163200d2ed214610d64578163220c095614610d29578163248a9ca314610cff5781632f2ff15d14610cd55781633013ce2914610c915781633197cbb614610c56578163362f04c014610c3857816336568abe14610bf25781633f4ba83a14610ba757816342e94c90146103a257816348c54b9d14610a505781634b60ce7714610a0c5781634bb278f3146109eb5781634e69d560146109be578163590e1ae3146108995781636052970c14610855578163619f3d6c1461081157816373b2e80e146107d357816375b238fc1461079857816378e979251461075d5781638160059a146106995781638456cb591461064a5781638bcd85151461060f5781638d3d6576146105d45781638d4e4083146105b057816391d148541461056a5781639ce05df71461054b578163a217fddf14610530578163a4475ce4146104ec578163aaffadf3146104b1578163b068375514610476578163b187bd261461044f578163b524f87b14610407578163b920ade2146103da578163bb8b2b47146103a2578163c5c4744c14610383578163d547741f14610344578163d7bb99ba146102ee578163ea8a1af01461025c575063f89be5931461021f57600080fd5b34610258578160031936011261025857602090517f00000000000000000000000000000000000000000000000000000000000000008152f35b5080fd5b9050346102ea57826003193601126102ea57610276610f22565b6002549160ff8360a01c1660068110156102d7576003146102ca57505060ff60a01b1916600560a01b176002557f63b958841f79ab97cb5456da181454b9932c0e15a3b17f1cbd27e2a8bc6104378180a180f35b516307a92f1960e51b8152fd5b634e487b7160e01b855260218352602485fd5b8280fd5b919050826003193601126102ea576103046110b5565b7f00000000000000000000000000000000000000000000000000000000000000006001600160a01b03166102ca578261033d343361119b565b6001805580f35b919050346102ea57806003193601126102ea5761037f913561037a6001610369610ef1565b938387528660205286200154610f9c565b611040565b5080f35b5050346102585781600319360112610258576020906003549051908152f35b5050346102585760203660031901126102585760209181906001600160a01b036103ca610f0c565b1681526007845220549051908152f35b505034610258576020366003190112610258576020906104006103fb610f0c565b61230f565b9051908152f35b833461044c57602036600319011261044c57610421610f0c565b610429610f22565b60018060a01b03166bffffffffffffffffffffffff60a01b600254161760025580f35b80fd5b50503461025857816003193601126102585760209060ff60065460081c1690519015158152f35b505034610258578160031936011261025857602090517f00000000000000000000000000000000000000000000000000000000000000008152f35b505034610258578160031936011261025857602090517f00000000000000000000000000000000000000000000000000000000000000008152f35b505034610258578160031936011261025857517f00000000000000000000000000000000000000000000000000000000000000006001600160a01b03168152602090f35b50503461025857816003193601126102585751908152602090f35b5050346102585781600319360112610258576020906005549051908152f35b9050346102ea57816003193601126102ea578160209360ff9261058b610ef1565b903582528186528282206001600160a01b039091168252855220549151911615158152f35b50503461025857816003193601126102585760209060ff6006541690519015158152f35b505034610258578160031936011261025857602090517f00000000000000000000000000000000000000000000000000000000000000008152f35b505034610258578160031936011261025857602090517f00000000000000000000000000000000000000000000000000000000000000008152f35b833461044c578060031936011261044c57610663610f22565b61010061ff001960065416176006557f9e87fac88ff661f02d44f95383c817fece4bce600a3dab7a54406878b965e7528180a180f35b838334610258576020366003190112610258578235906106b76110b5565b7f00000000000000000000000000000000000000000000000000000000000000006001600160a01b0316801561074d5781516323b872dd60e01b6020820152336024820152306044820152606480820185905281529160a083019067ffffffffffffffff82118483101761073a575261033d929161073491611110565b3361119b565b634e487b7160e01b865260418752602486fd5b81516307a92f1960e51b81528590fd5b505034610258578160031936011261025857602090517f00000000000000000000000000000000000000000000000000000000000000008152f35b505034610258578160031936011261025857602090517fa49807205ce4d355092ef5a8a18f56e8913cf4a201fbe287825b095693c217758152f35b5050346102585760203660031901126102585760209160ff9082906001600160a01b036107fe610f0c565b1681526008855220541690519015158152f35b505034610258578160031936011261025857517f00000000000000000000000000000000000000000000000000000000000000006001600160a01b03168152602090f35b505034610258578160031936011261025857517f00000000000000000000000000000000000000000000000000000000000000006001600160a01b03168152602090f35b919050346102ea57826003193601126102ea576108b46110b5565b60ff60025460a01c1660068110156109ab5782811415908161099f575b506102ca573383526007602052808320541561099257338352600760205280832080549084905591827f00000000000000000000000000000000000000000000000000000000000000006001600160a01b03168061098157508480808093335af161093a611365565b501561097357505b519081527fd7dee2702d63ad89917b6a4da9981c90c4d24f8c2bdfd64c604ecae57d8d065160203392a26001805580f35b90516312171d8360e31b8152fd5b61098d92503390612155565b610942565b5163f76aef6560e01b8152fd5b600591501415386108d1565b634e487b7160e01b845260218352602484fd5b5050346102585781600319360112610258576109e7906109dc61227f565b905191829182610ec8565b0390f35b833461044c578060031936011261044c57610a046110b5565b61033d6113a5565b505034610258578160031936011261025857517f00000000000000000000000000000000000000000000000000000000000000006001600160a01b03168152602090f35b9050346102ea57826003193601126102ea57610a6a6110b5565b60ff60025460a01c166006811015610b9457600303610b865733835260076020528183205415610b7857338352600860205260ff8284205416610b6a57503382526007602052610aea610ae1828420547f00000000000000000000000000000000000000000000000000000000000000009061130d565b60035490611320565b338084526008602052828420805460ff19166001179055909190610b399083907f00000000000000000000000000000000000000000000000000000000000000006001600160a01b0316612155565b519081527f896e034966eaaf1adc54acc0f257056febbd300c9e47182cf761982cf1f5e43060203392a26001805580f35b9051630c8d9eab60e31b8152fd5b9051631971fbf360e21b8152fd5b90516307a92f1960e51b8152fd5b634e487b7160e01b845260218252602484fd5b833461044c578060031936011261044c57610bc0610f22565b61ff0019600654166006557fa45f47fdea8a1efdd9029a5691c7f759c32b7c698632b563573e155625d169338180a180f35b838334610258578060031936011261025857610c0c610ef1565b90336001600160a01b03831603610c29575061037f919235611040565b5163334bd91960e11b81528390fd5b9050346102ea57826003193601126102ea5760209250549051908152f35b505034610258578160031936011261025857602090517f00000000000000000000000000000000000000000000000000000000000000008152f35b505034610258578160031936011261025857517f00000000000000000000000000000000000000000000000000000000000000006001600160a01b03168152602090f35b919050346102ea57806003193601126102ea5761037f9135610cfa6001610369610ef1565b610fc2565b9050346102ea5760203660031901126102ea57816020936001923581528085522001549051908152f35b505034610258578160031936011261025857602090517f00000000000000000000000000000000000000000000000000000000000000008152f35b5050346102585781600319360112610258576109e79060ff60025460a01c16905191829182610ec8565b505034610258578160031936011261025857602090517f00000000000000000000000000000000000000000000000000000000000000008152f35b5050346102585781600319360112610258576020905161ffff7f0000000000000000000000000000000000000000000000000000000000000000168152f35b505034610258578160031936011261025857517f00000000000000000000000000000000000000000000000000000000000000006001600160a01b03168152602090f35b50503461025857816003193601126102585760025490516001600160a01b039091168152602090f35b8491346102ea5760203660031901126102ea573563ffffffff60e01b81168091036102ea5760209250637965db0b60e01b8114908115610eb7575b5015158152f35b6301ffc9a760e01b14905083610eb0565b919060208301926006821015610edb5752565b634e487b7160e01b600052602160045260246000fd5b602435906001600160a01b0382168203610f0757565b600080fd5b600435906001600160a01b0382168203610f0757565b3360009081527f7d7ffb7a348e1c6a02869081a26547b49160dd3df72d1d75a570eb9b698292ec60205260409020547fa49807205ce4d355092ef5a8a18f56e8913cf4a201fbe287825b095693c217759060ff1615610f7e5750565b6044906040519063e2517d3f60e01b82523360048301526024820152fd5b80600052600060205260406000203360005260205260ff6040600020541615610f7e5750565b9060009180835282602052604083209160018060a01b03169182845260205260ff6040842054161560001461103b57808352826020526040832082845260205260408320600160ff198254161790557f2f8788117e7eff1d82e926ec794901d17c78024a50270940304540a733656f0d339380a4600190565b505090565b9060009180835282602052604083209160018060a01b03169182845260205260ff60408420541660001461103b5780835282602052604083208284526020526040832060ff1981541690557ff6391f5c32d9c69d2a47ea670b442974b53935d1edc7fd64eb21e047a839171b339380a4600190565b6002600154146110c6576002600155565b604051633ee5aeb560e01b8152600490fd5b90601f8019910116810190811067ffffffffffffffff8211176110fa57604052565b634e487b7160e01b600052604160045260246000fd5b906000602091828151910182855af11561116c576000513d61116357506001600160a01b0381163b155b6111415750565b604051635274afe760e01b81526001600160a01b039091166004820152602490fd5b6001141561113a565b6040513d6000823e3d90fd5b9190820180921161118557565b634e487b7160e01b600052601160045260246000fd5b9190916111a66121d2565b60ff60025460a01c166006811015610edb576001036112fb5760ff60065460081c166112e9577f000000000000000000000000000000000000000000000000000000000000000083106112d75760018060a01b031660009281845260076020526040906112168183872054611178565b7f000000000000000000000000000000000000000000000000000000000000000081116112c6578386526007602052828620541561129b575b8286857ffa35a310d7113dddce1c275da946348e9aaebf9050b00b372033c4d84b0bd6eb969798526007602052205561128a81600354611178565b8060035582519182526020820152a2565b60045460001981146112b25760010160045561124f565b634e487b7160e01b87526011600452602487fd5b8251635e508cd360e11b8152600490fd5b604051636c7591b560e11b8152600490fd5b60405163ab35696f60e01b8152600490fd5b6040516307a92f1960e51b8152600490fd5b8181029291811591840414171561118557565b811561132a570490565b634e487b7160e01b600052601260045260246000fd5b9190820391821161118557565b90816020910312610f0757518015158103610f075790565b3d156113a0573d9067ffffffffffffffff82116110fa5760405191611394601f8201601f1916602001846110d8565b82523d6000602084013e565b606090565b6113ad6121d2565b600254600060ff8260a01c166006811015612141576002036112fb5760065460ff81166112fb5760ff1916600117600655600354917f0000000000000000000000000000000000000000000000000000000000000000831061210a5750670de0b6b3a76400008083029183159284810483148417156120f657611451907f000000000000000000000000000000000000000000000000000000000000000090611320565b6005556101f492838502938585041417156120e2576114766127108094048095611340565b937f00000000000000000000000000000000000000000000000000000000000000006001600160a01b0316612086577f00000000000000000000000000000000000000000000000000000000000000006001600160a01b0316803b156102ea5782906024604051809481936339650d1f60e01b83523060048401525af18015611d025761205a575b50905b8261152c7f00000000000000000000000000000000000000000000000000000000000000008661130d565b049260055461ffff7f000000000000000000000000000000000000000000000000000000000000000016820190818311611c80579061156a9161130d565b0490808402908482041484151715611d79579061158691611320565b60405163095ea7b360e01b81527f00000000000000000000000000000000000000000000000000000000000000006001600160a01b031660048201526024810182905260208180604481010381867f00000000000000000000000000000000000000000000000000000000000000006001600160a01b03165af18015611cc85761203b575b507f00000000000000000000000000000000000000000000000000000000000000006001600160a01b0316611d8d5761012c4201804211611d79576040519163f305d71960e01b835260018060a01b037f0000000000000000000000000000000000000000000000000000000000000000166004840152602483015282604483015282606483015230608483015260a482015260608160c4818660018060a01b037f0000000000000000000000000000000000000000000000000000000000000000165af18015611d0257611d4b575b5060405163c45a015560e01b81526020816004817f00000000000000000000000000000000000000000000000000000000000000006001600160a01b03165afa908115611d02578291611d2c575b506040516315ab88c960e31b8152906020826004817f00000000000000000000000000000000000000000000000000000000000000006001600160a01b03165afa918215611cc857916020916117d6938592611d0d575b5060405163e6a4390560e01b81526001600160a01b037f00000000000000000000000000000000000000000000000000000000000000008116600483015290921660248301529092839190829081906044820190565b03916001600160a01b03165afa908115611d02578291611cd3575b50925b6040516370a0823160e01b8152306004820152926020846024816001600160a01b0389165afa938415611cc8578394611c94575b507f000000000000000000000000000000000000000000000000000000000000000062278d00908082810204821481151715611c8057611869910242611178565b60025460405163095ea7b360e01b81526001600160a01b0390911660048201526024810186905260208180604481010381886001600160a01b038c165af18015611c4657611c51575b50600254604051630aa393f360e01b81526001600160a01b03888116600483015260248201889052604482018490527f0000000000000000000000000000000000000000000000000000000000000000811660648301529091602091839160849183918a91165af18015611c4657611c1b575b506040519085825260208201527fac1d76749e5447b7b16f5ab61447e1bd502f3bb4807af3b28e620d1700a6ee45604060018060a01b03881692a27f00000000000000000000000000000000000000000000000000000000000000006001600160a01b0316611aef575b61199891611340565b7f00000000000000000000000000000000000000000000000000000000000000006001600160a01b0316611a6d57818080927f00000000000000000000000000000000000000000000000000000000000000005af16119f5611365565b5015611a5b577f6e4389167d2afbd1ccb4797ea87e29958adbf74cd16ba077a2ee5ab8460784e5916080915b600360a01b60ff60a01b19600254161760025560055491600354604051938452602084015260018060a01b031660408301526060820152a1565b6040516312171d8360e31b8152600490fd5b7f6e4389167d2afbd1ccb4797ea87e29958adbf74cd16ba077a2ee5ab8460784e59360809390925090611aea907f00000000000000000000000000000000000000000000000000000000000000007f00000000000000000000000000000000000000000000000000000000000000006001600160a01b0316612155565b611a21565b6040516370a0823160e01b8152306004820152916020836024817f00000000000000000000000000000000000000000000000000000000000000006001600160a01b03165afa928315611c10578493611bda575b50611b72611998937f000000000000000000000000000000000000000000000000000000000000000090611340565b80611b80575b50915061198f565b611bd4907f00000000000000000000000000000000000000000000000000000000000000007f00000000000000000000000000000000000000000000000000000000000000006001600160a01b0316612155565b38611b78565b92506020833d602011611c08575b81611bf5602093836110d8565b81010312610f0757915191611b72611b43565b3d9150611be8565b6040513d86823e3d90fd5b602090813d8311611c3f575b611c3181836110d8565b81010312610f075738611925565b503d611c27565b6040513d87823e3d90fd5b611c729060203d602011611c79575b611c6a81836110d8565b81019061134d565b50386118b2565b503d611c60565b634e487b7160e01b85526011600452602485fd5b9093506020813d602011611cc0575b81611cb0602093836110d8565b81010312610f0757519238611828565b3d9150611ca3565b6040513d85823e3d90fd5b611cf5915060203d602011611cfb575b611ced81836110d8565b8101906121b3565b386117f1565b503d611ce3565b6040513d84823e3d90fd5b611d25919250833d8511611cfb57611ced81836110d8565b9038611780565b611d45915060203d602011611cfb57611ced81836110d8565b38611729565b611d6b9060603d8111611d72575b611d6381836110d8565b810190612198565b50506116db565b503d611d59565b634e487b7160e01b83526011600452602483fd5b60405163095ea7b360e01b81527f00000000000000000000000000000000000000000000000000000000000000006001600160a01b031660048201526024810184905260208180604481010381867f00000000000000000000000000000000000000000000000000000000000000006001600160a01b03165af18015611cc85761201c575b5061012c4201804211611d79576040519162e8e33760e81b835260018060a01b037f000000000000000000000000000000000000000000000000000000000000000016600484015260018060a01b037f000000000000000000000000000000000000000000000000000000000000000016602484015260448301528360648301528260848301528260a48301523060c483015260e4820152606081610104818560018060a01b037f0000000000000000000000000000000000000000000000000000000000000000165af18015611d0257611ffe575b5060405163c45a015560e01b81526020816004817f00000000000000000000000000000000000000000000000000000000000000006001600160a01b03165afa908115611d02578291611fdf575b5060405163e6a4390560e01b81526001600160a01b037f0000000000000000000000000000000000000000000000000000000000000000811660048301527f000000000000000000000000000000000000000000000000000000000000000081166024830152909160209183916044918391165afa908115611d02578291611fc0575b50926117f4565b611fd9915060203d602011611cfb57611ced81836110d8565b38611fb9565b611ff8915060203d602011611cfb57611ced81836110d8565b38611f36565b6120159060603d8111611d7257611d6381836110d8565b5050611ee8565b6120349060203d602011611c7957611c6a81836110d8565b5038611e12565b6120539060203d602011611c7957611c6a81836110d8565b503861160b565b67ffffffffffffffff811161207257604052386114fe565b634e487b7160e01b82526041600452602482fd5b9091906120dd907f00000000000000000000000000000000000000000000000000000000000000007f00000000000000000000000000000000000000000000000000000000000000006001600160a01b0316612155565b611501565b634e487b7160e01b81526011600452602490fd5b634e487b7160e01b82526011600452602482fd5b60ff60a01b1916600160a21b176002557fe48846a3dca191c762ab6aaa1e929ccaf55e31a875fb78ad1b93e15ef4830aca915080a1565b634e487b7160e01b82526021600452602482fd5b60405163a9059cbb60e01b60208201526001600160a01b03929092166024830152604480830193909352918152612196916121916064836110d8565b611110565b565b90816060910312610f07578051916040602083015192015190565b90816020910312610f0757516001600160a01b0381168103610f075790565b60025460ff8160a01c166006811015610edb57801580612255575b156122095750506002805460ff60a01b1916600160a01b179055565b6001148061222b575b6122195750565b60ff60a01b1916600160a11b17600255565b507f0000000000000000000000000000000000000000000000000000000000000000421015612212565b507f00000000000000000000000000000000000000000000000000000000000000004210156121ed565b60ff60025460a01c166006811015610edb578015806122e5575b156122a45750600190565b60018114806122bb575b6122b55790565b50600290565b507f00000000000000000000000000000000000000000000000000000000000000004210156122ae565b507f0000000000000000000000000000000000000000000000000000000000000000421015612299565b60ff60025460a01c166006811015610edb5760030361238457600354801561237d5761237a9160018060a01b031660005260076020526123756040600020547f00000000000000000000000000000000000000000000000000000000000000009061130d565b611320565b90565b5050600090565b5060009056fea26469706673582212206f7083b8b1b3ce9203bb789c244c0d75240bf1745773e585798f7ba4d437973864736f6c634300081400332f8788117e7eff1d82e926ec794901d17c78024a50270940304540a733656f0d","opcodes":"CALLVALUE PUSH3 0x402 JUMPI PUSH3 0x2935 CODESIZE DUP2 SWAP1 SUB PUSH2 0x280 PUSH1 0x1F DUP3 ADD PUSH1 0x1F NOT AND DUP2 ADD SWAP1 PUSH1 0x1 PUSH1 0x1 PUSH1 0x40 SHL SUB DUP3 GT SWAP1 DUP3 LT OR PUSH3 0x407 JUMPI PUSH2 0x200 SWAP3 DUP3 SWAP2 PUSH1 0x40 MSTORE PUSH2 0x280 CODECOPY SLT PUSH3 0x402 JUMPI PUSH3 0x4E PUSH2 0x280 PUSH3 0x41D JUMP JUMPDEST PUSH3 0x5B PUSH2 0x2A0 PUSH3 0x41D JUMP JUMPDEST PUSH2 0x2C0 MLOAD PUSH2 0x2E0 MLOAD PUSH2 0x300 MLOAD PUSH2 0x320 MLOAD PUSH2 0x340 MLOAD PUSH2 0x360 MLOAD PUSH2 0x380 MLOAD SWAP6 SWAP8 SWAP6 SWAP1 SWAP5 SWAP4 SWAP3 SWAP2 SWAP1 PUSH2 0xFFFF DUP2 AND DUP2 SUB PUSH3 0x402 JUMPI PUSH3 0x175 SWAP6 PUSH3 0x9E PUSH2 0x3A0 PUSH3 0x41D JUMP JUMPDEST SWAP3 PUSH3 0xAC PUSH2 0x3C0 PUSH3 0x41D JUMP JUMPDEST SWAP5 PUSH3 0xBA PUSH2 0x3E0 PUSH3 0x41D JUMP JUMPDEST SWAP7 PUSH3 0xC8 PUSH2 0x400 PUSH3 0x41D JUMP JUMPDEST SWAP9 PUSH2 0x1A0 PUSH2 0x280 ADD MLOAD SWAP14 PUSH2 0x1C0 PUSH2 0x280 ADD MLOAD SWAP14 PUSH2 0x1E0 PUSH2 0x280 ADD MLOAD SWAP14 PUSH1 0x1 DUP1 SSTORE PUSH1 0x80 MSTORE PUSH1 0xA0 MSTORE PUSH1 0xC0 MSTORE PUSH1 0xE0 MSTORE PUSH2 0x100 MSTORE PUSH2 0x120 MSTORE PUSH2 0x140 MSTORE PUSH2 0x160 MSTORE PUSH2 0x180 MSTORE PUSH2 0x1A0 MSTORE PUSH2 0x1C0 MSTORE PUSH2 0x1E0 MSTORE PUSH2 0x220 SWAP5 DUP6 MSTORE PUSH2 0x240 SWAP4 DUP5 MSTORE PUSH2 0x260 SWAP3 DUP4 MSTORE PUSH1 0xFF PUSH1 0xA0 SHL NOT PUSH1 0x2 SLOAD AND PUSH1 0x2 SSTORE PUSH1 0x38 CHAINID EQ DUP1 ISZERO PUSH3 0x3F7 JUMPI JUMPDEST PUSH1 0x0 SWAP1 ISZERO PUSH3 0x363 JUMPI POP PUSH20 0x10ED43C718714EB63D5AA57B78B54704E256024E JUMPDEST PUSH2 0x200 MSTORE PUSH3 0x16E DUP2 PUSH3 0x432 JUMP JUMPDEST POP PUSH3 0x4B2 JUMP JUMPDEST POP PUSH1 0x40 MLOAD SWAP2 PUSH2 0x23C0 SWAP4 DUP5 PUSH3 0x555 DUP6 CODECOPY PUSH1 0x80 MLOAD DUP5 DUP2 DUP2 PUSH2 0xA21 ADD MSTORE DUP2 DUP2 PUSH2 0xB0C ADD MSTORE DUP2 DUP2 PUSH2 0x15D6 ADD MSTORE DUP2 DUP2 PUSH2 0x165D ADD MSTORE DUP2 DUP2 PUSH2 0x1798 ADD MSTORE DUP2 DUP2 PUSH2 0x1B0B ADD MSTORE DUP2 DUP2 PUSH2 0x1BA7 ADD MSTORE DUP2 DUP2 PUSH2 0x1E35 ADD MSTORE PUSH2 0x1F4E ADD MSTORE PUSH1 0xA0 MLOAD DUP5 DUP2 DUP2 PUSH2 0x306 ADD MSTORE DUP2 DUP2 PUSH2 0x6B9 ADD MSTORE DUP2 DUP2 PUSH2 0x8FC ADD MSTORE DUP2 DUP2 PUSH2 0xCA6 ADD MSTORE DUP2 DUP2 PUSH2 0x1479 ADD MSTORE DUP2 DUP2 PUSH2 0x160E ADD MSTORE DUP2 DUP2 PUSH2 0x199A ADD MSTORE DUP2 DUP2 PUSH2 0x1ABD ADD MSTORE DUP2 DUP2 PUSH2 0x1DDD ADD MSTORE DUP2 DUP2 PUSH2 0x1E63 ADD MSTORE DUP2 DUP2 PUSH2 0x1F76 ADD MSTORE PUSH2 0x20B0 ADD MSTORE PUSH1 0xC0 MLOAD DUP5 DUP2 DUP2 PUSH2 0x235 ADD MSTORE PUSH2 0x13E4 ADD MSTORE PUSH1 0xE0 MLOAD DUP5 DUP2 DUP2 PUSH2 0xABC ADD MSTORE DUP2 DUP2 PUSH2 0xDA6 ADD MSTORE DUP2 DUP2 PUSH2 0x142C ADD MSTORE DUP2 DUP2 PUSH2 0x1B4D ADD MSTORE PUSH2 0x2350 ADD MSTORE PUSH2 0x100 MLOAD DUP5 DUP2 DUP2 PUSH2 0x4C9 ADD MSTORE PUSH2 0x11CE ADD MSTORE PUSH2 0x120 MLOAD DUP5 DUP2 DUP2 PUSH2 0x5EC ADD MSTORE PUSH2 0x1218 ADD MSTORE PUSH2 0x140 MLOAD DUP5 DUP2 DUP2 PUSH2 0x775 ADD MSTORE DUP2 DUP2 PUSH2 0x2258 ADD MSTORE PUSH2 0x22E8 ADD MSTORE PUSH2 0x160 MLOAD DUP5 DUP2 DUP2 PUSH2 0xC6E ADD MSTORE DUP2 DUP2 PUSH2 0x222E ADD MSTORE PUSH2 0x22BE ADD MSTORE PUSH2 0x180 MLOAD DUP5 DUP2 DUP2 PUSH2 0xDE4 ADD MSTORE PUSH2 0x1536 ADD MSTORE PUSH2 0x1A0 MLOAD DUP5 DUP2 DUP2 PUSH2 0x86A ADD MSTORE DUP2 DUP2 PUSH2 0x14A7 ADD MSTORE PUSH2 0x208F ADD MSTORE PUSH2 0x1C0 MLOAD DUP5 DUP2 DUP2 PUSH2 0x826 ADD MSTORE DUP2 DUP2 PUSH2 0x1962 ADD MSTORE PUSH2 0x1B86 ADD MSTORE PUSH2 0x1E0 MLOAD DUP5 DUP2 DUP2 PUSH2 0x501 ADD MSTORE DUP2 DUP2 PUSH2 0x18E3 ADD MSTORE DUP2 DUP2 PUSH2 0x19CC ADD MSTORE PUSH2 0x1A9C ADD MSTORE PUSH2 0x200 MLOAD DUP5 DUP2 DUP2 PUSH2 0xE1D ADD MSTORE DUP2 DUP2 PUSH2 0x1595 ADD MSTORE DUP2 DUP2 PUSH2 0x16AE ADD MSTORE DUP2 DUP2 PUSH2 0x16F1 ADD MSTORE DUP2 DUP2 PUSH2 0x1740 ADD MSTORE DUP2 DUP2 PUSH2 0x1D9C ADD MSTORE DUP2 DUP2 PUSH2 0x1EBB ADD MSTORE PUSH2 0x1EFE ADD MSTORE MLOAD DUP4 DUP2 DUP2 PUSH2 0x48E ADD MSTORE PUSH2 0x1507 ADD MSTORE MLOAD DUP3 DUP2 DUP2 PUSH2 0x627 ADD MSTORE PUSH2 0x182B ADD MSTORE MLOAD DUP2 PUSH2 0xD41 ADD MSTORE RETURN JUMPDEST PUSH1 0x1 CHAINID EQ DUP1 ISZERO PUSH3 0x3EA JUMPI JUMPDEST ISZERO PUSH3 0x391 JUMPI POP PUSH20 0x7A250D5630B4CF539739DF2C5DACB4C659F2488D PUSH3 0x15F JUMP JUMPDEST PUSH2 0x2105 CHAINID EQ SWAP1 DUP2 ISZERO PUSH3 0x3DC JUMPI JUMPDEST POP ISZERO PUSH3 0x3C1 JUMPI PUSH20 0x4752BA5DBC23F44D87826276BF6FD6B1C372AD24 PUSH3 0x15F JUMP JUMPDEST PUSH20 0x7A250D5630B4CF539739DF2C5DACB4C659F2488D PUSH3 0x15F JUMP JUMPDEST CHAINID PUSH3 0x14A34 EQ SWAP2 POP PUSH3 0x39F JUMP JUMPDEST POP PUSH3 0xAA36A7 CHAINID EQ PUSH3 0x36F JUMP JUMPDEST POP PUSH1 0x61 CHAINID EQ PUSH3 0x13F JUMP JUMPDEST PUSH1 0x0 DUP1 REVERT JUMPDEST PUSH4 0x4E487B71 PUSH1 0xE0 SHL PUSH1 0x0 MSTORE PUSH1 0x41 PUSH1 0x4 MSTORE PUSH1 0x24 PUSH1 0x0 REVERT JUMPDEST MLOAD SWAP1 PUSH1 0x1 PUSH1 0x1 PUSH1 0xA0 SHL SUB DUP3 AND DUP3 SUB PUSH3 0x402 JUMPI JUMP JUMPDEST PUSH1 0x1 PUSH1 0x1 PUSH1 0xA0 SHL SUB AND PUSH1 0x0 DUP2 DUP2 MSTORE PUSH32 0xAD3228B676F7D3CD4284A5443F17F1962B36E491B30A40B2405849E597BA5FB5 PUSH1 0x20 MSTORE PUSH1 0x40 DUP2 KECCAK256 SLOAD SWAP1 SWAP2 SWAP1 PUSH1 0xFF AND PUSH3 0x4AE JUMPI DUP2 DUP1 MSTORE DUP2 PUSH1 0x20 MSTORE PUSH1 0x40 DUP3 KECCAK256 DUP2 DUP4 MSTORE PUSH1 0x20 MSTORE PUSH1 0x40 DUP3 KECCAK256 PUSH1 0x1 PUSH1 0xFF NOT DUP3 SLOAD AND OR SWAP1 SSTORE CALLER SWAP2 PUSH1 0x0 DUP1 MLOAD PUSH1 0x20 PUSH3 0x2915 DUP4 CODECOPY DUP2 MLOAD SWAP2 MSTORE DUP2 DUP1 LOG4 PUSH1 0x1 SWAP1 JUMP JUMPDEST POP SWAP1 JUMP JUMPDEST PUSH1 0x1 PUSH1 0x1 PUSH1 0xA0 SHL SUB AND PUSH1 0x0 DUP2 DUP2 MSTORE PUSH32 0x7D7FFB7A348E1C6A02869081A26547B49160DD3DF72D1D75A570EB9B698292EC PUSH1 0x20 MSTORE PUSH1 0x40 DUP2 KECCAK256 SLOAD SWAP1 SWAP2 SWAP1 PUSH32 0xA49807205CE4D355092EF5A8A18F56E8913CF4A201FBE287825B095693C21775 SWAP1 PUSH1 0xFF AND PUSH3 0x54F JUMPI DUP1 DUP4 MSTORE DUP3 PUSH1 0x20 MSTORE PUSH1 0x40 DUP4 KECCAK256 DUP3 DUP5 MSTORE PUSH1 0x20 MSTORE PUSH1 0x40 DUP4 KECCAK256 PUSH1 0x1 PUSH1 0xFF NOT DUP3 SLOAD AND OR SWAP1 SSTORE PUSH1 0x0 DUP1 MLOAD PUSH1 0x20 PUSH3 0x2915 DUP4 CODECOPY DUP2 MLOAD SWAP2 MSTORE CALLER SWAP4 DUP1 LOG4 PUSH1 0x1 SWAP1 JUMP JUMPDEST POP POP SWAP1 JUMP INVALID PUSH1 0x80 PUSH1 0x40 DUP2 DUP2 MSTORE PUSH1 0x4 SWAP2 DUP3 CALLDATASIZE LT ISZERO PUSH2 0x16 JUMPI PUSH1 0x0 DUP1 REVERT JUMPDEST PUSH1 0x0 SWAP3 DUP4 CALLDATALOAD PUSH1 0xE0 SHR SWAP2 DUP3 PUSH4 0x1FFC9A7 EQ PUSH2 0xE75 JUMPI POP DUP2 PUSH4 0x3FC2013 EQ PUSH2 0xE4C JUMPI DUP2 PUSH4 0x758D924 EQ PUSH2 0xE08 JUMPI DUP2 PUSH4 0xB7C1AE1 EQ PUSH2 0xDC9 JUMPI DUP2 PUSH4 0x12AEF8C3 EQ PUSH2 0xD8E JUMPI DUP2 PUSH4 0x1CC64544 EQ PUSH2 0x54B JUMPI DUP2 PUSH4 0x200D2ED2 EQ PUSH2 0xD64 JUMPI DUP2 PUSH4 0x220C0956 EQ PUSH2 0xD29 JUMPI DUP2 PUSH4 0x248A9CA3 EQ PUSH2 0xCFF JUMPI DUP2 PUSH4 0x2F2FF15D EQ PUSH2 0xCD5 JUMPI DUP2 PUSH4 0x3013CE29 EQ PUSH2 0xC91 JUMPI DUP2 PUSH4 0x3197CBB6 EQ PUSH2 0xC56 JUMPI DUP2 PUSH4 0x362F04C0 EQ PUSH2 0xC38 JUMPI DUP2 PUSH4 0x36568ABE EQ PUSH2 0xBF2 JUMPI DUP2 PUSH4 0x3F4BA83A EQ PUSH2 0xBA7 JUMPI DUP2 PUSH4 0x42E94C90 EQ PUSH2 0x3A2 JUMPI DUP2 PUSH4 0x48C54B9D EQ PUSH2 0xA50 JUMPI DUP2 PUSH4 0x4B60CE77 EQ PUSH2 0xA0C JUMPI DUP2 PUSH4 0x4BB278F3 EQ PUSH2 0x9EB JUMPI DUP2 PUSH4 0x4E69D560 EQ PUSH2 0x9BE JUMPI DUP2 PUSH4 0x590E1AE3 EQ PUSH2 0x899 JUMPI DUP2 PUSH4 0x6052970C EQ PUSH2 0x855 JUMPI DUP2 PUSH4 0x619F3D6C EQ PUSH2 0x811 JUMPI DUP2 PUSH4 0x73B2E80E EQ PUSH2 0x7D3 JUMPI DUP2 PUSH4 0x75B238FC EQ PUSH2 0x798 JUMPI DUP2 PUSH4 0x78E97925 EQ PUSH2 0x75D JUMPI DUP2 PUSH4 0x8160059A EQ PUSH2 0x699 JUMPI DUP2 PUSH4 0x8456CB59 EQ PUSH2 0x64A JUMPI DUP2 PUSH4 0x8BCD8515 EQ PUSH2 0x60F JUMPI DUP2 PUSH4 0x8D3D6576 EQ PUSH2 0x5D4 JUMPI DUP2 PUSH4 0x8D4E4083 EQ PUSH2 0x5B0 JUMPI DUP2 PUSH4 0x91D14854 EQ PUSH2 0x56A JUMPI DUP2 PUSH4 0x9CE05DF7 EQ PUSH2 0x54B JUMPI DUP2 PUSH4 0xA217FDDF EQ PUSH2 0x530 JUMPI DUP2 PUSH4 0xA4475CE4 EQ PUSH2 0x4EC JUMPI DUP2 PUSH4 0xAAFFADF3 EQ PUSH2 0x4B1 JUMPI DUP2 PUSH4 0xB0683755 EQ PUSH2 0x476 JUMPI DUP2 PUSH4 0xB187BD26 EQ PUSH2 0x44F JUMPI DUP2 PUSH4 0xB524F87B EQ PUSH2 0x407 JUMPI DUP2 PUSH4 0xB920ADE2 EQ PUSH2 0x3DA JUMPI DUP2 PUSH4 0xBB8B2B47 EQ PUSH2 0x3A2 JUMPI DUP2 PUSH4 0xC5C4744C EQ PUSH2 0x383 JUMPI DUP2 PUSH4 0xD547741F EQ PUSH2 0x344 JUMPI DUP2 PUSH4 0xD7BB99BA EQ PUSH2 0x2EE JUMPI DUP2 PUSH4 0xEA8A1AF0 EQ PUSH2 0x25C JUMPI POP PUSH4 0xF89BE593 EQ PUSH2 0x21F JUMPI PUSH1 0x0 DUP1 REVERT JUMPDEST CALLVALUE PUSH2 0x258 JUMPI DUP2 PUSH1 0x3 NOT CALLDATASIZE ADD SLT PUSH2 0x258 JUMPI PUSH1 0x20 SWAP1 MLOAD PUSH32 0x0 DUP2 MSTORE RETURN JUMPDEST POP DUP1 REVERT JUMPDEST SWAP1 POP CALLVALUE PUSH2 0x2EA JUMPI DUP3 PUSH1 0x3 NOT CALLDATASIZE ADD SLT PUSH2 0x2EA JUMPI PUSH2 0x276 PUSH2 0xF22 JUMP JUMPDEST PUSH1 0x2 SLOAD SWAP2 PUSH1 0xFF DUP4 PUSH1 0xA0 SHR AND PUSH1 0x6 DUP2 LT ISZERO PUSH2 0x2D7 JUMPI PUSH1 0x3 EQ PUSH2 0x2CA JUMPI POP POP PUSH1 0xFF PUSH1 0xA0 SHL NOT AND PUSH1 0x5 PUSH1 0xA0 SHL OR PUSH1 0x2 SSTORE PUSH32 0x63B958841F79AB97CB5456DA181454B9932C0E15A3B17F1CBD27E2A8BC610437 DUP2 DUP1 LOG1 DUP1 RETURN JUMPDEST MLOAD PUSH4 0x7A92F19 PUSH1 0xE5 SHL DUP2 MSTORE REVERT JUMPDEST PUSH4 0x4E487B71 PUSH1 0xE0 SHL DUP6 MSTORE PUSH1 0x21 DUP4 MSTORE PUSH1 0x24 DUP6 REVERT JUMPDEST DUP3 DUP1 REVERT JUMPDEST SWAP2 SWAP1 POP DUP3 PUSH1 0x3 NOT CALLDATASIZE ADD SLT PUSH2 0x2EA JUMPI PUSH2 0x304 PUSH2 0x10B5 JUMP JUMPDEST PUSH32 0x0 PUSH1 0x1 PUSH1 0x1 PUSH1 0xA0 SHL SUB AND PUSH2 0x2CA JUMPI DUP3 PUSH2 0x33D CALLVALUE CALLER PUSH2 0x119B JUMP JUMPDEST PUSH1 0x1 DUP1 SSTORE DUP1 RETURN JUMPDEST SWAP2 SWAP1 POP CALLVALUE PUSH2 0x2EA JUMPI DUP1 PUSH1 0x3 NOT CALLDATASIZE ADD SLT PUSH2 0x2EA JUMPI PUSH2 0x37F SWAP2 CALLDATALOAD PUSH2 0x37A PUSH1 0x1 PUSH2 0x369 PUSH2 0xEF1 JUMP JUMPDEST SWAP4 DUP4 DUP8 MSTORE DUP7 PUSH1 0x20 MSTORE DUP7 KECCAK256 ADD SLOAD PUSH2 0xF9C JUMP JUMPDEST PUSH2 0x1040 JUMP JUMPDEST POP DUP1 RETURN JUMPDEST POP POP CALLVALUE PUSH2 0x258 JUMPI DUP2 PUSH1 0x3 NOT CALLDATASIZE ADD SLT PUSH2 0x258 JUMPI PUSH1 0x20 SWAP1 PUSH1 0x3 SLOAD SWAP1 MLOAD SWAP1 DUP2 MSTORE RETURN JUMPDEST POP POP CALLVALUE PUSH2 0x258 JUMPI PUSH1 0x20 CALLDATASIZE PUSH1 0x3 NOT ADD SLT PUSH2 0x258 JUMPI PUSH1 0x20 SWAP2 DUP2 SWAP1 PUSH1 0x1 PUSH1 0x1 PUSH1 0xA0 SHL SUB PUSH2 0x3CA PUSH2 0xF0C JUMP JUMPDEST AND DUP2 MSTORE PUSH1 0x7 DUP5 MSTORE KECCAK256 SLOAD SWAP1 MLOAD SWAP1 DUP2 MSTORE RETURN JUMPDEST POP POP CALLVALUE PUSH2 0x258 JUMPI PUSH1 0x20 CALLDATASIZE PUSH1 0x3 NOT ADD SLT PUSH2 0x258 JUMPI PUSH1 0x20 SWAP1 PUSH2 0x400 PUSH2 0x3FB PUSH2 0xF0C JUMP JUMPDEST PUSH2 0x230F JUMP JUMPDEST SWAP1 MLOAD SWAP1 DUP2 MSTORE RETURN JUMPDEST DUP4 CALLVALUE PUSH2 0x44C JUMPI PUSH1 0x20 CALLDATASIZE PUSH1 0x3 NOT ADD SLT PUSH2 0x44C JUMPI PUSH2 0x421 PUSH2 0xF0C JUMP JUMPDEST PUSH2 0x429 PUSH2 0xF22 JUMP JUMPDEST PUSH1 0x1 DUP1 PUSH1 0xA0 SHL SUB AND PUSH12 0xFFFFFFFFFFFFFFFFFFFFFFFF PUSH1 0xA0 SHL PUSH1 0x2 SLOAD AND OR PUSH1 0x2 SSTORE DUP1 RETURN JUMPDEST DUP1 REVERT JUMPDEST POP POP CALLVALUE PUSH2 0x258 JUMPI DUP2 PUSH1 0x3 NOT CALLDATASIZE ADD SLT PUSH2 0x258 JUMPI PUSH1 0x20 SWAP1 PUSH1 0xFF PUSH1 0x6 SLOAD PUSH1 0x8 SHR AND SWAP1 MLOAD SWAP1 ISZERO ISZERO DUP2 MSTORE RETURN JUMPDEST POP POP CALLVALUE PUSH2 0x258 JUMPI DUP2 PUSH1 0x3 NOT CALLDATASIZE ADD SLT PUSH2 0x258 JUMPI PUSH1 0x20 SWAP1 MLOAD PUSH32 0x0 DUP2 MSTORE RETURN JUMPDEST POP POP CALLVALUE PUSH2 0x258 JUMPI DUP2 PUSH1 0x3 NOT CALLDATASIZE ADD SLT PUSH2 0x258 JUMPI PUSH1 0x20 SWAP1 MLOAD PUSH32 0x0 DUP2 MSTORE RETURN JUMPDEST POP POP CALLVALUE PUSH2 0x258 JUMPI DUP2 PUSH1 0x3 NOT CALLDATASIZE ADD SLT PUSH2 0x258 JUMPI MLOAD PUSH32 0x0 PUSH1 0x1 PUSH1 0x1 PUSH1 0xA0 SHL SUB AND DUP2 MSTORE PUSH1 0x20 SWAP1 RETURN JUMPDEST POP POP CALLVALUE PUSH2 0x258 JUMPI DUP2 PUSH1 0x3 NOT CALLDATASIZE ADD SLT PUSH2 0x258 JUMPI MLOAD SWAP1 DUP2 MSTORE PUSH1 0x20 SWAP1 RETURN JUMPDEST POP POP CALLVALUE PUSH2 0x258 JUMPI DUP2 PUSH1 0x3 NOT CALLDATASIZE ADD SLT PUSH2 0x258 JUMPI PUSH1 0x20 SWAP1 PUSH1 0x5 SLOAD SWAP1 MLOAD SWAP1 DUP2 MSTORE RETURN JUMPDEST SWAP1 POP CALLVALUE PUSH2 0x2EA JUMPI DUP2 PUSH1 0x3 NOT CALLDATASIZE ADD SLT PUSH2 0x2EA JUMPI DUP2 PUSH1 0x20 SWAP4 PUSH1 0xFF SWAP3 PUSH2 0x58B PUSH2 0xEF1 JUMP JUMPDEST SWAP1 CALLDATALOAD DUP3 MSTORE DUP2 DUP7 MSTORE DUP3 DUP3 KECCAK256 PUSH1 0x1 PUSH1 0x1 PUSH1 0xA0 SHL SUB SWAP1 SWAP2 AND DUP3 MSTORE DUP6 MSTORE KECCAK256 SLOAD SWAP2 MLOAD SWAP2 AND ISZERO ISZERO DUP2 MSTORE RETURN JUMPDEST POP POP CALLVALUE PUSH2 0x258 JUMPI DUP2 PUSH1 0x3 NOT CALLDATASIZE ADD SLT PUSH2 0x258 JUMPI PUSH1 0x20 SWAP1 PUSH1 0xFF PUSH1 0x6 SLOAD AND SWAP1 MLOAD SWAP1 ISZERO ISZERO DUP2 MSTORE RETURN JUMPDEST POP POP CALLVALUE PUSH2 0x258 JUMPI DUP2 PUSH1 0x3 NOT CALLDATASIZE ADD SLT PUSH2 0x258 JUMPI PUSH1 0x20 SWAP1 MLOAD PUSH32 0x0 DUP2 MSTORE RETURN JUMPDEST POP POP CALLVALUE PUSH2 0x258 JUMPI DUP2 PUSH1 0x3 NOT CALLDATASIZE ADD SLT PUSH2 0x258 JUMPI PUSH1 0x20 SWAP1 MLOAD PUSH32 0x0 DUP2 MSTORE RETURN JUMPDEST DUP4 CALLVALUE PUSH2 0x44C JUMPI DUP1 PUSH1 0x3 NOT CALLDATASIZE ADD SLT PUSH2 0x44C JUMPI PUSH2 0x663 PUSH2 0xF22 JUMP JUMPDEST PUSH2 0x100 PUSH2 0xFF00 NOT PUSH1 0x6 SLOAD AND OR PUSH1 0x6 SSTORE PUSH32 0x9E87FAC88FF661F02D44F95383C817FECE4BCE600A3DAB7A54406878B965E752 DUP2 DUP1 LOG1 DUP1 RETURN JUMPDEST DUP4 DUP4 CALLVALUE PUSH2 0x258 JUMPI PUSH1 0x20 CALLDATASIZE PUSH1 0x3 NOT ADD SLT PUSH2 0x258 JUMPI DUP3 CALLDATALOAD SWAP1 PUSH2 0x6B7 PUSH2 0x10B5 JUMP JUMPDEST PUSH32 0x0 PUSH1 0x1 PUSH1 0x1 PUSH1 0xA0 SHL SUB AND DUP1 ISZERO PUSH2 0x74D JUMPI DUP2 MLOAD PUSH4 0x23B872DD PUSH1 0xE0 SHL PUSH1 0x20 DUP3 ADD MSTORE CALLER PUSH1 0x24 DUP3 ADD MSTORE ADDRESS PUSH1 0x44 DUP3 ADD MSTORE PUSH1 0x64 DUP1 DUP3 ADD DUP6 SWAP1 MSTORE DUP2 MSTORE SWAP2 PUSH1 0xA0 DUP4 ADD SWAP1 PUSH8 0xFFFFFFFFFFFFFFFF DUP3 GT DUP5 DUP4 LT OR PUSH2 0x73A JUMPI MSTORE PUSH2 0x33D SWAP3 SWAP2 PUSH2 0x734 SWAP2 PUSH2 0x1110 JUMP JUMPDEST CALLER PUSH2 0x119B JUMP JUMPDEST PUSH4 0x4E487B71 PUSH1 0xE0 SHL DUP7 MSTORE PUSH1 0x41 DUP8 MSTORE PUSH1 0x24 DUP7 REVERT JUMPDEST DUP2 MLOAD PUSH4 0x7A92F19 PUSH1 0xE5 SHL DUP2 MSTORE DUP6 SWAP1 REVERT JUMPDEST POP POP CALLVALUE PUSH2 0x258 JUMPI DUP2 PUSH1 0x3 NOT CALLDATASIZE ADD SLT PUSH2 0x258 JUMPI PUSH1 0x20 SWAP1 MLOAD PUSH32 0x0 DUP2 MSTORE RETURN JUMPDEST POP POP CALLVALUE PUSH2 0x258 JUMPI DUP2 PUSH1 0x3 NOT CALLDATASIZE ADD SLT PUSH2 0x258 JUMPI PUSH1 0x20 SWAP1 MLOAD PUSH32 0xA49807205CE4D355092EF5A8A18F56E8913CF4A201FBE287825B095693C21775 DUP2 MSTORE RETURN JUMPDEST POP POP CALLVALUE PUSH2 0x258 JUMPI PUSH1 0x20 CALLDATASIZE PUSH1 0x3 NOT ADD SLT PUSH2 0x258 JUMPI PUSH1 0x20 SWAP2 PUSH1 0xFF SWAP1 DUP3 SWAP1 PUSH1 0x1 PUSH1 0x1 PUSH1 0xA0 SHL SUB PUSH2 0x7FE PUSH2 0xF0C JUMP JUMPDEST AND DUP2 MSTORE PUSH1 0x8 DUP6 MSTORE KECCAK256 SLOAD AND SWAP1 MLOAD SWAP1 ISZERO ISZERO DUP2 MSTORE RETURN JUMPDEST POP POP CALLVALUE PUSH2 0x258 JUMPI DUP2 PUSH1 0x3 NOT CALLDATASIZE ADD SLT PUSH2 0x258 JUMPI MLOAD PUSH32 0x0 PUSH1 0x1 PUSH1 0x1 PUSH1 0xA0 SHL SUB AND DUP2 MSTORE PUSH1 0x20 SWAP1 RETURN JUMPDEST POP POP CALLVALUE PUSH2 0x258 JUMPI DUP2 PUSH1 0x3 NOT CALLDATASIZE ADD SLT PUSH2 0x258 JUMPI MLOAD PUSH32 0x0 PUSH1 0x1 PUSH1 0x1 PUSH1 0xA0 SHL SUB AND DUP2 MSTORE PUSH1 0x20 SWAP1 RETURN JUMPDEST SWAP2 SWAP1 POP CALLVALUE PUSH2 0x2EA JUMPI DUP3 PUSH1 0x3 NOT CALLDATASIZE ADD SLT PUSH2 0x2EA JUMPI PUSH2 0x8B4 PUSH2 0x10B5 JUMP JUMPDEST PUSH1 0xFF PUSH1 0x2 SLOAD PUSH1 0xA0 SHR AND PUSH1 0x6 DUP2 LT ISZERO PUSH2 0x9AB JUMPI DUP3 DUP2 EQ ISZERO SWAP1 DUP2 PUSH2 0x99F JUMPI JUMPDEST POP PUSH2 0x2CA JUMPI CALLER DUP4 MSTORE PUSH1 0x7 PUSH1 0x20 MSTORE DUP1 DUP4 KECCAK256 SLOAD ISZERO PUSH2 0x992 JUMPI CALLER DUP4 MSTORE PUSH1 0x7 PUSH1 0x20 MSTORE DUP1 DUP4 KECCAK256 DUP1 SLOAD SWAP1 DUP5 SWAP1 SSTORE SWAP2 DUP3 PUSH32 0x0 PUSH1 0x1 PUSH1 0x1 PUSH1 0xA0 SHL SUB AND DUP1 PUSH2 0x981 JUMPI POP DUP5 DUP1 DUP1 DUP1 SWAP4 CALLER GAS CALL PUSH2 0x93A PUSH2 0x1365 JUMP JUMPDEST POP ISZERO PUSH2 0x973 JUMPI POP JUMPDEST MLOAD SWAP1 DUP2 MSTORE PUSH32 0xD7DEE2702D63AD89917B6A4DA9981C90C4D24F8C2BDFD64C604ECAE57D8D0651 PUSH1 0x20 CALLER SWAP3 LOG2 PUSH1 0x1 DUP1 SSTORE DUP1 RETURN JUMPDEST SWAP1 MLOAD PUSH4 0x12171D83 PUSH1 0xE3 SHL DUP2 MSTORE REVERT JUMPDEST PUSH2 0x98D SWAP3 POP CALLER SWAP1 PUSH2 0x2155 JUMP JUMPDEST PUSH2 0x942 JUMP JUMPDEST MLOAD PUSH4 0xF76AEF65 PUSH1 0xE0 SHL DUP2 MSTORE REVERT JUMPDEST PUSH1 0x5 SWAP2 POP EQ ISZERO CODESIZE PUSH2 0x8D1 JUMP JUMPDEST PUSH4 0x4E487B71 PUSH1 0xE0 SHL DUP5 MSTORE PUSH1 0x21 DUP4 MSTORE PUSH1 0x24 DUP5 REVERT JUMPDEST POP POP CALLVALUE PUSH2 0x258 JUMPI DUP2 PUSH1 0x3 NOT CALLDATASIZE ADD SLT PUSH2 0x258 JUMPI PUSH2 0x9E7 SWAP1 PUSH2 0x9DC PUSH2 0x227F JUMP JUMPDEST SWAP1 MLOAD SWAP2 DUP3 SWAP2 DUP3 PUSH2 0xEC8 JUMP JUMPDEST SUB SWAP1 RETURN JUMPDEST DUP4 CALLVALUE PUSH2 0x44C JUMPI DUP1 PUSH1 0x3 NOT CALLDATASIZE ADD SLT PUSH2 0x44C JUMPI PUSH2 0xA04 PUSH2 0x10B5 JUMP JUMPDEST PUSH2 0x33D PUSH2 0x13A5 JUMP JUMPDEST POP POP CALLVALUE PUSH2 0x258 JUMPI DUP2 PUSH1 0x3 NOT CALLDATASIZE ADD SLT PUSH2 0x258 JUMPI MLOAD PUSH32 0x0 PUSH1 0x1 PUSH1 0x1 PUSH1 0xA0 SHL SUB AND DUP2 MSTORE PUSH1 0x20 SWAP1 RETURN JUMPDEST SWAP1 POP CALLVALUE PUSH2 0x2EA JUMPI DUP3 PUSH1 0x3 NOT CALLDATASIZE ADD SLT PUSH2 0x2EA JUMPI PUSH2 0xA6A PUSH2 0x10B5 JUMP JUMPDEST PUSH1 0xFF PUSH1 0x2 SLOAD PUSH1 0xA0 SHR AND PUSH1 0x6 DUP2 LT ISZERO PUSH2 0xB94 JUMPI PUSH1 0x3 SUB PUSH2 0xB86 JUMPI CALLER DUP4 MSTORE PUSH1 0x7 PUSH1 0x20 MSTORE DUP2 DUP4 KECCAK256 SLOAD ISZERO PUSH2 0xB78 JUMPI CALLER DUP4 MSTORE PUSH1 0x8 PUSH1 0x20 MSTORE PUSH1 0xFF DUP3 DUP5 KECCAK256 SLOAD AND PUSH2 0xB6A JUMPI POP CALLER DUP3 MSTORE PUSH1 0x7 PUSH1 0x20 MSTORE PUSH2 0xAEA PUSH2 0xAE1 DUP3 DUP5 KECCAK256 SLOAD PUSH32 0x0 SWAP1 PUSH2 0x130D JUMP JUMPDEST PUSH1 0x3 SLOAD SWAP1 PUSH2 0x1320 JUMP JUMPDEST CALLER DUP1 DUP5 MSTORE PUSH1 0x8 PUSH1 0x20 MSTORE DUP3 DUP5 KECCAK256 DUP1 SLOAD PUSH1 0xFF NOT AND PUSH1 0x1 OR SWAP1 SSTORE SWAP1 SWAP2 SWAP1 PUSH2 0xB39 SWAP1 DUP4 SWAP1 PUSH32 0x0 PUSH1 0x1 PUSH1 0x1 PUSH1 0xA0 SHL SUB AND PUSH2 0x2155 JUMP JUMPDEST MLOAD SWAP1 DUP2 MSTORE PUSH32 0x896E034966EAAF1ADC54ACC0F257056FEBBD300C9E47182CF761982CF1F5E430 PUSH1 0x20 CALLER SWAP3 LOG2 PUSH1 0x1 DUP1 SSTORE DUP1 RETURN JUMPDEST SWAP1 MLOAD PUSH4 0xC8D9EAB PUSH1 0xE3 SHL DUP2 MSTORE REVERT JUMPDEST SWAP1 MLOAD PUSH4 0x1971FBF3 PUSH1 0xE2 SHL DUP2 MSTORE REVERT JUMPDEST SWAP1 MLOAD PUSH4 0x7A92F19 PUSH1 0xE5 SHL DUP2 MSTORE REVERT JUMPDEST PUSH4 0x4E487B71 PUSH1 0xE0 SHL DUP5 MSTORE PUSH1 0x21 DUP3 MSTORE PUSH1 0x24 DUP5 REVERT JUMPDEST DUP4 CALLVALUE PUSH2 0x44C JUMPI DUP1 PUSH1 0x3 NOT CALLDATASIZE ADD SLT PUSH2 0x44C JUMPI PUSH2 0xBC0 PUSH2 0xF22 JUMP JUMPDEST PUSH2 0xFF00 NOT PUSH1 0x6 SLOAD AND PUSH1 0x6 SSTORE PUSH32 0xA45F47FDEA8A1EFDD9029A5691C7F759C32B7C698632B563573E155625D16933 DUP2 DUP1 LOG1 DUP1 RETURN JUMPDEST DUP4 DUP4 CALLVALUE PUSH2 0x258 JUMPI DUP1 PUSH1 0x3 NOT CALLDATASIZE ADD SLT PUSH2 0x258 JUMPI PUSH2 0xC0C PUSH2 0xEF1 JUMP JUMPDEST SWAP1 CALLER PUSH1 0x1 PUSH1 0x1 PUSH1 0xA0 SHL SUB DUP4 AND SUB PUSH2 0xC29 JUMPI POP PUSH2 0x37F SWAP2 SWAP3 CALLDATALOAD PUSH2 0x1040 JUMP JUMPDEST MLOAD PUSH4 0x334BD919 PUSH1 0xE1 SHL DUP2 MSTORE DUP4 SWAP1 REVERT JUMPDEST SWAP1 POP CALLVALUE PUSH2 0x2EA JUMPI DUP3 PUSH1 0x3 NOT CALLDATASIZE ADD SLT PUSH2 0x2EA JUMPI PUSH1 0x20 SWAP3 POP SLOAD SWAP1 MLOAD SWAP1 DUP2 MSTORE RETURN JUMPDEST POP POP CALLVALUE PUSH2 0x258 JUMPI DUP2 PUSH1 0x3 NOT CALLDATASIZE ADD SLT PUSH2 0x258 JUMPI PUSH1 0x20 SWAP1 MLOAD PUSH32 0x0 DUP2 MSTORE RETURN JUMPDEST POP POP CALLVALUE PUSH2 0x258 JUMPI DUP2 PUSH1 0x3 NOT CALLDATASIZE ADD SLT PUSH2 0x258 JUMPI MLOAD PUSH32 0x0 PUSH1 0x1 PUSH1 0x1 PUSH1 0xA0 SHL SUB AND DUP2 MSTORE PUSH1 0x20 SWAP1 RETURN JUMPDEST SWAP2 SWAP1 POP CALLVALUE PUSH2 0x2EA JUMPI DUP1 PUSH1 0x3 NOT CALLDATASIZE ADD SLT PUSH2 0x2EA JUMPI PUSH2 0x37F SWAP2 CALLDATALOAD PUSH2 0xCFA PUSH1 0x1 PUSH2 0x369 PUSH2 0xEF1 JUMP JUMPDEST PUSH2 0xFC2 JUMP JUMPDEST SWAP1 POP CALLVALUE PUSH2 0x2EA JUMPI PUSH1 0x20 CALLDATASIZE PUSH1 0x3 NOT ADD SLT PUSH2 0x2EA JUMPI DUP2 PUSH1 0x20 SWAP4 PUSH1 0x1 SWAP3 CALLDATALOAD DUP2 MSTORE DUP1 DUP6 MSTORE KECCAK256 ADD SLOAD SWAP1 MLOAD SWAP1 DUP2 MSTORE RETURN JUMPDEST POP POP CALLVALUE PUSH2 0x258 JUMPI DUP2 PUSH1 0x3 NOT CALLDATASIZE ADD SLT PUSH2 0x258 JUMPI PUSH1 0x20 SWAP1 MLOAD PUSH32 0x0 DUP2 MSTORE RETURN JUMPDEST POP POP CALLVALUE PUSH2 0x258 JUMPI DUP2 PUSH1 0x3 NOT CALLDATASIZE ADD SLT PUSH2 0x258 JUMPI PUSH2 0x9E7 SWAP1 PUSH1 0xFF PUSH1 0x2 SLOAD PUSH1 0xA0 SHR AND SWAP1 MLOAD SWAP2 DUP3 SWAP2 DUP3 PUSH2 0xEC8 JUMP JUMPDEST POP POP CALLVALUE PUSH2 0x258 JUMPI DUP2 PUSH1 0x3 NOT CALLDATASIZE ADD SLT PUSH2 0x258 JUMPI PUSH1 0x20 SWAP1 MLOAD PUSH32 0x0 DUP2 MSTORE RETURN JUMPDEST POP POP CALLVALUE PUSH2 0x258 JUMPI DUP2 PUSH1 0x3 NOT CALLDATASIZE ADD SLT PUSH2 0x258 JUMPI PUSH1 0x20 SWAP1 MLOAD PUSH2 0xFFFF PUSH32 0x0 AND DUP2 MSTORE RETURN JUMPDEST POP POP CALLVALUE PUSH2 0x258 JUMPI DUP2 PUSH1 0x3 NOT CALLDATASIZE ADD SLT PUSH2 0x258 JUMPI MLOAD PUSH32 0x0 PUSH1 0x1 PUSH1 0x1 PUSH1 0xA0 SHL SUB AND DUP2 MSTORE PUSH1 0x20 SWAP1 RETURN JUMPDEST POP POP CALLVALUE PUSH2 0x258 JUMPI DUP2 PUSH1 0x3 NOT CALLDATASIZE ADD SLT PUSH2 0x258 JUMPI PUSH1 0x2 SLOAD SWAP1 MLOAD PUSH1 0x1 PUSH1 0x1 PUSH1 0xA0 SHL SUB SWAP1 SWAP2 AND DUP2 MSTORE PUSH1 0x20 SWAP1 RETURN JUMPDEST DUP5 SWAP2 CALLVALUE PUSH2 0x2EA JUMPI PUSH1 0x20 CALLDATASIZE PUSH1 0x3 NOT ADD SLT PUSH2 0x2EA JUMPI CALLDATALOAD PUSH4 0xFFFFFFFF PUSH1 0xE0 SHL DUP2 AND DUP1 SWAP2 SUB PUSH2 0x2EA JUMPI PUSH1 0x20 SWAP3 POP PUSH4 0x7965DB0B PUSH1 0xE0 SHL DUP2 EQ SWAP1 DUP2 ISZERO PUSH2 0xEB7 JUMPI JUMPDEST POP ISZERO ISZERO DUP2 MSTORE RETURN JUMPDEST PUSH4 0x1FFC9A7 PUSH1 0xE0 SHL EQ SWAP1 POP DUP4 PUSH2 0xEB0 JUMP JUMPDEST SWAP2 SWAP1 PUSH1 0x20 DUP4 ADD SWAP3 PUSH1 0x6 DUP3 LT ISZERO PUSH2 0xEDB JUMPI MSTORE JUMP JUMPDEST PUSH4 0x4E487B71 PUSH1 0xE0 SHL PUSH1 0x0 MSTORE PUSH1 0x21 PUSH1 0x4 MSTORE PUSH1 0x24 PUSH1 0x0 REVERT JUMPDEST PUSH1 0x24 CALLDATALOAD SWAP1 PUSH1 0x1 PUSH1 0x1 PUSH1 0xA0 SHL SUB DUP3 AND DUP3 SUB PUSH2 0xF07 JUMPI JUMP JUMPDEST PUSH1 0x0 DUP1 REVERT JUMPDEST PUSH1 0x4 CALLDATALOAD SWAP1 PUSH1 0x1 PUSH1 0x1 PUSH1 0xA0 SHL SUB DUP3 AND DUP3 SUB PUSH2 0xF07 JUMPI JUMP JUMPDEST CALLER PUSH1 0x0 SWAP1 DUP2 MSTORE PUSH32 0x7D7FFB7A348E1C6A02869081A26547B49160DD3DF72D1D75A570EB9B698292EC PUSH1 0x20 MSTORE PUSH1 0x40 SWAP1 KECCAK256 SLOAD PUSH32 0xA49807205CE4D355092EF5A8A18F56E8913CF4A201FBE287825B095693C21775 SWAP1 PUSH1 0xFF AND ISZERO PUSH2 0xF7E JUMPI POP JUMP JUMPDEST PUSH1 0x44 SWAP1 PUSH1 0x40 MLOAD SWAP1 PUSH4 0xE2517D3F PUSH1 0xE0 SHL DUP3 MSTORE CALLER PUSH1 0x4 DUP4 ADD MSTORE PUSH1 0x24 DUP3 ADD MSTORE REVERT JUMPDEST DUP1 PUSH1 0x0 MSTORE PUSH1 0x0 PUSH1 0x20 MSTORE PUSH1 0x40 PUSH1 0x0 KECCAK256 CALLER PUSH1 0x0 MSTORE PUSH1 0x20 MSTORE PUSH1 0xFF PUSH1 0x40 PUSH1 0x0 KECCAK256 SLOAD AND ISZERO PUSH2 0xF7E JUMPI POP JUMP JUMPDEST SWAP1 PUSH1 0x0 SWAP2 DUP1 DUP4 MSTORE DUP3 PUSH1 0x20 MSTORE PUSH1 0x40 DUP4 KECCAK256 SWAP2 PUSH1 0x1 DUP1 PUSH1 0xA0 SHL SUB AND SWAP2 DUP3 DUP5 MSTORE PUSH1 0x20 MSTORE PUSH1 0xFF PUSH1 0x40 DUP5 KECCAK256 SLOAD AND ISZERO PUSH1 0x0 EQ PUSH2 0x103B JUMPI DUP1 DUP4 MSTORE DUP3 PUSH1 0x20 MSTORE PUSH1 0x40 DUP4 KECCAK256 DUP3 DUP5 MSTORE PUSH1 0x20 MSTORE PUSH1 0x40 DUP4 KECCAK256 PUSH1 0x1 PUSH1 0xFF NOT DUP3 SLOAD AND OR SWAP1 SSTORE PUSH32 0x2F8788117E7EFF1D82E926EC794901D17C78024A50270940304540A733656F0D CALLER SWAP4 DUP1 LOG4 PUSH1 0x1 SWAP1 JUMP JUMPDEST POP POP SWAP1 JUMP JUMPDEST SWAP1 PUSH1 0x0 SWAP2 DUP1 DUP4 MSTORE DUP3 PUSH1 0x20 MSTORE PUSH1 0x40 DUP4 KECCAK256 SWAP2 PUSH1 0x1 DUP1 PUSH1 0xA0 SHL SUB AND SWAP2 DUP3 DUP5 MSTORE PUSH1 0x20 MSTORE PUSH1 0xFF PUSH1 0x40 DUP5 KECCAK256 SLOAD AND PUSH1 0x0 EQ PUSH2 0x103B JUMPI DUP1 DUP4 MSTORE DUP3 PUSH1 0x20 MSTORE PUSH1 0x40 DUP4 KECCAK256 DUP3 DUP5 MSTORE PUSH1 0x20 MSTORE PUSH1 0x40 DUP4 KECCAK256 PUSH1 0xFF NOT DUP2 SLOAD AND SWAP1 SSTORE PUSH32 0xF6391F5C32D9C69D2A47EA670B442974B53935D1EDC7FD64EB21E047A839171B CALLER SWAP4 DUP1 LOG4 PUSH1 0x1 SWAP1 JUMP JUMPDEST PUSH1 0x2 PUSH1 0x1 SLOAD EQ PUSH2 0x10C6 JUMPI PUSH1 0x2 PUSH1 0x1 SSTORE JUMP JUMPDEST PUSH1 0x40 MLOAD PUSH4 0x3EE5AEB5 PUSH1 0xE0 SHL DUP2 MSTORE PUSH1 0x4 SWAP1 REVERT JUMPDEST SWAP1 PUSH1 0x1F DUP1 NOT SWAP2 ADD AND DUP2 ADD SWAP1 DUP2 LT PUSH8 0xFFFFFFFFFFFFFFFF DUP3 GT OR PUSH2 0x10FA JUMPI PUSH1 0x40 MSTORE JUMP JUMPDEST PUSH4 0x4E487B71 PUSH1 0xE0 SHL PUSH1 0x0 MSTORE PUSH1 0x41 PUSH1 0x4 MSTORE PUSH1 0x24 PUSH1 0x0 REVERT JUMPDEST SWAP1 PUSH1 0x0 PUSH1 0x20 SWAP2 DUP3 DUP2 MLOAD SWAP2 ADD DUP3 DUP6 GAS CALL ISZERO PUSH2 0x116C JUMPI PUSH1 0x0 MLOAD RETURNDATASIZE PUSH2 0x1163 JUMPI POP PUSH1 0x1 PUSH1 0x1 PUSH1 0xA0 SHL SUB DUP2 AND EXTCODESIZE ISZERO JUMPDEST PUSH2 0x1141 JUMPI POP JUMP JUMPDEST PUSH1 0x40 MLOAD PUSH4 0x5274AFE7 PUSH1 0xE0 SHL DUP2 MSTORE PUSH1 0x1 PUSH1 0x1 PUSH1 0xA0 SHL SUB SWAP1 SWAP2 AND PUSH1 0x4 DUP3 ADD MSTORE PUSH1 0x24 SWAP1 REVERT JUMPDEST PUSH1 0x1 EQ ISZERO PUSH2 0x113A JUMP JUMPDEST PUSH1 0x40 MLOAD RETURNDATASIZE PUSH1 0x0 DUP3 RETURNDATACOPY RETURNDATASIZE SWAP1 REVERT JUMPDEST SWAP2 SWAP1 DUP3 ADD DUP1 SWAP3 GT PUSH2 0x1185 JUMPI JUMP JUMPDEST PUSH4 0x4E487B71 PUSH1 0xE0 SHL PUSH1 0x0 MSTORE PUSH1 0x11 PUSH1 0x4 MSTORE PUSH1 0x24 PUSH1 0x0 REVERT JUMPDEST SWAP2 SWAP1 SWAP2 PUSH2 0x11A6 PUSH2 0x21D2 JUMP JUMPDEST PUSH1 0xFF PUSH1 0x2 SLOAD PUSH1 0xA0 SHR AND PUSH1 0x6 DUP2 LT ISZERO PUSH2 0xEDB JUMPI PUSH1 0x1 SUB PUSH2 0x12FB JUMPI PUSH1 0xFF PUSH1 0x6 SLOAD PUSH1 0x8 SHR AND PUSH2 0x12E9 JUMPI PUSH32 0x0 DUP4 LT PUSH2 0x12D7 JUMPI PUSH1 0x1 DUP1 PUSH1 0xA0 SHL SUB AND PUSH1 0x0 SWAP3 DUP2 DUP5 MSTORE PUSH1 0x7 PUSH1 0x20 MSTORE PUSH1 0x40 SWAP1 PUSH2 0x1216 DUP2 DUP4 DUP8 KECCAK256 SLOAD PUSH2 0x1178 JUMP JUMPDEST PUSH32 0x0 DUP2 GT PUSH2 0x12C6 JUMPI DUP4 DUP7 MSTORE PUSH1 0x7 PUSH1 0x20 MSTORE DUP3 DUP7 KECCAK256 SLOAD ISZERO PUSH2 0x129B JUMPI JUMPDEST DUP3 DUP7 DUP6 PUSH32 0xFA35A310D7113DDDCE1C275DA946348E9AAEBF9050B00B372033C4D84B0BD6EB SWAP7 SWAP8 SWAP9 MSTORE PUSH1 0x7 PUSH1 0x20 MSTORE KECCAK256 SSTORE PUSH2 0x128A DUP2 PUSH1 0x3 SLOAD PUSH2 0x1178 JUMP JUMPDEST DUP1 PUSH1 0x3 SSTORE DUP3 MLOAD SWAP2 DUP3 MSTORE PUSH1 0x20 DUP3 ADD MSTORE LOG2 JUMP JUMPDEST PUSH1 0x4 SLOAD PUSH1 0x0 NOT DUP2 EQ PUSH2 0x12B2 JUMPI PUSH1 0x1 ADD PUSH1 0x4 SSTORE PUSH2 0x124F JUMP JUMPDEST PUSH4 0x4E487B71 PUSH1 0xE0 SHL DUP8 MSTORE PUSH1 0x11 PUSH1 0x4 MSTORE PUSH1 0x24 DUP8 REVERT JUMPDEST DUP3 MLOAD PUSH4 0x5E508CD3 PUSH1 0xE1 SHL DUP2 MSTORE PUSH1 0x4 SWAP1 REVERT JUMPDEST PUSH1 0x40 MLOAD PUSH4 0x6C7591B5 PUSH1 0xE1 SHL DUP2 MSTORE PUSH1 0x4 SWAP1 REVERT JUMPDEST PUSH1 0x40 MLOAD PUSH4 0xAB35696F PUSH1 0xE0 SHL DUP2 MSTORE PUSH1 0x4 SWAP1 REVERT JUMPDEST PUSH1 0x40 MLOAD PUSH4 0x7A92F19 PUSH1 0xE5 SHL DUP2 MSTORE PUSH1 0x4 SWAP1 REVERT JUMPDEST DUP2 DUP2 MUL SWAP3 SWAP2 DUP2 ISZERO SWAP2 DUP5 DIV EQ OR ISZERO PUSH2 0x1185 JUMPI JUMP JUMPDEST DUP2 ISZERO PUSH2 0x132A JUMPI DIV SWAP1 JUMP JUMPDEST PUSH4 0x4E487B71 PUSH1 0xE0 SHL PUSH1 0x0 MSTORE PUSH1 0x12 PUSH1 0x4 MSTORE PUSH1 0x24 PUSH1 0x0 REVERT JUMPDEST SWAP2 SWAP1 DUP3 SUB SWAP2 DUP3 GT PUSH2 0x1185 JUMPI JUMP JUMPDEST SWAP1 DUP2 PUSH1 0x20 SWAP2 SUB SLT PUSH2 0xF07 JUMPI MLOAD DUP1 ISZERO ISZERO DUP2 SUB PUSH2 0xF07 JUMPI SWAP1 JUMP JUMPDEST RETURNDATASIZE ISZERO PUSH2 0x13A0 JUMPI RETURNDATASIZE SWAP1 PUSH8 0xFFFFFFFFFFFFFFFF DUP3 GT PUSH2 0x10FA JUMPI PUSH1 0x40 MLOAD SWAP2 PUSH2 0x1394 PUSH1 0x1F DUP3 ADD PUSH1 0x1F NOT AND PUSH1 0x20 ADD DUP5 PUSH2 0x10D8 JUMP JUMPDEST DUP3 MSTORE RETURNDATASIZE PUSH1 0x0 PUSH1 0x20 DUP5 ADD RETURNDATACOPY JUMP JUMPDEST PUSH1 0x60 SWAP1 JUMP JUMPDEST PUSH2 0x13AD PUSH2 0x21D2 JUMP JUMPDEST PUSH1 0x2 SLOAD PUSH1 0x0 PUSH1 0xFF DUP3 PUSH1 0xA0 SHR AND PUSH1 0x6 DUP2 LT ISZERO PUSH2 0x2141 JUMPI PUSH1 0x2 SUB PUSH2 0x12FB JUMPI PUSH1 0x6 SLOAD PUSH1 0xFF DUP2 AND PUSH2 0x12FB JUMPI PUSH1 0xFF NOT AND PUSH1 0x1 OR PUSH1 0x6 SSTORE PUSH1 0x3 SLOAD SWAP2 PUSH32 0x0 DUP4 LT PUSH2 0x210A JUMPI POP PUSH8 0xDE0B6B3A7640000 DUP1 DUP4 MUL SWAP2 DUP4 ISZERO SWAP3 DUP5 DUP2 DIV DUP4 EQ DUP5 OR ISZERO PUSH2 0x20F6 JUMPI PUSH2 0x1451 SWAP1 PUSH32 0x0 SWAP1 PUSH2 0x1320 JUMP JUMPDEST PUSH1 0x5 SSTORE PUSH2 0x1F4 SWAP3 DUP4 DUP6 MUL SWAP4 DUP6 DUP6 DIV EQ OR ISZERO PUSH2 0x20E2 JUMPI PUSH2 0x1476 PUSH2 0x2710 DUP1 SWAP5 DIV DUP1 SWAP6 PUSH2 0x1340 JUMP JUMPDEST SWAP4 PUSH32 0x0 PUSH1 0x1 PUSH1 0x1 PUSH1 0xA0 SHL SUB AND PUSH2 0x2086 JUMPI PUSH32 0x0 PUSH1 0x1 PUSH1 0x1 PUSH1 0xA0 SHL SUB AND DUP1 EXTCODESIZE ISZERO PUSH2 0x2EA JUMPI DUP3 SWAP1 PUSH1 0x24 PUSH1 0x40 MLOAD DUP1 SWAP5 DUP2 SWAP4 PUSH4 0x39650D1F PUSH1 0xE0 SHL DUP4 MSTORE ADDRESS PUSH1 0x4 DUP5 ADD MSTORE GAS CALL DUP1 ISZERO PUSH2 0x1D02 JUMPI PUSH2 0x205A JUMPI JUMPDEST POP SWAP1 JUMPDEST DUP3 PUSH2 0x152C PUSH32 0x0 DUP7 PUSH2 0x130D JUMP JUMPDEST DIV SWAP3 PUSH1 0x5 SLOAD PUSH2 0xFFFF PUSH32 0x0 AND DUP3 ADD SWAP1 DUP2 DUP4 GT PUSH2 0x1C80 JUMPI SWAP1 PUSH2 0x156A SWAP2 PUSH2 0x130D JUMP JUMPDEST DIV SWAP1 DUP1 DUP5 MUL SWAP1 DUP5 DUP3 DIV EQ DUP5 ISZERO OR ISZERO PUSH2 0x1D79 JUMPI SWAP1 PUSH2 0x1586 SWAP2 PUSH2 0x1320 JUMP JUMPDEST PUSH1 0x40 MLOAD PUSH4 0x95EA7B3 PUSH1 0xE0 SHL DUP2 MSTORE PUSH32 0x0 PUSH1 0x1 PUSH1 0x1 PUSH1 0xA0 SHL SUB AND PUSH1 0x4 DUP3 ADD MSTORE PUSH1 0x24 DUP2 ADD DUP3 SWAP1 MSTORE PUSH1 0x20 DUP2 DUP1 PUSH1 0x44 DUP2 ADD SUB DUP2 DUP7 PUSH32 0x0 PUSH1 0x1 PUSH1 0x1 PUSH1 0xA0 SHL SUB AND GAS CALL DUP1 ISZERO PUSH2 0x1CC8 JUMPI PUSH2 0x203B JUMPI JUMPDEST POP PUSH32 0x0 PUSH1 0x1 PUSH1 0x1 PUSH1 0xA0 SHL SUB AND PUSH2 0x1D8D JUMPI PUSH2 0x12C TIMESTAMP ADD DUP1 TIMESTAMP GT PUSH2 0x1D79 JUMPI PUSH1 0x40 MLOAD SWAP2 PUSH4 0xF305D719 PUSH1 0xE0 SHL DUP4 MSTORE PUSH1 0x1 DUP1 PUSH1 0xA0 SHL SUB PUSH32 0x0 AND PUSH1 0x4 DUP5 ADD MSTORE PUSH1 0x24 DUP4 ADD MSTORE DUP3 PUSH1 0x44 DUP4 ADD MSTORE DUP3 PUSH1 0x64 DUP4 ADD MSTORE ADDRESS PUSH1 0x84 DUP4 ADD MSTORE PUSH1 0xA4 DUP3 ADD MSTORE PUSH1 0x60 DUP2 PUSH1 0xC4 DUP2 DUP7 PUSH1 0x1 DUP1 PUSH1 0xA0 SHL SUB PUSH32 0x0 AND GAS CALL DUP1 ISZERO PUSH2 0x1D02 JUMPI PUSH2 0x1D4B JUMPI JUMPDEST POP PUSH1 0x40 MLOAD PUSH4 0xC45A0155 PUSH1 0xE0 SHL DUP2 MSTORE PUSH1 0x20 DUP2 PUSH1 0x4 DUP2 PUSH32 0x0 PUSH1 0x1 PUSH1 0x1 PUSH1 0xA0 SHL SUB AND GAS STATICCALL SWAP1 DUP2 ISZERO PUSH2 0x1D02 JUMPI DUP3 SWAP2 PUSH2 0x1D2C JUMPI JUMPDEST POP PUSH1 0x40 MLOAD PUSH4 0x15AB88C9 PUSH1 0xE3 SHL DUP2 MSTORE SWAP1 PUSH1 0x20 DUP3 PUSH1 0x4 DUP2 PUSH32 0x0 PUSH1 0x1 PUSH1 0x1 PUSH1 0xA0 SHL SUB AND GAS STATICCALL SWAP2 DUP3 ISZERO PUSH2 0x1CC8 JUMPI SWAP2 PUSH1 0x20 SWAP2 PUSH2 0x17D6 SWAP4 DUP6 SWAP3 PUSH2 0x1D0D JUMPI JUMPDEST POP PUSH1 0x40 MLOAD PUSH4 0xE6A43905 PUSH1 0xE0 SHL DUP2 MSTORE PUSH1 0x1 PUSH1 0x1 PUSH1 0xA0 SHL SUB PUSH32 0x0 DUP2 AND PUSH1 0x4 DUP4 ADD MSTORE SWAP1 SWAP3 AND PUSH1 0x24 DUP4 ADD MSTORE SWAP1 SWAP3 DUP4 SWAP2 SWAP1 DUP3 SWAP1 DUP2 SWAP1 PUSH1 0x44 DUP3 ADD SWAP1 JUMP JUMPDEST SUB SWAP2 PUSH1 0x1 PUSH1 0x1 PUSH1 0xA0 SHL SUB AND GAS STATICCALL SWAP1 DUP2 ISZERO PUSH2 0x1D02 JUMPI DUP3 SWAP2 PUSH2 0x1CD3 JUMPI JUMPDEST POP SWAP3 JUMPDEST PUSH1 0x40 MLOAD PUSH4 0x70A08231 PUSH1 0xE0 SHL DUP2 MSTORE ADDRESS PUSH1 0x4 DUP3 ADD MSTORE SWAP3 PUSH1 0x20 DUP5 PUSH1 0x24 DUP2 PUSH1 0x1 PUSH1 0x1 PUSH1 0xA0 SHL SUB DUP10 AND GAS STATICCALL SWAP4 DUP5 ISZERO PUSH2 0x1CC8 JUMPI DUP4 SWAP5 PUSH2 0x1C94 JUMPI JUMPDEST POP PUSH32 0x0 PUSH3 0x278D00 SWAP1 DUP1 DUP3 DUP2 MUL DIV DUP3 EQ DUP2 ISZERO OR ISZERO PUSH2 0x1C80 JUMPI PUSH2 0x1869 SWAP2 MUL TIMESTAMP PUSH2 0x1178 JUMP JUMPDEST PUSH1 0x2 SLOAD PUSH1 0x40 MLOAD PUSH4 0x95EA7B3 PUSH1 0xE0 SHL DUP2 MSTORE PUSH1 0x1 PUSH1 0x1 PUSH1 0xA0 SHL SUB SWAP1 SWAP2 AND PUSH1 0x4 DUP3 ADD MSTORE PUSH1 0x24 DUP2 ADD DUP7 SWAP1 MSTORE PUSH1 0x20 DUP2 DUP1 PUSH1 0x44 DUP2 ADD SUB DUP2 DUP9 PUSH1 0x1 PUSH1 0x1 PUSH1 0xA0 SHL SUB DUP13 AND GAS CALL DUP1 ISZERO PUSH2 0x1C46 JUMPI PUSH2 0x1C51 JUMPI JUMPDEST POP PUSH1 0x2 SLOAD PUSH1 0x40 MLOAD PUSH4 0xAA393F3 PUSH1 0xE0 SHL DUP2 MSTORE PUSH1 0x1 PUSH1 0x1 PUSH1 0xA0 SHL SUB DUP9 DUP2 AND PUSH1 0x4 DUP4 ADD MSTORE PUSH1 0x24 DUP3 ADD DUP9 SWAP1 MSTORE PUSH1 0x44 DUP3 ADD DUP5 SWAP1 MSTORE PUSH32 0x0 DUP2 AND PUSH1 0x64 DUP4 ADD MSTORE SWAP1 SWAP2 PUSH1 0x20 SWAP2 DUP4 SWAP2 PUSH1 0x84 SWAP2 DUP4 SWAP2 DUP11 SWAP2 AND GAS CALL DUP1 ISZERO PUSH2 0x1C46 JUMPI PUSH2 0x1C1B JUMPI JUMPDEST POP PUSH1 0x40 MLOAD SWAP1 DUP6 DUP3 MSTORE PUSH1 0x20 DUP3 ADD MSTORE PUSH32 0xAC1D76749E5447B7B16F5AB61447E1BD502F3BB4807AF3B28E620D1700A6EE45 PUSH1 0x40 PUSH1 0x1 DUP1 PUSH1 0xA0 SHL SUB DUP9 AND SWAP3 LOG2 PUSH32 0x0 PUSH1 0x1 PUSH1 0x1 PUSH1 0xA0 SHL SUB AND PUSH2 0x1AEF JUMPI JUMPDEST PUSH2 0x1998 SWAP2 PUSH2 0x1340 JUMP JUMPDEST PUSH32 0x0 PUSH1 0x1 PUSH1 0x1 PUSH1 0xA0 SHL SUB AND PUSH2 0x1A6D JUMPI DUP2 DUP1 DUP1 SWAP3 PUSH32 0x0 GAS CALL PUSH2 0x19F5 PUSH2 0x1365 JUMP JUMPDEST POP ISZERO PUSH2 0x1A5B JUMPI PUSH32 0x6E4389167D2AFBD1CCB4797EA87E29958ADBF74CD16BA077A2EE5AB8460784E5 SWAP2 PUSH1 0x80 SWAP2 JUMPDEST PUSH1 0x3 PUSH1 0xA0 SHL PUSH1 0xFF PUSH1 0xA0 SHL NOT PUSH1 0x2 SLOAD AND OR PUSH1 0x2 SSTORE PUSH1 0x5 SLOAD SWAP2 PUSH1 0x3 SLOAD PUSH1 0x40 MLOAD SWAP4 DUP5 MSTORE PUSH1 0x20 DUP5 ADD MSTORE PUSH1 0x1 DUP1 PUSH1 0xA0 SHL SUB AND PUSH1 0x40 DUP4 ADD MSTORE PUSH1 0x60 DUP3 ADD MSTORE LOG1 JUMP JUMPDEST PUSH1 0x40 MLOAD PUSH4 0x12171D83 PUSH1 0xE3 SHL DUP2 MSTORE PUSH1 0x4 SWAP1 REVERT JUMPDEST PUSH32 0x6E4389167D2AFBD1CCB4797EA87E29958ADBF74CD16BA077A2EE5AB8460784E5 SWAP4 PUSH1 0x80 SWAP4 SWAP1 SWAP3 POP SWAP1 PUSH2 0x1AEA SWAP1 PUSH32 0x0 PUSH32 0x0 PUSH1 0x1 PUSH1 0x1 PUSH1 0xA0 SHL SUB AND PUSH2 0x2155 JUMP JUMPDEST PUSH2 0x1A21 JUMP JUMPDEST PUSH1 0x40 MLOAD PUSH4 0x70A08231 PUSH1 0xE0 SHL DUP2 MSTORE ADDRESS PUSH1 0x4 DUP3 ADD MSTORE SWAP2 PUSH1 0x20 DUP4 PUSH1 0x24 DUP2 PUSH32 0x0 PUSH1 0x1 PUSH1 0x1 PUSH1 0xA0 SHL SUB AND GAS STATICCALL SWAP3 DUP4 ISZERO PUSH2 0x1C10 JUMPI DUP5 SWAP4 PUSH2 0x1BDA JUMPI JUMPDEST POP PUSH2 0x1B72 PUSH2 0x1998 SWAP4 PUSH32 0x0 SWAP1 PUSH2 0x1340 JUMP JUMPDEST DUP1 PUSH2 0x1B80 JUMPI JUMPDEST POP SWAP2 POP PUSH2 0x198F JUMP JUMPDEST PUSH2 0x1BD4 SWAP1 PUSH32 0x0 PUSH32 0x0 PUSH1 0x1 PUSH1 0x1 PUSH1 0xA0 SHL SUB AND PUSH2 0x2155 JUMP JUMPDEST CODESIZE PUSH2 0x1B78 JUMP JUMPDEST SWAP3 POP PUSH1 0x20 DUP4 RETURNDATASIZE PUSH1 0x20 GT PUSH2 0x1C08 JUMPI JUMPDEST DUP2 PUSH2 0x1BF5 PUSH1 0x20 SWAP4 DUP4 PUSH2 0x10D8 JUMP JUMPDEST DUP2 ADD SUB SLT PUSH2 0xF07 JUMPI SWAP2 MLOAD SWAP2 PUSH2 0x1B72 PUSH2 0x1B43 JUMP JUMPDEST RETURNDATASIZE SWAP2 POP PUSH2 0x1BE8 JUMP JUMPDEST PUSH1 0x40 MLOAD RETURNDATASIZE DUP7 DUP3 RETURNDATACOPY RETURNDATASIZE SWAP1 REVERT JUMPDEST PUSH1 0x20 SWAP1 DUP2 RETURNDATASIZE DUP4 GT PUSH2 0x1C3F JUMPI JUMPDEST PUSH2 0x1C31 DUP2 DUP4 PUSH2 0x10D8 JUMP JUMPDEST DUP2 ADD SUB SLT PUSH2 0xF07 JUMPI CODESIZE PUSH2 0x1925 JUMP JUMPDEST POP RETURNDATASIZE PUSH2 0x1C27 JUMP JUMPDEST PUSH1 0x40 MLOAD RETURNDATASIZE DUP8 DUP3 RETURNDATACOPY RETURNDATASIZE SWAP1 REVERT JUMPDEST PUSH2 0x1C72 SWAP1 PUSH1 0x20 RETURNDATASIZE PUSH1 0x20 GT PUSH2 0x1C79 JUMPI JUMPDEST PUSH2 0x1C6A DUP2 DUP4 PUSH2 0x10D8 JUMP JUMPDEST DUP2 ADD SWAP1 PUSH2 0x134D JUMP JUMPDEST POP CODESIZE PUSH2 0x18B2 JUMP JUMPDEST POP RETURNDATASIZE PUSH2 0x1C60 JUMP JUMPDEST PUSH4 0x4E487B71 PUSH1 0xE0 SHL DUP6 MSTORE PUSH1 0x11 PUSH1 0x4 MSTORE PUSH1 0x24 DUP6 REVERT JUMPDEST SWAP1 SWAP4 POP PUSH1 0x20 DUP2 RETURNDATASIZE PUSH1 0x20 GT PUSH2 0x1CC0 JUMPI JUMPDEST DUP2 PUSH2 0x1CB0 PUSH1 0x20 SWAP4 DUP4 PUSH2 0x10D8 JUMP JUMPDEST DUP2 ADD SUB SLT PUSH2 0xF07 JUMPI MLOAD SWAP3 CODESIZE PUSH2 0x1828 JUMP JUMPDEST RETURNDATASIZE SWAP2 POP PUSH2 0x1CA3 JUMP JUMPDEST PUSH1 0x40 MLOAD RETURNDATASIZE DUP6 DUP3 RETURNDATACOPY RETURNDATASIZE SWAP1 REVERT JUMPDEST PUSH2 0x1CF5 SWAP2 POP PUSH1 0x20 RETURNDATASIZE PUSH1 0x20 GT PUSH2 0x1CFB JUMPI JUMPDEST PUSH2 0x1CED DUP2 DUP4 PUSH2 0x10D8 JUMP JUMPDEST DUP2 ADD SWAP1 PUSH2 0x21B3 JUMP JUMPDEST CODESIZE PUSH2 0x17F1 JUMP JUMPDEST POP RETURNDATASIZE PUSH2 0x1CE3 JUMP JUMPDEST PUSH1 0x40 MLOAD RETURNDATASIZE DUP5 DUP3 RETURNDATACOPY RETURNDATASIZE SWAP1 REVERT JUMPDEST PUSH2 0x1D25 SWAP2 SWAP3 POP DUP4 RETURNDATASIZE DUP6 GT PUSH2 0x1CFB JUMPI PUSH2 0x1CED DUP2 DUP4 PUSH2 0x10D8 JUMP JUMPDEST SWAP1 CODESIZE PUSH2 0x1780 JUMP JUMPDEST PUSH2 0x1D45 SWAP2 POP PUSH1 0x20 RETURNDATASIZE PUSH1 0x20 GT PUSH2 0x1CFB JUMPI PUSH2 0x1CED DUP2 DUP4 PUSH2 0x10D8 JUMP JUMPDEST CODESIZE PUSH2 0x1729 JUMP JUMPDEST PUSH2 0x1D6B SWAP1 PUSH1 0x60 RETURNDATASIZE DUP2 GT PUSH2 0x1D72 JUMPI JUMPDEST PUSH2 0x1D63 DUP2 DUP4 PUSH2 0x10D8 JUMP JUMPDEST DUP2 ADD SWAP1 PUSH2 0x2198 JUMP JUMPDEST POP POP PUSH2 0x16DB JUMP JUMPDEST POP RETURNDATASIZE PUSH2 0x1D59 JUMP JUMPDEST PUSH4 0x4E487B71 PUSH1 0xE0 SHL DUP4 MSTORE PUSH1 0x11 PUSH1 0x4 MSTORE PUSH1 0x24 DUP4 REVERT JUMPDEST PUSH1 0x40 MLOAD PUSH4 0x95EA7B3 PUSH1 0xE0 SHL DUP2 MSTORE PUSH32 0x0 PUSH1 0x1 PUSH1 0x1 PUSH1 0xA0 SHL SUB AND PUSH1 0x4 DUP3 ADD MSTORE PUSH1 0x24 DUP2 ADD DUP5 SWAP1 MSTORE PUSH1 0x20 DUP2 DUP1 PUSH1 0x44 DUP2 ADD SUB DUP2 DUP7 PUSH32 0x0 PUSH1 0x1 PUSH1 0x1 PUSH1 0xA0 SHL SUB AND GAS CALL DUP1 ISZERO PUSH2 0x1CC8 JUMPI PUSH2 0x201C JUMPI JUMPDEST POP PUSH2 0x12C TIMESTAMP ADD DUP1 TIMESTAMP GT PUSH2 0x1D79 JUMPI PUSH1 0x40 MLOAD SWAP2 PUSH3 0xE8E337 PUSH1 0xE8 SHL DUP4 MSTORE PUSH1 0x1 DUP1 PUSH1 0xA0 SHL SUB PUSH32 0x0 AND PUSH1 0x4 DUP5 ADD MSTORE PUSH1 0x1 DUP1 PUSH1 0xA0 SHL SUB PUSH32 0x0 AND PUSH1 0x24 DUP5 ADD MSTORE PUSH1 0x44 DUP4 ADD MSTORE DUP4 PUSH1 0x64 DUP4 ADD MSTORE DUP3 PUSH1 0x84 DUP4 ADD MSTORE DUP3 PUSH1 0xA4 DUP4 ADD MSTORE ADDRESS PUSH1 0xC4 DUP4 ADD MSTORE PUSH1 0xE4 DUP3 ADD MSTORE PUSH1 0x60 DUP2 PUSH2 0x104 DUP2 DUP6 PUSH1 0x1 DUP1 PUSH1 0xA0 SHL SUB PUSH32 0x0 AND GAS CALL DUP1 ISZERO PUSH2 0x1D02 JUMPI PUSH2 0x1FFE JUMPI JUMPDEST POP PUSH1 0x40 MLOAD PUSH4 0xC45A0155 PUSH1 0xE0 SHL DUP2 MSTORE PUSH1 0x20 DUP2 PUSH1 0x4 DUP2 PUSH32 0x0 PUSH1 0x1 PUSH1 0x1 PUSH1 0xA0 SHL SUB AND GAS STATICCALL SWAP1 DUP2 ISZERO PUSH2 0x1D02 JUMPI DUP3 SWAP2 PUSH2 0x1FDF JUMPI JUMPDEST POP PUSH1 0x40 MLOAD PUSH4 0xE6A43905 PUSH1 0xE0 SHL DUP2 MSTORE PUSH1 0x1 PUSH1 0x1 PUSH1 0xA0 SHL SUB PUSH32 0x0 DUP2 AND PUSH1 0x4 DUP4 ADD MSTORE PUSH32 0x0 DUP2 AND PUSH1 0x24 DUP4 ADD MSTORE SWAP1 SWAP2 PUSH1 0x20 SWAP2 DUP4 SWAP2 PUSH1 0x44 SWAP2 DUP4 SWAP2 AND GAS STATICCALL SWAP1 DUP2 ISZERO PUSH2 0x1D02 JUMPI DUP3 SWAP2 PUSH2 0x1FC0 JUMPI JUMPDEST POP SWAP3 PUSH2 0x17F4 JUMP JUMPDEST PUSH2 0x1FD9 SWAP2 POP PUSH1 0x20 RETURNDATASIZE PUSH1 0x20 GT PUSH2 0x1CFB JUMPI PUSH2 0x1CED DUP2 DUP4 PUSH2 0x10D8 JUMP JUMPDEST CODESIZE PUSH2 0x1FB9 JUMP JUMPDEST PUSH2 0x1FF8 SWAP2 POP PUSH1 0x20 RETURNDATASIZE PUSH1 0x20 GT PUSH2 0x1CFB JUMPI PUSH2 0x1CED DUP2 DUP4 PUSH2 0x10D8 JUMP JUMPDEST CODESIZE PUSH2 0x1F36 JUMP JUMPDEST PUSH2 0x2015 SWAP1 PUSH1 0x60 RETURNDATASIZE DUP2 GT PUSH2 0x1D72 JUMPI PUSH2 0x1D63 DUP2 DUP4 PUSH2 0x10D8 JUMP JUMPDEST POP POP PUSH2 0x1EE8 JUMP JUMPDEST PUSH2 0x2034 SWAP1 PUSH1 0x20 RETURNDATASIZE PUSH1 0x20 GT PUSH2 0x1C79 JUMPI PUSH2 0x1C6A DUP2 DUP4 PUSH2 0x10D8 JUMP JUMPDEST POP CODESIZE PUSH2 0x1E12 JUMP JUMPDEST PUSH2 0x2053 SWAP1 PUSH1 0x20 RETURNDATASIZE PUSH1 0x20 GT PUSH2 0x1C79 JUMPI PUSH2 0x1C6A DUP2 DUP4 PUSH2 0x10D8 JUMP JUMPDEST POP CODESIZE PUSH2 0x160B JUMP JUMPDEST PUSH8 0xFFFFFFFFFFFFFFFF DUP2 GT PUSH2 0x2072 JUMPI PUSH1 0x40 MSTORE CODESIZE PUSH2 0x14FE JUMP JUMPDEST PUSH4 0x4E487B71 PUSH1 0xE0 SHL DUP3 MSTORE PUSH1 0x41 PUSH1 0x4 MSTORE PUSH1 0x24 DUP3 REVERT JUMPDEST SWAP1 SWAP2 SWAP1 PUSH2 0x20DD SWAP1 PUSH32 0x0 PUSH32 0x0 PUSH1 0x1 PUSH1 0x1 PUSH1 0xA0 SHL SUB AND PUSH2 0x2155 JUMP JUMPDEST PUSH2 0x1501 JUMP JUMPDEST PUSH4 0x4E487B71 PUSH1 0xE0 SHL DUP2 MSTORE PUSH1 0x11 PUSH1 0x4 MSTORE PUSH1 0x24 SWAP1 REVERT JUMPDEST PUSH4 0x4E487B71 PUSH1 0xE0 SHL DUP3 MSTORE PUSH1 0x11 PUSH1 0x4 MSTORE PUSH1 0x24 DUP3 REVERT JUMPDEST PUSH1 0xFF PUSH1 0xA0 SHL NOT AND PUSH1 0x1 PUSH1 0xA2 SHL OR PUSH1 0x2 SSTORE PUSH32 0xE48846A3DCA191C762AB6AAA1E929CCAF55E31A875FB78AD1B93E15EF4830ACA SWAP2 POP DUP1 LOG1 JUMP JUMPDEST PUSH4 0x4E487B71 PUSH1 0xE0 SHL DUP3 MSTORE PUSH1 0x21 PUSH1 0x4 MSTORE PUSH1 0x24 DUP3 REVERT JUMPDEST PUSH1 0x40 MLOAD PUSH4 0xA9059CBB PUSH1 0xE0 SHL PUSH1 0x20 DUP3 ADD MSTORE PUSH1 0x1 PUSH1 0x1 PUSH1 0xA0 SHL SUB SWAP3 SWAP1 SWAP3 AND PUSH1 0x24 DUP4 ADD MSTORE PUSH1 0x44 DUP1 DUP4 ADD SWAP4 SWAP1 SWAP4 MSTORE SWAP2 DUP2 MSTORE PUSH2 0x2196 SWAP2 PUSH2 0x2191 PUSH1 0x64 DUP4 PUSH2 0x10D8 JUMP JUMPDEST PUSH2 0x1110 JUMP JUMPDEST JUMP JUMPDEST SWAP1 DUP2 PUSH1 0x60 SWAP2 SUB SLT PUSH2 0xF07 JUMPI DUP1 MLOAD SWAP2 PUSH1 0x40 PUSH1 0x20 DUP4 ADD MLOAD SWAP3 ADD MLOAD SWAP1 JUMP JUMPDEST SWAP1 DUP2 PUSH1 0x20 SWAP2 SUB SLT PUSH2 0xF07 JUMPI MLOAD PUSH1 0x1 PUSH1 0x1 PUSH1 0xA0 SHL SUB DUP2 AND DUP2 SUB PUSH2 0xF07 JUMPI SWAP1 JUMP JUMPDEST PUSH1 0x2 SLOAD PUSH1 0xFF DUP2 PUSH1 0xA0 SHR AND PUSH1 0x6 DUP2 LT ISZERO PUSH2 0xEDB JUMPI DUP1 ISZERO DUP1 PUSH2 0x2255 JUMPI JUMPDEST ISZERO PUSH2 0x2209 JUMPI POP POP PUSH1 0x2 DUP1 SLOAD PUSH1 0xFF PUSH1 0xA0 SHL NOT AND PUSH1 0x1 PUSH1 0xA0 SHL OR SWAP1 SSTORE JUMP JUMPDEST PUSH1 0x1 EQ DUP1 PUSH2 0x222B JUMPI JUMPDEST PUSH2 0x2219 JUMPI POP JUMP JUMPDEST PUSH1 0xFF PUSH1 0xA0 SHL NOT AND PUSH1 0x1 PUSH1 0xA1 SHL OR PUSH1 0x2 SSTORE JUMP JUMPDEST POP PUSH32 0x0 TIMESTAMP LT ISZERO PUSH2 0x2212 JUMP JUMPDEST POP PUSH32 0x0 TIMESTAMP LT ISZERO PUSH2 0x21ED JUMP JUMPDEST PUSH1 0xFF PUSH1 0x2 SLOAD PUSH1 0xA0 SHR AND PUSH1 0x6 DUP2 LT ISZERO PUSH2 0xEDB JUMPI DUP1 ISZERO DUP1 PUSH2 0x22E5 JUMPI JUMPDEST ISZERO PUSH2 0x22A4 JUMPI POP PUSH1 0x1 SWAP1 JUMP JUMPDEST PUSH1 0x1 DUP2 EQ DUP1 PUSH2 0x22BB JUMPI JUMPDEST PUSH2 0x22B5 JUMPI SWAP1 JUMP JUMPDEST POP PUSH1 0x2 SWAP1 JUMP JUMPDEST POP PUSH32 0x0 TIMESTAMP LT ISZERO PUSH2 0x22AE JUMP JUMPDEST POP PUSH32 0x0 TIMESTAMP LT ISZERO PUSH2 0x2299 JUMP JUMPDEST PUSH1 0xFF PUSH1 0x2 SLOAD PUSH1 0xA0 SHR AND PUSH1 0x6 DUP2 LT ISZERO PUSH2 0xEDB JUMPI PUSH1 0x3 SUB PUSH2 0x2384 JUMPI PUSH1 0x3 SLOAD DUP1 ISZERO PUSH2 0x237D JUMPI PUSH2 0x237A SWAP2 PUSH1 0x1 DUP1 PUSH1 0xA0 SHL SUB AND PUSH1 0x0 MSTORE PUSH1 0x7 PUSH1 0x20 MSTORE PUSH2 0x2375 PUSH1 0x40 PUSH1 0x0 KECCAK256 SLOAD PUSH32 0x0 SWAP1 PUSH2 0x130D JUMP JUMPDEST PUSH2 0x1320 JUMP JUMPDEST SWAP1 JUMP JUMPDEST POP POP PUSH1 0x0 SWAP1 JUMP JUMPDEST POP PUSH1 0x0 SWAP1 JUMP INVALID LOG2 PUSH5 0x6970667358 0x22 SLT KECCAK256 PUSH16 0x7083B8B1B3CE9203BB789C244C0D7524 SIGNEXTEND CALL PUSH21 0x5773E585798F7BA4D437973864736F6C6343000814 STOP CALLER 0x2F DUP8 DUP9 GT PUSH31 0x7EFF1D82E926EC794901D17C78024A50270940304540A733656F0D00000000 "},"deployedBytecode":{"immutableReferences":{"1262":[{"length":32,"start":2593},{"length":32,"start":2828},{"length":32,"start":5590},{"length":32,"start":5725},{"length":32,"start":6040},{"length":32,"start":6923},{"length":32,"start":7079},{"length":32,"start":7733},{"length":32,"start":8014}],"1264":[{"length":32,"start":774},{"length":32,"start":1721},{"length":32,"start":2300},{"length":32,"start":3238},{"length":32,"start":5241},{"length":32,"start":5646},{"length":32,"start":6554},{"length":32,"start":6845},{"length":32,"start":7645},{"length":32,"start":7779},{"length":32,"start":8054},{"length":32,"start":8368}],"1266":[{"length":32,"start":565},{"length":32,"start":5092}],"1268":[{"length":32,"start":2748},{"length":32,"start":3494},{"length":32,"start":5164},{"length":32,"start":6989},{"length":32,"start":9040}],"1270":[{"length":32,"start":1225},{"length":32,"start":4558}],"1272":[{"length":32,"start":1516},{"length":32,"start":4632}],"1274":[{"length":32,"start":1909},{"length":32,"start":8792},{"length":32,"start":8936}],"1276":[{"length":32,"start":3182},{"length":32,"start":8750},{"length":32,"start":8894}],"1278":[{"length":32,"start":3556},{"length":32,"start":5430}],"1280":[{"length":32,"start":2154},{"length":32,"start":5287},{"length":32,"start":8335}],"1282":[{"length":32,"start":2086},{"length":32,"start":6498},{"length":32,"start":7046}],"1284":[{"length":32,"start":1281},{"length":32,"start":6371},{"length":32,"start":6604},{"length":32,"start":6812}],"1287":[{"length":32,"start":3613},{"length":32,"start":5525},{"length":32,"start":5806},{"length":32,"start":5873},{"length":32,"start":5952},{"length":32,"start":7580},{"length":32,"start":7867},{"length":32,"start":7934}],"1292":[{"length":32,"start":1166},{"length":32,"start":5383}],"1294":[{"length":32,"start":1575},{"length":32,"start":6187}],"1296":[{"length":32,"start":3393}]},"linkReferences":{},"object":"608060408181526004918236101561001657600080fd5b600092833560e01c91826301ffc9a714610e755750816303fc201314610e4c5781630758d92414610e085781630b7c1ae114610dc957816312aef8c314610d8e5781631cc645441461054b578163200d2ed214610d64578163220c095614610d29578163248a9ca314610cff5781632f2ff15d14610cd55781633013ce2914610c915781633197cbb614610c56578163362f04c014610c3857816336568abe14610bf25781633f4ba83a14610ba757816342e94c90146103a257816348c54b9d14610a505781634b60ce7714610a0c5781634bb278f3146109eb5781634e69d560146109be578163590e1ae3146108995781636052970c14610855578163619f3d6c1461081157816373b2e80e146107d357816375b238fc1461079857816378e979251461075d5781638160059a146106995781638456cb591461064a5781638bcd85151461060f5781638d3d6576146105d45781638d4e4083146105b057816391d148541461056a5781639ce05df71461054b578163a217fddf14610530578163a4475ce4146104ec578163aaffadf3146104b1578163b068375514610476578163b187bd261461044f578163b524f87b14610407578163b920ade2146103da578163bb8b2b47146103a2578163c5c4744c14610383578163d547741f14610344578163d7bb99ba146102ee578163ea8a1af01461025c575063f89be5931461021f57600080fd5b34610258578160031936011261025857602090517f00000000000000000000000000000000000000000000000000000000000000008152f35b5080fd5b9050346102ea57826003193601126102ea57610276610f22565b6002549160ff8360a01c1660068110156102d7576003146102ca57505060ff60a01b1916600560a01b176002557f63b958841f79ab97cb5456da181454b9932c0e15a3b17f1cbd27e2a8bc6104378180a180f35b516307a92f1960e51b8152fd5b634e487b7160e01b855260218352602485fd5b8280fd5b919050826003193601126102ea576103046110b5565b7f00000000000000000000000000000000000000000000000000000000000000006001600160a01b03166102ca578261033d343361119b565b6001805580f35b919050346102ea57806003193601126102ea5761037f913561037a6001610369610ef1565b938387528660205286200154610f9c565b611040565b5080f35b5050346102585781600319360112610258576020906003549051908152f35b5050346102585760203660031901126102585760209181906001600160a01b036103ca610f0c565b1681526007845220549051908152f35b505034610258576020366003190112610258576020906104006103fb610f0c565b61230f565b9051908152f35b833461044c57602036600319011261044c57610421610f0c565b610429610f22565b60018060a01b03166bffffffffffffffffffffffff60a01b600254161760025580f35b80fd5b50503461025857816003193601126102585760209060ff60065460081c1690519015158152f35b505034610258578160031936011261025857602090517f00000000000000000000000000000000000000000000000000000000000000008152f35b505034610258578160031936011261025857602090517f00000000000000000000000000000000000000000000000000000000000000008152f35b505034610258578160031936011261025857517f00000000000000000000000000000000000000000000000000000000000000006001600160a01b03168152602090f35b50503461025857816003193601126102585751908152602090f35b5050346102585781600319360112610258576020906005549051908152f35b9050346102ea57816003193601126102ea578160209360ff9261058b610ef1565b903582528186528282206001600160a01b039091168252855220549151911615158152f35b50503461025857816003193601126102585760209060ff6006541690519015158152f35b505034610258578160031936011261025857602090517f00000000000000000000000000000000000000000000000000000000000000008152f35b505034610258578160031936011261025857602090517f00000000000000000000000000000000000000000000000000000000000000008152f35b833461044c578060031936011261044c57610663610f22565b61010061ff001960065416176006557f9e87fac88ff661f02d44f95383c817fece4bce600a3dab7a54406878b965e7528180a180f35b838334610258576020366003190112610258578235906106b76110b5565b7f00000000000000000000000000000000000000000000000000000000000000006001600160a01b0316801561074d5781516323b872dd60e01b6020820152336024820152306044820152606480820185905281529160a083019067ffffffffffffffff82118483101761073a575261033d929161073491611110565b3361119b565b634e487b7160e01b865260418752602486fd5b81516307a92f1960e51b81528590fd5b505034610258578160031936011261025857602090517f00000000000000000000000000000000000000000000000000000000000000008152f35b505034610258578160031936011261025857602090517fa49807205ce4d355092ef5a8a18f56e8913cf4a201fbe287825b095693c217758152f35b5050346102585760203660031901126102585760209160ff9082906001600160a01b036107fe610f0c565b1681526008855220541690519015158152f35b505034610258578160031936011261025857517f00000000000000000000000000000000000000000000000000000000000000006001600160a01b03168152602090f35b505034610258578160031936011261025857517f00000000000000000000000000000000000000000000000000000000000000006001600160a01b03168152602090f35b919050346102ea57826003193601126102ea576108b46110b5565b60ff60025460a01c1660068110156109ab5782811415908161099f575b506102ca573383526007602052808320541561099257338352600760205280832080549084905591827f00000000000000000000000000000000000000000000000000000000000000006001600160a01b03168061098157508480808093335af161093a611365565b501561097357505b519081527fd7dee2702d63ad89917b6a4da9981c90c4d24f8c2bdfd64c604ecae57d8d065160203392a26001805580f35b90516312171d8360e31b8152fd5b61098d92503390612155565b610942565b5163f76aef6560e01b8152fd5b600591501415386108d1565b634e487b7160e01b845260218352602484fd5b5050346102585781600319360112610258576109e7906109dc61227f565b905191829182610ec8565b0390f35b833461044c578060031936011261044c57610a046110b5565b61033d6113a5565b505034610258578160031936011261025857517f00000000000000000000000000000000000000000000000000000000000000006001600160a01b03168152602090f35b9050346102ea57826003193601126102ea57610a6a6110b5565b60ff60025460a01c166006811015610b9457600303610b865733835260076020528183205415610b7857338352600860205260ff8284205416610b6a57503382526007602052610aea610ae1828420547f00000000000000000000000000000000000000000000000000000000000000009061130d565b60035490611320565b338084526008602052828420805460ff19166001179055909190610b399083907f00000000000000000000000000000000000000000000000000000000000000006001600160a01b0316612155565b519081527f896e034966eaaf1adc54acc0f257056febbd300c9e47182cf761982cf1f5e43060203392a26001805580f35b9051630c8d9eab60e31b8152fd5b9051631971fbf360e21b8152fd5b90516307a92f1960e51b8152fd5b634e487b7160e01b845260218252602484fd5b833461044c578060031936011261044c57610bc0610f22565b61ff0019600654166006557fa45f47fdea8a1efdd9029a5691c7f759c32b7c698632b563573e155625d169338180a180f35b838334610258578060031936011261025857610c0c610ef1565b90336001600160a01b03831603610c29575061037f919235611040565b5163334bd91960e11b81528390fd5b9050346102ea57826003193601126102ea5760209250549051908152f35b505034610258578160031936011261025857602090517f00000000000000000000000000000000000000000000000000000000000000008152f35b505034610258578160031936011261025857517f00000000000000000000000000000000000000000000000000000000000000006001600160a01b03168152602090f35b919050346102ea57806003193601126102ea5761037f9135610cfa6001610369610ef1565b610fc2565b9050346102ea5760203660031901126102ea57816020936001923581528085522001549051908152f35b505034610258578160031936011261025857602090517f00000000000000000000000000000000000000000000000000000000000000008152f35b5050346102585781600319360112610258576109e79060ff60025460a01c16905191829182610ec8565b505034610258578160031936011261025857602090517f00000000000000000000000000000000000000000000000000000000000000008152f35b5050346102585781600319360112610258576020905161ffff7f0000000000000000000000000000000000000000000000000000000000000000168152f35b505034610258578160031936011261025857517f00000000000000000000000000000000000000000000000000000000000000006001600160a01b03168152602090f35b50503461025857816003193601126102585760025490516001600160a01b039091168152602090f35b8491346102ea5760203660031901126102ea573563ffffffff60e01b81168091036102ea5760209250637965db0b60e01b8114908115610eb7575b5015158152f35b6301ffc9a760e01b14905083610eb0565b919060208301926006821015610edb5752565b634e487b7160e01b600052602160045260246000fd5b602435906001600160a01b0382168203610f0757565b600080fd5b600435906001600160a01b0382168203610f0757565b3360009081527f7d7ffb7a348e1c6a02869081a26547b49160dd3df72d1d75a570eb9b698292ec60205260409020547fa49807205ce4d355092ef5a8a18f56e8913cf4a201fbe287825b095693c217759060ff1615610f7e5750565b6044906040519063e2517d3f60e01b82523360048301526024820152fd5b80600052600060205260406000203360005260205260ff6040600020541615610f7e5750565b9060009180835282602052604083209160018060a01b03169182845260205260ff6040842054161560001461103b57808352826020526040832082845260205260408320600160ff198254161790557f2f8788117e7eff1d82e926ec794901d17c78024a50270940304540a733656f0d339380a4600190565b505090565b9060009180835282602052604083209160018060a01b03169182845260205260ff60408420541660001461103b5780835282602052604083208284526020526040832060ff1981541690557ff6391f5c32d9c69d2a47ea670b442974b53935d1edc7fd64eb21e047a839171b339380a4600190565b6002600154146110c6576002600155565b604051633ee5aeb560e01b8152600490fd5b90601f8019910116810190811067ffffffffffffffff8211176110fa57604052565b634e487b7160e01b600052604160045260246000fd5b906000602091828151910182855af11561116c576000513d61116357506001600160a01b0381163b155b6111415750565b604051635274afe760e01b81526001600160a01b039091166004820152602490fd5b6001141561113a565b6040513d6000823e3d90fd5b9190820180921161118557565b634e487b7160e01b600052601160045260246000fd5b9190916111a66121d2565b60ff60025460a01c166006811015610edb576001036112fb5760ff60065460081c166112e9577f000000000000000000000000000000000000000000000000000000000000000083106112d75760018060a01b031660009281845260076020526040906112168183872054611178565b7f000000000000000000000000000000000000000000000000000000000000000081116112c6578386526007602052828620541561129b575b8286857ffa35a310d7113dddce1c275da946348e9aaebf9050b00b372033c4d84b0bd6eb969798526007602052205561128a81600354611178565b8060035582519182526020820152a2565b60045460001981146112b25760010160045561124f565b634e487b7160e01b87526011600452602487fd5b8251635e508cd360e11b8152600490fd5b604051636c7591b560e11b8152600490fd5b60405163ab35696f60e01b8152600490fd5b6040516307a92f1960e51b8152600490fd5b8181029291811591840414171561118557565b811561132a570490565b634e487b7160e01b600052601260045260246000fd5b9190820391821161118557565b90816020910312610f0757518015158103610f075790565b3d156113a0573d9067ffffffffffffffff82116110fa5760405191611394601f8201601f1916602001846110d8565b82523d6000602084013e565b606090565b6113ad6121d2565b600254600060ff8260a01c166006811015612141576002036112fb5760065460ff81166112fb5760ff1916600117600655600354917f0000000000000000000000000000000000000000000000000000000000000000831061210a5750670de0b6b3a76400008083029183159284810483148417156120f657611451907f000000000000000000000000000000000000000000000000000000000000000090611320565b6005556101f492838502938585041417156120e2576114766127108094048095611340565b937f00000000000000000000000000000000000000000000000000000000000000006001600160a01b0316612086577f00000000000000000000000000000000000000000000000000000000000000006001600160a01b0316803b156102ea5782906024604051809481936339650d1f60e01b83523060048401525af18015611d025761205a575b50905b8261152c7f00000000000000000000000000000000000000000000000000000000000000008661130d565b049260055461ffff7f000000000000000000000000000000000000000000000000000000000000000016820190818311611c80579061156a9161130d565b0490808402908482041484151715611d79579061158691611320565b60405163095ea7b360e01b81527f00000000000000000000000000000000000000000000000000000000000000006001600160a01b031660048201526024810182905260208180604481010381867f00000000000000000000000000000000000000000000000000000000000000006001600160a01b03165af18015611cc85761203b575b507f00000000000000000000000000000000000000000000000000000000000000006001600160a01b0316611d8d5761012c4201804211611d79576040519163f305d71960e01b835260018060a01b037f0000000000000000000000000000000000000000000000000000000000000000166004840152602483015282604483015282606483015230608483015260a482015260608160c4818660018060a01b037f0000000000000000000000000000000000000000000000000000000000000000165af18015611d0257611d4b575b5060405163c45a015560e01b81526020816004817f00000000000000000000000000000000000000000000000000000000000000006001600160a01b03165afa908115611d02578291611d2c575b506040516315ab88c960e31b8152906020826004817f00000000000000000000000000000000000000000000000000000000000000006001600160a01b03165afa918215611cc857916020916117d6938592611d0d575b5060405163e6a4390560e01b81526001600160a01b037f00000000000000000000000000000000000000000000000000000000000000008116600483015290921660248301529092839190829081906044820190565b03916001600160a01b03165afa908115611d02578291611cd3575b50925b6040516370a0823160e01b8152306004820152926020846024816001600160a01b0389165afa938415611cc8578394611c94575b507f000000000000000000000000000000000000000000000000000000000000000062278d00908082810204821481151715611c8057611869910242611178565b60025460405163095ea7b360e01b81526001600160a01b0390911660048201526024810186905260208180604481010381886001600160a01b038c165af18015611c4657611c51575b50600254604051630aa393f360e01b81526001600160a01b03888116600483015260248201889052604482018490527f0000000000000000000000000000000000000000000000000000000000000000811660648301529091602091839160849183918a91165af18015611c4657611c1b575b506040519085825260208201527fac1d76749e5447b7b16f5ab61447e1bd502f3bb4807af3b28e620d1700a6ee45604060018060a01b03881692a27f00000000000000000000000000000000000000000000000000000000000000006001600160a01b0316611aef575b61199891611340565b7f00000000000000000000000000000000000000000000000000000000000000006001600160a01b0316611a6d57818080927f00000000000000000000000000000000000000000000000000000000000000005af16119f5611365565b5015611a5b577f6e4389167d2afbd1ccb4797ea87e29958adbf74cd16ba077a2ee5ab8460784e5916080915b600360a01b60ff60a01b19600254161760025560055491600354604051938452602084015260018060a01b031660408301526060820152a1565b6040516312171d8360e31b8152600490fd5b7f6e4389167d2afbd1ccb4797ea87e29958adbf74cd16ba077a2ee5ab8460784e59360809390925090611aea907f00000000000000000000000000000000000000000000000000000000000000007f00000000000000000000000000000000000000000000000000000000000000006001600160a01b0316612155565b611a21565b6040516370a0823160e01b8152306004820152916020836024817f00000000000000000000000000000000000000000000000000000000000000006001600160a01b03165afa928315611c10578493611bda575b50611b72611998937f000000000000000000000000000000000000000000000000000000000000000090611340565b80611b80575b50915061198f565b611bd4907f00000000000000000000000000000000000000000000000000000000000000007f00000000000000000000000000000000000000000000000000000000000000006001600160a01b0316612155565b38611b78565b92506020833d602011611c08575b81611bf5602093836110d8565b81010312610f0757915191611b72611b43565b3d9150611be8565b6040513d86823e3d90fd5b602090813d8311611c3f575b611c3181836110d8565b81010312610f075738611925565b503d611c27565b6040513d87823e3d90fd5b611c729060203d602011611c79575b611c6a81836110d8565b81019061134d565b50386118b2565b503d611c60565b634e487b7160e01b85526011600452602485fd5b9093506020813d602011611cc0575b81611cb0602093836110d8565b81010312610f0757519238611828565b3d9150611ca3565b6040513d85823e3d90fd5b611cf5915060203d602011611cfb575b611ced81836110d8565b8101906121b3565b386117f1565b503d611ce3565b6040513d84823e3d90fd5b611d25919250833d8511611cfb57611ced81836110d8565b9038611780565b611d45915060203d602011611cfb57611ced81836110d8565b38611729565b611d6b9060603d8111611d72575b611d6381836110d8565b810190612198565b50506116db565b503d611d59565b634e487b7160e01b83526011600452602483fd5b60405163095ea7b360e01b81527f00000000000000000000000000000000000000000000000000000000000000006001600160a01b031660048201526024810184905260208180604481010381867f00000000000000000000000000000000000000000000000000000000000000006001600160a01b03165af18015611cc85761201c575b5061012c4201804211611d79576040519162e8e33760e81b835260018060a01b037f000000000000000000000000000000000000000000000000000000000000000016600484015260018060a01b037f000000000000000000000000000000000000000000000000000000000000000016602484015260448301528360648301528260848301528260a48301523060c483015260e4820152606081610104818560018060a01b037f0000000000000000000000000000000000000000000000000000000000000000165af18015611d0257611ffe575b5060405163c45a015560e01b81526020816004817f00000000000000000000000000000000000000000000000000000000000000006001600160a01b03165afa908115611d02578291611fdf575b5060405163e6a4390560e01b81526001600160a01b037f0000000000000000000000000000000000000000000000000000000000000000811660048301527f000000000000000000000000000000000000000000000000000000000000000081166024830152909160209183916044918391165afa908115611d02578291611fc0575b50926117f4565b611fd9915060203d602011611cfb57611ced81836110d8565b38611fb9565b611ff8915060203d602011611cfb57611ced81836110d8565b38611f36565b6120159060603d8111611d7257611d6381836110d8565b5050611ee8565b6120349060203d602011611c7957611c6a81836110d8565b5038611e12565b6120539060203d602011611c7957611c6a81836110d8565b503861160b565b67ffffffffffffffff811161207257604052386114fe565b634e487b7160e01b82526041600452602482fd5b9091906120dd907f00000000000000000000000000000000000000000000000000000000000000007f00000000000000000000000000000000000000000000000000000000000000006001600160a01b0316612155565b611501565b634e487b7160e01b81526011600452602490fd5b634e487b7160e01b82526011600452602482fd5b60ff60a01b1916600160a21b176002557fe48846a3dca191c762ab6aaa1e929ccaf55e31a875fb78ad1b93e15ef4830aca915080a1565b634e487b7160e01b82526021600452602482fd5b60405163a9059cbb60e01b60208201526001600160a01b03929092166024830152604480830193909352918152612196916121916064836110d8565b611110565b565b90816060910312610f07578051916040602083015192015190565b90816020910312610f0757516001600160a01b0381168103610f075790565b60025460ff8160a01c166006811015610edb57801580612255575b156122095750506002805460ff60a01b1916600160a01b179055565b6001148061222b575b6122195750565b60ff60a01b1916600160a11b17600255565b507f0000000000000000000000000000000000000000000000000000000000000000421015612212565b507f00000000000000000000000000000000000000000000000000000000000000004210156121ed565b60ff60025460a01c166006811015610edb578015806122e5575b156122a45750600190565b60018114806122bb575b6122b55790565b50600290565b507f00000000000000000000000000000000000000000000000000000000000000004210156122ae565b507f0000000000000000000000000000000000000000000000000000000000000000421015612299565b60ff60025460a01c166006811015610edb5760030361238457600354801561237d5761237a9160018060a01b031660005260076020526123756040600020547f00000000000000000000000000000000000000000000000000000000000000009061130d565b611320565b90565b5050600090565b5060009056fea26469706673582212206f7083b8b1b3ce9203bb789c244c0d75240bf1745773e585798f7ba4d437973864736f6c63430008140033","opcodes":"PUSH1 0x80 PUSH1 0x40 DUP2 DUP2 MSTORE PUSH1 0x4 SWAP2 DUP3 CALLDATASIZE LT ISZERO PUSH2 0x16 JUMPI PUSH1 0x0 DUP1 REVERT JUMPDEST PUSH1 0x0 SWAP3 DUP4 CALLDATALOAD PUSH1 0xE0 SHR SWAP2 DUP3 PUSH4 0x1FFC9A7 EQ PUSH2 0xE75 JUMPI POP DUP2 PUSH4 0x3FC2013 EQ PUSH2 0xE4C JUMPI DUP2 PUSH4 0x758D924 EQ PUSH2 0xE08 JUMPI DUP2 PUSH4 0xB7C1AE1 EQ PUSH2 0xDC9 JUMPI DUP2 PUSH4 0x12AEF8C3 EQ PUSH2 0xD8E JUMPI DUP2 PUSH4 0x1CC64544 EQ PUSH2 0x54B JUMPI DUP2 PUSH4 0x200D2ED2 EQ PUSH2 0xD64 JUMPI DUP2 PUSH4 0x220C0956 EQ PUSH2 0xD29 JUMPI DUP2 PUSH4 0x248A9CA3 EQ PUSH2 0xCFF JUMPI DUP2 PUSH4 0x2F2FF15D EQ PUSH2 0xCD5 JUMPI DUP2 PUSH4 0x3013CE29 EQ PUSH2 0xC91 JUMPI DUP2 PUSH4 0x3197CBB6 EQ PUSH2 0xC56 JUMPI DUP2 PUSH4 0x362F04C0 EQ PUSH2 0xC38 JUMPI DUP2 PUSH4 0x36568ABE EQ PUSH2 0xBF2 JUMPI DUP2 PUSH4 0x3F4BA83A EQ PUSH2 0xBA7 JUMPI DUP2 PUSH4 0x42E94C90 EQ PUSH2 0x3A2 JUMPI DUP2 PUSH4 0x48C54B9D EQ PUSH2 0xA50 JUMPI DUP2 PUSH4 0x4B60CE77 EQ PUSH2 0xA0C JUMPI DUP2 PUSH4 0x4BB278F3 EQ PUSH2 0x9EB JUMPI DUP2 PUSH4 0x4E69D560 EQ PUSH2 0x9BE JUMPI DUP2 PUSH4 0x590E1AE3 EQ PUSH2 0x899 JUMPI DUP2 PUSH4 0x6052970C EQ PUSH2 0x855 JUMPI DUP2 PUSH4 0x619F3D6C EQ PUSH2 0x811 JUMPI DUP2 PUSH4 0x73B2E80E EQ PUSH2 0x7D3 JUMPI DUP2 PUSH4 0x75B238FC EQ PUSH2 0x798 JUMPI DUP2 PUSH4 0x78E97925 EQ PUSH2 0x75D JUMPI DUP2 PUSH4 0x8160059A EQ PUSH2 0x699 JUMPI DUP2 PUSH4 0x8456CB59 EQ PUSH2 0x64A JUMPI DUP2 PUSH4 0x8BCD8515 EQ PUSH2 0x60F JUMPI DUP2 PUSH4 0x8D3D6576 EQ PUSH2 0x5D4 JUMPI DUP2 PUSH4 0x8D4E4083 EQ PUSH2 0x5B0 JUMPI DUP2 PUSH4 0x91D14854 EQ PUSH2 0x56A JUMPI DUP2 PUSH4 0x9CE05DF7 EQ PUSH2 0x54B JUMPI DUP2 PUSH4 0xA217FDDF EQ PUSH2 0x530 JUMPI DUP2 PUSH4 0xA4475CE4 EQ PUSH2 0x4EC JUMPI DUP2 PUSH4 0xAAFFADF3 EQ PUSH2 0x4B1 JUMPI DUP2 PUSH4 0xB0683755 EQ PUSH2 0x476 JUMPI DUP2 PUSH4 0xB187BD26 EQ PUSH2 0x44F JUMPI DUP2 PUSH4 0xB524F87B EQ PUSH2 0x407 JUMPI DUP2 PUSH4 0xB920ADE2 EQ PUSH2 0x3DA JUMPI DUP2 PUSH4 0xBB8B2B47 EQ PUSH2 0x3A2 JUMPI DUP2 PUSH4 0xC5C4744C EQ PUSH2 0x383 JUMPI DUP2 PUSH4 0xD547741F EQ PUSH2 0x344 JUMPI DUP2 PUSH4 0xD7BB99BA EQ PUSH2 0x2EE JUMPI DUP2 PUSH4 0xEA8A1AF0 EQ PUSH2 0x25C JUMPI POP PUSH4 0xF89BE593 EQ PUSH2 0x21F JUMPI PUSH1 0x0 DUP1 REVERT JUMPDEST CALLVALUE PUSH2 0x258 JUMPI DUP2 PUSH1 0x3 NOT CALLDATASIZE ADD SLT PUSH2 0x258 JUMPI PUSH1 0x20 SWAP1 MLOAD PUSH32 0x0 DUP2 MSTORE RETURN JUMPDEST POP DUP1 REVERT JUMPDEST SWAP1 POP CALLVALUE PUSH2 0x2EA JUMPI DUP3 PUSH1 0x3 NOT CALLDATASIZE ADD SLT PUSH2 0x2EA JUMPI PUSH2 0x276 PUSH2 0xF22 JUMP JUMPDEST PUSH1 0x2 SLOAD SWAP2 PUSH1 0xFF DUP4 PUSH1 0xA0 SHR AND PUSH1 0x6 DUP2 LT ISZERO PUSH2 0x2D7 JUMPI PUSH1 0x3 EQ PUSH2 0x2CA JUMPI POP POP PUSH1 0xFF PUSH1 0xA0 SHL NOT AND PUSH1 0x5 PUSH1 0xA0 SHL OR PUSH1 0x2 SSTORE PUSH32 0x63B958841F79AB97CB5456DA181454B9932C0E15A3B17F1CBD27E2A8BC610437 DUP2 DUP1 LOG1 DUP1 RETURN JUMPDEST MLOAD PUSH4 0x7A92F19 PUSH1 0xE5 SHL DUP2 MSTORE REVERT JUMPDEST PUSH4 0x4E487B71 PUSH1 0xE0 SHL DUP6 MSTORE PUSH1 0x21 DUP4 MSTORE PUSH1 0x24 DUP6 REVERT JUMPDEST DUP3 DUP1 REVERT JUMPDEST SWAP2 SWAP1 POP DUP3 PUSH1 0x3 NOT CALLDATASIZE ADD SLT PUSH2 0x2EA JUMPI PUSH2 0x304 PUSH2 0x10B5 JUMP JUMPDEST PUSH32 0x0 PUSH1 0x1 PUSH1 0x1 PUSH1 0xA0 SHL SUB AND PUSH2 0x2CA JUMPI DUP3 PUSH2 0x33D CALLVALUE CALLER PUSH2 0x119B JUMP JUMPDEST PUSH1 0x1 DUP1 SSTORE DUP1 RETURN JUMPDEST SWAP2 SWAP1 POP CALLVALUE PUSH2 0x2EA JUMPI DUP1 PUSH1 0x3 NOT CALLDATASIZE ADD SLT PUSH2 0x2EA JUMPI PUSH2 0x37F SWAP2 CALLDATALOAD PUSH2 0x37A PUSH1 0x1 PUSH2 0x369 PUSH2 0xEF1 JUMP JUMPDEST SWAP4 DUP4 DUP8 MSTORE DUP7 PUSH1 0x20 MSTORE DUP7 KECCAK256 ADD SLOAD PUSH2 0xF9C JUMP JUMPDEST PUSH2 0x1040 JUMP JUMPDEST POP DUP1 RETURN JUMPDEST POP POP CALLVALUE PUSH2 0x258 JUMPI DUP2 PUSH1 0x3 NOT CALLDATASIZE ADD SLT PUSH2 0x258 JUMPI PUSH1 0x20 SWAP1 PUSH1 0x3 SLOAD SWAP1 MLOAD SWAP1 DUP2 MSTORE RETURN JUMPDEST POP POP CALLVALUE PUSH2 0x258 JUMPI PUSH1 0x20 CALLDATASIZE PUSH1 0x3 NOT ADD SLT PUSH2 0x258 JUMPI PUSH1 0x20 SWAP2 DUP2 SWAP1 PUSH1 0x1 PUSH1 0x1 PUSH1 0xA0 SHL SUB PUSH2 0x3CA PUSH2 0xF0C JUMP JUMPDEST AND DUP2 MSTORE PUSH1 0x7 DUP5 MSTORE KECCAK256 SLOAD SWAP1 MLOAD SWAP1 DUP2 MSTORE RETURN JUMPDEST POP POP CALLVALUE PUSH2 0x258 JUMPI PUSH1 0x20 CALLDATASIZE PUSH1 0x3 NOT ADD SLT PUSH2 0x258 JUMPI PUSH1 0x20 SWAP1 PUSH2 0x400 PUSH2 0x3FB PUSH2 0xF0C JUMP JUMPDEST PUSH2 0x230F JUMP JUMPDEST SWAP1 MLOAD SWAP1 DUP2 MSTORE RETURN JUMPDEST DUP4 CALLVALUE PUSH2 0x44C JUMPI PUSH1 0x20 CALLDATASIZE PUSH1 0x3 NOT ADD SLT PUSH2 0x44C JUMPI PUSH2 0x421 PUSH2 0xF0C JUMP JUMPDEST PUSH2 0x429 PUSH2 0xF22 JUMP JUMPDEST PUSH1 0x1 DUP1 PUSH1 0xA0 SHL SUB AND PUSH12 0xFFFFFFFFFFFFFFFFFFFFFFFF PUSH1 0xA0 SHL PUSH1 0x2 SLOAD AND OR PUSH1 0x2 SSTORE DUP1 RETURN JUMPDEST DUP1 REVERT JUMPDEST POP POP CALLVALUE PUSH2 0x258 JUMPI DUP2 PUSH1 0x3 NOT CALLDATASIZE ADD SLT PUSH2 0x258 JUMPI PUSH1 0x20 SWAP1 PUSH1 0xFF PUSH1 0x6 SLOAD PUSH1 0x8 SHR AND SWAP1 MLOAD SWAP1 ISZERO ISZERO DUP2 MSTORE RETURN JUMPDEST POP POP CALLVALUE PUSH2 0x258 JUMPI DUP2 PUSH1 0x3 NOT CALLDATASIZE ADD SLT PUSH2 0x258 JUMPI PUSH1 0x20 SWAP1 MLOAD PUSH32 0x0 DUP2 MSTORE RETURN JUMPDEST POP POP CALLVALUE PUSH2 0x258 JUMPI DUP2 PUSH1 0x3 NOT CALLDATASIZE ADD SLT PUSH2 0x258 JUMPI PUSH1 0x20 SWAP1 MLOAD PUSH32 0x0 DUP2 MSTORE RETURN JUMPDEST POP POP CALLVALUE PUSH2 0x258 JUMPI DUP2 PUSH1 0x3 NOT CALLDATASIZE ADD SLT PUSH2 0x258 JUMPI MLOAD PUSH32 0x0 PUSH1 0x1 PUSH1 0x1 PUSH1 0xA0 SHL SUB AND DUP2 MSTORE PUSH1 0x20 SWAP1 RETURN JUMPDEST POP POP CALLVALUE PUSH2 0x258 JUMPI DUP2 PUSH1 0x3 NOT CALLDATASIZE ADD SLT PUSH2 0x258 JUMPI MLOAD SWAP1 DUP2 MSTORE PUSH1 0x20 SWAP1 RETURN JUMPDEST POP POP CALLVALUE PUSH2 0x258 JUMPI DUP2 PUSH1 0x3 NOT CALLDATASIZE ADD SLT PUSH2 0x258 JUMPI PUSH1 0x20 SWAP1 PUSH1 0x5 SLOAD SWAP1 MLOAD SWAP1 DUP2 MSTORE RETURN JUMPDEST SWAP1 POP CALLVALUE PUSH2 0x2EA JUMPI DUP2 PUSH1 0x3 NOT CALLDATASIZE ADD SLT PUSH2 0x2EA JUMPI DUP2 PUSH1 0x20 SWAP4 PUSH1 0xFF SWAP3 PUSH2 0x58B PUSH2 0xEF1 JUMP JUMPDEST SWAP1 CALLDATALOAD DUP3 MSTORE DUP2 DUP7 MSTORE DUP3 DUP3 KECCAK256 PUSH1 0x1 PUSH1 0x1 PUSH1 0xA0 SHL SUB SWAP1 SWAP2 AND DUP3 MSTORE DUP6 MSTORE KECCAK256 SLOAD SWAP2 MLOAD SWAP2 AND ISZERO ISZERO DUP2 MSTORE RETURN JUMPDEST POP POP CALLVALUE PUSH2 0x258 JUMPI DUP2 PUSH1 0x3 NOT CALLDATASIZE ADD SLT PUSH2 0x258 JUMPI PUSH1 0x20 SWAP1 PUSH1 0xFF PUSH1 0x6 SLOAD AND SWAP1 MLOAD SWAP1 ISZERO ISZERO DUP2 MSTORE RETURN JUMPDEST POP POP CALLVALUE PUSH2 0x258 JUMPI DUP2 PUSH1 0x3 NOT CALLDATASIZE ADD SLT PUSH2 0x258 JUMPI PUSH1 0x20 SWAP1 MLOAD PUSH32 0x0 DUP2 MSTORE RETURN JUMPDEST POP POP CALLVALUE PUSH2 0x258 JUMPI DUP2 PUSH1 0x3 NOT CALLDATASIZE ADD SLT PUSH2 0x258 JUMPI PUSH1 0x20 SWAP1 MLOAD PUSH32 0x0 DUP2 MSTORE RETURN JUMPDEST DUP4 CALLVALUE PUSH2 0x44C JUMPI DUP1 PUSH1 0x3 NOT CALLDATASIZE ADD SLT PUSH2 0x44C JUMPI PUSH2 0x663 PUSH2 0xF22 JUMP JUMPDEST PUSH2 0x100 PUSH2 0xFF00 NOT PUSH1 0x6 SLOAD AND OR PUSH1 0x6 SSTORE PUSH32 0x9E87FAC88FF661F02D44F95383C817FECE4BCE600A3DAB7A54406878B965E752 DUP2 DUP1 LOG1 DUP1 RETURN JUMPDEST DUP4 DUP4 CALLVALUE PUSH2 0x258 JUMPI PUSH1 0x20 CALLDATASIZE PUSH1 0x3 NOT ADD SLT PUSH2 0x258 JUMPI DUP3 CALLDATALOAD SWAP1 PUSH2 0x6B7 PUSH2 0x10B5 JUMP JUMPDEST PUSH32 0x0 PUSH1 0x1 PUSH1 0x1 PUSH1 0xA0 SHL SUB AND DUP1 ISZERO PUSH2 0x74D JUMPI DUP2 MLOAD PUSH4 0x23B872DD PUSH1 0xE0 SHL PUSH1 0x20 DUP3 ADD MSTORE CALLER PUSH1 0x24 DUP3 ADD MSTORE ADDRESS PUSH1 0x44 DUP3 ADD MSTORE PUSH1 0x64 DUP1 DUP3 ADD DUP6 SWAP1 MSTORE DUP2 MSTORE SWAP2 PUSH1 0xA0 DUP4 ADD SWAP1 PUSH8 0xFFFFFFFFFFFFFFFF DUP3 GT DUP5 DUP4 LT OR PUSH2 0x73A JUMPI MSTORE PUSH2 0x33D SWAP3 SWAP2 PUSH2 0x734 SWAP2 PUSH2 0x1110 JUMP JUMPDEST CALLER PUSH2 0x119B JUMP JUMPDEST PUSH4 0x4E487B71 PUSH1 0xE0 SHL DUP7 MSTORE PUSH1 0x41 DUP8 MSTORE PUSH1 0x24 DUP7 REVERT JUMPDEST DUP2 MLOAD PUSH4 0x7A92F19 PUSH1 0xE5 SHL DUP2 MSTORE DUP6 SWAP1 REVERT JUMPDEST POP POP CALLVALUE PUSH2 0x258 JUMPI DUP2 PUSH1 0x3 NOT CALLDATASIZE ADD SLT PUSH2 0x258 JUMPI PUSH1 0x20 SWAP1 MLOAD PUSH32 0x0 DUP2 MSTORE RETURN JUMPDEST POP POP CALLVALUE PUSH2 0x258 JUMPI DUP2 PUSH1 0x3 NOT CALLDATASIZE ADD SLT PUSH2 0x258 JUMPI PUSH1 0x20 SWAP1 MLOAD PUSH32 0xA49807205CE4D355092EF5A8A18F56E8913CF4A201FBE287825B095693C21775 DUP2 MSTORE RETURN JUMPDEST POP POP CALLVALUE PUSH2 0x258 JUMPI PUSH1 0x20 CALLDATASIZE PUSH1 0x3 NOT ADD SLT PUSH2 0x258 JUMPI PUSH1 0x20 SWAP2 PUSH1 0xFF SWAP1 DUP3 SWAP1 PUSH1 0x1 PUSH1 0x1 PUSH1 0xA0 SHL SUB PUSH2 0x7FE PUSH2 0xF0C JUMP JUMPDEST AND DUP2 MSTORE PUSH1 0x8 DUP6 MSTORE KECCAK256 SLOAD AND SWAP1 MLOAD SWAP1 ISZERO ISZERO DUP2 MSTORE RETURN JUMPDEST POP POP CALLVALUE PUSH2 0x258 JUMPI DUP2 PUSH1 0x3 NOT CALLDATASIZE ADD SLT PUSH2 0x258 JUMPI MLOAD PUSH32 0x0 PUSH1 0x1 PUSH1 0x1 PUSH1 0xA0 SHL SUB AND DUP2 MSTORE PUSH1 0x20 SWAP1 RETURN JUMPDEST POP POP CALLVALUE PUSH2 0x258 JUMPI DUP2 PUSH1 0x3 NOT CALLDATASIZE ADD SLT PUSH2 0x258 JUMPI MLOAD PUSH32 0x0 PUSH1 0x1 PUSH1 0x1 PUSH1 0xA0 SHL SUB AND DUP2 MSTORE PUSH1 0x20 SWAP1 RETURN JUMPDEST SWAP2 SWAP1 POP CALLVALUE PUSH2 0x2EA JUMPI DUP3 PUSH1 0x3 NOT CALLDATASIZE ADD SLT PUSH2 0x2EA JUMPI PUSH2 0x8B4 PUSH2 0x10B5 JUMP JUMPDEST PUSH1 0xFF PUSH1 0x2 SLOAD PUSH1 0xA0 SHR AND PUSH1 0x6 DUP2 LT ISZERO PUSH2 0x9AB JUMPI DUP3 DUP2 EQ ISZERO SWAP1 DUP2 PUSH2 0x99F JUMPI JUMPDEST POP PUSH2 0x2CA JUMPI CALLER DUP4 MSTORE PUSH1 0x7 PUSH1 0x20 MSTORE DUP1 DUP4 KECCAK256 SLOAD ISZERO PUSH2 0x992 JUMPI CALLER DUP4 MSTORE PUSH1 0x7 PUSH1 0x20 MSTORE DUP1 DUP4 KECCAK256 DUP1 SLOAD SWAP1 DUP5 SWAP1 SSTORE SWAP2 DUP3 PUSH32 0x0 PUSH1 0x1 PUSH1 0x1 PUSH1 0xA0 SHL SUB AND DUP1 PUSH2 0x981 JUMPI POP DUP5 DUP1 DUP1 DUP1 SWAP4 CALLER GAS CALL PUSH2 0x93A PUSH2 0x1365 JUMP JUMPDEST POP ISZERO PUSH2 0x973 JUMPI POP JUMPDEST MLOAD SWAP1 DUP2 MSTORE PUSH32 0xD7DEE2702D63AD89917B6A4DA9981C90C4D24F8C2BDFD64C604ECAE57D8D0651 PUSH1 0x20 CALLER SWAP3 LOG2 PUSH1 0x1 DUP1 SSTORE DUP1 RETURN JUMPDEST SWAP1 MLOAD PUSH4 0x12171D83 PUSH1 0xE3 SHL DUP2 MSTORE REVERT JUMPDEST PUSH2 0x98D SWAP3 POP CALLER SWAP1 PUSH2 0x2155 JUMP JUMPDEST PUSH2 0x942 JUMP JUMPDEST MLOAD PUSH4 0xF76AEF65 PUSH1 0xE0 SHL DUP2 MSTORE REVERT JUMPDEST PUSH1 0x5 SWAP2 POP EQ ISZERO CODESIZE PUSH2 0x8D1 JUMP JUMPDEST PUSH4 0x4E487B71 PUSH1 0xE0 SHL DUP5 MSTORE PUSH1 0x21 DUP4 MSTORE PUSH1 0x24 DUP5 REVERT JUMPDEST POP POP CALLVALUE PUSH2 0x258 JUMPI DUP2 PUSH1 0x3 NOT CALLDATASIZE ADD SLT PUSH2 0x258 JUMPI PUSH2 0x9E7 SWAP1 PUSH2 0x9DC PUSH2 0x227F JUMP JUMPDEST SWAP1 MLOAD SWAP2 DUP3 SWAP2 DUP3 PUSH2 0xEC8 JUMP JUMPDEST SUB SWAP1 RETURN JUMPDEST DUP4 CALLVALUE PUSH2 0x44C JUMPI DUP1 PUSH1 0x3 NOT CALLDATASIZE ADD SLT PUSH2 0x44C JUMPI PUSH2 0xA04 PUSH2 0x10B5 JUMP JUMPDEST PUSH2 0x33D PUSH2 0x13A5 JUMP JUMPDEST POP POP CALLVALUE PUSH2 0x258 JUMPI DUP2 PUSH1 0x3 NOT CALLDATASIZE ADD SLT PUSH2 0x258 JUMPI MLOAD PUSH32 0x0 PUSH1 0x1 PUSH1 0x1 PUSH1 0xA0 SHL SUB AND DUP2 MSTORE PUSH1 0x20 SWAP1 RETURN JUMPDEST SWAP1 POP CALLVALUE PUSH2 0x2EA JUMPI DUP3 PUSH1 0x3 NOT CALLDATASIZE ADD SLT PUSH2 0x2EA JUMPI PUSH2 0xA6A PUSH2 0x10B5 JUMP JUMPDEST PUSH1 0xFF PUSH1 0x2 SLOAD PUSH1 0xA0 SHR AND PUSH1 0x6 DUP2 LT ISZERO PUSH2 0xB94 JUMPI PUSH1 0x3 SUB PUSH2 0xB86 JUMPI CALLER DUP4 MSTORE PUSH1 0x7 PUSH1 0x20 MSTORE DUP2 DUP4 KECCAK256 SLOAD ISZERO PUSH2 0xB78 JUMPI CALLER DUP4 MSTORE PUSH1 0x8 PUSH1 0x20 MSTORE PUSH1 0xFF DUP3 DUP5 KECCAK256 SLOAD AND PUSH2 0xB6A JUMPI POP CALLER DUP3 MSTORE PUSH1 0x7 PUSH1 0x20 MSTORE PUSH2 0xAEA PUSH2 0xAE1 DUP3 DUP5 KECCAK256 SLOAD PUSH32 0x0 SWAP1 PUSH2 0x130D JUMP JUMPDEST PUSH1 0x3 SLOAD SWAP1 PUSH2 0x1320 JUMP JUMPDEST CALLER DUP1 DUP5 MSTORE PUSH1 0x8 PUSH1 0x20 MSTORE DUP3 DUP5 KECCAK256 DUP1 SLOAD PUSH1 0xFF NOT AND PUSH1 0x1 OR SWAP1 SSTORE SWAP1 SWAP2 SWAP1 PUSH2 0xB39 SWAP1 DUP4 SWAP1 PUSH32 0x0 PUSH1 0x1 PUSH1 0x1 PUSH1 0xA0 SHL SUB AND PUSH2 0x2155 JUMP JUMPDEST MLOAD SWAP1 DUP2 MSTORE PUSH32 0x896E034966EAAF1ADC54ACC0F257056FEBBD300C9E47182CF761982CF1F5E430 PUSH1 0x20 CALLER SWAP3 LOG2 PUSH1 0x1 DUP1 SSTORE DUP1 RETURN JUMPDEST SWAP1 MLOAD PUSH4 0xC8D9EAB PUSH1 0xE3 SHL DUP2 MSTORE REVERT JUMPDEST SWAP1 MLOAD PUSH4 0x1971FBF3 PUSH1 0xE2 SHL DUP2 MSTORE REVERT JUMPDEST SWAP1 MLOAD PUSH4 0x7A92F19 PUSH1 0xE5 SHL DUP2 MSTORE REVERT JUMPDEST PUSH4 0x4E487B71 PUSH1 0xE0 SHL DUP5 MSTORE PUSH1 0x21 DUP3 MSTORE PUSH1 0x24 DUP5 REVERT JUMPDEST DUP4 CALLVALUE PUSH2 0x44C JUMPI DUP1 PUSH1 0x3 NOT CALLDATASIZE ADD SLT PUSH2 0x44C JUMPI PUSH2 0xBC0 PUSH2 0xF22 JUMP JUMPDEST PUSH2 0xFF00 NOT PUSH1 0x6 SLOAD AND PUSH1 0x6 SSTORE PUSH32 0xA45F47FDEA8A1EFDD9029A5691C7F759C32B7C698632B563573E155625D16933 DUP2 DUP1 LOG1 DUP1 RETURN JUMPDEST DUP4 DUP4 CALLVALUE PUSH2 0x258 JUMPI DUP1 PUSH1 0x3 NOT CALLDATASIZE ADD SLT PUSH2 0x258 JUMPI PUSH2 0xC0C PUSH2 0xEF1 JUMP JUMPDEST SWAP1 CALLER PUSH1 0x1 PUSH1 0x1 PUSH1 0xA0 SHL SUB DUP4 AND SUB PUSH2 0xC29 JUMPI POP PUSH2 0x37F SWAP2 SWAP3 CALLDATALOAD PUSH2 0x1040 JUMP JUMPDEST MLOAD PUSH4 0x334BD919 PUSH1 0xE1 SHL DUP2 MSTORE DUP4 SWAP1 REVERT JUMPDEST SWAP1 POP CALLVALUE PUSH2 0x2EA JUMPI DUP3 PUSH1 0x3 NOT CALLDATASIZE ADD SLT PUSH2 0x2EA JUMPI PUSH1 0x20 SWAP3 POP SLOAD SWAP1 MLOAD SWAP1 DUP2 MSTORE RETURN JUMPDEST POP POP CALLVALUE PUSH2 0x258 JUMPI DUP2 PUSH1 0x3 NOT CALLDATASIZE ADD SLT PUSH2 0x258 JUMPI PUSH1 0x20 SWAP1 MLOAD PUSH32 0x0 DUP2 MSTORE RETURN JUMPDEST POP POP CALLVALUE PUSH2 0x258 JUMPI DUP2 PUSH1 0x3 NOT CALLDATASIZE ADD SLT PUSH2 0x258 JUMPI MLOAD PUSH32 0x0 PUSH1 0x1 PUSH1 0x1 PUSH1 0xA0 SHL SUB AND DUP2 MSTORE PUSH1 0x20 SWAP1 RETURN JUMPDEST SWAP2 SWAP1 POP CALLVALUE PUSH2 0x2EA JUMPI DUP1 PUSH1 0x3 NOT CALLDATASIZE ADD SLT PUSH2 0x2EA JUMPI PUSH2 0x37F SWAP2 CALLDATALOAD PUSH2 0xCFA PUSH1 0x1 PUSH2 0x369 PUSH2 0xEF1 JUMP JUMPDEST PUSH2 0xFC2 JUMP JUMPDEST SWAP1 POP CALLVALUE PUSH2 0x2EA JUMPI PUSH1 0x20 CALLDATASIZE PUSH1 0x3 NOT ADD SLT PUSH2 0x2EA JUMPI DUP2 PUSH1 0x20 SWAP4 PUSH1 0x1 SWAP3 CALLDATALOAD DUP2 MSTORE DUP1 DUP6 MSTORE KECCAK256 ADD SLOAD SWAP1 MLOAD SWAP1 DUP2 MSTORE RETURN JUMPDEST POP POP CALLVALUE PUSH2 0x258 JUMPI DUP2 PUSH1 0x3 NOT CALLDATASIZE ADD SLT PUSH2 0x258 JUMPI PUSH1 0x20 SWAP1 MLOAD PUSH32 0x0 DUP2 MSTORE RETURN JUMPDEST POP POP CALLVALUE PUSH2 0x258 JUMPI DUP2 PUSH1 0x3 NOT CALLDATASIZE ADD SLT PUSH2 0x258 JUMPI PUSH2 0x9E7 SWAP1 PUSH1 0xFF PUSH1 0x2 SLOAD PUSH1 0xA0 SHR AND SWAP1 MLOAD SWAP2 DUP3 SWAP2 DUP3 PUSH2 0xEC8 JUMP JUMPDEST POP POP CALLVALUE PUSH2 0x258 JUMPI DUP2 PUSH1 0x3 NOT CALLDATASIZE ADD SLT PUSH2 0x258 JUMPI PUSH1 0x20 SWAP1 MLOAD PUSH32 0x0 DUP2 MSTORE RETURN JUMPDEST POP POP CALLVALUE PUSH2 0x258 JUMPI DUP2 PUSH1 0x3 NOT CALLDATASIZE ADD SLT PUSH2 0x258 JUMPI PUSH1 0x20 SWAP1 MLOAD PUSH2 0xFFFF PUSH32 0x0 AND DUP2 MSTORE RETURN JUMPDEST POP POP CALLVALUE PUSH2 0x258 JUMPI DUP2 PUSH1 0x3 NOT CALLDATASIZE ADD SLT PUSH2 0x258 JUMPI MLOAD PUSH32 0x0 PUSH1 0x1 PUSH1 0x1 PUSH1 0xA0 SHL SUB AND DUP2 MSTORE PUSH1 0x20 SWAP1 RETURN JUMPDEST POP POP CALLVALUE PUSH2 0x258 JUMPI DUP2 PUSH1 0x3 NOT CALLDATASIZE ADD SLT PUSH2 0x258 JUMPI PUSH1 0x2 SLOAD SWAP1 MLOAD PUSH1 0x1 PUSH1 0x1 PUSH1 0xA0 SHL SUB SWAP1 SWAP2 AND DUP2 MSTORE PUSH1 0x20 SWAP1 RETURN JUMPDEST DUP5 SWAP2 CALLVALUE PUSH2 0x2EA JUMPI PUSH1 0x20 CALLDATASIZE PUSH1 0x3 NOT ADD SLT PUSH2 0x2EA JUMPI CALLDATALOAD PUSH4 0xFFFFFFFF PUSH1 0xE0 SHL DUP2 AND DUP1 SWAP2 SUB PUSH2 0x2EA JUMPI PUSH1 0x20 SWAP3 POP PUSH4 0x7965DB0B PUSH1 0xE0 SHL DUP2 EQ SWAP1 DUP2 ISZERO PUSH2 0xEB7 JUMPI JUMPDEST POP ISZERO ISZERO DUP2 MSTORE RETURN JUMPDEST PUSH4 0x1FFC9A7 PUSH1 0xE0 SHL EQ SWAP1 POP DUP4 PUSH2 0xEB0 JUMP JUMPDEST SWAP2 SWAP1 PUSH1 0x20 DUP4 ADD SWAP3 PUSH1 0x6 DUP3 LT ISZERO PUSH2 0xEDB JUMPI MSTORE JUMP JUMPDEST PUSH4 0x4E487B71 PUSH1 0xE0 SHL PUSH1 0x0 MSTORE PUSH1 0x21 PUSH1 0x4 MSTORE PUSH1 0x24 PUSH1 0x0 REVERT JUMPDEST PUSH1 0x24 CALLDATALOAD SWAP1 PUSH1 0x1 PUSH1 0x1 PUSH1 0xA0 SHL SUB DUP3 AND DUP3 SUB PUSH2 0xF07 JUMPI JUMP JUMPDEST PUSH1 0x0 DUP1 REVERT JUMPDEST PUSH1 0x4 CALLDATALOAD SWAP1 PUSH1 0x1 PUSH1 0x1 PUSH1 0xA0 SHL SUB DUP3 AND DUP3 SUB PUSH2 0xF07 JUMPI JUMP JUMPDEST CALLER PUSH1 0x0 SWAP1 DUP2 MSTORE PUSH32 0x7D7FFB7A348E1C6A02869081A26547B49160DD3DF72D1D75A570EB9B698292EC PUSH1 0x20 MSTORE PUSH1 0x40 SWAP1 KECCAK256 SLOAD PUSH32 0xA49807205CE4D355092EF5A8A18F56E8913CF4A201FBE287825B095693C21775 SWAP1 PUSH1 0xFF AND ISZERO PUSH2 0xF7E JUMPI POP JUMP JUMPDEST PUSH1 0x44 SWAP1 PUSH1 0x40 MLOAD SWAP1 PUSH4 0xE2517D3F PUSH1 0xE0 SHL DUP3 MSTORE CALLER PUSH1 0x4 DUP4 ADD MSTORE PUSH1 0x24 DUP3 ADD MSTORE REVERT JUMPDEST DUP1 PUSH1 0x0 MSTORE PUSH1 0x0 PUSH1 0x20 MSTORE PUSH1 0x40 PUSH1 0x0 KECCAK256 CALLER PUSH1 0x0 MSTORE PUSH1 0x20 MSTORE PUSH1 0xFF PUSH1 0x40 PUSH1 0x0 KECCAK256 SLOAD AND ISZERO PUSH2 0xF7E JUMPI POP JUMP JUMPDEST SWAP1 PUSH1 0x0 SWAP2 DUP1 DUP4 MSTORE DUP3 PUSH1 0x20 MSTORE PUSH1 0x40 DUP4 KECCAK256 SWAP2 PUSH1 0x1 DUP1 PUSH1 0xA0 SHL SUB AND SWAP2 DUP3 DUP5 MSTORE PUSH1 0x20 MSTORE PUSH1 0xFF PUSH1 0x40 DUP5 KECCAK256 SLOAD AND ISZERO PUSH1 0x0 EQ PUSH2 0x103B JUMPI DUP1 DUP4 MSTORE DUP3 PUSH1 0x20 MSTORE PUSH1 0x40 DUP4 KECCAK256 DUP3 DUP5 MSTORE PUSH1 0x20 MSTORE PUSH1 0x40 DUP4 KECCAK256 PUSH1 0x1 PUSH1 0xFF NOT DUP3 SLOAD AND OR SWAP1 SSTORE PUSH32 0x2F8788117E7EFF1D82E926EC794901D17C78024A50270940304540A733656F0D CALLER SWAP4 DUP1 LOG4 PUSH1 0x1 SWAP1 JUMP JUMPDEST POP POP SWAP1 JUMP JUMPDEST SWAP1 PUSH1 0x0 SWAP2 DUP1 DUP4 MSTORE DUP3 PUSH1 0x20 MSTORE PUSH1 0x40 DUP4 KECCAK256 SWAP2 PUSH1 0x1 DUP1 PUSH1 0xA0 SHL SUB AND SWAP2 DUP3 DUP5 MSTORE PUSH1 0x20 MSTORE PUSH1 0xFF PUSH1 0x40 DUP5 KECCAK256 SLOAD AND PUSH1 0x0 EQ PUSH2 0x103B JUMPI DUP1 DUP4 MSTORE DUP3 PUSH1 0x20 MSTORE PUSH1 0x40 DUP4 KECCAK256 DUP3 DUP5 MSTORE PUSH1 0x20 MSTORE PUSH1 0x40 DUP4 KECCAK256 PUSH1 0xFF NOT DUP2 SLOAD AND SWAP1 SSTORE PUSH32 0xF6391F5C32D9C69D2A47EA670B442974B53935D1EDC7FD64EB21E047A839171B CALLER SWAP4 DUP1 LOG4 PUSH1 0x1 SWAP1 JUMP JUMPDEST PUSH1 0x2 PUSH1 0x1 SLOAD EQ PUSH2 0x10C6 JUMPI PUSH1 0x2 PUSH1 0x1 SSTORE JUMP JUMPDEST PUSH1 0x40 MLOAD PUSH4 0x3EE5AEB5 PUSH1 0xE0 SHL DUP2 MSTORE PUSH1 0x4 SWAP1 REVERT JUMPDEST SWAP1 PUSH1 0x1F DUP1 NOT SWAP2 ADD AND DUP2 ADD SWAP1 DUP2 LT PUSH8 0xFFFFFFFFFFFFFFFF DUP3 GT OR PUSH2 0x10FA JUMPI PUSH1 0x40 MSTORE JUMP JUMPDEST PUSH4 0x4E487B71 PUSH1 0xE0 SHL PUSH1 0x0 MSTORE PUSH1 0x41 PUSH1 0x4 MSTORE PUSH1 0x24 PUSH1 0x0 REVERT JUMPDEST SWAP1 PUSH1 0x0 PUSH1 0x20 SWAP2 DUP3 DUP2 MLOAD SWAP2 ADD DUP3 DUP6 GAS CALL ISZERO PUSH2 0x116C JUMPI PUSH1 0x0 MLOAD RETURNDATASIZE PUSH2 0x1163 JUMPI POP PUSH1 0x1 PUSH1 0x1 PUSH1 0xA0 SHL SUB DUP2 AND EXTCODESIZE ISZERO JUMPDEST PUSH2 0x1141 JUMPI POP JUMP JUMPDEST PUSH1 0x40 MLOAD PUSH4 0x5274AFE7 PUSH1 0xE0 SHL DUP2 MSTORE PUSH1 0x1 PUSH1 0x1 PUSH1 0xA0 SHL SUB SWAP1 SWAP2 AND PUSH1 0x4 DUP3 ADD MSTORE PUSH1 0x24 SWAP1 REVERT JUMPDEST PUSH1 0x1 EQ ISZERO PUSH2 0x113A JUMP JUMPDEST PUSH1 0x40 MLOAD RETURNDATASIZE PUSH1 0x0 DUP3 RETURNDATACOPY RETURNDATASIZE SWAP1 REVERT JUMPDEST SWAP2 SWAP1 DUP3 ADD DUP1 SWAP3 GT PUSH2 0x1185 JUMPI JUMP JUMPDEST PUSH4 0x4E487B71 PUSH1 0xE0 SHL PUSH1 0x0 MSTORE PUSH1 0x11 PUSH1 0x4 MSTORE PUSH1 0x24 PUSH1 0x0 REVERT JUMPDEST SWAP2 SWAP1 SWAP2 PUSH2 0x11A6 PUSH2 0x21D2 JUMP JUMPDEST PUSH1 0xFF PUSH1 0x2 SLOAD PUSH1 0xA0 SHR AND PUSH1 0x6 DUP2 LT ISZERO PUSH2 0xEDB JUMPI PUSH1 0x1 SUB PUSH2 0x12FB JUMPI PUSH1 0xFF PUSH1 0x6 SLOAD PUSH1 0x8 SHR AND PUSH2 0x12E9 JUMPI PUSH32 0x0 DUP4 LT PUSH2 0x12D7 JUMPI PUSH1 0x1 DUP1 PUSH1 0xA0 SHL SUB AND PUSH1 0x0 SWAP3 DUP2 DUP5 MSTORE PUSH1 0x7 PUSH1 0x20 MSTORE PUSH1 0x40 SWAP1 PUSH2 0x1216 DUP2 DUP4 DUP8 KECCAK256 SLOAD PUSH2 0x1178 JUMP JUMPDEST PUSH32 0x0 DUP2 GT PUSH2 0x12C6 JUMPI DUP4 DUP7 MSTORE PUSH1 0x7 PUSH1 0x20 MSTORE DUP3 DUP7 KECCAK256 SLOAD ISZERO PUSH2 0x129B JUMPI JUMPDEST DUP3 DUP7 DUP6 PUSH32 0xFA35A310D7113DDDCE1C275DA946348E9AAEBF9050B00B372033C4D84B0BD6EB SWAP7 SWAP8 SWAP9 MSTORE PUSH1 0x7 PUSH1 0x20 MSTORE KECCAK256 SSTORE PUSH2 0x128A DUP2 PUSH1 0x3 SLOAD PUSH2 0x1178 JUMP JUMPDEST DUP1 PUSH1 0x3 SSTORE DUP3 MLOAD SWAP2 DUP3 MSTORE PUSH1 0x20 DUP3 ADD MSTORE LOG2 JUMP JUMPDEST PUSH1 0x4 SLOAD PUSH1 0x0 NOT DUP2 EQ PUSH2 0x12B2 JUMPI PUSH1 0x1 ADD PUSH1 0x4 SSTORE PUSH2 0x124F JUMP JUMPDEST PUSH4 0x4E487B71 PUSH1 0xE0 SHL DUP8 MSTORE PUSH1 0x11 PUSH1 0x4 MSTORE PUSH1 0x24 DUP8 REVERT JUMPDEST DUP3 MLOAD PUSH4 0x5E508CD3 PUSH1 0xE1 SHL DUP2 MSTORE PUSH1 0x4 SWAP1 REVERT JUMPDEST PUSH1 0x40 MLOAD PUSH4 0x6C7591B5 PUSH1 0xE1 SHL DUP2 MSTORE PUSH1 0x4 SWAP1 REVERT JUMPDEST PUSH1 0x40 MLOAD PUSH4 0xAB35696F PUSH1 0xE0 SHL DUP2 MSTORE PUSH1 0x4 SWAP1 REVERT JUMPDEST PUSH1 0x40 MLOAD PUSH4 0x7A92F19 PUSH1 0xE5 SHL DUP2 MSTORE PUSH1 0x4 SWAP1 REVERT JUMPDEST DUP2 DUP2 MUL SWAP3 SWAP2 DUP2 ISZERO SWAP2 DUP5 DIV EQ OR ISZERO PUSH2 0x1185 JUMPI JUMP JUMPDEST DUP2 ISZERO PUSH2 0x132A JUMPI DIV SWAP1 JUMP JUMPDEST PUSH4 0x4E487B71 PUSH1 0xE0 SHL PUSH1 0x0 MSTORE PUSH1 0x12 PUSH1 0x4 MSTORE PUSH1 0x24 PUSH1 0x0 REVERT JUMPDEST SWAP2 SWAP1 DUP3 SUB SWAP2 DUP3 GT PUSH2 0x1185 JUMPI JUMP JUMPDEST SWAP1 DUP2 PUSH1 0x20 SWAP2 SUB SLT PUSH2 0xF07 JUMPI MLOAD DUP1 ISZERO ISZERO DUP2 SUB PUSH2 0xF07 JUMPI SWAP1 JUMP JUMPDEST RETURNDATASIZE ISZERO PUSH2 0x13A0 JUMPI RETURNDATASIZE SWAP1 PUSH8 0xFFFFFFFFFFFFFFFF DUP3 GT PUSH2 0x10FA JUMPI PUSH1 0x40 MLOAD SWAP2 PUSH2 0x1394 PUSH1 0x1F DUP3 ADD PUSH1 0x1F NOT AND PUSH1 0x20 ADD DUP5 PUSH2 0x10D8 JUMP JUMPDEST DUP3 MSTORE RETURNDATASIZE PUSH1 0x0 PUSH1 0x20 DUP5 ADD RETURNDATACOPY JUMP JUMPDEST PUSH1 0x60 SWAP1 JUMP JUMPDEST PUSH2 0x13AD PUSH2 0x21D2 JUMP JUMPDEST PUSH1 0x2 SLOAD PUSH1 0x0 PUSH1 0xFF DUP3 PUSH1 0xA0 SHR AND PUSH1 0x6 DUP2 LT ISZERO PUSH2 0x2141 JUMPI PUSH1 0x2 SUB PUSH2 0x12FB JUMPI PUSH1 0x6 SLOAD PUSH1 0xFF DUP2 AND PUSH2 0x12FB JUMPI PUSH1 0xFF NOT AND PUSH1 0x1 OR PUSH1 0x6 SSTORE PUSH1 0x3 SLOAD SWAP2 PUSH32 0x0 DUP4 LT PUSH2 0x210A JUMPI POP PUSH8 0xDE0B6B3A7640000 DUP1 DUP4 MUL SWAP2 DUP4 ISZERO SWAP3 DUP5 DUP2 DIV DUP4 EQ DUP5 OR ISZERO PUSH2 0x20F6 JUMPI PUSH2 0x1451 SWAP1 PUSH32 0x0 SWAP1 PUSH2 0x1320 JUMP JUMPDEST PUSH1 0x5 SSTORE PUSH2 0x1F4 SWAP3 DUP4 DUP6 MUL SWAP4 DUP6 DUP6 DIV EQ OR ISZERO PUSH2 0x20E2 JUMPI PUSH2 0x1476 PUSH2 0x2710 DUP1 SWAP5 DIV DUP1 SWAP6 PUSH2 0x1340 JUMP JUMPDEST SWAP4 PUSH32 0x0 PUSH1 0x1 PUSH1 0x1 PUSH1 0xA0 SHL SUB AND PUSH2 0x2086 JUMPI PUSH32 0x0 PUSH1 0x1 PUSH1 0x1 PUSH1 0xA0 SHL SUB AND DUP1 EXTCODESIZE ISZERO PUSH2 0x2EA JUMPI DUP3 SWAP1 PUSH1 0x24 PUSH1 0x40 MLOAD DUP1 SWAP5 DUP2 SWAP4 PUSH4 0x39650D1F PUSH1 0xE0 SHL DUP4 MSTORE ADDRESS PUSH1 0x4 DUP5 ADD MSTORE GAS CALL DUP1 ISZERO PUSH2 0x1D02 JUMPI PUSH2 0x205A JUMPI JUMPDEST POP SWAP1 JUMPDEST DUP3 PUSH2 0x152C PUSH32 0x0 DUP7 PUSH2 0x130D JUMP JUMPDEST DIV SWAP3 PUSH1 0x5 SLOAD PUSH2 0xFFFF PUSH32 0x0 AND DUP3 ADD SWAP1 DUP2 DUP4 GT PUSH2 0x1C80 JUMPI SWAP1 PUSH2 0x156A SWAP2 PUSH2 0x130D JUMP JUMPDEST DIV SWAP1 DUP1 DUP5 MUL SWAP1 DUP5 DUP3 DIV EQ DUP5 ISZERO OR ISZERO PUSH2 0x1D79 JUMPI SWAP1 PUSH2 0x1586 SWAP2 PUSH2 0x1320 JUMP JUMPDEST PUSH1 0x40 MLOAD PUSH4 0x95EA7B3 PUSH1 0xE0 SHL DUP2 MSTORE PUSH32 0x0 PUSH1 0x1 PUSH1 0x1 PUSH1 0xA0 SHL SUB AND PUSH1 0x4 DUP3 ADD MSTORE PUSH1 0x24 DUP2 ADD DUP3 SWAP1 MSTORE PUSH1 0x20 DUP2 DUP1 PUSH1 0x44 DUP2 ADD SUB DUP2 DUP7 PUSH32 0x0 PUSH1 0x1 PUSH1 0x1 PUSH1 0xA0 SHL SUB AND GAS CALL DUP1 ISZERO PUSH2 0x1CC8 JUMPI PUSH2 0x203B JUMPI JUMPDEST POP PUSH32 0x0 PUSH1 0x1 PUSH1 0x1 PUSH1 0xA0 SHL SUB AND PUSH2 0x1D8D JUMPI PUSH2 0x12C TIMESTAMP ADD DUP1 TIMESTAMP GT PUSH2 0x1D79 JUMPI PUSH1 0x40 MLOAD SWAP2 PUSH4 0xF305D719 PUSH1 0xE0 SHL DUP4 MSTORE PUSH1 0x1 DUP1 PUSH1 0xA0 SHL SUB PUSH32 0x0 AND PUSH1 0x4 DUP5 ADD MSTORE PUSH1 0x24 DUP4 ADD MSTORE DUP3 PUSH1 0x44 DUP4 ADD MSTORE DUP3 PUSH1 0x64 DUP4 ADD MSTORE ADDRESS PUSH1 0x84 DUP4 ADD MSTORE PUSH1 0xA4 DUP3 ADD MSTORE PUSH1 0x60 DUP2 PUSH1 0xC4 DUP2 DUP7 PUSH1 0x1 DUP1 PUSH1 0xA0 SHL SUB PUSH32 0x0 AND GAS CALL DUP1 ISZERO PUSH2 0x1D02 JUMPI PUSH2 0x1D4B JUMPI JUMPDEST POP PUSH1 0x40 MLOAD PUSH4 0xC45A0155 PUSH1 0xE0 SHL DUP2 MSTORE PUSH1 0x20 DUP2 PUSH1 0x4 DUP2 PUSH32 0x0 PUSH1 0x1 PUSH1 0x1 PUSH1 0xA0 SHL SUB AND GAS STATICCALL SWAP1 DUP2 ISZERO PUSH2 0x1D02 JUMPI DUP3 SWAP2 PUSH2 0x1D2C JUMPI JUMPDEST POP PUSH1 0x40 MLOAD PUSH4 0x15AB88C9 PUSH1 0xE3 SHL DUP2 MSTORE SWAP1 PUSH1 0x20 DUP3 PUSH1 0x4 DUP2 PUSH32 0x0 PUSH1 0x1 PUSH1 0x1 PUSH1 0xA0 SHL SUB AND GAS STATICCALL SWAP2 DUP3 ISZERO PUSH2 0x1CC8 JUMPI SWAP2 PUSH1 0x20 SWAP2 PUSH2 0x17D6 SWAP4 DUP6 SWAP3 PUSH2 0x1D0D JUMPI JUMPDEST POP PUSH1 0x40 MLOAD PUSH4 0xE6A43905 PUSH1 0xE0 SHL DUP2 MSTORE PUSH1 0x1 PUSH1 0x1 PUSH1 0xA0 SHL SUB PUSH32 0x0 DUP2 AND PUSH1 0x4 DUP4 ADD MSTORE SWAP1 SWAP3 AND PUSH1 0x24 DUP4 ADD MSTORE SWAP1 SWAP3 DUP4 SWAP2 SWAP1 DUP3 SWAP1 DUP2 SWAP1 PUSH1 0x44 DUP3 ADD SWAP1 JUMP JUMPDEST SUB SWAP2 PUSH1 0x1 PUSH1 0x1 PUSH1 0xA0 SHL SUB AND GAS STATICCALL SWAP1 DUP2 ISZERO PUSH2 0x1D02 JUMPI DUP3 SWAP2 PUSH2 0x1CD3 JUMPI JUMPDEST POP SWAP3 JUMPDEST PUSH1 0x40 MLOAD PUSH4 0x70A08231 PUSH1 0xE0 SHL DUP2 MSTORE ADDRESS PUSH1 0x4 DUP3 ADD MSTORE SWAP3 PUSH1 0x20 DUP5 PUSH1 0x24 DUP2 PUSH1 0x1 PUSH1 0x1 PUSH1 0xA0 SHL SUB DUP10 AND GAS STATICCALL SWAP4 DUP5 ISZERO PUSH2 0x1CC8 JUMPI DUP4 SWAP5 PUSH2 0x1C94 JUMPI JUMPDEST POP PUSH32 0x0 PUSH3 0x278D00 SWAP1 DUP1 DUP3 DUP2 MUL DIV DUP3 EQ DUP2 ISZERO OR ISZERO PUSH2 0x1C80 JUMPI PUSH2 0x1869 SWAP2 MUL TIMESTAMP PUSH2 0x1178 JUMP JUMPDEST PUSH1 0x2 SLOAD PUSH1 0x40 MLOAD PUSH4 0x95EA7B3 PUSH1 0xE0 SHL DUP2 MSTORE PUSH1 0x1 PUSH1 0x1 PUSH1 0xA0 SHL SUB SWAP1 SWAP2 AND PUSH1 0x4 DUP3 ADD MSTORE PUSH1 0x24 DUP2 ADD DUP7 SWAP1 MSTORE PUSH1 0x20 DUP2 DUP1 PUSH1 0x44 DUP2 ADD SUB DUP2 DUP9 PUSH1 0x1 PUSH1 0x1 PUSH1 0xA0 SHL SUB DUP13 AND GAS CALL DUP1 ISZERO PUSH2 0x1C46 JUMPI PUSH2 0x1C51 JUMPI JUMPDEST POP PUSH1 0x2 SLOAD PUSH1 0x40 MLOAD PUSH4 0xAA393F3 PUSH1 0xE0 SHL DUP2 MSTORE PUSH1 0x1 PUSH1 0x1 PUSH1 0xA0 SHL SUB DUP9 DUP2 AND PUSH1 0x4 DUP4 ADD MSTORE PUSH1 0x24 DUP3 ADD DUP9 SWAP1 MSTORE PUSH1 0x44 DUP3 ADD DUP5 SWAP1 MSTORE PUSH32 0x0 DUP2 AND PUSH1 0x64 DUP4 ADD MSTORE SWAP1 SWAP2 PUSH1 0x20 SWAP2 DUP4 SWAP2 PUSH1 0x84 SWAP2 DUP4 SWAP2 DUP11 SWAP2 AND GAS CALL DUP1 ISZERO PUSH2 0x1C46 JUMPI PUSH2 0x1C1B JUMPI JUMPDEST POP PUSH1 0x40 MLOAD SWAP1 DUP6 DUP3 MSTORE PUSH1 0x20 DUP3 ADD MSTORE PUSH32 0xAC1D76749E5447B7B16F5AB61447E1BD502F3BB4807AF3B28E620D1700A6EE45 PUSH1 0x40 PUSH1 0x1 DUP1 PUSH1 0xA0 SHL SUB DUP9 AND SWAP3 LOG2 PUSH32 0x0 PUSH1 0x1 PUSH1 0x1 PUSH1 0xA0 SHL SUB AND PUSH2 0x1AEF JUMPI JUMPDEST PUSH2 0x1998 SWAP2 PUSH2 0x1340 JUMP JUMPDEST PUSH32 0x0 PUSH1 0x1 PUSH1 0x1 PUSH1 0xA0 SHL SUB AND PUSH2 0x1A6D JUMPI DUP2 DUP1 DUP1 SWAP3 PUSH32 0x0 GAS CALL PUSH2 0x19F5 PUSH2 0x1365 JUMP JUMPDEST POP ISZERO PUSH2 0x1A5B JUMPI PUSH32 0x6E4389167D2AFBD1CCB4797EA87E29958ADBF74CD16BA077A2EE5AB8460784E5 SWAP2 PUSH1 0x80 SWAP2 JUMPDEST PUSH1 0x3 PUSH1 0xA0 SHL PUSH1 0xFF PUSH1 0xA0 SHL NOT PUSH1 0x2 SLOAD AND OR PUSH1 0x2 SSTORE PUSH1 0x5 SLOAD SWAP2 PUSH1 0x3 SLOAD PUSH1 0x40 MLOAD SWAP4 DUP5 MSTORE PUSH1 0x20 DUP5 ADD MSTORE PUSH1 0x1 DUP1 PUSH1 0xA0 SHL SUB AND PUSH1 0x40 DUP4 ADD MSTORE PUSH1 0x60 DUP3 ADD MSTORE LOG1 JUMP JUMPDEST PUSH1 0x40 MLOAD PUSH4 0x12171D83 PUSH1 0xE3 SHL DUP2 MSTORE PUSH1 0x4 SWAP1 REVERT JUMPDEST PUSH32 0x6E4389167D2AFBD1CCB4797EA87E29958ADBF74CD16BA077A2EE5AB8460784E5 SWAP4 PUSH1 0x80 SWAP4 SWAP1 SWAP3 POP SWAP1 PUSH2 0x1AEA SWAP1 PUSH32 0x0 PUSH32 0x0 PUSH1 0x1 PUSH1 0x1 PUSH1 0xA0 SHL SUB AND PUSH2 0x2155 JUMP JUMPDEST PUSH2 0x1A21 JUMP JUMPDEST PUSH1 0x40 MLOAD PUSH4 0x70A08231 PUSH1 0xE0 SHL DUP2 MSTORE ADDRESS PUSH1 0x4 DUP3 ADD MSTORE SWAP2 PUSH1 0x20 DUP4 PUSH1 0x24 DUP2 PUSH32 0x0 PUSH1 0x1 PUSH1 0x1 PUSH1 0xA0 SHL SUB AND GAS STATICCALL SWAP3 DUP4 ISZERO PUSH2 0x1C10 JUMPI DUP5 SWAP4 PUSH2 0x1BDA JUMPI JUMPDEST POP PUSH2 0x1B72 PUSH2 0x1998 SWAP4 PUSH32 0x0 SWAP1 PUSH2 0x1340 JUMP JUMPDEST DUP1 PUSH2 0x1B80 JUMPI JUMPDEST POP SWAP2 POP PUSH2 0x198F JUMP JUMPDEST PUSH2 0x1BD4 SWAP1 PUSH32 0x0 PUSH32 0x0 PUSH1 0x1 PUSH1 0x1 PUSH1 0xA0 SHL SUB AND PUSH2 0x2155 JUMP JUMPDEST CODESIZE PUSH2 0x1B78 JUMP JUMPDEST SWAP3 POP PUSH1 0x20 DUP4 RETURNDATASIZE PUSH1 0x20 GT PUSH2 0x1C08 JUMPI JUMPDEST DUP2 PUSH2 0x1BF5 PUSH1 0x20 SWAP4 DUP4 PUSH2 0x10D8 JUMP JUMPDEST DUP2 ADD SUB SLT PUSH2 0xF07 JUMPI SWAP2 MLOAD SWAP2 PUSH2 0x1B72 PUSH2 0x1B43 JUMP JUMPDEST RETURNDATASIZE SWAP2 POP PUSH2 0x1BE8 JUMP JUMPDEST PUSH1 0x40 MLOAD RETURNDATASIZE DUP7 DUP3 RETURNDATACOPY RETURNDATASIZE SWAP1 REVERT JUMPDEST PUSH1 0x20 SWAP1 DUP2 RETURNDATASIZE DUP4 GT PUSH2 0x1C3F JUMPI JUMPDEST PUSH2 0x1C31 DUP2 DUP4 PUSH2 0x10D8 JUMP JUMPDEST DUP2 ADD SUB SLT PUSH2 0xF07 JUMPI CODESIZE PUSH2 0x1925 JUMP JUMPDEST POP RETURNDATASIZE PUSH2 0x1C27 JUMP JUMPDEST PUSH1 0x40 MLOAD RETURNDATASIZE DUP8 DUP3 RETURNDATACOPY RETURNDATASIZE SWAP1 REVERT JUMPDEST PUSH2 0x1C72 SWAP1 PUSH1 0x20 RETURNDATASIZE PUSH1 0x20 GT PUSH2 0x1C79 JUMPI JUMPDEST PUSH2 0x1C6A DUP2 DUP4 PUSH2 0x10D8 JUMP JUMPDEST DUP2 ADD SWAP1 PUSH2 0x134D JUMP JUMPDEST POP CODESIZE PUSH2 0x18B2 JUMP JUMPDEST POP RETURNDATASIZE PUSH2 0x1C60 JUMP JUMPDEST PUSH4 0x4E487B71 PUSH1 0xE0 SHL DUP6 MSTORE PUSH1 0x11 PUSH1 0x4 MSTORE PUSH1 0x24 DUP6 REVERT JUMPDEST SWAP1 SWAP4 POP PUSH1 0x20 DUP2 RETURNDATASIZE PUSH1 0x20 GT PUSH2 0x1CC0 JUMPI JUMPDEST DUP2 PUSH2 0x1CB0 PUSH1 0x20 SWAP4 DUP4 PUSH2 0x10D8 JUMP JUMPDEST DUP2 ADD SUB SLT PUSH2 0xF07 JUMPI MLOAD SWAP3 CODESIZE PUSH2 0x1828 JUMP JUMPDEST RETURNDATASIZE SWAP2 POP PUSH2 0x1CA3 JUMP JUMPDEST PUSH1 0x40 MLOAD RETURNDATASIZE DUP6 DUP3 RETURNDATACOPY RETURNDATASIZE SWAP1 REVERT JUMPDEST PUSH2 0x1CF5 SWAP2 POP PUSH1 0x20 RETURNDATASIZE PUSH1 0x20 GT PUSH2 0x1CFB JUMPI JUMPDEST PUSH2 0x1CED DUP2 DUP4 PUSH2 0x10D8 JUMP JUMPDEST DUP2 ADD SWAP1 PUSH2 0x21B3 JUMP JUMPDEST CODESIZE PUSH2 0x17F1 JUMP JUMPDEST POP RETURNDATASIZE PUSH2 0x1CE3 JUMP JUMPDEST PUSH1 0x40 MLOAD RETURNDATASIZE DUP5 DUP3 RETURNDATACOPY RETURNDATASIZE SWAP1 REVERT JUMPDEST PUSH2 0x1D25 SWAP2 SWAP3 POP DUP4 RETURNDATASIZE DUP6 GT PUSH2 0x1CFB JUMPI PUSH2 0x1CED DUP2 DUP4 PUSH2 0x10D8 JUMP JUMPDEST SWAP1 CODESIZE PUSH2 0x1780 JUMP JUMPDEST PUSH2 0x1D45 SWAP2 POP PUSH1 0x20 RETURNDATASIZE PUSH1 0x20 GT PUSH2 0x1CFB JUMPI PUSH2 0x1CED DUP2 DUP4 PUSH2 0x10D8 JUMP JUMPDEST CODESIZE PUSH2 0x1729 JUMP JUMPDEST PUSH2 0x1D6B SWAP1 PUSH1 0x60 RETURNDATASIZE DUP2 GT PUSH2 0x1D72 JUMPI JUMPDEST PUSH2 0x1D63 DUP2 DUP4 PUSH2 0x10D8 JUMP JUMPDEST DUP2 ADD SWAP1 PUSH2 0x2198 JUMP JUMPDEST POP POP PUSH2 0x16DB JUMP JUMPDEST POP RETURNDATASIZE PUSH2 0x1D59 JUMP JUMPDEST PUSH4 0x4E487B71 PUSH1 0xE0 SHL DUP4 MSTORE PUSH1 0x11 PUSH1 0x4 MSTORE PUSH1 0x24 DUP4 REVERT JUMPDEST PUSH1 0x40 MLOAD PUSH4 0x95EA7B3 PUSH1 0xE0 SHL DUP2 MSTORE PUSH32 0x0 PUSH1 0x1 PUSH1 0x1 PUSH1 0xA0 SHL SUB AND PUSH1 0x4 DUP3 ADD MSTORE PUSH1 0x24 DUP2 ADD DUP5 SWAP1 MSTORE PUSH1 0x20 DUP2 DUP1 PUSH1 0x44 DUP2 ADD SUB DUP2 DUP7 PUSH32 0x0 PUSH1 0x1 PUSH1 0x1 PUSH1 0xA0 SHL SUB AND GAS CALL DUP1 ISZERO PUSH2 0x1CC8 JUMPI PUSH2 0x201C JUMPI JUMPDEST POP PUSH2 0x12C TIMESTAMP ADD DUP1 TIMESTAMP GT PUSH2 0x1D79 JUMPI PUSH1 0x40 MLOAD SWAP2 PUSH3 0xE8E337 PUSH1 0xE8 SHL DUP4 MSTORE PUSH1 0x1 DUP1 PUSH1 0xA0 SHL SUB PUSH32 0x0 AND PUSH1 0x4 DUP5 ADD MSTORE PUSH1 0x1 DUP1 PUSH1 0xA0 SHL SUB PUSH32 0x0 AND PUSH1 0x24 DUP5 ADD MSTORE PUSH1 0x44 DUP4 ADD MSTORE DUP4 PUSH1 0x64 DUP4 ADD MSTORE DUP3 PUSH1 0x84 DUP4 ADD MSTORE DUP3 PUSH1 0xA4 DUP4 ADD MSTORE ADDRESS PUSH1 0xC4 DUP4 ADD MSTORE PUSH1 0xE4 DUP3 ADD MSTORE PUSH1 0x60 DUP2 PUSH2 0x104 DUP2 DUP6 PUSH1 0x1 DUP1 PUSH1 0xA0 SHL SUB PUSH32 0x0 AND GAS CALL DUP1 ISZERO PUSH2 0x1D02 JUMPI PUSH2 0x1FFE JUMPI JUMPDEST POP PUSH1 0x40 MLOAD PUSH4 0xC45A0155 PUSH1 0xE0 SHL DUP2 MSTORE PUSH1 0x20 DUP2 PUSH1 0x4 DUP2 PUSH32 0x0 PUSH1 0x1 PUSH1 0x1 PUSH1 0xA0 SHL SUB AND GAS STATICCALL SWAP1 DUP2 ISZERO PUSH2 0x1D02 JUMPI DUP3 SWAP2 PUSH2 0x1FDF JUMPI JUMPDEST POP PUSH1 0x40 MLOAD PUSH4 0xE6A43905 PUSH1 0xE0 SHL DUP2 MSTORE PUSH1 0x1 PUSH1 0x1 PUSH1 0xA0 SHL SUB PUSH32 0x0 DUP2 AND PUSH1 0x4 DUP4 ADD MSTORE PUSH32 0x0 DUP2 AND PUSH1 0x24 DUP4 ADD MSTORE SWAP1 SWAP2 PUSH1 0x20 SWAP2 DUP4 SWAP2 PUSH1 0x44 SWAP2 DUP4 SWAP2 AND GAS STATICCALL SWAP1 DUP2 ISZERO PUSH2 0x1D02 JUMPI DUP3 SWAP2 PUSH2 0x1FC0 JUMPI JUMPDEST POP SWAP3 PUSH2 0x17F4 JUMP JUMPDEST PUSH2 0x1FD9 SWAP2 POP PUSH1 0x20 RETURNDATASIZE PUSH1 0x20 GT PUSH2 0x1CFB JUMPI PUSH2 0x1CED DUP2 DUP4 PUSH2 0x10D8 JUMP JUMPDEST CODESIZE PUSH2 0x1FB9 JUMP JUMPDEST PUSH2 0x1FF8 SWAP2 POP PUSH1 0x20 RETURNDATASIZE PUSH1 0x20 GT PUSH2 0x1CFB JUMPI PUSH2 0x1CED DUP2 DUP4 PUSH2 0x10D8 JUMP JUMPDEST CODESIZE PUSH2 0x1F36 JUMP JUMPDEST PUSH2 0x2015 SWAP1 PUSH1 0x60 RETURNDATASIZE DUP2 GT PUSH2 0x1D72 JUMPI PUSH2 0x1D63 DUP2 DUP4 PUSH2 0x10D8 JUMP JUMPDEST POP POP PUSH2 0x1EE8 JUMP JUMPDEST PUSH2 0x2034 SWAP1 PUSH1 0x20 RETURNDATASIZE PUSH1 0x20 GT PUSH2 0x1C79 JUMPI PUSH2 0x1C6A DUP2 DUP4 PUSH2 0x10D8 JUMP JUMPDEST POP CODESIZE PUSH2 0x1E12 JUMP JUMPDEST PUSH2 0x2053 SWAP1 PUSH1 0x20 RETURNDATASIZE PUSH1 0x20 GT PUSH2 0x1C79 JUMPI PUSH2 0x1C6A DUP2 DUP4 PUSH2 0x10D8 JUMP JUMPDEST POP CODESIZE PUSH2 0x160B JUMP JUMPDEST PUSH8 0xFFFFFFFFFFFFFFFF DUP2 GT PUSH2 0x2072 JUMPI PUSH1 0x40 MSTORE CODESIZE PUSH2 0x14FE JUMP JUMPDEST PUSH4 0x4E487B71 PUSH1 0xE0 SHL DUP3 MSTORE PUSH1 0x41 PUSH1 0x4 MSTORE PUSH1 0x24 DUP3 REVERT JUMPDEST SWAP1 SWAP2 SWAP1 PUSH2 0x20DD SWAP1 PUSH32 0x0 PUSH32 0x0 PUSH1 0x1 PUSH1 0x1 PUSH1 0xA0 SHL SUB AND PUSH2 0x2155 JUMP JUMPDEST PUSH2 0x1501 JUMP JUMPDEST PUSH4 0x4E487B71 PUSH1 0xE0 SHL DUP2 MSTORE PUSH1 0x11 PUSH1 0x4 MSTORE PUSH1 0x24 SWAP1 REVERT JUMPDEST PUSH4 0x4E487B71 PUSH1 0xE0 SHL DUP3 MSTORE PUSH1 0x11 PUSH1 0x4 MSTORE PUSH1 0x24 DUP3 REVERT JUMPDEST PUSH1 0xFF PUSH1 0xA0 SHL NOT AND PUSH1 0x1 PUSH1 0xA2 SHL OR PUSH1 0x2 SSTORE PUSH32 0xE48846A3DCA191C762AB6AAA1E929CCAF55E31A875FB78AD1B93E15EF4830ACA SWAP2 POP DUP1 LOG1 JUMP JUMPDEST PUSH4 0x4E487B71 PUSH1 0xE0 SHL DUP3 MSTORE PUSH1 0x21 PUSH1 0x4 MSTORE PUSH1 0x24 DUP3 REVERT JUMPDEST PUSH1 0x40 MLOAD PUSH4 0xA9059CBB PUSH1 0xE0 SHL PUSH1 0x20 DUP3 ADD MSTORE PUSH1 0x1 PUSH1 0x1 PUSH1 0xA0 SHL SUB SWAP3 SWAP1 SWAP3 AND PUSH1 0x24 DUP4 ADD MSTORE PUSH1 0x44 DUP1 DUP4 ADD SWAP4 SWAP1 SWAP4 MSTORE SWAP2 DUP2 MSTORE PUSH2 0x2196 SWAP2 PUSH2 0x2191 PUSH1 0x64 DUP4 PUSH2 0x10D8 JUMP JUMPDEST PUSH2 0x1110 JUMP JUMPDEST JUMP JUMPDEST SWAP1 DUP2 PUSH1 0x60 SWAP2 SUB SLT PUSH2 0xF07 JUMPI DUP1 MLOAD SWAP2 PUSH1 0x40 PUSH1 0x20 DUP4 ADD MLOAD SWAP3 ADD MLOAD SWAP1 JUMP JUMPDEST SWAP1 DUP2 PUSH1 0x20 SWAP2 SUB SLT PUSH2 0xF07 JUMPI MLOAD PUSH1 0x1 PUSH1 0x1 PUSH1 0xA0 SHL SUB DUP2 AND DUP2 SUB PUSH2 0xF07 JUMPI SWAP1 JUMP JUMPDEST PUSH1 0x2 SLOAD PUSH1 0xFF DUP2 PUSH1 0xA0 SHR AND PUSH1 0x6 DUP2 LT ISZERO PUSH2 0xEDB JUMPI DUP1 ISZERO DUP1 PUSH2 0x2255 JUMPI JUMPDEST ISZERO PUSH2 0x2209 JUMPI POP POP PUSH1 0x2 DUP1 SLOAD PUSH1 0xFF PUSH1 0xA0 SHL NOT AND PUSH1 0x1 PUSH1 0xA0 SHL OR SWAP1 SSTORE JUMP JUMPDEST PUSH1 0x1 EQ DUP1 PUSH2 0x222B JUMPI JUMPDEST PUSH2 0x2219 JUMPI POP JUMP JUMPDEST PUSH1 0xFF PUSH1 0xA0 SHL NOT AND PUSH1 0x1 PUSH1 0xA1 SHL OR PUSH1 0x2 SSTORE JUMP JUMPDEST POP PUSH32 0x0 TIMESTAMP LT ISZERO PUSH2 0x2212 JUMP JUMPDEST POP PUSH32 0x0 TIMESTAMP LT ISZERO PUSH2 0x21ED JUMP JUMPDEST PUSH1 0xFF PUSH1 0x2 SLOAD PUSH1 0xA0 SHR AND PUSH1 0x6 DUP2 LT ISZERO PUSH2 0xEDB JUMPI DUP1 ISZERO DUP1 PUSH2 0x22E5 JUMPI JUMPDEST ISZERO PUSH2 0x22A4 JUMPI POP PUSH1 0x1 SWAP1 JUMP JUMPDEST PUSH1 0x1 DUP2 EQ DUP1 PUSH2 0x22BB JUMPI JUMPDEST PUSH2 0x22B5 JUMPI SWAP1 JUMP JUMPDEST POP PUSH1 0x2 SWAP1 JUMP JUMPDEST POP PUSH32 0x0 TIMESTAMP LT ISZERO PUSH2 0x22AE JUMP JUMPDEST POP PUSH32 0x0 TIMESTAMP LT ISZERO PUSH2 0x2299 JUMP JUMPDEST PUSH1 0xFF PUSH1 0x2 SLOAD PUSH1 0xA0 SHR AND PUSH1 0x6 DUP2 LT ISZERO PUSH2 0xEDB JUMPI PUSH1 0x3 SUB PUSH2 0x2384 JUMPI PUSH1 0x3 SLOAD DUP1 ISZERO PUSH2 0x237D JUMPI PUSH2 0x237A SWAP2 PUSH1 0x1 DUP1 PUSH1 0xA0 SHL SUB AND PUSH1 0x0 MSTORE PUSH1 0x7 PUSH1 0x20 MSTORE PUSH2 0x2375 PUSH1 0x40 PUSH1 0x0 KECCAK256 SLOAD PUSH32 0x0 SWAP1 PUSH2 0x130D JUMP JUMPDEST PUSH2 0x1320 JUMP JUMPDEST SWAP1 JUMP JUMPDEST POP POP PUSH1 0x0 SWAP1 JUMP JUMPDEST POP PUSH1 0x0 SWAP1 JUMP INVALID LOG2 PUSH5 0x6970667358 0x22 SLT KECCAK256 PUSH16 0x7083B8B1B3CE9203BB789C244C0D7524 SIGNEXTEND CALL PUSH21 0x5773E585798F7BA4D437973864736F6C6343000814 STOP CALLER "},"methodIdentifiers":{"ADMIN_ROLE()":"75b238fc","DEFAULT_ADMIN_ROLE()":"a217fddf","cancel()":"ea8a1af0","claimTokens()":"48c54b9d","contribute()":"d7bb99ba","contributeERC20(uint256)":"8160059a","contributions(address)":"42e94c90","dexId()":"220c0956","dexRouter()":"0758d924","endTime()":"3197cbb6","feeSplitter()":"6052970c","finalTokenPrice()":"1cc64544","finalize()":"4bb278f3","getFinalPrice()":"9ce05df7","getRoleAdmin(bytes32)":"248a9ca3","getStatus()":"4e69d560","getUserAllocation(address)":"b920ade2","getUserContribution(address)":"bb8b2b47","grantRole(bytes32,address)":"2f2ff15d","hasClaimed(address)":"73b2e80e","hasRole(bytes32,address)":"91d14854","isFinalized()":"8d4e4083","isPaused()":"b187bd26","liquidityPercent()":"b0683755","listingPremiumBps()":"0b7c1ae1","lpLockMonths()":"8bcd8515","lpLocker()":"03fc2013","maxContribution()":"8d3d6576","minContribution()":"aaffadf3","participantCount()":"362f04c0","pause()":"8456cb59","paymentToken()":"3013ce29","projectOwner()":"a4475ce4","projectToken()":"4b60ce77","refund()":"590e1ae3","renounceRole(bytes32,address)":"36568abe","revokeRole(bytes32,address)":"d547741f","setLPLocker(address)":"b524f87b","softcap()":"f89be593","startTime()":"78e97925","status()":"200d2ed2","supportsInterface(bytes4)":"01ffc9a7","teamVesting()":"619f3d6c","tokensForSale()":"12aef8c3","totalRaised()":"c5c4744c","unpause()":"3f4ba83a"}}}}}