{"contracts/fairlaunch/LPLocker.sol":{"LPLocker":{"abi":[{"inputs":[],"name":"AlreadyWithdrawn","type":"error"},{"inputs":[],"name":"InvalidAmount","type":"error"},{"inputs":[],"name":"InvalidUnlockTime","type":"error"},{"inputs":[],"name":"NotBeneficiary","type":"error"},{"inputs":[],"name":"NotOwner","type":"error"},{"inputs":[],"name":"ReentrancyGuardReentrantCall","type":"error"},{"inputs":[{"internalType":"address","name":"token","type":"address"}],"name":"SafeERC20FailedOperation","type":"error"},{"inputs":[],"name":"StillLocked","type":"error"},{"anonymous":false,"inputs":[{"indexed":true,"internalType":"uint256","name":"lockId","type":"uint256"},{"indexed":true,"internalType":"address","name":"oldBeneficiary","type":"address"},{"indexed":true,"internalType":"address","name":"newBeneficiary","type":"address"}],"name":"BeneficiaryTransferred","type":"event"},{"anonymous":false,"inputs":[{"indexed":true,"internalType":"uint256","name":"lockId","type":"uint256"},{"indexed":true,"internalType":"address","name":"lpToken","type":"address"},{"indexed":true,"internalType":"address","name":"owner","type":"address"},{"indexed":false,"internalType":"address","name":"beneficiary","type":"address"},{"indexed":false,"internalType":"uint256","name":"amount","type":"uint256"},{"indexed":false,"internalType":"uint256","name":"unlockTime","type":"uint256"}],"name":"TokensLocked","type":"event"},{"anonymous":false,"inputs":[{"indexed":true,"internalType":"uint256","name":"lockId","type":"uint256"},{"indexed":true,"internalType":"address","name":"beneficiary","type":"address"},{"indexed":false,"internalType":"uint256","name":"amount","type":"uint256"}],"name":"TokensWithdrawn","type":"event"},{"inputs":[{"internalType":"uint256","name":"lockId","type":"uint256"}],"name":"getLock","outputs":[{"components":[{"internalType":"address","name":"lpToken","type":"address"},{"internalType":"address","name":"owner","type":"address"},{"internalType":"address","name":"beneficiary","type":"address"},{"internalType":"uint256","name":"amount","type":"uint256"},{"internalType":"uint256","name":"lockTime","type":"uint256"},{"internalType":"uint256","name":"unlockTime","type":"uint256"},{"internalType":"bool","name":"withdrawn","type":"bool"}],"internalType":"struct LPLocker.Lock","name":"","type":"tuple"}],"stateMutability":"view","type":"function"},{"inputs":[{"internalType":"uint256","name":"lockId","type":"uint256"}],"name":"getTimeUntilUnlock","outputs":[{"internalType":"uint256","name":"","type":"uint256"}],"stateMutability":"view","type":"function"},{"inputs":[{"internalType":"uint256","name":"lockId","type":"uint256"}],"name":"isLocked","outputs":[{"internalType":"bool","name":"","type":"bool"}],"stateMutability":"view","type":"function"},{"inputs":[],"name":"lockCount","outputs":[{"internalType":"uint256","name":"","type":"uint256"}],"stateMutability":"view","type":"function"},{"inputs":[{"internalType":"address","name":"lpToken","type":"address"},{"internalType":"uint256","name":"amount","type":"uint256"},{"internalType":"uint256","name":"unlockTime","type":"uint256"},{"internalType":"address","name":"beneficiary","type":"address"}],"name":"lockTokens","outputs":[{"internalType":"uint256","name":"lockId","type":"uint256"}],"stateMutability":"nonpayable","type":"function"},{"inputs":[{"internalType":"uint256","name":"","type":"uint256"}],"name":"locks","outputs":[{"internalType":"address","name":"lpToken","type":"address"},{"internalType":"address","name":"owner","type":"address"},{"internalType":"address","name":"beneficiary","type":"address"},{"internalType":"uint256","name":"amount","type":"uint256"},{"internalType":"uint256","name":"lockTime","type":"uint256"},{"internalType":"uint256","name":"unlockTime","type":"uint256"},{"internalType":"bool","name":"withdrawn","type":"bool"}],"stateMutability":"view","type":"function"},{"inputs":[{"internalType":"uint256","name":"lockId","type":"uint256"},{"internalType":"address","name":"newBeneficiary","type":"address"}],"name":"transferBeneficiary","outputs":[],"stateMutability":"nonpayable","type":"function"},{"inputs":[{"internalType":"uint256","name":"lockId","type":"uint256"}],"name":"withdrawTokens","outputs":[],"stateMutability":"nonpayable","type":"function"}],"evm":{"bytecode":{"linkReferences":{},"object":"6080806040523461001b57600160005561081790816100218239f35b600080fdfe60406080815260048036101561001457600080fd5b600091823560e01c80630aa393f3146104a05780630d6dd343146103f05780632f6fe5f7146103c6578063315a095d146102975780639b10b6f514610274578063d68f4dd114610187578063f4dadc611461010f5763f6aacfb11461007857600080fd5b3461010b57602036600319011261010b57806020938335815260018552208151926100a284610688565b60018060a01b0380835416855280600184015416868601526002830154168385015260038201546060850152810154608084015260ff60066005830154928360a0870152015416159260c0841591015282610101575b50519015158152f35b42109150386100f8565b8280fd5b503461010b57602036600319011261010b578060e0938335815260016020522060018060a01b0391828254169383600184015416936002840154166003840154918401549260ff600660058701549601541695815197885260208801528601526060850152608084015260a0830152151560c0820152f35b50903461010b57602036600319011261010b57818360e09460c083516101ac81610688565b82815282602082015282858201528260608201528260808201528260a08201520152823581526001602052208251916101e483610688565b60018060a01b03908183541694858552826001850154169260208601938452806002860154168287019081528160038701549460608901958652870154956080890196875260c060ff600660058b01549a60a08d019b8c52015416990198151589528451998a52511660208901525116908601525160608501525160808401525160a083015251151560c0820152f35b8382346102935781600319360112610293576020906002549051908152f35b5080fd5b503461010b57602036600319011261010b578135906102b4610722565b81845260016020528084206002810180546001600160a01b039290831690338290036103b657600581015442106103a65760068101805460ff81166103965760019060ff1916179055600384825416910196875486519363a9059cbb60e01b60208601526024850152604484015260448352608083019083821067ffffffffffffffff831117610383575060209492869492610372927f3f5fbaf86658fdadee77f1d46e7f8a72424ad9839eda6a1dc6eb0a4228e4226e98526106ba565b541694549051908152a36001815580f35b634e487b7160e01b8a5260419052602489fd5b8651636507689f60e01b81528990fd5b8451636100d92960e11b81528790fd5b845163644d871f60e01b81528790fd5b5082346103ed5760203660031901126103ed57506103e660209235610745565b9051908152f35b80fd5b50903461010b578160031936011261010b576001600160a01b0360243581811693833593909185900361049c5783865260016020528186209183600184015416330361048f5760ff60068401541661048257505060020180546001600160a01b03198116851790915516907fcac3b813aa052f85279f96655f0ccd339dbf77623d87f74fcd77af7719472d118480a480f35b51636507689f60e01b8152fd5b516330cd747160e01b8152fd5b8580fd5b50829034610293576080366003190112610293576001600160a01b0391833583811690819003610293576024359060443560643592868416809403610684576104e7610722565b801561067457428211156106645785516323b872dd60e01b60208201523360248201523060448201526064808201839052815260a0810167ffffffffffffffff81118282101761065157875261053d90846106ba565b60025496600019881461063e5790856006849360019897969560209c8a8d016002558c8c80519461056d86610688565b8a865260208601338152828701918d83528060608901948c86528b60808b019742895260a08c019a8b5260c08c019d8e52815260206001905220985116916bffffffffffffffffffffffff60a01b92838a5416178955600182908a019151168382541617905560028801925116908254161790555160038501555190830155516005820155019051151560ff8019835416911617905586519384528884015285830152857f2829c874cc2754efd69c7e3c418a785312752350649b2d9219a7f07b7871839b60603394a45551908152f35b634e487b7160e01b865260118952602486fd5b634e487b7160e01b875260418a52602487fd5b85516352aba6d360e11b81528890fd5b855163162908e360e11b81528890fd5b8480fd5b60e0810190811067ffffffffffffffff8211176106a457604052565b634e487b7160e01b600052604160045260246000fd5b906000602091828151910182855af115610716576000513d61070d57506001600160a01b0381163b155b6106eb5750565b604051635274afe760e01b81526001600160a01b039091166004820152602490fd5b600114156106e4565b6040513d6000823e3d90fd5b600260005414610733576002600055565b604051633ee5aeb560e01b8152600490fd5b6000526001602052604060002060405161075e81610688565b60018060a01b038083541682528060018401541660208301526002830154166040820152600382015460608201526004820154608082015260c060ff60066005850154948560a08601520154161515910152804210156107db574281039081116107c55790565b634e487b7160e01b600052601160045260246000fd5b5060009056fea26469706673582212204673a058afa0ae22350989abeaa95a5d3487ab9f008a40017845730da6fc956164736f6c63430008140033","opcodes":"PUSH1 0x80 DUP1 PUSH1 0x40 MSTORE CALLVALUE PUSH2 0x1B JUMPI PUSH1 0x1 PUSH1 0x0 SSTORE PUSH2 0x817 SWAP1 DUP2 PUSH2 0x21 DUP3 CODECOPY RETURN JUMPDEST PUSH1 0x0 DUP1 REVERT INVALID PUSH1 0x40 PUSH1 0x80 DUP2 MSTORE PUSH1 0x4 DUP1 CALLDATASIZE LT ISZERO PUSH2 0x14 JUMPI PUSH1 0x0 DUP1 REVERT JUMPDEST PUSH1 0x0 SWAP2 DUP3 CALLDATALOAD PUSH1 0xE0 SHR DUP1 PUSH4 0xAA393F3 EQ PUSH2 0x4A0 JUMPI DUP1 PUSH4 0xD6DD343 EQ PUSH2 0x3F0 JUMPI DUP1 PUSH4 0x2F6FE5F7 EQ PUSH2 0x3C6 JUMPI DUP1 PUSH4 0x315A095D EQ PUSH2 0x297 JUMPI DUP1 PUSH4 0x9B10B6F5 EQ PUSH2 0x274 JUMPI DUP1 PUSH4 0xD68F4DD1 EQ PUSH2 0x187 JUMPI DUP1 PUSH4 0xF4DADC61 EQ PUSH2 0x10F JUMPI PUSH4 0xF6AACFB1 EQ PUSH2 0x78 JUMPI PUSH1 0x0 DUP1 REVERT JUMPDEST CALLVALUE PUSH2 0x10B JUMPI PUSH1 0x20 CALLDATASIZE PUSH1 0x3 NOT ADD SLT PUSH2 0x10B JUMPI DUP1 PUSH1 0x20 SWAP4 DUP4 CALLDATALOAD DUP2 MSTORE PUSH1 0x1 DUP6 MSTORE KECCAK256 DUP2 MLOAD SWAP3 PUSH2 0xA2 DUP5 PUSH2 0x688 JUMP JUMPDEST PUSH1 0x1 DUP1 PUSH1 0xA0 SHL SUB DUP1 DUP4 SLOAD AND DUP6 MSTORE DUP1 PUSH1 0x1 DUP5 ADD SLOAD AND DUP7 DUP7 ADD MSTORE PUSH1 0x2 DUP4 ADD SLOAD AND DUP4 DUP6 ADD MSTORE PUSH1 0x3 DUP3 ADD SLOAD PUSH1 0x60 DUP6 ADD MSTORE DUP2 ADD SLOAD PUSH1 0x80 DUP5 ADD MSTORE PUSH1 0xFF PUSH1 0x6 PUSH1 0x5 DUP4 ADD SLOAD SWAP3 DUP4 PUSH1 0xA0 DUP8 ADD MSTORE ADD SLOAD AND ISZERO SWAP3 PUSH1 0xC0 DUP5 ISZERO SWAP2 ADD MSTORE DUP3 PUSH2 0x101 JUMPI JUMPDEST POP MLOAD SWAP1 ISZERO ISZERO DUP2 MSTORE RETURN JUMPDEST TIMESTAMP LT SWAP2 POP CODESIZE PUSH2 0xF8 JUMP JUMPDEST DUP3 DUP1 REVERT JUMPDEST POP CALLVALUE PUSH2 0x10B JUMPI PUSH1 0x20 CALLDATASIZE PUSH1 0x3 NOT ADD SLT PUSH2 0x10B JUMPI DUP1 PUSH1 0xE0 SWAP4 DUP4 CALLDATALOAD DUP2 MSTORE PUSH1 0x1 PUSH1 0x20 MSTORE KECCAK256 PUSH1 0x1 DUP1 PUSH1 0xA0 SHL SUB SWAP2 DUP3 DUP3 SLOAD AND SWAP4 DUP4 PUSH1 0x1 DUP5 ADD SLOAD AND SWAP4 PUSH1 0x2 DUP5 ADD SLOAD AND PUSH1 0x3 DUP5 ADD SLOAD SWAP2 DUP5 ADD SLOAD SWAP3 PUSH1 0xFF PUSH1 0x6 PUSH1 0x5 DUP8 ADD SLOAD SWAP7 ADD SLOAD AND SWAP6 DUP2 MLOAD SWAP8 DUP9 MSTORE PUSH1 0x20 DUP9 ADD MSTORE DUP7 ADD MSTORE PUSH1 0x60 DUP6 ADD MSTORE PUSH1 0x80 DUP5 ADD MSTORE PUSH1 0xA0 DUP4 ADD MSTORE ISZERO ISZERO PUSH1 0xC0 DUP3 ADD MSTORE RETURN JUMPDEST POP SWAP1 CALLVALUE PUSH2 0x10B JUMPI PUSH1 0x20 CALLDATASIZE PUSH1 0x3 NOT ADD SLT PUSH2 0x10B JUMPI DUP2 DUP4 PUSH1 0xE0 SWAP5 PUSH1 0xC0 DUP4 MLOAD PUSH2 0x1AC DUP2 PUSH2 0x688 JUMP JUMPDEST DUP3 DUP2 MSTORE DUP3 PUSH1 0x20 DUP3 ADD MSTORE DUP3 DUP6 DUP3 ADD MSTORE DUP3 PUSH1 0x60 DUP3 ADD MSTORE DUP3 PUSH1 0x80 DUP3 ADD MSTORE DUP3 PUSH1 0xA0 DUP3 ADD MSTORE ADD MSTORE DUP3 CALLDATALOAD DUP2 MSTORE PUSH1 0x1 PUSH1 0x20 MSTORE KECCAK256 DUP3 MLOAD SWAP2 PUSH2 0x1E4 DUP4 PUSH2 0x688 JUMP JUMPDEST PUSH1 0x1 DUP1 PUSH1 0xA0 SHL SUB SWAP1 DUP2 DUP4 SLOAD AND SWAP5 DUP6 DUP6 MSTORE DUP3 PUSH1 0x1 DUP6 ADD SLOAD AND SWAP3 PUSH1 0x20 DUP7 ADD SWAP4 DUP5 MSTORE DUP1 PUSH1 0x2 DUP7 ADD SLOAD AND DUP3 DUP8 ADD SWAP1 DUP2 MSTORE DUP2 PUSH1 0x3 DUP8 ADD SLOAD SWAP5 PUSH1 0x60 DUP10 ADD SWAP6 DUP7 MSTORE DUP8 ADD SLOAD SWAP6 PUSH1 0x80 DUP10 ADD SWAP7 DUP8 MSTORE PUSH1 0xC0 PUSH1 0xFF PUSH1 0x6 PUSH1 0x5 DUP12 ADD SLOAD SWAP11 PUSH1 0xA0 DUP14 ADD SWAP12 DUP13 MSTORE ADD SLOAD AND SWAP10 ADD SWAP9 ISZERO ISZERO DUP10 MSTORE DUP5 MLOAD SWAP10 DUP11 MSTORE MLOAD AND PUSH1 0x20 DUP10 ADD MSTORE MLOAD AND SWAP1 DUP7 ADD MSTORE MLOAD PUSH1 0x60 DUP6 ADD MSTORE MLOAD PUSH1 0x80 DUP5 ADD MSTORE MLOAD PUSH1 0xA0 DUP4 ADD MSTORE MLOAD ISZERO ISZERO PUSH1 0xC0 DUP3 ADD MSTORE RETURN JUMPDEST DUP4 DUP3 CALLVALUE PUSH2 0x293 JUMPI DUP2 PUSH1 0x3 NOT CALLDATASIZE ADD SLT PUSH2 0x293 JUMPI PUSH1 0x20 SWAP1 PUSH1 0x2 SLOAD SWAP1 MLOAD SWAP1 DUP2 MSTORE RETURN JUMPDEST POP DUP1 REVERT JUMPDEST POP CALLVALUE PUSH2 0x10B JUMPI PUSH1 0x20 CALLDATASIZE PUSH1 0x3 NOT ADD SLT PUSH2 0x10B JUMPI DUP2 CALLDATALOAD SWAP1 PUSH2 0x2B4 PUSH2 0x722 JUMP JUMPDEST DUP2 DUP5 MSTORE PUSH1 0x1 PUSH1 0x20 MSTORE DUP1 DUP5 KECCAK256 PUSH1 0x2 DUP2 ADD DUP1 SLOAD PUSH1 0x1 PUSH1 0x1 PUSH1 0xA0 SHL SUB SWAP3 SWAP1 DUP4 AND SWAP1 CALLER DUP3 SWAP1 SUB PUSH2 0x3B6 JUMPI PUSH1 0x5 DUP2 ADD SLOAD TIMESTAMP LT PUSH2 0x3A6 JUMPI PUSH1 0x6 DUP2 ADD DUP1 SLOAD PUSH1 0xFF DUP2 AND PUSH2 0x396 JUMPI PUSH1 0x1 SWAP1 PUSH1 0xFF NOT AND OR SWAP1 SSTORE PUSH1 0x3 DUP5 DUP3 SLOAD AND SWAP2 ADD SWAP7 DUP8 SLOAD DUP7 MLOAD SWAP4 PUSH4 0xA9059CBB PUSH1 0xE0 SHL PUSH1 0x20 DUP7 ADD MSTORE PUSH1 0x24 DUP6 ADD MSTORE PUSH1 0x44 DUP5 ADD MSTORE PUSH1 0x44 DUP4 MSTORE PUSH1 0x80 DUP4 ADD SWAP1 DUP4 DUP3 LT PUSH8 0xFFFFFFFFFFFFFFFF DUP4 GT OR PUSH2 0x383 JUMPI POP PUSH1 0x20 SWAP5 SWAP3 DUP7 SWAP5 SWAP3 PUSH2 0x372 SWAP3 PUSH32 0x3F5FBAF86658FDADEE77F1D46E7F8A72424AD9839EDA6A1DC6EB0A4228E4226E SWAP9 MSTORE PUSH2 0x6BA JUMP JUMPDEST SLOAD AND SWAP5 SLOAD SWAP1 MLOAD SWAP1 DUP2 MSTORE LOG3 PUSH1 0x1 DUP2 SSTORE DUP1 RETURN JUMPDEST PUSH4 0x4E487B71 PUSH1 0xE0 SHL DUP11 MSTORE PUSH1 0x41 SWAP1 MSTORE PUSH1 0x24 DUP10 REVERT JUMPDEST DUP7 MLOAD PUSH4 0x6507689F PUSH1 0xE0 SHL DUP2 MSTORE DUP10 SWAP1 REVERT JUMPDEST DUP5 MLOAD PUSH4 0x6100D929 PUSH1 0xE1 SHL DUP2 MSTORE DUP8 SWAP1 REVERT JUMPDEST DUP5 MLOAD PUSH4 0x644D871F PUSH1 0xE0 SHL DUP2 MSTORE DUP8 SWAP1 REVERT JUMPDEST POP DUP3 CALLVALUE PUSH2 0x3ED JUMPI PUSH1 0x20 CALLDATASIZE PUSH1 0x3 NOT ADD SLT PUSH2 0x3ED JUMPI POP PUSH2 0x3E6 PUSH1 0x20 SWAP3 CALLDATALOAD PUSH2 0x745 JUMP JUMPDEST SWAP1 MLOAD SWAP1 DUP2 MSTORE RETURN JUMPDEST DUP1 REVERT JUMPDEST POP SWAP1 CALLVALUE PUSH2 0x10B JUMPI DUP2 PUSH1 0x3 NOT CALLDATASIZE ADD SLT PUSH2 0x10B JUMPI PUSH1 0x1 PUSH1 0x1 PUSH1 0xA0 SHL SUB PUSH1 0x24 CALLDATALOAD DUP2 DUP2 AND SWAP4 DUP4 CALLDATALOAD SWAP4 SWAP1 SWAP2 DUP6 SWAP1 SUB PUSH2 0x49C JUMPI DUP4 DUP7 MSTORE PUSH1 0x1 PUSH1 0x20 MSTORE DUP2 DUP7 KECCAK256 SWAP2 DUP4 PUSH1 0x1 DUP5 ADD SLOAD AND CALLER SUB PUSH2 0x48F JUMPI PUSH1 0xFF PUSH1 0x6 DUP5 ADD SLOAD AND PUSH2 0x482 JUMPI POP POP PUSH1 0x2 ADD DUP1 SLOAD PUSH1 0x1 PUSH1 0x1 PUSH1 0xA0 SHL SUB NOT DUP2 AND DUP6 OR SWAP1 SWAP2 SSTORE AND SWAP1 PUSH32 0xCAC3B813AA052F85279F96655F0CCD339DBF77623D87F74FCD77AF7719472D11 DUP5 DUP1 LOG4 DUP1 RETURN JUMPDEST MLOAD PUSH4 0x6507689F PUSH1 0xE0 SHL DUP2 MSTORE REVERT JUMPDEST MLOAD PUSH4 0x30CD7471 PUSH1 0xE0 SHL DUP2 MSTORE REVERT JUMPDEST DUP6 DUP1 REVERT JUMPDEST POP DUP3 SWAP1 CALLVALUE PUSH2 0x293 JUMPI PUSH1 0x80 CALLDATASIZE PUSH1 0x3 NOT ADD SLT PUSH2 0x293 JUMPI PUSH1 0x1 PUSH1 0x1 PUSH1 0xA0 SHL SUB SWAP2 DUP4 CALLDATALOAD DUP4 DUP2 AND SWAP1 DUP2 SWAP1 SUB PUSH2 0x293 JUMPI PUSH1 0x24 CALLDATALOAD SWAP1 PUSH1 0x44 CALLDATALOAD PUSH1 0x64 CALLDATALOAD SWAP3 DUP7 DUP5 AND DUP1 SWAP5 SUB PUSH2 0x684 JUMPI PUSH2 0x4E7 PUSH2 0x722 JUMP JUMPDEST DUP1 ISZERO PUSH2 0x674 JUMPI TIMESTAMP DUP3 GT ISZERO PUSH2 0x664 JUMPI DUP6 MLOAD PUSH4 0x23B872DD PUSH1 0xE0 SHL PUSH1 0x20 DUP3 ADD MSTORE CALLER PUSH1 0x24 DUP3 ADD MSTORE ADDRESS PUSH1 0x44 DUP3 ADD MSTORE PUSH1 0x64 DUP1 DUP3 ADD DUP4 SWAP1 MSTORE DUP2 MSTORE PUSH1 0xA0 DUP2 ADD PUSH8 0xFFFFFFFFFFFFFFFF DUP2 GT DUP3 DUP3 LT OR PUSH2 0x651 JUMPI DUP8 MSTORE PUSH2 0x53D SWAP1 DUP5 PUSH2 0x6BA JUMP JUMPDEST PUSH1 0x2 SLOAD SWAP7 PUSH1 0x0 NOT DUP9 EQ PUSH2 0x63E JUMPI SWAP1 DUP6 PUSH1 0x6 DUP5 SWAP4 PUSH1 0x1 SWAP9 SWAP8 SWAP7 SWAP6 PUSH1 0x20 SWAP13 DUP11 DUP14 ADD PUSH1 0x2 SSTORE DUP13 DUP13 DUP1 MLOAD SWAP5 PUSH2 0x56D DUP7 PUSH2 0x688 JUMP JUMPDEST DUP11 DUP7 MSTORE PUSH1 0x20 DUP7 ADD CALLER DUP2 MSTORE DUP3 DUP8 ADD SWAP2 DUP14 DUP4 MSTORE DUP1 PUSH1 0x60 DUP10 ADD SWAP5 DUP13 DUP7 MSTORE DUP12 PUSH1 0x80 DUP12 ADD SWAP8 TIMESTAMP DUP10 MSTORE PUSH1 0xA0 DUP13 ADD SWAP11 DUP12 MSTORE PUSH1 0xC0 DUP13 ADD SWAP14 DUP15 MSTORE DUP2 MSTORE PUSH1 0x20 PUSH1 0x1 SWAP1 MSTORE KECCAK256 SWAP9 MLOAD AND SWAP2 PUSH12 0xFFFFFFFFFFFFFFFFFFFFFFFF PUSH1 0xA0 SHL SWAP3 DUP4 DUP11 SLOAD AND OR DUP10 SSTORE PUSH1 0x1 DUP3 SWAP1 DUP11 ADD SWAP2 MLOAD AND DUP4 DUP3 SLOAD AND OR SWAP1 SSTORE PUSH1 0x2 DUP9 ADD SWAP3 MLOAD AND SWAP1 DUP3 SLOAD AND OR SWAP1 SSTORE MLOAD PUSH1 0x3 DUP6 ADD SSTORE MLOAD SWAP1 DUP4 ADD SSTORE MLOAD PUSH1 0x5 DUP3 ADD SSTORE ADD SWAP1 MLOAD ISZERO ISZERO PUSH1 0xFF DUP1 NOT DUP4 SLOAD AND SWAP2 AND OR SWAP1 SSTORE DUP7 MLOAD SWAP4 DUP5 MSTORE DUP9 DUP5 ADD MSTORE DUP6 DUP4 ADD MSTORE DUP6 PUSH32 0x2829C874CC2754EFD69C7E3C418A785312752350649B2D9219A7F07B7871839B PUSH1 0x60 CALLER SWAP5 LOG4 SSTORE MLOAD SWAP1 DUP2 MSTORE RETURN JUMPDEST PUSH4 0x4E487B71 PUSH1 0xE0 SHL DUP7 MSTORE PUSH1 0x11 DUP10 MSTORE PUSH1 0x24 DUP7 REVERT JUMPDEST PUSH4 0x4E487B71 PUSH1 0xE0 SHL DUP8 MSTORE PUSH1 0x41 DUP11 MSTORE PUSH1 0x24 DUP8 REVERT JUMPDEST DUP6 MLOAD PUSH4 0x52ABA6D3 PUSH1 0xE1 SHL DUP2 MSTORE DUP9 SWAP1 REVERT JUMPDEST DUP6 MLOAD PUSH4 0x162908E3 PUSH1 0xE1 SHL DUP2 MSTORE DUP9 SWAP1 REVERT JUMPDEST DUP5 DUP1 REVERT JUMPDEST PUSH1 0xE0 DUP2 ADD SWAP1 DUP2 LT PUSH8 0xFFFFFFFFFFFFFFFF DUP3 GT OR PUSH2 0x6A4 JUMPI PUSH1 0x40 MSTORE JUMP JUMPDEST PUSH4 0x4E487B71 PUSH1 0xE0 SHL PUSH1 0x0 MSTORE PUSH1 0x41 PUSH1 0x4 MSTORE PUSH1 0x24 PUSH1 0x0 REVERT JUMPDEST SWAP1 PUSH1 0x0 PUSH1 0x20 SWAP2 DUP3 DUP2 MLOAD SWAP2 ADD DUP3 DUP6 GAS CALL ISZERO PUSH2 0x716 JUMPI PUSH1 0x0 MLOAD RETURNDATASIZE PUSH2 0x70D JUMPI POP PUSH1 0x1 PUSH1 0x1 PUSH1 0xA0 SHL SUB DUP2 AND EXTCODESIZE ISZERO JUMPDEST PUSH2 0x6EB JUMPI POP JUMP JUMPDEST PUSH1 0x40 MLOAD PUSH4 0x5274AFE7 PUSH1 0xE0 SHL DUP2 MSTORE PUSH1 0x1 PUSH1 0x1 PUSH1 0xA0 SHL SUB SWAP1 SWAP2 AND PUSH1 0x4 DUP3 ADD MSTORE PUSH1 0x24 SWAP1 REVERT JUMPDEST PUSH1 0x1 EQ ISZERO PUSH2 0x6E4 JUMP JUMPDEST PUSH1 0x40 MLOAD RETURNDATASIZE PUSH1 0x0 DUP3 RETURNDATACOPY RETURNDATASIZE SWAP1 REVERT JUMPDEST PUSH1 0x2 PUSH1 0x0 SLOAD EQ PUSH2 0x733 JUMPI PUSH1 0x2 PUSH1 0x0 SSTORE JUMP JUMPDEST PUSH1 0x40 MLOAD PUSH4 0x3EE5AEB5 PUSH1 0xE0 SHL DUP2 MSTORE PUSH1 0x4 SWAP1 REVERT JUMPDEST PUSH1 0x0 MSTORE PUSH1 0x1 PUSH1 0x20 MSTORE PUSH1 0x40 PUSH1 0x0 KECCAK256 PUSH1 0x40 MLOAD PUSH2 0x75E DUP2 PUSH2 0x688 JUMP JUMPDEST PUSH1 0x1 DUP1 PUSH1 0xA0 SHL SUB DUP1 DUP4 SLOAD AND DUP3 MSTORE DUP1 PUSH1 0x1 DUP5 ADD SLOAD AND PUSH1 0x20 DUP4 ADD MSTORE PUSH1 0x2 DUP4 ADD SLOAD AND PUSH1 0x40 DUP3 ADD MSTORE PUSH1 0x3 DUP3 ADD SLOAD PUSH1 0x60 DUP3 ADD MSTORE PUSH1 0x4 DUP3 ADD SLOAD PUSH1 0x80 DUP3 ADD MSTORE PUSH1 0xC0 PUSH1 0xFF PUSH1 0x6 PUSH1 0x5 DUP6 ADD SLOAD SWAP5 DUP6 PUSH1 0xA0 DUP7 ADD MSTORE ADD SLOAD AND ISZERO ISZERO SWAP2 ADD MSTORE DUP1 TIMESTAMP LT ISZERO PUSH2 0x7DB JUMPI TIMESTAMP DUP2 SUB SWAP1 DUP2 GT PUSH2 0x7C5 JUMPI SWAP1 JUMP JUMPDEST PUSH4 0x4E487B71 PUSH1 0xE0 SHL PUSH1 0x0 MSTORE PUSH1 0x11 PUSH1 0x4 MSTORE PUSH1 0x24 PUSH1 0x0 REVERT JUMPDEST POP PUSH1 0x0 SWAP1 JUMP INVALID LOG2 PUSH5 0x6970667358 0x22 SLT KECCAK256 CHAINID PUSH20 0xA058AFA0AE22350989ABEAA95A5D3487AB9F008A BLOCKHASH ADD PUSH25 0x45730DA6FC956164736F6C6343000814003300000000000000 "},"methodIdentifiers":{"getLock(uint256)":"d68f4dd1","getTimeUntilUnlock(uint256)":"2f6fe5f7","isLocked(uint256)":"f6aacfb1","lockCount()":"9b10b6f5","lockTokens(address,uint256,uint256,address)":"0aa393f3","locks(uint256)":"f4dadc61","transferBeneficiary(uint256,address)":"0d6dd343","withdrawTokens(uint256)":"315a095d"}}}}}