{"contracts/bonding-curve/SelsipadBondingCurveFactory.sol":{"SelsipadBondingCurveFactory":{"abi":[{"inputs":[{"internalType":"address","name":"_router","type":"address"},{"internalType":"address","name":"_treasury","type":"address"}],"stateMutability":"nonpayable","type":"constructor"},{"inputs":[],"name":"InsufficientFee","type":"error"},{"inputs":[],"name":"InsufficientReserve","type":"error"},{"inputs":[],"name":"InvalidAddress","type":"error"},{"inputs":[],"name":"InvalidToken","type":"error"},{"inputs":[{"internalType":"address","name":"owner","type":"address"}],"name":"OwnableInvalidOwner","type":"error"},{"inputs":[{"internalType":"address","name":"account","type":"address"}],"name":"OwnableUnauthorizedAccount","type":"error"},{"inputs":[],"name":"ReentrancyGuardReentrantCall","type":"error"},{"inputs":[],"name":"TradingMigrated","type":"error"},{"inputs":[],"name":"TradingNotMigrated","type":"error"},{"inputs":[],"name":"TransferFailed","type":"error"},{"inputs":[],"name":"ZeroAmount","type":"error"},{"anonymous":false,"inputs":[{"indexed":false,"internalType":"uint256","name":"oldFee","type":"uint256"},{"indexed":false,"internalType":"uint256","name":"newFee","type":"uint256"}],"name":"CreateFeeUpdated","type":"event"},{"anonymous":false,"inputs":[{"indexed":true,"internalType":"address","name":"token","type":"address"},{"indexed":false,"internalType":"uint256","name":"tokenAmount","type":"uint256"},{"indexed":false,"internalType":"uint256","name":"ethAmount","type":"uint256"},{"indexed":false,"internalType":"address","name":"lpPair","type":"address"}],"name":"LiquidityMigrated","type":"event"},{"anonymous":false,"inputs":[{"indexed":false,"internalType":"uint256","name":"oldThreshold","type":"uint256"},{"indexed":false,"internalType":"uint256","name":"newThreshold","type":"uint256"}],"name":"MigrationThresholdUpdated","type":"event"},{"anonymous":false,"inputs":[{"indexed":true,"internalType":"address","name":"previousOwner","type":"address"},{"indexed":true,"internalType":"address","name":"newOwner","type":"address"}],"name":"OwnershipTransferred","type":"event"},{"anonymous":false,"inputs":[{"indexed":true,"internalType":"address","name":"token","type":"address"},{"indexed":false,"internalType":"string","name":"name","type":"string"},{"indexed":false,"internalType":"string","name":"symbol","type":"string"},{"indexed":true,"internalType":"address","name":"creator","type":"address"}],"name":"TokenLaunched","type":"event"},{"anonymous":false,"inputs":[{"indexed":true,"internalType":"address","name":"token","type":"address"},{"indexed":true,"internalType":"address","name":"buyer","type":"address"},{"indexed":false,"internalType":"uint256","name":"tokenAmount","type":"uint256"},{"indexed":false,"internalType":"uint256","name":"ethCost","type":"uint256"},{"indexed":true,"internalType":"address","name":"referrer","type":"address"}],"name":"TokensPurchased","type":"event"},{"anonymous":false,"inputs":[{"indexed":true,"internalType":"address","name":"token","type":"address"},{"indexed":true,"internalType":"address","name":"seller","type":"address"},{"indexed":false,"internalType":"uint256","name":"tokenAmount","type":"uint256"},{"indexed":false,"internalType":"uint256","name":"ethRefund","type":"uint256"},{"indexed":true,"internalType":"address","name":"referrer","type":"address"}],"name":"TokensSold","type":"event"},{"anonymous":false,"inputs":[{"indexed":false,"internalType":"address","name":"oldTreasury","type":"address"},{"indexed":false,"internalType":"address","name":"newTreasury","type":"address"}],"name":"TreasuryUpdated","type":"event"},{"inputs":[],"name":"BPS_DENOMINATOR","outputs":[{"internalType":"uint256","name":"","type":"uint256"}],"stateMutability":"view","type":"function"},{"inputs":[],"name":"DEAD_ADDRESS","outputs":[{"internalType":"address","name":"","type":"address"}],"stateMutability":"view","type":"function"},{"inputs":[],"name":"REFERRAL_FEE_BPS","outputs":[{"internalType":"uint256","name":"","type":"uint256"}],"stateMutability":"view","type":"function"},{"inputs":[],"name":"R_TOKEN_RESERVE","outputs":[{"internalType":"uint256","name":"","type":"uint256"}],"stateMutability":"view","type":"function"},{"inputs":[],"name":"TRADE_FEE_BPS","outputs":[{"internalType":"uint256","name":"","type":"uint256"}],"stateMutability":"view","type":"function"},{"inputs":[],"name":"V_ETH_RESERVE","outputs":[{"internalType":"uint256","name":"","type":"uint256"}],"stateMutability":"view","type":"function"},{"inputs":[],"name":"V_TOKEN_RESERVE","outputs":[{"internalType":"uint256","name":"","type":"uint256"}],"stateMutability":"view","type":"function"},{"inputs":[],"name":"WETH","outputs":[{"internalType":"address","name":"","type":"address"}],"stateMutability":"view","type":"function"},{"inputs":[{"internalType":"uint256","name":"","type":"uint256"}],"name":"allTokens","outputs":[{"internalType":"address","name":"","type":"address"}],"stateMutability":"view","type":"function"},{"inputs":[{"internalType":"address","name":"_token","type":"address"},{"internalType":"address","name":"_referrer","type":"address"}],"name":"buyToken","outputs":[],"stateMutability":"payable","type":"function"},{"inputs":[],"name":"createFee","outputs":[{"internalType":"uint256","name":"","type":"uint256"}],"stateMutability":"view","type":"function"},{"inputs":[{"internalType":"address","name":"_token","type":"address"},{"internalType":"uint256","name":"tokenAmount","type":"uint256"}],"name":"getAmountIn","outputs":[{"internalType":"uint256","name":"ethOut","type":"uint256"}],"stateMutability":"view","type":"function"},{"inputs":[{"internalType":"address","name":"_token","type":"address"},{"internalType":"uint256","name":"ethIn","type":"uint256"}],"name":"getAmountOut","outputs":[{"internalType":"uint256","name":"tokensOut","type":"uint256"}],"stateMutability":"view","type":"function"},{"inputs":[{"internalType":"address","name":"_token","type":"address"}],"name":"getCurrentPrice","outputs":[{"internalType":"uint256","name":"","type":"uint256"}],"stateMutability":"view","type":"function"},{"inputs":[{"internalType":"address","name":"_token","type":"address"}],"name":"getMigrationProgress","outputs":[{"internalType":"uint256","name":"bps","type":"uint256"}],"stateMutability":"view","type":"function"},{"inputs":[{"internalType":"string","name":"_name","type":"string"},{"internalType":"string","name":"_symbol","type":"string"},{"internalType":"address","name":"_referrer","type":"address"}],"name":"launchToken","outputs":[],"stateMutability":"payable","type":"function"},{"inputs":[],"name":"migrationThreshold","outputs":[{"internalType":"uint256","name":"","type":"uint256"}],"stateMutability":"view","type":"function"},{"inputs":[],"name":"owner","outputs":[{"internalType":"address","name":"","type":"address"}],"stateMutability":"view","type":"function"},{"inputs":[],"name":"renounceOwnership","outputs":[],"stateMutability":"nonpayable","type":"function"},{"inputs":[{"internalType":"address","name":"_token","type":"address"},{"internalType":"uint256","name":"tokenAmount","type":"uint256"},{"internalType":"address","name":"_referrer","type":"address"}],"name":"sellToken","outputs":[],"stateMutability":"nonpayable","type":"function"},{"inputs":[{"internalType":"uint256","name":"_fee","type":"uint256"}],"name":"setCreateFee","outputs":[],"stateMutability":"nonpayable","type":"function"},{"inputs":[{"internalType":"uint256","name":"_threshold","type":"uint256"}],"name":"setMigrationThreshold","outputs":[],"stateMutability":"nonpayable","type":"function"},{"inputs":[{"internalType":"address","name":"_router","type":"address"}],"name":"setRouter","outputs":[],"stateMutability":"nonpayable","type":"function"},{"inputs":[{"internalType":"address","name":"_treasury","type":"address"}],"name":"setTreasuryWallet","outputs":[],"stateMutability":"nonpayable","type":"function"},{"inputs":[{"internalType":"address","name":"","type":"address"}],"name":"tokens","outputs":[{"internalType":"address","name":"creator","type":"address"},{"internalType":"address","name":"tokenAddress","type":"address"},{"internalType":"uint256","name":"vReserveEth","type":"uint256"},{"internalType":"uint256","name":"vReserveToken","type":"uint256"},{"internalType":"uint256","name":"rReserveEth","type":"uint256"},{"internalType":"int256","name":"rReserveToken","type":"int256"},{"internalType":"bool","name":"liquidityMigrated","type":"bool"},{"internalType":"uint256","name":"createdAt","type":"uint256"}],"stateMutability":"view","type":"function"},{"inputs":[],"name":"totalTokensLaunched","outputs":[{"internalType":"uint256","name":"","type":"uint256"}],"stateMutability":"view","type":"function"},{"inputs":[{"internalType":"address","name":"newOwner","type":"address"}],"name":"transferOwnership","outputs":[],"stateMutability":"nonpayable","type":"function"},{"inputs":[],"name":"treasuryWallet","outputs":[{"internalType":"address","name":"","type":"address"}],"stateMutability":"view","type":"function"},{"inputs":[],"name":"uniswapRouter","outputs":[{"internalType":"address","name":"","type":"address"}],"stateMutability":"view","type":"function"},{"inputs":[{"internalType":"uint256","name":"_vEthReserve","type":"uint256"},{"internalType":"uint256","name":"_vTokenReserve","type":"uint256"},{"internalType":"uint256","name":"_rTokenReserve","type":"uint256"}],"name":"updateReserves","outputs":[],"stateMutability":"nonpayable","type":"function"},{"stateMutability":"payable","type":"receive"}],"evm":{"bytecode":{"linkReferences":{},"object":"608060409080825234620001d4578181620025728038038091620000248285620001d9565b833981010312620001d457620000486020620000408362000213565b920162000213565b3315620001bc5760008054336001600160a01b03198083168217845586519590946001600160a01b039493909285929183167f8be0079c531659141344cd1fd0a4f28419497f9722a3daafe3b4186f6b6457e08680a36001805566354a6ba7a180006007556b037790968dc8efffd10000006008556b029009752660ad62af800000600955670de0b6b3a7640000600a5566b1a2bc2ec50000600b5516948515620001ad575082169384156200019c576004805485168217815586516315ab88c960e31b815291602091839182905afa918215620001915780926200014a575b5050168160055416176005556006541617600655516123499081620002298239f35b9091506020823d821162000188575b816200016860209383620001d9565b810103126200018557506200017d9062000213565b388062000128565b80fd5b3d915062000159565b8651903d90823e3d90fd5b855163e6c4247b60e01b8152600490fd5b63e6c4247b60e01b8152600490fd5b8251631e4fbdf760e01b815260006004820152602490fd5b600080fd5b601f909101601f19168101906001600160401b03821190821017620001fd57604052565b634e487b7160e01b600052604160045260246000fd5b51906001600160a01b0382168203620001d45756fe6080604081815260048036101562000023575b50505036156200002157600080fd5b005b600092833560e01c908163208597b01462000f0b575080634626402b1462000ee05780634e6fd6c41462000ec157806355a976321462000bf25780635ee6cc381462000b885780636148813c1462000b56578063629148491462000aff578063632db21c1462000a79578063634282af1462000a34578063715018a614620009d6578063735de9f714620009ad57806384cc315b14620009335780638da5cb5b146200090957806390bc1e8514620008e85780639185f59814620008ca57806394b4cd0a1462000650578063995c86d5146200062f5780639d72265e14620006115780639e1e213e14620005f0578063a8602fea1462000553578063ad5c46481462000528578063b1a51f351462000507578063b2db919b14620004e6578063c0d786551462000411578063c8a1d06e14620003e5578063ca706bcf1462000332578063ca92a91b14620002db578063e1a4521814620002bc578063e486033914620002245763f2fde38b03620000125734620002205760203660031901126200022057620001b162000f29565b90620001bc62001062565b6001600160a01b039182169283156200020a57505082546001600160a01b0319811683178455167f8be0079c531659141344cd1fd0a4f28419497f9722a3daafe3b4186f6b6457e08380a380f35b51631e4fbdf760e01b8152908101849052602490fd5b8280fd5b50829034620002b8576020366003190112620002b857610100926001600160a01b03928190846200025462000f29565b1681526002602052209083825416936001830154169260028301549060038401549084015491600585015493600760ff60068801541696015496815198895260208901528701526060860152608085015260a0840152151560c083015260e0820152f35b5080fd5b505034620002b85781600319360112620002b857602090516127108152f35b50346200022057602036600319011262000220577f5de685d6916f86043147d790b0ba618ff8c5239be31953a0d3b7b5c54c81b27e9035916200031d62001062565b600a548151908152836020820152a1600a5580f35b509134620003e25781600319360112620003e2576200035062000f29565b6001600160a01b0316815260026020528181209060243590609680830291908383041483151715620003cf57602085620003c8620003b4620003c188620003bb620003a06127108a048b620010c4565b600360028401549301549485918462001183565b926200114e565b62001162565b90620010c4565b9051908152f35b634e487b7160e01b815260118652602490fd5b80fd5b505034620002b8576020366003190112620002b857602090620003c86200040b62000f29565b620016be565b5090346200022057602036600319011262000220576200043062000f29565b906200043b62001062565b6001600160a01b03918216928315620004d85760206bffffffffffffffffffffffff60a01b9480868454161783558351928380926315ab88c960e31b82525afa918215620004cf575084916200049a575b501690600554161760055580f35b620004c0915060203d8111620004c7575b620004b7818362000fd5565b8101906200169d565b386200048c565b503d620004ab565b513d86823e3d90fd5b905163e6c4247b60e01b8152fd5b505034620002b85781600319360112620002b857602090600b549051908152f35b505034620002b85781600319360112620002b8576020906008549051908152f35b505034620002b85781600319360112620002b85760055490516001600160a01b039091168152602090f35b5090346200022057602036600319011262000220576200057262000f29565b6200057c62001062565b6001600160a01b03818116938415620005e2575060065492516001600160a01b0391841682168152911660208201527f4ab5be82436d353e61ca18726e984e561f5c1cc7c6d38b29d2553c790434705a90604090a16001600160a01b0319161760065580f35b835163e6c4247b60e01b8152fd5b505034620002b85781600319360112620002b8576020906003549051908152f35b505034620002b85781600319360112620002b85760209051604b8152f35b505034620002b85781600319360112620002b8576020906007549051908152f35b50906060366003190112620002205767ffffffffffffffff8235818111620008c65762000681903690850162001015565b602435828111620008c2576200069b903690860162001015565b90620006a662000f45565b93620006b16200112a565b600b54803410620008b35780889162000876575b5050620006d5600b5434620010c4565b81519094610bf1808301918211838310176200086357908291620017238339606081526200071a6200070b6060830187620010e8565b828103602084015287620010e8565b908433910152039088f08015620008595760018060a01b038091169687895260026020528289206bffffffffffffffffffffffff60a01b338183541617825589600183019182541617905589828201556009546005820155600754600282015560085460038201556006810160ff198154169055600742910155600354906801000000000000000082101562000846575091879391620007e28460017fe3b10feb4083662a6dba2542351b61bc6d65beddab11c513004984a0ccad73a2960160035562000f5c565b819291549060031b9187831b921b19161790556200081e6200080e8251938385948552840190620010e8565b82810360208401523396620010e8565b0390a38062000830575b836001805580f35b6200083d92339062001191565b38808062000828565b634e487b7160e01b8a5260419052602489fd5b81513d89823e3d90fd5b634e487b7160e01b8a526041895260248afd5b600654829182918291906001600160a01b03165af1620008956200108f565b5015620008a4578638620006c5565b516312171d8360e31b81528590fd5b815162976f7560e21b81528790fd5b8580fd5b8480fd5b505034620002b85781600319360112620002b8576020905160968152f35b505034620002b85781600319360112620002b857602090600a549051908152f35b505034620002b85781600319360112620002b857905490516001600160a01b039091168152602090f35b509134620003e2576020366003190112620003e2576001600160a01b036200095a62000f29565b1681526002602052818120600281015491670de0b6b3a7640000928381029381850414901517156200099a57602084620003c88560038601549062001162565b634e487b7160e01b815260118552602490fd5b503462000220578260031936011262000220575490516001600160a01b03909116815260209150f35b8334620003e25780600319360112620003e257620009f362001062565b80546001600160a01b03198116825581906001600160a01b03167f8be0079c531659141344cd1fd0a4f28419497f9722a3daafe3b4186f6b6457e08280a380f35b50346200022057602036600319011262000220573591600354831015620003e2575062000a6360209262000f5c565b60018060a01b0391549060031b1c169051908152f35b509134620003e25781600319360112620003e2576001600160a01b0362000a9f62000f29565b168152600260205262000ad7828220620003c1600382015491620003bb600262000acc6024358662001183565b92015493846200114e565b906096820290828204609614831517156200099a57602084620003c8612710850486620010c4565b50346200022057602036600319011262000220577fef772bbcf0f90db491aaf9f8b6712e886b3a90bb136181a52b675f4c2f11d93790359162000b4162001062565b600b548151908152836020820152a1600b5580f35b838234620002b8576060366003190112620002b85762000b7562001062565b3560075560243560085560443560095580f35b50919080600319360112620002b85762000ba162000f29565b602435916001600160a01b038316830362000bee5762000bc06200112a565b341562000bdf57509062000bd8913490339062001191565b6001805580f35b51631f2a200560e01b81528490fd5b8380fd5b50919034620002b8576060366003190112620002b85762000c1262000f29565b6024359062000c2062000f45565b9062000c2b6200112a565b821562000eb1576001600160a01b039081168086526002602052848620600181015491939183161562000ea15760ff60068201541662000e915796876003620003bb990180549062000c7e888362001183565b9162000c9f62000c9784600287019e8f5494856200114e565b8092620010c4565b9b8c1580801562000e84575b62000e7457908d94939291609686029e8f04609614171562000e6157848d9e9d8b8e9f8e9f9b9c9d9e60648c8562000ceb612710602096048099620010c4565b9f5195869485936323b872dd60e01b8552339085015230602485015260448401525af191821562000e54579162000e1f575b501562000e0f578e908b8162000dda575b505050555582820180546005939262000d4791620010c4565b905501805490878201918a898412911290801582169115161762000dc757558780808085335af162000d786200108f565b501562000db9575085519485526020850152169233927f4735a31b3ec23a057c88ee658e79bf4115c33e7d3b5da900cf23c97844f1ec479190a46001805580f35b86516312171d8360e31b8152fd5b634e487b7160e01b8a526011835260248afd5b8280928192600654165af162000def6200108f565b501562000dff578d388b62000d2e565b8c516312171d8360e31b81528790fd5b8d516312171d8360e31b81528890fd5b62000e45915060203d811162000e4c575b62000e3c818362000fd5565b81019062001683565b3862000d1d565b503d62000e30565b90508f51903d90823e3d90fd5b634e487b7160e01b8d526011875260248dfd5b8b516328b35f2160e01b81528790fd5b508d878701541062000cab565b855163dcfbaafd60e01b81528890fd5b855163c1ab6dc160e01b81528890fd5b8351631f2a200560e01b81528690fd5b505034620002b85781600319360112620002b8576020905161dead8152f35b505034620002b85781600319360112620002b85760065490516001600160a01b039091168152602090f35b849034620002b85781600319360112620002b8576020906009548152f35b600435906001600160a01b038216820362000f4057565b600080fd5b604435906001600160a01b038216820362000f4057565b60035481101562000f945760036000527fc2575a0e9e593c00f959f8c92f12db2869c3395a3b0502d05e2516446f71f85b0190600090565b634e487b7160e01b600052603260045260246000fd5b67ffffffffffffffff811162000fbf57604052565b634e487b7160e01b600052604160045260246000fd5b90601f8019910116810190811067ffffffffffffffff82111762000fbf57604052565b67ffffffffffffffff811162000fbf57601f01601f191660200190565b81601f8201121562000f40578035906200102f8262000ff8565b926200103f604051948562000fd5565b8284526020838301011162000f4057816000926020809301838601378301015290565b6000546001600160a01b031633036200107757565b60405163118cdaa760e01b8152336004820152602490fd5b3d15620010bf573d90620010a38262000ff8565b91620010b3604051938462000fd5565b82523d6000602084013e565b606090565b91908203918211620010d257565b634e487b7160e01b600052601160045260246000fd5b919082519283825260005b84811062001115575050826000602080949584010152601f8019910116010190565b602081830181015184830182015201620010f3565b6002600154146200113c576002600155565b604051633ee5aeb560e01b8152600490fd5b81810292918115918404141715620010d257565b81156200116d570490565b634e487b7160e01b600052601260045260246000fd5b91908201809211620010d257565b90919260009360018060a01b039384841686526002602052604092838720908660018301541615620016725760ff600683015416620016615760968402848104609614851517156200164d5761271090049388620011f08683620010c4565b958062001618575b50506005600284019362001225855488620012366200122e6003860193620003bb85549687958362001183565b9485926200114e565b8094620010c4565b9755556200124a6004820197885462001183565b875501805484810391908b861280158285131691841216176200160457558787163b15620016005785516364a7102b60e01b81526001600160a01b0385166004820152602481018490528981604481838c8e165af18015620015f657620015db575b508791829187519485526020850152169216907fe4c62f62c45a0251c0c1bcc84de28bf8c9575b0841fc32fc2c94d889baf6af318588881692a454600a541115620012f8575b50505050565b828216845260026020528084209360068501600160ff1982541617905547816005620013396200132d60038a0154856200114e565b60028a01549062001162565b978260048201550155856200157d575b60048054845163095ea7b360e01b81529087166001600160a01b0316918101919091526024810187905260208160448186898b165af180156200150a5762001559575b50846004541661012c42018042116200154557829160c46060928751948593849263f305d71960e01b84528c8c1660048501528d602485015289604485015289606485015261dead608485015260a48401525af180156200150a5762001514575b50600460208682541685519283809263c45a015560e01b82525afa9081156200150a576200145b87926020928691620014e8575b50600554875163e6a4390560e01b81526001600160a01b038a81166004830152918616909116602482015293849283919082906044820190565b0392165afa928315620014dd57928694927fa44c03aaf0b9a5fcba3a779474f4366ea6283072d24c8082199f204872b1597397926060979592620014b7575b508351988952602089015216908601521692a238808080620012f2565b620014d591925060203d602011620004c757620004b7818362000fd5565b90386200149a565b8451903d90823e3d90fd5b620015039150833d8511620004c757620004b7818362000fd5565b3862001421565b84513d85823e3d90fd5b606090813d81116200153d575b6200152d818362000fd5565b81010312620002b85738620013ed565b503d62001521565b634e487b7160e01b84526011600452602484fd5b620015759060203d60201162000e4c5762000e3c818362000fd5565b50386200138c565b8484163b15620002b85782516364a7102b60e01b815230600482015260248101879052828160448183898b165af180156200150a57908391620015c3575b505062001349565b620015ce9062000faa565b620002b8578138620015bb565b91889299620015ec84939b62000faa565b99915091620012ac565b87513d8c823e3d90fd5b8880fd5b634e487b7160e01b8b52601160045260248bfd5b818080928c600654165af16200162d6200108f565b50156200163c578838620011f8565b85516312171d8360e31b8152600490fd5b634e487b7160e01b89526011600452602489fd5b845163dcfbaafd60e01b8152600490fd5b845163c1ab6dc160e01b8152600490fd5b9081602091031262000f405751801515810362000f405790565b9081602091031262000f4057516001600160a01b038116810362000f405790565b6001600160a01b03166000908152600260205260409020600681015460ff166200171b5760040154906127109182810290808204841490151715620010d257600a546200170b9162001162565b91808311620017175750565b9150565b506127109056fe60a060405234620003a35762000bf1803803806200001d81620003a8565b9283398101606082820312620003a35781516001600160401b039290838111620003a357826200004f918301620003ce565b9160209081830151858111620003a3576040916200006f918501620003ce565b9201516001600160a01b0381169390849003620003a35780518581116200038d576000938454916001938484811c9416801562000382575b868510146200036e578190601f948581116200031b575b508690858311600114620002b7578892620002ab575b5050600019600383901b1c191690841b1785555b8051968711620002975782548381811c911680156200028c575b85821014620002785782811162000230575b5083918711600114620001ba5795809185969760008051602062000bd18339815191529692620001ae575b5050600019600383901b1c191690821b1790555b3360805283835260038152604083206200016e815462000440565b90556200017d60025462000440565b600255604051670de0b6b3a76400008152a360405161076490816200046d823960805181818160fc01526103610152f35b0151905038806200013f565b8285528385209190601f198816865b8181106200021a5750918493918960008051602062000bd183398151915298999a941062000200575b505050811b01905562000153565b015160001960f88460031b161c19169055388080620001f2565b82840151855593850193928601928601620001c9565b83865284862083808a0160051c820192878b106200026e575b0160051c019084905b8281106200026257505062000114565b87815501849062000252565b9250819262000249565b634e487b7160e01b86526022600452602486fd5b90607f169062000102565b634e487b7160e01b85526041600452602485fd5b015190503880620000d4565b8880528789208794509190601f1984168a5b8a828210620003045750508411620002ea575b505050811b018555620000e8565b015160001960f88460031b161c19169055388080620002dc565b8385015186558a97909501949384019301620002c9565b9091508780528688208580850160051c82019289861062000364575b918891869594930160051c01915b82811062000355575050620000be565b8a815585945088910162000345565b9250819262000337565b634e487b7160e01b87526022600452602487fd5b93607f1693620000a7565b634e487b7160e01b600052604160045260246000fd5b600080fd5b6040519190601f01601f191682016001600160401b038111838210176200038d57604052565b919080601f84011215620003a35782516001600160401b0381116200038d5760209062000404601f8201601f19168301620003a8565b92818452828287010111620003a35760005b8181106200042c57508260009394955001015290565b858101830151848201840152820162000416565b90670de0b6b3a764000082018092116200045657565b634e487b7160e01b600052601160045260246000fdfe6080604081815260048036101561001557600080fd5b600092833560e01c90816306fdde031461059157508063095ea7b31461052357806318160ddd1461050457806323b872dd1461040a578063313ce567146103ee57806364a7102b1461033857806370a082311461030057806395d89b41146101df578063a9059cbb1461012f578063c45a0155146100e75763dd62ed3e1461009c57600080fd5b346100e357816003193601126100e35760209282916100b96106cd565b6100c16106e8565b6001600160a01b03918216845291865283832091168252845220549051908152f35b8280fd5b50503461012b578160031936011261012b57517f00000000000000000000000000000000000000000000000000000000000000006001600160a01b03168152602090f35b5080fd5b5091346101dc57816003193601126101dc576101496106cd565b926024359033835260036020528184842054106101ce5750826020943384526003865281842061017a848254610721565b90556001600160a01b0316808452600386529220805461019b9083906106fe565b905582519081527fddf252ad1be2c89b69c2b068fc378daa952ba7f163c4a11628f55a4df523b3ef843392a35160018152f35b8351631e9acf1760e31b8152fd5b80fd5b5091903461012b578160031936011261012b5780519082600180549081811c908083169283156102f6575b60209384841081146102e3578388529081156102c75750600114610272575b505050829003601f01601f191682019267ffffffffffffffff84118385101761025f575082918261025b925282610684565b0390f35b634e487b7160e01b815260418552602490fd5b8087529192508591837fb10e2d527612073b26eecdfd717e6a320cf44b4afac2b0732d9fcbe2b7fa0cf65b8385106102b35750505050830101388080610229565b80548886018301529301928490820161029d565b60ff1916878501525050151560051b8401019050388080610229565b634e487b7160e01b895260228a52602489fd5b91607f169161020a565b50503461012b57602036600319011261012b5760209181906001600160a01b036103286106cd565b1681526003845220549051908152f35b50346100e357816003193601126100e3576103516106cd565b602435916001600160a01b0391907f0000000000000000000000000000000000000000000000000000000000000000831633036103e0575084927fddf252ad1be2c89b69c2b068fc378daa952ba7f163c4a11628f55a4df523b3ef926020921694858552600383528085206103c78382546106fe565b90556103d5826002546106fe565b60025551908152a380f35b8451630636a15760e11b8152fd5b50503461012b578160031936011261012b576020905160128152f35b5091346101dc5760603660031901126101dc576104256106cd565b61042d6106e8565b906044359060018060a01b0380911692838552602096600388528387872054106104f65784865280885286862033875288528387872054106104e85787927fddf252ad1be2c89b69c2b068fc378daa952ba7f163c4a11628f55a4df523b3ef94928892878952600386528389206104a5868254610721565b9055878952855282882033895285528288206104c2858254610721565b9055169586815260038452206104d98282546106fe565b90558551908152a35160018152f35b86516313be252b60e01b8152fd5b8651631e9acf1760e31b8152fd5b50503461012b578160031936011261012b576020906002549051908152f35b50346100e357816003193601126100e35760209261053f6106cd565b918360243592839233825287528181209460018060a01b0316948582528752205582519081527f8c5be1e5ebec7d5bd14f71427d1e84f3dd0314c0f7b2291e5b200ac8c7c3b925843392a35160018152f35b84915083346100e357826003193601126100e357828354600181811c9080831692831561067a575b60209384841081146102e35783885290811561065e575060011461060957505050829003601f01601f191682019267ffffffffffffffff84118385101761025f575082918261025b925282610684565b8680529192508591837f290decd9548b62a8d60345a988386fc84ba6bc95484008f6362f93160ef3e5635b83851061064a5750505050830101858080610229565b805488860183015293019284908201610634565b60ff1916878501525050151560051b8401019050858080610229565b91607f16916105b9565b6020808252825181830181905290939260005b8281106106b957505060409293506000838284010152601f8019910116010190565b818101860151848201604001528501610697565b600435906001600160a01b03821682036106e357565b600080fd5b602435906001600160a01b03821682036106e357565b9190820180921161070b57565b634e487b7160e01b600052601160045260246000fd5b9190820391821161070b5756fea2646970667358221220ba937415f3e276274eca1b73970cb2699d39e197e269c15dc0dfb8eba852821b64736f6c63430008140033ddf252ad1be2c89b69c2b068fc378daa952ba7f163c4a11628f55a4df523b3efa26469706673582212209fc5a861a90215d600920c0694b7199006597bc45761d26baf26608534cd35a564736f6c63430008140033","opcodes":"PUSH1 0x80 PUSH1 0x40 SWAP1 DUP1 DUP3 MSTORE CALLVALUE PUSH3 0x1D4 JUMPI DUP2 DUP2 PUSH3 0x2572 DUP1 CODESIZE SUB DUP1 SWAP2 PUSH3 0x24 DUP3 DUP6 PUSH3 0x1D9 JUMP JUMPDEST DUP4 CODECOPY DUP2 ADD SUB SLT PUSH3 0x1D4 JUMPI PUSH3 0x48 PUSH1 0x20 PUSH3 0x40 DUP4 PUSH3 0x213 JUMP JUMPDEST SWAP3 ADD PUSH3 0x213 JUMP JUMPDEST CALLER ISZERO PUSH3 0x1BC JUMPI PUSH1 0x0 DUP1 SLOAD CALLER PUSH1 0x1 PUSH1 0x1 PUSH1 0xA0 SHL SUB NOT DUP1 DUP4 AND DUP3 OR DUP5 SSTORE DUP7 MLOAD SWAP6 SWAP1 SWAP5 PUSH1 0x1 PUSH1 0x1 PUSH1 0xA0 SHL SUB SWAP5 SWAP4 SWAP1 SWAP3 DUP6 SWAP3 SWAP2 DUP4 AND PUSH32 0x8BE0079C531659141344CD1FD0A4F28419497F9722A3DAAFE3B4186F6B6457E0 DUP7 DUP1 LOG3 PUSH1 0x1 DUP1 SSTORE PUSH7 0x354A6BA7A18000 PUSH1 0x7 SSTORE PUSH12 0x37790968DC8EFFFD1000000 PUSH1 0x8 SSTORE PUSH12 0x29009752660AD62AF800000 PUSH1 0x9 SSTORE PUSH8 0xDE0B6B3A7640000 PUSH1 0xA SSTORE PUSH7 0xB1A2BC2EC50000 PUSH1 0xB SSTORE AND SWAP5 DUP6 ISZERO PUSH3 0x1AD JUMPI POP DUP3 AND SWAP4 DUP5 ISZERO PUSH3 0x19C JUMPI PUSH1 0x4 DUP1 SLOAD DUP6 AND DUP3 OR DUP2 SSTORE DUP7 MLOAD PUSH4 0x15AB88C9 PUSH1 0xE3 SHL DUP2 MSTORE SWAP2 PUSH1 0x20 SWAP2 DUP4 SWAP2 DUP3 SWAP1 GAS STATICCALL SWAP2 DUP3 ISZERO PUSH3 0x191 JUMPI DUP1 SWAP3 PUSH3 0x14A JUMPI JUMPDEST POP POP AND DUP2 PUSH1 0x5 SLOAD AND OR PUSH1 0x5 SSTORE PUSH1 0x6 SLOAD AND OR PUSH1 0x6 SSTORE MLOAD PUSH2 0x2349 SWAP1 DUP2 PUSH3 0x229 DUP3 CODECOPY RETURN JUMPDEST SWAP1 SWAP2 POP PUSH1 0x20 DUP3 RETURNDATASIZE DUP3 GT PUSH3 0x188 JUMPI JUMPDEST DUP2 PUSH3 0x168 PUSH1 0x20 SWAP4 DUP4 PUSH3 0x1D9 JUMP JUMPDEST DUP2 ADD SUB SLT PUSH3 0x185 JUMPI POP PUSH3 0x17D SWAP1 PUSH3 0x213 JUMP JUMPDEST CODESIZE DUP1 PUSH3 0x128 JUMP JUMPDEST DUP1 REVERT JUMPDEST RETURNDATASIZE SWAP2 POP PUSH3 0x159 JUMP JUMPDEST DUP7 MLOAD SWAP1 RETURNDATASIZE SWAP1 DUP3 RETURNDATACOPY RETURNDATASIZE SWAP1 REVERT JUMPDEST DUP6 MLOAD PUSH4 0xE6C4247B PUSH1 0xE0 SHL DUP2 MSTORE PUSH1 0x4 SWAP1 REVERT JUMPDEST PUSH4 0xE6C4247B PUSH1 0xE0 SHL DUP2 MSTORE PUSH1 0x4 SWAP1 REVERT JUMPDEST DUP3 MLOAD PUSH4 0x1E4FBDF7 PUSH1 0xE0 SHL DUP2 MSTORE PUSH1 0x0 PUSH1 0x4 DUP3 ADD MSTORE PUSH1 0x24 SWAP1 REVERT JUMPDEST PUSH1 0x0 DUP1 REVERT JUMPDEST PUSH1 0x1F SWAP1 SWAP2 ADD PUSH1 0x1F NOT AND DUP2 ADD SWAP1 PUSH1 0x1 PUSH1 0x1 PUSH1 0x40 SHL SUB DUP3 GT SWAP1 DUP3 LT OR PUSH3 0x1FD JUMPI PUSH1 0x40 MSTORE JUMP JUMPDEST PUSH4 0x4E487B71 PUSH1 0xE0 SHL PUSH1 0x0 MSTORE PUSH1 0x41 PUSH1 0x4 MSTORE PUSH1 0x24 PUSH1 0x0 REVERT JUMPDEST MLOAD SWAP1 PUSH1 0x1 PUSH1 0x1 PUSH1 0xA0 SHL SUB DUP3 AND DUP3 SUB PUSH3 0x1D4 JUMPI JUMP INVALID PUSH1 0x80 PUSH1 0x40 DUP2 DUP2 MSTORE PUSH1 0x4 DUP1 CALLDATASIZE LT ISZERO PUSH3 0x23 JUMPI JUMPDEST POP POP POP CALLDATASIZE ISZERO PUSH3 0x21 JUMPI PUSH1 0x0 DUP1 REVERT JUMPDEST STOP JUMPDEST PUSH1 0x0 SWAP3 DUP4 CALLDATALOAD PUSH1 0xE0 SHR SWAP1 DUP2 PUSH4 0x208597B0 EQ PUSH3 0xF0B JUMPI POP DUP1 PUSH4 0x4626402B EQ PUSH3 0xEE0 JUMPI DUP1 PUSH4 0x4E6FD6C4 EQ PUSH3 0xEC1 JUMPI DUP1 PUSH4 0x55A97632 EQ PUSH3 0xBF2 JUMPI DUP1 PUSH4 0x5EE6CC38 EQ PUSH3 0xB88 JUMPI DUP1 PUSH4 0x6148813C EQ PUSH3 0xB56 JUMPI DUP1 PUSH4 0x62914849 EQ PUSH3 0xAFF JUMPI DUP1 PUSH4 0x632DB21C EQ PUSH3 0xA79 JUMPI DUP1 PUSH4 0x634282AF EQ PUSH3 0xA34 JUMPI DUP1 PUSH4 0x715018A6 EQ PUSH3 0x9D6 JUMPI DUP1 PUSH4 0x735DE9F7 EQ PUSH3 0x9AD JUMPI DUP1 PUSH4 0x84CC315B EQ PUSH3 0x933 JUMPI DUP1 PUSH4 0x8DA5CB5B EQ PUSH3 0x909 JUMPI DUP1 PUSH4 0x90BC1E85 EQ PUSH3 0x8E8 JUMPI DUP1 PUSH4 0x9185F598 EQ PUSH3 0x8CA JUMPI DUP1 PUSH4 0x94B4CD0A EQ PUSH3 0x650 JUMPI DUP1 PUSH4 0x995C86D5 EQ PUSH3 0x62F JUMPI DUP1 PUSH4 0x9D72265E EQ PUSH3 0x611 JUMPI DUP1 PUSH4 0x9E1E213E EQ PUSH3 0x5F0 JUMPI DUP1 PUSH4 0xA8602FEA EQ PUSH3 0x553 JUMPI DUP1 PUSH4 0xAD5C4648 EQ PUSH3 0x528 JUMPI DUP1 PUSH4 0xB1A51F35 EQ PUSH3 0x507 JUMPI DUP1 PUSH4 0xB2DB919B EQ PUSH3 0x4E6 JUMPI DUP1 PUSH4 0xC0D78655 EQ PUSH3 0x411 JUMPI DUP1 PUSH4 0xC8A1D06E EQ PUSH3 0x3E5 JUMPI DUP1 PUSH4 0xCA706BCF EQ PUSH3 0x332 JUMPI DUP1 PUSH4 0xCA92A91B EQ PUSH3 0x2DB JUMPI DUP1 PUSH4 0xE1A45218 EQ PUSH3 0x2BC JUMPI DUP1 PUSH4 0xE4860339 EQ PUSH3 0x224 JUMPI PUSH4 0xF2FDE38B SUB PUSH3 0x12 JUMPI CALLVALUE PUSH3 0x220 JUMPI PUSH1 0x20 CALLDATASIZE PUSH1 0x3 NOT ADD SLT PUSH3 0x220 JUMPI PUSH3 0x1B1 PUSH3 0xF29 JUMP JUMPDEST SWAP1 PUSH3 0x1BC PUSH3 0x1062 JUMP JUMPDEST PUSH1 0x1 PUSH1 0x1 PUSH1 0xA0 SHL SUB SWAP2 DUP3 AND SWAP3 DUP4 ISZERO PUSH3 0x20A JUMPI POP POP DUP3 SLOAD PUSH1 0x1 PUSH1 0x1 PUSH1 0xA0 SHL SUB NOT DUP2 AND DUP4 OR DUP5 SSTORE AND PUSH32 0x8BE0079C531659141344CD1FD0A4F28419497F9722A3DAAFE3B4186F6B6457E0 DUP4 DUP1 LOG3 DUP1 RETURN JUMPDEST MLOAD PUSH4 0x1E4FBDF7 PUSH1 0xE0 SHL DUP2 MSTORE SWAP1 DUP2 ADD DUP5 SWAP1 MSTORE PUSH1 0x24 SWAP1 REVERT JUMPDEST DUP3 DUP1 REVERT JUMPDEST POP DUP3 SWAP1 CALLVALUE PUSH3 0x2B8 JUMPI PUSH1 0x20 CALLDATASIZE PUSH1 0x3 NOT ADD SLT PUSH3 0x2B8 JUMPI PUSH2 0x100 SWAP3 PUSH1 0x1 PUSH1 0x1 PUSH1 0xA0 SHL SUB SWAP3 DUP2 SWAP1 DUP5 PUSH3 0x254 PUSH3 0xF29 JUMP JUMPDEST AND DUP2 MSTORE PUSH1 0x2 PUSH1 0x20 MSTORE KECCAK256 SWAP1 DUP4 DUP3 SLOAD AND SWAP4 PUSH1 0x1 DUP4 ADD SLOAD AND SWAP3 PUSH1 0x2 DUP4 ADD SLOAD SWAP1 PUSH1 0x3 DUP5 ADD SLOAD SWAP1 DUP5 ADD SLOAD SWAP2 PUSH1 0x5 DUP6 ADD SLOAD SWAP4 PUSH1 0x7 PUSH1 0xFF PUSH1 0x6 DUP9 ADD SLOAD AND SWAP7 ADD SLOAD SWAP7 DUP2 MLOAD SWAP9 DUP10 MSTORE PUSH1 0x20 DUP10 ADD MSTORE DUP8 ADD MSTORE PUSH1 0x60 DUP7 ADD MSTORE PUSH1 0x80 DUP6 ADD MSTORE PUSH1 0xA0 DUP5 ADD MSTORE ISZERO ISZERO PUSH1 0xC0 DUP4 ADD MSTORE PUSH1 0xE0 DUP3 ADD MSTORE RETURN JUMPDEST POP DUP1 REVERT JUMPDEST POP POP CALLVALUE PUSH3 0x2B8 JUMPI DUP2 PUSH1 0x3 NOT CALLDATASIZE ADD SLT PUSH3 0x2B8 JUMPI PUSH1 0x20 SWAP1 MLOAD PUSH2 0x2710 DUP2 MSTORE RETURN JUMPDEST POP CALLVALUE PUSH3 0x220 JUMPI PUSH1 0x20 CALLDATASIZE PUSH1 0x3 NOT ADD SLT PUSH3 0x220 JUMPI PUSH32 0x5DE685D6916F86043147D790B0BA618FF8C5239BE31953A0D3B7B5C54C81B27E SWAP1 CALLDATALOAD SWAP2 PUSH3 0x31D PUSH3 0x1062 JUMP JUMPDEST PUSH1 0xA SLOAD DUP2 MLOAD SWAP1 DUP2 MSTORE DUP4 PUSH1 0x20 DUP3 ADD MSTORE LOG1 PUSH1 0xA SSTORE DUP1 RETURN JUMPDEST POP SWAP2 CALLVALUE PUSH3 0x3E2 JUMPI DUP2 PUSH1 0x3 NOT CALLDATASIZE ADD SLT PUSH3 0x3E2 JUMPI PUSH3 0x350 PUSH3 0xF29 JUMP JUMPDEST PUSH1 0x1 PUSH1 0x1 PUSH1 0xA0 SHL SUB AND DUP2 MSTORE PUSH1 0x2 PUSH1 0x20 MSTORE DUP2 DUP2 KECCAK256 SWAP1 PUSH1 0x24 CALLDATALOAD SWAP1 PUSH1 0x96 DUP1 DUP4 MUL SWAP2 SWAP1 DUP4 DUP4 DIV EQ DUP4 ISZERO OR ISZERO PUSH3 0x3CF JUMPI PUSH1 0x20 DUP6 PUSH3 0x3C8 PUSH3 0x3B4 PUSH3 0x3C1 DUP9 PUSH3 0x3BB PUSH3 0x3A0 PUSH2 0x2710 DUP11 DIV DUP12 PUSH3 0x10C4 JUMP JUMPDEST PUSH1 0x3 PUSH1 0x2 DUP5 ADD SLOAD SWAP4 ADD SLOAD SWAP5 DUP6 SWAP2 DUP5 PUSH3 0x1183 JUMP JUMPDEST SWAP3 PUSH3 0x114E JUMP JUMPDEST PUSH3 0x1162 JUMP JUMPDEST SWAP1 PUSH3 0x10C4 JUMP JUMPDEST SWAP1 MLOAD SWAP1 DUP2 MSTORE RETURN JUMPDEST PUSH4 0x4E487B71 PUSH1 0xE0 SHL DUP2 MSTORE PUSH1 0x11 DUP7 MSTORE PUSH1 0x24 SWAP1 REVERT JUMPDEST DUP1 REVERT JUMPDEST POP POP CALLVALUE PUSH3 0x2B8 JUMPI PUSH1 0x20 CALLDATASIZE PUSH1 0x3 NOT ADD SLT PUSH3 0x2B8 JUMPI PUSH1 0x20 SWAP1 PUSH3 0x3C8 PUSH3 0x40B PUSH3 0xF29 JUMP JUMPDEST PUSH3 0x16BE JUMP JUMPDEST POP SWAP1 CALLVALUE PUSH3 0x220 JUMPI PUSH1 0x20 CALLDATASIZE PUSH1 0x3 NOT ADD SLT PUSH3 0x220 JUMPI PUSH3 0x430 PUSH3 0xF29 JUMP JUMPDEST SWAP1 PUSH3 0x43B PUSH3 0x1062 JUMP JUMPDEST PUSH1 0x1 PUSH1 0x1 PUSH1 0xA0 SHL SUB SWAP2 DUP3 AND SWAP3 DUP4 ISZERO PUSH3 0x4D8 JUMPI PUSH1 0x20 PUSH12 0xFFFFFFFFFFFFFFFFFFFFFFFF PUSH1 0xA0 SHL SWAP5 DUP1 DUP7 DUP5 SLOAD AND OR DUP4 SSTORE DUP4 MLOAD SWAP3 DUP4 DUP1 SWAP3 PUSH4 0x15AB88C9 PUSH1 0xE3 SHL DUP3 MSTORE GAS STATICCALL SWAP2 DUP3 ISZERO PUSH3 0x4CF JUMPI POP DUP5 SWAP2 PUSH3 0x49A JUMPI JUMPDEST POP AND SWAP1 PUSH1 0x5 SLOAD AND OR PUSH1 0x5 SSTORE DUP1 RETURN JUMPDEST PUSH3 0x4C0 SWAP2 POP PUSH1 0x20 RETURNDATASIZE DUP2 GT PUSH3 0x4C7 JUMPI JUMPDEST PUSH3 0x4B7 DUP2 DUP4 PUSH3 0xFD5 JUMP JUMPDEST DUP2 ADD SWAP1 PUSH3 0x169D JUMP JUMPDEST CODESIZE PUSH3 0x48C JUMP JUMPDEST POP RETURNDATASIZE PUSH3 0x4AB JUMP JUMPDEST MLOAD RETURNDATASIZE DUP7 DUP3 RETURNDATACOPY RETURNDATASIZE SWAP1 REVERT JUMPDEST SWAP1 MLOAD PUSH4 0xE6C4247B PUSH1 0xE0 SHL DUP2 MSTORE REVERT JUMPDEST POP POP CALLVALUE PUSH3 0x2B8 JUMPI DUP2 PUSH1 0x3 NOT CALLDATASIZE ADD SLT PUSH3 0x2B8 JUMPI PUSH1 0x20 SWAP1 PUSH1 0xB SLOAD SWAP1 MLOAD SWAP1 DUP2 MSTORE RETURN JUMPDEST POP POP CALLVALUE PUSH3 0x2B8 JUMPI DUP2 PUSH1 0x3 NOT CALLDATASIZE ADD SLT PUSH3 0x2B8 JUMPI PUSH1 0x20 SWAP1 PUSH1 0x8 SLOAD SWAP1 MLOAD SWAP1 DUP2 MSTORE RETURN JUMPDEST POP POP CALLVALUE PUSH3 0x2B8 JUMPI DUP2 PUSH1 0x3 NOT CALLDATASIZE ADD SLT PUSH3 0x2B8 JUMPI PUSH1 0x5 SLOAD SWAP1 MLOAD PUSH1 0x1 PUSH1 0x1 PUSH1 0xA0 SHL SUB SWAP1 SWAP2 AND DUP2 MSTORE PUSH1 0x20 SWAP1 RETURN JUMPDEST POP SWAP1 CALLVALUE PUSH3 0x220 JUMPI PUSH1 0x20 CALLDATASIZE PUSH1 0x3 NOT ADD SLT PUSH3 0x220 JUMPI PUSH3 0x572 PUSH3 0xF29 JUMP JUMPDEST PUSH3 0x57C PUSH3 0x1062 JUMP JUMPDEST PUSH1 0x1 PUSH1 0x1 PUSH1 0xA0 SHL SUB DUP2 DUP2 AND SWAP4 DUP5 ISZERO PUSH3 0x5E2 JUMPI POP PUSH1 0x6 SLOAD SWAP3 MLOAD PUSH1 0x1 PUSH1 0x1 PUSH1 0xA0 SHL SUB SWAP2 DUP5 AND DUP3 AND DUP2 MSTORE SWAP2 AND PUSH1 0x20 DUP3 ADD MSTORE PUSH32 0x4AB5BE82436D353E61CA18726E984E561F5C1CC7C6D38B29D2553C790434705A SWAP1 PUSH1 0x40 SWAP1 LOG1 PUSH1 0x1 PUSH1 0x1 PUSH1 0xA0 SHL SUB NOT AND OR PUSH1 0x6 SSTORE DUP1 RETURN JUMPDEST DUP4 MLOAD PUSH4 0xE6C4247B PUSH1 0xE0 SHL DUP2 MSTORE REVERT JUMPDEST POP POP CALLVALUE PUSH3 0x2B8 JUMPI DUP2 PUSH1 0x3 NOT CALLDATASIZE ADD SLT PUSH3 0x2B8 JUMPI PUSH1 0x20 SWAP1 PUSH1 0x3 SLOAD SWAP1 MLOAD SWAP1 DUP2 MSTORE RETURN JUMPDEST POP POP CALLVALUE PUSH3 0x2B8 JUMPI DUP2 PUSH1 0x3 NOT CALLDATASIZE ADD SLT PUSH3 0x2B8 JUMPI PUSH1 0x20 SWAP1 MLOAD PUSH1 0x4B DUP2 MSTORE RETURN JUMPDEST POP POP CALLVALUE PUSH3 0x2B8 JUMPI DUP2 PUSH1 0x3 NOT CALLDATASIZE ADD SLT PUSH3 0x2B8 JUMPI PUSH1 0x20 SWAP1 PUSH1 0x7 SLOAD SWAP1 MLOAD SWAP1 DUP2 MSTORE RETURN JUMPDEST POP SWAP1 PUSH1 0x60 CALLDATASIZE PUSH1 0x3 NOT ADD SLT PUSH3 0x220 JUMPI PUSH8 0xFFFFFFFFFFFFFFFF DUP3 CALLDATALOAD DUP2 DUP2 GT PUSH3 0x8C6 JUMPI PUSH3 0x681 SWAP1 CALLDATASIZE SWAP1 DUP6 ADD PUSH3 0x1015 JUMP JUMPDEST PUSH1 0x24 CALLDATALOAD DUP3 DUP2 GT PUSH3 0x8C2 JUMPI PUSH3 0x69B SWAP1 CALLDATASIZE SWAP1 DUP7 ADD PUSH3 0x1015 JUMP JUMPDEST SWAP1 PUSH3 0x6A6 PUSH3 0xF45 JUMP JUMPDEST SWAP4 PUSH3 0x6B1 PUSH3 0x112A JUMP JUMPDEST PUSH1 0xB SLOAD DUP1 CALLVALUE LT PUSH3 0x8B3 JUMPI DUP1 DUP9 SWAP2 PUSH3 0x876 JUMPI JUMPDEST POP POP PUSH3 0x6D5 PUSH1 0xB SLOAD CALLVALUE PUSH3 0x10C4 JUMP JUMPDEST DUP2 MLOAD SWAP1 SWAP5 PUSH2 0xBF1 DUP1 DUP4 ADD SWAP2 DUP3 GT DUP4 DUP4 LT OR PUSH3 0x863 JUMPI SWAP1 DUP3 SWAP2 PUSH3 0x1723 DUP4 CODECOPY PUSH1 0x60 DUP2 MSTORE PUSH3 0x71A PUSH3 0x70B PUSH1 0x60 DUP4 ADD DUP8 PUSH3 0x10E8 JUMP JUMPDEST DUP3 DUP2 SUB PUSH1 0x20 DUP5 ADD MSTORE DUP8 PUSH3 0x10E8 JUMP JUMPDEST SWAP1 DUP5 CALLER SWAP2 ADD MSTORE SUB SWAP1 DUP9 CREATE DUP1 ISZERO PUSH3 0x859 JUMPI PUSH1 0x1 DUP1 PUSH1 0xA0 SHL SUB DUP1 SWAP2 AND SWAP7 DUP8 DUP10 MSTORE PUSH1 0x2 PUSH1 0x20 MSTORE DUP3 DUP10 KECCAK256 PUSH12 0xFFFFFFFFFFFFFFFFFFFFFFFF PUSH1 0xA0 SHL CALLER DUP2 DUP4 SLOAD AND OR DUP3 SSTORE DUP10 PUSH1 0x1 DUP4 ADD SWAP2 DUP3 SLOAD AND OR SWAP1 SSTORE DUP10 DUP3 DUP3 ADD SSTORE PUSH1 0x9 SLOAD PUSH1 0x5 DUP3 ADD SSTORE PUSH1 0x7 SLOAD PUSH1 0x2 DUP3 ADD SSTORE PUSH1 0x8 SLOAD PUSH1 0x3 DUP3 ADD SSTORE PUSH1 0x6 DUP2 ADD PUSH1 0xFF NOT DUP2 SLOAD AND SWAP1 SSTORE PUSH1 0x7 TIMESTAMP SWAP2 ADD SSTORE PUSH1 0x3 SLOAD SWAP1 PUSH9 0x10000000000000000 DUP3 LT ISZERO PUSH3 0x846 JUMPI POP SWAP2 DUP8 SWAP4 SWAP2 PUSH3 0x7E2 DUP5 PUSH1 0x1 PUSH32 0xE3B10FEB4083662A6DBA2542351B61BC6D65BEDDAB11C513004984A0CCAD73A2 SWAP7 ADD PUSH1 0x3 SSTORE PUSH3 0xF5C JUMP JUMPDEST DUP2 SWAP3 SWAP2 SLOAD SWAP1 PUSH1 0x3 SHL SWAP2 DUP8 DUP4 SHL SWAP3 SHL NOT AND OR SWAP1 SSTORE PUSH3 0x81E PUSH3 0x80E DUP3 MLOAD SWAP4 DUP4 DUP6 SWAP5 DUP6 MSTORE DUP5 ADD SWAP1 PUSH3 0x10E8 JUMP JUMPDEST DUP3 DUP2 SUB PUSH1 0x20 DUP5 ADD MSTORE CALLER SWAP7 PUSH3 0x10E8 JUMP JUMPDEST SUB SWAP1 LOG3 DUP1 PUSH3 0x830 JUMPI JUMPDEST DUP4 PUSH1 0x1 DUP1 SSTORE DUP1 RETURN JUMPDEST PUSH3 0x83D SWAP3 CALLER SWAP1 PUSH3 0x1191 JUMP JUMPDEST CODESIZE DUP1 DUP1 PUSH3 0x828 JUMP JUMPDEST PUSH4 0x4E487B71 PUSH1 0xE0 SHL DUP11 MSTORE PUSH1 0x41 SWAP1 MSTORE PUSH1 0x24 DUP10 REVERT JUMPDEST DUP2 MLOAD RETURNDATASIZE DUP10 DUP3 RETURNDATACOPY RETURNDATASIZE SWAP1 REVERT JUMPDEST PUSH4 0x4E487B71 PUSH1 0xE0 SHL DUP11 MSTORE PUSH1 0x41 DUP10 MSTORE PUSH1 0x24 DUP11 REVERT JUMPDEST PUSH1 0x6 SLOAD DUP3 SWAP2 DUP3 SWAP2 DUP3 SWAP2 SWAP1 PUSH1 0x1 PUSH1 0x1 PUSH1 0xA0 SHL SUB AND GAS CALL PUSH3 0x895 PUSH3 0x108F JUMP JUMPDEST POP ISZERO PUSH3 0x8A4 JUMPI DUP7 CODESIZE PUSH3 0x6C5 JUMP JUMPDEST MLOAD PUSH4 0x12171D83 PUSH1 0xE3 SHL DUP2 MSTORE DUP6 SWAP1 REVERT JUMPDEST DUP2 MLOAD PUSH3 0x976F75 PUSH1 0xE2 SHL DUP2 MSTORE DUP8 SWAP1 REVERT JUMPDEST DUP6 DUP1 REVERT JUMPDEST DUP5 DUP1 REVERT JUMPDEST POP POP CALLVALUE PUSH3 0x2B8 JUMPI DUP2 PUSH1 0x3 NOT CALLDATASIZE ADD SLT PUSH3 0x2B8 JUMPI PUSH1 0x20 SWAP1 MLOAD PUSH1 0x96 DUP2 MSTORE RETURN JUMPDEST POP POP CALLVALUE PUSH3 0x2B8 JUMPI DUP2 PUSH1 0x3 NOT CALLDATASIZE ADD SLT PUSH3 0x2B8 JUMPI PUSH1 0x20 SWAP1 PUSH1 0xA SLOAD SWAP1 MLOAD SWAP1 DUP2 MSTORE RETURN JUMPDEST POP POP CALLVALUE PUSH3 0x2B8 JUMPI DUP2 PUSH1 0x3 NOT CALLDATASIZE ADD SLT PUSH3 0x2B8 JUMPI SWAP1 SLOAD SWAP1 MLOAD PUSH1 0x1 PUSH1 0x1 PUSH1 0xA0 SHL SUB SWAP1 SWAP2 AND DUP2 MSTORE PUSH1 0x20 SWAP1 RETURN JUMPDEST POP SWAP2 CALLVALUE PUSH3 0x3E2 JUMPI PUSH1 0x20 CALLDATASIZE PUSH1 0x3 NOT ADD SLT PUSH3 0x3E2 JUMPI PUSH1 0x1 PUSH1 0x1 PUSH1 0xA0 SHL SUB PUSH3 0x95A PUSH3 0xF29 JUMP JUMPDEST AND DUP2 MSTORE PUSH1 0x2 PUSH1 0x20 MSTORE DUP2 DUP2 KECCAK256 PUSH1 0x2 DUP2 ADD SLOAD SWAP2 PUSH8 0xDE0B6B3A7640000 SWAP3 DUP4 DUP2 MUL SWAP4 DUP2 DUP6 DIV EQ SWAP1 ISZERO OR ISZERO PUSH3 0x99A JUMPI PUSH1 0x20 DUP5 PUSH3 0x3C8 DUP6 PUSH1 0x3 DUP7 ADD SLOAD SWAP1 PUSH3 0x1162 JUMP JUMPDEST PUSH4 0x4E487B71 PUSH1 0xE0 SHL DUP2 MSTORE PUSH1 0x11 DUP6 MSTORE PUSH1 0x24 SWAP1 REVERT JUMPDEST POP CALLVALUE PUSH3 0x220 JUMPI DUP3 PUSH1 0x3 NOT CALLDATASIZE ADD SLT PUSH3 0x220 JUMPI SLOAD SWAP1 MLOAD PUSH1 0x1 PUSH1 0x1 PUSH1 0xA0 SHL SUB SWAP1 SWAP2 AND DUP2 MSTORE PUSH1 0x20 SWAP2 POP RETURN JUMPDEST DUP4 CALLVALUE PUSH3 0x3E2 JUMPI DUP1 PUSH1 0x3 NOT CALLDATASIZE ADD SLT PUSH3 0x3E2 JUMPI PUSH3 0x9F3 PUSH3 0x1062 JUMP JUMPDEST DUP1 SLOAD PUSH1 0x1 PUSH1 0x1 PUSH1 0xA0 SHL SUB NOT DUP2 AND DUP3 SSTORE DUP2 SWAP1 PUSH1 0x1 PUSH1 0x1 PUSH1 0xA0 SHL SUB AND PUSH32 0x8BE0079C531659141344CD1FD0A4F28419497F9722A3DAAFE3B4186F6B6457E0 DUP3 DUP1 LOG3 DUP1 RETURN JUMPDEST POP CALLVALUE PUSH3 0x220 JUMPI PUSH1 0x20 CALLDATASIZE PUSH1 0x3 NOT ADD SLT PUSH3 0x220 JUMPI CALLDATALOAD SWAP2 PUSH1 0x3 SLOAD DUP4 LT ISZERO PUSH3 0x3E2 JUMPI POP PUSH3 0xA63 PUSH1 0x20 SWAP3 PUSH3 0xF5C JUMP JUMPDEST PUSH1 0x1 DUP1 PUSH1 0xA0 SHL SUB SWAP2 SLOAD SWAP1 PUSH1 0x3 SHL SHR AND SWAP1 MLOAD SWAP1 DUP2 MSTORE RETURN JUMPDEST POP SWAP2 CALLVALUE PUSH3 0x3E2 JUMPI DUP2 PUSH1 0x3 NOT CALLDATASIZE ADD SLT PUSH3 0x3E2 JUMPI PUSH1 0x1 PUSH1 0x1 PUSH1 0xA0 SHL SUB PUSH3 0xA9F PUSH3 0xF29 JUMP JUMPDEST AND DUP2 MSTORE PUSH1 0x2 PUSH1 0x20 MSTORE PUSH3 0xAD7 DUP3 DUP3 KECCAK256 PUSH3 0x3C1 PUSH1 0x3 DUP3 ADD SLOAD SWAP2 PUSH3 0x3BB PUSH1 0x2 PUSH3 0xACC PUSH1 0x24 CALLDATALOAD DUP7 PUSH3 0x1183 JUMP JUMPDEST SWAP3 ADD SLOAD SWAP4 DUP5 PUSH3 0x114E JUMP JUMPDEST SWAP1 PUSH1 0x96 DUP3 MUL SWAP1 DUP3 DUP3 DIV PUSH1 0x96 EQ DUP4 ISZERO OR ISZERO PUSH3 0x99A JUMPI PUSH1 0x20 DUP5 PUSH3 0x3C8 PUSH2 0x2710 DUP6 DIV DUP7 PUSH3 0x10C4 JUMP JUMPDEST POP CALLVALUE PUSH3 0x220 JUMPI PUSH1 0x20 CALLDATASIZE PUSH1 0x3 NOT ADD SLT PUSH3 0x220 JUMPI PUSH32 0xEF772BBCF0F90DB491AAF9F8B6712E886B3A90BB136181A52B675F4C2F11D937 SWAP1 CALLDATALOAD SWAP2 PUSH3 0xB41 PUSH3 0x1062 JUMP JUMPDEST PUSH1 0xB SLOAD DUP2 MLOAD SWAP1 DUP2 MSTORE DUP4 PUSH1 0x20 DUP3 ADD MSTORE LOG1 PUSH1 0xB SSTORE DUP1 RETURN JUMPDEST DUP4 DUP3 CALLVALUE PUSH3 0x2B8 JUMPI PUSH1 0x60 CALLDATASIZE PUSH1 0x3 NOT ADD SLT PUSH3 0x2B8 JUMPI PUSH3 0xB75 PUSH3 0x1062 JUMP JUMPDEST CALLDATALOAD PUSH1 0x7 SSTORE PUSH1 0x24 CALLDATALOAD PUSH1 0x8 SSTORE PUSH1 0x44 CALLDATALOAD PUSH1 0x9 SSTORE DUP1 RETURN JUMPDEST POP SWAP2 SWAP1 DUP1 PUSH1 0x3 NOT CALLDATASIZE ADD SLT PUSH3 0x2B8 JUMPI PUSH3 0xBA1 PUSH3 0xF29 JUMP JUMPDEST PUSH1 0x24 CALLDATALOAD SWAP2 PUSH1 0x1 PUSH1 0x1 PUSH1 0xA0 SHL SUB DUP4 AND DUP4 SUB PUSH3 0xBEE JUMPI PUSH3 0xBC0 PUSH3 0x112A JUMP JUMPDEST CALLVALUE ISZERO PUSH3 0xBDF JUMPI POP SWAP1 PUSH3 0xBD8 SWAP2 CALLVALUE SWAP1 CALLER SWAP1 PUSH3 0x1191 JUMP JUMPDEST PUSH1 0x1 DUP1 SSTORE DUP1 RETURN JUMPDEST MLOAD PUSH4 0x1F2A2005 PUSH1 0xE0 SHL DUP2 MSTORE DUP5 SWAP1 REVERT JUMPDEST DUP4 DUP1 REVERT JUMPDEST POP SWAP2 SWAP1 CALLVALUE PUSH3 0x2B8 JUMPI PUSH1 0x60 CALLDATASIZE PUSH1 0x3 NOT ADD SLT PUSH3 0x2B8 JUMPI PUSH3 0xC12 PUSH3 0xF29 JUMP JUMPDEST PUSH1 0x24 CALLDATALOAD SWAP1 PUSH3 0xC20 PUSH3 0xF45 JUMP JUMPDEST SWAP1 PUSH3 0xC2B PUSH3 0x112A JUMP JUMPDEST DUP3 ISZERO PUSH3 0xEB1 JUMPI PUSH1 0x1 PUSH1 0x1 PUSH1 0xA0 SHL SUB SWAP1 DUP2 AND DUP1 DUP7 MSTORE PUSH1 0x2 PUSH1 0x20 MSTORE DUP5 DUP7 KECCAK256 PUSH1 0x1 DUP2 ADD SLOAD SWAP2 SWAP4 SWAP2 DUP4 AND ISZERO PUSH3 0xEA1 JUMPI PUSH1 0xFF PUSH1 0x6 DUP3 ADD SLOAD AND PUSH3 0xE91 JUMPI SWAP7 DUP8 PUSH1 0x3 PUSH3 0x3BB SWAP10 ADD DUP1 SLOAD SWAP1 PUSH3 0xC7E DUP9 DUP4 PUSH3 0x1183 JUMP JUMPDEST SWAP2 PUSH3 0xC9F PUSH3 0xC97 DUP5 PUSH1 0x2 DUP8 ADD SWAP15 DUP16 SLOAD SWAP5 DUP6 PUSH3 0x114E JUMP JUMPDEST DUP1 SWAP3 PUSH3 0x10C4 JUMP JUMPDEST SWAP12 DUP13 ISZERO DUP1 DUP1 ISZERO PUSH3 0xE84 JUMPI JUMPDEST PUSH3 0xE74 JUMPI SWAP1 DUP14 SWAP5 SWAP4 SWAP3 SWAP2 PUSH1 0x96 DUP7 MUL SWAP15 DUP16 DIV PUSH1 0x96 EQ OR ISZERO PUSH3 0xE61 JUMPI DUP5 DUP14 SWAP15 SWAP14 DUP12 DUP15 SWAP16 DUP15 SWAP16 SWAP12 SWAP13 SWAP14 SWAP15 PUSH1 0x64 DUP13 DUP6 PUSH3 0xCEB PUSH2 0x2710 PUSH1 0x20 SWAP7 DIV DUP1 SWAP10 PUSH3 0x10C4 JUMP JUMPDEST SWAP16 MLOAD SWAP6 DUP7 SWAP5 DUP6 SWAP4 PUSH4 0x23B872DD PUSH1 0xE0 SHL DUP6 MSTORE CALLER SWAP1 DUP6 ADD MSTORE ADDRESS PUSH1 0x24 DUP6 ADD MSTORE PUSH1 0x44 DUP5 ADD MSTORE GAS CALL SWAP2 DUP3 ISZERO PUSH3 0xE54 JUMPI SWAP2 PUSH3 0xE1F JUMPI JUMPDEST POP ISZERO PUSH3 0xE0F JUMPI DUP15 SWAP1 DUP12 DUP2 PUSH3 0xDDA JUMPI JUMPDEST POP POP POP SSTORE SSTORE DUP3 DUP3 ADD DUP1 SLOAD PUSH1 0x5 SWAP4 SWAP3 PUSH3 0xD47 SWAP2 PUSH3 0x10C4 JUMP JUMPDEST SWAP1 SSTORE ADD DUP1 SLOAD SWAP1 DUP8 DUP3 ADD SWAP2 DUP11 DUP10 DUP5 SLT SWAP2 SLT SWAP1 DUP1 ISZERO DUP3 AND SWAP2 ISZERO AND OR PUSH3 0xDC7 JUMPI SSTORE DUP8 DUP1 DUP1 DUP1 DUP6 CALLER GAS CALL PUSH3 0xD78 PUSH3 0x108F JUMP JUMPDEST POP ISZERO PUSH3 0xDB9 JUMPI POP DUP6 MLOAD SWAP5 DUP6 MSTORE PUSH1 0x20 DUP6 ADD MSTORE AND SWAP3 CALLER SWAP3 PUSH32 0x4735A31B3EC23A057C88EE658E79BF4115C33E7D3B5DA900CF23C97844F1EC47 SWAP2 SWAP1 LOG4 PUSH1 0x1 DUP1 SSTORE DUP1 RETURN JUMPDEST DUP7 MLOAD PUSH4 0x12171D83 PUSH1 0xE3 SHL DUP2 MSTORE REVERT JUMPDEST PUSH4 0x4E487B71 PUSH1 0xE0 SHL DUP11 MSTORE PUSH1 0x11 DUP4 MSTORE PUSH1 0x24 DUP11 REVERT JUMPDEST DUP3 DUP1 SWAP3 DUP2 SWAP3 PUSH1 0x6 SLOAD AND GAS CALL PUSH3 0xDEF PUSH3 0x108F JUMP JUMPDEST POP ISZERO PUSH3 0xDFF JUMPI DUP14 CODESIZE DUP12 PUSH3 0xD2E JUMP JUMPDEST DUP13 MLOAD PUSH4 0x12171D83 PUSH1 0xE3 SHL DUP2 MSTORE DUP8 SWAP1 REVERT JUMPDEST DUP14 MLOAD PUSH4 0x12171D83 PUSH1 0xE3 SHL DUP2 MSTORE DUP9 SWAP1 REVERT JUMPDEST PUSH3 0xE45 SWAP2 POP PUSH1 0x20 RETURNDATASIZE DUP2 GT PUSH3 0xE4C JUMPI JUMPDEST PUSH3 0xE3C DUP2 DUP4 PUSH3 0xFD5 JUMP JUMPDEST DUP2 ADD SWAP1 PUSH3 0x1683 JUMP JUMPDEST CODESIZE PUSH3 0xD1D JUMP JUMPDEST POP RETURNDATASIZE PUSH3 0xE30 JUMP JUMPDEST SWAP1 POP DUP16 MLOAD SWAP1 RETURNDATASIZE SWAP1 DUP3 RETURNDATACOPY RETURNDATASIZE SWAP1 REVERT JUMPDEST PUSH4 0x4E487B71 PUSH1 0xE0 SHL DUP14 MSTORE PUSH1 0x11 DUP8 MSTORE PUSH1 0x24 DUP14 REVERT JUMPDEST DUP12 MLOAD PUSH4 0x28B35F21 PUSH1 0xE0 SHL DUP2 MSTORE DUP8 SWAP1 REVERT JUMPDEST POP DUP14 DUP8 DUP8 ADD SLOAD LT PUSH3 0xCAB JUMP JUMPDEST DUP6 MLOAD PUSH4 0xDCFBAAFD PUSH1 0xE0 SHL DUP2 MSTORE DUP9 SWAP1 REVERT JUMPDEST DUP6 MLOAD PUSH4 0xC1AB6DC1 PUSH1 0xE0 SHL DUP2 MSTORE DUP9 SWAP1 REVERT JUMPDEST DUP4 MLOAD PUSH4 0x1F2A2005 PUSH1 0xE0 SHL DUP2 MSTORE DUP7 SWAP1 REVERT JUMPDEST POP POP CALLVALUE PUSH3 0x2B8 JUMPI DUP2 PUSH1 0x3 NOT CALLDATASIZE ADD SLT PUSH3 0x2B8 JUMPI PUSH1 0x20 SWAP1 MLOAD PUSH2 0xDEAD DUP2 MSTORE RETURN JUMPDEST POP POP CALLVALUE PUSH3 0x2B8 JUMPI DUP2 PUSH1 0x3 NOT CALLDATASIZE ADD SLT PUSH3 0x2B8 JUMPI PUSH1 0x6 SLOAD SWAP1 MLOAD PUSH1 0x1 PUSH1 0x1 PUSH1 0xA0 SHL SUB SWAP1 SWAP2 AND DUP2 MSTORE PUSH1 0x20 SWAP1 RETURN JUMPDEST DUP5 SWAP1 CALLVALUE PUSH3 0x2B8 JUMPI DUP2 PUSH1 0x3 NOT CALLDATASIZE ADD SLT PUSH3 0x2B8 JUMPI PUSH1 0x20 SWAP1 PUSH1 0x9 SLOAD DUP2 MSTORE RETURN JUMPDEST PUSH1 0x4 CALLDATALOAD SWAP1 PUSH1 0x1 PUSH1 0x1 PUSH1 0xA0 SHL SUB DUP3 AND DUP3 SUB PUSH3 0xF40 JUMPI JUMP JUMPDEST PUSH1 0x0 DUP1 REVERT JUMPDEST PUSH1 0x44 CALLDATALOAD SWAP1 PUSH1 0x1 PUSH1 0x1 PUSH1 0xA0 SHL SUB DUP3 AND DUP3 SUB PUSH3 0xF40 JUMPI JUMP JUMPDEST PUSH1 0x3 SLOAD DUP2 LT ISZERO PUSH3 0xF94 JUMPI PUSH1 0x3 PUSH1 0x0 MSTORE PUSH32 0xC2575A0E9E593C00F959F8C92F12DB2869C3395A3B0502D05E2516446F71F85B ADD SWAP1 PUSH1 0x0 SWAP1 JUMP JUMPDEST PUSH4 0x4E487B71 PUSH1 0xE0 SHL PUSH1 0x0 MSTORE PUSH1 0x32 PUSH1 0x4 MSTORE PUSH1 0x24 PUSH1 0x0 REVERT JUMPDEST PUSH8 0xFFFFFFFFFFFFFFFF DUP2 GT PUSH3 0xFBF JUMPI PUSH1 0x40 MSTORE JUMP JUMPDEST PUSH4 0x4E487B71 PUSH1 0xE0 SHL PUSH1 0x0 MSTORE PUSH1 0x41 PUSH1 0x4 MSTORE PUSH1 0x24 PUSH1 0x0 REVERT JUMPDEST SWAP1 PUSH1 0x1F DUP1 NOT SWAP2 ADD AND DUP2 ADD SWAP1 DUP2 LT PUSH8 0xFFFFFFFFFFFFFFFF DUP3 GT OR PUSH3 0xFBF JUMPI PUSH1 0x40 MSTORE JUMP JUMPDEST PUSH8 0xFFFFFFFFFFFFFFFF DUP2 GT PUSH3 0xFBF JUMPI PUSH1 0x1F ADD PUSH1 0x1F NOT AND PUSH1 0x20 ADD SWAP1 JUMP JUMPDEST DUP2 PUSH1 0x1F DUP3 ADD SLT ISZERO PUSH3 0xF40 JUMPI DUP1 CALLDATALOAD SWAP1 PUSH3 0x102F DUP3 PUSH3 0xFF8 JUMP JUMPDEST SWAP3 PUSH3 0x103F PUSH1 0x40 MLOAD SWAP5 DUP6 PUSH3 0xFD5 JUMP JUMPDEST DUP3 DUP5 MSTORE PUSH1 0x20 DUP4 DUP4 ADD ADD GT PUSH3 0xF40 JUMPI DUP2 PUSH1 0x0 SWAP3 PUSH1 0x20 DUP1 SWAP4 ADD DUP4 DUP7 ADD CALLDATACOPY DUP4 ADD ADD MSTORE SWAP1 JUMP JUMPDEST PUSH1 0x0 SLOAD PUSH1 0x1 PUSH1 0x1 PUSH1 0xA0 SHL SUB AND CALLER SUB PUSH3 0x1077 JUMPI JUMP JUMPDEST PUSH1 0x40 MLOAD PUSH4 0x118CDAA7 PUSH1 0xE0 SHL DUP2 MSTORE CALLER PUSH1 0x4 DUP3 ADD MSTORE PUSH1 0x24 SWAP1 REVERT JUMPDEST RETURNDATASIZE ISZERO PUSH3 0x10BF JUMPI RETURNDATASIZE SWAP1 PUSH3 0x10A3 DUP3 PUSH3 0xFF8 JUMP JUMPDEST SWAP2 PUSH3 0x10B3 PUSH1 0x40 MLOAD SWAP4 DUP5 PUSH3 0xFD5 JUMP JUMPDEST DUP3 MSTORE RETURNDATASIZE PUSH1 0x0 PUSH1 0x20 DUP5 ADD RETURNDATACOPY JUMP JUMPDEST PUSH1 0x60 SWAP1 JUMP JUMPDEST SWAP2 SWAP1 DUP3 SUB SWAP2 DUP3 GT PUSH3 0x10D2 JUMPI JUMP JUMPDEST PUSH4 0x4E487B71 PUSH1 0xE0 SHL PUSH1 0x0 MSTORE PUSH1 0x11 PUSH1 0x4 MSTORE PUSH1 0x24 PUSH1 0x0 REVERT JUMPDEST SWAP2 SWAP1 DUP3 MLOAD SWAP3 DUP4 DUP3 MSTORE PUSH1 0x0 JUMPDEST DUP5 DUP2 LT PUSH3 0x1115 JUMPI POP POP DUP3 PUSH1 0x0 PUSH1 0x20 DUP1 SWAP5 SWAP6 DUP5 ADD ADD MSTORE PUSH1 0x1F DUP1 NOT SWAP2 ADD AND ADD ADD SWAP1 JUMP JUMPDEST PUSH1 0x20 DUP2 DUP4 ADD DUP2 ADD MLOAD DUP5 DUP4 ADD DUP3 ADD MSTORE ADD PUSH3 0x10F3 JUMP JUMPDEST PUSH1 0x2 PUSH1 0x1 SLOAD EQ PUSH3 0x113C JUMPI PUSH1 0x2 PUSH1 0x1 SSTORE JUMP JUMPDEST PUSH1 0x40 MLOAD PUSH4 0x3EE5AEB5 PUSH1 0xE0 SHL DUP2 MSTORE PUSH1 0x4 SWAP1 REVERT JUMPDEST DUP2 DUP2 MUL SWAP3 SWAP2 DUP2 ISZERO SWAP2 DUP5 DIV EQ OR ISZERO PUSH3 0x10D2 JUMPI JUMP JUMPDEST DUP2 ISZERO PUSH3 0x116D JUMPI DIV SWAP1 JUMP JUMPDEST PUSH4 0x4E487B71 PUSH1 0xE0 SHL PUSH1 0x0 MSTORE PUSH1 0x12 PUSH1 0x4 MSTORE PUSH1 0x24 PUSH1 0x0 REVERT JUMPDEST SWAP2 SWAP1 DUP3 ADD DUP1 SWAP3 GT PUSH3 0x10D2 JUMPI JUMP JUMPDEST SWAP1 SWAP2 SWAP3 PUSH1 0x0 SWAP4 PUSH1 0x1 DUP1 PUSH1 0xA0 SHL SUB SWAP4 DUP5 DUP5 AND DUP7 MSTORE PUSH1 0x2 PUSH1 0x20 MSTORE PUSH1 0x40 SWAP3 DUP4 DUP8 KECCAK256 SWAP1 DUP7 PUSH1 0x1 DUP4 ADD SLOAD AND ISZERO PUSH3 0x1672 JUMPI PUSH1 0xFF PUSH1 0x6 DUP4 ADD SLOAD AND PUSH3 0x1661 JUMPI PUSH1 0x96 DUP5 MUL DUP5 DUP2 DIV PUSH1 0x96 EQ DUP6 ISZERO OR ISZERO PUSH3 0x164D JUMPI PUSH2 0x2710 SWAP1 DIV SWAP4 DUP9 PUSH3 0x11F0 DUP7 DUP4 PUSH3 0x10C4 JUMP JUMPDEST SWAP6 DUP1 PUSH3 0x1618 JUMPI JUMPDEST POP POP PUSH1 0x5 PUSH1 0x2 DUP5 ADD SWAP4 PUSH3 0x1225 DUP6 SLOAD DUP9 PUSH3 0x1236 PUSH3 0x122E PUSH1 0x3 DUP7 ADD SWAP4 PUSH3 0x3BB DUP6 SLOAD SWAP7 DUP8 SWAP6 DUP4 PUSH3 0x1183 JUMP JUMPDEST SWAP5 DUP6 SWAP3 PUSH3 0x114E JUMP JUMPDEST DUP1 SWAP5 PUSH3 0x10C4 JUMP JUMPDEST SWAP8 SSTORE SSTORE PUSH3 0x124A PUSH1 0x4 DUP3 ADD SWAP8 DUP9 SLOAD PUSH3 0x1183 JUMP JUMPDEST DUP8 SSTORE ADD DUP1 SLOAD DUP5 DUP2 SUB SWAP2 SWAP1 DUP12 DUP7 SLT DUP1 ISZERO DUP3 DUP6 SGT AND SWAP2 DUP5 SLT AND OR PUSH3 0x1604 JUMPI SSTORE DUP8 DUP8 AND EXTCODESIZE ISZERO PUSH3 0x1600 JUMPI DUP6 MLOAD PUSH4 0x64A7102B PUSH1 0xE0 SHL DUP2 MSTORE PUSH1 0x1 PUSH1 0x1 PUSH1 0xA0 SHL SUB DUP6 AND PUSH1 0x4 DUP3 ADD MSTORE PUSH1 0x24 DUP2 ADD DUP5 SWAP1 MSTORE DUP10 DUP2 PUSH1 0x44 DUP2 DUP4 DUP13 DUP15 AND GAS CALL DUP1 ISZERO PUSH3 0x15F6 JUMPI PUSH3 0x15DB JUMPI JUMPDEST POP DUP8 SWAP2 DUP3 SWAP2 DUP8 MLOAD SWAP5 DUP6 MSTORE PUSH1 0x20 DUP6 ADD MSTORE AND SWAP3 AND SWAP1 PUSH32 0xE4C62F62C45A0251C0C1BCC84DE28BF8C9575B0841FC32FC2C94D889BAF6AF31 DUP6 DUP9 DUP9 AND SWAP3 LOG4 SLOAD PUSH1 0xA SLOAD GT ISZERO PUSH3 0x12F8 JUMPI JUMPDEST POP POP POP POP JUMP JUMPDEST DUP3 DUP3 AND DUP5 MSTORE PUSH1 0x2 PUSH1 0x20 MSTORE DUP1 DUP5 KECCAK256 SWAP4 PUSH1 0x6 DUP6 ADD PUSH1 0x1 PUSH1 0xFF NOT DUP3 SLOAD AND OR SWAP1 SSTORE SELFBALANCE DUP2 PUSH1 0x5 PUSH3 0x1339 PUSH3 0x132D PUSH1 0x3 DUP11 ADD SLOAD DUP6 PUSH3 0x114E JUMP JUMPDEST PUSH1 0x2 DUP11 ADD SLOAD SWAP1 PUSH3 0x1162 JUMP JUMPDEST SWAP8 DUP3 PUSH1 0x4 DUP3 ADD SSTORE ADD SSTORE DUP6 PUSH3 0x157D JUMPI JUMPDEST PUSH1 0x4 DUP1 SLOAD DUP5 MLOAD PUSH4 0x95EA7B3 PUSH1 0xE0 SHL DUP2 MSTORE SWAP1 DUP8 AND PUSH1 0x1 PUSH1 0x1 PUSH1 0xA0 SHL SUB AND SWAP2 DUP2 ADD SWAP2 SWAP1 SWAP2 MSTORE PUSH1 0x24 DUP2 ADD DUP8 SWAP1 MSTORE PUSH1 0x20 DUP2 PUSH1 0x44 DUP2 DUP7 DUP10 DUP12 AND GAS CALL DUP1 ISZERO PUSH3 0x150A JUMPI PUSH3 0x1559 JUMPI JUMPDEST POP DUP5 PUSH1 0x4 SLOAD AND PUSH2 0x12C TIMESTAMP ADD DUP1 TIMESTAMP GT PUSH3 0x1545 JUMPI DUP3 SWAP2 PUSH1 0xC4 PUSH1 0x60 SWAP3 DUP8 MLOAD SWAP5 DUP6 SWAP4 DUP5 SWAP3 PUSH4 0xF305D719 PUSH1 0xE0 SHL DUP5 MSTORE DUP13 DUP13 AND PUSH1 0x4 DUP6 ADD MSTORE DUP14 PUSH1 0x24 DUP6 ADD MSTORE DUP10 PUSH1 0x44 DUP6 ADD MSTORE DUP10 PUSH1 0x64 DUP6 ADD MSTORE PUSH2 0xDEAD PUSH1 0x84 DUP6 ADD MSTORE PUSH1 0xA4 DUP5 ADD MSTORE GAS CALL DUP1 ISZERO PUSH3 0x150A JUMPI PUSH3 0x1514 JUMPI JUMPDEST POP PUSH1 0x4 PUSH1 0x20 DUP7 DUP3 SLOAD AND DUP6 MLOAD SWAP3 DUP4 DUP1 SWAP3 PUSH4 0xC45A0155 PUSH1 0xE0 SHL DUP3 MSTORE GAS STATICCALL SWAP1 DUP2 ISZERO PUSH3 0x150A JUMPI PUSH3 0x145B DUP8 SWAP3 PUSH1 0x20 SWAP3 DUP7 SWAP2 PUSH3 0x14E8 JUMPI JUMPDEST POP PUSH1 0x5 SLOAD DUP8 MLOAD PUSH4 0xE6A43905 PUSH1 0xE0 SHL DUP2 MSTORE PUSH1 0x1 PUSH1 0x1 PUSH1 0xA0 SHL SUB DUP11 DUP2 AND PUSH1 0x4 DUP4 ADD MSTORE SWAP2 DUP7 AND SWAP1 SWAP2 AND PUSH1 0x24 DUP3 ADD MSTORE SWAP4 DUP5 SWAP3 DUP4 SWAP2 SWAP1 DUP3 SWAP1 PUSH1 0x44 DUP3 ADD SWAP1 JUMP JUMPDEST SUB SWAP3 AND GAS STATICCALL SWAP3 DUP4 ISZERO PUSH3 0x14DD JUMPI SWAP3 DUP7 SWAP5 SWAP3 PUSH32 0xA44C03AAF0B9A5FCBA3A779474F4366EA6283072D24C8082199F204872B15973 SWAP8 SWAP3 PUSH1 0x60 SWAP8 SWAP6 SWAP3 PUSH3 0x14B7 JUMPI JUMPDEST POP DUP4 MLOAD SWAP9 DUP10 MSTORE PUSH1 0x20 DUP10 ADD MSTORE AND SWAP1 DUP7 ADD MSTORE AND SWAP3 LOG2 CODESIZE DUP1 DUP1 DUP1 PUSH3 0x12F2 JUMP JUMPDEST PUSH3 0x14D5 SWAP2 SWAP3 POP PUSH1 0x20 RETURNDATASIZE PUSH1 0x20 GT PUSH3 0x4C7 JUMPI PUSH3 0x4B7 DUP2 DUP4 PUSH3 0xFD5 JUMP JUMPDEST SWAP1 CODESIZE PUSH3 0x149A JUMP JUMPDEST DUP5 MLOAD SWAP1 RETURNDATASIZE SWAP1 DUP3 RETURNDATACOPY RETURNDATASIZE SWAP1 REVERT JUMPDEST PUSH3 0x1503 SWAP2 POP DUP4 RETURNDATASIZE DUP6 GT PUSH3 0x4C7 JUMPI PUSH3 0x4B7 DUP2 DUP4 PUSH3 0xFD5 JUMP JUMPDEST CODESIZE PUSH3 0x1421 JUMP JUMPDEST DUP5 MLOAD RETURNDATASIZE DUP6 DUP3 RETURNDATACOPY RETURNDATASIZE SWAP1 REVERT JUMPDEST PUSH1 0x60 SWAP1 DUP2 RETURNDATASIZE DUP2 GT PUSH3 0x153D JUMPI JUMPDEST PUSH3 0x152D DUP2 DUP4 PUSH3 0xFD5 JUMP JUMPDEST DUP2 ADD SUB SLT PUSH3 0x2B8 JUMPI CODESIZE PUSH3 0x13ED JUMP JUMPDEST POP RETURNDATASIZE PUSH3 0x1521 JUMP JUMPDEST PUSH4 0x4E487B71 PUSH1 0xE0 SHL DUP5 MSTORE PUSH1 0x11 PUSH1 0x4 MSTORE PUSH1 0x24 DUP5 REVERT JUMPDEST PUSH3 0x1575 SWAP1 PUSH1 0x20 RETURNDATASIZE PUSH1 0x20 GT PUSH3 0xE4C JUMPI PUSH3 0xE3C DUP2 DUP4 PUSH3 0xFD5 JUMP JUMPDEST POP CODESIZE PUSH3 0x138C JUMP JUMPDEST DUP5 DUP5 AND EXTCODESIZE ISZERO PUSH3 0x2B8 JUMPI DUP3 MLOAD PUSH4 0x64A7102B PUSH1 0xE0 SHL DUP2 MSTORE ADDRESS PUSH1 0x4 DUP3 ADD MSTORE PUSH1 0x24 DUP2 ADD DUP8 SWAP1 MSTORE DUP3 DUP2 PUSH1 0x44 DUP2 DUP4 DUP10 DUP12 AND GAS CALL DUP1 ISZERO PUSH3 0x150A JUMPI SWAP1 DUP4 SWAP2 PUSH3 0x15C3 JUMPI JUMPDEST POP POP PUSH3 0x1349 JUMP JUMPDEST PUSH3 0x15CE SWAP1 PUSH3 0xFAA JUMP JUMPDEST PUSH3 0x2B8 JUMPI DUP2 CODESIZE PUSH3 0x15BB JUMP JUMPDEST SWAP2 DUP9 SWAP3 SWAP10 PUSH3 0x15EC DUP5 SWAP4 SWAP12 PUSH3 0xFAA JUMP JUMPDEST SWAP10 SWAP2 POP SWAP2 PUSH3 0x12AC JUMP JUMPDEST DUP8 MLOAD RETURNDATASIZE DUP13 DUP3 RETURNDATACOPY RETURNDATASIZE SWAP1 REVERT JUMPDEST DUP9 DUP1 REVERT JUMPDEST PUSH4 0x4E487B71 PUSH1 0xE0 SHL DUP12 MSTORE PUSH1 0x11 PUSH1 0x4 MSTORE PUSH1 0x24 DUP12 REVERT JUMPDEST DUP2 DUP1 DUP1 SWAP3 DUP13 PUSH1 0x6 SLOAD AND GAS CALL PUSH3 0x162D PUSH3 0x108F JUMP JUMPDEST POP ISZERO PUSH3 0x163C JUMPI DUP9 CODESIZE PUSH3 0x11F8 JUMP JUMPDEST DUP6 MLOAD PUSH4 0x12171D83 PUSH1 0xE3 SHL DUP2 MSTORE PUSH1 0x4 SWAP1 REVERT JUMPDEST PUSH4 0x4E487B71 PUSH1 0xE0 SHL DUP10 MSTORE PUSH1 0x11 PUSH1 0x4 MSTORE PUSH1 0x24 DUP10 REVERT JUMPDEST DUP5 MLOAD PUSH4 0xDCFBAAFD PUSH1 0xE0 SHL DUP2 MSTORE PUSH1 0x4 SWAP1 REVERT JUMPDEST DUP5 MLOAD PUSH4 0xC1AB6DC1 PUSH1 0xE0 SHL DUP2 MSTORE PUSH1 0x4 SWAP1 REVERT JUMPDEST SWAP1 DUP2 PUSH1 0x20 SWAP2 SUB SLT PUSH3 0xF40 JUMPI MLOAD DUP1 ISZERO ISZERO DUP2 SUB PUSH3 0xF40 JUMPI SWAP1 JUMP JUMPDEST SWAP1 DUP2 PUSH1 0x20 SWAP2 SUB SLT PUSH3 0xF40 JUMPI MLOAD PUSH1 0x1 PUSH1 0x1 PUSH1 0xA0 SHL SUB DUP2 AND DUP2 SUB PUSH3 0xF40 JUMPI SWAP1 JUMP JUMPDEST PUSH1 0x1 PUSH1 0x1 PUSH1 0xA0 SHL SUB AND PUSH1 0x0 SWAP1 DUP2 MSTORE PUSH1 0x2 PUSH1 0x20 MSTORE PUSH1 0x40 SWAP1 KECCAK256 PUSH1 0x6 DUP2 ADD SLOAD PUSH1 0xFF AND PUSH3 0x171B JUMPI PUSH1 0x4 ADD SLOAD SWAP1 PUSH2 0x2710 SWAP2 DUP3 DUP2 MUL SWAP1 DUP1 DUP3 DIV DUP5 EQ SWAP1 ISZERO OR ISZERO PUSH3 0x10D2 JUMPI PUSH1 0xA SLOAD PUSH3 0x170B SWAP2 PUSH3 0x1162 JUMP JUMPDEST SWAP2 DUP1 DUP4 GT PUSH3 0x1717 JUMPI POP JUMP JUMPDEST SWAP2 POP JUMP JUMPDEST POP PUSH2 0x2710 SWAP1 JUMP INVALID PUSH1 0xA0 PUSH1 0x40 MSTORE CALLVALUE PUSH3 0x3A3 JUMPI PUSH3 0xBF1 DUP1 CODESIZE SUB DUP1 PUSH3 0x1D DUP2 PUSH3 0x3A8 JUMP JUMPDEST SWAP3 DUP4 CODECOPY DUP2 ADD PUSH1 0x60 DUP3 DUP3 SUB SLT PUSH3 0x3A3 JUMPI DUP2 MLOAD PUSH1 0x1 PUSH1 0x1 PUSH1 0x40 SHL SUB SWAP3 SWAP1 DUP4 DUP2 GT PUSH3 0x3A3 JUMPI DUP3 PUSH3 0x4F SWAP2 DUP4 ADD PUSH3 0x3CE JUMP JUMPDEST SWAP2 PUSH1 0x20 SWAP1 DUP2 DUP4 ADD MLOAD DUP6 DUP2 GT PUSH3 0x3A3 JUMPI PUSH1 0x40 SWAP2 PUSH3 0x6F SWAP2 DUP6 ADD PUSH3 0x3CE JUMP JUMPDEST SWAP3 ADD MLOAD PUSH1 0x1 PUSH1 0x1 PUSH1 0xA0 SHL SUB DUP2 AND SWAP4 SWAP1 DUP5 SWAP1 SUB PUSH3 0x3A3 JUMPI DUP1 MLOAD DUP6 DUP2 GT PUSH3 0x38D JUMPI PUSH1 0x0 SWAP4 DUP5 SLOAD SWAP2 PUSH1 0x1 SWAP4 DUP5 DUP5 DUP2 SHR SWAP5 AND DUP1 ISZERO PUSH3 0x382 JUMPI JUMPDEST DUP7 DUP6 LT EQ PUSH3 0x36E JUMPI DUP2 SWAP1 PUSH1 0x1F SWAP5 DUP6 DUP2 GT PUSH3 0x31B JUMPI JUMPDEST POP DUP7 SWAP1 DUP6 DUP4 GT PUSH1 0x1 EQ PUSH3 0x2B7 JUMPI DUP9 SWAP3 PUSH3 0x2AB JUMPI JUMPDEST POP POP PUSH1 0x0 NOT PUSH1 0x3 DUP4 SWAP1 SHL SHR NOT AND SWAP1 DUP5 SHL OR DUP6 SSTORE JUMPDEST DUP1 MLOAD SWAP7 DUP8 GT PUSH3 0x297 JUMPI DUP3 SLOAD DUP4 DUP2 DUP2 SHR SWAP2 AND DUP1 ISZERO PUSH3 0x28C JUMPI JUMPDEST DUP6 DUP3 LT EQ PUSH3 0x278 JUMPI DUP3 DUP2 GT PUSH3 0x230 JUMPI JUMPDEST POP DUP4 SWAP2 DUP8 GT PUSH1 0x1 EQ PUSH3 0x1BA JUMPI SWAP6 DUP1 SWAP2 DUP6 SWAP7 SWAP8 PUSH1 0x0 DUP1 MLOAD PUSH1 0x20 PUSH3 0xBD1 DUP4 CODECOPY DUP2 MLOAD SWAP2 MSTORE SWAP7 SWAP3 PUSH3 0x1AE JUMPI JUMPDEST POP POP PUSH1 0x0 NOT PUSH1 0x3 DUP4 SWAP1 SHL SHR NOT AND SWAP1 DUP3 SHL OR SWAP1 SSTORE JUMPDEST CALLER PUSH1 0x80 MSTORE DUP4 DUP4 MSTORE PUSH1 0x3 DUP2 MSTORE PUSH1 0x40 DUP4 KECCAK256 PUSH3 0x16E DUP2 SLOAD PUSH3 0x440 JUMP JUMPDEST SWAP1 SSTORE PUSH3 0x17D PUSH1 0x2 SLOAD PUSH3 0x440 JUMP JUMPDEST PUSH1 0x2 SSTORE PUSH1 0x40 MLOAD PUSH8 0xDE0B6B3A7640000 DUP2 MSTORE LOG3 PUSH1 0x40 MLOAD PUSH2 0x764 SWAP1 DUP2 PUSH3 0x46D DUP3 CODECOPY PUSH1 0x80 MLOAD DUP2 DUP2 DUP2 PUSH1 0xFC ADD MSTORE PUSH2 0x361 ADD MSTORE RETURN JUMPDEST ADD MLOAD SWAP1 POP CODESIZE DUP1 PUSH3 0x13F JUMP JUMPDEST DUP3 DUP6 MSTORE DUP4 DUP6 KECCAK256 SWAP2 SWAP1 PUSH1 0x1F NOT DUP9 AND DUP7 JUMPDEST DUP2 DUP2 LT PUSH3 0x21A JUMPI POP SWAP2 DUP5 SWAP4 SWAP2 DUP10 PUSH1 0x0 DUP1 MLOAD PUSH1 0x20 PUSH3 0xBD1 DUP4 CODECOPY DUP2 MLOAD SWAP2 MSTORE SWAP9 SWAP10 SWAP11 SWAP5 LT PUSH3 0x200 JUMPI JUMPDEST POP POP POP DUP2 SHL ADD SWAP1 SSTORE PUSH3 0x153 JUMP JUMPDEST ADD MLOAD PUSH1 0x0 NOT PUSH1 0xF8 DUP5 PUSH1 0x3 SHL AND SHR NOT AND SWAP1 SSTORE CODESIZE DUP1 DUP1 PUSH3 0x1F2 JUMP JUMPDEST DUP3 DUP5 ADD MLOAD DUP6 SSTORE SWAP4 DUP6 ADD SWAP4 SWAP3 DUP7 ADD SWAP3 DUP7 ADD PUSH3 0x1C9 JUMP JUMPDEST DUP4 DUP7 MSTORE DUP5 DUP7 KECCAK256 DUP4 DUP1 DUP11 ADD PUSH1 0x5 SHR DUP3 ADD SWAP3 DUP8 DUP12 LT PUSH3 0x26E JUMPI JUMPDEST ADD PUSH1 0x5 SHR ADD SWAP1 DUP5 SWAP1 JUMPDEST DUP3 DUP2 LT PUSH3 0x262 JUMPI POP POP PUSH3 0x114 JUMP JUMPDEST DUP8 DUP2 SSTORE ADD DUP5 SWAP1 PUSH3 0x252 JUMP JUMPDEST SWAP3 POP DUP2 SWAP3 PUSH3 0x249 JUMP JUMPDEST PUSH4 0x4E487B71 PUSH1 0xE0 SHL DUP7 MSTORE PUSH1 0x22 PUSH1 0x4 MSTORE PUSH1 0x24 DUP7 REVERT JUMPDEST SWAP1 PUSH1 0x7F AND SWAP1 PUSH3 0x102 JUMP JUMPDEST PUSH4 0x4E487B71 PUSH1 0xE0 SHL DUP6 MSTORE PUSH1 0x41 PUSH1 0x4 MSTORE PUSH1 0x24 DUP6 REVERT JUMPDEST ADD MLOAD SWAP1 POP CODESIZE DUP1 PUSH3 0xD4 JUMP JUMPDEST DUP9 DUP1 MSTORE DUP8 DUP10 KECCAK256 DUP8 SWAP5 POP SWAP2 SWAP1 PUSH1 0x1F NOT DUP5 AND DUP11 JUMPDEST DUP11 DUP3 DUP3 LT PUSH3 0x304 JUMPI POP POP DUP5 GT PUSH3 0x2EA JUMPI JUMPDEST POP POP POP DUP2 SHL ADD DUP6 SSTORE PUSH3 0xE8 JUMP JUMPDEST ADD MLOAD PUSH1 0x0 NOT PUSH1 0xF8 DUP5 PUSH1 0x3 SHL AND SHR NOT AND SWAP1 SSTORE CODESIZE DUP1 DUP1 PUSH3 0x2DC JUMP JUMPDEST DUP4 DUP6 ADD MLOAD DUP7 SSTORE DUP11 SWAP8 SWAP1 SWAP6 ADD SWAP5 SWAP4 DUP5 ADD SWAP4 ADD PUSH3 0x2C9 JUMP JUMPDEST SWAP1 SWAP2 POP DUP8 DUP1 MSTORE DUP7 DUP9 KECCAK256 DUP6 DUP1 DUP6 ADD PUSH1 0x5 SHR DUP3 ADD SWAP3 DUP10 DUP7 LT PUSH3 0x364 JUMPI JUMPDEST SWAP2 DUP9 SWAP2 DUP7 SWAP6 SWAP5 SWAP4 ADD PUSH1 0x5 SHR ADD SWAP2 JUMPDEST DUP3 DUP2 LT PUSH3 0x355 JUMPI POP POP PUSH3 0xBE JUMP JUMPDEST DUP11 DUP2 SSTORE DUP6 SWAP5 POP DUP9 SWAP2 ADD PUSH3 0x345 JUMP JUMPDEST SWAP3 POP DUP2 SWAP3 PUSH3 0x337 JUMP JUMPDEST PUSH4 0x4E487B71 PUSH1 0xE0 SHL DUP8 MSTORE PUSH1 0x22 PUSH1 0x4 MSTORE PUSH1 0x24 DUP8 REVERT JUMPDEST SWAP4 PUSH1 0x7F AND SWAP4 PUSH3 0xA7 JUMP JUMPDEST PUSH4 0x4E487B71 PUSH1 0xE0 SHL PUSH1 0x0 MSTORE PUSH1 0x41 PUSH1 0x4 MSTORE PUSH1 0x24 PUSH1 0x0 REVERT JUMPDEST PUSH1 0x0 DUP1 REVERT JUMPDEST PUSH1 0x40 MLOAD SWAP2 SWAP1 PUSH1 0x1F ADD PUSH1 0x1F NOT AND DUP3 ADD PUSH1 0x1 PUSH1 0x1 PUSH1 0x40 SHL SUB DUP2 GT DUP4 DUP3 LT OR PUSH3 0x38D JUMPI PUSH1 0x40 MSTORE JUMP JUMPDEST SWAP2 SWAP1 DUP1 PUSH1 0x1F DUP5 ADD SLT ISZERO PUSH3 0x3A3 JUMPI DUP3 MLOAD PUSH1 0x1 PUSH1 0x1 PUSH1 0x40 SHL SUB DUP2 GT PUSH3 0x38D JUMPI PUSH1 0x20 SWAP1 PUSH3 0x404 PUSH1 0x1F DUP3 ADD PUSH1 0x1F NOT AND DUP4 ADD PUSH3 0x3A8 JUMP JUMPDEST SWAP3 DUP2 DUP5 MSTORE DUP3 DUP3 DUP8 ADD ADD GT PUSH3 0x3A3 JUMPI PUSH1 0x0 JUMPDEST DUP2 DUP2 LT PUSH3 0x42C JUMPI POP DUP3 PUSH1 0x0 SWAP4 SWAP5 SWAP6 POP ADD ADD MSTORE SWAP1 JUMP JUMPDEST DUP6 DUP2 ADD DUP4 ADD MLOAD DUP5 DUP3 ADD DUP5 ADD MSTORE DUP3 ADD PUSH3 0x416 JUMP JUMPDEST SWAP1 PUSH8 0xDE0B6B3A7640000 DUP3 ADD DUP1 SWAP3 GT PUSH3 0x456 JUMPI JUMP JUMPDEST PUSH4 0x4E487B71 PUSH1 0xE0 SHL PUSH1 0x0 MSTORE PUSH1 0x11 PUSH1 0x4 MSTORE PUSH1 0x24 PUSH1 0x0 REVERT INVALID PUSH1 0x80 PUSH1 0x40 DUP2 DUP2 MSTORE PUSH1 0x4 DUP1 CALLDATASIZE LT ISZERO PUSH2 0x15 JUMPI PUSH1 0x0 DUP1 REVERT JUMPDEST PUSH1 0x0 SWAP3 DUP4 CALLDATALOAD PUSH1 0xE0 SHR SWAP1 DUP2 PUSH4 0x6FDDE03 EQ PUSH2 0x591 JUMPI POP DUP1 PUSH4 0x95EA7B3 EQ PUSH2 0x523 JUMPI DUP1 PUSH4 0x18160DDD EQ PUSH2 0x504 JUMPI DUP1 PUSH4 0x23B872DD EQ PUSH2 0x40A JUMPI DUP1 PUSH4 0x313CE567 EQ PUSH2 0x3EE JUMPI DUP1 PUSH4 0x64A7102B EQ PUSH2 0x338 JUMPI DUP1 PUSH4 0x70A08231 EQ PUSH2 0x300 JUMPI DUP1 PUSH4 0x95D89B41 EQ PUSH2 0x1DF JUMPI DUP1 PUSH4 0xA9059CBB EQ PUSH2 0x12F JUMPI DUP1 PUSH4 0xC45A0155 EQ PUSH2 0xE7 JUMPI PUSH4 0xDD62ED3E EQ PUSH2 0x9C JUMPI PUSH1 0x0 DUP1 REVERT JUMPDEST CALLVALUE PUSH2 0xE3 JUMPI DUP2 PUSH1 0x3 NOT CALLDATASIZE ADD SLT PUSH2 0xE3 JUMPI PUSH1 0x20 SWAP3 DUP3 SWAP2 PUSH2 0xB9 PUSH2 0x6CD JUMP JUMPDEST PUSH2 0xC1 PUSH2 0x6E8 JUMP JUMPDEST PUSH1 0x1 PUSH1 0x1 PUSH1 0xA0 SHL SUB SWAP2 DUP3 AND DUP5 MSTORE SWAP2 DUP7 MSTORE DUP4 DUP4 KECCAK256 SWAP2 AND DUP3 MSTORE DUP5 MSTORE KECCAK256 SLOAD SWAP1 MLOAD SWAP1 DUP2 MSTORE RETURN JUMPDEST DUP3 DUP1 REVERT JUMPDEST POP POP CALLVALUE PUSH2 0x12B JUMPI DUP2 PUSH1 0x3 NOT CALLDATASIZE ADD SLT PUSH2 0x12B JUMPI MLOAD PUSH32 0x0 PUSH1 0x1 PUSH1 0x1 PUSH1 0xA0 SHL SUB AND DUP2 MSTORE PUSH1 0x20 SWAP1 RETURN JUMPDEST POP DUP1 REVERT JUMPDEST POP SWAP2 CALLVALUE PUSH2 0x1DC JUMPI DUP2 PUSH1 0x3 NOT CALLDATASIZE ADD SLT PUSH2 0x1DC JUMPI PUSH2 0x149 PUSH2 0x6CD JUMP JUMPDEST SWAP3 PUSH1 0x24 CALLDATALOAD SWAP1 CALLER DUP4 MSTORE PUSH1 0x3 PUSH1 0x20 MSTORE DUP2 DUP5 DUP5 KECCAK256 SLOAD LT PUSH2 0x1CE JUMPI POP DUP3 PUSH1 0x20 SWAP5 CALLER DUP5 MSTORE PUSH1 0x3 DUP7 MSTORE DUP2 DUP5 KECCAK256 PUSH2 0x17A DUP5 DUP3 SLOAD PUSH2 0x721 JUMP JUMPDEST SWAP1 SSTORE PUSH1 0x1 PUSH1 0x1 PUSH1 0xA0 SHL SUB AND DUP1 DUP5 MSTORE PUSH1 0x3 DUP7 MSTORE SWAP3 KECCAK256 DUP1 SLOAD PUSH2 0x19B SWAP1 DUP4 SWAP1 PUSH2 0x6FE JUMP JUMPDEST SWAP1 SSTORE DUP3 MLOAD SWAP1 DUP2 MSTORE PUSH32 0xDDF252AD1BE2C89B69C2B068FC378DAA952BA7F163C4A11628F55A4DF523B3EF DUP5 CALLER SWAP3 LOG3 MLOAD PUSH1 0x1 DUP2 MSTORE RETURN JUMPDEST DUP4 MLOAD PUSH4 0x1E9ACF17 PUSH1 0xE3 SHL DUP2 MSTORE REVERT JUMPDEST DUP1 REVERT JUMPDEST POP SWAP2 SWAP1 CALLVALUE PUSH2 0x12B JUMPI DUP2 PUSH1 0x3 NOT CALLDATASIZE ADD SLT PUSH2 0x12B JUMPI DUP1 MLOAD SWAP1 DUP3 PUSH1 0x1 DUP1 SLOAD SWAP1 DUP2 DUP2 SHR SWAP1 DUP1 DUP4 AND SWAP3 DUP4 ISZERO PUSH2 0x2F6 JUMPI JUMPDEST PUSH1 0x20 SWAP4 DUP5 DUP5 LT DUP2 EQ PUSH2 0x2E3 JUMPI DUP4 DUP9 MSTORE SWAP1 DUP2 ISZERO PUSH2 0x2C7 JUMPI POP PUSH1 0x1 EQ PUSH2 0x272 JUMPI JUMPDEST POP POP POP DUP3 SWAP1 SUB PUSH1 0x1F ADD PUSH1 0x1F NOT AND DUP3 ADD SWAP3 PUSH8 0xFFFFFFFFFFFFFFFF DUP5 GT DUP4 DUP6 LT OR PUSH2 0x25F JUMPI POP DUP3 SWAP2 DUP3 PUSH2 0x25B SWAP3 MSTORE DUP3 PUSH2 0x684 JUMP JUMPDEST SUB SWAP1 RETURN JUMPDEST PUSH4 0x4E487B71 PUSH1 0xE0 SHL DUP2 MSTORE PUSH1 0x41 DUP6 MSTORE PUSH1 0x24 SWAP1 REVERT JUMPDEST DUP1 DUP8 MSTORE SWAP2 SWAP3 POP DUP6 SWAP2 DUP4 PUSH32 0xB10E2D527612073B26EECDFD717E6A320CF44B4AFAC2B0732D9FCBE2B7FA0CF6 JUMPDEST DUP4 DUP6 LT PUSH2 0x2B3 JUMPI POP POP POP POP DUP4 ADD ADD CODESIZE DUP1 DUP1 PUSH2 0x229 JUMP JUMPDEST DUP1 SLOAD DUP9 DUP7 ADD DUP4 ADD MSTORE SWAP4 ADD SWAP3 DUP5 SWAP1 DUP3 ADD PUSH2 0x29D JUMP JUMPDEST PUSH1 0xFF NOT AND DUP8 DUP6 ADD MSTORE POP POP ISZERO ISZERO PUSH1 0x5 SHL DUP5 ADD ADD SWAP1 POP CODESIZE DUP1 DUP1 PUSH2 0x229 JUMP JUMPDEST PUSH4 0x4E487B71 PUSH1 0xE0 SHL DUP10 MSTORE PUSH1 0x22 DUP11 MSTORE PUSH1 0x24 DUP10 REVERT JUMPDEST SWAP2 PUSH1 0x7F AND SWAP2 PUSH2 0x20A JUMP JUMPDEST POP POP CALLVALUE PUSH2 0x12B JUMPI PUSH1 0x20 CALLDATASIZE PUSH1 0x3 NOT ADD SLT PUSH2 0x12B JUMPI PUSH1 0x20 SWAP2 DUP2 SWAP1 PUSH1 0x1 PUSH1 0x1 PUSH1 0xA0 SHL SUB PUSH2 0x328 PUSH2 0x6CD JUMP JUMPDEST AND DUP2 MSTORE PUSH1 0x3 DUP5 MSTORE KECCAK256 SLOAD SWAP1 MLOAD SWAP1 DUP2 MSTORE RETURN JUMPDEST POP CALLVALUE PUSH2 0xE3 JUMPI DUP2 PUSH1 0x3 NOT CALLDATASIZE ADD SLT PUSH2 0xE3 JUMPI PUSH2 0x351 PUSH2 0x6CD JUMP JUMPDEST PUSH1 0x24 CALLDATALOAD SWAP2 PUSH1 0x1 PUSH1 0x1 PUSH1 0xA0 SHL SUB SWAP2 SWAP1 PUSH32 0x0 DUP4 AND CALLER SUB PUSH2 0x3E0 JUMPI POP DUP5 SWAP3 PUSH32 0xDDF252AD1BE2C89B69C2B068FC378DAA952BA7F163C4A11628F55A4DF523B3EF SWAP3 PUSH1 0x20 SWAP3 AND SWAP5 DUP6 DUP6 MSTORE PUSH1 0x3 DUP4 MSTORE DUP1 DUP6 KECCAK256 PUSH2 0x3C7 DUP4 DUP3 SLOAD PUSH2 0x6FE JUMP JUMPDEST SWAP1 SSTORE PUSH2 0x3D5 DUP3 PUSH1 0x2 SLOAD PUSH2 0x6FE JUMP JUMPDEST PUSH1 0x2 SSTORE MLOAD SWAP1 DUP2 MSTORE LOG3 DUP1 RETURN JUMPDEST DUP5 MLOAD PUSH4 0x636A157 PUSH1 0xE1 SHL DUP2 MSTORE REVERT JUMPDEST POP POP CALLVALUE PUSH2 0x12B JUMPI DUP2 PUSH1 0x3 NOT CALLDATASIZE ADD SLT PUSH2 0x12B JUMPI PUSH1 0x20 SWAP1 MLOAD PUSH1 0x12 DUP2 MSTORE RETURN JUMPDEST POP SWAP2 CALLVALUE PUSH2 0x1DC JUMPI PUSH1 0x60 CALLDATASIZE PUSH1 0x3 NOT ADD SLT PUSH2 0x1DC JUMPI PUSH2 0x425 PUSH2 0x6CD JUMP JUMPDEST PUSH2 0x42D PUSH2 0x6E8 JUMP JUMPDEST SWAP1 PUSH1 0x44 CALLDATALOAD SWAP1 PUSH1 0x1 DUP1 PUSH1 0xA0 SHL SUB DUP1 SWAP2 AND SWAP3 DUP4 DUP6 MSTORE PUSH1 0x20 SWAP7 PUSH1 0x3 DUP9 MSTORE DUP4 DUP8 DUP8 KECCAK256 SLOAD LT PUSH2 0x4F6 JUMPI DUP5 DUP7 MSTORE DUP1 DUP9 MSTORE DUP7 DUP7 KECCAK256 CALLER DUP8 MSTORE DUP9 MSTORE DUP4 DUP8 DUP8 KECCAK256 SLOAD LT PUSH2 0x4E8 JUMPI DUP8 SWAP3 PUSH32 0xDDF252AD1BE2C89B69C2B068FC378DAA952BA7F163C4A11628F55A4DF523B3EF SWAP5 SWAP3 DUP9 SWAP3 DUP8 DUP10 MSTORE PUSH1 0x3 DUP7 MSTORE DUP4 DUP10 KECCAK256 PUSH2 0x4A5 DUP7 DUP3 SLOAD PUSH2 0x721 JUMP JUMPDEST SWAP1 SSTORE DUP8 DUP10 MSTORE DUP6 MSTORE DUP3 DUP9 KECCAK256 CALLER DUP10 MSTORE DUP6 MSTORE DUP3 DUP9 KECCAK256 PUSH2 0x4C2 DUP6 DUP3 SLOAD PUSH2 0x721 JUMP JUMPDEST SWAP1 SSTORE AND SWAP6 DUP7 DUP2 MSTORE PUSH1 0x3 DUP5 MSTORE KECCAK256 PUSH2 0x4D9 DUP3 DUP3 SLOAD PUSH2 0x6FE JUMP JUMPDEST SWAP1 SSTORE DUP6 MLOAD SWAP1 DUP2 MSTORE LOG3 MLOAD PUSH1 0x1 DUP2 MSTORE RETURN JUMPDEST DUP7 MLOAD PUSH4 0x13BE252B PUSH1 0xE0 SHL DUP2 MSTORE REVERT JUMPDEST DUP7 MLOAD PUSH4 0x1E9ACF17 PUSH1 0xE3 SHL DUP2 MSTORE REVERT JUMPDEST POP POP CALLVALUE PUSH2 0x12B JUMPI DUP2 PUSH1 0x3 NOT CALLDATASIZE ADD SLT PUSH2 0x12B JUMPI PUSH1 0x20 SWAP1 PUSH1 0x2 SLOAD SWAP1 MLOAD SWAP1 DUP2 MSTORE RETURN JUMPDEST POP CALLVALUE PUSH2 0xE3 JUMPI DUP2 PUSH1 0x3 NOT CALLDATASIZE ADD SLT PUSH2 0xE3 JUMPI PUSH1 0x20 SWAP3 PUSH2 0x53F PUSH2 0x6CD JUMP JUMPDEST SWAP2 DUP4 PUSH1 0x24 CALLDATALOAD SWAP3 DUP4 SWAP3 CALLER DUP3 MSTORE DUP8 MSTORE DUP2 DUP2 KECCAK256 SWAP5 PUSH1 0x1 DUP1 PUSH1 0xA0 SHL SUB AND SWAP5 DUP6 DUP3 MSTORE DUP8 MSTORE KECCAK256 SSTORE DUP3 MLOAD SWAP1 DUP2 MSTORE PUSH32 0x8C5BE1E5EBEC7D5BD14F71427D1E84F3DD0314C0F7B2291E5B200AC8C7C3B925 DUP5 CALLER SWAP3 LOG3 MLOAD PUSH1 0x1 DUP2 MSTORE RETURN JUMPDEST DUP5 SWAP2 POP DUP4 CALLVALUE PUSH2 0xE3 JUMPI DUP3 PUSH1 0x3 NOT CALLDATASIZE ADD SLT PUSH2 0xE3 JUMPI DUP3 DUP4 SLOAD PUSH1 0x1 DUP2 DUP2 SHR SWAP1 DUP1 DUP4 AND SWAP3 DUP4 ISZERO PUSH2 0x67A JUMPI JUMPDEST PUSH1 0x20 SWAP4 DUP5 DUP5 LT DUP2 EQ PUSH2 0x2E3 JUMPI DUP4 DUP9 MSTORE SWAP1 DUP2 ISZERO PUSH2 0x65E JUMPI POP PUSH1 0x1 EQ PUSH2 0x609 JUMPI POP POP POP DUP3 SWAP1 SUB PUSH1 0x1F ADD PUSH1 0x1F NOT AND DUP3 ADD SWAP3 PUSH8 0xFFFFFFFFFFFFFFFF DUP5 GT DUP4 DUP6 LT OR PUSH2 0x25F JUMPI POP DUP3 SWAP2 DUP3 PUSH2 0x25B SWAP3 MSTORE DUP3 PUSH2 0x684 JUMP JUMPDEST DUP7 DUP1 MSTORE SWAP2 SWAP3 POP DUP6 SWAP2 DUP4 PUSH32 0x290DECD9548B62A8D60345A988386FC84BA6BC95484008F6362F93160EF3E563 JUMPDEST DUP4 DUP6 LT PUSH2 0x64A JUMPI POP POP POP POP DUP4 ADD ADD DUP6 DUP1 DUP1 PUSH2 0x229 JUMP JUMPDEST DUP1 SLOAD DUP9 DUP7 ADD DUP4 ADD MSTORE SWAP4 ADD SWAP3 DUP5 SWAP1 DUP3 ADD PUSH2 0x634 JUMP JUMPDEST PUSH1 0xFF NOT AND DUP8 DUP6 ADD MSTORE POP POP ISZERO ISZERO PUSH1 0x5 SHL DUP5 ADD ADD SWAP1 POP DUP6 DUP1 DUP1 PUSH2 0x229 JUMP JUMPDEST SWAP2 PUSH1 0x7F AND SWAP2 PUSH2 0x5B9 JUMP JUMPDEST PUSH1 0x20 DUP1 DUP3 MSTORE DUP3 MLOAD DUP2 DUP4 ADD DUP2 SWAP1 MSTORE SWAP1 SWAP4 SWAP3 PUSH1 0x0 JUMPDEST DUP3 DUP2 LT PUSH2 0x6B9 JUMPI POP POP PUSH1 0x40 SWAP3 SWAP4 POP PUSH1 0x0 DUP4 DUP3 DUP5 ADD ADD MSTORE PUSH1 0x1F DUP1 NOT SWAP2 ADD AND ADD ADD SWAP1 JUMP JUMPDEST DUP2 DUP2 ADD DUP7 ADD MLOAD DUP5 DUP3 ADD PUSH1 0x40 ADD MSTORE DUP6 ADD PUSH2 0x697 JUMP JUMPDEST PUSH1 0x4 CALLDATALOAD SWAP1 PUSH1 0x1 PUSH1 0x1 PUSH1 0xA0 SHL SUB DUP3 AND DUP3 SUB PUSH2 0x6E3 JUMPI JUMP JUMPDEST PUSH1 0x0 DUP1 REVERT JUMPDEST PUSH1 0x24 CALLDATALOAD SWAP1 PUSH1 0x1 PUSH1 0x1 PUSH1 0xA0 SHL SUB DUP3 AND DUP3 SUB PUSH2 0x6E3 JUMPI JUMP JUMPDEST SWAP2 SWAP1 DUP3 ADD DUP1 SWAP3 GT PUSH2 0x70B JUMPI JUMP JUMPDEST PUSH4 0x4E487B71 PUSH1 0xE0 SHL PUSH1 0x0 MSTORE PUSH1 0x11 PUSH1 0x4 MSTORE PUSH1 0x24 PUSH1 0x0 REVERT JUMPDEST SWAP2 SWAP1 DUP3 SUB SWAP2 DUP3 GT PUSH2 0x70B JUMPI JUMP INVALID LOG2 PUSH5 0x6970667358 0x22 SLT KECCAK256 0xBA SWAP4 PUSH21 0x15F3E276274ECA1B73970CB2699D39E197E269C15D 0xC0 0xDF 0xB8 0xEB 0xA8 MSTORE DUP3 SHL PUSH5 0x736F6C6343 STOP ADDMOD EQ STOP CALLER 0xDD CALLCODE MSTORE 0xAD SHL 0xE2 0xC8 SWAP12 PUSH10 0xC2B068FC378DAA952BA7 CALL PUSH4 0xC4A11628 CREATE2 GAS 0x4D CREATE2 0x23 0xB3 0xEF LOG2 PUSH5 0x6970667358 0x22 SLT KECCAK256 SWAP16 0xC5 0xA8 PUSH2 0xA902 ISZERO 0xD6 STOP SWAP3 0xC MOD SWAP5 0xB7 NOT SWAP1 MOD MSIZE PUSH28 0xC45761D26BAF26608534CD35A564736F6C6343000814003300000000 "},"methodIdentifiers":{"BPS_DENOMINATOR()":"e1a45218","DEAD_ADDRESS()":"4e6fd6c4","REFERRAL_FEE_BPS()":"9d72265e","R_TOKEN_RESERVE()":"208597b0","TRADE_FEE_BPS()":"9185f598","V_ETH_RESERVE()":"995c86d5","V_TOKEN_RESERVE()":"b1a51f35","WETH()":"ad5c4648","allTokens(uint256)":"634282af","buyToken(address,address)":"5ee6cc38","createFee()":"b2db919b","getAmountIn(address,uint256)":"632db21c","getAmountOut(address,uint256)":"ca706bcf","getCurrentPrice(address)":"84cc315b","getMigrationProgress(address)":"c8a1d06e","launchToken(string,string,address)":"94b4cd0a","migrationThreshold()":"90bc1e85","owner()":"8da5cb5b","renounceOwnership()":"715018a6","sellToken(address,uint256,address)":"55a97632","setCreateFee(uint256)":"62914849","setMigrationThreshold(uint256)":"ca92a91b","setRouter(address)":"c0d78655","setTreasuryWallet(address)":"a8602fea","tokens(address)":"e4860339","totalTokensLaunched()":"9e1e213e","transferOwnership(address)":"f2fde38b","treasuryWallet()":"4626402b","uniswapRouter()":"735de9f7","updateReserves(uint256,uint256,uint256)":"6148813c"}}}}}