{"contracts/bonding-curve/SelsipadBCToken.sol":{"SelsipadBCToken":{"abi":[{"inputs":[{"internalType":"string","name":"_name","type":"string"},{"internalType":"string","name":"_symbol","type":"string"},{"internalType":"address","name":"_creator","type":"address"}],"stateMutability":"nonpayable","type":"constructor"},{"inputs":[],"name":"InsufficientAllowance","type":"error"},{"inputs":[],"name":"InsufficientBalance","type":"error"},{"inputs":[],"name":"OnlyFactory","type":"error"},{"anonymous":false,"inputs":[{"indexed":true,"internalType":"address","name":"owner","type":"address"},{"indexed":true,"internalType":"address","name":"spender","type":"address"},{"indexed":false,"internalType":"uint256","name":"value","type":"uint256"}],"name":"Approval","type":"event"},{"anonymous":false,"inputs":[{"indexed":true,"internalType":"address","name":"from","type":"address"},{"indexed":true,"internalType":"address","name":"to","type":"address"},{"indexed":false,"internalType":"uint256","name":"value","type":"uint256"}],"name":"Transfer","type":"event"},{"inputs":[{"internalType":"address","name":"","type":"address"},{"internalType":"address","name":"","type":"address"}],"name":"allowance","outputs":[{"internalType":"uint256","name":"","type":"uint256"}],"stateMutability":"view","type":"function"},{"inputs":[{"internalType":"address","name":"spender","type":"address"},{"internalType":"uint256","name":"amount","type":"uint256"}],"name":"approve","outputs":[{"internalType":"bool","name":"","type":"bool"}],"stateMutability":"nonpayable","type":"function"},{"inputs":[{"internalType":"address","name":"","type":"address"}],"name":"balanceOf","outputs":[{"internalType":"uint256","name":"","type":"uint256"}],"stateMutability":"view","type":"function"},{"inputs":[],"name":"decimals","outputs":[{"internalType":"uint8","name":"","type":"uint8"}],"stateMutability":"view","type":"function"},{"inputs":[],"name":"factory","outputs":[{"internalType":"address","name":"","type":"address"}],"stateMutability":"view","type":"function"},{"inputs":[{"internalType":"address","name":"to","type":"address"},{"internalType":"uint256","name":"amount","type":"uint256"}],"name":"mintFromFactory","outputs":[],"stateMutability":"nonpayable","type":"function"},{"inputs":[],"name":"name","outputs":[{"internalType":"string","name":"","type":"string"}],"stateMutability":"view","type":"function"},{"inputs":[],"name":"symbol","outputs":[{"internalType":"string","name":"","type":"string"}],"stateMutability":"view","type":"function"},{"inputs":[],"name":"totalSupply","outputs":[{"internalType":"uint256","name":"","type":"uint256"}],"stateMutability":"view","type":"function"},{"inputs":[{"internalType":"address","name":"to","type":"address"},{"internalType":"uint256","name":"amount","type":"uint256"}],"name":"transfer","outputs":[{"internalType":"bool","name":"","type":"bool"}],"stateMutability":"nonpayable","type":"function"},{"inputs":[{"internalType":"address","name":"from","type":"address"},{"internalType":"address","name":"to","type":"address"},{"internalType":"uint256","name":"amount","type":"uint256"}],"name":"transferFrom","outputs":[{"internalType":"bool","name":"","type":"bool"}],"stateMutability":"nonpayable","type":"function"}],"evm":{"bytecode":{"linkReferences":{},"object":"60a060405234620003a35762000bf1803803806200001d81620003a8565b9283398101606082820312620003a35781516001600160401b039290838111620003a357826200004f918301620003ce565b9160209081830151858111620003a3576040916200006f918501620003ce565b9201516001600160a01b0381169390849003620003a35780518581116200038d576000938454916001938484811c9416801562000382575b868510146200036e578190601f948581116200031b575b508690858311600114620002b7578892620002ab575b5050600019600383901b1c191690841b1785555b8051968711620002975782548381811c911680156200028c575b85821014620002785782811162000230575b5083918711600114620001ba5795809185969760008051602062000bd18339815191529692620001ae575b5050600019600383901b1c191690821b1790555b3360805283835260038152604083206200016e815462000440565b90556200017d60025462000440565b600255604051670de0b6b3a76400008152a360405161076490816200046d823960805181818160fc01526103610152f35b0151905038806200013f565b8285528385209190601f198816865b8181106200021a5750918493918960008051602062000bd183398151915298999a941062000200575b505050811b01905562000153565b015160001960f88460031b161c19169055388080620001f2565b82840151855593850193928601928601620001c9565b83865284862083808a0160051c820192878b106200026e575b0160051c019084905b8281106200026257505062000114565b87815501849062000252565b9250819262000249565b634e487b7160e01b86526022600452602486fd5b90607f169062000102565b634e487b7160e01b85526041600452602485fd5b015190503880620000d4565b8880528789208794509190601f1984168a5b8a828210620003045750508411620002ea575b505050811b018555620000e8565b015160001960f88460031b161c19169055388080620002dc565b8385015186558a97909501949384019301620002c9565b9091508780528688208580850160051c82019289861062000364575b918891869594930160051c01915b82811062000355575050620000be565b8a815585945088910162000345565b9250819262000337565b634e487b7160e01b87526022600452602487fd5b93607f1693620000a7565b634e487b7160e01b600052604160045260246000fd5b600080fd5b6040519190601f01601f191682016001600160401b038111838210176200038d57604052565b919080601f84011215620003a35782516001600160401b0381116200038d5760209062000404601f8201601f19168301620003a8565b92818452828287010111620003a35760005b8181106200042c57508260009394955001015290565b858101830151848201840152820162000416565b90670de0b6b3a764000082018092116200045657565b634e487b7160e01b600052601160045260246000fdfe6080604081815260048036101561001557600080fd5b600092833560e01c90816306fdde031461059157508063095ea7b31461052357806318160ddd1461050457806323b872dd1461040a578063313ce567146103ee57806364a7102b1461033857806370a082311461030057806395d89b41146101df578063a9059cbb1461012f578063c45a0155146100e75763dd62ed3e1461009c57600080fd5b346100e357816003193601126100e35760209282916100b96106cd565b6100c16106e8565b6001600160a01b03918216845291865283832091168252845220549051908152f35b8280fd5b50503461012b578160031936011261012b57517f00000000000000000000000000000000000000000000000000000000000000006001600160a01b03168152602090f35b5080fd5b5091346101dc57816003193601126101dc576101496106cd565b926024359033835260036020528184842054106101ce5750826020943384526003865281842061017a848254610721565b90556001600160a01b0316808452600386529220805461019b9083906106fe565b905582519081527fddf252ad1be2c89b69c2b068fc378daa952ba7f163c4a11628f55a4df523b3ef843392a35160018152f35b8351631e9acf1760e31b8152fd5b80fd5b5091903461012b578160031936011261012b5780519082600180549081811c908083169283156102f6575b60209384841081146102e3578388529081156102c75750600114610272575b505050829003601f01601f191682019267ffffffffffffffff84118385101761025f575082918261025b925282610684565b0390f35b634e487b7160e01b815260418552602490fd5b8087529192508591837fb10e2d527612073b26eecdfd717e6a320cf44b4afac2b0732d9fcbe2b7fa0cf65b8385106102b35750505050830101388080610229565b80548886018301529301928490820161029d565b60ff1916878501525050151560051b8401019050388080610229565b634e487b7160e01b895260228a52602489fd5b91607f169161020a565b50503461012b57602036600319011261012b5760209181906001600160a01b036103286106cd565b1681526003845220549051908152f35b50346100e357816003193601126100e3576103516106cd565b602435916001600160a01b0391907f0000000000000000000000000000000000000000000000000000000000000000831633036103e0575084927fddf252ad1be2c89b69c2b068fc378daa952ba7f163c4a11628f55a4df523b3ef926020921694858552600383528085206103c78382546106fe565b90556103d5826002546106fe565b60025551908152a380f35b8451630636a15760e11b8152fd5b50503461012b578160031936011261012b576020905160128152f35b5091346101dc5760603660031901126101dc576104256106cd565b61042d6106e8565b906044359060018060a01b0380911692838552602096600388528387872054106104f65784865280885286862033875288528387872054106104e85787927fddf252ad1be2c89b69c2b068fc378daa952ba7f163c4a11628f55a4df523b3ef94928892878952600386528389206104a5868254610721565b9055878952855282882033895285528288206104c2858254610721565b9055169586815260038452206104d98282546106fe565b90558551908152a35160018152f35b86516313be252b60e01b8152fd5b8651631e9acf1760e31b8152fd5b50503461012b578160031936011261012b576020906002549051908152f35b50346100e357816003193601126100e35760209261053f6106cd565b918360243592839233825287528181209460018060a01b0316948582528752205582519081527f8c5be1e5ebec7d5bd14f71427d1e84f3dd0314c0f7b2291e5b200ac8c7c3b925843392a35160018152f35b84915083346100e357826003193601126100e357828354600181811c9080831692831561067a575b60209384841081146102e35783885290811561065e575060011461060957505050829003601f01601f191682019267ffffffffffffffff84118385101761025f575082918261025b925282610684565b8680529192508591837f290decd9548b62a8d60345a988386fc84ba6bc95484008f6362f93160ef3e5635b83851061064a5750505050830101858080610229565b805488860183015293019284908201610634565b60ff1916878501525050151560051b8401019050858080610229565b91607f16916105b9565b6020808252825181830181905290939260005b8281106106b957505060409293506000838284010152601f8019910116010190565b818101860151848201604001528501610697565b600435906001600160a01b03821682036106e357565b600080fd5b602435906001600160a01b03821682036106e357565b9190820180921161070b57565b634e487b7160e01b600052601160045260246000fd5b9190820391821161070b5756fea2646970667358221220ba937415f3e276274eca1b73970cb2699d39e197e269c15dc0dfb8eba852821b64736f6c63430008140033ddf252ad1be2c89b69c2b068fc378daa952ba7f163c4a11628f55a4df523b3ef","opcodes":"PUSH1 0xA0 PUSH1 0x40 MSTORE CALLVALUE PUSH3 0x3A3 JUMPI PUSH3 0xBF1 DUP1 CODESIZE SUB DUP1 PUSH3 0x1D DUP2 PUSH3 0x3A8 JUMP JUMPDEST SWAP3 DUP4 CODECOPY DUP2 ADD PUSH1 0x60 DUP3 DUP3 SUB SLT PUSH3 0x3A3 JUMPI DUP2 MLOAD PUSH1 0x1 PUSH1 0x1 PUSH1 0x40 SHL SUB SWAP3 SWAP1 DUP4 DUP2 GT PUSH3 0x3A3 JUMPI DUP3 PUSH3 0x4F SWAP2 DUP4 ADD PUSH3 0x3CE JUMP JUMPDEST SWAP2 PUSH1 0x20 SWAP1 DUP2 DUP4 ADD MLOAD DUP6 DUP2 GT PUSH3 0x3A3 JUMPI PUSH1 0x40 SWAP2 PUSH3 0x6F SWAP2 DUP6 ADD PUSH3 0x3CE JUMP JUMPDEST SWAP3 ADD MLOAD PUSH1 0x1 PUSH1 0x1 PUSH1 0xA0 SHL SUB DUP2 AND SWAP4 SWAP1 DUP5 SWAP1 SUB PUSH3 0x3A3 JUMPI DUP1 MLOAD DUP6 DUP2 GT PUSH3 0x38D JUMPI PUSH1 0x0 SWAP4 DUP5 SLOAD SWAP2 PUSH1 0x1 SWAP4 DUP5 DUP5 DUP2 SHR SWAP5 AND DUP1 ISZERO PUSH3 0x382 JUMPI JUMPDEST DUP7 DUP6 LT EQ PUSH3 0x36E JUMPI DUP2 SWAP1 PUSH1 0x1F SWAP5 DUP6 DUP2 GT PUSH3 0x31B JUMPI JUMPDEST POP DUP7 SWAP1 DUP6 DUP4 GT PUSH1 0x1 EQ PUSH3 0x2B7 JUMPI DUP9 SWAP3 PUSH3 0x2AB JUMPI JUMPDEST POP POP PUSH1 0x0 NOT PUSH1 0x3 DUP4 SWAP1 SHL SHR NOT AND SWAP1 DUP5 SHL OR DUP6 SSTORE JUMPDEST DUP1 MLOAD SWAP7 DUP8 GT PUSH3 0x297 JUMPI DUP3 SLOAD DUP4 DUP2 DUP2 SHR SWAP2 AND DUP1 ISZERO PUSH3 0x28C JUMPI JUMPDEST DUP6 DUP3 LT EQ PUSH3 0x278 JUMPI DUP3 DUP2 GT PUSH3 0x230 JUMPI JUMPDEST POP DUP4 SWAP2 DUP8 GT PUSH1 0x1 EQ PUSH3 0x1BA JUMPI SWAP6 DUP1 SWAP2 DUP6 SWAP7 SWAP8 PUSH1 0x0 DUP1 MLOAD PUSH1 0x20 PUSH3 0xBD1 DUP4 CODECOPY DUP2 MLOAD SWAP2 MSTORE SWAP7 SWAP3 PUSH3 0x1AE JUMPI JUMPDEST POP POP PUSH1 0x0 NOT PUSH1 0x3 DUP4 SWAP1 SHL SHR NOT AND SWAP1 DUP3 SHL OR SWAP1 SSTORE JUMPDEST CALLER PUSH1 0x80 MSTORE DUP4 DUP4 MSTORE PUSH1 0x3 DUP2 MSTORE PUSH1 0x40 DUP4 KECCAK256 PUSH3 0x16E DUP2 SLOAD PUSH3 0x440 JUMP JUMPDEST SWAP1 SSTORE PUSH3 0x17D PUSH1 0x2 SLOAD PUSH3 0x440 JUMP JUMPDEST PUSH1 0x2 SSTORE PUSH1 0x40 MLOAD PUSH8 0xDE0B6B3A7640000 DUP2 MSTORE LOG3 PUSH1 0x40 MLOAD PUSH2 0x764 SWAP1 DUP2 PUSH3 0x46D DUP3 CODECOPY PUSH1 0x80 MLOAD DUP2 DUP2 DUP2 PUSH1 0xFC ADD MSTORE PUSH2 0x361 ADD MSTORE RETURN JUMPDEST ADD MLOAD SWAP1 POP CODESIZE DUP1 PUSH3 0x13F JUMP JUMPDEST DUP3 DUP6 MSTORE DUP4 DUP6 KECCAK256 SWAP2 SWAP1 PUSH1 0x1F NOT DUP9 AND DUP7 JUMPDEST DUP2 DUP2 LT PUSH3 0x21A JUMPI POP SWAP2 DUP5 SWAP4 SWAP2 DUP10 PUSH1 0x0 DUP1 MLOAD PUSH1 0x20 PUSH3 0xBD1 DUP4 CODECOPY DUP2 MLOAD SWAP2 MSTORE SWAP9 SWAP10 SWAP11 SWAP5 LT PUSH3 0x200 JUMPI JUMPDEST POP POP POP DUP2 SHL ADD SWAP1 SSTORE PUSH3 0x153 JUMP JUMPDEST ADD MLOAD PUSH1 0x0 NOT PUSH1 0xF8 DUP5 PUSH1 0x3 SHL AND SHR NOT AND SWAP1 SSTORE CODESIZE DUP1 DUP1 PUSH3 0x1F2 JUMP JUMPDEST DUP3 DUP5 ADD MLOAD DUP6 SSTORE SWAP4 DUP6 ADD SWAP4 SWAP3 DUP7 ADD SWAP3 DUP7 ADD PUSH3 0x1C9 JUMP JUMPDEST DUP4 DUP7 MSTORE DUP5 DUP7 KECCAK256 DUP4 DUP1 DUP11 ADD PUSH1 0x5 SHR DUP3 ADD SWAP3 DUP8 DUP12 LT PUSH3 0x26E JUMPI JUMPDEST ADD PUSH1 0x5 SHR ADD SWAP1 DUP5 SWAP1 JUMPDEST DUP3 DUP2 LT PUSH3 0x262 JUMPI POP POP PUSH3 0x114 JUMP JUMPDEST DUP8 DUP2 SSTORE ADD DUP5 SWAP1 PUSH3 0x252 JUMP JUMPDEST SWAP3 POP DUP2 SWAP3 PUSH3 0x249 JUMP JUMPDEST PUSH4 0x4E487B71 PUSH1 0xE0 SHL DUP7 MSTORE PUSH1 0x22 PUSH1 0x4 MSTORE PUSH1 0x24 DUP7 REVERT JUMPDEST SWAP1 PUSH1 0x7F AND SWAP1 PUSH3 0x102 JUMP JUMPDEST PUSH4 0x4E487B71 PUSH1 0xE0 SHL DUP6 MSTORE PUSH1 0x41 PUSH1 0x4 MSTORE PUSH1 0x24 DUP6 REVERT JUMPDEST ADD MLOAD SWAP1 POP CODESIZE DUP1 PUSH3 0xD4 JUMP JUMPDEST DUP9 DUP1 MSTORE DUP8 DUP10 KECCAK256 DUP8 SWAP5 POP SWAP2 SWAP1 PUSH1 0x1F NOT DUP5 AND DUP11 JUMPDEST DUP11 DUP3 DUP3 LT PUSH3 0x304 JUMPI POP POP DUP5 GT PUSH3 0x2EA JUMPI JUMPDEST POP POP POP DUP2 SHL ADD DUP6 SSTORE PUSH3 0xE8 JUMP JUMPDEST ADD MLOAD PUSH1 0x0 NOT PUSH1 0xF8 DUP5 PUSH1 0x3 SHL AND SHR NOT AND SWAP1 SSTORE CODESIZE DUP1 DUP1 PUSH3 0x2DC JUMP JUMPDEST DUP4 DUP6 ADD MLOAD DUP7 SSTORE DUP11 SWAP8 SWAP1 SWAP6 ADD SWAP5 SWAP4 DUP5 ADD SWAP4 ADD PUSH3 0x2C9 JUMP JUMPDEST SWAP1 SWAP2 POP DUP8 DUP1 MSTORE DUP7 DUP9 KECCAK256 DUP6 DUP1 DUP6 ADD PUSH1 0x5 SHR DUP3 ADD SWAP3 DUP10 DUP7 LT PUSH3 0x364 JUMPI JUMPDEST SWAP2 DUP9 SWAP2 DUP7 SWAP6 SWAP5 SWAP4 ADD PUSH1 0x5 SHR ADD SWAP2 JUMPDEST DUP3 DUP2 LT PUSH3 0x355 JUMPI POP POP PUSH3 0xBE JUMP JUMPDEST DUP11 DUP2 SSTORE DUP6 SWAP5 POP DUP9 SWAP2 ADD PUSH3 0x345 JUMP JUMPDEST SWAP3 POP DUP2 SWAP3 PUSH3 0x337 JUMP JUMPDEST PUSH4 0x4E487B71 PUSH1 0xE0 SHL DUP8 MSTORE PUSH1 0x22 PUSH1 0x4 MSTORE PUSH1 0x24 DUP8 REVERT JUMPDEST SWAP4 PUSH1 0x7F AND SWAP4 PUSH3 0xA7 JUMP JUMPDEST PUSH4 0x4E487B71 PUSH1 0xE0 SHL PUSH1 0x0 MSTORE PUSH1 0x41 PUSH1 0x4 MSTORE PUSH1 0x24 PUSH1 0x0 REVERT JUMPDEST PUSH1 0x0 DUP1 REVERT JUMPDEST PUSH1 0x40 MLOAD SWAP2 SWAP1 PUSH1 0x1F ADD PUSH1 0x1F NOT AND DUP3 ADD PUSH1 0x1 PUSH1 0x1 PUSH1 0x40 SHL SUB DUP2 GT DUP4 DUP3 LT OR PUSH3 0x38D JUMPI PUSH1 0x40 MSTORE JUMP JUMPDEST SWAP2 SWAP1 DUP1 PUSH1 0x1F DUP5 ADD SLT ISZERO PUSH3 0x3A3 JUMPI DUP3 MLOAD PUSH1 0x1 PUSH1 0x1 PUSH1 0x40 SHL SUB DUP2 GT PUSH3 0x38D JUMPI PUSH1 0x20 SWAP1 PUSH3 0x404 PUSH1 0x1F DUP3 ADD PUSH1 0x1F NOT AND DUP4 ADD PUSH3 0x3A8 JUMP JUMPDEST SWAP3 DUP2 DUP5 MSTORE DUP3 DUP3 DUP8 ADD ADD GT PUSH3 0x3A3 JUMPI PUSH1 0x0 JUMPDEST DUP2 DUP2 LT PUSH3 0x42C JUMPI POP DUP3 PUSH1 0x0 SWAP4 SWAP5 SWAP6 POP ADD ADD MSTORE SWAP1 JUMP JUMPDEST DUP6 DUP2 ADD DUP4 ADD MLOAD DUP5 DUP3 ADD DUP5 ADD MSTORE DUP3 ADD PUSH3 0x416 JUMP JUMPDEST SWAP1 PUSH8 0xDE0B6B3A7640000 DUP3 ADD DUP1 SWAP3 GT PUSH3 0x456 JUMPI JUMP JUMPDEST PUSH4 0x4E487B71 PUSH1 0xE0 SHL PUSH1 0x0 MSTORE PUSH1 0x11 PUSH1 0x4 MSTORE PUSH1 0x24 PUSH1 0x0 REVERT INVALID PUSH1 0x80 PUSH1 0x40 DUP2 DUP2 MSTORE PUSH1 0x4 DUP1 CALLDATASIZE LT ISZERO PUSH2 0x15 JUMPI PUSH1 0x0 DUP1 REVERT JUMPDEST PUSH1 0x0 SWAP3 DUP4 CALLDATALOAD PUSH1 0xE0 SHR SWAP1 DUP2 PUSH4 0x6FDDE03 EQ PUSH2 0x591 JUMPI POP DUP1 PUSH4 0x95EA7B3 EQ PUSH2 0x523 JUMPI DUP1 PUSH4 0x18160DDD EQ PUSH2 0x504 JUMPI DUP1 PUSH4 0x23B872DD EQ PUSH2 0x40A JUMPI DUP1 PUSH4 0x313CE567 EQ PUSH2 0x3EE JUMPI DUP1 PUSH4 0x64A7102B EQ PUSH2 0x338 JUMPI DUP1 PUSH4 0x70A08231 EQ PUSH2 0x300 JUMPI DUP1 PUSH4 0x95D89B41 EQ PUSH2 0x1DF JUMPI DUP1 PUSH4 0xA9059CBB EQ PUSH2 0x12F JUMPI DUP1 PUSH4 0xC45A0155 EQ PUSH2 0xE7 JUMPI PUSH4 0xDD62ED3E EQ PUSH2 0x9C JUMPI PUSH1 0x0 DUP1 REVERT JUMPDEST CALLVALUE PUSH2 0xE3 JUMPI DUP2 PUSH1 0x3 NOT CALLDATASIZE ADD SLT PUSH2 0xE3 JUMPI PUSH1 0x20 SWAP3 DUP3 SWAP2 PUSH2 0xB9 PUSH2 0x6CD JUMP JUMPDEST PUSH2 0xC1 PUSH2 0x6E8 JUMP JUMPDEST PUSH1 0x1 PUSH1 0x1 PUSH1 0xA0 SHL SUB SWAP2 DUP3 AND DUP5 MSTORE SWAP2 DUP7 MSTORE DUP4 DUP4 KECCAK256 SWAP2 AND DUP3 MSTORE DUP5 MSTORE KECCAK256 SLOAD SWAP1 MLOAD SWAP1 DUP2 MSTORE RETURN JUMPDEST DUP3 DUP1 REVERT JUMPDEST POP POP CALLVALUE PUSH2 0x12B JUMPI DUP2 PUSH1 0x3 NOT CALLDATASIZE ADD SLT PUSH2 0x12B JUMPI MLOAD PUSH32 0x0 PUSH1 0x1 PUSH1 0x1 PUSH1 0xA0 SHL SUB AND DUP2 MSTORE PUSH1 0x20 SWAP1 RETURN JUMPDEST POP DUP1 REVERT JUMPDEST POP SWAP2 CALLVALUE PUSH2 0x1DC JUMPI DUP2 PUSH1 0x3 NOT CALLDATASIZE ADD SLT PUSH2 0x1DC JUMPI PUSH2 0x149 PUSH2 0x6CD JUMP JUMPDEST SWAP3 PUSH1 0x24 CALLDATALOAD SWAP1 CALLER DUP4 MSTORE PUSH1 0x3 PUSH1 0x20 MSTORE DUP2 DUP5 DUP5 KECCAK256 SLOAD LT PUSH2 0x1CE JUMPI POP DUP3 PUSH1 0x20 SWAP5 CALLER DUP5 MSTORE PUSH1 0x3 DUP7 MSTORE DUP2 DUP5 KECCAK256 PUSH2 0x17A DUP5 DUP3 SLOAD PUSH2 0x721 JUMP JUMPDEST SWAP1 SSTORE PUSH1 0x1 PUSH1 0x1 PUSH1 0xA0 SHL SUB AND DUP1 DUP5 MSTORE PUSH1 0x3 DUP7 MSTORE SWAP3 KECCAK256 DUP1 SLOAD PUSH2 0x19B SWAP1 DUP4 SWAP1 PUSH2 0x6FE JUMP JUMPDEST SWAP1 SSTORE DUP3 MLOAD SWAP1 DUP2 MSTORE PUSH32 0xDDF252AD1BE2C89B69C2B068FC378DAA952BA7F163C4A11628F55A4DF523B3EF DUP5 CALLER SWAP3 LOG3 MLOAD PUSH1 0x1 DUP2 MSTORE RETURN JUMPDEST DUP4 MLOAD PUSH4 0x1E9ACF17 PUSH1 0xE3 SHL DUP2 MSTORE REVERT JUMPDEST DUP1 REVERT JUMPDEST POP SWAP2 SWAP1 CALLVALUE PUSH2 0x12B JUMPI DUP2 PUSH1 0x3 NOT CALLDATASIZE ADD SLT PUSH2 0x12B JUMPI DUP1 MLOAD SWAP1 DUP3 PUSH1 0x1 DUP1 SLOAD SWAP1 DUP2 DUP2 SHR SWAP1 DUP1 DUP4 AND SWAP3 DUP4 ISZERO PUSH2 0x2F6 JUMPI JUMPDEST PUSH1 0x20 SWAP4 DUP5 DUP5 LT DUP2 EQ PUSH2 0x2E3 JUMPI DUP4 DUP9 MSTORE SWAP1 DUP2 ISZERO PUSH2 0x2C7 JUMPI POP PUSH1 0x1 EQ PUSH2 0x272 JUMPI JUMPDEST POP POP POP DUP3 SWAP1 SUB PUSH1 0x1F ADD PUSH1 0x1F NOT AND DUP3 ADD SWAP3 PUSH8 0xFFFFFFFFFFFFFFFF DUP5 GT DUP4 DUP6 LT OR PUSH2 0x25F JUMPI POP DUP3 SWAP2 DUP3 PUSH2 0x25B SWAP3 MSTORE DUP3 PUSH2 0x684 JUMP JUMPDEST SUB SWAP1 RETURN JUMPDEST PUSH4 0x4E487B71 PUSH1 0xE0 SHL DUP2 MSTORE PUSH1 0x41 DUP6 MSTORE PUSH1 0x24 SWAP1 REVERT JUMPDEST DUP1 DUP8 MSTORE SWAP2 SWAP3 POP DUP6 SWAP2 DUP4 PUSH32 0xB10E2D527612073B26EECDFD717E6A320CF44B4AFAC2B0732D9FCBE2B7FA0CF6 JUMPDEST DUP4 DUP6 LT PUSH2 0x2B3 JUMPI POP POP POP POP DUP4 ADD ADD CODESIZE DUP1 DUP1 PUSH2 0x229 JUMP JUMPDEST DUP1 SLOAD DUP9 DUP7 ADD DUP4 ADD MSTORE SWAP4 ADD SWAP3 DUP5 SWAP1 DUP3 ADD PUSH2 0x29D JUMP JUMPDEST PUSH1 0xFF NOT AND DUP8 DUP6 ADD MSTORE POP POP ISZERO ISZERO PUSH1 0x5 SHL DUP5 ADD ADD SWAP1 POP CODESIZE DUP1 DUP1 PUSH2 0x229 JUMP JUMPDEST PUSH4 0x4E487B71 PUSH1 0xE0 SHL DUP10 MSTORE PUSH1 0x22 DUP11 MSTORE PUSH1 0x24 DUP10 REVERT JUMPDEST SWAP2 PUSH1 0x7F AND SWAP2 PUSH2 0x20A JUMP JUMPDEST POP POP CALLVALUE PUSH2 0x12B JUMPI PUSH1 0x20 CALLDATASIZE PUSH1 0x3 NOT ADD SLT PUSH2 0x12B JUMPI PUSH1 0x20 SWAP2 DUP2 SWAP1 PUSH1 0x1 PUSH1 0x1 PUSH1 0xA0 SHL SUB PUSH2 0x328 PUSH2 0x6CD JUMP JUMPDEST AND DUP2 MSTORE PUSH1 0x3 DUP5 MSTORE KECCAK256 SLOAD SWAP1 MLOAD SWAP1 DUP2 MSTORE RETURN JUMPDEST POP CALLVALUE PUSH2 0xE3 JUMPI DUP2 PUSH1 0x3 NOT CALLDATASIZE ADD SLT PUSH2 0xE3 JUMPI PUSH2 0x351 PUSH2 0x6CD JUMP JUMPDEST PUSH1 0x24 CALLDATALOAD SWAP2 PUSH1 0x1 PUSH1 0x1 PUSH1 0xA0 SHL SUB SWAP2 SWAP1 PUSH32 0x0 DUP4 AND CALLER SUB PUSH2 0x3E0 JUMPI POP DUP5 SWAP3 PUSH32 0xDDF252AD1BE2C89B69C2B068FC378DAA952BA7F163C4A11628F55A4DF523B3EF SWAP3 PUSH1 0x20 SWAP3 AND SWAP5 DUP6 DUP6 MSTORE PUSH1 0x3 DUP4 MSTORE DUP1 DUP6 KECCAK256 PUSH2 0x3C7 DUP4 DUP3 SLOAD PUSH2 0x6FE JUMP JUMPDEST SWAP1 SSTORE PUSH2 0x3D5 DUP3 PUSH1 0x2 SLOAD PUSH2 0x6FE JUMP JUMPDEST PUSH1 0x2 SSTORE MLOAD SWAP1 DUP2 MSTORE LOG3 DUP1 RETURN JUMPDEST DUP5 MLOAD PUSH4 0x636A157 PUSH1 0xE1 SHL DUP2 MSTORE REVERT JUMPDEST POP POP CALLVALUE PUSH2 0x12B JUMPI DUP2 PUSH1 0x3 NOT CALLDATASIZE ADD SLT PUSH2 0x12B JUMPI PUSH1 0x20 SWAP1 MLOAD PUSH1 0x12 DUP2 MSTORE RETURN JUMPDEST POP SWAP2 CALLVALUE PUSH2 0x1DC JUMPI PUSH1 0x60 CALLDATASIZE PUSH1 0x3 NOT ADD SLT PUSH2 0x1DC JUMPI PUSH2 0x425 PUSH2 0x6CD JUMP JUMPDEST PUSH2 0x42D PUSH2 0x6E8 JUMP JUMPDEST SWAP1 PUSH1 0x44 CALLDATALOAD SWAP1 PUSH1 0x1 DUP1 PUSH1 0xA0 SHL SUB DUP1 SWAP2 AND SWAP3 DUP4 DUP6 MSTORE PUSH1 0x20 SWAP7 PUSH1 0x3 DUP9 MSTORE DUP4 DUP8 DUP8 KECCAK256 SLOAD LT PUSH2 0x4F6 JUMPI DUP5 DUP7 MSTORE DUP1 DUP9 MSTORE DUP7 DUP7 KECCAK256 CALLER DUP8 MSTORE DUP9 MSTORE DUP4 DUP8 DUP8 KECCAK256 SLOAD LT PUSH2 0x4E8 JUMPI DUP8 SWAP3 PUSH32 0xDDF252AD1BE2C89B69C2B068FC378DAA952BA7F163C4A11628F55A4DF523B3EF SWAP5 SWAP3 DUP9 SWAP3 DUP8 DUP10 MSTORE PUSH1 0x3 DUP7 MSTORE DUP4 DUP10 KECCAK256 PUSH2 0x4A5 DUP7 DUP3 SLOAD PUSH2 0x721 JUMP JUMPDEST SWAP1 SSTORE DUP8 DUP10 MSTORE DUP6 MSTORE DUP3 DUP9 KECCAK256 CALLER DUP10 MSTORE DUP6 MSTORE DUP3 DUP9 KECCAK256 PUSH2 0x4C2 DUP6 DUP3 SLOAD PUSH2 0x721 JUMP JUMPDEST SWAP1 SSTORE AND SWAP6 DUP7 DUP2 MSTORE PUSH1 0x3 DUP5 MSTORE KECCAK256 PUSH2 0x4D9 DUP3 DUP3 SLOAD PUSH2 0x6FE JUMP JUMPDEST SWAP1 SSTORE DUP6 MLOAD SWAP1 DUP2 MSTORE LOG3 MLOAD PUSH1 0x1 DUP2 MSTORE RETURN JUMPDEST DUP7 MLOAD PUSH4 0x13BE252B PUSH1 0xE0 SHL DUP2 MSTORE REVERT JUMPDEST DUP7 MLOAD PUSH4 0x1E9ACF17 PUSH1 0xE3 SHL DUP2 MSTORE REVERT JUMPDEST POP POP CALLVALUE PUSH2 0x12B JUMPI DUP2 PUSH1 0x3 NOT CALLDATASIZE ADD SLT PUSH2 0x12B JUMPI PUSH1 0x20 SWAP1 PUSH1 0x2 SLOAD SWAP1 MLOAD SWAP1 DUP2 MSTORE RETURN JUMPDEST POP CALLVALUE PUSH2 0xE3 JUMPI DUP2 PUSH1 0x3 NOT CALLDATASIZE ADD SLT PUSH2 0xE3 JUMPI PUSH1 0x20 SWAP3 PUSH2 0x53F PUSH2 0x6CD JUMP JUMPDEST SWAP2 DUP4 PUSH1 0x24 CALLDATALOAD SWAP3 DUP4 SWAP3 CALLER DUP3 MSTORE DUP8 MSTORE DUP2 DUP2 KECCAK256 SWAP5 PUSH1 0x1 DUP1 PUSH1 0xA0 SHL SUB AND SWAP5 DUP6 DUP3 MSTORE DUP8 MSTORE KECCAK256 SSTORE DUP3 MLOAD SWAP1 DUP2 MSTORE PUSH32 0x8C5BE1E5EBEC7D5BD14F71427D1E84F3DD0314C0F7B2291E5B200AC8C7C3B925 DUP5 CALLER SWAP3 LOG3 MLOAD PUSH1 0x1 DUP2 MSTORE RETURN JUMPDEST DUP5 SWAP2 POP DUP4 CALLVALUE PUSH2 0xE3 JUMPI DUP3 PUSH1 0x3 NOT CALLDATASIZE ADD SLT PUSH2 0xE3 JUMPI DUP3 DUP4 SLOAD PUSH1 0x1 DUP2 DUP2 SHR SWAP1 DUP1 DUP4 AND SWAP3 DUP4 ISZERO PUSH2 0x67A JUMPI JUMPDEST PUSH1 0x20 SWAP4 DUP5 DUP5 LT DUP2 EQ PUSH2 0x2E3 JUMPI DUP4 DUP9 MSTORE SWAP1 DUP2 ISZERO PUSH2 0x65E JUMPI POP PUSH1 0x1 EQ PUSH2 0x609 JUMPI POP POP POP DUP3 SWAP1 SUB PUSH1 0x1F ADD PUSH1 0x1F NOT AND DUP3 ADD SWAP3 PUSH8 0xFFFFFFFFFFFFFFFF DUP5 GT DUP4 DUP6 LT OR PUSH2 0x25F JUMPI POP DUP3 SWAP2 DUP3 PUSH2 0x25B SWAP3 MSTORE DUP3 PUSH2 0x684 JUMP JUMPDEST DUP7 DUP1 MSTORE SWAP2 SWAP3 POP DUP6 SWAP2 DUP4 PUSH32 0x290DECD9548B62A8D60345A988386FC84BA6BC95484008F6362F93160EF3E563 JUMPDEST DUP4 DUP6 LT PUSH2 0x64A JUMPI POP POP POP POP DUP4 ADD ADD DUP6 DUP1 DUP1 PUSH2 0x229 JUMP JUMPDEST DUP1 SLOAD DUP9 DUP7 ADD DUP4 ADD MSTORE SWAP4 ADD SWAP3 DUP5 SWAP1 DUP3 ADD PUSH2 0x634 JUMP JUMPDEST PUSH1 0xFF NOT AND DUP8 DUP6 ADD MSTORE POP POP ISZERO ISZERO PUSH1 0x5 SHL DUP5 ADD ADD SWAP1 POP DUP6 DUP1 DUP1 PUSH2 0x229 JUMP JUMPDEST SWAP2 PUSH1 0x7F AND SWAP2 PUSH2 0x5B9 JUMP JUMPDEST PUSH1 0x20 DUP1 DUP3 MSTORE DUP3 MLOAD DUP2 DUP4 ADD DUP2 SWAP1 MSTORE SWAP1 SWAP4 SWAP3 PUSH1 0x0 JUMPDEST DUP3 DUP2 LT PUSH2 0x6B9 JUMPI POP POP PUSH1 0x40 SWAP3 SWAP4 POP PUSH1 0x0 DUP4 DUP3 DUP5 ADD ADD MSTORE PUSH1 0x1F DUP1 NOT SWAP2 ADD AND ADD ADD SWAP1 JUMP JUMPDEST DUP2 DUP2 ADD DUP7 ADD MLOAD DUP5 DUP3 ADD PUSH1 0x40 ADD MSTORE DUP6 ADD PUSH2 0x697 JUMP JUMPDEST PUSH1 0x4 CALLDATALOAD SWAP1 PUSH1 0x1 PUSH1 0x1 PUSH1 0xA0 SHL SUB DUP3 AND DUP3 SUB PUSH2 0x6E3 JUMPI JUMP JUMPDEST PUSH1 0x0 DUP1 REVERT JUMPDEST PUSH1 0x24 CALLDATALOAD SWAP1 PUSH1 0x1 PUSH1 0x1 PUSH1 0xA0 SHL SUB DUP3 AND DUP3 SUB PUSH2 0x6E3 JUMPI JUMP JUMPDEST SWAP2 SWAP1 DUP3 ADD DUP1 SWAP3 GT PUSH2 0x70B JUMPI JUMP JUMPDEST PUSH4 0x4E487B71 PUSH1 0xE0 SHL PUSH1 0x0 MSTORE PUSH1 0x11 PUSH1 0x4 MSTORE PUSH1 0x24 PUSH1 0x0 REVERT JUMPDEST SWAP2 SWAP1 DUP3 SUB SWAP2 DUP3 GT PUSH2 0x70B JUMPI JUMP INVALID LOG2 PUSH5 0x6970667358 0x22 SLT KECCAK256 0xBA SWAP4 PUSH21 0x15F3E276274ECA1B73970CB2699D39E197E269C15D 0xC0 0xDF 0xB8 0xEB 0xA8 MSTORE DUP3 SHL PUSH5 0x736F6C6343 STOP ADDMOD EQ STOP CALLER 0xDD CALLCODE MSTORE 0xAD SHL 0xE2 0xC8 SWAP12 PUSH10 0xC2B068FC378DAA952BA7 CALL PUSH4 0xC4A11628 CREATE2 GAS 0x4D CREATE2 0x23 0xB3 0xEF "},"methodIdentifiers":{"allowance(address,address)":"dd62ed3e","approve(address,uint256)":"095ea7b3","balanceOf(address)":"70a08231","decimals()":"313ce567","factory()":"c45a0155","mintFromFactory(address,uint256)":"64a7102b","name()":"06fdde03","symbol()":"95d89b41","totalSupply()":"18160ddd","transfer(address,uint256)":"a9059cbb","transferFrom(address,address,uint256)":"23b872dd"}}}}}