{"contracts/mocks/MockFeeSplitter.sol":{"MockFeeSplitter":{"abi":[{"anonymous":false,"inputs":[{"indexed":false,"internalType":"uint256","name":"amount","type":"uint256"}],"name":"FeeDistributed","type":"event"},{"anonymous":false,"inputs":[{"indexed":true,"internalType":"address","name":"presale","type":"address"}],"name":"PresaleRoleGranted","type":"event"},{"inputs":[{"internalType":"address","name":"fairlaunch","type":"address"}],"name":"distributeFairlaunchFee","outputs":[],"stateMutability":"payable","type":"function"},{"inputs":[],"name":"distributeFees","outputs":[],"stateMutability":"payable","type":"function"},{"inputs":[{"internalType":"address","name":"presale","type":"address"}],"name":"grantPresaleRole","outputs":[],"stateMutability":"nonpayable","type":"function"},{"inputs":[{"internalType":"address","name":"","type":"address"}],"name":"hasPresaleRole","outputs":[{"internalType":"bool","name":"","type":"bool"}],"stateMutability":"view","type":"function"},{"stateMutability":"payable","type":"receive"}],"evm":{"bytecode":{"linkReferences":{},"object":"60808060405234610016576101b9908161001c8239f35b600080fdfe608080604052600436101561001d575b50361561001b57600080fd5b005b600090813560e01c90816326f55c62146101415750806339650d1f146100f5578063417eb66c1461008d5763bb57ad200361000f578060031936011261008a577f65fbefa8a319bc4b53d3436a388ac60632281c1ce0b61c4d0d7d2dbd2ad44ec96020604051348152a180f35b80fd5b503461008a57602036600319011261008a576004356001600160a01b038116908190036100f1578082528160205260408220600160ff198254161790557fb84819af5c70c4dcebf5bfcffe270cb4b1b6f6ed4a1a54f7c38ddecaf3abb5aa8280a280f35b5080fd5b50602036600319011261008a576004356001600160a01b0381160361008a577f65fbefa8a319bc4b53d3436a388ac60632281c1ce0b61c4d0d7d2dbd2ad44ec96020604051348152a180f35b9050346100f15760203660031901126100f1576004356001600160a01b0381169081900361017f5760408360ff926020955280855220541615158152f35b8280fdfea26469706673582212203d9b9598d63c2d62c3b64c35bbd0a03703aa7e94b2d8099b0e61eabe138fbb6564736f6c63430008140033","opcodes":"PUSH1 0x80 DUP1 PUSH1 0x40 MSTORE CALLVALUE PUSH2 0x16 JUMPI PUSH2 0x1B9 SWAP1 DUP2 PUSH2 0x1C DUP3 CODECOPY RETURN JUMPDEST PUSH1 0x0 DUP1 REVERT INVALID PUSH1 0x80 DUP1 PUSH1 0x40 MSTORE PUSH1 0x4 CALLDATASIZE LT ISZERO PUSH2 0x1D JUMPI JUMPDEST POP CALLDATASIZE ISZERO PUSH2 0x1B JUMPI PUSH1 0x0 DUP1 REVERT JUMPDEST STOP JUMPDEST PUSH1 0x0 SWAP1 DUP2 CALLDATALOAD PUSH1 0xE0 SHR SWAP1 DUP2 PUSH4 0x26F55C62 EQ PUSH2 0x141 JUMPI POP DUP1 PUSH4 0x39650D1F EQ PUSH2 0xF5 JUMPI DUP1 PUSH4 0x417EB66C EQ PUSH2 0x8D JUMPI PUSH4 0xBB57AD20 SUB PUSH2 0xF JUMPI DUP1 PUSH1 0x3 NOT CALLDATASIZE ADD SLT PUSH2 0x8A JUMPI PUSH32 0x65FBEFA8A319BC4B53D3436A388AC60632281C1CE0B61C4D0D7D2DBD2AD44EC9 PUSH1 0x20 PUSH1 0x40 MLOAD CALLVALUE DUP2 MSTORE LOG1 DUP1 RETURN JUMPDEST DUP1 REVERT JUMPDEST POP CALLVALUE PUSH2 0x8A JUMPI PUSH1 0x20 CALLDATASIZE PUSH1 0x3 NOT ADD SLT PUSH2 0x8A JUMPI PUSH1 0x4 CALLDATALOAD PUSH1 0x1 PUSH1 0x1 PUSH1 0xA0 SHL SUB DUP2 AND SWAP1 DUP2 SWAP1 SUB PUSH2 0xF1 JUMPI DUP1 DUP3 MSTORE DUP2 PUSH1 0x20 MSTORE PUSH1 0x40 DUP3 KECCAK256 PUSH1 0x1 PUSH1 0xFF NOT DUP3 SLOAD AND OR SWAP1 SSTORE PUSH32 0xB84819AF5C70C4DCEBF5BFCFFE270CB4B1B6F6ED4A1A54F7C38DDECAF3ABB5AA DUP3 DUP1 LOG2 DUP1 RETURN JUMPDEST POP DUP1 REVERT JUMPDEST POP PUSH1 0x20 CALLDATASIZE PUSH1 0x3 NOT ADD SLT PUSH2 0x8A JUMPI PUSH1 0x4 CALLDATALOAD PUSH1 0x1 PUSH1 0x1 PUSH1 0xA0 SHL SUB DUP2 AND SUB PUSH2 0x8A JUMPI PUSH32 0x65FBEFA8A319BC4B53D3436A388AC60632281C1CE0B61C4D0D7D2DBD2AD44EC9 PUSH1 0x20 PUSH1 0x40 MLOAD CALLVALUE DUP2 MSTORE LOG1 DUP1 RETURN JUMPDEST SWAP1 POP CALLVALUE PUSH2 0xF1 JUMPI PUSH1 0x20 CALLDATASIZE PUSH1 0x3 NOT ADD SLT PUSH2 0xF1 JUMPI PUSH1 0x4 CALLDATALOAD PUSH1 0x1 PUSH1 0x1 PUSH1 0xA0 SHL SUB DUP2 AND SWAP1 DUP2 SWAP1 SUB PUSH2 0x17F JUMPI PUSH1 0x40 DUP4 PUSH1 0xFF SWAP3 PUSH1 0x20 SWAP6 MSTORE DUP1 DUP6 MSTORE KECCAK256 SLOAD AND ISZERO ISZERO DUP2 MSTORE RETURN JUMPDEST DUP3 DUP1 REVERT INVALID LOG2 PUSH5 0x6970667358 0x22 SLT KECCAK256 RETURNDATASIZE SWAP12 SWAP6 SWAP9 0xD6 EXTCODECOPY 0x2D PUSH3 0xC3B64C CALLDATALOAD 0xBB 0xD0 LOG0 CALLDATACOPY SUB 0xAA PUSH31 0x94B2D8099B0E61EABE138FBB6564736F6C6343000814003300000000000000 "},"methodIdentifiers":{"distributeFairlaunchFee(address)":"39650d1f","distributeFees()":"bb57ad20","grantPresaleRole(address)":"417eb66c","hasPresaleRole(address)":"26f55c62"}}}}}