{"contracts/mocks/UniversalRouterMock.sol":{"UniversalRouterMock":{"abi":[{"inputs":[],"name":"WETH","outputs":[{"internalType":"address","name":"","type":"address"}],"stateMutability":"view","type":"function"},{"inputs":[{"internalType":"address","name":"token","type":"address"},{"internalType":"uint256","name":"amountTokenDesired","type":"uint256"},{"internalType":"uint256","name":"amountTokenMin","type":"uint256"},{"internalType":"uint256","name":"amountETHMin","type":"uint256"},{"internalType":"address","name":"to","type":"address"},{"internalType":"uint256","name":"deadline","type":"uint256"}],"name":"addLiquidityETH","outputs":[{"internalType":"uint256","name":"amountToken","type":"uint256"},{"internalType":"uint256","name":"amountETH","type":"uint256"},{"internalType":"uint256","name":"liquidity","type":"uint256"}],"stateMutability":"payable","type":"function"},{"inputs":[{"internalType":"address","name":"","type":"address"},{"internalType":"uint256","name":"","type":"uint256"}],"name":"approve","outputs":[{"internalType":"bool","name":"","type":"bool"}],"stateMutability":"pure","type":"function"},{"inputs":[{"internalType":"address","name":"","type":"address"}],"name":"balanceOf","outputs":[{"internalType":"uint256","name":"","type":"uint256"}],"stateMutability":"pure","type":"function"},{"inputs":[],"name":"factory","outputs":[{"internalType":"address","name":"","type":"address"}],"stateMutability":"view","type":"function"},{"inputs":[{"internalType":"address","name":"","type":"address"},{"internalType":"address","name":"","type":"address"}],"name":"getPair","outputs":[{"internalType":"address","name":"","type":"address"}],"stateMutability":"view","type":"function"},{"inputs":[{"internalType":"bool","name":"_fail","type":"bool"}],"name":"setFail","outputs":[],"stateMutability":"nonpayable","type":"function"},{"inputs":[],"name":"shouldFail","outputs":[{"internalType":"bool","name":"","type":"bool"}],"stateMutability":"view","type":"function"},{"inputs":[{"internalType":"address","name":"","type":"address"},{"internalType":"uint256","name":"","type":"uint256"}],"name":"transfer","outputs":[{"internalType":"bool","name":"","type":"bool"}],"stateMutability":"pure","type":"function"},{"inputs":[{"internalType":"address","name":"","type":"address"},{"internalType":"address","name":"","type":"address"},{"internalType":"uint256","name":"","type":"uint256"}],"name":"transferFrom","outputs":[{"internalType":"bool","name":"","type":"bool"}],"stateMutability":"pure","type":"function"}],"evm":{"bytecode":{"linkReferences":{},"object":"60808060405234610016576102a8908161001c8239f35b600080fdfe604060808152600436101561001357600080fd5b6000803560e01c8063095ea7b31461014f57806323b872dd146101d2578063678d2204146101b057806370a08231146101825780639d76940214610154578063a9059cbb1461014f578063ad5c46481461014a578063c45a01551461014a578063e6a43905146101195763f305d7191461008c57600080fd5b60c0366003190112610116576100a0610201565b506084356001600160a01b03811603610116575460ff166100d35780606460609251916024358352346020840152820152f35b5162461bcd60e51b815260206004820152601960248201527f4465784164644c697175696469747943616c6c4661696c6564000000000000006044820152606490fd5b80fd5b509034610146578060031936011261014657602090610136610201565b5061013f61021c565b5051308152f35b5080fd5b610257565b610232565b5034610116576020366003190112610116576004358015158091036101465760ff8019835416911617815580f35b509034610146576020366003190112610146576020906101a0610201565b5051683635c9adc5dea000008152f35b50903461014657816003193601126101465760ff602092541690519015158152f35b509034610146576060366003190112610146576020906101f0610201565b506101f961021c565b505160018152f35b600435906001600160a01b038216820361021757565b600080fd5b602435906001600160a01b038216820361021757565b346102175760403660031901126102175761024b610201565b50602060405160018152f35b34610217576000366003190112610217576020604051308152f3fea2646970667358221220b03a31a115d5c8c0e2d7d56b5d7aa544906664f5cc19209c0907e2111b6f778d64736f6c63430008140033","opcodes":"PUSH1 0x80 DUP1 PUSH1 0x40 MSTORE CALLVALUE PUSH2 0x16 JUMPI PUSH2 0x2A8 SWAP1 DUP2 PUSH2 0x1C DUP3 CODECOPY RETURN JUMPDEST PUSH1 0x0 DUP1 REVERT INVALID PUSH1 0x40 PUSH1 0x80 DUP2 MSTORE PUSH1 0x4 CALLDATASIZE LT ISZERO PUSH2 0x13 JUMPI PUSH1 0x0 DUP1 REVERT JUMPDEST PUSH1 0x0 DUP1 CALLDATALOAD PUSH1 0xE0 SHR DUP1 PUSH4 0x95EA7B3 EQ PUSH2 0x14F JUMPI DUP1 PUSH4 0x23B872DD EQ PUSH2 0x1D2 JUMPI DUP1 PUSH4 0x678D2204 EQ PUSH2 0x1B0 JUMPI DUP1 PUSH4 0x70A08231 EQ PUSH2 0x182 JUMPI DUP1 PUSH4 0x9D769402 EQ PUSH2 0x154 JUMPI DUP1 PUSH4 0xA9059CBB EQ PUSH2 0x14F JUMPI DUP1 PUSH4 0xAD5C4648 EQ PUSH2 0x14A JUMPI DUP1 PUSH4 0xC45A0155 EQ PUSH2 0x14A JUMPI DUP1 PUSH4 0xE6A43905 EQ PUSH2 0x119 JUMPI PUSH4 0xF305D719 EQ PUSH2 0x8C JUMPI PUSH1 0x0 DUP1 REVERT JUMPDEST PUSH1 0xC0 CALLDATASIZE PUSH1 0x3 NOT ADD SLT PUSH2 0x116 JUMPI PUSH2 0xA0 PUSH2 0x201 JUMP JUMPDEST POP PUSH1 0x84 CALLDATALOAD PUSH1 0x1 PUSH1 0x1 PUSH1 0xA0 SHL SUB DUP2 AND SUB PUSH2 0x116 JUMPI SLOAD PUSH1 0xFF AND PUSH2 0xD3 JUMPI DUP1 PUSH1 0x64 PUSH1 0x60 SWAP3 MLOAD SWAP2 PUSH1 0x24 CALLDATALOAD DUP4 MSTORE CALLVALUE PUSH1 0x20 DUP5 ADD MSTORE DUP3 ADD MSTORE RETURN JUMPDEST MLOAD PUSH3 0x461BCD PUSH1 0xE5 SHL DUP2 MSTORE PUSH1 0x20 PUSH1 0x4 DUP3 ADD MSTORE PUSH1 0x19 PUSH1 0x24 DUP3 ADD MSTORE PUSH32 0x4465784164644C697175696469747943616C6C4661696C656400000000000000 PUSH1 0x44 DUP3 ADD MSTORE PUSH1 0x64 SWAP1 REVERT JUMPDEST DUP1 REVERT JUMPDEST POP SWAP1 CALLVALUE PUSH2 0x146 JUMPI DUP1 PUSH1 0x3 NOT CALLDATASIZE ADD SLT PUSH2 0x146 JUMPI PUSH1 0x20 SWAP1 PUSH2 0x136 PUSH2 0x201 JUMP JUMPDEST POP PUSH2 0x13F PUSH2 0x21C JUMP JUMPDEST POP MLOAD ADDRESS DUP2 MSTORE RETURN JUMPDEST POP DUP1 REVERT JUMPDEST PUSH2 0x257 JUMP JUMPDEST PUSH2 0x232 JUMP JUMPDEST POP CALLVALUE PUSH2 0x116 JUMPI PUSH1 0x20 CALLDATASIZE PUSH1 0x3 NOT ADD SLT PUSH2 0x116 JUMPI PUSH1 0x4 CALLDATALOAD DUP1 ISZERO ISZERO DUP1 SWAP2 SUB PUSH2 0x146 JUMPI PUSH1 0xFF DUP1 NOT DUP4 SLOAD AND SWAP2 AND OR DUP2 SSTORE DUP1 RETURN JUMPDEST POP SWAP1 CALLVALUE PUSH2 0x146 JUMPI PUSH1 0x20 CALLDATASIZE PUSH1 0x3 NOT ADD SLT PUSH2 0x146 JUMPI PUSH1 0x20 SWAP1 PUSH2 0x1A0 PUSH2 0x201 JUMP JUMPDEST POP MLOAD PUSH9 0x3635C9ADC5DEA00000 DUP2 MSTORE RETURN JUMPDEST POP SWAP1 CALLVALUE PUSH2 0x146 JUMPI DUP2 PUSH1 0x3 NOT CALLDATASIZE ADD SLT PUSH2 0x146 JUMPI PUSH1 0xFF PUSH1 0x20 SWAP3 SLOAD AND SWAP1 MLOAD SWAP1 ISZERO ISZERO DUP2 MSTORE RETURN JUMPDEST POP SWAP1 CALLVALUE PUSH2 0x146 JUMPI PUSH1 0x60 CALLDATASIZE PUSH1 0x3 NOT ADD SLT PUSH2 0x146 JUMPI PUSH1 0x20 SWAP1 PUSH2 0x1F0 PUSH2 0x201 JUMP JUMPDEST POP PUSH2 0x1F9 PUSH2 0x21C JUMP JUMPDEST POP MLOAD PUSH1 0x1 DUP2 MSTORE RETURN JUMPDEST PUSH1 0x4 CALLDATALOAD SWAP1 PUSH1 0x1 PUSH1 0x1 PUSH1 0xA0 SHL SUB DUP3 AND DUP3 SUB PUSH2 0x217 JUMPI JUMP JUMPDEST PUSH1 0x0 DUP1 REVERT JUMPDEST PUSH1 0x24 CALLDATALOAD SWAP1 PUSH1 0x1 PUSH1 0x1 PUSH1 0xA0 SHL SUB DUP3 AND DUP3 SUB PUSH2 0x217 JUMPI JUMP JUMPDEST CALLVALUE PUSH2 0x217 JUMPI PUSH1 0x40 CALLDATASIZE PUSH1 0x3 NOT ADD SLT PUSH2 0x217 JUMPI PUSH2 0x24B PUSH2 0x201 JUMP JUMPDEST POP PUSH1 0x20 PUSH1 0x40 MLOAD PUSH1 0x1 DUP2 MSTORE RETURN JUMPDEST CALLVALUE PUSH2 0x217 JUMPI PUSH1 0x0 CALLDATASIZE PUSH1 0x3 NOT ADD SLT PUSH2 0x217 JUMPI PUSH1 0x20 PUSH1 0x40 MLOAD ADDRESS DUP2 MSTORE RETURN INVALID LOG2 PUSH5 0x6970667358 0x22 SLT KECCAK256 0xB0 GASPRICE BALANCE LOG1 ISZERO 0xD5 0xC8 0xC0 0xE2 0xD7 0xD5 PUSH12 0x5D7AA544906664F5CC19209C MULMOD SMOD 0xE2 GT SHL PUSH16 0x778D64736F6C63430008140033000000 "},"methodIdentifiers":{"WETH()":"ad5c4648","addLiquidityETH(address,uint256,uint256,uint256,address,uint256)":"f305d719","approve(address,uint256)":"095ea7b3","balanceOf(address)":"70a08231","factory()":"c45a0155","getPair(address,address)":"e6a43905","setFail(bool)":"9d769402","shouldFail()":"678d2204","transfer(address,uint256)":"a9059cbb","transferFrom(address,address,uint256)":"23b872dd"}}}}}