{"contracts/bonding-curve/SelsipadBondingCurveFactory.sol":{"SelsipadBondingCurveFactory":{"abi":[{"inputs":[{"internalType":"address","name":"_router","type":"address"},{"internalType":"address","name":"_treasury","type":"address"}],"stateMutability":"nonpayable","type":"constructor"},{"inputs":[],"name":"InsufficientFee","type":"error"},{"inputs":[],"name":"InsufficientReserve","type":"error"},{"inputs":[],"name":"InvalidAddress","type":"error"},{"inputs":[],"name":"InvalidToken","type":"error"},{"inputs":[{"internalType":"address","name":"owner","type":"address"}],"name":"OwnableInvalidOwner","type":"error"},{"inputs":[{"internalType":"address","name":"account","type":"address"}],"name":"OwnableUnauthorizedAccount","type":"error"},{"inputs":[],"name":"ReentrancyGuardReentrantCall","type":"error"},{"inputs":[],"name":"TradingMigrated","type":"error"},{"inputs":[],"name":"TradingNotMigrated","type":"error"},{"inputs":[],"name":"TransferFailed","type":"error"},{"inputs":[],"name":"ZeroAmount","type":"error"},{"anonymous":false,"inputs":[{"indexed":false,"internalType":"uint256","name":"oldFee","type":"uint256"},{"indexed":false,"internalType":"uint256","name":"newFee","type":"uint256"}],"name":"CreateFeeUpdated","type":"event"},{"anonymous":false,"inputs":[{"indexed":true,"internalType":"address","name":"token","type":"address"},{"indexed":false,"internalType":"uint256","name":"tokenAmount","type":"uint256"},{"indexed":false,"internalType":"uint256","name":"ethAmount","type":"uint256"},{"indexed":false,"internalType":"address","name":"lpPair","type":"address"}],"name":"LiquidityMigrated","type":"event"},{"anonymous":false,"inputs":[{"indexed":false,"internalType":"uint256","name":"oldThreshold","type":"uint256"},{"indexed":false,"internalType":"uint256","name":"newThreshold","type":"uint256"}],"name":"MigrationThresholdUpdated","type":"event"},{"anonymous":false,"inputs":[{"indexed":true,"internalType":"address","name":"previousOwner","type":"address"},{"indexed":true,"internalType":"address","name":"newOwner","type":"address"}],"name":"OwnershipTransferred","type":"event"},{"anonymous":false,"inputs":[{"indexed":true,"internalType":"address","name":"token","type":"address"},{"indexed":false,"internalType":"string","name":"name","type":"string"},{"indexed":false,"internalType":"string","name":"symbol","type":"string"},{"indexed":true,"internalType":"address","name":"creator","type":"address"}],"name":"TokenLaunched","type":"event"},{"anonymous":false,"inputs":[{"indexed":true,"internalType":"address","name":"token","type":"address"},{"indexed":true,"internalType":"address","name":"buyer","type":"address"},{"indexed":false,"internalType":"uint256","name":"tokenAmount","type":"uint256"},{"indexed":false,"internalType":"uint256","name":"ethCost","type":"uint256"},{"indexed":true,"internalType":"address","name":"referrer","type":"address"}],"name":"TokensPurchased","type":"event"},{"anonymous":false,"inputs":[{"indexed":true,"internalType":"address","name":"token","type":"address"},{"indexed":true,"internalType":"address","name":"seller","type":"address"},{"indexed":false,"internalType":"uint256","name":"tokenAmount","type":"uint256"},{"indexed":false,"internalType":"uint256","name":"ethRefund","type":"uint256"},{"indexed":true,"internalType":"address","name":"referrer","type":"address"}],"name":"TokensSold","type":"event"},{"anonymous":false,"inputs":[{"indexed":false,"internalType":"address","name":"oldTreasury","type":"address"},{"indexed":false,"internalType":"address","name":"newTreasury","type":"address"}],"name":"TreasuryUpdated","type":"event"},{"inputs":[],"name":"BPS_DENOMINATOR","outputs":[{"internalType":"uint256","name":"","type":"uint256"}],"stateMutability":"view","type":"function"},{"inputs":[],"name":"DEAD_ADDRESS","outputs":[{"internalType":"address","name":"","type":"address"}],"stateMutability":"view","type":"function"},{"inputs":[],"name":"MIGRATION_RESERVE","outputs":[{"internalType":"uint256","name":"","type":"uint256"}],"stateMutability":"view","type":"function"},{"inputs":[],"name":"REFERRAL_FEE_BPS","outputs":[{"internalType":"uint256","name":"","type":"uint256"}],"stateMutability":"view","type":"function"},{"inputs":[],"name":"TRADE_FEE_BPS","outputs":[{"internalType":"uint256","name":"","type":"uint256"}],"stateMutability":"view","type":"function"},{"inputs":[],"name":"TRADING_RESERVE","outputs":[{"internalType":"uint256","name":"","type":"uint256"}],"stateMutability":"view","type":"function"},{"inputs":[],"name":"V_ETH_RESERVE","outputs":[{"internalType":"uint256","name":"","type":"uint256"}],"stateMutability":"view","type":"function"},{"inputs":[],"name":"V_TOKEN_RESERVE","outputs":[{"internalType":"uint256","name":"","type":"uint256"}],"stateMutability":"view","type":"function"},{"inputs":[],"name":"WETH","outputs":[{"internalType":"address","name":"","type":"address"}],"stateMutability":"view","type":"function"},{"inputs":[{"internalType":"uint256","name":"","type":"uint256"}],"name":"allTokens","outputs":[{"internalType":"address","name":"","type":"address"}],"stateMutability":"view","type":"function"},{"inputs":[{"internalType":"address","name":"_token","type":"address"},{"internalType":"address","name":"_referrer","type":"address"}],"name":"buyToken","outputs":[],"stateMutability":"payable","type":"function"},{"inputs":[],"name":"createFee","outputs":[{"internalType":"uint256","name":"","type":"uint256"}],"stateMutability":"view","type":"function"},{"inputs":[{"internalType":"address","name":"_token","type":"address"},{"internalType":"uint256","name":"tokenAmount","type":"uint256"}],"name":"getAmountIn","outputs":[{"internalType":"uint256","name":"ethOut","type":"uint256"}],"stateMutability":"view","type":"function"},{"inputs":[{"internalType":"address","name":"_token","type":"address"},{"internalType":"uint256","name":"ethIn","type":"uint256"}],"name":"getAmountOut","outputs":[{"internalType":"uint256","name":"tokensOut","type":"uint256"}],"stateMutability":"view","type":"function"},{"inputs":[{"internalType":"address","name":"_token","type":"address"}],"name":"getCurrentPrice","outputs":[{"internalType":"uint256","name":"","type":"uint256"}],"stateMutability":"view","type":"function"},{"inputs":[{"internalType":"address","name":"_token","type":"address"}],"name":"getMigrationProgress","outputs":[{"internalType":"uint256","name":"bps","type":"uint256"}],"stateMutability":"view","type":"function"},{"inputs":[{"internalType":"string","name":"_name","type":"string"},{"internalType":"string","name":"_symbol","type":"string"},{"internalType":"address","name":"_referrer","type":"address"}],"name":"launchToken","outputs":[],"stateMutability":"payable","type":"function"},{"inputs":[],"name":"migrationThreshold","outputs":[{"internalType":"uint256","name":"","type":"uint256"}],"stateMutability":"view","type":"function"},{"inputs":[],"name":"owner","outputs":[{"internalType":"address","name":"","type":"address"}],"stateMutability":"view","type":"function"},{"inputs":[],"name":"renounceOwnership","outputs":[],"stateMutability":"nonpayable","type":"function"},{"inputs":[{"internalType":"address","name":"_token","type":"address"},{"internalType":"uint256","name":"tokenAmount","type":"uint256"},{"internalType":"address","name":"_referrer","type":"address"}],"name":"sellToken","outputs":[],"stateMutability":"nonpayable","type":"function"},{"inputs":[{"internalType":"uint256","name":"_fee","type":"uint256"}],"name":"setCreateFee","outputs":[],"stateMutability":"nonpayable","type":"function"},{"inputs":[{"internalType":"uint256","name":"_threshold","type":"uint256"}],"name":"setMigrationThreshold","outputs":[],"stateMutability":"nonpayable","type":"function"},{"inputs":[{"internalType":"address","name":"_router","type":"address"}],"name":"setRouter","outputs":[],"stateMutability":"nonpayable","type":"function"},{"inputs":[{"internalType":"address","name":"_treasury","type":"address"}],"name":"setTreasuryWallet","outputs":[],"stateMutability":"nonpayable","type":"function"},{"inputs":[{"internalType":"address","name":"","type":"address"}],"name":"tokens","outputs":[{"internalType":"address","name":"creator","type":"address"},{"internalType":"address","name":"tokenAddress","type":"address"},{"internalType":"uint256","name":"vReserveEth","type":"uint256"},{"internalType":"uint256","name":"vReserveToken","type":"uint256"},{"internalType":"uint256","name":"rReserveEth","type":"uint256"},{"internalType":"uint256","name":"rReserveToken","type":"uint256"},{"internalType":"bool","name":"liquidityMigrated","type":"bool"},{"internalType":"uint256","name":"createdAt","type":"uint256"}],"stateMutability":"view","type":"function"},{"inputs":[],"name":"totalTokensLaunched","outputs":[{"internalType":"uint256","name":"","type":"uint256"}],"stateMutability":"view","type":"function"},{"inputs":[{"internalType":"address","name":"newOwner","type":"address"}],"name":"transferOwnership","outputs":[],"stateMutability":"nonpayable","type":"function"},{"inputs":[],"name":"treasuryWallet","outputs":[{"internalType":"address","name":"","type":"address"}],"stateMutability":"view","type":"function"},{"inputs":[],"name":"uniswapRouter","outputs":[{"internalType":"address","name":"","type":"address"}],"stateMutability":"view","type":"function"},{"inputs":[{"internalType":"uint256","name":"_vEthReserve","type":"uint256"},{"internalType":"uint256","name":"_vTokenReserve","type":"uint256"},{"internalType":"uint256","name":"_tradingReserve","type":"uint256"},{"internalType":"uint256","name":"_migrationReserve","type":"uint256"}],"name":"updateReserves","outputs":[],"stateMutability":"nonpayable","type":"function"},{"stateMutability":"payable","type":"receive"}],"evm":{"bytecode":{"linkReferences":{},"object":"608060409080825234620001e55781816200263d8038038091620000248285620001ea565b833981010312620001e557620000486020620000408362000224565b920162000224565b3315620001cd5760008054336001600160a01b03198083168217845586519590946001600160a01b039493909285929183167f8be0079c531659141344cd1fd0a4f28419497f9722a3daafe3b4186f6b6457e08680a3600180556801a055690d9db800006007556b033b2e3c9fd0803ce80000006008556b0295be96e6406697200000006009556aa56fa5b99019a5c8000000600a55670de0b6b3a7640000600b5566b1a2bc2ec50000600c5516948515620001be57508216938415620001ad576004805485168217815586516315ab88c960e31b815291602091839182905afa918215620001a25780926200015b575b50501681600554161760055560065416176006555161240390816200023a8239f35b9091506020823d821162000199575b816200017960209383620001ea565b810103126200019657506200018e9062000224565b388062000139565b80fd5b3d91506200016a565b8651903d90823e3d90fd5b855163e6c4247b60e01b8152600490fd5b63e6c4247b60e01b8152600490fd5b8251631e4fbdf760e01b815260006004820152602490fd5b600080fd5b601f909101601f19168101906001600160401b038211908210176200020e57604052565b634e487b7160e01b600052604160045260246000fd5b51906001600160a01b0382168203620001e55756fe6080604081815260048036101562000023575b50505036156200002157600080fd5b005b600092833560e01c9081634513c9a61462000f1e575080634626402b1462000ef35780634e6fd6c41462000ed457806355a976321462000c255780635ee6cc381462000bbb578063629148491462000b64578063632db21c1462000ade578063634282af1462000a995780636eaaf1011462000a78578063715018a61462000a1a578063735de9f714620009f157806384cc315b14620009775780638da5cb5b146200094d57806390bc1e85146200092c5780639185f598146200090e57806394b4cd0a1462000694578063995c86d514620006735780639d72265e14620006555780639e1e213e1462000634578063a8602fea1462000597578063ad5c4648146200056c578063b1a51f35146200054b578063b2db919b146200052a578063c0d786551462000455578063c8a1d06e1462000429578063ca706bcf1462000376578063ca92a91b146200031f578063db7b04eb14620002e7578063e1a4521814620002c8578063e486033914620002305763f2fde38b036200001257346200022c5760203660031901126200022c57620001bd62000f3c565b90620001c862001060565b6001600160a01b039182169283156200021657505082546001600160a01b0319811683178455167f8be0079c531659141344cd1fd0a4f28419497f9722a3daafe3b4186f6b6457e08380a380f35b51631e4fbdf760e01b8152908101849052602490fd5b8280fd5b50829034620002c4576020366003190112620002c457610100926001600160a01b03928190846200026062000f3c565b1681526002602052209083825416936001830154169260028301549060038401549084015491600585015493600760ff60068801541696015496815198895260208901528701526060860152608085015260a0840152151560c083015260e0820152f35b5080fd5b505034620002c45781600319360112620002c457602090516127108152f35b838234620002c4576080366003190112620002c4576200030662001060565b35600755602435600855604435600955606435600a5580f35b50346200022c5760203660031901126200022c577f5de685d6916f86043147d790b0ba618ff8c5239be31953a0d3b7b5c54c81b27e9035916200036162001060565b600b548151908152836020820152a1600b5580f35b50913462000426578160031936011262000426576200039462000f3c565b6001600160a01b031681526002602052818120906024359060968083029190838304148315171562000413576020856200040c620003f86200040588620003ff620003e46127108a048b620010c2565b600360028401549301549485918462001181565b926200114c565b62001160565b90620010c2565b9051908152f35b634e487b7160e01b815260118652602490fd5b80fd5b505034620002c4576020366003190112620002c4576020906200040c6200044f62000f3c565b62001711565b5090346200022c5760203660031901126200022c576200047462000f3c565b906200047f62001060565b6001600160a01b039182169283156200051c5760206bffffffffffffffffffffffff60a01b9480868454161783558351928380926315ab88c960e31b82525afa9182156200051357508491620004de575b501690600554161760055580f35b62000504915060203d81116200050b575b620004fb818362000fbd565b810190620016f0565b38620004d0565b503d620004ef565b513d86823e3d90fd5b905163e6c4247b60e01b8152fd5b505034620002c45781600319360112620002c457602090600c549051908152f35b505034620002c45781600319360112620002c4576020906008549051908152f35b505034620002c45781600319360112620002c45760055490516001600160a01b039091168152602090f35b5090346200022c5760203660031901126200022c57620005b662000f3c565b620005c062001060565b6001600160a01b0381811693841562000626575060065492516001600160a01b0391841682168152911660208201527f4ab5be82436d353e61ca18726e984e561f5c1cc7c6d38b29d2553c790434705a90604090a16001600160a01b0319161760065580f35b835163e6c4247b60e01b8152fd5b505034620002c45781600319360112620002c4576020906003549051908152f35b505034620002c45781600319360112620002c45760209051604b8152f35b505034620002c45781600319360112620002c4576020906007549051908152f35b509060603660031901126200022c5767ffffffffffffffff82358181116200090a57620006c5903690850162001013565b6024358281116200090657620006df903690860162001013565b90620006ea62000f58565b93620006f562001128565b600c54803410620008f757808891620008ba575b505062000719600c5434620010c2565b81519094610c5880830191821183831017620008a757908291620017768339606081526200075e6200074f6060830187620010e6565b828103602084015287620010e6565b908433910152039088f080156200089d5760018060a01b038091169687895260026020528289206bffffffffffffffffffffffff60a01b338183541617825589600183019182541617905589828201556009546005820155600754600282015560085460038201556006810160ff19815416905560074291015560035490680100000000000000008210156200088a575091879391620008268460017fe3b10feb4083662a6dba2542351b61bc6d65beddab11c513004984a0ccad73a2960160035562000f6f565b819291549060031b9187831b921b191617905562000862620008528251938385948552840190620010e6565b82810360208401523396620010e6565b0390a38062000874575b836001805580f35b62000881923390620011a9565b3880806200086c565b634e487b7160e01b8a5260419052602489fd5b81513d89823e3d90fd5b634e487b7160e01b8a526041895260248afd5b600654829182918291906001600160a01b03165af1620008d96200108d565b5015620008e857863862000709565b516312171d8360e31b81528590fd5b815162976f7560e21b81528790fd5b8580fd5b8480fd5b505034620002c45781600319360112620002c4576020905160968152f35b505034620002c45781600319360112620002c457602090600b549051908152f35b505034620002c45781600319360112620002c457905490516001600160a01b039091168152602090f35b5091346200042657602036600319011262000426576001600160a01b036200099e62000f3c565b1681526002602052818120600281015491670de0b6b3a764000092838102938185041490151715620009de576020846200040c8560038601549062001160565b634e487b7160e01b815260118552602490fd5b50346200022c57826003193601126200022c575490516001600160a01b03909116815260209150f35b8334620004265780600319360112620004265762000a3762001060565b80546001600160a01b03198116825581906001600160a01b03167f8be0079c531659141344cd1fd0a4f28419497f9722a3daafe3b4186f6b6457e08280a380f35b505034620002c45781600319360112620002c457602090600a549051908152f35b50346200022c5760203660031901126200022c57359160035483101562000426575062000ac860209262000f6f565b60018060a01b0391549060031b1c169051908152f35b50913462000426578160031936011262000426576001600160a01b0362000b0462000f3c565b168152600260205262000b3c82822062000405600382015491620003ff600262000b316024358662001181565b92015493846200114c565b90609682029082820460961483151715620009de576020846200040c612710850486620010c2565b50346200022c5760203660031901126200022c577fef772bbcf0f90db491aaf9f8b6712e886b3a90bb136181a52b675f4c2f11d93790359162000ba662001060565b600c548151908152836020820152a1600c5580f35b50919080600319360112620002c45762000bd462000f3c565b602435916001600160a01b038316830362000c215762000bf362001128565b341562000c1257509062000c0b9134903390620011a9565b6001805580f35b51631f2a200560e01b81528490fd5b8380fd5b50919034620002c4576060366003190112620002c45762000c4562000f3c565b6024359062000c5362000f58565b9062000c5e62001128565b821562000ec4576001600160a01b039081168086526002602052848620600181015491939183161562000eb45760ff60068201541662000ea45796876003620003ff990180549062000cb1888362001181565b9162000cd262000cca84600287019e8f5494856200114c565b8092620010c2565b9b8c1580801562000e97575b62000e8757908d94939291609686029e8f04609614171562000e7457848d9e9d8b8e9f8e9f9b9c9d9e60648c8562000d1e612710602096048099620010c2565b9f5195869485936323b872dd60e01b8552339085015230602485015260448401525af191821562000e67579162000e32575b501562000e22578e908b8162000ded575b505050555582820180546005939262000d7a91620010c2565b90550162000d8a87825462001181565b90558780808085335af162000d9e6200108d565b501562000ddf575085519485526020850152169233927f4735a31b3ec23a057c88ee658e79bf4115c33e7d3b5da900cf23c97844f1ec479190a46001805580f35b86516312171d8360e31b8152fd5b8280928192600654165af162000e026200108d565b501562000e12578d388b62000d61565b8c516312171d8360e31b81528790fd5b8d516312171d8360e31b81528890fd5b62000e58915060203d811162000e5f575b62000e4f818362000fbd565b8101906200118f565b3862000d50565b503d62000e43565b90508f51903d90823e3d90fd5b634e487b7160e01b8d526011875260248dfd5b8b516328b35f2160e01b81528790fd5b508d878701541062000cde565b855163dcfbaafd60e01b81528890fd5b855163c1ab6dc160e01b81528890fd5b8351631f2a200560e01b81528690fd5b505034620002c45781600319360112620002c4576020905161dead8152f35b505034620002c45781600319360112620002c45760065490516001600160a01b039091168152602090f35b849034620002c45781600319360112620002c4576020906009548152f35b600435906001600160a01b038216820362000f5357565b600080fd5b604435906001600160a01b038216820362000f5357565b60035481101562000fa75760036000527fc2575a0e9e593c00f959f8c92f12db2869c3395a3b0502d05e2516446f71f85b0190600090565b634e487b7160e01b600052603260045260246000fd5b90601f8019910116810190811067ffffffffffffffff82111762000fe057604052565b634e487b7160e01b600052604160045260246000fd5b67ffffffffffffffff811162000fe057601f01601f191660200190565b81601f8201121562000f53578035906200102d8262000ff6565b926200103d604051948562000fbd565b8284526020838301011162000f5357816000926020809301838601378301015290565b6000546001600160a01b031633036200107557565b60405163118cdaa760e01b8152336004820152602490fd5b3d15620010bd573d90620010a18262000ff6565b91620010b1604051938462000fbd565b82523d6000602084013e565b606090565b91908203918211620010d057565b634e487b7160e01b600052601160045260246000fd5b919082519283825260005b84811062001113575050826000602080949584010152601f8019910116010190565b602081830181015184830182015201620010f1565b6002600154146200113a576002600155565b604051633ee5aeb560e01b8152600490fd5b81810292918115918404141715620010d057565b81156200116b570490565b634e487b7160e01b600052601260045260246000fd5b91908201809211620010d057565b9081602091031262000f535751801515810362000f535790565b6001600160a01b03808216600090815260026020526040902060018101549295909290911615620016de5760ff600683015416620016cc576096840284810460961485151715620010d057612710900493620012068582620010c2565b94806200169d575b508260026200123e9401546200124660038301549582620003ff620012358b8a9662001181565b9485926200114c565b8096620010c2565b946005830154918287116200168b5760059262001282928892600287015560038601556200127a600486019a8b5462001181565b8a55620010c2565b91015560405163a9059cbb60e01b81526001600160a01b0385166004820152602481018490526020818060448101038160006001600160a01b038c165af1908115620015905760009162001667575b501562001655576040805193845260208401919091526001600160a01b0391821693821692918616917fe4c62f62c45a0251c0c1bcc84de28bf8c9575b0841fc32fc2c94d889baf6af319190a454600b5411156200132c5750565b6001600160a01b03811660008181526002602090815260409182902060068101805460ff1916600117905591516370a0823160e01b81523060048201529193479390929190829060249082905afa90811562001590576000916200161c575b506005600091620013b1620013a56003880154876200114c565b60028801549062001160565b908082108414620016135750945b6004818101849055910191909155805460405163095ea7b360e01b81526001600160a01b0390911691810191909152602481018490526020818060448101038160006001600160a01b0387165af180156200159057620015ef575b506004546001600160a01b03164261012c8101908110620010d057839160c4606092604051948593849263f305d71960e01b845260018060a01b03891660048501528a6024850152600060448501526000606485015261dead608485015260a48401525af180156200159057620015be575b506004805460405163c45a015560e01b8152929160209184919082906001600160a01b03165afa918215620015905762001504926020916000916200159c575b5060055460405163e6a4390560e01b81526001600160a01b038581166004830152909116602482015293849190829081906044820190565b03916001600160a01b03165afa801562001590577fa44c03aaf0b9a5fcba3a779474f4366ea6283072d24c8082199f204872b15973936060936000926200156a575b506040805196875260208701919091526001600160a01b03918216908601521692a2565b6200158891925060203d6020116200050b57620004fb818362000fbd565b903862001546565b6040513d6000823e3d90fd5b620015b79150823d84116200050b57620004fb818362000fbd565b38620014cc565b606090813d8111620015e7575b620015d7818362000fbd565b8101031262000f5357386200148c565b503d620015cb565b6200160b9060203d60201162000e5f5762000e4f818362000fbd565b50386200141a565b905094620013bf565b90506020813d6020116200164c575b816200163a6020938362000fbd565b8101031262000f53575160056200138b565b3d91506200162b565b6040516312171d8360e31b8152600490fd5b62001684915060203d60201162000e5f5762000e4f818362000fbd565b38620012d1565b6040516328b35f2160e01b8152600490fd5b6006546000918291829182916001600160a01b03165af1620016be6200108d565b50156200165557386200120e565b60405163dcfbaafd60e01b8152600490fd5b60405163c1ab6dc160e01b8152600490fd5b9081602091031262000f5357516001600160a01b038116810362000f535790565b6001600160a01b03166000908152600260205260409020600681015460ff166200176e5760040154906127109182810290808204841490151715620010d057600b546200175e9162001160565b918083116200176a5750565b9150565b506127109056fe604060a0815234620003c85762000c5890813803806200001f81620003cd565b9384398201606083820312620003c85782516001600160401b0390818111620003c8578262000050918601620003f3565b60209283860151838111620003c85785916200006e918801620003f3565b9501516001600160a01b03811603620003c857805191808311620003b2576000928354906001938483811c93168015620003a7575b8784101462000393578190601f9384811162000340575b508790848311600114620002dc578792620002d0575b5050600019600383901b1c191690841b1784555b8651918211620002bc5782548381811c91168015620002b1575b868210146200029d5781811162000255575b5084908211600114620001f2578394959682939492620001e6575b5050600019600383901b1c191690821b1790555b336080526b033b2e3c9fd0803ce800000091826200015f60025462000465565b11620001d5577fddf252ad1be2c89b69c2b068fc378daa952ba7f163c4a11628f55a4df523b3ef90338352600381528483206200019d815462000465565b9055620001ac60025462000465565b60025584519384523393a3516107c29081620004968239608051818181610107015261036c0152f35b8351638a164f6360e01b8152600490fd5b0151905038806200012b565b82845284842090601f198316855b8181106200023f5750978385969798991062000225575b505050811b0190556200013f565b015160001960f88460031b161c1916905538808062000217565b8983015184559285019291870191870162000200565b8385528585208280850160051c82019288861062000293575b0160051c019084905b8281106200028757505062000110565b86815501849062000277565b925081926200026e565b634e487b7160e01b85526022600452602485fd5b90607f1690620000fe565b634e487b7160e01b84526041600452602484fd5b015190503880620000d0565b8780528888208794509190601f198416895b8b8282106200032957505084116200030f575b505050811b018455620000e4565b015160001960f88460031b161c1916905538808062000301565b8385015186558a97909501949384019301620002ee565b9091508680528787208480850160051c8201928a861062000389575b918891869594930160051c01915b8281106200037a575050620000ba565b8981558594508891016200036a565b925081926200035c565b634e487b7160e01b86526022600452602486fd5b92607f1692620000a3565b634e487b7160e01b600052604160045260246000fd5b600080fd5b6040519190601f01601f191682016001600160401b03811183821017620003b257604052565b919080601f84011215620003c85782516001600160401b038111620003b25760209062000429601f8201601f19168301620003cd565b92818452828287010111620003c85760005b8181106200045157508260009394955001015290565b85810183015184820184015282016200043b565b906b033b2e3c9fd0803ce800000082018092116200047f57565b634e487b7160e01b600052601160045260246000fdfe6080604081815260048036101561001557600080fd5b600092833560e01c90816306fdde03146105ef57508063095ea7b31461058157806318160ddd1461056257806323b872dd14610468578063313ce5671461044c57806332cb6b0c1461042557806364a7102b1461034357806370a082311461030b57806395d89b41146101ea578063a9059cbb1461013a578063c45a0155146100f25763dd62ed3e146100a757600080fd5b346100ee57816003193601126100ee5760209282916100c461072b565b6100cc610746565b6001600160a01b03918216845291865283832091168252845220549051908152f35b8280fd5b505034610136578160031936011261013657517f00000000000000000000000000000000000000000000000000000000000000006001600160a01b03168152602090f35b5080fd5b5091346101e757816003193601126101e75761015461072b565b926024359033835260036020528184842054106101d95750826020943384526003865281842061018584825461077f565b90556001600160a01b031680845260038652922080546101a690839061075c565b905582519081527fddf252ad1be2c89b69c2b068fc378daa952ba7f163c4a11628f55a4df523b3ef843392a35160018152f35b8351631e9acf1760e31b8152fd5b80fd5b5091903461013657816003193601126101365780519082600180549081811c90808316928315610301575b60209384841081146102ee578388529081156102d2575060011461027d575b505050829003601f01601f191682019267ffffffffffffffff84118385101761026a57508291826102669252826106e2565b0390f35b634e487b7160e01b815260418552602490fd5b8087529192508591837fb10e2d527612073b26eecdfd717e6a320cf44b4afac2b0732d9fcbe2b7fa0cf65b8385106102be5750505050830101388080610234565b8054888601830152930192849082016102a8565b60ff1916878501525050151560051b8401019050388080610234565b634e487b7160e01b895260228a52602489fd5b91607f1691610215565b5050346101365760203660031901126101365760209181906001600160a01b0361033361072b565b1681526003845220549051908152f35b50346100ee57816003193601126100ee5761035c61072b565b602435916001600160a01b0391907f000000000000000000000000000000000000000000000000000000000000000083163303610417576b033b2e3c9fd0803ce80000006103ac8560025461075c565b11610409575084927fddf252ad1be2c89b69c2b068fc378daa952ba7f163c4a11628f55a4df523b3ef926020921694858552600383528085206103f083825461075c565b90556103fe8260025461075c565b60025551908152a380f35b8451638a164f6360e01b8152fd5b8451630636a15760e11b8152fd5b505034610136578160031936011261013657602090516b033b2e3c9fd0803ce80000008152f35b5050346101365781600319360112610136576020905160128152f35b5091346101e75760603660031901126101e75761048361072b565b61048b610746565b906044359060018060a01b0380911692838552602096600388528387872054106105545784865280885286862033875288528387872054106105465787927fddf252ad1be2c89b69c2b068fc378daa952ba7f163c4a11628f55a4df523b3ef949288928789526003865283892061050386825461077f565b90558789528552828820338952855282882061052085825461077f565b90551695868152600384522061053782825461075c565b90558551908152a35160018152f35b86516313be252b60e01b8152fd5b8651631e9acf1760e31b8152fd5b5050346101365781600319360112610136576020906002549051908152f35b50346100ee57816003193601126100ee5760209261059d61072b565b918360243592839233825287528181209460018060a01b0316948582528752205582519081527f8c5be1e5ebec7d5bd14f71427d1e84f3dd0314c0f7b2291e5b200ac8c7c3b925843392a35160018152f35b84915083346100ee57826003193601126100ee57828354600181811c908083169283156106d8575b60209384841081146102ee578388529081156106bc575060011461066757505050829003601f01601f191682019267ffffffffffffffff84118385101761026a57508291826102669252826106e2565b8680529192508591837f290decd9548b62a8d60345a988386fc84ba6bc95484008f6362f93160ef3e5635b8385106106a85750505050830101858080610234565b805488860183015293019284908201610692565b60ff1916878501525050151560051b8401019050858080610234565b91607f1691610617565b6020808252825181830181905290939260005b82811061071757505060409293506000838284010152601f8019910116010190565b8181018601518482016040015285016106f5565b600435906001600160a01b038216820361074157565b600080fd5b602435906001600160a01b038216820361074157565b9190820180921161076957565b634e487b7160e01b600052601160045260246000fd5b919082039182116107695756fea2646970667358221220b4a7a81306531b98d4ab9038f068809c2ec4c02f5bca341a764b2fb59a3b63e864736f6c63430008140033a2646970667358221220752c559a411e44339d251d442b5178d70c79f43fab2ab49645602b0cb9bcf41264736f6c63430008140033","opcodes":"PUSH1 0x80 PUSH1 0x40 SWAP1 DUP1 DUP3 MSTORE CALLVALUE PUSH3 0x1E5 JUMPI DUP2 DUP2 PUSH3 0x263D DUP1 CODESIZE SUB DUP1 SWAP2 PUSH3 0x24 DUP3 DUP6 PUSH3 0x1EA JUMP JUMPDEST DUP4 CODECOPY DUP2 ADD SUB SLT PUSH3 0x1E5 JUMPI PUSH3 0x48 PUSH1 0x20 PUSH3 0x40 DUP4 PUSH3 0x224 JUMP JUMPDEST SWAP3 ADD PUSH3 0x224 JUMP JUMPDEST CALLER ISZERO PUSH3 0x1CD JUMPI PUSH1 0x0 DUP1 SLOAD CALLER PUSH1 0x1 PUSH1 0x1 PUSH1 0xA0 SHL SUB NOT DUP1 DUP4 AND DUP3 OR DUP5 SSTORE DUP7 MLOAD SWAP6 SWAP1 SWAP5 PUSH1 0x1 PUSH1 0x1 PUSH1 0xA0 SHL SUB SWAP5 SWAP4 SWAP1 SWAP3 DUP6 SWAP3 SWAP2 DUP4 AND PUSH32 0x8BE0079C531659141344CD1FD0A4F28419497F9722A3DAAFE3B4186F6B6457E0 DUP7 DUP1 LOG3 PUSH1 0x1 DUP1 SSTORE PUSH9 0x1A055690D9DB80000 PUSH1 0x7 SSTORE PUSH12 0x33B2E3C9FD0803CE8000000 PUSH1 0x8 SSTORE PUSH12 0x295BE96E640669720000000 PUSH1 0x9 SSTORE PUSH11 0xA56FA5B99019A5C8000000 PUSH1 0xA SSTORE PUSH8 0xDE0B6B3A7640000 PUSH1 0xB SSTORE PUSH7 0xB1A2BC2EC50000 PUSH1 0xC SSTORE AND SWAP5 DUP6 ISZERO PUSH3 0x1BE JUMPI POP DUP3 AND SWAP4 DUP5 ISZERO PUSH3 0x1AD JUMPI PUSH1 0x4 DUP1 SLOAD DUP6 AND DUP3 OR DUP2 SSTORE DUP7 MLOAD PUSH4 0x15AB88C9 PUSH1 0xE3 SHL DUP2 MSTORE SWAP2 PUSH1 0x20 SWAP2 DUP4 SWAP2 DUP3 SWAP1 GAS STATICCALL SWAP2 DUP3 ISZERO PUSH3 0x1A2 JUMPI DUP1 SWAP3 PUSH3 0x15B JUMPI JUMPDEST POP POP AND DUP2 PUSH1 0x5 SLOAD AND OR PUSH1 0x5 SSTORE PUSH1 0x6 SLOAD AND OR PUSH1 0x6 SSTORE MLOAD PUSH2 0x2403 SWAP1 DUP2 PUSH3 0x23A DUP3 CODECOPY RETURN JUMPDEST SWAP1 SWAP2 POP PUSH1 0x20 DUP3 RETURNDATASIZE DUP3 GT PUSH3 0x199 JUMPI JUMPDEST DUP2 PUSH3 0x179 PUSH1 0x20 SWAP4 DUP4 PUSH3 0x1EA JUMP JUMPDEST DUP2 ADD SUB SLT PUSH3 0x196 JUMPI POP PUSH3 0x18E SWAP1 PUSH3 0x224 JUMP JUMPDEST CODESIZE DUP1 PUSH3 0x139 JUMP JUMPDEST DUP1 REVERT JUMPDEST RETURNDATASIZE SWAP2 POP PUSH3 0x16A JUMP JUMPDEST DUP7 MLOAD SWAP1 RETURNDATASIZE SWAP1 DUP3 RETURNDATACOPY RETURNDATASIZE SWAP1 REVERT JUMPDEST DUP6 MLOAD PUSH4 0xE6C4247B PUSH1 0xE0 SHL DUP2 MSTORE PUSH1 0x4 SWAP1 REVERT JUMPDEST PUSH4 0xE6C4247B PUSH1 0xE0 SHL DUP2 MSTORE PUSH1 0x4 SWAP1 REVERT JUMPDEST DUP3 MLOAD PUSH4 0x1E4FBDF7 PUSH1 0xE0 SHL DUP2 MSTORE PUSH1 0x0 PUSH1 0x4 DUP3 ADD MSTORE PUSH1 0x24 SWAP1 REVERT JUMPDEST PUSH1 0x0 DUP1 REVERT JUMPDEST PUSH1 0x1F SWAP1 SWAP2 ADD PUSH1 0x1F NOT AND DUP2 ADD SWAP1 PUSH1 0x1 PUSH1 0x1 PUSH1 0x40 SHL SUB DUP3 GT SWAP1 DUP3 LT OR PUSH3 0x20E JUMPI PUSH1 0x40 MSTORE JUMP JUMPDEST PUSH4 0x4E487B71 PUSH1 0xE0 SHL PUSH1 0x0 MSTORE PUSH1 0x41 PUSH1 0x4 MSTORE PUSH1 0x24 PUSH1 0x0 REVERT JUMPDEST MLOAD SWAP1 PUSH1 0x1 PUSH1 0x1 PUSH1 0xA0 SHL SUB DUP3 AND DUP3 SUB PUSH3 0x1E5 JUMPI JUMP INVALID PUSH1 0x80 PUSH1 0x40 DUP2 DUP2 MSTORE PUSH1 0x4 DUP1 CALLDATASIZE LT ISZERO PUSH3 0x23 JUMPI JUMPDEST POP POP POP CALLDATASIZE ISZERO PUSH3 0x21 JUMPI PUSH1 0x0 DUP1 REVERT JUMPDEST STOP JUMPDEST PUSH1 0x0 SWAP3 DUP4 CALLDATALOAD PUSH1 0xE0 SHR SWAP1 DUP2 PUSH4 0x4513C9A6 EQ PUSH3 0xF1E JUMPI POP DUP1 PUSH4 0x4626402B EQ PUSH3 0xEF3 JUMPI DUP1 PUSH4 0x4E6FD6C4 EQ PUSH3 0xED4 JUMPI DUP1 PUSH4 0x55A97632 EQ PUSH3 0xC25 JUMPI DUP1 PUSH4 0x5EE6CC38 EQ PUSH3 0xBBB JUMPI DUP1 PUSH4 0x62914849 EQ PUSH3 0xB64 JUMPI DUP1 PUSH4 0x632DB21C EQ PUSH3 0xADE JUMPI DUP1 PUSH4 0x634282AF EQ PUSH3 0xA99 JUMPI DUP1 PUSH4 0x6EAAF101 EQ PUSH3 0xA78 JUMPI DUP1 PUSH4 0x715018A6 EQ PUSH3 0xA1A JUMPI DUP1 PUSH4 0x735DE9F7 EQ PUSH3 0x9F1 JUMPI DUP1 PUSH4 0x84CC315B EQ PUSH3 0x977 JUMPI DUP1 PUSH4 0x8DA5CB5B EQ PUSH3 0x94D JUMPI DUP1 PUSH4 0x90BC1E85 EQ PUSH3 0x92C JUMPI DUP1 PUSH4 0x9185F598 EQ PUSH3 0x90E JUMPI DUP1 PUSH4 0x94B4CD0A EQ PUSH3 0x694 JUMPI DUP1 PUSH4 0x995C86D5 EQ PUSH3 0x673 JUMPI DUP1 PUSH4 0x9D72265E EQ PUSH3 0x655 JUMPI DUP1 PUSH4 0x9E1E213E EQ PUSH3 0x634 JUMPI DUP1 PUSH4 0xA8602FEA EQ PUSH3 0x597 JUMPI DUP1 PUSH4 0xAD5C4648 EQ PUSH3 0x56C JUMPI DUP1 PUSH4 0xB1A51F35 EQ PUSH3 0x54B JUMPI DUP1 PUSH4 0xB2DB919B EQ PUSH3 0x52A JUMPI DUP1 PUSH4 0xC0D78655 EQ PUSH3 0x455 JUMPI DUP1 PUSH4 0xC8A1D06E EQ PUSH3 0x429 JUMPI DUP1 PUSH4 0xCA706BCF EQ PUSH3 0x376 JUMPI DUP1 PUSH4 0xCA92A91B EQ PUSH3 0x31F JUMPI DUP1 PUSH4 0xDB7B04EB EQ PUSH3 0x2E7 JUMPI DUP1 PUSH4 0xE1A45218 EQ PUSH3 0x2C8 JUMPI DUP1 PUSH4 0xE4860339 EQ PUSH3 0x230 JUMPI PUSH4 0xF2FDE38B SUB PUSH3 0x12 JUMPI CALLVALUE PUSH3 0x22C JUMPI PUSH1 0x20 CALLDATASIZE PUSH1 0x3 NOT ADD SLT PUSH3 0x22C JUMPI PUSH3 0x1BD PUSH3 0xF3C JUMP JUMPDEST SWAP1 PUSH3 0x1C8 PUSH3 0x1060 JUMP JUMPDEST PUSH1 0x1 PUSH1 0x1 PUSH1 0xA0 SHL SUB SWAP2 DUP3 AND SWAP3 DUP4 ISZERO PUSH3 0x216 JUMPI POP POP DUP3 SLOAD PUSH1 0x1 PUSH1 0x1 PUSH1 0xA0 SHL SUB NOT DUP2 AND DUP4 OR DUP5 SSTORE AND PUSH32 0x8BE0079C531659141344CD1FD0A4F28419497F9722A3DAAFE3B4186F6B6457E0 DUP4 DUP1 LOG3 DUP1 RETURN JUMPDEST MLOAD PUSH4 0x1E4FBDF7 PUSH1 0xE0 SHL DUP2 MSTORE SWAP1 DUP2 ADD DUP5 SWAP1 MSTORE PUSH1 0x24 SWAP1 REVERT JUMPDEST DUP3 DUP1 REVERT JUMPDEST POP DUP3 SWAP1 CALLVALUE PUSH3 0x2C4 JUMPI PUSH1 0x20 CALLDATASIZE PUSH1 0x3 NOT ADD SLT PUSH3 0x2C4 JUMPI PUSH2 0x100 SWAP3 PUSH1 0x1 PUSH1 0x1 PUSH1 0xA0 SHL SUB SWAP3 DUP2 SWAP1 DUP5 PUSH3 0x260 PUSH3 0xF3C JUMP JUMPDEST AND DUP2 MSTORE PUSH1 0x2 PUSH1 0x20 MSTORE KECCAK256 SWAP1 DUP4 DUP3 SLOAD AND SWAP4 PUSH1 0x1 DUP4 ADD SLOAD AND SWAP3 PUSH1 0x2 DUP4 ADD SLOAD SWAP1 PUSH1 0x3 DUP5 ADD SLOAD SWAP1 DUP5 ADD SLOAD SWAP2 PUSH1 0x5 DUP6 ADD SLOAD SWAP4 PUSH1 0x7 PUSH1 0xFF PUSH1 0x6 DUP9 ADD SLOAD AND SWAP7 ADD SLOAD SWAP7 DUP2 MLOAD SWAP9 DUP10 MSTORE PUSH1 0x20 DUP10 ADD MSTORE DUP8 ADD MSTORE PUSH1 0x60 DUP7 ADD MSTORE PUSH1 0x80 DUP6 ADD MSTORE PUSH1 0xA0 DUP5 ADD MSTORE ISZERO ISZERO PUSH1 0xC0 DUP4 ADD MSTORE PUSH1 0xE0 DUP3 ADD MSTORE RETURN JUMPDEST POP DUP1 REVERT JUMPDEST POP POP CALLVALUE PUSH3 0x2C4 JUMPI DUP2 PUSH1 0x3 NOT CALLDATASIZE ADD SLT PUSH3 0x2C4 JUMPI PUSH1 0x20 SWAP1 MLOAD PUSH2 0x2710 DUP2 MSTORE RETURN JUMPDEST DUP4 DUP3 CALLVALUE PUSH3 0x2C4 JUMPI PUSH1 0x80 CALLDATASIZE PUSH1 0x3 NOT ADD SLT PUSH3 0x2C4 JUMPI PUSH3 0x306 PUSH3 0x1060 JUMP JUMPDEST CALLDATALOAD PUSH1 0x7 SSTORE PUSH1 0x24 CALLDATALOAD PUSH1 0x8 SSTORE PUSH1 0x44 CALLDATALOAD PUSH1 0x9 SSTORE PUSH1 0x64 CALLDATALOAD PUSH1 0xA SSTORE DUP1 RETURN JUMPDEST POP CALLVALUE PUSH3 0x22C JUMPI PUSH1 0x20 CALLDATASIZE PUSH1 0x3 NOT ADD SLT PUSH3 0x22C JUMPI PUSH32 0x5DE685D6916F86043147D790B0BA618FF8C5239BE31953A0D3B7B5C54C81B27E SWAP1 CALLDATALOAD SWAP2 PUSH3 0x361 PUSH3 0x1060 JUMP JUMPDEST PUSH1 0xB SLOAD DUP2 MLOAD SWAP1 DUP2 MSTORE DUP4 PUSH1 0x20 DUP3 ADD MSTORE LOG1 PUSH1 0xB SSTORE DUP1 RETURN JUMPDEST POP SWAP2 CALLVALUE PUSH3 0x426 JUMPI DUP2 PUSH1 0x3 NOT CALLDATASIZE ADD SLT PUSH3 0x426 JUMPI PUSH3 0x394 PUSH3 0xF3C JUMP JUMPDEST PUSH1 0x1 PUSH1 0x1 PUSH1 0xA0 SHL SUB AND DUP2 MSTORE PUSH1 0x2 PUSH1 0x20 MSTORE DUP2 DUP2 KECCAK256 SWAP1 PUSH1 0x24 CALLDATALOAD SWAP1 PUSH1 0x96 DUP1 DUP4 MUL SWAP2 SWAP1 DUP4 DUP4 DIV EQ DUP4 ISZERO OR ISZERO PUSH3 0x413 JUMPI PUSH1 0x20 DUP6 PUSH3 0x40C PUSH3 0x3F8 PUSH3 0x405 DUP9 PUSH3 0x3FF PUSH3 0x3E4 PUSH2 0x2710 DUP11 DIV DUP12 PUSH3 0x10C2 JUMP JUMPDEST PUSH1 0x3 PUSH1 0x2 DUP5 ADD SLOAD SWAP4 ADD SLOAD SWAP5 DUP6 SWAP2 DUP5 PUSH3 0x1181 JUMP JUMPDEST SWAP3 PUSH3 0x114C JUMP JUMPDEST PUSH3 0x1160 JUMP JUMPDEST SWAP1 PUSH3 0x10C2 JUMP JUMPDEST SWAP1 MLOAD SWAP1 DUP2 MSTORE RETURN JUMPDEST PUSH4 0x4E487B71 PUSH1 0xE0 SHL DUP2 MSTORE PUSH1 0x11 DUP7 MSTORE PUSH1 0x24 SWAP1 REVERT JUMPDEST DUP1 REVERT JUMPDEST POP POP CALLVALUE PUSH3 0x2C4 JUMPI PUSH1 0x20 CALLDATASIZE PUSH1 0x3 NOT ADD SLT PUSH3 0x2C4 JUMPI PUSH1 0x20 SWAP1 PUSH3 0x40C PUSH3 0x44F PUSH3 0xF3C JUMP JUMPDEST PUSH3 0x1711 JUMP JUMPDEST POP SWAP1 CALLVALUE PUSH3 0x22C JUMPI PUSH1 0x20 CALLDATASIZE PUSH1 0x3 NOT ADD SLT PUSH3 0x22C JUMPI PUSH3 0x474 PUSH3 0xF3C JUMP JUMPDEST SWAP1 PUSH3 0x47F PUSH3 0x1060 JUMP JUMPDEST PUSH1 0x1 PUSH1 0x1 PUSH1 0xA0 SHL SUB SWAP2 DUP3 AND SWAP3 DUP4 ISZERO PUSH3 0x51C JUMPI PUSH1 0x20 PUSH12 0xFFFFFFFFFFFFFFFFFFFFFFFF PUSH1 0xA0 SHL SWAP5 DUP1 DUP7 DUP5 SLOAD AND OR DUP4 SSTORE DUP4 MLOAD SWAP3 DUP4 DUP1 SWAP3 PUSH4 0x15AB88C9 PUSH1 0xE3 SHL DUP3 MSTORE GAS STATICCALL SWAP2 DUP3 ISZERO PUSH3 0x513 JUMPI POP DUP5 SWAP2 PUSH3 0x4DE JUMPI JUMPDEST POP AND SWAP1 PUSH1 0x5 SLOAD AND OR PUSH1 0x5 SSTORE DUP1 RETURN JUMPDEST PUSH3 0x504 SWAP2 POP PUSH1 0x20 RETURNDATASIZE DUP2 GT PUSH3 0x50B JUMPI JUMPDEST PUSH3 0x4FB DUP2 DUP4 PUSH3 0xFBD JUMP JUMPDEST DUP2 ADD SWAP1 PUSH3 0x16F0 JUMP JUMPDEST CODESIZE PUSH3 0x4D0 JUMP JUMPDEST POP RETURNDATASIZE PUSH3 0x4EF JUMP JUMPDEST MLOAD RETURNDATASIZE DUP7 DUP3 RETURNDATACOPY RETURNDATASIZE SWAP1 REVERT JUMPDEST SWAP1 MLOAD PUSH4 0xE6C4247B PUSH1 0xE0 SHL DUP2 MSTORE REVERT JUMPDEST POP POP CALLVALUE PUSH3 0x2C4 JUMPI DUP2 PUSH1 0x3 NOT CALLDATASIZE ADD SLT PUSH3 0x2C4 JUMPI PUSH1 0x20 SWAP1 PUSH1 0xC SLOAD SWAP1 MLOAD SWAP1 DUP2 MSTORE RETURN JUMPDEST POP POP CALLVALUE PUSH3 0x2C4 JUMPI DUP2 PUSH1 0x3 NOT CALLDATASIZE ADD SLT PUSH3 0x2C4 JUMPI PUSH1 0x20 SWAP1 PUSH1 0x8 SLOAD SWAP1 MLOAD SWAP1 DUP2 MSTORE RETURN JUMPDEST POP POP CALLVALUE PUSH3 0x2C4 JUMPI DUP2 PUSH1 0x3 NOT CALLDATASIZE ADD SLT PUSH3 0x2C4 JUMPI PUSH1 0x5 SLOAD SWAP1 MLOAD PUSH1 0x1 PUSH1 0x1 PUSH1 0xA0 SHL SUB SWAP1 SWAP2 AND DUP2 MSTORE PUSH1 0x20 SWAP1 RETURN JUMPDEST POP SWAP1 CALLVALUE PUSH3 0x22C JUMPI PUSH1 0x20 CALLDATASIZE PUSH1 0x3 NOT ADD SLT PUSH3 0x22C JUMPI PUSH3 0x5B6 PUSH3 0xF3C JUMP JUMPDEST PUSH3 0x5C0 PUSH3 0x1060 JUMP JUMPDEST PUSH1 0x1 PUSH1 0x1 PUSH1 0xA0 SHL SUB DUP2 DUP2 AND SWAP4 DUP5 ISZERO PUSH3 0x626 JUMPI POP PUSH1 0x6 SLOAD SWAP3 MLOAD PUSH1 0x1 PUSH1 0x1 PUSH1 0xA0 SHL SUB SWAP2 DUP5 AND DUP3 AND DUP2 MSTORE SWAP2 AND PUSH1 0x20 DUP3 ADD MSTORE PUSH32 0x4AB5BE82436D353E61CA18726E984E561F5C1CC7C6D38B29D2553C790434705A SWAP1 PUSH1 0x40 SWAP1 LOG1 PUSH1 0x1 PUSH1 0x1 PUSH1 0xA0 SHL SUB NOT AND OR PUSH1 0x6 SSTORE DUP1 RETURN JUMPDEST DUP4 MLOAD PUSH4 0xE6C4247B PUSH1 0xE0 SHL DUP2 MSTORE REVERT JUMPDEST POP POP CALLVALUE PUSH3 0x2C4 JUMPI DUP2 PUSH1 0x3 NOT CALLDATASIZE ADD SLT PUSH3 0x2C4 JUMPI PUSH1 0x20 SWAP1 PUSH1 0x3 SLOAD SWAP1 MLOAD SWAP1 DUP2 MSTORE RETURN JUMPDEST POP POP CALLVALUE PUSH3 0x2C4 JUMPI DUP2 PUSH1 0x3 NOT CALLDATASIZE ADD SLT PUSH3 0x2C4 JUMPI PUSH1 0x20 SWAP1 MLOAD PUSH1 0x4B DUP2 MSTORE RETURN JUMPDEST POP POP CALLVALUE PUSH3 0x2C4 JUMPI DUP2 PUSH1 0x3 NOT CALLDATASIZE ADD SLT PUSH3 0x2C4 JUMPI PUSH1 0x20 SWAP1 PUSH1 0x7 SLOAD SWAP1 MLOAD SWAP1 DUP2 MSTORE RETURN JUMPDEST POP SWAP1 PUSH1 0x60 CALLDATASIZE PUSH1 0x3 NOT ADD SLT PUSH3 0x22C JUMPI PUSH8 0xFFFFFFFFFFFFFFFF DUP3 CALLDATALOAD DUP2 DUP2 GT PUSH3 0x90A JUMPI PUSH3 0x6C5 SWAP1 CALLDATASIZE SWAP1 DUP6 ADD PUSH3 0x1013 JUMP JUMPDEST PUSH1 0x24 CALLDATALOAD DUP3 DUP2 GT PUSH3 0x906 JUMPI PUSH3 0x6DF SWAP1 CALLDATASIZE SWAP1 DUP7 ADD PUSH3 0x1013 JUMP JUMPDEST SWAP1 PUSH3 0x6EA PUSH3 0xF58 JUMP JUMPDEST SWAP4 PUSH3 0x6F5 PUSH3 0x1128 JUMP JUMPDEST PUSH1 0xC SLOAD DUP1 CALLVALUE LT PUSH3 0x8F7 JUMPI DUP1 DUP9 SWAP2 PUSH3 0x8BA JUMPI JUMPDEST POP POP PUSH3 0x719 PUSH1 0xC SLOAD CALLVALUE PUSH3 0x10C2 JUMP JUMPDEST DUP2 MLOAD SWAP1 SWAP5 PUSH2 0xC58 DUP1 DUP4 ADD SWAP2 DUP3 GT DUP4 DUP4 LT OR PUSH3 0x8A7 JUMPI SWAP1 DUP3 SWAP2 PUSH3 0x1776 DUP4 CODECOPY PUSH1 0x60 DUP2 MSTORE PUSH3 0x75E PUSH3 0x74F PUSH1 0x60 DUP4 ADD DUP8 PUSH3 0x10E6 JUMP JUMPDEST DUP3 DUP2 SUB PUSH1 0x20 DUP5 ADD MSTORE DUP8 PUSH3 0x10E6 JUMP JUMPDEST SWAP1 DUP5 CALLER SWAP2 ADD MSTORE SUB SWAP1 DUP9 CREATE DUP1 ISZERO PUSH3 0x89D JUMPI PUSH1 0x1 DUP1 PUSH1 0xA0 SHL SUB DUP1 SWAP2 AND SWAP7 DUP8 DUP10 MSTORE PUSH1 0x2 PUSH1 0x20 MSTORE DUP3 DUP10 KECCAK256 PUSH12 0xFFFFFFFFFFFFFFFFFFFFFFFF PUSH1 0xA0 SHL CALLER DUP2 DUP4 SLOAD AND OR DUP3 SSTORE DUP10 PUSH1 0x1 DUP4 ADD SWAP2 DUP3 SLOAD AND OR SWAP1 SSTORE DUP10 DUP3 DUP3 ADD SSTORE PUSH1 0x9 SLOAD PUSH1 0x5 DUP3 ADD SSTORE PUSH1 0x7 SLOAD PUSH1 0x2 DUP3 ADD SSTORE PUSH1 0x8 SLOAD PUSH1 0x3 DUP3 ADD SSTORE PUSH1 0x6 DUP2 ADD PUSH1 0xFF NOT DUP2 SLOAD AND SWAP1 SSTORE PUSH1 0x7 TIMESTAMP SWAP2 ADD SSTORE PUSH1 0x3 SLOAD SWAP1 PUSH9 0x10000000000000000 DUP3 LT ISZERO PUSH3 0x88A JUMPI POP SWAP2 DUP8 SWAP4 SWAP2 PUSH3 0x826 DUP5 PUSH1 0x1 PUSH32 0xE3B10FEB4083662A6DBA2542351B61BC6D65BEDDAB11C513004984A0CCAD73A2 SWAP7 ADD PUSH1 0x3 SSTORE PUSH3 0xF6F JUMP JUMPDEST DUP2 SWAP3 SWAP2 SLOAD SWAP1 PUSH1 0x3 SHL SWAP2 DUP8 DUP4 SHL SWAP3 SHL NOT AND OR SWAP1 SSTORE PUSH3 0x862 PUSH3 0x852 DUP3 MLOAD SWAP4 DUP4 DUP6 SWAP5 DUP6 MSTORE DUP5 ADD SWAP1 PUSH3 0x10E6 JUMP JUMPDEST DUP3 DUP2 SUB PUSH1 0x20 DUP5 ADD MSTORE CALLER SWAP7 PUSH3 0x10E6 JUMP JUMPDEST SUB SWAP1 LOG3 DUP1 PUSH3 0x874 JUMPI JUMPDEST DUP4 PUSH1 0x1 DUP1 SSTORE DUP1 RETURN JUMPDEST PUSH3 0x881 SWAP3 CALLER SWAP1 PUSH3 0x11A9 JUMP JUMPDEST CODESIZE DUP1 DUP1 PUSH3 0x86C JUMP JUMPDEST PUSH4 0x4E487B71 PUSH1 0xE0 SHL DUP11 MSTORE PUSH1 0x41 SWAP1 MSTORE PUSH1 0x24 DUP10 REVERT JUMPDEST DUP2 MLOAD RETURNDATASIZE DUP10 DUP3 RETURNDATACOPY RETURNDATASIZE SWAP1 REVERT JUMPDEST PUSH4 0x4E487B71 PUSH1 0xE0 SHL DUP11 MSTORE PUSH1 0x41 DUP10 MSTORE PUSH1 0x24 DUP11 REVERT JUMPDEST PUSH1 0x6 SLOAD DUP3 SWAP2 DUP3 SWAP2 DUP3 SWAP2 SWAP1 PUSH1 0x1 PUSH1 0x1 PUSH1 0xA0 SHL SUB AND GAS CALL PUSH3 0x8D9 PUSH3 0x108D JUMP JUMPDEST POP ISZERO PUSH3 0x8E8 JUMPI DUP7 CODESIZE PUSH3 0x709 JUMP JUMPDEST MLOAD PUSH4 0x12171D83 PUSH1 0xE3 SHL DUP2 MSTORE DUP6 SWAP1 REVERT JUMPDEST DUP2 MLOAD PUSH3 0x976F75 PUSH1 0xE2 SHL DUP2 MSTORE DUP8 SWAP1 REVERT JUMPDEST DUP6 DUP1 REVERT JUMPDEST DUP5 DUP1 REVERT JUMPDEST POP POP CALLVALUE PUSH3 0x2C4 JUMPI DUP2 PUSH1 0x3 NOT CALLDATASIZE ADD SLT PUSH3 0x2C4 JUMPI PUSH1 0x20 SWAP1 MLOAD PUSH1 0x96 DUP2 MSTORE RETURN JUMPDEST POP POP CALLVALUE PUSH3 0x2C4 JUMPI DUP2 PUSH1 0x3 NOT CALLDATASIZE ADD SLT PUSH3 0x2C4 JUMPI PUSH1 0x20 SWAP1 PUSH1 0xB SLOAD SWAP1 MLOAD SWAP1 DUP2 MSTORE RETURN JUMPDEST POP POP CALLVALUE PUSH3 0x2C4 JUMPI DUP2 PUSH1 0x3 NOT CALLDATASIZE ADD SLT PUSH3 0x2C4 JUMPI SWAP1 SLOAD SWAP1 MLOAD PUSH1 0x1 PUSH1 0x1 PUSH1 0xA0 SHL SUB SWAP1 SWAP2 AND DUP2 MSTORE PUSH1 0x20 SWAP1 RETURN JUMPDEST POP SWAP2 CALLVALUE PUSH3 0x426 JUMPI PUSH1 0x20 CALLDATASIZE PUSH1 0x3 NOT ADD SLT PUSH3 0x426 JUMPI PUSH1 0x1 PUSH1 0x1 PUSH1 0xA0 SHL SUB PUSH3 0x99E PUSH3 0xF3C JUMP JUMPDEST AND DUP2 MSTORE PUSH1 0x2 PUSH1 0x20 MSTORE DUP2 DUP2 KECCAK256 PUSH1 0x2 DUP2 ADD SLOAD SWAP2 PUSH8 0xDE0B6B3A7640000 SWAP3 DUP4 DUP2 MUL SWAP4 DUP2 DUP6 DIV EQ SWAP1 ISZERO OR ISZERO PUSH3 0x9DE JUMPI PUSH1 0x20 DUP5 PUSH3 0x40C DUP6 PUSH1 0x3 DUP7 ADD SLOAD SWAP1 PUSH3 0x1160 JUMP JUMPDEST PUSH4 0x4E487B71 PUSH1 0xE0 SHL DUP2 MSTORE PUSH1 0x11 DUP6 MSTORE PUSH1 0x24 SWAP1 REVERT JUMPDEST POP CALLVALUE PUSH3 0x22C JUMPI DUP3 PUSH1 0x3 NOT CALLDATASIZE ADD SLT PUSH3 0x22C JUMPI SLOAD SWAP1 MLOAD PUSH1 0x1 PUSH1 0x1 PUSH1 0xA0 SHL SUB SWAP1 SWAP2 AND DUP2 MSTORE PUSH1 0x20 SWAP2 POP RETURN JUMPDEST DUP4 CALLVALUE PUSH3 0x426 JUMPI DUP1 PUSH1 0x3 NOT CALLDATASIZE ADD SLT PUSH3 0x426 JUMPI PUSH3 0xA37 PUSH3 0x1060 JUMP JUMPDEST DUP1 SLOAD PUSH1 0x1 PUSH1 0x1 PUSH1 0xA0 SHL SUB NOT DUP2 AND DUP3 SSTORE DUP2 SWAP1 PUSH1 0x1 PUSH1 0x1 PUSH1 0xA0 SHL SUB AND PUSH32 0x8BE0079C531659141344CD1FD0A4F28419497F9722A3DAAFE3B4186F6B6457E0 DUP3 DUP1 LOG3 DUP1 RETURN JUMPDEST POP POP CALLVALUE PUSH3 0x2C4 JUMPI DUP2 PUSH1 0x3 NOT CALLDATASIZE ADD SLT PUSH3 0x2C4 JUMPI PUSH1 0x20 SWAP1 PUSH1 0xA SLOAD SWAP1 MLOAD SWAP1 DUP2 MSTORE RETURN JUMPDEST POP CALLVALUE PUSH3 0x22C JUMPI PUSH1 0x20 CALLDATASIZE PUSH1 0x3 NOT ADD SLT PUSH3 0x22C JUMPI CALLDATALOAD SWAP2 PUSH1 0x3 SLOAD DUP4 LT ISZERO PUSH3 0x426 JUMPI POP PUSH3 0xAC8 PUSH1 0x20 SWAP3 PUSH3 0xF6F JUMP JUMPDEST PUSH1 0x1 DUP1 PUSH1 0xA0 SHL SUB SWAP2 SLOAD SWAP1 PUSH1 0x3 SHL SHR AND SWAP1 MLOAD SWAP1 DUP2 MSTORE RETURN JUMPDEST POP SWAP2 CALLVALUE PUSH3 0x426 JUMPI DUP2 PUSH1 0x3 NOT CALLDATASIZE ADD SLT PUSH3 0x426 JUMPI PUSH1 0x1 PUSH1 0x1 PUSH1 0xA0 SHL SUB PUSH3 0xB04 PUSH3 0xF3C JUMP JUMPDEST AND DUP2 MSTORE PUSH1 0x2 PUSH1 0x20 MSTORE PUSH3 0xB3C DUP3 DUP3 KECCAK256 PUSH3 0x405 PUSH1 0x3 DUP3 ADD SLOAD SWAP2 PUSH3 0x3FF PUSH1 0x2 PUSH3 0xB31 PUSH1 0x24 CALLDATALOAD DUP7 PUSH3 0x1181 JUMP JUMPDEST SWAP3 ADD SLOAD SWAP4 DUP5 PUSH3 0x114C JUMP JUMPDEST SWAP1 PUSH1 0x96 DUP3 MUL SWAP1 DUP3 DUP3 DIV PUSH1 0x96 EQ DUP4 ISZERO OR ISZERO PUSH3 0x9DE JUMPI PUSH1 0x20 DUP5 PUSH3 0x40C PUSH2 0x2710 DUP6 DIV DUP7 PUSH3 0x10C2 JUMP JUMPDEST POP CALLVALUE PUSH3 0x22C JUMPI PUSH1 0x20 CALLDATASIZE PUSH1 0x3 NOT ADD SLT PUSH3 0x22C JUMPI PUSH32 0xEF772BBCF0F90DB491AAF9F8B6712E886B3A90BB136181A52B675F4C2F11D937 SWAP1 CALLDATALOAD SWAP2 PUSH3 0xBA6 PUSH3 0x1060 JUMP JUMPDEST PUSH1 0xC SLOAD DUP2 MLOAD SWAP1 DUP2 MSTORE DUP4 PUSH1 0x20 DUP3 ADD MSTORE LOG1 PUSH1 0xC SSTORE DUP1 RETURN JUMPDEST POP SWAP2 SWAP1 DUP1 PUSH1 0x3 NOT CALLDATASIZE ADD SLT PUSH3 0x2C4 JUMPI PUSH3 0xBD4 PUSH3 0xF3C JUMP JUMPDEST PUSH1 0x24 CALLDATALOAD SWAP2 PUSH1 0x1 PUSH1 0x1 PUSH1 0xA0 SHL SUB DUP4 AND DUP4 SUB PUSH3 0xC21 JUMPI PUSH3 0xBF3 PUSH3 0x1128 JUMP JUMPDEST CALLVALUE ISZERO PUSH3 0xC12 JUMPI POP SWAP1 PUSH3 0xC0B SWAP2 CALLVALUE SWAP1 CALLER SWAP1 PUSH3 0x11A9 JUMP JUMPDEST PUSH1 0x1 DUP1 SSTORE DUP1 RETURN JUMPDEST MLOAD PUSH4 0x1F2A2005 PUSH1 0xE0 SHL DUP2 MSTORE DUP5 SWAP1 REVERT JUMPDEST DUP4 DUP1 REVERT JUMPDEST POP SWAP2 SWAP1 CALLVALUE PUSH3 0x2C4 JUMPI PUSH1 0x60 CALLDATASIZE PUSH1 0x3 NOT ADD SLT PUSH3 0x2C4 JUMPI PUSH3 0xC45 PUSH3 0xF3C JUMP JUMPDEST PUSH1 0x24 CALLDATALOAD SWAP1 PUSH3 0xC53 PUSH3 0xF58 JUMP JUMPDEST SWAP1 PUSH3 0xC5E PUSH3 0x1128 JUMP JUMPDEST DUP3 ISZERO PUSH3 0xEC4 JUMPI PUSH1 0x1 PUSH1 0x1 PUSH1 0xA0 SHL SUB SWAP1 DUP2 AND DUP1 DUP7 MSTORE PUSH1 0x2 PUSH1 0x20 MSTORE DUP5 DUP7 KECCAK256 PUSH1 0x1 DUP2 ADD SLOAD SWAP2 SWAP4 SWAP2 DUP4 AND ISZERO PUSH3 0xEB4 JUMPI PUSH1 0xFF PUSH1 0x6 DUP3 ADD SLOAD AND PUSH3 0xEA4 JUMPI SWAP7 DUP8 PUSH1 0x3 PUSH3 0x3FF SWAP10 ADD DUP1 SLOAD SWAP1 PUSH3 0xCB1 DUP9 DUP4 PUSH3 0x1181 JUMP JUMPDEST SWAP2 PUSH3 0xCD2 PUSH3 0xCCA DUP5 PUSH1 0x2 DUP8 ADD SWAP15 DUP16 SLOAD SWAP5 DUP6 PUSH3 0x114C JUMP JUMPDEST DUP1 SWAP3 PUSH3 0x10C2 JUMP JUMPDEST SWAP12 DUP13 ISZERO DUP1 DUP1 ISZERO PUSH3 0xE97 JUMPI JUMPDEST PUSH3 0xE87 JUMPI SWAP1 DUP14 SWAP5 SWAP4 SWAP3 SWAP2 PUSH1 0x96 DUP7 MUL SWAP15 DUP16 DIV PUSH1 0x96 EQ OR ISZERO PUSH3 0xE74 JUMPI DUP5 DUP14 SWAP15 SWAP14 DUP12 DUP15 SWAP16 DUP15 SWAP16 SWAP12 SWAP13 SWAP14 SWAP15 PUSH1 0x64 DUP13 DUP6 PUSH3 0xD1E PUSH2 0x2710 PUSH1 0x20 SWAP7 DIV DUP1 SWAP10 PUSH3 0x10C2 JUMP JUMPDEST SWAP16 MLOAD SWAP6 DUP7 SWAP5 DUP6 SWAP4 PUSH4 0x23B872DD PUSH1 0xE0 SHL DUP6 MSTORE CALLER SWAP1 DUP6 ADD MSTORE ADDRESS PUSH1 0x24 DUP6 ADD MSTORE PUSH1 0x44 DUP5 ADD MSTORE GAS CALL SWAP2 DUP3 ISZERO PUSH3 0xE67 JUMPI SWAP2 PUSH3 0xE32 JUMPI JUMPDEST POP ISZERO PUSH3 0xE22 JUMPI DUP15 SWAP1 DUP12 DUP2 PUSH3 0xDED JUMPI JUMPDEST POP POP POP SSTORE SSTORE DUP3 DUP3 ADD DUP1 SLOAD PUSH1 0x5 SWAP4 SWAP3 PUSH3 0xD7A SWAP2 PUSH3 0x10C2 JUMP JUMPDEST SWAP1 SSTORE ADD PUSH3 0xD8A DUP8 DUP3 SLOAD PUSH3 0x1181 JUMP JUMPDEST SWAP1 SSTORE DUP8 DUP1 DUP1 DUP1 DUP6 CALLER GAS CALL PUSH3 0xD9E PUSH3 0x108D JUMP JUMPDEST POP ISZERO PUSH3 0xDDF JUMPI POP DUP6 MLOAD SWAP5 DUP6 MSTORE PUSH1 0x20 DUP6 ADD MSTORE AND SWAP3 CALLER SWAP3 PUSH32 0x4735A31B3EC23A057C88EE658E79BF4115C33E7D3B5DA900CF23C97844F1EC47 SWAP2 SWAP1 LOG4 PUSH1 0x1 DUP1 SSTORE DUP1 RETURN JUMPDEST DUP7 MLOAD PUSH4 0x12171D83 PUSH1 0xE3 SHL DUP2 MSTORE REVERT JUMPDEST DUP3 DUP1 SWAP3 DUP2 SWAP3 PUSH1 0x6 SLOAD AND GAS CALL PUSH3 0xE02 PUSH3 0x108D JUMP JUMPDEST POP ISZERO PUSH3 0xE12 JUMPI DUP14 CODESIZE DUP12 PUSH3 0xD61 JUMP JUMPDEST DUP13 MLOAD PUSH4 0x12171D83 PUSH1 0xE3 SHL DUP2 MSTORE DUP8 SWAP1 REVERT JUMPDEST DUP14 MLOAD PUSH4 0x12171D83 PUSH1 0xE3 SHL DUP2 MSTORE DUP9 SWAP1 REVERT JUMPDEST PUSH3 0xE58 SWAP2 POP PUSH1 0x20 RETURNDATASIZE DUP2 GT PUSH3 0xE5F JUMPI JUMPDEST PUSH3 0xE4F DUP2 DUP4 PUSH3 0xFBD JUMP JUMPDEST DUP2 ADD SWAP1 PUSH3 0x118F JUMP JUMPDEST CODESIZE PUSH3 0xD50 JUMP JUMPDEST POP RETURNDATASIZE PUSH3 0xE43 JUMP JUMPDEST SWAP1 POP DUP16 MLOAD SWAP1 RETURNDATASIZE SWAP1 DUP3 RETURNDATACOPY RETURNDATASIZE SWAP1 REVERT JUMPDEST PUSH4 0x4E487B71 PUSH1 0xE0 SHL DUP14 MSTORE PUSH1 0x11 DUP8 MSTORE PUSH1 0x24 DUP14 REVERT JUMPDEST DUP12 MLOAD PUSH4 0x28B35F21 PUSH1 0xE0 SHL DUP2 MSTORE DUP8 SWAP1 REVERT JUMPDEST POP DUP14 DUP8 DUP8 ADD SLOAD LT PUSH3 0xCDE JUMP JUMPDEST DUP6 MLOAD PUSH4 0xDCFBAAFD PUSH1 0xE0 SHL DUP2 MSTORE DUP9 SWAP1 REVERT JUMPDEST DUP6 MLOAD PUSH4 0xC1AB6DC1 PUSH1 0xE0 SHL DUP2 MSTORE DUP9 SWAP1 REVERT JUMPDEST DUP4 MLOAD PUSH4 0x1F2A2005 PUSH1 0xE0 SHL DUP2 MSTORE DUP7 SWAP1 REVERT JUMPDEST POP POP CALLVALUE PUSH3 0x2C4 JUMPI DUP2 PUSH1 0x3 NOT CALLDATASIZE ADD SLT PUSH3 0x2C4 JUMPI PUSH1 0x20 SWAP1 MLOAD PUSH2 0xDEAD DUP2 MSTORE RETURN JUMPDEST POP POP CALLVALUE PUSH3 0x2C4 JUMPI DUP2 PUSH1 0x3 NOT CALLDATASIZE ADD SLT PUSH3 0x2C4 JUMPI PUSH1 0x6 SLOAD SWAP1 MLOAD PUSH1 0x1 PUSH1 0x1 PUSH1 0xA0 SHL SUB SWAP1 SWAP2 AND DUP2 MSTORE PUSH1 0x20 SWAP1 RETURN JUMPDEST DUP5 SWAP1 CALLVALUE PUSH3 0x2C4 JUMPI DUP2 PUSH1 0x3 NOT CALLDATASIZE ADD SLT PUSH3 0x2C4 JUMPI PUSH1 0x20 SWAP1 PUSH1 0x9 SLOAD DUP2 MSTORE RETURN JUMPDEST PUSH1 0x4 CALLDATALOAD SWAP1 PUSH1 0x1 PUSH1 0x1 PUSH1 0xA0 SHL SUB DUP3 AND DUP3 SUB PUSH3 0xF53 JUMPI JUMP JUMPDEST PUSH1 0x0 DUP1 REVERT JUMPDEST PUSH1 0x44 CALLDATALOAD SWAP1 PUSH1 0x1 PUSH1 0x1 PUSH1 0xA0 SHL SUB DUP3 AND DUP3 SUB PUSH3 0xF53 JUMPI JUMP JUMPDEST PUSH1 0x3 SLOAD DUP2 LT ISZERO PUSH3 0xFA7 JUMPI PUSH1 0x3 PUSH1 0x0 MSTORE PUSH32 0xC2575A0E9E593C00F959F8C92F12DB2869C3395A3B0502D05E2516446F71F85B ADD SWAP1 PUSH1 0x0 SWAP1 JUMP JUMPDEST PUSH4 0x4E487B71 PUSH1 0xE0 SHL PUSH1 0x0 MSTORE PUSH1 0x32 PUSH1 0x4 MSTORE PUSH1 0x24 PUSH1 0x0 REVERT JUMPDEST SWAP1 PUSH1 0x1F DUP1 NOT SWAP2 ADD AND DUP2 ADD SWAP1 DUP2 LT PUSH8 0xFFFFFFFFFFFFFFFF DUP3 GT OR PUSH3 0xFE0 JUMPI PUSH1 0x40 MSTORE JUMP JUMPDEST PUSH4 0x4E487B71 PUSH1 0xE0 SHL PUSH1 0x0 MSTORE PUSH1 0x41 PUSH1 0x4 MSTORE PUSH1 0x24 PUSH1 0x0 REVERT JUMPDEST PUSH8 0xFFFFFFFFFFFFFFFF DUP2 GT PUSH3 0xFE0 JUMPI PUSH1 0x1F ADD PUSH1 0x1F NOT AND PUSH1 0x20 ADD SWAP1 JUMP JUMPDEST DUP2 PUSH1 0x1F DUP3 ADD SLT ISZERO PUSH3 0xF53 JUMPI DUP1 CALLDATALOAD SWAP1 PUSH3 0x102D DUP3 PUSH3 0xFF6 JUMP JUMPDEST SWAP3 PUSH3 0x103D PUSH1 0x40 MLOAD SWAP5 DUP6 PUSH3 0xFBD JUMP JUMPDEST DUP3 DUP5 MSTORE PUSH1 0x20 DUP4 DUP4 ADD ADD GT PUSH3 0xF53 JUMPI DUP2 PUSH1 0x0 SWAP3 PUSH1 0x20 DUP1 SWAP4 ADD DUP4 DUP7 ADD CALLDATACOPY DUP4 ADD ADD MSTORE SWAP1 JUMP JUMPDEST PUSH1 0x0 SLOAD PUSH1 0x1 PUSH1 0x1 PUSH1 0xA0 SHL SUB AND CALLER SUB PUSH3 0x1075 JUMPI JUMP JUMPDEST PUSH1 0x40 MLOAD PUSH4 0x118CDAA7 PUSH1 0xE0 SHL DUP2 MSTORE CALLER PUSH1 0x4 DUP3 ADD MSTORE PUSH1 0x24 SWAP1 REVERT JUMPDEST RETURNDATASIZE ISZERO PUSH3 0x10BD JUMPI RETURNDATASIZE SWAP1 PUSH3 0x10A1 DUP3 PUSH3 0xFF6 JUMP JUMPDEST SWAP2 PUSH3 0x10B1 PUSH1 0x40 MLOAD SWAP4 DUP5 PUSH3 0xFBD JUMP JUMPDEST DUP3 MSTORE RETURNDATASIZE PUSH1 0x0 PUSH1 0x20 DUP5 ADD RETURNDATACOPY JUMP JUMPDEST PUSH1 0x60 SWAP1 JUMP JUMPDEST SWAP2 SWAP1 DUP3 SUB SWAP2 DUP3 GT PUSH3 0x10D0 JUMPI JUMP JUMPDEST PUSH4 0x4E487B71 PUSH1 0xE0 SHL PUSH1 0x0 MSTORE PUSH1 0x11 PUSH1 0x4 MSTORE PUSH1 0x24 PUSH1 0x0 REVERT JUMPDEST SWAP2 SWAP1 DUP3 MLOAD SWAP3 DUP4 DUP3 MSTORE PUSH1 0x0 JUMPDEST DUP5 DUP2 LT PUSH3 0x1113 JUMPI POP POP DUP3 PUSH1 0x0 PUSH1 0x20 DUP1 SWAP5 SWAP6 DUP5 ADD ADD MSTORE PUSH1 0x1F DUP1 NOT SWAP2 ADD AND ADD ADD SWAP1 JUMP JUMPDEST PUSH1 0x20 DUP2 DUP4 ADD DUP2 ADD MLOAD DUP5 DUP4 ADD DUP3 ADD MSTORE ADD PUSH3 0x10F1 JUMP JUMPDEST PUSH1 0x2 PUSH1 0x1 SLOAD EQ PUSH3 0x113A JUMPI PUSH1 0x2 PUSH1 0x1 SSTORE JUMP JUMPDEST PUSH1 0x40 MLOAD PUSH4 0x3EE5AEB5 PUSH1 0xE0 SHL DUP2 MSTORE PUSH1 0x4 SWAP1 REVERT JUMPDEST DUP2 DUP2 MUL SWAP3 SWAP2 DUP2 ISZERO SWAP2 DUP5 DIV EQ OR ISZERO PUSH3 0x10D0 JUMPI JUMP JUMPDEST DUP2 ISZERO PUSH3 0x116B JUMPI DIV SWAP1 JUMP JUMPDEST PUSH4 0x4E487B71 PUSH1 0xE0 SHL PUSH1 0x0 MSTORE PUSH1 0x12 PUSH1 0x4 MSTORE PUSH1 0x24 PUSH1 0x0 REVERT JUMPDEST SWAP2 SWAP1 DUP3 ADD DUP1 SWAP3 GT PUSH3 0x10D0 JUMPI JUMP JUMPDEST SWAP1 DUP2 PUSH1 0x20 SWAP2 SUB SLT PUSH3 0xF53 JUMPI MLOAD DUP1 ISZERO ISZERO DUP2 SUB PUSH3 0xF53 JUMPI SWAP1 JUMP JUMPDEST PUSH1 0x1 PUSH1 0x1 PUSH1 0xA0 SHL SUB DUP1 DUP3 AND PUSH1 0x0 SWAP1 DUP2 MSTORE PUSH1 0x2 PUSH1 0x20 MSTORE PUSH1 0x40 SWAP1 KECCAK256 PUSH1 0x1 DUP2 ADD SLOAD SWAP3 SWAP6 SWAP1 SWAP3 SWAP1 SWAP2 AND ISZERO PUSH3 0x16DE JUMPI PUSH1 0xFF PUSH1 0x6 DUP4 ADD SLOAD AND PUSH3 0x16CC JUMPI PUSH1 0x96 DUP5 MUL DUP5 DUP2 DIV PUSH1 0x96 EQ DUP6 ISZERO OR ISZERO PUSH3 0x10D0 JUMPI PUSH2 0x2710 SWAP1 DIV SWAP4 PUSH3 0x1206 DUP6 DUP3 PUSH3 0x10C2 JUMP JUMPDEST SWAP5 DUP1 PUSH3 0x169D JUMPI JUMPDEST POP DUP3 PUSH1 0x2 PUSH3 0x123E SWAP5 ADD SLOAD PUSH3 0x1246 PUSH1 0x3 DUP4 ADD SLOAD SWAP6 DUP3 PUSH3 0x3FF PUSH3 0x1235 DUP12 DUP11 SWAP7 PUSH3 0x1181 JUMP JUMPDEST SWAP5 DUP6 SWAP3 PUSH3 0x114C JUMP JUMPDEST DUP1 SWAP7 PUSH3 0x10C2 JUMP JUMPDEST SWAP5 PUSH1 0x5 DUP4 ADD SLOAD SWAP2 DUP3 DUP8 GT PUSH3 0x168B JUMPI PUSH1 0x5 SWAP3 PUSH3 0x1282 SWAP3 DUP9 SWAP3 PUSH1 0x2 DUP8 ADD SSTORE PUSH1 0x3 DUP7 ADD SSTORE PUSH3 0x127A PUSH1 0x4 DUP7 ADD SWAP11 DUP12 SLOAD PUSH3 0x1181 JUMP JUMPDEST DUP11 SSTORE PUSH3 0x10C2 JUMP JUMPDEST SWAP2 ADD SSTORE PUSH1 0x40 MLOAD PUSH4 0xA9059CBB PUSH1 0xE0 SHL DUP2 MSTORE PUSH1 0x1 PUSH1 0x1 PUSH1 0xA0 SHL SUB DUP6 AND PUSH1 0x4 DUP3 ADD MSTORE PUSH1 0x24 DUP2 ADD DUP5 SWAP1 MSTORE PUSH1 0x20 DUP2 DUP1 PUSH1 0x44 DUP2 ADD SUB DUP2 PUSH1 0x0 PUSH1 0x1 PUSH1 0x1 PUSH1 0xA0 SHL SUB DUP13 AND GAS CALL SWAP1 DUP2 ISZERO PUSH3 0x1590 JUMPI PUSH1 0x0 SWAP2 PUSH3 0x1667 JUMPI JUMPDEST POP ISZERO PUSH3 0x1655 JUMPI PUSH1 0x40 DUP1 MLOAD SWAP4 DUP5 MSTORE PUSH1 0x20 DUP5 ADD SWAP2 SWAP1 SWAP2 MSTORE PUSH1 0x1 PUSH1 0x1 PUSH1 0xA0 SHL SUB SWAP2 DUP3 AND SWAP4 DUP3 AND SWAP3 SWAP2 DUP7 AND SWAP2 PUSH32 0xE4C62F62C45A0251C0C1BCC84DE28BF8C9575B0841FC32FC2C94D889BAF6AF31 SWAP2 SWAP1 LOG4 SLOAD PUSH1 0xB SLOAD GT ISZERO PUSH3 0x132C JUMPI POP JUMP JUMPDEST PUSH1 0x1 PUSH1 0x1 PUSH1 0xA0 SHL SUB DUP2 AND PUSH1 0x0 DUP2 DUP2 MSTORE PUSH1 0x2 PUSH1 0x20 SWAP1 DUP2 MSTORE PUSH1 0x40 SWAP2 DUP3 SWAP1 KECCAK256 PUSH1 0x6 DUP2 ADD DUP1 SLOAD PUSH1 0xFF NOT AND PUSH1 0x1 OR SWAP1 SSTORE SWAP2 MLOAD PUSH4 0x70A08231 PUSH1 0xE0 SHL DUP2 MSTORE ADDRESS PUSH1 0x4 DUP3 ADD MSTORE SWAP2 SWAP4 SELFBALANCE SWAP4 SWAP1 SWAP3 SWAP2 SWAP1 DUP3 SWAP1 PUSH1 0x24 SWAP1 DUP3 SWAP1 GAS STATICCALL SWAP1 DUP2 ISZERO PUSH3 0x1590 JUMPI PUSH1 0x0 SWAP2 PUSH3 0x161C JUMPI JUMPDEST POP PUSH1 0x5 PUSH1 0x0 SWAP2 PUSH3 0x13B1 PUSH3 0x13A5 PUSH1 0x3 DUP9 ADD SLOAD DUP8 PUSH3 0x114C JUMP JUMPDEST PUSH1 0x2 DUP9 ADD SLOAD SWAP1 PUSH3 0x1160 JUMP JUMPDEST SWAP1 DUP1 DUP3 LT DUP5 EQ PUSH3 0x1613 JUMPI POP SWAP5 JUMPDEST PUSH1 0x4 DUP2 DUP2 ADD DUP5 SWAP1 SSTORE SWAP2 ADD SWAP2 SWAP1 SWAP2 SSTORE DUP1 SLOAD PUSH1 0x40 MLOAD PUSH4 0x95EA7B3 PUSH1 0xE0 SHL DUP2 MSTORE PUSH1 0x1 PUSH1 0x1 PUSH1 0xA0 SHL SUB SWAP1 SWAP2 AND SWAP2 DUP2 ADD SWAP2 SWAP1 SWAP2 MSTORE PUSH1 0x24 DUP2 ADD DUP5 SWAP1 MSTORE PUSH1 0x20 DUP2 DUP1 PUSH1 0x44 DUP2 ADD SUB DUP2 PUSH1 0x0 PUSH1 0x1 PUSH1 0x1 PUSH1 0xA0 SHL SUB DUP8 AND GAS CALL DUP1 ISZERO PUSH3 0x1590 JUMPI PUSH3 0x15EF JUMPI JUMPDEST POP PUSH1 0x4 SLOAD PUSH1 0x1 PUSH1 0x1 PUSH1 0xA0 SHL SUB AND TIMESTAMP PUSH2 0x12C DUP2 ADD SWAP1 DUP2 LT PUSH3 0x10D0 JUMPI DUP4 SWAP2 PUSH1 0xC4 PUSH1 0x60 SWAP3 PUSH1 0x40 MLOAD SWAP5 DUP6 SWAP4 DUP5 SWAP3 PUSH4 0xF305D719 PUSH1 0xE0 SHL DUP5 MSTORE PUSH1 0x1 DUP1 PUSH1 0xA0 SHL SUB DUP10 AND PUSH1 0x4 DUP6 ADD MSTORE DUP11 PUSH1 0x24 DUP6 ADD MSTORE PUSH1 0x0 PUSH1 0x44 DUP6 ADD MSTORE PUSH1 0x0 PUSH1 0x64 DUP6 ADD MSTORE PUSH2 0xDEAD PUSH1 0x84 DUP6 ADD MSTORE PUSH1 0xA4 DUP5 ADD MSTORE GAS CALL DUP1 ISZERO PUSH3 0x1590 JUMPI PUSH3 0x15BE JUMPI JUMPDEST POP PUSH1 0x4 DUP1 SLOAD PUSH1 0x40 MLOAD PUSH4 0xC45A0155 PUSH1 0xE0 SHL DUP2 MSTORE SWAP3 SWAP2 PUSH1 0x20 SWAP2 DUP5 SWAP2 SWAP1 DUP3 SWAP1 PUSH1 0x1 PUSH1 0x1 PUSH1 0xA0 SHL SUB AND GAS STATICCALL SWAP2 DUP3 ISZERO PUSH3 0x1590 JUMPI PUSH3 0x1504 SWAP3 PUSH1 0x20 SWAP2 PUSH1 0x0 SWAP2 PUSH3 0x159C JUMPI JUMPDEST POP PUSH1 0x5 SLOAD PUSH1 0x40 MLOAD PUSH4 0xE6A43905 PUSH1 0xE0 SHL DUP2 MSTORE PUSH1 0x1 PUSH1 0x1 PUSH1 0xA0 SHL SUB DUP6 DUP2 AND PUSH1 0x4 DUP4 ADD MSTORE SWAP1 SWAP2 AND PUSH1 0x24 DUP3 ADD MSTORE SWAP4 DUP5 SWAP2 SWAP1 DUP3 SWAP1 DUP2 SWAP1 PUSH1 0x44 DUP3 ADD SWAP1 JUMP JUMPDEST SUB SWAP2 PUSH1 0x1 PUSH1 0x1 PUSH1 0xA0 SHL SUB AND GAS STATICCALL DUP1 ISZERO PUSH3 0x1590 JUMPI PUSH32 0xA44C03AAF0B9A5FCBA3A779474F4366EA6283072D24C8082199F204872B15973 SWAP4 PUSH1 0x60 SWAP4 PUSH1 0x0 SWAP3 PUSH3 0x156A JUMPI JUMPDEST POP PUSH1 0x40 DUP1 MLOAD SWAP7 DUP8 MSTORE PUSH1 0x20 DUP8 ADD SWAP2 SWAP1 SWAP2 MSTORE PUSH1 0x1 PUSH1 0x1 PUSH1 0xA0 SHL SUB SWAP2 DUP3 AND SWAP1 DUP7 ADD MSTORE AND SWAP3 LOG2 JUMP JUMPDEST PUSH3 0x1588 SWAP2 SWAP3 POP PUSH1 0x20 RETURNDATASIZE PUSH1 0x20 GT PUSH3 0x50B JUMPI PUSH3 0x4FB DUP2 DUP4 PUSH3 0xFBD JUMP JUMPDEST SWAP1 CODESIZE PUSH3 0x1546 JUMP JUMPDEST PUSH1 0x40 MLOAD RETURNDATASIZE PUSH1 0x0 DUP3 RETURNDATACOPY RETURNDATASIZE SWAP1 REVERT JUMPDEST PUSH3 0x15B7 SWAP2 POP DUP3 RETURNDATASIZE DUP5 GT PUSH3 0x50B JUMPI PUSH3 0x4FB DUP2 DUP4 PUSH3 0xFBD JUMP JUMPDEST CODESIZE PUSH3 0x14CC JUMP JUMPDEST PUSH1 0x60 SWAP1 DUP2 RETURNDATASIZE DUP2 GT PUSH3 0x15E7 JUMPI JUMPDEST PUSH3 0x15D7 DUP2 DUP4 PUSH3 0xFBD JUMP JUMPDEST DUP2 ADD SUB SLT PUSH3 0xF53 JUMPI CODESIZE PUSH3 0x148C JUMP JUMPDEST POP RETURNDATASIZE PUSH3 0x15CB JUMP JUMPDEST PUSH3 0x160B SWAP1 PUSH1 0x20 RETURNDATASIZE PUSH1 0x20 GT PUSH3 0xE5F JUMPI PUSH3 0xE4F DUP2 DUP4 PUSH3 0xFBD JUMP JUMPDEST POP CODESIZE PUSH3 0x141A JUMP JUMPDEST SWAP1 POP SWAP5 PUSH3 0x13BF JUMP JUMPDEST SWAP1 POP PUSH1 0x20 DUP2 RETURNDATASIZE PUSH1 0x20 GT PUSH3 0x164C JUMPI JUMPDEST DUP2 PUSH3 0x163A PUSH1 0x20 SWAP4 DUP4 PUSH3 0xFBD JUMP JUMPDEST DUP2 ADD SUB SLT PUSH3 0xF53 JUMPI MLOAD PUSH1 0x5 PUSH3 0x138B JUMP JUMPDEST RETURNDATASIZE SWAP2 POP PUSH3 0x162B JUMP JUMPDEST PUSH1 0x40 MLOAD PUSH4 0x12171D83 PUSH1 0xE3 SHL DUP2 MSTORE PUSH1 0x4 SWAP1 REVERT JUMPDEST PUSH3 0x1684 SWAP2 POP PUSH1 0x20 RETURNDATASIZE PUSH1 0x20 GT PUSH3 0xE5F JUMPI PUSH3 0xE4F DUP2 DUP4 PUSH3 0xFBD JUMP JUMPDEST CODESIZE PUSH3 0x12D1 JUMP JUMPDEST PUSH1 0x40 MLOAD PUSH4 0x28B35F21 PUSH1 0xE0 SHL DUP2 MSTORE PUSH1 0x4 SWAP1 REVERT JUMPDEST PUSH1 0x6 SLOAD PUSH1 0x0 SWAP2 DUP3 SWAP2 DUP3 SWAP2 DUP3 SWAP2 PUSH1 0x1 PUSH1 0x1 PUSH1 0xA0 SHL SUB AND GAS CALL PUSH3 0x16BE PUSH3 0x108D JUMP JUMPDEST POP ISZERO PUSH3 0x1655 JUMPI CODESIZE PUSH3 0x120E JUMP JUMPDEST PUSH1 0x40 MLOAD PUSH4 0xDCFBAAFD PUSH1 0xE0 SHL DUP2 MSTORE PUSH1 0x4 SWAP1 REVERT JUMPDEST PUSH1 0x40 MLOAD PUSH4 0xC1AB6DC1 PUSH1 0xE0 SHL DUP2 MSTORE PUSH1 0x4 SWAP1 REVERT JUMPDEST SWAP1 DUP2 PUSH1 0x20 SWAP2 SUB SLT PUSH3 0xF53 JUMPI MLOAD PUSH1 0x1 PUSH1 0x1 PUSH1 0xA0 SHL SUB DUP2 AND DUP2 SUB PUSH3 0xF53 JUMPI SWAP1 JUMP JUMPDEST PUSH1 0x1 PUSH1 0x1 PUSH1 0xA0 SHL SUB AND PUSH1 0x0 SWAP1 DUP2 MSTORE PUSH1 0x2 PUSH1 0x20 MSTORE PUSH1 0x40 SWAP1 KECCAK256 PUSH1 0x6 DUP2 ADD SLOAD PUSH1 0xFF AND PUSH3 0x176E JUMPI PUSH1 0x4 ADD SLOAD SWAP1 PUSH2 0x2710 SWAP2 DUP3 DUP2 MUL SWAP1 DUP1 DUP3 DIV DUP5 EQ SWAP1 ISZERO OR ISZERO PUSH3 0x10D0 JUMPI PUSH1 0xB SLOAD PUSH3 0x175E SWAP2 PUSH3 0x1160 JUMP JUMPDEST SWAP2 DUP1 DUP4 GT PUSH3 0x176A JUMPI POP JUMP JUMPDEST SWAP2 POP JUMP JUMPDEST POP PUSH2 0x2710 SWAP1 JUMP INVALID PUSH1 0x40 PUSH1 0xA0 DUP2 MSTORE CALLVALUE PUSH3 0x3C8 JUMPI PUSH3 0xC58 SWAP1 DUP2 CODESIZE SUB DUP1 PUSH3 0x1F DUP2 PUSH3 0x3CD JUMP JUMPDEST SWAP4 DUP5 CODECOPY DUP3 ADD PUSH1 0x60 DUP4 DUP3 SUB SLT PUSH3 0x3C8 JUMPI DUP3 MLOAD PUSH1 0x1 PUSH1 0x1 PUSH1 0x40 SHL SUB SWAP1 DUP2 DUP2 GT PUSH3 0x3C8 JUMPI DUP3 PUSH3 0x50 SWAP2 DUP7 ADD PUSH3 0x3F3 JUMP JUMPDEST PUSH1 0x20 SWAP3 DUP4 DUP7 ADD MLOAD DUP4 DUP2 GT PUSH3 0x3C8 JUMPI DUP6 SWAP2 PUSH3 0x6E SWAP2 DUP9 ADD PUSH3 0x3F3 JUMP JUMPDEST SWAP6 ADD MLOAD PUSH1 0x1 PUSH1 0x1 PUSH1 0xA0 SHL SUB DUP2 AND SUB PUSH3 0x3C8 JUMPI DUP1 MLOAD SWAP2 DUP1 DUP4 GT PUSH3 0x3B2 JUMPI PUSH1 0x0 SWAP3 DUP4 SLOAD SWAP1 PUSH1 0x1 SWAP4 DUP5 DUP4 DUP2 SHR SWAP4 AND DUP1 ISZERO PUSH3 0x3A7 JUMPI JUMPDEST DUP8 DUP5 LT EQ PUSH3 0x393 JUMPI DUP2 SWAP1 PUSH1 0x1F SWAP4 DUP5 DUP2 GT PUSH3 0x340 JUMPI JUMPDEST POP DUP8 SWAP1 DUP5 DUP4 GT PUSH1 0x1 EQ PUSH3 0x2DC JUMPI DUP8 SWAP3 PUSH3 0x2D0 JUMPI JUMPDEST POP POP PUSH1 0x0 NOT PUSH1 0x3 DUP4 SWAP1 SHL SHR NOT AND SWAP1 DUP5 SHL OR DUP5 SSTORE JUMPDEST DUP7 MLOAD SWAP2 DUP3 GT PUSH3 0x2BC JUMPI DUP3 SLOAD DUP4 DUP2 DUP2 SHR SWAP2 AND DUP1 ISZERO PUSH3 0x2B1 JUMPI JUMPDEST DUP7 DUP3 LT EQ PUSH3 0x29D JUMPI DUP2 DUP2 GT PUSH3 0x255 JUMPI JUMPDEST POP DUP5 SWAP1 DUP3 GT PUSH1 0x1 EQ PUSH3 0x1F2 JUMPI DUP4 SWAP5 SWAP6 SWAP7 DUP3 SWAP4 SWAP5 SWAP3 PUSH3 0x1E6 JUMPI JUMPDEST POP POP PUSH1 0x0 NOT PUSH1 0x3 DUP4 SWAP1 SHL SHR NOT AND SWAP1 DUP3 SHL OR SWAP1 SSTORE JUMPDEST CALLER PUSH1 0x80 MSTORE PUSH12 0x33B2E3C9FD0803CE8000000 SWAP2 DUP3 PUSH3 0x15F PUSH1 0x2 SLOAD PUSH3 0x465 JUMP JUMPDEST GT PUSH3 0x1D5 JUMPI PUSH32 0xDDF252AD1BE2C89B69C2B068FC378DAA952BA7F163C4A11628F55A4DF523B3EF SWAP1 CALLER DUP4 MSTORE PUSH1 0x3 DUP2 MSTORE DUP5 DUP4 KECCAK256 PUSH3 0x19D DUP2 SLOAD PUSH3 0x465 JUMP JUMPDEST SWAP1 SSTORE PUSH3 0x1AC PUSH1 0x2 SLOAD PUSH3 0x465 JUMP JUMPDEST PUSH1 0x2 SSTORE DUP5 MLOAD SWAP4 DUP5 MSTORE CALLER SWAP4 LOG3 MLOAD PUSH2 0x7C2 SWAP1 DUP2 PUSH3 0x496 DUP3 CODECOPY PUSH1 0x80 MLOAD DUP2 DUP2 DUP2 PUSH2 0x107 ADD MSTORE PUSH2 0x36C ADD MSTORE RETURN JUMPDEST DUP4 MLOAD PUSH4 0x8A164F63 PUSH1 0xE0 SHL DUP2 MSTORE PUSH1 0x4 SWAP1 REVERT JUMPDEST ADD MLOAD SWAP1 POP CODESIZE DUP1 PUSH3 0x12B JUMP JUMPDEST DUP3 DUP5 MSTORE DUP5 DUP5 KECCAK256 SWAP1 PUSH1 0x1F NOT DUP4 AND DUP6 JUMPDEST DUP2 DUP2 LT PUSH3 0x23F JUMPI POP SWAP8 DUP4 DUP6 SWAP7 SWAP8 SWAP9 SWAP10 LT PUSH3 0x225 JUMPI JUMPDEST POP POP POP DUP2 SHL ADD SWAP1 SSTORE PUSH3 0x13F JUMP JUMPDEST ADD MLOAD PUSH1 0x0 NOT PUSH1 0xF8 DUP5 PUSH1 0x3 SHL AND SHR NOT AND SWAP1 SSTORE CODESIZE DUP1 DUP1 PUSH3 0x217 JUMP JUMPDEST DUP10 DUP4 ADD MLOAD DUP5 SSTORE SWAP3 DUP6 ADD SWAP3 SWAP2 DUP8 ADD SWAP2 DUP8 ADD PUSH3 0x200 JUMP JUMPDEST DUP4 DUP6 MSTORE DUP6 DUP6 KECCAK256 DUP3 DUP1 DUP6 ADD PUSH1 0x5 SHR DUP3 ADD SWAP3 DUP9 DUP7 LT PUSH3 0x293 JUMPI JUMPDEST ADD PUSH1 0x5 SHR ADD SWAP1 DUP5 SWAP1 JUMPDEST DUP3 DUP2 LT PUSH3 0x287 JUMPI POP POP PUSH3 0x110 JUMP JUMPDEST DUP7 DUP2 SSTORE ADD DUP5 SWAP1 PUSH3 0x277 JUMP JUMPDEST SWAP3 POP DUP2 SWAP3 PUSH3 0x26E JUMP JUMPDEST PUSH4 0x4E487B71 PUSH1 0xE0 SHL DUP6 MSTORE PUSH1 0x22 PUSH1 0x4 MSTORE PUSH1 0x24 DUP6 REVERT JUMPDEST SWAP1 PUSH1 0x7F AND SWAP1 PUSH3 0xFE JUMP JUMPDEST PUSH4 0x4E487B71 PUSH1 0xE0 SHL DUP5 MSTORE PUSH1 0x41 PUSH1 0x4 MSTORE PUSH1 0x24 DUP5 REVERT JUMPDEST ADD MLOAD SWAP1 POP CODESIZE DUP1 PUSH3 0xD0 JUMP JUMPDEST DUP8 DUP1 MSTORE DUP9 DUP9 KECCAK256 DUP8 SWAP5 POP SWAP2 SWAP1 PUSH1 0x1F NOT DUP5 AND DUP10 JUMPDEST DUP12 DUP3 DUP3 LT PUSH3 0x329 JUMPI POP POP DUP5 GT PUSH3 0x30F JUMPI JUMPDEST POP POP POP DUP2 SHL ADD DUP5 SSTORE PUSH3 0xE4 JUMP JUMPDEST ADD MLOAD PUSH1 0x0 NOT PUSH1 0xF8 DUP5 PUSH1 0x3 SHL AND SHR NOT AND SWAP1 SSTORE CODESIZE DUP1 DUP1 PUSH3 0x301 JUMP JUMPDEST DUP4 DUP6 ADD MLOAD DUP7 SSTORE DUP11 SWAP8 SWAP1 SWAP6 ADD SWAP5 SWAP4 DUP5 ADD SWAP4 ADD PUSH3 0x2EE JUMP JUMPDEST SWAP1 SWAP2 POP DUP7 DUP1 MSTORE DUP8 DUP8 KECCAK256 DUP5 DUP1 DUP6 ADD PUSH1 0x5 SHR DUP3 ADD SWAP3 DUP11 DUP7 LT PUSH3 0x389 JUMPI JUMPDEST SWAP2 DUP9 SWAP2 DUP7 SWAP6 SWAP5 SWAP4 ADD PUSH1 0x5 SHR ADD SWAP2 JUMPDEST DUP3 DUP2 LT PUSH3 0x37A JUMPI POP POP PUSH3 0xBA JUMP JUMPDEST DUP10 DUP2 SSTORE DUP6 SWAP5 POP DUP9 SWAP2 ADD PUSH3 0x36A JUMP JUMPDEST SWAP3 POP DUP2 SWAP3 PUSH3 0x35C JUMP JUMPDEST PUSH4 0x4E487B71 PUSH1 0xE0 SHL DUP7 MSTORE PUSH1 0x22 PUSH1 0x4 MSTORE PUSH1 0x24 DUP7 REVERT JUMPDEST SWAP3 PUSH1 0x7F AND SWAP3 PUSH3 0xA3 JUMP JUMPDEST PUSH4 0x4E487B71 PUSH1 0xE0 SHL PUSH1 0x0 MSTORE PUSH1 0x41 PUSH1 0x4 MSTORE PUSH1 0x24 PUSH1 0x0 REVERT JUMPDEST PUSH1 0x0 DUP1 REVERT JUMPDEST PUSH1 0x40 MLOAD SWAP2 SWAP1 PUSH1 0x1F ADD PUSH1 0x1F NOT AND DUP3 ADD PUSH1 0x1 PUSH1 0x1 PUSH1 0x40 SHL SUB DUP2 GT DUP4 DUP3 LT OR PUSH3 0x3B2 JUMPI PUSH1 0x40 MSTORE JUMP JUMPDEST SWAP2 SWAP1 DUP1 PUSH1 0x1F DUP5 ADD SLT ISZERO PUSH3 0x3C8 JUMPI DUP3 MLOAD PUSH1 0x1 PUSH1 0x1 PUSH1 0x40 SHL SUB DUP2 GT PUSH3 0x3B2 JUMPI PUSH1 0x20 SWAP1 PUSH3 0x429 PUSH1 0x1F DUP3 ADD PUSH1 0x1F NOT AND DUP4 ADD PUSH3 0x3CD JUMP JUMPDEST SWAP3 DUP2 DUP5 MSTORE DUP3 DUP3 DUP8 ADD ADD GT PUSH3 0x3C8 JUMPI PUSH1 0x0 JUMPDEST DUP2 DUP2 LT PUSH3 0x451 JUMPI POP DUP3 PUSH1 0x0 SWAP4 SWAP5 SWAP6 POP ADD ADD MSTORE SWAP1 JUMP JUMPDEST DUP6 DUP2 ADD DUP4 ADD MLOAD DUP5 DUP3 ADD DUP5 ADD MSTORE DUP3 ADD PUSH3 0x43B JUMP JUMPDEST SWAP1 PUSH12 0x33B2E3C9FD0803CE8000000 DUP3 ADD DUP1 SWAP3 GT PUSH3 0x47F JUMPI JUMP JUMPDEST PUSH4 0x4E487B71 PUSH1 0xE0 SHL PUSH1 0x0 MSTORE PUSH1 0x11 PUSH1 0x4 MSTORE PUSH1 0x24 PUSH1 0x0 REVERT INVALID PUSH1 0x80 PUSH1 0x40 DUP2 DUP2 MSTORE PUSH1 0x4 DUP1 CALLDATASIZE LT ISZERO PUSH2 0x15 JUMPI PUSH1 0x0 DUP1 REVERT JUMPDEST PUSH1 0x0 SWAP3 DUP4 CALLDATALOAD PUSH1 0xE0 SHR SWAP1 DUP2 PUSH4 0x6FDDE03 EQ PUSH2 0x5EF JUMPI POP DUP1 PUSH4 0x95EA7B3 EQ PUSH2 0x581 JUMPI DUP1 PUSH4 0x18160DDD EQ PUSH2 0x562 JUMPI DUP1 PUSH4 0x23B872DD EQ PUSH2 0x468 JUMPI DUP1 PUSH4 0x313CE567 EQ PUSH2 0x44C JUMPI DUP1 PUSH4 0x32CB6B0C EQ PUSH2 0x425 JUMPI DUP1 PUSH4 0x64A7102B EQ PUSH2 0x343 JUMPI DUP1 PUSH4 0x70A08231 EQ PUSH2 0x30B JUMPI DUP1 PUSH4 0x95D89B41 EQ PUSH2 0x1EA JUMPI DUP1 PUSH4 0xA9059CBB EQ PUSH2 0x13A JUMPI DUP1 PUSH4 0xC45A0155 EQ PUSH2 0xF2 JUMPI PUSH4 0xDD62ED3E EQ PUSH2 0xA7 JUMPI PUSH1 0x0 DUP1 REVERT JUMPDEST CALLVALUE PUSH2 0xEE JUMPI DUP2 PUSH1 0x3 NOT CALLDATASIZE ADD SLT PUSH2 0xEE JUMPI PUSH1 0x20 SWAP3 DUP3 SWAP2 PUSH2 0xC4 PUSH2 0x72B JUMP JUMPDEST PUSH2 0xCC PUSH2 0x746 JUMP JUMPDEST PUSH1 0x1 PUSH1 0x1 PUSH1 0xA0 SHL SUB SWAP2 DUP3 AND DUP5 MSTORE SWAP2 DUP7 MSTORE DUP4 DUP4 KECCAK256 SWAP2 AND DUP3 MSTORE DUP5 MSTORE KECCAK256 SLOAD SWAP1 MLOAD SWAP1 DUP2 MSTORE RETURN JUMPDEST DUP3 DUP1 REVERT JUMPDEST POP POP CALLVALUE PUSH2 0x136 JUMPI DUP2 PUSH1 0x3 NOT CALLDATASIZE ADD SLT PUSH2 0x136 JUMPI MLOAD PUSH32 0x0 PUSH1 0x1 PUSH1 0x1 PUSH1 0xA0 SHL SUB AND DUP2 MSTORE PUSH1 0x20 SWAP1 RETURN JUMPDEST POP DUP1 REVERT JUMPDEST POP SWAP2 CALLVALUE PUSH2 0x1E7 JUMPI DUP2 PUSH1 0x3 NOT CALLDATASIZE ADD SLT PUSH2 0x1E7 JUMPI PUSH2 0x154 PUSH2 0x72B JUMP JUMPDEST SWAP3 PUSH1 0x24 CALLDATALOAD SWAP1 CALLER DUP4 MSTORE PUSH1 0x3 PUSH1 0x20 MSTORE DUP2 DUP5 DUP5 KECCAK256 SLOAD LT PUSH2 0x1D9 JUMPI POP DUP3 PUSH1 0x20 SWAP5 CALLER DUP5 MSTORE PUSH1 0x3 DUP7 MSTORE DUP2 DUP5 KECCAK256 PUSH2 0x185 DUP5 DUP3 SLOAD PUSH2 0x77F JUMP JUMPDEST SWAP1 SSTORE PUSH1 0x1 PUSH1 0x1 PUSH1 0xA0 SHL SUB AND DUP1 DUP5 MSTORE PUSH1 0x3 DUP7 MSTORE SWAP3 KECCAK256 DUP1 SLOAD PUSH2 0x1A6 SWAP1 DUP4 SWAP1 PUSH2 0x75C JUMP JUMPDEST SWAP1 SSTORE DUP3 MLOAD SWAP1 DUP2 MSTORE PUSH32 0xDDF252AD1BE2C89B69C2B068FC378DAA952BA7F163C4A11628F55A4DF523B3EF DUP5 CALLER SWAP3 LOG3 MLOAD PUSH1 0x1 DUP2 MSTORE RETURN JUMPDEST DUP4 MLOAD PUSH4 0x1E9ACF17 PUSH1 0xE3 SHL DUP2 MSTORE REVERT JUMPDEST DUP1 REVERT JUMPDEST POP SWAP2 SWAP1 CALLVALUE PUSH2 0x136 JUMPI DUP2 PUSH1 0x3 NOT CALLDATASIZE ADD SLT PUSH2 0x136 JUMPI DUP1 MLOAD SWAP1 DUP3 PUSH1 0x1 DUP1 SLOAD SWAP1 DUP2 DUP2 SHR SWAP1 DUP1 DUP4 AND SWAP3 DUP4 ISZERO PUSH2 0x301 JUMPI JUMPDEST PUSH1 0x20 SWAP4 DUP5 DUP5 LT DUP2 EQ PUSH2 0x2EE JUMPI DUP4 DUP9 MSTORE SWAP1 DUP2 ISZERO PUSH2 0x2D2 JUMPI POP PUSH1 0x1 EQ PUSH2 0x27D JUMPI JUMPDEST POP POP POP DUP3 SWAP1 SUB PUSH1 0x1F ADD PUSH1 0x1F NOT AND DUP3 ADD SWAP3 PUSH8 0xFFFFFFFFFFFFFFFF DUP5 GT DUP4 DUP6 LT OR PUSH2 0x26A JUMPI POP DUP3 SWAP2 DUP3 PUSH2 0x266 SWAP3 MSTORE DUP3 PUSH2 0x6E2 JUMP JUMPDEST SUB SWAP1 RETURN JUMPDEST PUSH4 0x4E487B71 PUSH1 0xE0 SHL DUP2 MSTORE PUSH1 0x41 DUP6 MSTORE PUSH1 0x24 SWAP1 REVERT JUMPDEST DUP1 DUP8 MSTORE SWAP2 SWAP3 POP DUP6 SWAP2 DUP4 PUSH32 0xB10E2D527612073B26EECDFD717E6A320CF44B4AFAC2B0732D9FCBE2B7FA0CF6 JUMPDEST DUP4 DUP6 LT PUSH2 0x2BE JUMPI POP POP POP POP DUP4 ADD ADD CODESIZE DUP1 DUP1 PUSH2 0x234 JUMP JUMPDEST DUP1 SLOAD DUP9 DUP7 ADD DUP4 ADD MSTORE SWAP4 ADD SWAP3 DUP5 SWAP1 DUP3 ADD PUSH2 0x2A8 JUMP JUMPDEST PUSH1 0xFF NOT AND DUP8 DUP6 ADD MSTORE POP POP ISZERO ISZERO PUSH1 0x5 SHL DUP5 ADD ADD SWAP1 POP CODESIZE DUP1 DUP1 PUSH2 0x234 JUMP JUMPDEST PUSH4 0x4E487B71 PUSH1 0xE0 SHL DUP10 MSTORE PUSH1 0x22 DUP11 MSTORE PUSH1 0x24 DUP10 REVERT JUMPDEST SWAP2 PUSH1 0x7F AND SWAP2 PUSH2 0x215 JUMP JUMPDEST POP POP CALLVALUE PUSH2 0x136 JUMPI PUSH1 0x20 CALLDATASIZE PUSH1 0x3 NOT ADD SLT PUSH2 0x136 JUMPI PUSH1 0x20 SWAP2 DUP2 SWAP1 PUSH1 0x1 PUSH1 0x1 PUSH1 0xA0 SHL SUB PUSH2 0x333 PUSH2 0x72B JUMP JUMPDEST AND DUP2 MSTORE PUSH1 0x3 DUP5 MSTORE KECCAK256 SLOAD SWAP1 MLOAD SWAP1 DUP2 MSTORE RETURN JUMPDEST POP CALLVALUE PUSH2 0xEE JUMPI DUP2 PUSH1 0x3 NOT CALLDATASIZE ADD SLT PUSH2 0xEE JUMPI PUSH2 0x35C PUSH2 0x72B JUMP JUMPDEST PUSH1 0x24 CALLDATALOAD SWAP2 PUSH1 0x1 PUSH1 0x1 PUSH1 0xA0 SHL SUB SWAP2 SWAP1 PUSH32 0x0 DUP4 AND CALLER SUB PUSH2 0x417 JUMPI PUSH12 0x33B2E3C9FD0803CE8000000 PUSH2 0x3AC DUP6 PUSH1 0x2 SLOAD PUSH2 0x75C JUMP JUMPDEST GT PUSH2 0x409 JUMPI POP DUP5 SWAP3 PUSH32 0xDDF252AD1BE2C89B69C2B068FC378DAA952BA7F163C4A11628F55A4DF523B3EF SWAP3 PUSH1 0x20 SWAP3 AND SWAP5 DUP6 DUP6 MSTORE PUSH1 0x3 DUP4 MSTORE DUP1 DUP6 KECCAK256 PUSH2 0x3F0 DUP4 DUP3 SLOAD PUSH2 0x75C JUMP JUMPDEST SWAP1 SSTORE PUSH2 0x3FE DUP3 PUSH1 0x2 SLOAD PUSH2 0x75C JUMP JUMPDEST PUSH1 0x2 SSTORE MLOAD SWAP1 DUP2 MSTORE LOG3 DUP1 RETURN JUMPDEST DUP5 MLOAD PUSH4 0x8A164F63 PUSH1 0xE0 SHL DUP2 MSTORE REVERT JUMPDEST DUP5 MLOAD PUSH4 0x636A157 PUSH1 0xE1 SHL DUP2 MSTORE REVERT JUMPDEST POP POP CALLVALUE PUSH2 0x136 JUMPI DUP2 PUSH1 0x3 NOT CALLDATASIZE ADD SLT PUSH2 0x136 JUMPI PUSH1 0x20 SWAP1 MLOAD PUSH12 0x33B2E3C9FD0803CE8000000 DUP2 MSTORE RETURN JUMPDEST POP POP CALLVALUE PUSH2 0x136 JUMPI DUP2 PUSH1 0x3 NOT CALLDATASIZE ADD SLT PUSH2 0x136 JUMPI PUSH1 0x20 SWAP1 MLOAD PUSH1 0x12 DUP2 MSTORE RETURN JUMPDEST POP SWAP2 CALLVALUE PUSH2 0x1E7 JUMPI PUSH1 0x60 CALLDATASIZE PUSH1 0x3 NOT ADD SLT PUSH2 0x1E7 JUMPI PUSH2 0x483 PUSH2 0x72B JUMP JUMPDEST PUSH2 0x48B PUSH2 0x746 JUMP JUMPDEST SWAP1 PUSH1 0x44 CALLDATALOAD SWAP1 PUSH1 0x1 DUP1 PUSH1 0xA0 SHL SUB DUP1 SWAP2 AND SWAP3 DUP4 DUP6 MSTORE PUSH1 0x20 SWAP7 PUSH1 0x3 DUP9 MSTORE DUP4 DUP8 DUP8 KECCAK256 SLOAD LT PUSH2 0x554 JUMPI DUP5 DUP7 MSTORE DUP1 DUP9 MSTORE DUP7 DUP7 KECCAK256 CALLER DUP8 MSTORE DUP9 MSTORE DUP4 DUP8 DUP8 KECCAK256 SLOAD LT PUSH2 0x546 JUMPI DUP8 SWAP3 PUSH32 0xDDF252AD1BE2C89B69C2B068FC378DAA952BA7F163C4A11628F55A4DF523B3EF SWAP5 SWAP3 DUP9 SWAP3 DUP8 DUP10 MSTORE PUSH1 0x3 DUP7 MSTORE DUP4 DUP10 KECCAK256 PUSH2 0x503 DUP7 DUP3 SLOAD PUSH2 0x77F JUMP JUMPDEST SWAP1 SSTORE DUP8 DUP10 MSTORE DUP6 MSTORE DUP3 DUP9 KECCAK256 CALLER DUP10 MSTORE DUP6 MSTORE DUP3 DUP9 KECCAK256 PUSH2 0x520 DUP6 DUP3 SLOAD PUSH2 0x77F JUMP JUMPDEST SWAP1 SSTORE AND SWAP6 DUP7 DUP2 MSTORE PUSH1 0x3 DUP5 MSTORE KECCAK256 PUSH2 0x537 DUP3 DUP3 SLOAD PUSH2 0x75C JUMP JUMPDEST SWAP1 SSTORE DUP6 MLOAD SWAP1 DUP2 MSTORE LOG3 MLOAD PUSH1 0x1 DUP2 MSTORE RETURN JUMPDEST DUP7 MLOAD PUSH4 0x13BE252B PUSH1 0xE0 SHL DUP2 MSTORE REVERT JUMPDEST DUP7 MLOAD PUSH4 0x1E9ACF17 PUSH1 0xE3 SHL DUP2 MSTORE REVERT JUMPDEST POP POP CALLVALUE PUSH2 0x136 JUMPI DUP2 PUSH1 0x3 NOT CALLDATASIZE ADD SLT PUSH2 0x136 JUMPI PUSH1 0x20 SWAP1 PUSH1 0x2 SLOAD SWAP1 MLOAD SWAP1 DUP2 MSTORE RETURN JUMPDEST POP CALLVALUE PUSH2 0xEE JUMPI DUP2 PUSH1 0x3 NOT CALLDATASIZE ADD SLT PUSH2 0xEE JUMPI PUSH1 0x20 SWAP3 PUSH2 0x59D PUSH2 0x72B JUMP JUMPDEST SWAP2 DUP4 PUSH1 0x24 CALLDATALOAD SWAP3 DUP4 SWAP3 CALLER DUP3 MSTORE DUP8 MSTORE DUP2 DUP2 KECCAK256 SWAP5 PUSH1 0x1 DUP1 PUSH1 0xA0 SHL SUB AND SWAP5 DUP6 DUP3 MSTORE DUP8 MSTORE KECCAK256 SSTORE DUP3 MLOAD SWAP1 DUP2 MSTORE PUSH32 0x8C5BE1E5EBEC7D5BD14F71427D1E84F3DD0314C0F7B2291E5B200AC8C7C3B925 DUP5 CALLER SWAP3 LOG3 MLOAD PUSH1 0x1 DUP2 MSTORE RETURN JUMPDEST DUP5 SWAP2 POP DUP4 CALLVALUE PUSH2 0xEE JUMPI DUP3 PUSH1 0x3 NOT CALLDATASIZE ADD SLT PUSH2 0xEE JUMPI DUP3 DUP4 SLOAD PUSH1 0x1 DUP2 DUP2 SHR SWAP1 DUP1 DUP4 AND SWAP3 DUP4 ISZERO PUSH2 0x6D8 JUMPI JUMPDEST PUSH1 0x20 SWAP4 DUP5 DUP5 LT DUP2 EQ PUSH2 0x2EE JUMPI DUP4 DUP9 MSTORE SWAP1 DUP2 ISZERO PUSH2 0x6BC JUMPI POP PUSH1 0x1 EQ PUSH2 0x667 JUMPI POP POP POP DUP3 SWAP1 SUB PUSH1 0x1F ADD PUSH1 0x1F NOT AND DUP3 ADD SWAP3 PUSH8 0xFFFFFFFFFFFFFFFF DUP5 GT DUP4 DUP6 LT OR PUSH2 0x26A JUMPI POP DUP3 SWAP2 DUP3 PUSH2 0x266 SWAP3 MSTORE DUP3 PUSH2 0x6E2 JUMP JUMPDEST DUP7 DUP1 MSTORE SWAP2 SWAP3 POP DUP6 SWAP2 DUP4 PUSH32 0x290DECD9548B62A8D60345A988386FC84BA6BC95484008F6362F93160EF3E563 JUMPDEST DUP4 DUP6 LT PUSH2 0x6A8 JUMPI POP POP POP POP DUP4 ADD ADD DUP6 DUP1 DUP1 PUSH2 0x234 JUMP JUMPDEST DUP1 SLOAD DUP9 DUP7 ADD DUP4 ADD MSTORE SWAP4 ADD SWAP3 DUP5 SWAP1 DUP3 ADD PUSH2 0x692 JUMP JUMPDEST PUSH1 0xFF NOT AND DUP8 DUP6 ADD MSTORE POP POP ISZERO ISZERO PUSH1 0x5 SHL DUP5 ADD ADD SWAP1 POP DUP6 DUP1 DUP1 PUSH2 0x234 JUMP JUMPDEST SWAP2 PUSH1 0x7F AND SWAP2 PUSH2 0x617 JUMP JUMPDEST PUSH1 0x20 DUP1 DUP3 MSTORE DUP3 MLOAD DUP2 DUP4 ADD DUP2 SWAP1 MSTORE SWAP1 SWAP4 SWAP3 PUSH1 0x0 JUMPDEST DUP3 DUP2 LT PUSH2 0x717 JUMPI POP POP PUSH1 0x40 SWAP3 SWAP4 POP PUSH1 0x0 DUP4 DUP3 DUP5 ADD ADD MSTORE PUSH1 0x1F DUP1 NOT SWAP2 ADD AND ADD ADD SWAP1 JUMP JUMPDEST DUP2 DUP2 ADD DUP7 ADD MLOAD DUP5 DUP3 ADD PUSH1 0x40 ADD MSTORE DUP6 ADD PUSH2 0x6F5 JUMP JUMPDEST PUSH1 0x4 CALLDATALOAD SWAP1 PUSH1 0x1 PUSH1 0x1 PUSH1 0xA0 SHL SUB DUP3 AND DUP3 SUB PUSH2 0x741 JUMPI JUMP JUMPDEST PUSH1 0x0 DUP1 REVERT JUMPDEST PUSH1 0x24 CALLDATALOAD SWAP1 PUSH1 0x1 PUSH1 0x1 PUSH1 0xA0 SHL SUB DUP3 AND DUP3 SUB PUSH2 0x741 JUMPI JUMP JUMPDEST SWAP2 SWAP1 DUP3 ADD DUP1 SWAP3 GT PUSH2 0x769 JUMPI JUMP JUMPDEST PUSH4 0x4E487B71 PUSH1 0xE0 SHL PUSH1 0x0 MSTORE PUSH1 0x11 PUSH1 0x4 MSTORE PUSH1 0x24 PUSH1 0x0 REVERT JUMPDEST SWAP2 SWAP1 DUP3 SUB SWAP2 DUP3 GT PUSH2 0x769 JUMPI JUMP INVALID LOG2 PUSH5 0x6970667358 0x22 SLT KECCAK256 0xB4 0xA7 0xA8 SGT MOD MSTORE8 SHL SWAP9 0xD4 0xAB SWAP1 CODESIZE CREATE PUSH9 0x809C2EC4C02F5BCA34 BYTE PUSH23 0x4B2FB59A3B63E864736F6C63430008140033A264697066 PUSH20 0x58221220752C559A411E44339D251D442B5178D7 0xC PUSH26 0xF43FAB2AB49645602B0CB9BCF41264736F6C6343000814003300 "},"methodIdentifiers":{"BPS_DENOMINATOR()":"e1a45218","DEAD_ADDRESS()":"4e6fd6c4","MIGRATION_RESERVE()":"6eaaf101","REFERRAL_FEE_BPS()":"9d72265e","TRADE_FEE_BPS()":"9185f598","TRADING_RESERVE()":"4513c9a6","V_ETH_RESERVE()":"995c86d5","V_TOKEN_RESERVE()":"b1a51f35","WETH()":"ad5c4648","allTokens(uint256)":"634282af","buyToken(address,address)":"5ee6cc38","createFee()":"b2db919b","getAmountIn(address,uint256)":"632db21c","getAmountOut(address,uint256)":"ca706bcf","getCurrentPrice(address)":"84cc315b","getMigrationProgress(address)":"c8a1d06e","launchToken(string,string,address)":"94b4cd0a","migrationThreshold()":"90bc1e85","owner()":"8da5cb5b","renounceOwnership()":"715018a6","sellToken(address,uint256,address)":"55a97632","setCreateFee(uint256)":"62914849","setMigrationThreshold(uint256)":"ca92a91b","setRouter(address)":"c0d78655","setTreasuryWallet(address)":"a8602fea","tokens(address)":"e4860339","totalTokensLaunched()":"9e1e213e","transferOwnership(address)":"f2fde38b","treasuryWallet()":"4626402b","uniswapRouter()":"735de9f7","updateReserves(uint256,uint256,uint256,uint256)":"db7b04eb"}}}}}