{"contracts/bluecheck/BlueCheckRegistry.sol":{"BlueCheckRegistry":{"abi":[{"inputs":[{"internalType":"address","name":"_treasury","type":"address"},{"internalType":"address","name":"_referralPool","type":"address"},{"internalType":"uint256","name":"_initialPriceBNB","type":"uint256"}],"stateMutability":"nonpayable","type":"constructor"},{"inputs":[],"name":"AlreadyPurchased","type":"error"},{"inputs":[],"name":"EnforcedPause","type":"error"},{"inputs":[],"name":"ExpectedPause","type":"error"},{"inputs":[],"name":"InsufficientPayment","type":"error"},{"inputs":[],"name":"InvalidAddress","type":"error"},{"inputs":[{"internalType":"address","name":"owner","type":"address"}],"name":"OwnableInvalidOwner","type":"error"},{"inputs":[{"internalType":"address","name":"account","type":"address"}],"name":"OwnableUnauthorizedAccount","type":"error"},{"inputs":[],"name":"ReentrancyGuardReentrantCall","type":"error"},{"inputs":[],"name":"TransferFailed","type":"error"},{"anonymous":false,"inputs":[{"indexed":true,"internalType":"address","name":"user","type":"address"},{"indexed":false,"internalType":"uint256","name":"amountPaid","type":"uint256"},{"indexed":false,"internalType":"uint256","name":"treasuryAmount","type":"uint256"},{"indexed":false,"internalType":"uint256","name":"referrerReward","type":"uint256"},{"indexed":true,"internalType":"address","name":"referrer","type":"address"},{"indexed":false,"internalType":"uint256","name":"timestamp","type":"uint256"}],"name":"BlueCheckPurchased","type":"event"},{"anonymous":false,"inputs":[{"indexed":false,"internalType":"uint256","name":"oldPrice","type":"uint256"},{"indexed":false,"internalType":"uint256","name":"newPrice","type":"uint256"}],"name":"ManualPriceUpdated","type":"event"},{"anonymous":false,"inputs":[{"indexed":true,"internalType":"address","name":"previousOwner","type":"address"},{"indexed":true,"internalType":"address","name":"newOwner","type":"address"}],"name":"OwnershipTransferred","type":"event"},{"anonymous":false,"inputs":[{"indexed":false,"internalType":"address","name":"account","type":"address"}],"name":"Paused","type":"event"},{"anonymous":false,"inputs":[{"indexed":true,"internalType":"address","name":"oldPool","type":"address"},{"indexed":true,"internalType":"address","name":"newPool","type":"address"}],"name":"ReferralPoolUpdated","type":"event"},{"anonymous":false,"inputs":[{"indexed":true,"internalType":"address","name":"oldTreasury","type":"address"},{"indexed":true,"internalType":"address","name":"newTreasury","type":"address"}],"name":"TreasuryUpdated","type":"event"},{"anonymous":false,"inputs":[{"indexed":false,"internalType":"address","name":"account","type":"address"}],"name":"Unpaused","type":"event"},{"inputs":[],"name":"PRICE_USD","outputs":[{"internalType":"uint256","name":"","type":"uint256"}],"stateMutability":"view","type":"function"},{"inputs":[],"name":"REFERRAL_POOL_SHARE","outputs":[{"internalType":"uint256","name":"","type":"uint256"}],"stateMutability":"view","type":"function"},{"inputs":[],"name":"TREASURY_SHARE","outputs":[{"internalType":"uint256","name":"","type":"uint256"}],"stateMutability":"view","type":"function"},{"inputs":[{"internalType":"address","name":"user","type":"address"}],"name":"checkBlueCheck","outputs":[{"internalType":"bool","name":"","type":"bool"}],"stateMutability":"view","type":"function"},{"inputs":[{"internalType":"uint256","name":"amount","type":"uint256"}],"name":"emergencyWithdraw","outputs":[],"stateMutability":"nonpayable","type":"function"},{"inputs":[],"name":"getRequiredBNB","outputs":[{"internalType":"uint256","name":"","type":"uint256"}],"stateMutability":"view","type":"function"},{"inputs":[{"internalType":"address","name":"","type":"address"}],"name":"hasBlueCheck","outputs":[{"internalType":"bool","name":"","type":"bool"}],"stateMutability":"view","type":"function"},{"inputs":[],"name":"manualPriceBNB","outputs":[{"internalType":"uint256","name":"","type":"uint256"}],"stateMutability":"view","type":"function"},{"inputs":[],"name":"owner","outputs":[{"internalType":"address","name":"","type":"address"}],"stateMutability":"view","type":"function"},{"inputs":[],"name":"pause","outputs":[],"stateMutability":"nonpayable","type":"function"},{"inputs":[],"name":"paused","outputs":[{"internalType":"bool","name":"","type":"bool"}],"stateMutability":"view","type":"function"},{"inputs":[],"name":"priceOracle","outputs":[{"internalType":"address","name":"","type":"address"}],"stateMutability":"view","type":"function"},{"inputs":[{"internalType":"address","name":"referrer","type":"address"}],"name":"purchaseBlueCheck","outputs":[],"stateMutability":"payable","type":"function"},{"inputs":[{"internalType":"address","name":"","type":"address"}],"name":"purchaseTimestamp","outputs":[{"internalType":"uint256","name":"","type":"uint256"}],"stateMutability":"view","type":"function"},{"inputs":[],"name":"referralPool","outputs":[{"internalType":"address","name":"","type":"address"}],"stateMutability":"view","type":"function"},{"inputs":[],"name":"renounceOwnership","outputs":[],"stateMutability":"nonpayable","type":"function"},{"inputs":[],"name":"totalBNBCollected","outputs":[{"internalType":"uint256","name":"","type":"uint256"}],"stateMutability":"view","type":"function"},{"inputs":[],"name":"totalPurchases","outputs":[{"internalType":"uint256","name":"","type":"uint256"}],"stateMutability":"view","type":"function"},{"inputs":[{"internalType":"address","name":"newOwner","type":"address"}],"name":"transferOwnership","outputs":[],"stateMutability":"nonpayable","type":"function"},{"inputs":[],"name":"treasury","outputs":[{"internalType":"address","name":"","type":"address"}],"stateMutability":"view","type":"function"},{"inputs":[],"name":"unpause","outputs":[],"stateMutability":"nonpayable","type":"function"},{"inputs":[{"internalType":"uint256","name":"_newPriceBNB","type":"uint256"}],"name":"updateManualPrice","outputs":[],"stateMutability":"nonpayable","type":"function"},{"inputs":[{"internalType":"address","name":"_newPool","type":"address"}],"name":"updateReferralPool","outputs":[],"stateMutability":"nonpayable","type":"function"},{"inputs":[{"internalType":"address","name":"_newTreasury","type":"address"}],"name":"updateTreasury","outputs":[],"stateMutability":"nonpayable","type":"function"}],"evm":{"bytecode":{"linkReferences":{},"object":"60803461013657601f610b5238819003918201601f19168301916001600160401b0383118484101761013b578084926060946040528339810103126101365761004781610151565b604061005560208401610151565b92015191331561011d57600080546001600160a01b031980821633908117845560405191956001600160a01b03959490938616907f8be0079c531659141344cd1fd0a4f28419497f9722a3daafe3b4186f6b6457e09080a360018055838216158015610113575b610104575060028054610100600160a81b03191660089290921b610100600160a81b03169190911790556003805490931691161790556005556040516109ec90816101668239f35b63e6c4247b60e01b8152600490fd5b50838316156100bc565b604051631e4fbdf760e01b815260006004820152602490fd5b600080fd5b634e487b7160e01b600052604160045260246000fd5b51906001600160a01b03821682036101365756fe608060408181526004908136101561001657600080fd5b600092833560e01c908163171dca1314610879575080631e4df938146108505780632630c12f1461082857806326fa0cad1461080457806332696174146107e85780633f4ba83a1461077e5780635312ea8e14610740578063553c907e146106ed57806355d08949146106715780635962a941146106525780635c975abb1461062e57806361d027b314610601578063715018a6146105a4578063767551181461056a5780637f51bb1f146104d55780638456cb591461047a5780638da5cb5b1461045257806392423383146104335780639e844bdf14610417578063b1c457c5146103d8578063d2799af5146103d8578063e1ab98ba146103b1578063e9d4789a146101bc5763f2fde38b1461012c57600080fd5b346101b85760203660031901126101b8576001600160a01b038235818116939192908490036101b45761015d610895565b831561019e57505082546001600160a01b0319811683178455167f8be0079c531659141344cd1fd0a4f28419497f9722a3daafe3b4186f6b6457e08380a380f35b51631e4fbdf760e01b8152908101849052602490fd5b8480fd5b8280fd5b509060203660031901126101b8576001600160a01b039181358381168082036103ad57600194600286541461039d57600286556101f7610945565b338752600660205260ff848820541661038d57610212610963565b9283341061037d57918015908115610373575b50610364575b33875260066020528387208660ff1982541617905560076020524284882055600854600019811461035157860160085560095483810180911161035157600955604683028381046046148415171561035157606490049161028c83856108c1565b88808080878760025460081c165af16102a36108e4565b5015610341578880808084865af16102b96108e4565b5015610341579161030b939189959387519385855260208501528784015242606084015216907feb4d2435f2a520ea25b77b07b5a91f31c9dd9bcc7aeb06b6a01f84b1b3f8291160803392a3346108c1565b80610318575b5083805580f35b81808092335af16103276108e4565b5015610334578381610311565b516312171d8360e31b8152fd5b85516312171d8360e31b81528790fd5b634e487b7160e01b885260118652602488fd5b60025460081c8116915061022b565b9050331438610225565b845163cd1c886760e01b81528690fd5b50505051630cd9ed5560e21b8152fd5b50505051633ee5aeb560e01b8152fd5b8580fd5b8382346103d457816003193601126103d45760209051678ac7230489e800008152f35b5080fd5b5090346101b85760203660031901126101b857356001600160a01b038116908190036101b857818360ff92602095526006855220541690519015158152f35b8382346103d457816003193601126103d45760209051601e8152f35b8382346103d457816003193601126103d4576020906009549051908152f35b8382346103d457816003193601126103d457905490516001600160a01b039091168152602090f35b8382346103d457816003193601126103d45760207f62e78cea01bee320cd4e420270b5ea74000d11b0c9f74754ebdbfc544b05a258916104b8610895565b6104c0610945565b600160ff19600254161760025551338152a180f35b5090346101b85760203660031901126101b85780356001600160a01b03818116939092908483036103ad57610508610895565b841561055d57505060028054610100600160a81b03198116600893841b610100600160a81b031617909155901c167f4ab5be82436d353e61ca18726e984e561f5c1cc7c6d38b29d2553c790434705a8380a380f35b5163e6c4247b60e01b8152fd5b5090346101b85760203660031901126101b857356001600160a01b038116908190036101b857828291602094526007845220549051908152f35b83346105fe57806003193601126105fe576105bd610895565b80546001600160a01b03198116825581906001600160a01b03167f8be0079c531659141344cd1fd0a4f28419497f9722a3daafe3b4186f6b6457e08280a380f35b80fd5b8382346103d457816003193601126103d457600254905160089190911c6001600160a01b03168152602090f35b8382346103d457816003193601126103d45760209060ff6002541690519015158152f35b8382346103d457816003193601126103d4576020906008549051908152f35b50346101b85760203660031901126101b8576001600160a01b038235818116939192908490036101b4576106a3610895565b831561055d575050600354826bffffffffffffffffffffffff60a01b821617600355167f66d1693c687b421f540b37c3682deeaee7fe381c4d000c01701498e6f6ed04c88380a380f35b50346101b85760203660031901126101b8577f466b192740ad42c5dd7e4c768afb2d0de60dfb03f791a8a4ff715d0951bc0712913561072a610895565b600554908060055582519182526020820152a180f35b50346101b85760203660031901126101b85761075a610895565b82808080853560018060a01b038254165af16107746108e4565b5015610334578280f35b5090346101b857826003193601126101b857610798610895565b6002549060ff8216156107da575060ff1916600255513381527f5db9ee0a495bf2e6ff9c91a7834c1ba4fdd244a5e8aa4e537bd38aeae4b073aa90602090a180f35b8251638dfc202b60e01b8152fd5b8382346103d457816003193601126103d4576020905160468152f35b8382346103d457816003193601126103d457602090610821610963565b9051908152f35b5090346101b857826003193601126101b8575490516001600160a01b03909116815260209150f35b8382346103d457816003193601126103d45760035490516001600160a01b039091168152602090f35b8490346103d457816003193601126103d4576020906005548152f35b6000546001600160a01b031633036108a957565b60405163118cdaa760e01b8152336004820152602490fd5b919082039182116108ce57565b634e487b7160e01b600052601160045260246000fd5b3d156109405767ffffffffffffffff903d82811161092a5760405192601f8201601f19908116603f011684019081118482101761092a5760405282523d6000602084013e565b634e487b7160e01b600052604160045260246000fd5b606090565b60ff6002541661095157565b60405163d93c066560e01b8152600490fd5b6005548015610981576f0785ee10d5da46d900f436a0000000000490565b60405162461bcd60e51b815260206004820152600d60248201526c141c9a58d9481b9bdd081cd95d609a1b6044820152606490fdfea2646970667358221220c597f45cc57be47789543272b3e7a8d41ce0582aa981ed4ecde269fd6fe9f8c064736f6c63430008140033","opcodes":"PUSH1 0x80 CALLVALUE PUSH2 0x136 JUMPI PUSH1 0x1F PUSH2 0xB52 CODESIZE DUP2 SWAP1 SUB SWAP2 DUP3 ADD PUSH1 0x1F NOT AND DUP4 ADD SWAP2 PUSH1 0x1 PUSH1 0x1 PUSH1 0x40 SHL SUB DUP4 GT DUP5 DUP5 LT OR PUSH2 0x13B JUMPI DUP1 DUP5 SWAP3 PUSH1 0x60 SWAP5 PUSH1 0x40 MSTORE DUP4 CODECOPY DUP2 ADD SUB SLT PUSH2 0x136 JUMPI PUSH2 0x47 DUP2 PUSH2 0x151 JUMP JUMPDEST PUSH1 0x40 PUSH2 0x55 PUSH1 0x20 DUP5 ADD PUSH2 0x151 JUMP JUMPDEST SWAP3 ADD MLOAD SWAP2 CALLER ISZERO PUSH2 0x11D JUMPI PUSH1 0x0 DUP1 SLOAD PUSH1 0x1 PUSH1 0x1 PUSH1 0xA0 SHL SUB NOT DUP1 DUP3 AND CALLER SWAP1 DUP2 OR DUP5 SSTORE PUSH1 0x40 MLOAD SWAP2 SWAP6 PUSH1 0x1 PUSH1 0x1 PUSH1 0xA0 SHL SUB SWAP6 SWAP5 SWAP1 SWAP4 DUP7 AND SWAP1 PUSH32 0x8BE0079C531659141344CD1FD0A4F28419497F9722A3DAAFE3B4186F6B6457E0 SWAP1 DUP1 LOG3 PUSH1 0x1 DUP1 SSTORE DUP4 DUP3 AND ISZERO DUP1 ISZERO PUSH2 0x113 JUMPI JUMPDEST PUSH2 0x104 JUMPI POP PUSH1 0x2 DUP1 SLOAD PUSH2 0x100 PUSH1 0x1 PUSH1 0xA8 SHL SUB NOT AND PUSH1 0x8 SWAP3 SWAP1 SWAP3 SHL PUSH2 0x100 PUSH1 0x1 PUSH1 0xA8 SHL SUB AND SWAP2 SWAP1 SWAP2 OR SWAP1 SSTORE PUSH1 0x3 DUP1 SLOAD SWAP1 SWAP4 AND SWAP2 AND OR SWAP1 SSTORE PUSH1 0x5 SSTORE PUSH1 0x40 MLOAD PUSH2 0x9EC SWAP1 DUP2 PUSH2 0x166 DUP3 CODECOPY RETURN JUMPDEST PUSH4 0xE6C4247B PUSH1 0xE0 SHL DUP2 MSTORE PUSH1 0x4 SWAP1 REVERT JUMPDEST POP DUP4 DUP4 AND ISZERO PUSH2 0xBC JUMP JUMPDEST PUSH1 0x40 MLOAD PUSH4 0x1E4FBDF7 PUSH1 0xE0 SHL DUP2 MSTORE PUSH1 0x0 PUSH1 0x4 DUP3 ADD MSTORE PUSH1 0x24 SWAP1 REVERT JUMPDEST PUSH1 0x0 DUP1 REVERT JUMPDEST PUSH4 0x4E487B71 PUSH1 0xE0 SHL PUSH1 0x0 MSTORE PUSH1 0x41 PUSH1 0x4 MSTORE PUSH1 0x24 PUSH1 0x0 REVERT JUMPDEST MLOAD SWAP1 PUSH1 0x1 PUSH1 0x1 PUSH1 0xA0 SHL SUB DUP3 AND DUP3 SUB PUSH2 0x136 JUMPI JUMP INVALID PUSH1 0x80 PUSH1 0x40 DUP2 DUP2 MSTORE PUSH1 0x4 SWAP1 DUP2 CALLDATASIZE LT ISZERO PUSH2 0x16 JUMPI PUSH1 0x0 DUP1 REVERT JUMPDEST PUSH1 0x0 SWAP3 DUP4 CALLDATALOAD PUSH1 0xE0 SHR SWAP1 DUP2 PUSH4 0x171DCA13 EQ PUSH2 0x879 JUMPI POP DUP1 PUSH4 0x1E4DF938 EQ PUSH2 0x850 JUMPI DUP1 PUSH4 0x2630C12F EQ PUSH2 0x828 JUMPI DUP1 PUSH4 0x26FA0CAD EQ PUSH2 0x804 JUMPI DUP1 PUSH4 0x32696174 EQ PUSH2 0x7E8 JUMPI DUP1 PUSH4 0x3F4BA83A EQ PUSH2 0x77E JUMPI DUP1 PUSH4 0x5312EA8E EQ PUSH2 0x740 JUMPI DUP1 PUSH4 0x553C907E EQ PUSH2 0x6ED JUMPI DUP1 PUSH4 0x55D08949 EQ PUSH2 0x671 JUMPI DUP1 PUSH4 0x5962A941 EQ PUSH2 0x652 JUMPI DUP1 PUSH4 0x5C975ABB EQ PUSH2 0x62E JUMPI DUP1 PUSH4 0x61D027B3 EQ PUSH2 0x601 JUMPI DUP1 PUSH4 0x715018A6 EQ PUSH2 0x5A4 JUMPI DUP1 PUSH4 0x76755118 EQ PUSH2 0x56A JUMPI DUP1 PUSH4 0x7F51BB1F EQ PUSH2 0x4D5 JUMPI DUP1 PUSH4 0x8456CB59 EQ PUSH2 0x47A JUMPI DUP1 PUSH4 0x8DA5CB5B EQ PUSH2 0x452 JUMPI DUP1 PUSH4 0x92423383 EQ PUSH2 0x433 JUMPI DUP1 PUSH4 0x9E844BDF EQ PUSH2 0x417 JUMPI DUP1 PUSH4 0xB1C457C5 EQ PUSH2 0x3D8 JUMPI DUP1 PUSH4 0xD2799AF5 EQ PUSH2 0x3D8 JUMPI DUP1 PUSH4 0xE1AB98BA EQ PUSH2 0x3B1 JUMPI DUP1 PUSH4 0xE9D4789A EQ PUSH2 0x1BC JUMPI PUSH4 0xF2FDE38B EQ PUSH2 0x12C JUMPI PUSH1 0x0 DUP1 REVERT JUMPDEST CALLVALUE PUSH2 0x1B8 JUMPI PUSH1 0x20 CALLDATASIZE PUSH1 0x3 NOT ADD SLT PUSH2 0x1B8 JUMPI PUSH1 0x1 PUSH1 0x1 PUSH1 0xA0 SHL SUB DUP3 CALLDATALOAD DUP2 DUP2 AND SWAP4 SWAP2 SWAP3 SWAP1 DUP5 SWAP1 SUB PUSH2 0x1B4 JUMPI PUSH2 0x15D PUSH2 0x895 JUMP JUMPDEST DUP4 ISZERO PUSH2 0x19E JUMPI POP POP DUP3 SLOAD PUSH1 0x1 PUSH1 0x1 PUSH1 0xA0 SHL SUB NOT DUP2 AND DUP4 OR DUP5 SSTORE AND PUSH32 0x8BE0079C531659141344CD1FD0A4F28419497F9722A3DAAFE3B4186F6B6457E0 DUP4 DUP1 LOG3 DUP1 RETURN JUMPDEST MLOAD PUSH4 0x1E4FBDF7 PUSH1 0xE0 SHL DUP2 MSTORE SWAP1 DUP2 ADD DUP5 SWAP1 MSTORE PUSH1 0x24 SWAP1 REVERT JUMPDEST DUP5 DUP1 REVERT JUMPDEST DUP3 DUP1 REVERT JUMPDEST POP SWAP1 PUSH1 0x20 CALLDATASIZE PUSH1 0x3 NOT ADD SLT PUSH2 0x1B8 JUMPI PUSH1 0x1 PUSH1 0x1 PUSH1 0xA0 SHL SUB SWAP2 DUP2 CALLDATALOAD DUP4 DUP2 AND DUP1 DUP3 SUB PUSH2 0x3AD JUMPI PUSH1 0x1 SWAP5 PUSH1 0x2 DUP7 SLOAD EQ PUSH2 0x39D JUMPI PUSH1 0x2 DUP7 SSTORE PUSH2 0x1F7 PUSH2 0x945 JUMP JUMPDEST CALLER DUP8 MSTORE PUSH1 0x6 PUSH1 0x20 MSTORE PUSH1 0xFF DUP5 DUP9 KECCAK256 SLOAD AND PUSH2 0x38D JUMPI PUSH2 0x212 PUSH2 0x963 JUMP JUMPDEST SWAP3 DUP4 CALLVALUE LT PUSH2 0x37D JUMPI SWAP2 DUP1 ISZERO SWAP1 DUP2 ISZERO PUSH2 0x373 JUMPI JUMPDEST POP PUSH2 0x364 JUMPI JUMPDEST CALLER DUP8 MSTORE PUSH1 0x6 PUSH1 0x20 MSTORE DUP4 DUP8 KECCAK256 DUP7 PUSH1 0xFF NOT DUP3 SLOAD AND OR SWAP1 SSTORE PUSH1 0x7 PUSH1 0x20 MSTORE TIMESTAMP DUP5 DUP9 KECCAK256 SSTORE PUSH1 0x8 SLOAD PUSH1 0x0 NOT DUP2 EQ PUSH2 0x351 JUMPI DUP7 ADD PUSH1 0x8 SSTORE PUSH1 0x9 SLOAD DUP4 DUP2 ADD DUP1 SWAP2 GT PUSH2 0x351 JUMPI PUSH1 0x9 SSTORE PUSH1 0x46 DUP4 MUL DUP4 DUP2 DIV PUSH1 0x46 EQ DUP5 ISZERO OR ISZERO PUSH2 0x351 JUMPI PUSH1 0x64 SWAP1 DIV SWAP2 PUSH2 0x28C DUP4 DUP6 PUSH2 0x8C1 JUMP JUMPDEST DUP9 DUP1 DUP1 DUP1 DUP8 DUP8 PUSH1 0x2 SLOAD PUSH1 0x8 SHR AND GAS CALL PUSH2 0x2A3 PUSH2 0x8E4 JUMP JUMPDEST POP ISZERO PUSH2 0x341 JUMPI DUP9 DUP1 DUP1 DUP1 DUP5 DUP7 GAS CALL PUSH2 0x2B9 PUSH2 0x8E4 JUMP JUMPDEST POP ISZERO PUSH2 0x341 JUMPI SWAP2 PUSH2 0x30B SWAP4 SWAP2 DUP10 SWAP6 SWAP4 DUP8 MLOAD SWAP4 DUP6 DUP6 MSTORE PUSH1 0x20 DUP6 ADD MSTORE DUP8 DUP5 ADD MSTORE TIMESTAMP PUSH1 0x60 DUP5 ADD MSTORE AND SWAP1 PUSH32 0xEB4D2435F2A520EA25B77B07B5A91F31C9DD9BCC7AEB06B6A01F84B1B3F82911 PUSH1 0x80 CALLER SWAP3 LOG3 CALLVALUE PUSH2 0x8C1 JUMP JUMPDEST DUP1 PUSH2 0x318 JUMPI JUMPDEST POP DUP4 DUP1 SSTORE DUP1 RETURN JUMPDEST DUP2 DUP1 DUP1 SWAP3 CALLER GAS CALL PUSH2 0x327 PUSH2 0x8E4 JUMP JUMPDEST POP ISZERO PUSH2 0x334 JUMPI DUP4 DUP2 PUSH2 0x311 JUMP JUMPDEST MLOAD PUSH4 0x12171D83 PUSH1 0xE3 SHL DUP2 MSTORE REVERT JUMPDEST DUP6 MLOAD PUSH4 0x12171D83 PUSH1 0xE3 SHL DUP2 MSTORE DUP8 SWAP1 REVERT JUMPDEST PUSH4 0x4E487B71 PUSH1 0xE0 SHL DUP9 MSTORE PUSH1 0x11 DUP7 MSTORE PUSH1 0x24 DUP9 REVERT JUMPDEST PUSH1 0x2 SLOAD PUSH1 0x8 SHR DUP2 AND SWAP2 POP PUSH2 0x22B JUMP JUMPDEST SWAP1 POP CALLER EQ CODESIZE PUSH2 0x225 JUMP JUMPDEST DUP5 MLOAD PUSH4 0xCD1C8867 PUSH1 0xE0 SHL DUP2 MSTORE DUP7 SWAP1 REVERT JUMPDEST POP POP POP MLOAD PUSH4 0xCD9ED55 PUSH1 0xE2 SHL DUP2 MSTORE REVERT JUMPDEST POP POP POP MLOAD PUSH4 0x3EE5AEB5 PUSH1 0xE0 SHL DUP2 MSTORE REVERT JUMPDEST DUP6 DUP1 REVERT JUMPDEST DUP4 DUP3 CALLVALUE PUSH2 0x3D4 JUMPI DUP2 PUSH1 0x3 NOT CALLDATASIZE ADD SLT PUSH2 0x3D4 JUMPI PUSH1 0x20 SWAP1 MLOAD PUSH8 0x8AC7230489E80000 DUP2 MSTORE RETURN JUMPDEST POP DUP1 REVERT JUMPDEST POP SWAP1 CALLVALUE PUSH2 0x1B8 JUMPI PUSH1 0x20 CALLDATASIZE PUSH1 0x3 NOT ADD SLT PUSH2 0x1B8 JUMPI CALLDATALOAD PUSH1 0x1 PUSH1 0x1 PUSH1 0xA0 SHL SUB DUP2 AND SWAP1 DUP2 SWAP1 SUB PUSH2 0x1B8 JUMPI DUP2 DUP4 PUSH1 0xFF SWAP3 PUSH1 0x20 SWAP6 MSTORE PUSH1 0x6 DUP6 MSTORE KECCAK256 SLOAD AND SWAP1 MLOAD SWAP1 ISZERO ISZERO DUP2 MSTORE RETURN JUMPDEST DUP4 DUP3 CALLVALUE PUSH2 0x3D4 JUMPI DUP2 PUSH1 0x3 NOT CALLDATASIZE ADD SLT PUSH2 0x3D4 JUMPI PUSH1 0x20 SWAP1 MLOAD PUSH1 0x1E DUP2 MSTORE RETURN JUMPDEST DUP4 DUP3 CALLVALUE PUSH2 0x3D4 JUMPI DUP2 PUSH1 0x3 NOT CALLDATASIZE ADD SLT PUSH2 0x3D4 JUMPI PUSH1 0x20 SWAP1 PUSH1 0x9 SLOAD SWAP1 MLOAD SWAP1 DUP2 MSTORE RETURN JUMPDEST DUP4 DUP3 CALLVALUE PUSH2 0x3D4 JUMPI DUP2 PUSH1 0x3 NOT CALLDATASIZE ADD SLT PUSH2 0x3D4 JUMPI SWAP1 SLOAD SWAP1 MLOAD PUSH1 0x1 PUSH1 0x1 PUSH1 0xA0 SHL SUB SWAP1 SWAP2 AND DUP2 MSTORE PUSH1 0x20 SWAP1 RETURN JUMPDEST DUP4 DUP3 CALLVALUE PUSH2 0x3D4 JUMPI DUP2 PUSH1 0x3 NOT CALLDATASIZE ADD SLT PUSH2 0x3D4 JUMPI PUSH1 0x20 PUSH32 0x62E78CEA01BEE320CD4E420270B5EA74000D11B0C9F74754EBDBFC544B05A258 SWAP2 PUSH2 0x4B8 PUSH2 0x895 JUMP JUMPDEST PUSH2 0x4C0 PUSH2 0x945 JUMP JUMPDEST PUSH1 0x1 PUSH1 0xFF NOT PUSH1 0x2 SLOAD AND OR PUSH1 0x2 SSTORE MLOAD CALLER DUP2 MSTORE LOG1 DUP1 RETURN JUMPDEST POP SWAP1 CALLVALUE PUSH2 0x1B8 JUMPI PUSH1 0x20 CALLDATASIZE PUSH1 0x3 NOT ADD SLT PUSH2 0x1B8 JUMPI DUP1 CALLDATALOAD PUSH1 0x1 PUSH1 0x1 PUSH1 0xA0 SHL SUB DUP2 DUP2 AND SWAP4 SWAP1 SWAP3 SWAP1 DUP5 DUP4 SUB PUSH2 0x3AD JUMPI PUSH2 0x508 PUSH2 0x895 JUMP JUMPDEST DUP5 ISZERO PUSH2 0x55D JUMPI POP POP PUSH1 0x2 DUP1 SLOAD PUSH2 0x100 PUSH1 0x1 PUSH1 0xA8 SHL SUB NOT DUP2 AND PUSH1 0x8 SWAP4 DUP5 SHL PUSH2 0x100 PUSH1 0x1 PUSH1 0xA8 SHL SUB AND OR SWAP1 SWAP2 SSTORE SWAP1 SHR AND PUSH32 0x4AB5BE82436D353E61CA18726E984E561F5C1CC7C6D38B29D2553C790434705A DUP4 DUP1 LOG3 DUP1 RETURN JUMPDEST MLOAD PUSH4 0xE6C4247B PUSH1 0xE0 SHL DUP2 MSTORE REVERT JUMPDEST POP SWAP1 CALLVALUE PUSH2 0x1B8 JUMPI PUSH1 0x20 CALLDATASIZE PUSH1 0x3 NOT ADD SLT PUSH2 0x1B8 JUMPI CALLDATALOAD PUSH1 0x1 PUSH1 0x1 PUSH1 0xA0 SHL SUB DUP2 AND SWAP1 DUP2 SWAP1 SUB PUSH2 0x1B8 JUMPI DUP3 DUP3 SWAP2 PUSH1 0x20 SWAP5 MSTORE PUSH1 0x7 DUP5 MSTORE KECCAK256 SLOAD SWAP1 MLOAD SWAP1 DUP2 MSTORE RETURN JUMPDEST DUP4 CALLVALUE PUSH2 0x5FE JUMPI DUP1 PUSH1 0x3 NOT CALLDATASIZE ADD SLT PUSH2 0x5FE JUMPI PUSH2 0x5BD PUSH2 0x895 JUMP JUMPDEST DUP1 SLOAD PUSH1 0x1 PUSH1 0x1 PUSH1 0xA0 SHL SUB NOT DUP2 AND DUP3 SSTORE DUP2 SWAP1 PUSH1 0x1 PUSH1 0x1 PUSH1 0xA0 SHL SUB AND PUSH32 0x8BE0079C531659141344CD1FD0A4F28419497F9722A3DAAFE3B4186F6B6457E0 DUP3 DUP1 LOG3 DUP1 RETURN JUMPDEST DUP1 REVERT JUMPDEST DUP4 DUP3 CALLVALUE PUSH2 0x3D4 JUMPI DUP2 PUSH1 0x3 NOT CALLDATASIZE ADD SLT PUSH2 0x3D4 JUMPI PUSH1 0x2 SLOAD SWAP1 MLOAD PUSH1 0x8 SWAP2 SWAP1 SWAP2 SHR PUSH1 0x1 PUSH1 0x1 PUSH1 0xA0 SHL SUB AND DUP2 MSTORE PUSH1 0x20 SWAP1 RETURN JUMPDEST DUP4 DUP3 CALLVALUE PUSH2 0x3D4 JUMPI DUP2 PUSH1 0x3 NOT CALLDATASIZE ADD SLT PUSH2 0x3D4 JUMPI PUSH1 0x20 SWAP1 PUSH1 0xFF PUSH1 0x2 SLOAD AND SWAP1 MLOAD SWAP1 ISZERO ISZERO DUP2 MSTORE RETURN JUMPDEST DUP4 DUP3 CALLVALUE PUSH2 0x3D4 JUMPI DUP2 PUSH1 0x3 NOT CALLDATASIZE ADD SLT PUSH2 0x3D4 JUMPI PUSH1 0x20 SWAP1 PUSH1 0x8 SLOAD SWAP1 MLOAD SWAP1 DUP2 MSTORE RETURN JUMPDEST POP CALLVALUE PUSH2 0x1B8 JUMPI PUSH1 0x20 CALLDATASIZE PUSH1 0x3 NOT ADD SLT PUSH2 0x1B8 JUMPI PUSH1 0x1 PUSH1 0x1 PUSH1 0xA0 SHL SUB DUP3 CALLDATALOAD DUP2 DUP2 AND SWAP4 SWAP2 SWAP3 SWAP1 DUP5 SWAP1 SUB PUSH2 0x1B4 JUMPI PUSH2 0x6A3 PUSH2 0x895 JUMP JUMPDEST DUP4 ISZERO PUSH2 0x55D JUMPI POP POP PUSH1 0x3 SLOAD DUP3 PUSH12 0xFFFFFFFFFFFFFFFFFFFFFFFF PUSH1 0xA0 SHL DUP3 AND OR PUSH1 0x3 SSTORE AND PUSH32 0x66D1693C687B421F540B37C3682DEEAEE7FE381C4D000C01701498E6F6ED04C8 DUP4 DUP1 LOG3 DUP1 RETURN JUMPDEST POP CALLVALUE PUSH2 0x1B8 JUMPI PUSH1 0x20 CALLDATASIZE PUSH1 0x3 NOT ADD SLT PUSH2 0x1B8 JUMPI PUSH32 0x466B192740AD42C5DD7E4C768AFB2D0DE60DFB03F791A8A4FF715D0951BC0712 SWAP2 CALLDATALOAD PUSH2 0x72A PUSH2 0x895 JUMP JUMPDEST PUSH1 0x5 SLOAD SWAP1 DUP1 PUSH1 0x5 SSTORE DUP3 MLOAD SWAP2 DUP3 MSTORE PUSH1 0x20 DUP3 ADD MSTORE LOG1 DUP1 RETURN JUMPDEST POP CALLVALUE PUSH2 0x1B8 JUMPI PUSH1 0x20 CALLDATASIZE PUSH1 0x3 NOT ADD SLT PUSH2 0x1B8 JUMPI PUSH2 0x75A PUSH2 0x895 JUMP JUMPDEST DUP3 DUP1 DUP1 DUP1 DUP6 CALLDATALOAD PUSH1 0x1 DUP1 PUSH1 0xA0 SHL SUB DUP3 SLOAD AND GAS CALL PUSH2 0x774 PUSH2 0x8E4 JUMP JUMPDEST POP ISZERO PUSH2 0x334 JUMPI DUP3 DUP1 RETURN JUMPDEST POP SWAP1 CALLVALUE PUSH2 0x1B8 JUMPI DUP3 PUSH1 0x3 NOT CALLDATASIZE ADD SLT PUSH2 0x1B8 JUMPI PUSH2 0x798 PUSH2 0x895 JUMP JUMPDEST PUSH1 0x2 SLOAD SWAP1 PUSH1 0xFF DUP3 AND ISZERO PUSH2 0x7DA JUMPI POP PUSH1 0xFF NOT AND PUSH1 0x2 SSTORE MLOAD CALLER DUP2 MSTORE PUSH32 0x5DB9EE0A495BF2E6FF9C91A7834C1BA4FDD244A5E8AA4E537BD38AEAE4B073AA SWAP1 PUSH1 0x20 SWAP1 LOG1 DUP1 RETURN JUMPDEST DUP3 MLOAD PUSH4 0x8DFC202B PUSH1 0xE0 SHL DUP2 MSTORE REVERT JUMPDEST DUP4 DUP3 CALLVALUE PUSH2 0x3D4 JUMPI DUP2 PUSH1 0x3 NOT CALLDATASIZE ADD SLT PUSH2 0x3D4 JUMPI PUSH1 0x20 SWAP1 MLOAD PUSH1 0x46 DUP2 MSTORE RETURN JUMPDEST DUP4 DUP3 CALLVALUE PUSH2 0x3D4 JUMPI DUP2 PUSH1 0x3 NOT CALLDATASIZE ADD SLT PUSH2 0x3D4 JUMPI PUSH1 0x20 SWAP1 PUSH2 0x821 PUSH2 0x963 JUMP JUMPDEST SWAP1 MLOAD SWAP1 DUP2 MSTORE RETURN JUMPDEST POP SWAP1 CALLVALUE PUSH2 0x1B8 JUMPI DUP3 PUSH1 0x3 NOT CALLDATASIZE ADD SLT PUSH2 0x1B8 JUMPI SLOAD SWAP1 MLOAD PUSH1 0x1 PUSH1 0x1 PUSH1 0xA0 SHL SUB SWAP1 SWAP2 AND DUP2 MSTORE PUSH1 0x20 SWAP2 POP RETURN JUMPDEST DUP4 DUP3 CALLVALUE PUSH2 0x3D4 JUMPI DUP2 PUSH1 0x3 NOT CALLDATASIZE ADD SLT PUSH2 0x3D4 JUMPI PUSH1 0x3 SLOAD SWAP1 MLOAD PUSH1 0x1 PUSH1 0x1 PUSH1 0xA0 SHL SUB SWAP1 SWAP2 AND DUP2 MSTORE PUSH1 0x20 SWAP1 RETURN JUMPDEST DUP5 SWAP1 CALLVALUE PUSH2 0x3D4 JUMPI DUP2 PUSH1 0x3 NOT CALLDATASIZE ADD SLT PUSH2 0x3D4 JUMPI PUSH1 0x20 SWAP1 PUSH1 0x5 SLOAD DUP2 MSTORE RETURN JUMPDEST PUSH1 0x0 SLOAD PUSH1 0x1 PUSH1 0x1 PUSH1 0xA0 SHL SUB AND CALLER SUB PUSH2 0x8A9 JUMPI JUMP JUMPDEST PUSH1 0x40 MLOAD PUSH4 0x118CDAA7 PUSH1 0xE0 SHL DUP2 MSTORE CALLER PUSH1 0x4 DUP3 ADD MSTORE PUSH1 0x24 SWAP1 REVERT JUMPDEST SWAP2 SWAP1 DUP3 SUB SWAP2 DUP3 GT PUSH2 0x8CE JUMPI JUMP JUMPDEST PUSH4 0x4E487B71 PUSH1 0xE0 SHL PUSH1 0x0 MSTORE PUSH1 0x11 PUSH1 0x4 MSTORE PUSH1 0x24 PUSH1 0x0 REVERT JUMPDEST RETURNDATASIZE ISZERO PUSH2 0x940 JUMPI PUSH8 0xFFFFFFFFFFFFFFFF SWAP1 RETURNDATASIZE DUP3 DUP2 GT PUSH2 0x92A JUMPI PUSH1 0x40 MLOAD SWAP3 PUSH1 0x1F DUP3 ADD PUSH1 0x1F NOT SWAP1 DUP2 AND PUSH1 0x3F ADD AND DUP5 ADD SWAP1 DUP2 GT DUP5 DUP3 LT OR PUSH2 0x92A JUMPI PUSH1 0x40 MSTORE DUP3 MSTORE RETURNDATASIZE PUSH1 0x0 PUSH1 0x20 DUP5 ADD RETURNDATACOPY JUMP JUMPDEST PUSH4 0x4E487B71 PUSH1 0xE0 SHL PUSH1 0x0 MSTORE PUSH1 0x41 PUSH1 0x4 MSTORE PUSH1 0x24 PUSH1 0x0 REVERT JUMPDEST PUSH1 0x60 SWAP1 JUMP JUMPDEST PUSH1 0xFF PUSH1 0x2 SLOAD AND PUSH2 0x951 JUMPI JUMP JUMPDEST PUSH1 0x40 MLOAD PUSH4 0xD93C0665 PUSH1 0xE0 SHL DUP2 MSTORE PUSH1 0x4 SWAP1 REVERT JUMPDEST PUSH1 0x5 SLOAD DUP1 ISZERO PUSH2 0x981 JUMPI PUSH16 0x785EE10D5DA46D900F436A000000000 DIV SWAP1 JUMP JUMPDEST PUSH1 0x40 MLOAD PUSH3 0x461BCD PUSH1 0xE5 SHL DUP2 MSTORE PUSH1 0x20 PUSH1 0x4 DUP3 ADD MSTORE PUSH1 0xD PUSH1 0x24 DUP3 ADD MSTORE PUSH13 0x141C9A58D9481B9BDD081CD95D PUSH1 0x9A SHL PUSH1 0x44 DUP3 ADD MSTORE PUSH1 0x64 SWAP1 REVERT INVALID LOG2 PUSH5 0x6970667358 0x22 SLT KECCAK256 0xC5 SWAP8 DELEGATECALL 0x5C 0xC5 PUSH28 0xE47789543272B3E7A8D41CE0582AA981ED4ECDE269FD6FE9F8C06473 PUSH16 0x6C634300081400330000000000000000 "},"methodIdentifiers":{"PRICE_USD()":"e1ab98ba","REFERRAL_POOL_SHARE()":"9e844bdf","TREASURY_SHARE()":"32696174","checkBlueCheck(address)":"b1c457c5","emergencyWithdraw(uint256)":"5312ea8e","getRequiredBNB()":"26fa0cad","hasBlueCheck(address)":"d2799af5","manualPriceBNB()":"171dca13","owner()":"8da5cb5b","pause()":"8456cb59","paused()":"5c975abb","priceOracle()":"2630c12f","purchaseBlueCheck(address)":"e9d4789a","purchaseTimestamp(address)":"76755118","referralPool()":"1e4df938","renounceOwnership()":"715018a6","totalBNBCollected()":"92423383","totalPurchases()":"5962a941","transferOwnership(address)":"f2fde38b","treasury()":"61d027b3","unpause()":"3f4ba83a","updateManualPrice(uint256)":"553c907e","updateReferralPool(address)":"55d08949","updateTreasury(address)":"7f51bb1f"}}}}}