{"contracts/fairlaunch/SimpleTokenFactory.sol":{"SimpleTokenFactory":{"abi":[{"inputs":[{"internalType":"address","name":"treasury_","type":"address"},{"internalType":"uint256","name":"creationFee_","type":"uint256"}],"stateMutability":"nonpayable","type":"constructor"},{"anonymous":false,"inputs":[{"indexed":false,"internalType":"uint256","name":"oldFee","type":"uint256"},{"indexed":false,"internalType":"uint256","name":"newFee","type":"uint256"}],"name":"CreationFeeUpdated","type":"event"},{"anonymous":false,"inputs":[{"indexed":true,"internalType":"address","name":"token","type":"address"},{"indexed":true,"internalType":"address","name":"creator","type":"address"},{"indexed":false,"internalType":"string","name":"name","type":"string"},{"indexed":false,"internalType":"string","name":"symbol","type":"string"},{"indexed":false,"internalType":"uint256","name":"totalSupply","type":"uint256"},{"indexed":false,"internalType":"uint8","name":"decimals","type":"uint8"}],"name":"TokenCreated","type":"event"},{"inputs":[{"internalType":"uint256","name":"","type":"uint256"}],"name":"allCreatedTokens","outputs":[{"internalType":"address","name":"","type":"address"}],"stateMutability":"view","type":"function"},{"inputs":[{"internalType":"string","name":"name","type":"string"},{"internalType":"string","name":"symbol","type":"string"},{"internalType":"uint256","name":"totalSupply","type":"uint256"},{"internalType":"uint8","name":"decimals","type":"uint8"}],"name":"createToken","outputs":[{"internalType":"address","name":"token","type":"address"}],"stateMutability":"payable","type":"function"},{"inputs":[],"name":"creationFee","outputs":[{"internalType":"uint256","name":"","type":"uint256"}],"stateMutability":"view","type":"function"},{"inputs":[{"internalType":"address","name":"","type":"address"}],"name":"isCreatedByPlatform","outputs":[{"internalType":"bool","name":"","type":"bool"}],"stateMutability":"view","type":"function"},{"inputs":[{"internalType":"address","name":"token","type":"address"}],"name":"isPlatformToken","outputs":[{"internalType":"bool","name":"","type":"bool"}],"stateMutability":"view","type":"function"},{"inputs":[],"name":"totalCreatedTokens","outputs":[{"internalType":"uint256","name":"","type":"uint256"}],"stateMutability":"view","type":"function"},{"inputs":[],"name":"treasury","outputs":[{"internalType":"address","name":"","type":"address"}],"stateMutability":"view","type":"function"}],"evm":{"bytecode":{"linkReferences":{},"object":"60a0346100b857601f61145038819003918201601f19168301916001600160401b038311848410176100bd5780849260409485528339810103126100b85780516001600160a01b038116918282036100b8576020015191156100805760805260005560405161137c90816100d4823960805181818161030001526104e70152f35b60405162461bcd60e51b815260206004820152601060248201526f496e76616c696420747265617375727960801b6044820152606490fd5b600080fd5b634e487b7160e01b600052604160045260246000fdfe60806040818152600491823610156200001757600080fd5b600092833560e01c9182630e3d61e914620005165750816361d027b314620004d05781636a033fc114620000e8578163b64acddd146200012a578163b73f70ec14620000e8578163d6d56624146200009b575063dce0b4e4146200007a57600080fd5b346200009757816003193601126200009757602091549051908152f35b5080fd5b905034620000e4576020366003190112620000e4573591600254831015620000e15750620000cb602092620005d5565b905491519160018060a01b039160031b1c168152f35b80fd5b8280fd5b905034620000e4576020366003190112620000e457356001600160a01b03811690819003620000e457818360ff92602095526001855220541690519015158152f35b90506080366003190112620000e45767ffffffffffffffff918135838111620004cc576200015c90369084016200058e565b916024928335858111620004c8576200017990369084016200058e565b60449081359360649081359360ff8516809503620004c4578a5434106200048657855115620004585783511562000428578615620003f55760128511620003c3578751610ce18082019b8c11828d1017620003b15762000666823960a08b5280620001e860a08d018962000623565b9b620001ff60209d8e838203908401528862000623565b908a8c82015288606082015260803391015203908cf0988915620003a7576001600160a01b03998a16808d526001808d528a8e20805460ff191690911790556002549c909a680100000000000000008e101562000396576200026f8e8d9e9f6001909e9c9d9e01600255620005d5565b819291549060031b918c831b921b191617905534620002f0575b505050505090620002da7f6571bfb23a3d072cb2827a22a12d773a03972b073bf49095176a4cfef04de7e19392620002cc88519460808652608086019062000623565b908482038b86015262000623565b948683015260608201528033940390a351908152f35b808080809495969798999a9b50347f00000000000000000000000000000000000000000000000000000000000000005af1903d156200038f573d90620003406200033a8362000571565b62000534565b9182528d3d92013e5b156200035b57808a9796959462000289565b885162461bcd60e51b81529283018b905260139083015272119959481d1c985b9cd9995c8819985a5b1959606a1b90820152fd5b5062000349565b50634e487b7160e01b815260418452fd5b88513d8d823e3d90fd5b634e487b7160e01b8d52604184528a8dfd5b70088cac6d2dac2d8e640e8dede40d0d2ced607b1b9060118a60208b519562461bcd60e51b8752860152840152820152fd5b710537570706c79206d757374206265203e20360741b9060128a60208b519562461bcd60e51b8752860152840152820152fd5b6e14de5b589bdb081c995c5d5a5c9959608a1b90600f8a60208b519562461bcd60e51b8752860152840152820152fd5b6c13985b59481c995c5d5a5c9959609a1b90600d8a60208b519562461bcd60e51b8752860152840152820152fd5b7f496e73756666696369656e74206372656174696f6e20666565000000000000009060198a60208b519562461bcd60e51b8752860152840152820152fd5b8a80fd5b8680fd5b8480fd5b5050346200009757816003193601126200009757517f00000000000000000000000000000000000000000000000000000000000000006001600160a01b03168152602090f35b84903462000097578160031936011262000097576020906002548152f35b6040519190601f01601f1916820167ffffffffffffffff8111838210176200055b57604052565b634e487b7160e01b600052604160045260246000fd5b67ffffffffffffffff81116200055b57601f01601f191660200190565b81601f82011215620005d057803590620005ac6200033a8362000571565b9282845260208383010111620005d057816000926020809301838601378301015290565b600080fd5b6002548110156200060d5760026000527f405787fa12a823e0f2b7631cc41b3ba8828b3321ca811111fa75cd3aa3bb5ace0190600090565b634e487b7160e01b600052603260045260246000fd5b919082519283825260005b84811062000650575050826000602080949584010152601f8019910116010190565b6020818301810151848301820152016200062e56fe604060808152346200041d5762000ce1803803806200001e8162000422565b928339810160a0828203126200041d5781516001600160401b0392908381116200041d57826200005091830162000448565b9260209283830151908282116200041d576200006e91840162000448565b90858301519260608101519060ff821682036200041d57608001516001600160a01b0380821697909390918890036200041d5781518181116200031a576003908154906001948583811c9316801562000412575b8b841014620003fc5781908b601f94858111620003a3575b50508b908483116001146200033c5760009262000330575b505060001982851b1c191690851b1782555b86519283116200031a5760049687548581811c911680156200030f575b8b821014620002fa57828111620002af575b5089918411600114620002445793839491849260009562000238575b50501b92600019911b1c19161783555b851562000221578590816005549384167f8be0079c531659141344cd1fd0a4f28419497f9722a3daafe3b4186f6b6457e0600080a36001600160a81b03199092161760a09190911b60ff60a01b1617600555600254828101919082106200020c575060025560008381528083528481208054830190558451918252917fddf252ad1be2c89b69c2b068fc378daa952ba7f163c4a11628f55a4df523b3ef91a3516108269081620004bb8239f35b601190634e487b7160e01b6000525260246000fd5b8651631e4fbdf760e01b8152600081850152602490fd5b0151935038806200014f565b9190601f1984169288600052848b6000209460005b8d898383106200029757505050106200027c575b50505050811b0183556200015f565b01519060f884600019921b161c19169055388080806200026d565b86860151895590970196948501948893500162000259565b886000528a6000208380870160051c8201928d8810620002f0575b0160051c019086905b828110620002e357505062000133565b60008155018690620002d3565b92508192620002ca565b602289634e487b7160e01b6000525260246000fd5b90607f169062000121565b634e487b7160e01b600052604160045260246000fd5b015190503880620000f2565b60008681528d8120899550929190601f198516908f5b8282106200038b575050841162000372575b505050811b01825562000104565b015160001983871b60f8161c1916905538808062000364565b8385015186558b979095019493840193018f62000352565b909192508560005284826000209181860160051c8301938610620003f2575b918991869594930160051c01915b828110620003e257508d9150620000da565b60008155859450899101620003d0565b92508192620003c2565b634e487b7160e01b600052602260045260246000fd5b92607f1692620000c2565b600080fd5b6040519190601f01601f191682016001600160401b038111838210176200031a57604052565b919080601f840112156200041d5782516001600160401b0381116200031a576020906200047e601f8201601f1916830162000422565b928184528282870101116200041d5760005b818110620004a657508260009394955001015290565b85810183015184820184015282016200049056fe6080604081815260048036101561001557600080fd5b600092833560e01c90816306fdde031461057757508063095ea7b3146104ce57806318160ddd146104af57806323b872dd146103bc578063313ce5671461039757806370a0823114610360578063715018a6146103005780638da5cb5b146102d757806395d89b41146101b7578063a9059cbb14610186578063dd62ed3e146101395763f2fde38b146100a757600080fd5b34610135576020366003190112610135576100c06106b5565b906100c96106e6565b6001600160a01b0391821692831561011f575050600554826bffffffffffffffffffffffff60a01b821617600555167f8be0079c531659141344cd1fd0a4f28419497f9722a3daafe3b4186f6b6457e08380a380f35b51631e4fbdf760e01b8152908101849052602490fd5b8280fd5b505034610182578060031936011261018257806020926101576106b5565b61015f6106d0565b6001600160a01b0391821683526001865283832091168252845220549051908152f35b5080fd5b5050346101825780600319360112610182576020906101b06101a66106b5565b6024359033610712565b5160018152f35b50919034610182578160031936011261018257805190828454600181811c908083169283156102cd575b60209384841081146102ba5783885290811561029e5750600114610249575b505050829003601f01601f191682019267ffffffffffffffff841183851017610236575082918261023292528261066c565b0390f35b634e487b7160e01b815260418552602490fd5b8787529192508591837f8a35acfbc15ff81a39ae7d344fd709f28e8600b4aa8c65c6b64bfe7fe36bd19b5b83851061028a5750505050830101388080610200565b805488860183015293019284908201610274565b60ff1916878501525050151560051b8401019050388080610200565b634e487b7160e01b895260228a52602489fd5b91607f16916101e1565b50503461018257816003193601126101825760055490516001600160a01b039091168152602090f35b833461035d578060031936011261035d576103196106e6565b600580546001600160a01b0319811690915581906001600160a01b03167f8be0079c531659141344cd1fd0a4f28419497f9722a3daafe3b4186f6b6457e08280a380f35b80fd5b5050346101825760203660031901126101825760209181906001600160a01b036103886106b5565b16815280845220549051908152f35b50503461018257816003193601126101825760209060ff60055460a01c169051908152f35b50823461035d57606036600319011261035d576103d76106b5565b6103df6106d0565b916044359360018060a01b03831680835260016020528683203384526020528683205491600019831061041b575b6020886101b0898989610712565b86831061048357811561046c573315610455575082526001602090815286832033845281529186902090859003905582906101b08761040d565b8751634a1406b160e11b8152908101849052602490fd5b875163e602df0560e01b8152908101849052602490fd5b8751637dc7a0d960e11b8152339181019182526020820193909352604081018790528291506060010390fd5b5050346101825781600319360112610182576020906002549051908152f35b50346101355781600319360112610135576104e76106b5565b602435903315610560576001600160a01b031691821561054957508083602095338152600187528181208582528752205582519081527f8c5be1e5ebec7d5bd14f71427d1e84f3dd0314c0f7b2291e5b200ac8c7c3b925843392a35160018152f35b8351634a1406b160e11b8152908101859052602490fd5b835163e602df0560e01b8152808401869052602490fd5b849150833461013557826003193601126101355782600354600181811c90808316928315610662575b60209384841081146102ba5783885290811561064657506001146105f057505050829003601f01601f191682019267ffffffffffffffff841183851017610236575082918261023292528261066c565b600387529192508591837fc2575a0e9e593c00f959f8c92f12db2869c3395a3b0502d05e2516446f71f85b5b8385106106325750505050830101858080610200565b80548886018301529301928490820161061c565b60ff1916878501525050151560051b8401019050858080610200565b91607f16916105a0565b6020808252825181830181905290939260005b8281106106a157505060409293506000838284010152601f8019910116010190565b81810186015184820160400152850161067f565b600435906001600160a01b03821682036106cb57565b600080fd5b602435906001600160a01b03821682036106cb57565b6005546001600160a01b031633036106fa57565b60405163118cdaa760e01b8152336004820152602490fd5b916001600160a01b038084169283156107d757169283156107be576000908382528160205260408220549083821061078c575091604082827fddf252ad1be2c89b69c2b068fc378daa952ba7f163c4a11628f55a4df523b3ef958760209652828652038282205586815220818154019055604051908152a3565b60405163391434e360e21b81526001600160a01b03919091166004820152602481019190915260448101839052606490fd5b60405163ec442f0560e01b815260006004820152602490fd5b604051634b637e8f60e11b815260006004820152602490fdfea2646970667358221220822a965ba3e11431bddb490de776c0a41d2284163ab77d0886112c045ab41f2a64736f6c63430008140033a2646970667358221220bfe7033651158bcced8c4e6d458b044d783f6cf64dfe8eef8fc23965acadd6bf64736f6c63430008140033","opcodes":"PUSH1 0xA0 CALLVALUE PUSH2 0xB8 JUMPI PUSH1 0x1F PUSH2 0x1450 CODESIZE DUP2 SWAP1 SUB SWAP2 DUP3 ADD PUSH1 0x1F NOT AND DUP4 ADD SWAP2 PUSH1 0x1 PUSH1 0x1 PUSH1 0x40 SHL SUB DUP4 GT DUP5 DUP5 LT OR PUSH2 0xBD JUMPI DUP1 DUP5 SWAP3 PUSH1 0x40 SWAP5 DUP6 MSTORE DUP4 CODECOPY DUP2 ADD SUB SLT PUSH2 0xB8 JUMPI DUP1 MLOAD PUSH1 0x1 PUSH1 0x1 PUSH1 0xA0 SHL SUB DUP2 AND SWAP2 DUP3 DUP3 SUB PUSH2 0xB8 JUMPI PUSH1 0x20 ADD MLOAD SWAP2 ISZERO PUSH2 0x80 JUMPI PUSH1 0x80 MSTORE PUSH1 0x0 SSTORE PUSH1 0x40 MLOAD PUSH2 0x137C SWAP1 DUP2 PUSH2 0xD4 DUP3 CODECOPY PUSH1 0x80 MLOAD DUP2 DUP2 DUP2 PUSH2 0x300 ADD MSTORE PUSH2 0x4E7 ADD MSTORE RETURN JUMPDEST PUSH1 0x40 MLOAD PUSH3 0x461BCD PUSH1 0xE5 SHL DUP2 MSTORE PUSH1 0x20 PUSH1 0x4 DUP3 ADD MSTORE PUSH1 0x10 PUSH1 0x24 DUP3 ADD MSTORE PUSH16 0x496E76616C6964207472656173757279 PUSH1 0x80 SHL PUSH1 0x44 DUP3 ADD MSTORE PUSH1 0x64 SWAP1 REVERT JUMPDEST PUSH1 0x0 DUP1 REVERT JUMPDEST PUSH4 0x4E487B71 PUSH1 0xE0 SHL PUSH1 0x0 MSTORE PUSH1 0x41 PUSH1 0x4 MSTORE PUSH1 0x24 PUSH1 0x0 REVERT INVALID PUSH1 0x80 PUSH1 0x40 DUP2 DUP2 MSTORE PUSH1 0x4 SWAP2 DUP3 CALLDATASIZE LT ISZERO PUSH3 0x17 JUMPI PUSH1 0x0 DUP1 REVERT JUMPDEST PUSH1 0x0 SWAP3 DUP4 CALLDATALOAD PUSH1 0xE0 SHR SWAP2 DUP3 PUSH4 0xE3D61E9 EQ PUSH3 0x516 JUMPI POP DUP2 PUSH4 0x61D027B3 EQ PUSH3 0x4D0 JUMPI DUP2 PUSH4 0x6A033FC1 EQ PUSH3 0xE8 JUMPI DUP2 PUSH4 0xB64ACDDD EQ PUSH3 0x12A JUMPI DUP2 PUSH4 0xB73F70EC EQ PUSH3 0xE8 JUMPI DUP2 PUSH4 0xD6D56624 EQ PUSH3 0x9B JUMPI POP PUSH4 0xDCE0B4E4 EQ PUSH3 0x7A JUMPI PUSH1 0x0 DUP1 REVERT JUMPDEST CALLVALUE PUSH3 0x97 JUMPI DUP2 PUSH1 0x3 NOT CALLDATASIZE ADD SLT PUSH3 0x97 JUMPI PUSH1 0x20 SWAP2 SLOAD SWAP1 MLOAD SWAP1 DUP2 MSTORE RETURN JUMPDEST POP DUP1 REVERT JUMPDEST SWAP1 POP CALLVALUE PUSH3 0xE4 JUMPI PUSH1 0x20 CALLDATASIZE PUSH1 0x3 NOT ADD SLT PUSH3 0xE4 JUMPI CALLDATALOAD SWAP2 PUSH1 0x2 SLOAD DUP4 LT ISZERO PUSH3 0xE1 JUMPI POP PUSH3 0xCB PUSH1 0x20 SWAP3 PUSH3 0x5D5 JUMP JUMPDEST SWAP1 SLOAD SWAP2 MLOAD SWAP2 PUSH1 0x1 DUP1 PUSH1 0xA0 SHL SUB SWAP2 PUSH1 0x3 SHL SHR AND DUP2 MSTORE RETURN JUMPDEST DUP1 REVERT JUMPDEST DUP3 DUP1 REVERT JUMPDEST SWAP1 POP CALLVALUE PUSH3 0xE4 JUMPI PUSH1 0x20 CALLDATASIZE PUSH1 0x3 NOT ADD SLT PUSH3 0xE4 JUMPI CALLDATALOAD PUSH1 0x1 PUSH1 0x1 PUSH1 0xA0 SHL SUB DUP2 AND SWAP1 DUP2 SWAP1 SUB PUSH3 0xE4 JUMPI DUP2 DUP4 PUSH1 0xFF SWAP3 PUSH1 0x20 SWAP6 MSTORE PUSH1 0x1 DUP6 MSTORE KECCAK256 SLOAD AND SWAP1 MLOAD SWAP1 ISZERO ISZERO DUP2 MSTORE RETURN JUMPDEST SWAP1 POP PUSH1 0x80 CALLDATASIZE PUSH1 0x3 NOT ADD SLT PUSH3 0xE4 JUMPI PUSH8 0xFFFFFFFFFFFFFFFF SWAP2 DUP2 CALLDATALOAD DUP4 DUP2 GT PUSH3 0x4CC JUMPI PUSH3 0x15C SWAP1 CALLDATASIZE SWAP1 DUP5 ADD PUSH3 0x58E JUMP JUMPDEST SWAP2 PUSH1 0x24 SWAP3 DUP4 CALLDATALOAD DUP6 DUP2 GT PUSH3 0x4C8 JUMPI PUSH3 0x179 SWAP1 CALLDATASIZE SWAP1 DUP5 ADD PUSH3 0x58E JUMP JUMPDEST PUSH1 0x44 SWAP1 DUP2 CALLDATALOAD SWAP4 PUSH1 0x64 SWAP1 DUP2 CALLDATALOAD SWAP4 PUSH1 0xFF DUP6 AND DUP1 SWAP6 SUB PUSH3 0x4C4 JUMPI DUP11 SLOAD CALLVALUE LT PUSH3 0x486 JUMPI DUP6 MLOAD ISZERO PUSH3 0x458 JUMPI DUP4 MLOAD ISZERO PUSH3 0x428 JUMPI DUP7 ISZERO PUSH3 0x3F5 JUMPI PUSH1 0x12 DUP6 GT PUSH3 0x3C3 JUMPI DUP8 MLOAD PUSH2 0xCE1 DUP1 DUP3 ADD SWAP12 DUP13 GT DUP3 DUP14 LT OR PUSH3 0x3B1 JUMPI PUSH3 0x666 DUP3 CODECOPY PUSH1 0xA0 DUP12 MSTORE DUP1 PUSH3 0x1E8 PUSH1 0xA0 DUP14 ADD DUP10 PUSH3 0x623 JUMP JUMPDEST SWAP12 PUSH3 0x1FF PUSH1 0x20 SWAP14 DUP15 DUP4 DUP3 SUB SWAP1 DUP5 ADD MSTORE DUP9 PUSH3 0x623 JUMP JUMPDEST SWAP1 DUP11 DUP13 DUP3 ADD MSTORE DUP9 PUSH1 0x60 DUP3 ADD MSTORE PUSH1 0x80 CALLER SWAP2 ADD MSTORE SUB SWAP1 DUP13 CREATE SWAP9 DUP10 ISZERO PUSH3 0x3A7 JUMPI PUSH1 0x1 PUSH1 0x1 PUSH1 0xA0 SHL SUB SWAP10 DUP11 AND DUP1 DUP14 MSTORE PUSH1 0x1 DUP1 DUP14 MSTORE DUP11 DUP15 KECCAK256 DUP1 SLOAD PUSH1 0xFF NOT AND SWAP1 SWAP2 OR SWAP1 SSTORE PUSH1 0x2 SLOAD SWAP13 SWAP1 SWAP11 PUSH9 0x10000000000000000 DUP15 LT ISZERO PUSH3 0x396 JUMPI PUSH3 0x26F DUP15 DUP14 SWAP15 SWAP16 PUSH1 0x1 SWAP1 SWAP15 SWAP13 SWAP14 SWAP15 ADD PUSH1 0x2 SSTORE PUSH3 0x5D5 JUMP JUMPDEST DUP2 SWAP3 SWAP2 SLOAD SWAP1 PUSH1 0x3 SHL SWAP2 DUP13 DUP4 SHL SWAP3 SHL NOT AND OR SWAP1 SSTORE CALLVALUE PUSH3 0x2F0 JUMPI JUMPDEST POP POP POP POP POP SWAP1 PUSH3 0x2DA PUSH32 0x6571BFB23A3D072CB2827A22A12D773A03972B073BF49095176A4CFEF04DE7E1 SWAP4 SWAP3 PUSH3 0x2CC DUP9 MLOAD SWAP5 PUSH1 0x80 DUP7 MSTORE PUSH1 0x80 DUP7 ADD SWAP1 PUSH3 0x623 JUMP JUMPDEST SWAP1 DUP5 DUP3 SUB DUP12 DUP7 ADD MSTORE PUSH3 0x623 JUMP JUMPDEST SWAP5 DUP7 DUP4 ADD MSTORE PUSH1 0x60 DUP3 ADD MSTORE DUP1 CALLER SWAP5 SUB SWAP1 LOG3 MLOAD SWAP1 DUP2 MSTORE RETURN JUMPDEST DUP1 DUP1 DUP1 DUP1 SWAP5 SWAP6 SWAP7 SWAP8 SWAP9 SWAP10 SWAP11 SWAP12 POP CALLVALUE PUSH32 0x0 GAS CALL SWAP1 RETURNDATASIZE ISZERO PUSH3 0x38F JUMPI RETURNDATASIZE SWAP1 PUSH3 0x340 PUSH3 0x33A DUP4 PUSH3 0x571 JUMP JUMPDEST PUSH3 0x534 JUMP JUMPDEST SWAP2 DUP3 MSTORE DUP14 RETURNDATASIZE SWAP3 ADD RETURNDATACOPY JUMPDEST ISZERO PUSH3 0x35B JUMPI DUP1 DUP11 SWAP8 SWAP7 SWAP6 SWAP5 PUSH3 0x289 JUMP JUMPDEST DUP9 MLOAD PUSH3 0x461BCD PUSH1 0xE5 SHL DUP2 MSTORE SWAP3 DUP4 ADD DUP12 SWAP1 MSTORE PUSH1 0x13 SWAP1 DUP4 ADD MSTORE PUSH19 0x119959481D1C985B9CD9995C8819985A5B1959 PUSH1 0x6A SHL SWAP1 DUP3 ADD MSTORE REVERT JUMPDEST POP PUSH3 0x349 JUMP JUMPDEST POP PUSH4 0x4E487B71 PUSH1 0xE0 SHL DUP2 MSTORE PUSH1 0x41 DUP5 MSTORE REVERT JUMPDEST DUP9 MLOAD RETURNDATASIZE DUP14 DUP3 RETURNDATACOPY RETURNDATASIZE SWAP1 REVERT JUMPDEST PUSH4 0x4E487B71 PUSH1 0xE0 SHL DUP14 MSTORE PUSH1 0x41 DUP5 MSTORE DUP11 DUP14 REVERT JUMPDEST PUSH17 0x88CAC6D2DAC2D8E640E8DEDE40D0D2CED PUSH1 0x7B SHL SWAP1 PUSH1 0x11 DUP11 PUSH1 0x20 DUP12 MLOAD SWAP6 PUSH3 0x461BCD PUSH1 0xE5 SHL DUP8 MSTORE DUP7 ADD MSTORE DUP5 ADD MSTORE DUP3 ADD MSTORE REVERT JUMPDEST PUSH18 0x537570706C79206D757374206265203E203 PUSH1 0x74 SHL SWAP1 PUSH1 0x12 DUP11 PUSH1 0x20 DUP12 MLOAD SWAP6 PUSH3 0x461BCD PUSH1 0xE5 SHL DUP8 MSTORE DUP7 ADD MSTORE DUP5 ADD MSTORE DUP3 ADD MSTORE REVERT JUMPDEST PUSH15 0x14DE5B589BDB081C995C5D5A5C9959 PUSH1 0x8A SHL SWAP1 PUSH1 0xF DUP11 PUSH1 0x20 DUP12 MLOAD SWAP6 PUSH3 0x461BCD PUSH1 0xE5 SHL DUP8 MSTORE DUP7 ADD MSTORE DUP5 ADD MSTORE DUP3 ADD MSTORE REVERT JUMPDEST PUSH13 0x13985B59481C995C5D5A5C9959 PUSH1 0x9A SHL SWAP1 PUSH1 0xD DUP11 PUSH1 0x20 DUP12 MLOAD SWAP6 PUSH3 0x461BCD PUSH1 0xE5 SHL DUP8 MSTORE DUP7 ADD MSTORE DUP5 ADD MSTORE DUP3 ADD MSTORE REVERT JUMPDEST PUSH32 0x496E73756666696369656E74206372656174696F6E2066656500000000000000 SWAP1 PUSH1 0x19 DUP11 PUSH1 0x20 DUP12 MLOAD SWAP6 PUSH3 0x461BCD PUSH1 0xE5 SHL DUP8 MSTORE DUP7 ADD MSTORE DUP5 ADD MSTORE DUP3 ADD MSTORE REVERT JUMPDEST DUP11 DUP1 REVERT JUMPDEST DUP7 DUP1 REVERT JUMPDEST DUP5 DUP1 REVERT JUMPDEST POP POP CALLVALUE PUSH3 0x97 JUMPI DUP2 PUSH1 0x3 NOT CALLDATASIZE ADD SLT PUSH3 0x97 JUMPI MLOAD PUSH32 0x0 PUSH1 0x1 PUSH1 0x1 PUSH1 0xA0 SHL SUB AND DUP2 MSTORE PUSH1 0x20 SWAP1 RETURN JUMPDEST DUP5 SWAP1 CALLVALUE PUSH3 0x97 JUMPI DUP2 PUSH1 0x3 NOT CALLDATASIZE ADD SLT PUSH3 0x97 JUMPI PUSH1 0x20 SWAP1 PUSH1 0x2 SLOAD DUP2 MSTORE RETURN JUMPDEST PUSH1 0x40 MLOAD SWAP2 SWAP1 PUSH1 0x1F ADD PUSH1 0x1F NOT AND DUP3 ADD PUSH8 0xFFFFFFFFFFFFFFFF DUP2 GT DUP4 DUP3 LT OR PUSH3 0x55B JUMPI PUSH1 0x40 MSTORE JUMP JUMPDEST PUSH4 0x4E487B71 PUSH1 0xE0 SHL PUSH1 0x0 MSTORE PUSH1 0x41 PUSH1 0x4 MSTORE PUSH1 0x24 PUSH1 0x0 REVERT JUMPDEST PUSH8 0xFFFFFFFFFFFFFFFF DUP2 GT PUSH3 0x55B JUMPI PUSH1 0x1F ADD PUSH1 0x1F NOT AND PUSH1 0x20 ADD SWAP1 JUMP JUMPDEST DUP2 PUSH1 0x1F DUP3 ADD SLT ISZERO PUSH3 0x5D0 JUMPI DUP1 CALLDATALOAD SWAP1 PUSH3 0x5AC PUSH3 0x33A DUP4 PUSH3 0x571 JUMP JUMPDEST SWAP3 DUP3 DUP5 MSTORE PUSH1 0x20 DUP4 DUP4 ADD ADD GT PUSH3 0x5D0 JUMPI DUP2 PUSH1 0x0 SWAP3 PUSH1 0x20 DUP1 SWAP4 ADD DUP4 DUP7 ADD CALLDATACOPY DUP4 ADD ADD MSTORE SWAP1 JUMP JUMPDEST PUSH1 0x0 DUP1 REVERT JUMPDEST PUSH1 0x2 SLOAD DUP2 LT ISZERO PUSH3 0x60D JUMPI PUSH1 0x2 PUSH1 0x0 MSTORE PUSH32 0x405787FA12A823E0F2B7631CC41B3BA8828B3321CA811111FA75CD3AA3BB5ACE ADD SWAP1 PUSH1 0x0 SWAP1 JUMP JUMPDEST PUSH4 0x4E487B71 PUSH1 0xE0 SHL PUSH1 0x0 MSTORE PUSH1 0x32 PUSH1 0x4 MSTORE PUSH1 0x24 PUSH1 0x0 REVERT JUMPDEST SWAP2 SWAP1 DUP3 MLOAD SWAP3 DUP4 DUP3 MSTORE PUSH1 0x0 JUMPDEST DUP5 DUP2 LT PUSH3 0x650 JUMPI POP POP DUP3 PUSH1 0x0 PUSH1 0x20 DUP1 SWAP5 SWAP6 DUP5 ADD ADD MSTORE PUSH1 0x1F DUP1 NOT SWAP2 ADD AND ADD ADD SWAP1 JUMP JUMPDEST PUSH1 0x20 DUP2 DUP4 ADD DUP2 ADD MLOAD DUP5 DUP4 ADD DUP3 ADD MSTORE ADD PUSH3 0x62E JUMP INVALID PUSH1 0x40 PUSH1 0x80 DUP2 MSTORE CALLVALUE PUSH3 0x41D JUMPI PUSH3 0xCE1 DUP1 CODESIZE SUB DUP1 PUSH3 0x1E DUP2 PUSH3 0x422 JUMP JUMPDEST SWAP3 DUP4 CODECOPY DUP2 ADD PUSH1 0xA0 DUP3 DUP3 SUB SLT PUSH3 0x41D JUMPI DUP2 MLOAD PUSH1 0x1 PUSH1 0x1 PUSH1 0x40 SHL SUB SWAP3 SWAP1 DUP4 DUP2 GT PUSH3 0x41D JUMPI DUP3 PUSH3 0x50 SWAP2 DUP4 ADD PUSH3 0x448 JUMP JUMPDEST SWAP3 PUSH1 0x20 SWAP3 DUP4 DUP4 ADD MLOAD SWAP1 DUP3 DUP3 GT PUSH3 0x41D JUMPI PUSH3 0x6E SWAP2 DUP5 ADD PUSH3 0x448 JUMP JUMPDEST SWAP1 DUP6 DUP4 ADD MLOAD SWAP3 PUSH1 0x60 DUP2 ADD MLOAD SWAP1 PUSH1 0xFF DUP3 AND DUP3 SUB PUSH3 0x41D JUMPI PUSH1 0x80 ADD MLOAD PUSH1 0x1 PUSH1 0x1 PUSH1 0xA0 SHL SUB DUP1 DUP3 AND SWAP8 SWAP1 SWAP4 SWAP1 SWAP2 DUP9 SWAP1 SUB PUSH3 0x41D JUMPI DUP2 MLOAD DUP2 DUP2 GT PUSH3 0x31A JUMPI PUSH1 0x3 SWAP1 DUP2 SLOAD SWAP1 PUSH1 0x1 SWAP5 DUP6 DUP4 DUP2 SHR SWAP4 AND DUP1 ISZERO PUSH3 0x412 JUMPI JUMPDEST DUP12 DUP5 LT EQ PUSH3 0x3FC JUMPI DUP2 SWAP1 DUP12 PUSH1 0x1F SWAP5 DUP6 DUP2 GT PUSH3 0x3A3 JUMPI JUMPDEST POP POP DUP12 SWAP1 DUP5 DUP4 GT PUSH1 0x1 EQ PUSH3 0x33C JUMPI PUSH1 0x0 SWAP3 PUSH3 0x330 JUMPI JUMPDEST POP POP PUSH1 0x0 NOT DUP3 DUP6 SHL SHR NOT AND SWAP1 DUP6 SHL OR DUP3 SSTORE JUMPDEST DUP7 MLOAD SWAP3 DUP4 GT PUSH3 0x31A JUMPI PUSH1 0x4 SWAP7 DUP8 SLOAD DUP6 DUP2 DUP2 SHR SWAP2 AND DUP1 ISZERO PUSH3 0x30F JUMPI JUMPDEST DUP12 DUP3 LT EQ PUSH3 0x2FA JUMPI DUP3 DUP2 GT PUSH3 0x2AF JUMPI JUMPDEST POP DUP10 SWAP2 DUP5 GT PUSH1 0x1 EQ PUSH3 0x244 JUMPI SWAP4 DUP4 SWAP5 SWAP2 DUP5 SWAP3 PUSH1 0x0 SWAP6 PUSH3 0x238 JUMPI JUMPDEST POP POP SHL SWAP3 PUSH1 0x0 NOT SWAP2 SHL SHR NOT AND OR DUP4 SSTORE JUMPDEST DUP6 ISZERO PUSH3 0x221 JUMPI DUP6 SWAP1 DUP2 PUSH1 0x5 SLOAD SWAP4 DUP5 AND PUSH32 0x8BE0079C531659141344CD1FD0A4F28419497F9722A3DAAFE3B4186F6B6457E0 PUSH1 0x0 DUP1 LOG3 PUSH1 0x1 PUSH1 0x1 PUSH1 0xA8 SHL SUB NOT SWAP1 SWAP3 AND OR PUSH1 0xA0 SWAP2 SWAP1 SWAP2 SHL PUSH1 0xFF PUSH1 0xA0 SHL AND OR PUSH1 0x5 SSTORE PUSH1 0x2 SLOAD DUP3 DUP2 ADD SWAP2 SWAP1 DUP3 LT PUSH3 0x20C JUMPI POP PUSH1 0x2 SSTORE PUSH1 0x0 DUP4 DUP2 MSTORE DUP1 DUP4 MSTORE DUP5 DUP2 KECCAK256 DUP1 SLOAD DUP4 ADD SWAP1 SSTORE DUP5 MLOAD SWAP2 DUP3 MSTORE SWAP2 PUSH32 0xDDF252AD1BE2C89B69C2B068FC378DAA952BA7F163C4A11628F55A4DF523B3EF SWAP2 LOG3 MLOAD PUSH2 0x826 SWAP1 DUP2 PUSH3 0x4BB DUP3 CODECOPY RETURN JUMPDEST PUSH1 0x11 SWAP1 PUSH4 0x4E487B71 PUSH1 0xE0 SHL PUSH1 0x0 MSTORE MSTORE PUSH1 0x24 PUSH1 0x0 REVERT JUMPDEST DUP7 MLOAD PUSH4 0x1E4FBDF7 PUSH1 0xE0 SHL DUP2 MSTORE PUSH1 0x0 DUP2 DUP6 ADD MSTORE PUSH1 0x24 SWAP1 REVERT JUMPDEST ADD MLOAD SWAP4 POP CODESIZE DUP1 PUSH3 0x14F JUMP JUMPDEST SWAP2 SWAP1 PUSH1 0x1F NOT DUP5 AND SWAP3 DUP9 PUSH1 0x0 MSTORE DUP5 DUP12 PUSH1 0x0 KECCAK256 SWAP5 PUSH1 0x0 JUMPDEST DUP14 DUP10 DUP4 DUP4 LT PUSH3 0x297 JUMPI POP POP POP LT PUSH3 0x27C JUMPI JUMPDEST POP POP POP POP DUP2 SHL ADD DUP4 SSTORE PUSH3 0x15F JUMP JUMPDEST ADD MLOAD SWAP1 PUSH1 0xF8 DUP5 PUSH1 0x0 NOT SWAP3 SHL AND SHR NOT AND SWAP1 SSTORE CODESIZE DUP1 DUP1 DUP1 PUSH3 0x26D JUMP JUMPDEST DUP7 DUP7 ADD MLOAD DUP10 SSTORE SWAP1 SWAP8 ADD SWAP7 SWAP5 DUP6 ADD SWAP5 DUP9 SWAP4 POP ADD PUSH3 0x259 JUMP JUMPDEST DUP9 PUSH1 0x0 MSTORE DUP11 PUSH1 0x0 KECCAK256 DUP4 DUP1 DUP8 ADD PUSH1 0x5 SHR DUP3 ADD SWAP3 DUP14 DUP9 LT PUSH3 0x2F0 JUMPI JUMPDEST ADD PUSH1 0x5 SHR ADD SWAP1 DUP7 SWAP1 JUMPDEST DUP3 DUP2 LT PUSH3 0x2E3 JUMPI POP POP PUSH3 0x133 JUMP JUMPDEST PUSH1 0x0 DUP2 SSTORE ADD DUP7 SWAP1 PUSH3 0x2D3 JUMP JUMPDEST SWAP3 POP DUP2 SWAP3 PUSH3 0x2CA JUMP JUMPDEST PUSH1 0x22 DUP10 PUSH4 0x4E487B71 PUSH1 0xE0 SHL PUSH1 0x0 MSTORE MSTORE PUSH1 0x24 PUSH1 0x0 REVERT JUMPDEST SWAP1 PUSH1 0x7F AND SWAP1 PUSH3 0x121 JUMP JUMPDEST PUSH4 0x4E487B71 PUSH1 0xE0 SHL PUSH1 0x0 MSTORE PUSH1 0x41 PUSH1 0x4 MSTORE PUSH1 0x24 PUSH1 0x0 REVERT JUMPDEST ADD MLOAD SWAP1 POP CODESIZE DUP1 PUSH3 0xF2 JUMP JUMPDEST PUSH1 0x0 DUP7 DUP2 MSTORE DUP14 DUP2 KECCAK256 DUP10 SWAP6 POP SWAP3 SWAP2 SWAP1 PUSH1 0x1F NOT DUP6 AND SWAP1 DUP16 JUMPDEST DUP3 DUP3 LT PUSH3 0x38B JUMPI POP POP DUP5 GT PUSH3 0x372 JUMPI JUMPDEST POP POP POP DUP2 SHL ADD DUP3 SSTORE PUSH3 0x104 JUMP JUMPDEST ADD MLOAD PUSH1 0x0 NOT DUP4 DUP8 SHL PUSH1 0xF8 AND SHR NOT AND SWAP1 SSTORE CODESIZE DUP1 DUP1 PUSH3 0x364 JUMP JUMPDEST DUP4 DUP6 ADD MLOAD DUP7 SSTORE DUP12 SWAP8 SWAP1 SWAP6 ADD SWAP5 SWAP4 DUP5 ADD SWAP4 ADD DUP16 PUSH3 0x352 JUMP JUMPDEST SWAP1 SWAP2 SWAP3 POP DUP6 PUSH1 0x0 MSTORE DUP5 DUP3 PUSH1 0x0 KECCAK256 SWAP2 DUP2 DUP7 ADD PUSH1 0x5 SHR DUP4 ADD SWAP4 DUP7 LT PUSH3 0x3F2 JUMPI JUMPDEST SWAP2 DUP10 SWAP2 DUP7 SWAP6 SWAP5 SWAP4 ADD PUSH1 0x5 SHR ADD SWAP2 JUMPDEST DUP3 DUP2 LT PUSH3 0x3E2 JUMPI POP DUP14 SWAP2 POP PUSH3 0xDA JUMP JUMPDEST PUSH1 0x0 DUP2 SSTORE DUP6 SWAP5 POP DUP10 SWAP2 ADD PUSH3 0x3D0 JUMP JUMPDEST SWAP3 POP DUP2 SWAP3 PUSH3 0x3C2 JUMP JUMPDEST PUSH4 0x4E487B71 PUSH1 0xE0 SHL PUSH1 0x0 MSTORE PUSH1 0x22 PUSH1 0x4 MSTORE PUSH1 0x24 PUSH1 0x0 REVERT JUMPDEST SWAP3 PUSH1 0x7F AND SWAP3 PUSH3 0xC2 JUMP JUMPDEST PUSH1 0x0 DUP1 REVERT JUMPDEST PUSH1 0x40 MLOAD SWAP2 SWAP1 PUSH1 0x1F ADD PUSH1 0x1F NOT AND DUP3 ADD PUSH1 0x1 PUSH1 0x1 PUSH1 0x40 SHL SUB DUP2 GT DUP4 DUP3 LT OR PUSH3 0x31A JUMPI PUSH1 0x40 MSTORE JUMP JUMPDEST SWAP2 SWAP1 DUP1 PUSH1 0x1F DUP5 ADD SLT ISZERO PUSH3 0x41D JUMPI DUP3 MLOAD PUSH1 0x1 PUSH1 0x1 PUSH1 0x40 SHL SUB DUP2 GT PUSH3 0x31A JUMPI PUSH1 0x20 SWAP1 PUSH3 0x47E PUSH1 0x1F DUP3 ADD PUSH1 0x1F NOT AND DUP4 ADD PUSH3 0x422 JUMP JUMPDEST SWAP3 DUP2 DUP5 MSTORE DUP3 DUP3 DUP8 ADD ADD GT PUSH3 0x41D JUMPI PUSH1 0x0 JUMPDEST DUP2 DUP2 LT PUSH3 0x4A6 JUMPI POP DUP3 PUSH1 0x0 SWAP4 SWAP5 SWAP6 POP ADD ADD MSTORE SWAP1 JUMP JUMPDEST DUP6 DUP2 ADD DUP4 ADD MLOAD DUP5 DUP3 ADD DUP5 ADD MSTORE DUP3 ADD PUSH3 0x490 JUMP INVALID PUSH1 0x80 PUSH1 0x40 DUP2 DUP2 MSTORE PUSH1 0x4 DUP1 CALLDATASIZE LT ISZERO PUSH2 0x15 JUMPI PUSH1 0x0 DUP1 REVERT JUMPDEST PUSH1 0x0 SWAP3 DUP4 CALLDATALOAD PUSH1 0xE0 SHR SWAP1 DUP2 PUSH4 0x6FDDE03 EQ PUSH2 0x577 JUMPI POP DUP1 PUSH4 0x95EA7B3 EQ PUSH2 0x4CE JUMPI DUP1 PUSH4 0x18160DDD EQ PUSH2 0x4AF JUMPI DUP1 PUSH4 0x23B872DD EQ PUSH2 0x3BC JUMPI DUP1 PUSH4 0x313CE567 EQ PUSH2 0x397 JUMPI DUP1 PUSH4 0x70A08231 EQ PUSH2 0x360 JUMPI DUP1 PUSH4 0x715018A6 EQ PUSH2 0x300 JUMPI DUP1 PUSH4 0x8DA5CB5B EQ PUSH2 0x2D7 JUMPI DUP1 PUSH4 0x95D89B41 EQ PUSH2 0x1B7 JUMPI DUP1 PUSH4 0xA9059CBB EQ PUSH2 0x186 JUMPI DUP1 PUSH4 0xDD62ED3E EQ PUSH2 0x139 JUMPI PUSH4 0xF2FDE38B EQ PUSH2 0xA7 JUMPI PUSH1 0x0 DUP1 REVERT JUMPDEST CALLVALUE PUSH2 0x135 JUMPI PUSH1 0x20 CALLDATASIZE PUSH1 0x3 NOT ADD SLT PUSH2 0x135 JUMPI PUSH2 0xC0 PUSH2 0x6B5 JUMP JUMPDEST SWAP1 PUSH2 0xC9 PUSH2 0x6E6 JUMP JUMPDEST PUSH1 0x1 PUSH1 0x1 PUSH1 0xA0 SHL SUB SWAP2 DUP3 AND SWAP3 DUP4 ISZERO PUSH2 0x11F JUMPI POP POP PUSH1 0x5 SLOAD DUP3 PUSH12 0xFFFFFFFFFFFFFFFFFFFFFFFF PUSH1 0xA0 SHL DUP3 AND OR PUSH1 0x5 SSTORE AND PUSH32 0x8BE0079C531659141344CD1FD0A4F28419497F9722A3DAAFE3B4186F6B6457E0 DUP4 DUP1 LOG3 DUP1 RETURN JUMPDEST MLOAD PUSH4 0x1E4FBDF7 PUSH1 0xE0 SHL DUP2 MSTORE SWAP1 DUP2 ADD DUP5 SWAP1 MSTORE PUSH1 0x24 SWAP1 REVERT JUMPDEST DUP3 DUP1 REVERT JUMPDEST POP POP CALLVALUE PUSH2 0x182 JUMPI DUP1 PUSH1 0x3 NOT CALLDATASIZE ADD SLT PUSH2 0x182 JUMPI DUP1 PUSH1 0x20 SWAP3 PUSH2 0x157 PUSH2 0x6B5 JUMP JUMPDEST PUSH2 0x15F PUSH2 0x6D0 JUMP JUMPDEST PUSH1 0x1 PUSH1 0x1 PUSH1 0xA0 SHL SUB SWAP2 DUP3 AND DUP4 MSTORE PUSH1 0x1 DUP7 MSTORE DUP4 DUP4 KECCAK256 SWAP2 AND DUP3 MSTORE DUP5 MSTORE KECCAK256 SLOAD SWAP1 MLOAD SWAP1 DUP2 MSTORE RETURN JUMPDEST POP DUP1 REVERT JUMPDEST POP POP CALLVALUE PUSH2 0x182 JUMPI DUP1 PUSH1 0x3 NOT CALLDATASIZE ADD SLT PUSH2 0x182 JUMPI PUSH1 0x20 SWAP1 PUSH2 0x1B0 PUSH2 0x1A6 PUSH2 0x6B5 JUMP JUMPDEST PUSH1 0x24 CALLDATALOAD SWAP1 CALLER PUSH2 0x712 JUMP JUMPDEST MLOAD PUSH1 0x1 DUP2 MSTORE RETURN JUMPDEST POP SWAP2 SWAP1 CALLVALUE PUSH2 0x182 JUMPI DUP2 PUSH1 0x3 NOT CALLDATASIZE ADD SLT PUSH2 0x182 JUMPI DUP1 MLOAD SWAP1 DUP3 DUP5 SLOAD PUSH1 0x1 DUP2 DUP2 SHR SWAP1 DUP1 DUP4 AND SWAP3 DUP4 ISZERO PUSH2 0x2CD JUMPI JUMPDEST PUSH1 0x20 SWAP4 DUP5 DUP5 LT DUP2 EQ PUSH2 0x2BA JUMPI DUP4 DUP9 MSTORE SWAP1 DUP2 ISZERO PUSH2 0x29E JUMPI POP PUSH1 0x1 EQ PUSH2 0x249 JUMPI JUMPDEST POP POP POP DUP3 SWAP1 SUB PUSH1 0x1F ADD PUSH1 0x1F NOT AND DUP3 ADD SWAP3 PUSH8 0xFFFFFFFFFFFFFFFF DUP5 GT DUP4 DUP6 LT OR PUSH2 0x236 JUMPI POP DUP3 SWAP2 DUP3 PUSH2 0x232 SWAP3 MSTORE DUP3 PUSH2 0x66C JUMP JUMPDEST SUB SWAP1 RETURN JUMPDEST PUSH4 0x4E487B71 PUSH1 0xE0 SHL DUP2 MSTORE PUSH1 0x41 DUP6 MSTORE PUSH1 0x24 SWAP1 REVERT JUMPDEST DUP8 DUP8 MSTORE SWAP2 SWAP3 POP DUP6 SWAP2 DUP4 PUSH32 0x8A35ACFBC15FF81A39AE7D344FD709F28E8600B4AA8C65C6B64BFE7FE36BD19B JUMPDEST DUP4 DUP6 LT PUSH2 0x28A JUMPI POP POP POP POP DUP4 ADD ADD CODESIZE DUP1 DUP1 PUSH2 0x200 JUMP JUMPDEST DUP1 SLOAD DUP9 DUP7 ADD DUP4 ADD MSTORE SWAP4 ADD SWAP3 DUP5 SWAP1 DUP3 ADD PUSH2 0x274 JUMP JUMPDEST PUSH1 0xFF NOT AND DUP8 DUP6 ADD MSTORE POP POP ISZERO ISZERO PUSH1 0x5 SHL DUP5 ADD ADD SWAP1 POP CODESIZE DUP1 DUP1 PUSH2 0x200 JUMP JUMPDEST PUSH4 0x4E487B71 PUSH1 0xE0 SHL DUP10 MSTORE PUSH1 0x22 DUP11 MSTORE PUSH1 0x24 DUP10 REVERT JUMPDEST SWAP2 PUSH1 0x7F AND SWAP2 PUSH2 0x1E1 JUMP JUMPDEST POP POP CALLVALUE PUSH2 0x182 JUMPI DUP2 PUSH1 0x3 NOT CALLDATASIZE ADD SLT PUSH2 0x182 JUMPI PUSH1 0x5 SLOAD SWAP1 MLOAD PUSH1 0x1 PUSH1 0x1 PUSH1 0xA0 SHL SUB SWAP1 SWAP2 AND DUP2 MSTORE PUSH1 0x20 SWAP1 RETURN JUMPDEST DUP4 CALLVALUE PUSH2 0x35D JUMPI DUP1 PUSH1 0x3 NOT CALLDATASIZE ADD SLT PUSH2 0x35D JUMPI PUSH2 0x319 PUSH2 0x6E6 JUMP JUMPDEST PUSH1 0x5 DUP1 SLOAD PUSH1 0x1 PUSH1 0x1 PUSH1 0xA0 SHL SUB NOT DUP2 AND SWAP1 SWAP2 SSTORE DUP2 SWAP1 PUSH1 0x1 PUSH1 0x1 PUSH1 0xA0 SHL SUB AND PUSH32 0x8BE0079C531659141344CD1FD0A4F28419497F9722A3DAAFE3B4186F6B6457E0 DUP3 DUP1 LOG3 DUP1 RETURN JUMPDEST DUP1 REVERT JUMPDEST POP POP CALLVALUE PUSH2 0x182 JUMPI PUSH1 0x20 CALLDATASIZE PUSH1 0x3 NOT ADD SLT PUSH2 0x182 JUMPI PUSH1 0x20 SWAP2 DUP2 SWAP1 PUSH1 0x1 PUSH1 0x1 PUSH1 0xA0 SHL SUB PUSH2 0x388 PUSH2 0x6B5 JUMP JUMPDEST AND DUP2 MSTORE DUP1 DUP5 MSTORE KECCAK256 SLOAD SWAP1 MLOAD SWAP1 DUP2 MSTORE RETURN JUMPDEST POP POP CALLVALUE PUSH2 0x182 JUMPI DUP2 PUSH1 0x3 NOT CALLDATASIZE ADD SLT PUSH2 0x182 JUMPI PUSH1 0x20 SWAP1 PUSH1 0xFF PUSH1 0x5 SLOAD PUSH1 0xA0 SHR AND SWAP1 MLOAD SWAP1 DUP2 MSTORE RETURN JUMPDEST POP DUP3 CALLVALUE PUSH2 0x35D JUMPI PUSH1 0x60 CALLDATASIZE PUSH1 0x3 NOT ADD SLT PUSH2 0x35D JUMPI PUSH2 0x3D7 PUSH2 0x6B5 JUMP JUMPDEST PUSH2 0x3DF PUSH2 0x6D0 JUMP JUMPDEST SWAP2 PUSH1 0x44 CALLDATALOAD SWAP4 PUSH1 0x1 DUP1 PUSH1 0xA0 SHL SUB DUP4 AND DUP1 DUP4 MSTORE PUSH1 0x1 PUSH1 0x20 MSTORE DUP7 DUP4 KECCAK256 CALLER DUP5 MSTORE PUSH1 0x20 MSTORE DUP7 DUP4 KECCAK256 SLOAD SWAP2 PUSH1 0x0 NOT DUP4 LT PUSH2 0x41B JUMPI JUMPDEST PUSH1 0x20 DUP9 PUSH2 0x1B0 DUP10 DUP10 DUP10 PUSH2 0x712 JUMP JUMPDEST DUP7 DUP4 LT PUSH2 0x483 JUMPI DUP2 ISZERO PUSH2 0x46C JUMPI CALLER ISZERO PUSH2 0x455 JUMPI POP DUP3 MSTORE PUSH1 0x1 PUSH1 0x20 SWAP1 DUP2 MSTORE DUP7 DUP4 KECCAK256 CALLER DUP5 MSTORE DUP2 MSTORE SWAP2 DUP7 SWAP1 KECCAK256 SWAP1 DUP6 SWAP1 SUB SWAP1 SSTORE DUP3 SWAP1 PUSH2 0x1B0 DUP8 PUSH2 0x40D JUMP JUMPDEST DUP8 MLOAD PUSH4 0x4A1406B1 PUSH1 0xE1 SHL DUP2 MSTORE SWAP1 DUP2 ADD DUP5 SWAP1 MSTORE PUSH1 0x24 SWAP1 REVERT JUMPDEST DUP8 MLOAD PUSH4 0xE602DF05 PUSH1 0xE0 SHL DUP2 MSTORE SWAP1 DUP2 ADD DUP5 SWAP1 MSTORE PUSH1 0x24 SWAP1 REVERT JUMPDEST DUP8 MLOAD PUSH4 0x7DC7A0D9 PUSH1 0xE1 SHL DUP2 MSTORE CALLER SWAP2 DUP2 ADD SWAP2 DUP3 MSTORE PUSH1 0x20 DUP3 ADD SWAP4 SWAP1 SWAP4 MSTORE PUSH1 0x40 DUP2 ADD DUP8 SWAP1 MSTORE DUP3 SWAP2 POP PUSH1 0x60 ADD SUB SWAP1 REVERT JUMPDEST POP POP CALLVALUE PUSH2 0x182 JUMPI DUP2 PUSH1 0x3 NOT CALLDATASIZE ADD SLT PUSH2 0x182 JUMPI PUSH1 0x20 SWAP1 PUSH1 0x2 SLOAD SWAP1 MLOAD SWAP1 DUP2 MSTORE RETURN JUMPDEST POP CALLVALUE PUSH2 0x135 JUMPI DUP2 PUSH1 0x3 NOT CALLDATASIZE ADD SLT PUSH2 0x135 JUMPI PUSH2 0x4E7 PUSH2 0x6B5 JUMP JUMPDEST PUSH1 0x24 CALLDATALOAD SWAP1 CALLER ISZERO PUSH2 0x560 JUMPI PUSH1 0x1 PUSH1 0x1 PUSH1 0xA0 SHL SUB AND SWAP2 DUP3 ISZERO PUSH2 0x549 JUMPI POP DUP1 DUP4 PUSH1 0x20 SWAP6 CALLER DUP2 MSTORE PUSH1 0x1 DUP8 MSTORE DUP2 DUP2 KECCAK256 DUP6 DUP3 MSTORE DUP8 MSTORE KECCAK256 SSTORE DUP3 MLOAD SWAP1 DUP2 MSTORE PUSH32 0x8C5BE1E5EBEC7D5BD14F71427D1E84F3DD0314C0F7B2291E5B200AC8C7C3B925 DUP5 CALLER SWAP3 LOG3 MLOAD PUSH1 0x1 DUP2 MSTORE RETURN JUMPDEST DUP4 MLOAD PUSH4 0x4A1406B1 PUSH1 0xE1 SHL DUP2 MSTORE SWAP1 DUP2 ADD DUP6 SWAP1 MSTORE PUSH1 0x24 SWAP1 REVERT JUMPDEST DUP4 MLOAD PUSH4 0xE602DF05 PUSH1 0xE0 SHL DUP2 MSTORE DUP1 DUP5 ADD DUP7 SWAP1 MSTORE PUSH1 0x24 SWAP1 REVERT JUMPDEST DUP5 SWAP2 POP DUP4 CALLVALUE PUSH2 0x135 JUMPI DUP3 PUSH1 0x3 NOT CALLDATASIZE ADD SLT PUSH2 0x135 JUMPI DUP3 PUSH1 0x3 SLOAD PUSH1 0x1 DUP2 DUP2 SHR SWAP1 DUP1 DUP4 AND SWAP3 DUP4 ISZERO PUSH2 0x662 JUMPI JUMPDEST PUSH1 0x20 SWAP4 DUP5 DUP5 LT DUP2 EQ PUSH2 0x2BA JUMPI DUP4 DUP9 MSTORE SWAP1 DUP2 ISZERO PUSH2 0x646 JUMPI POP PUSH1 0x1 EQ PUSH2 0x5F0 JUMPI POP POP POP DUP3 SWAP1 SUB PUSH1 0x1F ADD PUSH1 0x1F NOT AND DUP3 ADD SWAP3 PUSH8 0xFFFFFFFFFFFFFFFF DUP5 GT DUP4 DUP6 LT OR PUSH2 0x236 JUMPI POP DUP3 SWAP2 DUP3 PUSH2 0x232 SWAP3 MSTORE DUP3 PUSH2 0x66C JUMP JUMPDEST PUSH1 0x3 DUP8 MSTORE SWAP2 SWAP3 POP DUP6 SWAP2 DUP4 PUSH32 0xC2575A0E9E593C00F959F8C92F12DB2869C3395A3B0502D05E2516446F71F85B JUMPDEST DUP4 DUP6 LT PUSH2 0x632 JUMPI POP POP POP POP DUP4 ADD ADD DUP6 DUP1 DUP1 PUSH2 0x200 JUMP JUMPDEST DUP1 SLOAD DUP9 DUP7 ADD DUP4 ADD MSTORE SWAP4 ADD SWAP3 DUP5 SWAP1 DUP3 ADD PUSH2 0x61C JUMP JUMPDEST PUSH1 0xFF NOT AND DUP8 DUP6 ADD MSTORE POP POP ISZERO ISZERO PUSH1 0x5 SHL DUP5 ADD ADD SWAP1 POP DUP6 DUP1 DUP1 PUSH2 0x200 JUMP JUMPDEST SWAP2 PUSH1 0x7F AND SWAP2 PUSH2 0x5A0 JUMP JUMPDEST PUSH1 0x20 DUP1 DUP3 MSTORE DUP3 MLOAD DUP2 DUP4 ADD DUP2 SWAP1 MSTORE SWAP1 SWAP4 SWAP3 PUSH1 0x0 JUMPDEST DUP3 DUP2 LT PUSH2 0x6A1 JUMPI POP POP PUSH1 0x40 SWAP3 SWAP4 POP PUSH1 0x0 DUP4 DUP3 DUP5 ADD ADD MSTORE PUSH1 0x1F DUP1 NOT SWAP2 ADD AND ADD ADD SWAP1 JUMP JUMPDEST DUP2 DUP2 ADD DUP7 ADD MLOAD DUP5 DUP3 ADD PUSH1 0x40 ADD MSTORE DUP6 ADD PUSH2 0x67F JUMP JUMPDEST PUSH1 0x4 CALLDATALOAD SWAP1 PUSH1 0x1 PUSH1 0x1 PUSH1 0xA0 SHL SUB DUP3 AND DUP3 SUB PUSH2 0x6CB JUMPI JUMP JUMPDEST PUSH1 0x0 DUP1 REVERT JUMPDEST PUSH1 0x24 CALLDATALOAD SWAP1 PUSH1 0x1 PUSH1 0x1 PUSH1 0xA0 SHL SUB DUP3 AND DUP3 SUB PUSH2 0x6CB JUMPI JUMP JUMPDEST PUSH1 0x5 SLOAD PUSH1 0x1 PUSH1 0x1 PUSH1 0xA0 SHL SUB AND CALLER SUB PUSH2 0x6FA JUMPI JUMP JUMPDEST PUSH1 0x40 MLOAD PUSH4 0x118CDAA7 PUSH1 0xE0 SHL DUP2 MSTORE CALLER PUSH1 0x4 DUP3 ADD MSTORE PUSH1 0x24 SWAP1 REVERT JUMPDEST SWAP2 PUSH1 0x1 PUSH1 0x1 PUSH1 0xA0 SHL SUB DUP1 DUP5 AND SWAP3 DUP4 ISZERO PUSH2 0x7D7 JUMPI AND SWAP3 DUP4 ISZERO PUSH2 0x7BE JUMPI PUSH1 0x0 SWAP1 DUP4 DUP3 MSTORE DUP2 PUSH1 0x20 MSTORE PUSH1 0x40 DUP3 KECCAK256 SLOAD SWAP1 DUP4 DUP3 LT PUSH2 0x78C JUMPI POP SWAP2 PUSH1 0x40 DUP3 DUP3 PUSH32 0xDDF252AD1BE2C89B69C2B068FC378DAA952BA7F163C4A11628F55A4DF523B3EF SWAP6 DUP8 PUSH1 0x20 SWAP7 MSTORE DUP3 DUP7 MSTORE SUB DUP3 DUP3 KECCAK256 SSTORE DUP7 DUP2 MSTORE KECCAK256 DUP2 DUP2 SLOAD ADD SWAP1 SSTORE PUSH1 0x40 MLOAD SWAP1 DUP2 MSTORE LOG3 JUMP JUMPDEST PUSH1 0x40 MLOAD PUSH4 0x391434E3 PUSH1 0xE2 SHL DUP2 MSTORE PUSH1 0x1 PUSH1 0x1 PUSH1 0xA0 SHL SUB SWAP2 SWAP1 SWAP2 AND PUSH1 0x4 DUP3 ADD MSTORE PUSH1 0x24 DUP2 ADD SWAP2 SWAP1 SWAP2 MSTORE PUSH1 0x44 DUP2 ADD DUP4 SWAP1 MSTORE PUSH1 0x64 SWAP1 REVERT JUMPDEST PUSH1 0x40 MLOAD PUSH4 0xEC442F05 PUSH1 0xE0 SHL DUP2 MSTORE PUSH1 0x0 PUSH1 0x4 DUP3 ADD MSTORE PUSH1 0x24 SWAP1 REVERT JUMPDEST PUSH1 0x40 MLOAD PUSH4 0x4B637E8F PUSH1 0xE1 SHL DUP2 MSTORE PUSH1 0x0 PUSH1 0x4 DUP3 ADD MSTORE PUSH1 0x24 SWAP1 REVERT INVALID LOG2 PUSH5 0x6970667358 0x22 SLT KECCAK256 DUP3 0x2A SWAP7 JUMPDEST LOG3 0xE1 EQ BALANCE 0xBD 0xDB 0x49 0xD 0xE7 PUSH23 0xC0A41D2284163AB77D0886112C045AB41F2A64736F6C63 NUMBER STOP ADDMOD EQ STOP CALLER LOG2 PUSH5 0x6970667358 0x22 SLT KECCAK256 0xBF 0xE7 SUB CALLDATASIZE MLOAD ISZERO DUP12 0xCC 0xED DUP13 0x4E PUSH14 0x458B044D783F6CF64DFE8EEF8FC2 CODECOPY PUSH6 0xACADD6BF6473 PUSH16 0x6C634300081400330000000000000000 "},"methodIdentifiers":{"allCreatedTokens(uint256)":"d6d56624","createToken(string,string,uint256,uint8)":"b64acddd","creationFee()":"dce0b4e4","isCreatedByPlatform(address)":"6a033fc1","isPlatformToken(address)":"b73f70ec","totalCreatedTokens()":"0e3d61e9","treasury()":"61d027b3"}}}}}