{"contracts/bonding-curve/SelsipadBondingCurveFactory.sol":{"SelsipadBondingCurveFactory":{"abi":[{"inputs":[{"internalType":"address","name":"_router","type":"address"},{"internalType":"address","name":"_treasury","type":"address"}],"stateMutability":"nonpayable","type":"constructor"},{"inputs":[],"name":"ClaimNotReady","type":"error"},{"inputs":[],"name":"InsufficientFee","type":"error"},{"inputs":[],"name":"InsufficientReserve","type":"error"},{"inputs":[],"name":"InvalidAddress","type":"error"},{"inputs":[],"name":"InvalidToken","type":"error"},{"inputs":[],"name":"NothingToClaim","type":"error"},{"inputs":[{"internalType":"address","name":"owner","type":"address"}],"name":"OwnableInvalidOwner","type":"error"},{"inputs":[{"internalType":"address","name":"account","type":"address"}],"name":"OwnableUnauthorizedAccount","type":"error"},{"inputs":[],"name":"ReentrancyGuardReentrantCall","type":"error"},{"inputs":[],"name":"TradingMigrated","type":"error"},{"inputs":[],"name":"TradingNotMigrated","type":"error"},{"inputs":[],"name":"TransferFailed","type":"error"},{"inputs":[],"name":"ZeroAmount","type":"error"},{"anonymous":false,"inputs":[{"indexed":false,"internalType":"uint256","name":"oldFee","type":"uint256"},{"indexed":false,"internalType":"uint256","name":"newFee","type":"uint256"}],"name":"CreateFeeUpdated","type":"event"},{"anonymous":false,"inputs":[{"indexed":true,"internalType":"address","name":"token","type":"address"},{"indexed":false,"internalType":"uint256","name":"tokenAmount","type":"uint256"},{"indexed":false,"internalType":"uint256","name":"ethAmount","type":"uint256"},{"indexed":false,"internalType":"address","name":"lpPair","type":"address"}],"name":"LiquidityMigrated","type":"event"},{"anonymous":false,"inputs":[{"indexed":false,"internalType":"uint256","name":"oldThreshold","type":"uint256"},{"indexed":false,"internalType":"uint256","name":"newThreshold","type":"uint256"}],"name":"MigrationThresholdUpdated","type":"event"},{"anonymous":false,"inputs":[{"indexed":true,"internalType":"address","name":"previousOwner","type":"address"},{"indexed":true,"internalType":"address","name":"newOwner","type":"address"}],"name":"OwnershipTransferred","type":"event"},{"anonymous":false,"inputs":[{"indexed":true,"internalType":"address","name":"token","type":"address"},{"indexed":true,"internalType":"address","name":"referrer","type":"address"},{"indexed":false,"internalType":"uint256","name":"amount","type":"uint256"}],"name":"ReferralRewardAccumulated","type":"event"},{"anonymous":false,"inputs":[{"indexed":true,"internalType":"address","name":"token","type":"address"},{"indexed":true,"internalType":"address","name":"referrer","type":"address"},{"indexed":false,"internalType":"uint256","name":"amount","type":"uint256"}],"name":"ReferralRewardClaimed","type":"event"},{"anonymous":false,"inputs":[{"indexed":true,"internalType":"address","name":"token","type":"address"},{"indexed":false,"internalType":"string","name":"name","type":"string"},{"indexed":false,"internalType":"string","name":"symbol","type":"string"},{"indexed":true,"internalType":"address","name":"creator","type":"address"}],"name":"TokenLaunched","type":"event"},{"anonymous":false,"inputs":[{"indexed":true,"internalType":"address","name":"token","type":"address"},{"indexed":true,"internalType":"address","name":"buyer","type":"address"},{"indexed":false,"internalType":"uint256","name":"tokenAmount","type":"uint256"},{"indexed":false,"internalType":"uint256","name":"ethCost","type":"uint256"},{"indexed":true,"internalType":"address","name":"referrer","type":"address"}],"name":"TokensPurchased","type":"event"},{"anonymous":false,"inputs":[{"indexed":true,"internalType":"address","name":"token","type":"address"},{"indexed":true,"internalType":"address","name":"seller","type":"address"},{"indexed":false,"internalType":"uint256","name":"tokenAmount","type":"uint256"},{"indexed":false,"internalType":"uint256","name":"ethRefund","type":"uint256"},{"indexed":true,"internalType":"address","name":"referrer","type":"address"}],"name":"TokensSold","type":"event"},{"anonymous":false,"inputs":[{"indexed":false,"internalType":"address","name":"oldTreasury","type":"address"},{"indexed":false,"internalType":"address","name":"newTreasury","type":"address"}],"name":"TreasuryUpdated","type":"event"},{"inputs":[],"name":"BPS_DENOMINATOR","outputs":[{"internalType":"uint256","name":"","type":"uint256"}],"stateMutability":"view","type":"function"},{"inputs":[],"name":"DEAD_ADDRESS","outputs":[{"internalType":"address","name":"","type":"address"}],"stateMutability":"view","type":"function"},{"inputs":[],"name":"REFERRAL_FEE_BPS","outputs":[{"internalType":"uint256","name":"","type":"uint256"}],"stateMutability":"view","type":"function"},{"inputs":[],"name":"REFERRAL_TIMEOUT","outputs":[{"internalType":"uint256","name":"","type":"uint256"}],"stateMutability":"view","type":"function"},{"inputs":[],"name":"R_TOKEN_RESERVE","outputs":[{"internalType":"uint256","name":"","type":"uint256"}],"stateMutability":"view","type":"function"},{"inputs":[],"name":"TRADE_FEE_BPS","outputs":[{"internalType":"uint256","name":"","type":"uint256"}],"stateMutability":"view","type":"function"},{"inputs":[],"name":"V_ETH_RESERVE","outputs":[{"internalType":"uint256","name":"","type":"uint256"}],"stateMutability":"view","type":"function"},{"inputs":[],"name":"V_TOKEN_RESERVE","outputs":[{"internalType":"uint256","name":"","type":"uint256"}],"stateMutability":"view","type":"function"},{"inputs":[],"name":"WETH","outputs":[{"internalType":"address","name":"","type":"address"}],"stateMutability":"view","type":"function"},{"inputs":[{"internalType":"uint256","name":"","type":"uint256"}],"name":"allTokens","outputs":[{"internalType":"address","name":"","type":"address"}],"stateMutability":"view","type":"function"},{"inputs":[{"internalType":"address","name":"_token","type":"address"},{"internalType":"address","name":"_referrer","type":"address"}],"name":"buyToken","outputs":[],"stateMutability":"payable","type":"function"},{"inputs":[{"internalType":"address","name":"_token","type":"address"}],"name":"claimReferralReward","outputs":[],"stateMutability":"nonpayable","type":"function"},{"inputs":[],"name":"createFee","outputs":[{"internalType":"uint256","name":"","type":"uint256"}],"stateMutability":"view","type":"function"},{"inputs":[{"internalType":"address","name":"_token","type":"address"},{"internalType":"uint256","name":"tokenAmount","type":"uint256"}],"name":"getAmountIn","outputs":[{"internalType":"uint256","name":"ethOut","type":"uint256"}],"stateMutability":"view","type":"function"},{"inputs":[{"internalType":"address","name":"_token","type":"address"},{"internalType":"uint256","name":"ethIn","type":"uint256"}],"name":"getAmountOut","outputs":[{"internalType":"uint256","name":"tokensOut","type":"uint256"}],"stateMutability":"view","type":"function"},{"inputs":[{"internalType":"address","name":"_token","type":"address"}],"name":"getCurrentPrice","outputs":[{"internalType":"uint256","name":"","type":"uint256"}],"stateMutability":"view","type":"function"},{"inputs":[{"internalType":"address","name":"_token","type":"address"}],"name":"getMigrationProgress","outputs":[{"internalType":"uint256","name":"bps","type":"uint256"}],"stateMutability":"view","type":"function"},{"inputs":[{"internalType":"string","name":"_name","type":"string"},{"internalType":"string","name":"_symbol","type":"string"},{"internalType":"address","name":"_referrer","type":"address"}],"name":"launchToken","outputs":[],"stateMutability":"payable","type":"function"},{"inputs":[],"name":"migrationThreshold","outputs":[{"internalType":"uint256","name":"","type":"uint256"}],"stateMutability":"view","type":"function"},{"inputs":[],"name":"owner","outputs":[{"internalType":"address","name":"","type":"address"}],"stateMutability":"view","type":"function"},{"inputs":[{"internalType":"address","name":"","type":"address"},{"internalType":"address","name":"","type":"address"}],"name":"referralRewards","outputs":[{"internalType":"uint256","name":"","type":"uint256"}],"stateMutability":"view","type":"function"},{"inputs":[],"name":"renounceOwnership","outputs":[],"stateMutability":"nonpayable","type":"function"},{"inputs":[{"internalType":"address","name":"_token","type":"address"},{"internalType":"uint256","name":"tokenAmount","type":"uint256"},{"internalType":"address","name":"_referrer","type":"address"}],"name":"sellToken","outputs":[],"stateMutability":"nonpayable","type":"function"},{"inputs":[{"internalType":"uint256","name":"_fee","type":"uint256"}],"name":"setCreateFee","outputs":[],"stateMutability":"nonpayable","type":"function"},{"inputs":[{"internalType":"uint256","name":"_threshold","type":"uint256"}],"name":"setMigrationThreshold","outputs":[],"stateMutability":"nonpayable","type":"function"},{"inputs":[{"internalType":"address","name":"_router","type":"address"}],"name":"setRouter","outputs":[],"stateMutability":"nonpayable","type":"function"},{"inputs":[{"internalType":"address","name":"_treasury","type":"address"}],"name":"setTreasuryWallet","outputs":[],"stateMutability":"nonpayable","type":"function"},{"inputs":[{"internalType":"address","name":"","type":"address"}],"name":"tokens","outputs":[{"internalType":"address","name":"creator","type":"address"},{"internalType":"address","name":"tokenAddress","type":"address"},{"internalType":"uint256","name":"vReserveEth","type":"uint256"},{"internalType":"uint256","name":"vReserveToken","type":"uint256"},{"internalType":"uint256","name":"rReserveEth","type":"uint256"},{"internalType":"int256","name":"rReserveToken","type":"int256"},{"internalType":"bool","name":"liquidityMigrated","type":"bool"},{"internalType":"uint256","name":"createdAt","type":"uint256"}],"stateMutability":"view","type":"function"},{"inputs":[{"internalType":"address","name":"","type":"address"}],"name":"totalPendingReferral","outputs":[{"internalType":"uint256","name":"","type":"uint256"}],"stateMutability":"view","type":"function"},{"inputs":[],"name":"totalTokensLaunched","outputs":[{"internalType":"uint256","name":"","type":"uint256"}],"stateMutability":"view","type":"function"},{"inputs":[{"internalType":"address","name":"newOwner","type":"address"}],"name":"transferOwnership","outputs":[],"stateMutability":"nonpayable","type":"function"},{"inputs":[],"name":"treasuryWallet","outputs":[{"internalType":"address","name":"","type":"address"}],"stateMutability":"view","type":"function"},{"inputs":[],"name":"uniswapRouter","outputs":[{"internalType":"address","name":"","type":"address"}],"stateMutability":"view","type":"function"},{"inputs":[{"internalType":"uint256","name":"_vEthReserve","type":"uint256"},{"internalType":"uint256","name":"_vTokenReserve","type":"uint256"},{"internalType":"uint256","name":"_rTokenReserve","type":"uint256"}],"name":"updateReserves","outputs":[],"stateMutability":"nonpayable","type":"function"},{"stateMutability":"payable","type":"receive"}],"evm":{"bytecode":{"linkReferences":{},"object":"608060409080825234620001d4578181620027ae8038038091620000248285620001d9565b833981010312620001d457620000486020620000408362000213565b920162000213565b3315620001bc5760008054336001600160a01b03198083168217845586519590946001600160a01b039493909285929183167f8be0079c531659141344cd1fd0a4f28419497f9722a3daafe3b4186f6b6457e08680a36001805566354a6ba7a180006009556b037790968dc8efffd1000000600a556b029009752660ad62af800000600b55670de0b6b3a7640000600c5566b1a2bc2ec50000600d5516948515620001ad575082169384156200019c576004805485168217815586516315ab88c960e31b815291602091839182905afa918215620001915780926200014a575b5050168160055416176005556006541617600655516125859081620002298239f35b9091506020823d821162000188575b816200016860209383620001d9565b810103126200018557506200017d9062000213565b388062000128565b80fd5b3d915062000159565b8651903d90823e3d90fd5b855163e6c4247b60e01b8152600490fd5b63e6c4247b60e01b8152600490fd5b8251631e4fbdf760e01b815260006004820152602490fd5b600080fd5b601f909101601f19168101906001600160401b03821190821017620001fd57604052565b634e487b7160e01b600052604160045260246000fd5b51906001600160a01b0382168203620001d45756fe60808060405260043610156200001f575b5036156200001d57600080fd5b005b60003560e01c908163208597b01462001065575080634626402b146200103a5780634c63c5181462000fe35780634d6e0c191462000fc35780634e6fd6c41462000fa457806355a976321462000d495780635ee6cc381462000cf65780636148813c1462000cc557806361929d8a1462000b8a578063629148491462000b33578063632db21c1462000aad578063634282af1462000a66578063703340571462000a28578063715018a614620009cb578063735de9f714620009a057806384cc315b14620009395780638da5cb5b146200090e57806390bc1e8514620008ee5780639185f59814620008d057806394b4cd0a1462000670578063995c86d514620006505780639d72265e14620006325780639e1e213e1462000612578063a8602fea1462000585578063ad5c4648146200055a578063b1a51f35146200053a578063b2db919b146200051a578063c0d786551462000441578063c8a1d06e1462000418578063ca706bcf1462000364578063ca92a91b146200030d578063e1a4521814620002ee578063e4860339146200025a5763f2fde38b14620001c5573862000010565b34620002555760203660031901126200025557620001e262001082565b620001ec620011b7565b6001600160a01b039081169081156200023c57600054826001600160601b0360a01b821617600055167f8be0079c531659141344cd1fd0a4f28419497f9722a3daafe3b4186f6b6457e0600080a3005b604051631e4fbdf760e01b815260006004820152602490fd5b600080fd5b346200025557602036600319011262000255576101006001600160a01b03806200028362001082565b166000526002602052604060002081815416916001820154169060028101546003820154600483015490600584015492600760ff60068701541695015495604051978852602088015260408701526060860152608085015260a0840152151560c083015260e0820152f35b3462000255576000366003190112620002555760206040516127108152f35b346200025557602036600319011262000255576004356200032d620011b7565b7f5de685d6916f86043147d790b0ba618ff8c5239be31953a0d3b7b5c54c81b27e6040600c548151908152836020820152a1600c55005b346200025557604036600319011262000255576200038162001082565b6024359060018060a01b0316600052600260205260406000206096820291808304609614811517156200040257620003f3620003fa92620003ed620003d2620003e694612710602098049062001219565b6003600284015493015494859184620012c2565b926200128d565b620012a1565b9062001219565b604051908152f35b634e487b7160e01b600052601160045260246000fd5b346200025557602036600319011262000255576020620003fa6200043b62001082565b620018fa565b346200025557602036600319011262000255576200045e62001082565b62000468620011b7565b6001600160a01b039081169081156200050857600460206001600160601b0360a01b938085845416178355604051928380926315ab88c960e31b82525afa908115620004fc57600091620004c7575b5016906005541617600555600080f35b620004ed915060203d8111620004f4575b620004e481836200112a565b810190620018d9565b83620004b7565b503d620004d8565b6040513d6000823e3d90fd5b60405163e6c4247b60e01b8152600490fd5b346200025557600036600319011262000255576020600d54604051908152f35b346200025557600036600319011262000255576020600a54604051908152f35b346200025557600036600319011262000255576005546040516001600160a01b039091168152602090f35b34620002555760203660031901126200025557620005a262001082565b620005ac620011b7565b6001600160a01b038181169182156200050857600654604080516001600160a01b0394831685168152929093166020830152917f4ab5be82436d353e61ca18726e984e561f5c1cc7c6d38b29d2553c790434705a91a16001600160a01b03191617600655005b346200025557600036600319011262000255576020600354604051908152f35b346200025557600036600319011262000255576020604051604b8152f35b346200025557600036600319011262000255576020600954604051908152f35b6060366003190112620002555767ffffffffffffffff6004358181116200025557620006a19036906004016200116a565b906024358181116200025557620006bd9036906004016200116a565b90620006c8620010b0565b91620006d362001269565b600d54803410620008bf57806200087e575b50620006f4600d543462001219565b6040519092610bf19081830190811183821017620008685782916200195f8339606081526200073a6200072b606083018962001227565b82810360208401528562001227565b9060403391015203906000f0938415620004fc5760018060a01b038095169485600052600260205260406000206001600160601b0360a01b338183541617825587600183019182541617905560006004820155600b5460058201556009546002820155600a5460038201556006810160ff19815416905560074291015560035468010000000000000000811015620008685786927fe3b10feb4083662a6dba2542351b61bc6d65beddab11c513004984a0ccad73a29262000806836001620008329501600355620010c7565b819291549060031b9187831b921b19161790556200084260405192839260408452604084019062001227565b8281036020840152339662001227565b0390a38062000852575b60018055005b6200085f923390620012d0565b8080806200084c565b634e487b7160e01b600052604160045260246000fd5b6006546000918291829182916001600160a01b03165af16200089f620011e4565b5015620008ad5784620006e5565b6040516312171d8360e31b8152600490fd5b60405162976f7560e21b8152600490fd5b34620002555760003660031901126200025557602060405160968152f35b346200025557600036600319011262000255576020600c54604051908152f35b346200025557600036600319011262000255576000546040516001600160a01b039091168152602090f35b346200025557602036600319011262000255576001600160a01b036200095e62001082565b1660005260026020526040600020600281015490670de0b6b3a76400009182810292818404149015171562000402576020916003620003fa92015490620012a1565b346200025557600036600319011262000255576004546040516001600160a01b039091168152602090f35b34620002555760003660031901126200025557620009e8620011b7565b600080546001600160a01b0319811682556001600160a01b03167f8be0079c531659141344cd1fd0a4f28419497f9722a3daafe3b4186f6b6457e08280a3005b346200025557602036600319011262000255576001600160a01b0362000a4d62001082565b1660005260086020526020604060002054604051908152f35b34620002555760203660031901126200025557600435600354811015620002555762000a94602091620010c7565b905460405160039290921b1c6001600160a01b03168152f35b346200025557604036600319011262000255576001600160a01b0362000ad262001082565b16600052600260205262000b0d6040600020620003f3600382015491620003ed600262000b0260243586620012c2565b92015493846200128d565b60968102818104609614821517156200040257602091612710620003fa92049062001219565b3462000255576020366003190112620002555760043562000b53620011b7565b7fef772bbcf0f90db491aaf9f8b6712e886b3a90bb136181a52b675f4c2f11d9376040600d548151908152836020820152a1600d55005b346200025557602080600319360112620002555762000ba862001082565b62000bb262001269565b6001600160a01b031660008181526002835260409020600681015460079091015462278d0081019160ff16908210620004025715908162000cba575b5062000ca8578060005260078252604060002033600052825260406000205491821562000c965781600052600781526040600020336000528152600060408120558160005260088152604060002062000c4984825462001219565b9055600080808086335af162000c5e620011e4565b5015620008ad577ff1a5b75d05cae9d461d822c73e66e2ae88a31f7edec9922587b8f22689d6f20b906040519384523393a360018055005b6040516312d37ee560e31b8152600490fd5b6040516357155ae360e01b8152600490fd5b905042108362000bee565b3462000255576060366003190112620002555762000ce2620011b7565b600435600955602435600a55604435600b55005b6040366003190112620002555762000d0d62001082565b62000d1762001099565b62000d2162001269565b341562000d37576200084c9134903390620012d0565b604051631f2a200560e01b8152600490fd5b3462000255576060366003190112620002555762000d6662001082565b62000d70620010b0565b9062000d7b62001269565b6024351562000d37576001600160a01b0381811660009081526002602052604090206001810154909391161562000f925760ff60068401541662000f8057600383019283549062000dcf60243583620012c2565b94600282019562000df462000dec82620003ed8a5497886200128d565b809562001219565b91821580801562000f72575b62000f60578360968102046096141715620004025761271060968402049462000e2a868562001219565b6040516323b872dd60e01b81523360048201523060248083019190915235604482015290999060208160648160006001600160a01b038f165af1908115620004fc5760009162000f2b575b5015620008ad5762000e8d6005978933918c620017d3565b555562000ea06004830191825462001219565b905501805490602435820191600060243584129112908015821691151617620004025755600080808086335af162000ed7620011e4565b5015620008ad5760408051602435815260208101949094526001600160a01b03918216933393909216917f4735a31b3ec23a057c88ee658e79bf4115c33e7d3b5da900cf23c97844f1ec479190a460018055005b62000f51915060203d811162000f58575b62000f4881836200112a565b810190620017b9565b8b62000e75565b503d62000f3c565b6040516328b35f2160e01b8152600490fd5b506004850154841162000e00565b60405163dcfbaafd60e01b8152600490fd5b60405163c1ab6dc160e01b8152600490fd5b34620002555760003660031901126200025557602060405161dead8152f35b34620002555760003660031901126200025557602060405162278d008152f35b346200025557604036600319011262000255576200100062001082565b6200100a62001099565b9060018060a01b038091166000526007602052604060002091166000526020526020604060002054604051908152f35b346200025557600036600319011262000255576006546040516001600160a01b039091168152602090f35b34620002555760003660031901126200025557602090600b548152f35b600435906001600160a01b03821682036200025557565b602435906001600160a01b03821682036200025557565b604435906001600160a01b03821682036200025557565b600354811015620010ff5760036000527fc2575a0e9e593c00f959f8c92f12db2869c3395a3b0502d05e2516446f71f85b0190600090565b634e487b7160e01b600052603260045260246000fd5b67ffffffffffffffff81116200086857604052565b90601f8019910116810190811067ffffffffffffffff8211176200086857604052565b67ffffffffffffffff81116200086857601f01601f191660200190565b81601f82011215620002555780359062001184826200114d565b926200119460405194856200112a565b828452602083830101116200025557816000926020809301838601378301015290565b6000546001600160a01b03163303620011cc57565b60405163118cdaa760e01b8152336004820152602490fd5b3d1562001214573d90620011f8826200114d565b916200120860405193846200112a565b82523d6000602084013e565b606090565b919082039182116200040257565b919082519283825260005b84811062001254575050826000602080949584010152601f8019910116010190565b60208183018101518483018201520162001232565b6002600154146200127b576002600155565b604051633ee5aeb560e01b8152600490fd5b818102929181159184041417156200040257565b8115620012ac570490565b634e487b7160e01b600052601260045260246000fd5b919082018092116200040257565b9092600060018060a01b0393848416825260209560028752604093848420908760018301541615620017a85760ff6006830154166200179757609684028481046096148515171562001783576127109004936200133c848362001334888562001219565b978b620017d3565b600560028401936200136785548862001378620013706003860193620003ed855496879583620012c2565b9485926200128d565b809462001219565b9755556200138c60048201978854620012c2565b8755018054848103919088861280158285131691841216176200176f57558888163b156200176b5786516364a7102b60e01b81526001600160a01b0385166004820152602481018490528681604481838e8e165af180156200176157908a93929162001749575b5090829188519485528b850152169216907fe4c62f62c45a0251c0c1bcc84de28bf8c9575b0841fc32fc2c94d889baf6af318689891692a454600c5411156200143e575b5050505050565b8383168152600285528181209460068601600160ff19825416179055600881528282205447908082116000146200173f576200147a9162001219565b905b8260056200149f6200149360038b0154866200128d565b60028b015490620012a1565b98826004820155015586620016e1575b60048054855163095ea7b360e01b81529088166001600160a01b031691810191909152602481018890528181604481878a8c165af180156200166c57620016bf575b50856004541661012c4201804211620016ab578760c488868c956060958b51978896879563f305d71960e01b875216600486015260248501528a60448501528a606485015261dead608485015260a48401525af180156200166c5762001676575b506004818782541686519283809263c45a015560e01b82525afa9081156200166c57620015be8892849287916200164a575b50600554885163e6a4390560e01b81526001600160a01b038b81166004830152918616909116602482015293849283919082906044820190565b0392165afa9384156200163f57928795939260609795927fa44c03aaf0b9a5fcba3a779474f4366ea6283072d24c8082199f204872b159739994936200161b575b508451998a5289015216908601521692a2388080808062001437565b81620016379294503d8511620004f457620004e481836200112a565b9138620015ff565b8551903d90823e3d90fd5b620016659150833d8511620004f457620004e481836200112a565b3862001584565b85513d86823e3d90fd5b606090813d8111620016a3575b6200168f81836200112a565b810103126200169f573862001552565b8280fd5b503d62001683565b634e487b7160e01b85526011600452602485fd5b620016d990823d841162000f585762000f4881836200112a565b5038620014f1565b8585163b156200169f5783516364a7102b60e01b8152306004820152602481018890528381604481838a8c165af180156200166c5790849162001727575b5050620014af565b620017329062001115565b6200169f5782386200171f565b505081906200147c565b96620017588493929862001115565b969091620013f3565b88513d89823e3d90fd5b8580fd5b634e487b7160e01b88526011600452602488fd5b634e487b7160e01b86526011600452602486fd5b855163dcfbaafd60e01b8152600490fd5b855163c1ab6dc160e01b8152600490fd5b908160209103126200025557518015158103620002555790565b6001600160a01b03928316939192909184151590829082620018cb575b505015620018a757604b830292808404604b148115171562000402576096620018259404809160008080978194829462001219565b86600654165af162001836620011e4565b5015620008ad5760406020927f1bc9965d3d009f5176a59391926fb2ded0a94c0505578d85d14732f1b6c56af494169485815260078452818120878252845281812062001885848254620012c2565b905585815260088452206200189c828254620012c2565b9055604051908152a3565b6000935083928392508291600654165af1620018c2620011e4565b5015620008ad57565b1685141590508138620017f0565b908160209103126200025557516001600160a01b0381168103620002555790565b6001600160a01b03166000908152600260205260409020600681015460ff166200195757600401549061271091828102908082048414901517156200040257600c546200194791620012a1565b91808311620019535750565b9150565b506127109056fe60a060405234620003a35762000bf1803803806200001d81620003a8565b9283398101606082820312620003a35781516001600160401b039290838111620003a357826200004f918301620003ce565b9160209081830151858111620003a3576040916200006f918501620003ce565b9201516001600160a01b0381169390849003620003a35780518581116200038d576000938454916001938484811c9416801562000382575b868510146200036e578190601f948581116200031b575b508690858311600114620002b7578892620002ab575b5050600019600383901b1c191690841b1785555b8051968711620002975782548381811c911680156200028c575b85821014620002785782811162000230575b5083918711600114620001ba5795809185969760008051602062000bd18339815191529692620001ae575b5050600019600383901b1c191690821b1790555b3360805283835260038152604083206200016e815462000440565b90556200017d60025462000440565b600255604051670de0b6b3a76400008152a360405161076490816200046d823960805181818160fc01526103610152f35b0151905038806200013f565b8285528385209190601f198816865b8181106200021a5750918493918960008051602062000bd183398151915298999a941062000200575b505050811b01905562000153565b015160001960f88460031b161c19169055388080620001f2565b82840151855593850193928601928601620001c9565b83865284862083808a0160051c820192878b106200026e575b0160051c019084905b8281106200026257505062000114565b87815501849062000252565b9250819262000249565b634e487b7160e01b86526022600452602486fd5b90607f169062000102565b634e487b7160e01b85526041600452602485fd5b015190503880620000d4565b8880528789208794509190601f1984168a5b8a828210620003045750508411620002ea575b505050811b018555620000e8565b015160001960f88460031b161c19169055388080620002dc565b8385015186558a97909501949384019301620002c9565b9091508780528688208580850160051c82019289861062000364575b918891869594930160051c01915b82811062000355575050620000be565b8a815585945088910162000345565b9250819262000337565b634e487b7160e01b87526022600452602487fd5b93607f1693620000a7565b634e487b7160e01b600052604160045260246000fd5b600080fd5b6040519190601f01601f191682016001600160401b038111838210176200038d57604052565b919080601f84011215620003a35782516001600160401b0381116200038d5760209062000404601f8201601f19168301620003a8565b92818452828287010111620003a35760005b8181106200042c57508260009394955001015290565b858101830151848201840152820162000416565b90670de0b6b3a764000082018092116200045657565b634e487b7160e01b600052601160045260246000fdfe6080604081815260048036101561001557600080fd5b600092833560e01c90816306fdde031461059157508063095ea7b31461052357806318160ddd1461050457806323b872dd1461040a578063313ce567146103ee57806364a7102b1461033857806370a082311461030057806395d89b41146101df578063a9059cbb1461012f578063c45a0155146100e75763dd62ed3e1461009c57600080fd5b346100e357816003193601126100e35760209282916100b96106cd565b6100c16106e8565b6001600160a01b03918216845291865283832091168252845220549051908152f35b8280fd5b50503461012b578160031936011261012b57517f00000000000000000000000000000000000000000000000000000000000000006001600160a01b03168152602090f35b5080fd5b5091346101dc57816003193601126101dc576101496106cd565b926024359033835260036020528184842054106101ce5750826020943384526003865281842061017a848254610721565b90556001600160a01b0316808452600386529220805461019b9083906106fe565b905582519081527fddf252ad1be2c89b69c2b068fc378daa952ba7f163c4a11628f55a4df523b3ef843392a35160018152f35b8351631e9acf1760e31b8152fd5b80fd5b5091903461012b578160031936011261012b5780519082600180549081811c908083169283156102f6575b60209384841081146102e3578388529081156102c75750600114610272575b505050829003601f01601f191682019267ffffffffffffffff84118385101761025f575082918261025b925282610684565b0390f35b634e487b7160e01b815260418552602490fd5b8087529192508591837fb10e2d527612073b26eecdfd717e6a320cf44b4afac2b0732d9fcbe2b7fa0cf65b8385106102b35750505050830101388080610229565b80548886018301529301928490820161029d565b60ff1916878501525050151560051b8401019050388080610229565b634e487b7160e01b895260228a52602489fd5b91607f169161020a565b50503461012b57602036600319011261012b5760209181906001600160a01b036103286106cd565b1681526003845220549051908152f35b50346100e357816003193601126100e3576103516106cd565b602435916001600160a01b0391907f0000000000000000000000000000000000000000000000000000000000000000831633036103e0575084927fddf252ad1be2c89b69c2b068fc378daa952ba7f163c4a11628f55a4df523b3ef926020921694858552600383528085206103c78382546106fe565b90556103d5826002546106fe565b60025551908152a380f35b8451630636a15760e11b8152fd5b50503461012b578160031936011261012b576020905160128152f35b5091346101dc5760603660031901126101dc576104256106cd565b61042d6106e8565b906044359060018060a01b0380911692838552602096600388528387872054106104f65784865280885286862033875288528387872054106104e85787927fddf252ad1be2c89b69c2b068fc378daa952ba7f163c4a11628f55a4df523b3ef94928892878952600386528389206104a5868254610721565b9055878952855282882033895285528288206104c2858254610721565b9055169586815260038452206104d98282546106fe565b90558551908152a35160018152f35b86516313be252b60e01b8152fd5b8651631e9acf1760e31b8152fd5b50503461012b578160031936011261012b576020906002549051908152f35b50346100e357816003193601126100e35760209261053f6106cd565b918360243592839233825287528181209460018060a01b0316948582528752205582519081527f8c5be1e5ebec7d5bd14f71427d1e84f3dd0314c0f7b2291e5b200ac8c7c3b925843392a35160018152f35b84915083346100e357826003193601126100e357828354600181811c9080831692831561067a575b60209384841081146102e35783885290811561065e575060011461060957505050829003601f01601f191682019267ffffffffffffffff84118385101761025f575082918261025b925282610684565b8680529192508591837f290decd9548b62a8d60345a988386fc84ba6bc95484008f6362f93160ef3e5635b83851061064a5750505050830101858080610229565b805488860183015293019284908201610634565b60ff1916878501525050151560051b8401019050858080610229565b91607f16916105b9565b6020808252825181830181905290939260005b8281106106b957505060409293506000838284010152601f8019910116010190565b818101860151848201604001528501610697565b600435906001600160a01b03821682036106e357565b600080fd5b602435906001600160a01b03821682036106e357565b9190820180921161070b57565b634e487b7160e01b600052601160045260246000fd5b9190820391821161070b5756fea2646970667358221220ba937415f3e276274eca1b73970cb2699d39e197e269c15dc0dfb8eba852821b64736f6c63430008140033ddf252ad1be2c89b69c2b068fc378daa952ba7f163c4a11628f55a4df523b3efa2646970667358221220edd82cc00ad39e9d2abbcb27cb831cafab9e96357358be52e2501672df02447864736f6c63430008140033","opcodes":"PUSH1 0x80 PUSH1 0x40 SWAP1 DUP1 DUP3 MSTORE CALLVALUE PUSH3 0x1D4 JUMPI DUP2 DUP2 PUSH3 0x27AE DUP1 CODESIZE SUB DUP1 SWAP2 PUSH3 0x24 DUP3 DUP6 PUSH3 0x1D9 JUMP JUMPDEST DUP4 CODECOPY DUP2 ADD SUB SLT PUSH3 0x1D4 JUMPI PUSH3 0x48 PUSH1 0x20 PUSH3 0x40 DUP4 PUSH3 0x213 JUMP JUMPDEST SWAP3 ADD PUSH3 0x213 JUMP JUMPDEST CALLER ISZERO PUSH3 0x1BC JUMPI PUSH1 0x0 DUP1 SLOAD CALLER PUSH1 0x1 PUSH1 0x1 PUSH1 0xA0 SHL SUB NOT DUP1 DUP4 AND DUP3 OR DUP5 SSTORE DUP7 MLOAD SWAP6 SWAP1 SWAP5 PUSH1 0x1 PUSH1 0x1 PUSH1 0xA0 SHL SUB SWAP5 SWAP4 SWAP1 SWAP3 DUP6 SWAP3 SWAP2 DUP4 AND PUSH32 0x8BE0079C531659141344CD1FD0A4F28419497F9722A3DAAFE3B4186F6B6457E0 DUP7 DUP1 LOG3 PUSH1 0x1 DUP1 SSTORE PUSH7 0x354A6BA7A18000 PUSH1 0x9 SSTORE PUSH12 0x37790968DC8EFFFD1000000 PUSH1 0xA SSTORE PUSH12 0x29009752660AD62AF800000 PUSH1 0xB SSTORE PUSH8 0xDE0B6B3A7640000 PUSH1 0xC SSTORE PUSH7 0xB1A2BC2EC50000 PUSH1 0xD SSTORE AND SWAP5 DUP6 ISZERO PUSH3 0x1AD JUMPI POP DUP3 AND SWAP4 DUP5 ISZERO PUSH3 0x19C JUMPI PUSH1 0x4 DUP1 SLOAD DUP6 AND DUP3 OR DUP2 SSTORE DUP7 MLOAD PUSH4 0x15AB88C9 PUSH1 0xE3 SHL DUP2 MSTORE SWAP2 PUSH1 0x20 SWAP2 DUP4 SWAP2 DUP3 SWAP1 GAS STATICCALL SWAP2 DUP3 ISZERO PUSH3 0x191 JUMPI DUP1 SWAP3 PUSH3 0x14A JUMPI JUMPDEST POP POP AND DUP2 PUSH1 0x5 SLOAD AND OR PUSH1 0x5 SSTORE PUSH1 0x6 SLOAD AND OR PUSH1 0x6 SSTORE MLOAD PUSH2 0x2585 SWAP1 DUP2 PUSH3 0x229 DUP3 CODECOPY RETURN JUMPDEST SWAP1 SWAP2 POP PUSH1 0x20 DUP3 RETURNDATASIZE DUP3 GT PUSH3 0x188 JUMPI JUMPDEST DUP2 PUSH3 0x168 PUSH1 0x20 SWAP4 DUP4 PUSH3 0x1D9 JUMP JUMPDEST DUP2 ADD SUB SLT PUSH3 0x185 JUMPI POP PUSH3 0x17D SWAP1 PUSH3 0x213 JUMP JUMPDEST CODESIZE DUP1 PUSH3 0x128 JUMP JUMPDEST DUP1 REVERT JUMPDEST RETURNDATASIZE SWAP2 POP PUSH3 0x159 JUMP JUMPDEST DUP7 MLOAD SWAP1 RETURNDATASIZE SWAP1 DUP3 RETURNDATACOPY RETURNDATASIZE SWAP1 REVERT JUMPDEST DUP6 MLOAD PUSH4 0xE6C4247B PUSH1 0xE0 SHL DUP2 MSTORE PUSH1 0x4 SWAP1 REVERT JUMPDEST PUSH4 0xE6C4247B PUSH1 0xE0 SHL DUP2 MSTORE PUSH1 0x4 SWAP1 REVERT JUMPDEST DUP3 MLOAD PUSH4 0x1E4FBDF7 PUSH1 0xE0 SHL DUP2 MSTORE PUSH1 0x0 PUSH1 0x4 DUP3 ADD MSTORE PUSH1 0x24 SWAP1 REVERT JUMPDEST PUSH1 0x0 DUP1 REVERT JUMPDEST PUSH1 0x1F SWAP1 SWAP2 ADD PUSH1 0x1F NOT AND DUP2 ADD SWAP1 PUSH1 0x1 PUSH1 0x1 PUSH1 0x40 SHL SUB DUP3 GT SWAP1 DUP3 LT OR PUSH3 0x1FD JUMPI PUSH1 0x40 MSTORE JUMP JUMPDEST PUSH4 0x4E487B71 PUSH1 0xE0 SHL PUSH1 0x0 MSTORE PUSH1 0x41 PUSH1 0x4 MSTORE PUSH1 0x24 PUSH1 0x0 REVERT JUMPDEST MLOAD SWAP1 PUSH1 0x1 PUSH1 0x1 PUSH1 0xA0 SHL SUB DUP3 AND DUP3 SUB PUSH3 0x1D4 JUMPI JUMP INVALID PUSH1 0x80 DUP1 PUSH1 0x40 MSTORE PUSH1 0x4 CALLDATASIZE LT ISZERO PUSH3 0x1F JUMPI JUMPDEST POP CALLDATASIZE ISZERO PUSH3 0x1D JUMPI PUSH1 0x0 DUP1 REVERT JUMPDEST STOP JUMPDEST PUSH1 0x0 CALLDATALOAD PUSH1 0xE0 SHR SWAP1 DUP2 PUSH4 0x208597B0 EQ PUSH3 0x1065 JUMPI POP DUP1 PUSH4 0x4626402B EQ PUSH3 0x103A JUMPI DUP1 PUSH4 0x4C63C518 EQ PUSH3 0xFE3 JUMPI DUP1 PUSH4 0x4D6E0C19 EQ PUSH3 0xFC3 JUMPI DUP1 PUSH4 0x4E6FD6C4 EQ PUSH3 0xFA4 JUMPI DUP1 PUSH4 0x55A97632 EQ PUSH3 0xD49 JUMPI DUP1 PUSH4 0x5EE6CC38 EQ PUSH3 0xCF6 JUMPI DUP1 PUSH4 0x6148813C EQ PUSH3 0xCC5 JUMPI DUP1 PUSH4 0x61929D8A EQ PUSH3 0xB8A JUMPI DUP1 PUSH4 0x62914849 EQ PUSH3 0xB33 JUMPI DUP1 PUSH4 0x632DB21C EQ PUSH3 0xAAD JUMPI DUP1 PUSH4 0x634282AF EQ PUSH3 0xA66 JUMPI DUP1 PUSH4 0x70334057 EQ PUSH3 0xA28 JUMPI DUP1 PUSH4 0x715018A6 EQ PUSH3 0x9CB JUMPI DUP1 PUSH4 0x735DE9F7 EQ PUSH3 0x9A0 JUMPI DUP1 PUSH4 0x84CC315B EQ PUSH3 0x939 JUMPI DUP1 PUSH4 0x8DA5CB5B EQ PUSH3 0x90E JUMPI DUP1 PUSH4 0x90BC1E85 EQ PUSH3 0x8EE JUMPI DUP1 PUSH4 0x9185F598 EQ PUSH3 0x8D0 JUMPI DUP1 PUSH4 0x94B4CD0A EQ PUSH3 0x670 JUMPI DUP1 PUSH4 0x995C86D5 EQ PUSH3 0x650 JUMPI DUP1 PUSH4 0x9D72265E EQ PUSH3 0x632 JUMPI DUP1 PUSH4 0x9E1E213E EQ PUSH3 0x612 JUMPI DUP1 PUSH4 0xA8602FEA EQ PUSH3 0x585 JUMPI DUP1 PUSH4 0xAD5C4648 EQ PUSH3 0x55A JUMPI DUP1 PUSH4 0xB1A51F35 EQ PUSH3 0x53A JUMPI DUP1 PUSH4 0xB2DB919B EQ PUSH3 0x51A JUMPI DUP1 PUSH4 0xC0D78655 EQ PUSH3 0x441 JUMPI DUP1 PUSH4 0xC8A1D06E EQ PUSH3 0x418 JUMPI DUP1 PUSH4 0xCA706BCF EQ PUSH3 0x364 JUMPI DUP1 PUSH4 0xCA92A91B EQ PUSH3 0x30D JUMPI DUP1 PUSH4 0xE1A45218 EQ PUSH3 0x2EE JUMPI DUP1 PUSH4 0xE4860339 EQ PUSH3 0x25A JUMPI PUSH4 0xF2FDE38B EQ PUSH3 0x1C5 JUMPI CODESIZE PUSH3 0x10 JUMP JUMPDEST CALLVALUE PUSH3 0x255 JUMPI PUSH1 0x20 CALLDATASIZE PUSH1 0x3 NOT ADD SLT PUSH3 0x255 JUMPI PUSH3 0x1E2 PUSH3 0x1082 JUMP JUMPDEST PUSH3 0x1EC PUSH3 0x11B7 JUMP JUMPDEST PUSH1 0x1 PUSH1 0x1 PUSH1 0xA0 SHL SUB SWAP1 DUP2 AND SWAP1 DUP2 ISZERO PUSH3 0x23C JUMPI PUSH1 0x0 SLOAD DUP3 PUSH1 0x1 PUSH1 0x1 PUSH1 0x60 SHL SUB PUSH1 0xA0 SHL DUP3 AND OR PUSH1 0x0 SSTORE AND PUSH32 0x8BE0079C531659141344CD1FD0A4F28419497F9722A3DAAFE3B4186F6B6457E0 PUSH1 0x0 DUP1 LOG3 STOP JUMPDEST PUSH1 0x40 MLOAD PUSH4 0x1E4FBDF7 PUSH1 0xE0 SHL DUP2 MSTORE PUSH1 0x0 PUSH1 0x4 DUP3 ADD MSTORE PUSH1 0x24 SWAP1 REVERT JUMPDEST PUSH1 0x0 DUP1 REVERT JUMPDEST CALLVALUE PUSH3 0x255 JUMPI PUSH1 0x20 CALLDATASIZE PUSH1 0x3 NOT ADD SLT PUSH3 0x255 JUMPI PUSH2 0x100 PUSH1 0x1 PUSH1 0x1 PUSH1 0xA0 SHL SUB DUP1 PUSH3 0x283 PUSH3 0x1082 JUMP JUMPDEST AND PUSH1 0x0 MSTORE PUSH1 0x2 PUSH1 0x20 MSTORE PUSH1 0x40 PUSH1 0x0 KECCAK256 DUP2 DUP2 SLOAD AND SWAP2 PUSH1 0x1 DUP3 ADD SLOAD AND SWAP1 PUSH1 0x2 DUP2 ADD SLOAD PUSH1 0x3 DUP3 ADD SLOAD PUSH1 0x4 DUP4 ADD SLOAD SWAP1 PUSH1 0x5 DUP5 ADD SLOAD SWAP3 PUSH1 0x7 PUSH1 0xFF PUSH1 0x6 DUP8 ADD SLOAD AND SWAP6 ADD SLOAD SWAP6 PUSH1 0x40 MLOAD SWAP8 DUP9 MSTORE PUSH1 0x20 DUP9 ADD MSTORE PUSH1 0x40 DUP8 ADD MSTORE PUSH1 0x60 DUP7 ADD MSTORE PUSH1 0x80 DUP6 ADD MSTORE PUSH1 0xA0 DUP5 ADD MSTORE ISZERO ISZERO PUSH1 0xC0 DUP4 ADD MSTORE PUSH1 0xE0 DUP3 ADD MSTORE RETURN JUMPDEST CALLVALUE PUSH3 0x255 JUMPI PUSH1 0x0 CALLDATASIZE PUSH1 0x3 NOT ADD SLT PUSH3 0x255 JUMPI PUSH1 0x20 PUSH1 0x40 MLOAD PUSH2 0x2710 DUP2 MSTORE RETURN JUMPDEST CALLVALUE PUSH3 0x255 JUMPI PUSH1 0x20 CALLDATASIZE PUSH1 0x3 NOT ADD SLT PUSH3 0x255 JUMPI PUSH1 0x4 CALLDATALOAD PUSH3 0x32D PUSH3 0x11B7 JUMP JUMPDEST PUSH32 0x5DE685D6916F86043147D790B0BA618FF8C5239BE31953A0D3B7B5C54C81B27E PUSH1 0x40 PUSH1 0xC SLOAD DUP2 MLOAD SWAP1 DUP2 MSTORE DUP4 PUSH1 0x20 DUP3 ADD MSTORE LOG1 PUSH1 0xC SSTORE STOP JUMPDEST CALLVALUE PUSH3 0x255 JUMPI PUSH1 0x40 CALLDATASIZE PUSH1 0x3 NOT ADD SLT PUSH3 0x255 JUMPI PUSH3 0x381 PUSH3 0x1082 JUMP JUMPDEST PUSH1 0x24 CALLDATALOAD SWAP1 PUSH1 0x1 DUP1 PUSH1 0xA0 SHL SUB AND PUSH1 0x0 MSTORE PUSH1 0x2 PUSH1 0x20 MSTORE PUSH1 0x40 PUSH1 0x0 KECCAK256 PUSH1 0x96 DUP3 MUL SWAP2 DUP1 DUP4 DIV PUSH1 0x96 EQ DUP2 ISZERO OR ISZERO PUSH3 0x402 JUMPI PUSH3 0x3F3 PUSH3 0x3FA SWAP3 PUSH3 0x3ED PUSH3 0x3D2 PUSH3 0x3E6 SWAP5 PUSH2 0x2710 PUSH1 0x20 SWAP9 DIV SWAP1 PUSH3 0x1219 JUMP JUMPDEST PUSH1 0x3 PUSH1 0x2 DUP5 ADD SLOAD SWAP4 ADD SLOAD SWAP5 DUP6 SWAP2 DUP5 PUSH3 0x12C2 JUMP JUMPDEST SWAP3 PUSH3 0x128D JUMP JUMPDEST PUSH3 0x12A1 JUMP JUMPDEST SWAP1 PUSH3 0x1219 JUMP JUMPDEST PUSH1 0x40 MLOAD SWAP1 DUP2 MSTORE RETURN JUMPDEST PUSH4 0x4E487B71 PUSH1 0xE0 SHL PUSH1 0x0 MSTORE PUSH1 0x11 PUSH1 0x4 MSTORE PUSH1 0x24 PUSH1 0x0 REVERT JUMPDEST CALLVALUE PUSH3 0x255 JUMPI PUSH1 0x20 CALLDATASIZE PUSH1 0x3 NOT ADD SLT PUSH3 0x255 JUMPI PUSH1 0x20 PUSH3 0x3FA PUSH3 0x43B PUSH3 0x1082 JUMP JUMPDEST PUSH3 0x18FA JUMP JUMPDEST CALLVALUE PUSH3 0x255 JUMPI PUSH1 0x20 CALLDATASIZE PUSH1 0x3 NOT ADD SLT PUSH3 0x255 JUMPI PUSH3 0x45E PUSH3 0x1082 JUMP JUMPDEST PUSH3 0x468 PUSH3 0x11B7 JUMP JUMPDEST PUSH1 0x1 PUSH1 0x1 PUSH1 0xA0 SHL SUB SWAP1 DUP2 AND SWAP1 DUP2 ISZERO PUSH3 0x508 JUMPI PUSH1 0x4 PUSH1 0x20 PUSH1 0x1 PUSH1 0x1 PUSH1 0x60 SHL SUB PUSH1 0xA0 SHL SWAP4 DUP1 DUP6 DUP5 SLOAD AND OR DUP4 SSTORE PUSH1 0x40 MLOAD SWAP3 DUP4 DUP1 SWAP3 PUSH4 0x15AB88C9 PUSH1 0xE3 SHL DUP3 MSTORE GAS STATICCALL SWAP1 DUP2 ISZERO PUSH3 0x4FC JUMPI PUSH1 0x0 SWAP2 PUSH3 0x4C7 JUMPI JUMPDEST POP AND SWAP1 PUSH1 0x5 SLOAD AND OR PUSH1 0x5 SSTORE PUSH1 0x0 DUP1 RETURN JUMPDEST PUSH3 0x4ED SWAP2 POP PUSH1 0x20 RETURNDATASIZE DUP2 GT PUSH3 0x4F4 JUMPI JUMPDEST PUSH3 0x4E4 DUP2 DUP4 PUSH3 0x112A JUMP JUMPDEST DUP2 ADD SWAP1 PUSH3 0x18D9 JUMP JUMPDEST DUP4 PUSH3 0x4B7 JUMP JUMPDEST POP RETURNDATASIZE PUSH3 0x4D8 JUMP JUMPDEST PUSH1 0x40 MLOAD RETURNDATASIZE PUSH1 0x0 DUP3 RETURNDATACOPY RETURNDATASIZE SWAP1 REVERT JUMPDEST PUSH1 0x40 MLOAD PUSH4 0xE6C4247B PUSH1 0xE0 SHL DUP2 MSTORE PUSH1 0x4 SWAP1 REVERT JUMPDEST CALLVALUE PUSH3 0x255 JUMPI PUSH1 0x0 CALLDATASIZE PUSH1 0x3 NOT ADD SLT PUSH3 0x255 JUMPI PUSH1 0x20 PUSH1 0xD SLOAD PUSH1 0x40 MLOAD SWAP1 DUP2 MSTORE RETURN JUMPDEST CALLVALUE PUSH3 0x255 JUMPI PUSH1 0x0 CALLDATASIZE PUSH1 0x3 NOT ADD SLT PUSH3 0x255 JUMPI PUSH1 0x20 PUSH1 0xA SLOAD PUSH1 0x40 MLOAD SWAP1 DUP2 MSTORE RETURN JUMPDEST CALLVALUE PUSH3 0x255 JUMPI PUSH1 0x0 CALLDATASIZE PUSH1 0x3 NOT ADD SLT PUSH3 0x255 JUMPI PUSH1 0x5 SLOAD PUSH1 0x40 MLOAD PUSH1 0x1 PUSH1 0x1 PUSH1 0xA0 SHL SUB SWAP1 SWAP2 AND DUP2 MSTORE PUSH1 0x20 SWAP1 RETURN JUMPDEST CALLVALUE PUSH3 0x255 JUMPI PUSH1 0x20 CALLDATASIZE PUSH1 0x3 NOT ADD SLT PUSH3 0x255 JUMPI PUSH3 0x5A2 PUSH3 0x1082 JUMP JUMPDEST PUSH3 0x5AC PUSH3 0x11B7 JUMP JUMPDEST PUSH1 0x1 PUSH1 0x1 PUSH1 0xA0 SHL SUB DUP2 DUP2 AND SWAP2 DUP3 ISZERO PUSH3 0x508 JUMPI PUSH1 0x6 SLOAD PUSH1 0x40 DUP1 MLOAD PUSH1 0x1 PUSH1 0x1 PUSH1 0xA0 SHL SUB SWAP5 DUP4 AND DUP6 AND DUP2 MSTORE SWAP3 SWAP1 SWAP4 AND PUSH1 0x20 DUP4 ADD MSTORE SWAP2 PUSH32 0x4AB5BE82436D353E61CA18726E984E561F5C1CC7C6D38B29D2553C790434705A SWAP2 LOG1 PUSH1 0x1 PUSH1 0x1 PUSH1 0xA0 SHL SUB NOT AND OR PUSH1 0x6 SSTORE STOP JUMPDEST CALLVALUE PUSH3 0x255 JUMPI PUSH1 0x0 CALLDATASIZE PUSH1 0x3 NOT ADD SLT PUSH3 0x255 JUMPI PUSH1 0x20 PUSH1 0x3 SLOAD PUSH1 0x40 MLOAD SWAP1 DUP2 MSTORE RETURN JUMPDEST CALLVALUE PUSH3 0x255 JUMPI PUSH1 0x0 CALLDATASIZE PUSH1 0x3 NOT ADD SLT PUSH3 0x255 JUMPI PUSH1 0x20 PUSH1 0x40 MLOAD PUSH1 0x4B DUP2 MSTORE RETURN JUMPDEST CALLVALUE PUSH3 0x255 JUMPI PUSH1 0x0 CALLDATASIZE PUSH1 0x3 NOT ADD SLT PUSH3 0x255 JUMPI PUSH1 0x20 PUSH1 0x9 SLOAD PUSH1 0x40 MLOAD SWAP1 DUP2 MSTORE RETURN JUMPDEST PUSH1 0x60 CALLDATASIZE PUSH1 0x3 NOT ADD SLT PUSH3 0x255 JUMPI PUSH8 0xFFFFFFFFFFFFFFFF PUSH1 0x4 CALLDATALOAD DUP2 DUP2 GT PUSH3 0x255 JUMPI PUSH3 0x6A1 SWAP1 CALLDATASIZE SWAP1 PUSH1 0x4 ADD PUSH3 0x116A JUMP JUMPDEST SWAP1 PUSH1 0x24 CALLDATALOAD DUP2 DUP2 GT PUSH3 0x255 JUMPI PUSH3 0x6BD SWAP1 CALLDATASIZE SWAP1 PUSH1 0x4 ADD PUSH3 0x116A JUMP JUMPDEST SWAP1 PUSH3 0x6C8 PUSH3 0x10B0 JUMP JUMPDEST SWAP2 PUSH3 0x6D3 PUSH3 0x1269 JUMP JUMPDEST PUSH1 0xD SLOAD DUP1 CALLVALUE LT PUSH3 0x8BF JUMPI DUP1 PUSH3 0x87E JUMPI JUMPDEST POP PUSH3 0x6F4 PUSH1 0xD SLOAD CALLVALUE PUSH3 0x1219 JUMP JUMPDEST PUSH1 0x40 MLOAD SWAP1 SWAP3 PUSH2 0xBF1 SWAP1 DUP2 DUP4 ADD SWAP1 DUP2 GT DUP4 DUP3 LT OR PUSH3 0x868 JUMPI DUP3 SWAP2 PUSH3 0x195F DUP4 CODECOPY PUSH1 0x60 DUP2 MSTORE PUSH3 0x73A PUSH3 0x72B PUSH1 0x60 DUP4 ADD DUP10 PUSH3 0x1227 JUMP JUMPDEST DUP3 DUP2 SUB PUSH1 0x20 DUP5 ADD MSTORE DUP6 PUSH3 0x1227 JUMP JUMPDEST SWAP1 PUSH1 0x40 CALLER SWAP2 ADD MSTORE SUB SWAP1 PUSH1 0x0 CREATE SWAP4 DUP5 ISZERO PUSH3 0x4FC JUMPI PUSH1 0x1 DUP1 PUSH1 0xA0 SHL SUB DUP1 SWAP6 AND SWAP5 DUP6 PUSH1 0x0 MSTORE PUSH1 0x2 PUSH1 0x20 MSTORE PUSH1 0x40 PUSH1 0x0 KECCAK256 PUSH1 0x1 PUSH1 0x1 PUSH1 0x60 SHL SUB PUSH1 0xA0 SHL CALLER DUP2 DUP4 SLOAD AND OR DUP3 SSTORE DUP8 PUSH1 0x1 DUP4 ADD SWAP2 DUP3 SLOAD AND OR SWAP1 SSTORE PUSH1 0x0 PUSH1 0x4 DUP3 ADD SSTORE PUSH1 0xB SLOAD PUSH1 0x5 DUP3 ADD SSTORE PUSH1 0x9 SLOAD PUSH1 0x2 DUP3 ADD SSTORE PUSH1 0xA SLOAD PUSH1 0x3 DUP3 ADD SSTORE PUSH1 0x6 DUP2 ADD PUSH1 0xFF NOT DUP2 SLOAD AND SWAP1 SSTORE PUSH1 0x7 TIMESTAMP SWAP2 ADD SSTORE PUSH1 0x3 SLOAD PUSH9 0x10000000000000000 DUP2 LT ISZERO PUSH3 0x868 JUMPI DUP7 SWAP3 PUSH32 0xE3B10FEB4083662A6DBA2542351B61BC6D65BEDDAB11C513004984A0CCAD73A2 SWAP3 PUSH3 0x806 DUP4 PUSH1 0x1 PUSH3 0x832 SWAP6 ADD PUSH1 0x3 SSTORE PUSH3 0x10C7 JUMP JUMPDEST DUP2 SWAP3 SWAP2 SLOAD SWAP1 PUSH1 0x3 SHL SWAP2 DUP8 DUP4 SHL SWAP3 SHL NOT AND OR SWAP1 SSTORE PUSH3 0x842 PUSH1 0x40 MLOAD SWAP3 DUP4 SWAP3 PUSH1 0x40 DUP5 MSTORE PUSH1 0x40 DUP5 ADD SWAP1 PUSH3 0x1227 JUMP JUMPDEST DUP3 DUP2 SUB PUSH1 0x20 DUP5 ADD MSTORE CALLER SWAP7 PUSH3 0x1227 JUMP JUMPDEST SUB SWAP1 LOG3 DUP1 PUSH3 0x852 JUMPI JUMPDEST PUSH1 0x1 DUP1 SSTORE STOP JUMPDEST PUSH3 0x85F SWAP3 CALLER SWAP1 PUSH3 0x12D0 JUMP JUMPDEST DUP1 DUP1 DUP1 PUSH3 0x84C JUMP JUMPDEST PUSH4 0x4E487B71 PUSH1 0xE0 SHL PUSH1 0x0 MSTORE PUSH1 0x41 PUSH1 0x4 MSTORE PUSH1 0x24 PUSH1 0x0 REVERT JUMPDEST PUSH1 0x6 SLOAD PUSH1 0x0 SWAP2 DUP3 SWAP2 DUP3 SWAP2 DUP3 SWAP2 PUSH1 0x1 PUSH1 0x1 PUSH1 0xA0 SHL SUB AND GAS CALL PUSH3 0x89F PUSH3 0x11E4 JUMP JUMPDEST POP ISZERO PUSH3 0x8AD JUMPI DUP5 PUSH3 0x6E5 JUMP JUMPDEST PUSH1 0x40 MLOAD PUSH4 0x12171D83 PUSH1 0xE3 SHL DUP2 MSTORE PUSH1 0x4 SWAP1 REVERT JUMPDEST PUSH1 0x40 MLOAD PUSH3 0x976F75 PUSH1 0xE2 SHL DUP2 MSTORE PUSH1 0x4 SWAP1 REVERT JUMPDEST CALLVALUE PUSH3 0x255 JUMPI PUSH1 0x0 CALLDATASIZE PUSH1 0x3 NOT ADD SLT PUSH3 0x255 JUMPI PUSH1 0x20 PUSH1 0x40 MLOAD PUSH1 0x96 DUP2 MSTORE RETURN JUMPDEST CALLVALUE PUSH3 0x255 JUMPI PUSH1 0x0 CALLDATASIZE PUSH1 0x3 NOT ADD SLT PUSH3 0x255 JUMPI PUSH1 0x20 PUSH1 0xC SLOAD PUSH1 0x40 MLOAD SWAP1 DUP2 MSTORE RETURN JUMPDEST CALLVALUE PUSH3 0x255 JUMPI PUSH1 0x0 CALLDATASIZE PUSH1 0x3 NOT ADD SLT PUSH3 0x255 JUMPI PUSH1 0x0 SLOAD PUSH1 0x40 MLOAD PUSH1 0x1 PUSH1 0x1 PUSH1 0xA0 SHL SUB SWAP1 SWAP2 AND DUP2 MSTORE PUSH1 0x20 SWAP1 RETURN JUMPDEST CALLVALUE PUSH3 0x255 JUMPI PUSH1 0x20 CALLDATASIZE PUSH1 0x3 NOT ADD SLT PUSH3 0x255 JUMPI PUSH1 0x1 PUSH1 0x1 PUSH1 0xA0 SHL SUB PUSH3 0x95E PUSH3 0x1082 JUMP JUMPDEST AND PUSH1 0x0 MSTORE PUSH1 0x2 PUSH1 0x20 MSTORE PUSH1 0x40 PUSH1 0x0 KECCAK256 PUSH1 0x2 DUP2 ADD SLOAD SWAP1 PUSH8 0xDE0B6B3A7640000 SWAP2 DUP3 DUP2 MUL SWAP3 DUP2 DUP5 DIV EQ SWAP1 ISZERO OR ISZERO PUSH3 0x402 JUMPI PUSH1 0x20 SWAP2 PUSH1 0x3 PUSH3 0x3FA SWAP3 ADD SLOAD SWAP1 PUSH3 0x12A1 JUMP JUMPDEST CALLVALUE PUSH3 0x255 JUMPI PUSH1 0x0 CALLDATASIZE PUSH1 0x3 NOT ADD SLT PUSH3 0x255 JUMPI PUSH1 0x4 SLOAD PUSH1 0x40 MLOAD PUSH1 0x1 PUSH1 0x1 PUSH1 0xA0 SHL SUB SWAP1 SWAP2 AND DUP2 MSTORE PUSH1 0x20 SWAP1 RETURN JUMPDEST CALLVALUE PUSH3 0x255 JUMPI PUSH1 0x0 CALLDATASIZE PUSH1 0x3 NOT ADD SLT PUSH3 0x255 JUMPI PUSH3 0x9E8 PUSH3 0x11B7 JUMP JUMPDEST PUSH1 0x0 DUP1 SLOAD PUSH1 0x1 PUSH1 0x1 PUSH1 0xA0 SHL SUB NOT DUP2 AND DUP3 SSTORE PUSH1 0x1 PUSH1 0x1 PUSH1 0xA0 SHL SUB AND PUSH32 0x8BE0079C531659141344CD1FD0A4F28419497F9722A3DAAFE3B4186F6B6457E0 DUP3 DUP1 LOG3 STOP JUMPDEST CALLVALUE PUSH3 0x255 JUMPI PUSH1 0x20 CALLDATASIZE PUSH1 0x3 NOT ADD SLT PUSH3 0x255 JUMPI PUSH1 0x1 PUSH1 0x1 PUSH1 0xA0 SHL SUB PUSH3 0xA4D PUSH3 0x1082 JUMP JUMPDEST AND PUSH1 0x0 MSTORE PUSH1 0x8 PUSH1 0x20 MSTORE PUSH1 0x20 PUSH1 0x40 PUSH1 0x0 KECCAK256 SLOAD PUSH1 0x40 MLOAD SWAP1 DUP2 MSTORE RETURN JUMPDEST CALLVALUE PUSH3 0x255 JUMPI PUSH1 0x20 CALLDATASIZE PUSH1 0x3 NOT ADD SLT PUSH3 0x255 JUMPI PUSH1 0x4 CALLDATALOAD PUSH1 0x3 SLOAD DUP2 LT ISZERO PUSH3 0x255 JUMPI PUSH3 0xA94 PUSH1 0x20 SWAP2 PUSH3 0x10C7 JUMP JUMPDEST SWAP1 SLOAD PUSH1 0x40 MLOAD PUSH1 0x3 SWAP3 SWAP1 SWAP3 SHL SHR PUSH1 0x1 PUSH1 0x1 PUSH1 0xA0 SHL SUB AND DUP2 MSTORE RETURN JUMPDEST CALLVALUE PUSH3 0x255 JUMPI PUSH1 0x40 CALLDATASIZE PUSH1 0x3 NOT ADD SLT PUSH3 0x255 JUMPI PUSH1 0x1 PUSH1 0x1 PUSH1 0xA0 SHL SUB PUSH3 0xAD2 PUSH3 0x1082 JUMP JUMPDEST AND PUSH1 0x0 MSTORE PUSH1 0x2 PUSH1 0x20 MSTORE PUSH3 0xB0D PUSH1 0x40 PUSH1 0x0 KECCAK256 PUSH3 0x3F3 PUSH1 0x3 DUP3 ADD SLOAD SWAP2 PUSH3 0x3ED PUSH1 0x2 PUSH3 0xB02 PUSH1 0x24 CALLDATALOAD DUP7 PUSH3 0x12C2 JUMP JUMPDEST SWAP3 ADD SLOAD SWAP4 DUP5 PUSH3 0x128D JUMP JUMPDEST PUSH1 0x96 DUP2 MUL DUP2 DUP2 DIV PUSH1 0x96 EQ DUP3 ISZERO OR ISZERO PUSH3 0x402 JUMPI PUSH1 0x20 SWAP2 PUSH2 0x2710 PUSH3 0x3FA SWAP3 DIV SWAP1 PUSH3 0x1219 JUMP JUMPDEST CALLVALUE PUSH3 0x255 JUMPI PUSH1 0x20 CALLDATASIZE PUSH1 0x3 NOT ADD SLT PUSH3 0x255 JUMPI PUSH1 0x4 CALLDATALOAD PUSH3 0xB53 PUSH3 0x11B7 JUMP JUMPDEST PUSH32 0xEF772BBCF0F90DB491AAF9F8B6712E886B3A90BB136181A52B675F4C2F11D937 PUSH1 0x40 PUSH1 0xD SLOAD DUP2 MLOAD SWAP1 DUP2 MSTORE DUP4 PUSH1 0x20 DUP3 ADD MSTORE LOG1 PUSH1 0xD SSTORE STOP JUMPDEST CALLVALUE PUSH3 0x255 JUMPI PUSH1 0x20 DUP1 PUSH1 0x3 NOT CALLDATASIZE ADD SLT PUSH3 0x255 JUMPI PUSH3 0xBA8 PUSH3 0x1082 JUMP JUMPDEST PUSH3 0xBB2 PUSH3 0x1269 JUMP JUMPDEST PUSH1 0x1 PUSH1 0x1 PUSH1 0xA0 SHL SUB AND PUSH1 0x0 DUP2 DUP2 MSTORE PUSH1 0x2 DUP4 MSTORE PUSH1 0x40 SWAP1 KECCAK256 PUSH1 0x6 DUP2 ADD SLOAD PUSH1 0x7 SWAP1 SWAP2 ADD SLOAD PUSH3 0x278D00 DUP2 ADD SWAP2 PUSH1 0xFF AND SWAP1 DUP3 LT PUSH3 0x402 JUMPI ISZERO SWAP1 DUP2 PUSH3 0xCBA JUMPI JUMPDEST POP PUSH3 0xCA8 JUMPI DUP1 PUSH1 0x0 MSTORE PUSH1 0x7 DUP3 MSTORE PUSH1 0x40 PUSH1 0x0 KECCAK256 CALLER PUSH1 0x0 MSTORE DUP3 MSTORE PUSH1 0x40 PUSH1 0x0 KECCAK256 SLOAD SWAP2 DUP3 ISZERO PUSH3 0xC96 JUMPI DUP2 PUSH1 0x0 MSTORE PUSH1 0x7 DUP2 MSTORE PUSH1 0x40 PUSH1 0x0 KECCAK256 CALLER PUSH1 0x0 MSTORE DUP2 MSTORE PUSH1 0x0 PUSH1 0x40 DUP2 KECCAK256 SSTORE DUP2 PUSH1 0x0 MSTORE PUSH1 0x8 DUP2 MSTORE PUSH1 0x40 PUSH1 0x0 KECCAK256 PUSH3 0xC49 DUP5 DUP3 SLOAD PUSH3 0x1219 JUMP JUMPDEST SWAP1 SSTORE PUSH1 0x0 DUP1 DUP1 DUP1 DUP7 CALLER GAS CALL PUSH3 0xC5E PUSH3 0x11E4 JUMP JUMPDEST POP ISZERO PUSH3 0x8AD JUMPI PUSH32 0xF1A5B75D05CAE9D461D822C73E66E2AE88A31F7EDEC9922587B8F22689D6F20B SWAP1 PUSH1 0x40 MLOAD SWAP4 DUP5 MSTORE CALLER SWAP4 LOG3 PUSH1 0x1 DUP1 SSTORE STOP JUMPDEST PUSH1 0x40 MLOAD PUSH4 0x12D37EE5 PUSH1 0xE3 SHL DUP2 MSTORE PUSH1 0x4 SWAP1 REVERT JUMPDEST PUSH1 0x40 MLOAD PUSH4 0x57155AE3 PUSH1 0xE0 SHL DUP2 MSTORE PUSH1 0x4 SWAP1 REVERT JUMPDEST SWAP1 POP TIMESTAMP LT DUP4 PUSH3 0xBEE JUMP JUMPDEST CALLVALUE PUSH3 0x255 JUMPI PUSH1 0x60 CALLDATASIZE PUSH1 0x3 NOT ADD SLT PUSH3 0x255 JUMPI PUSH3 0xCE2 PUSH3 0x11B7 JUMP JUMPDEST PUSH1 0x4 CALLDATALOAD PUSH1 0x9 SSTORE PUSH1 0x24 CALLDATALOAD PUSH1 0xA SSTORE PUSH1 0x44 CALLDATALOAD PUSH1 0xB SSTORE STOP JUMPDEST PUSH1 0x40 CALLDATASIZE PUSH1 0x3 NOT ADD SLT PUSH3 0x255 JUMPI PUSH3 0xD0D PUSH3 0x1082 JUMP JUMPDEST PUSH3 0xD17 PUSH3 0x1099 JUMP JUMPDEST PUSH3 0xD21 PUSH3 0x1269 JUMP JUMPDEST CALLVALUE ISZERO PUSH3 0xD37 JUMPI PUSH3 0x84C SWAP2 CALLVALUE SWAP1 CALLER SWAP1 PUSH3 0x12D0 JUMP JUMPDEST PUSH1 0x40 MLOAD PUSH4 0x1F2A2005 PUSH1 0xE0 SHL DUP2 MSTORE PUSH1 0x4 SWAP1 REVERT JUMPDEST CALLVALUE PUSH3 0x255 JUMPI PUSH1 0x60 CALLDATASIZE PUSH1 0x3 NOT ADD SLT PUSH3 0x255 JUMPI PUSH3 0xD66 PUSH3 0x1082 JUMP JUMPDEST PUSH3 0xD70 PUSH3 0x10B0 JUMP JUMPDEST SWAP1 PUSH3 0xD7B PUSH3 0x1269 JUMP JUMPDEST PUSH1 0x24 CALLDATALOAD ISZERO PUSH3 0xD37 JUMPI PUSH1 0x1 PUSH1 0x1 PUSH1 0xA0 SHL SUB DUP2 DUP2 AND PUSH1 0x0 SWAP1 DUP2 MSTORE PUSH1 0x2 PUSH1 0x20 MSTORE PUSH1 0x40 SWAP1 KECCAK256 PUSH1 0x1 DUP2 ADD SLOAD SWAP1 SWAP4 SWAP2 AND ISZERO PUSH3 0xF92 JUMPI PUSH1 0xFF PUSH1 0x6 DUP5 ADD SLOAD AND PUSH3 0xF80 JUMPI PUSH1 0x3 DUP4 ADD SWAP3 DUP4 SLOAD SWAP1 PUSH3 0xDCF PUSH1 0x24 CALLDATALOAD DUP4 PUSH3 0x12C2 JUMP JUMPDEST SWAP5 PUSH1 0x2 DUP3 ADD SWAP6 PUSH3 0xDF4 PUSH3 0xDEC DUP3 PUSH3 0x3ED DUP11 SLOAD SWAP8 DUP9 PUSH3 0x128D JUMP JUMPDEST DUP1 SWAP6 PUSH3 0x1219 JUMP JUMPDEST SWAP2 DUP3 ISZERO DUP1 DUP1 ISZERO PUSH3 0xF72 JUMPI JUMPDEST PUSH3 0xF60 JUMPI DUP4 PUSH1 0x96 DUP2 MUL DIV PUSH1 0x96 EQ OR ISZERO PUSH3 0x402 JUMPI PUSH2 0x2710 PUSH1 0x96 DUP5 MUL DIV SWAP5 PUSH3 0xE2A DUP7 DUP6 PUSH3 0x1219 JUMP JUMPDEST PUSH1 0x40 MLOAD PUSH4 0x23B872DD PUSH1 0xE0 SHL DUP2 MSTORE CALLER PUSH1 0x4 DUP3 ADD MSTORE ADDRESS PUSH1 0x24 DUP1 DUP4 ADD SWAP2 SWAP1 SWAP2 MSTORE CALLDATALOAD PUSH1 0x44 DUP3 ADD MSTORE SWAP1 SWAP10 SWAP1 PUSH1 0x20 DUP2 PUSH1 0x64 DUP2 PUSH1 0x0 PUSH1 0x1 PUSH1 0x1 PUSH1 0xA0 SHL SUB DUP16 AND GAS CALL SWAP1 DUP2 ISZERO PUSH3 0x4FC JUMPI PUSH1 0x0 SWAP2 PUSH3 0xF2B JUMPI JUMPDEST POP ISZERO PUSH3 0x8AD JUMPI PUSH3 0xE8D PUSH1 0x5 SWAP8 DUP10 CALLER SWAP2 DUP13 PUSH3 0x17D3 JUMP JUMPDEST SSTORE SSTORE PUSH3 0xEA0 PUSH1 0x4 DUP4 ADD SWAP2 DUP3 SLOAD PUSH3 0x1219 JUMP JUMPDEST SWAP1 SSTORE ADD DUP1 SLOAD SWAP1 PUSH1 0x24 CALLDATALOAD DUP3 ADD SWAP2 PUSH1 0x0 PUSH1 0x24 CALLDATALOAD DUP5 SLT SWAP2 SLT SWAP1 DUP1 ISZERO DUP3 AND SWAP2 ISZERO AND OR PUSH3 0x402 JUMPI SSTORE PUSH1 0x0 DUP1 DUP1 DUP1 DUP7 CALLER GAS CALL PUSH3 0xED7 PUSH3 0x11E4 JUMP JUMPDEST POP ISZERO PUSH3 0x8AD JUMPI PUSH1 0x40 DUP1 MLOAD PUSH1 0x24 CALLDATALOAD DUP2 MSTORE PUSH1 0x20 DUP2 ADD SWAP5 SWAP1 SWAP5 MSTORE PUSH1 0x1 PUSH1 0x1 PUSH1 0xA0 SHL SUB SWAP2 DUP3 AND SWAP4 CALLER SWAP4 SWAP1 SWAP3 AND SWAP2 PUSH32 0x4735A31B3EC23A057C88EE658E79BF4115C33E7D3B5DA900CF23C97844F1EC47 SWAP2 SWAP1 LOG4 PUSH1 0x1 DUP1 SSTORE STOP JUMPDEST PUSH3 0xF51 SWAP2 POP PUSH1 0x20 RETURNDATASIZE DUP2 GT PUSH3 0xF58 JUMPI JUMPDEST PUSH3 0xF48 DUP2 DUP4 PUSH3 0x112A JUMP JUMPDEST DUP2 ADD SWAP1 PUSH3 0x17B9 JUMP JUMPDEST DUP12 PUSH3 0xE75 JUMP JUMPDEST POP RETURNDATASIZE PUSH3 0xF3C JUMP JUMPDEST PUSH1 0x40 MLOAD PUSH4 0x28B35F21 PUSH1 0xE0 SHL DUP2 MSTORE PUSH1 0x4 SWAP1 REVERT JUMPDEST POP PUSH1 0x4 DUP6 ADD SLOAD DUP5 GT PUSH3 0xE00 JUMP JUMPDEST PUSH1 0x40 MLOAD PUSH4 0xDCFBAAFD PUSH1 0xE0 SHL DUP2 MSTORE PUSH1 0x4 SWAP1 REVERT JUMPDEST PUSH1 0x40 MLOAD PUSH4 0xC1AB6DC1 PUSH1 0xE0 SHL DUP2 MSTORE PUSH1 0x4 SWAP1 REVERT JUMPDEST CALLVALUE PUSH3 0x255 JUMPI PUSH1 0x0 CALLDATASIZE PUSH1 0x3 NOT ADD SLT PUSH3 0x255 JUMPI PUSH1 0x20 PUSH1 0x40 MLOAD PUSH2 0xDEAD DUP2 MSTORE RETURN JUMPDEST CALLVALUE PUSH3 0x255 JUMPI PUSH1 0x0 CALLDATASIZE PUSH1 0x3 NOT ADD SLT PUSH3 0x255 JUMPI PUSH1 0x20 PUSH1 0x40 MLOAD PUSH3 0x278D00 DUP2 MSTORE RETURN JUMPDEST CALLVALUE PUSH3 0x255 JUMPI PUSH1 0x40 CALLDATASIZE PUSH1 0x3 NOT ADD SLT PUSH3 0x255 JUMPI PUSH3 0x1000 PUSH3 0x1082 JUMP JUMPDEST PUSH3 0x100A PUSH3 0x1099 JUMP JUMPDEST SWAP1 PUSH1 0x1 DUP1 PUSH1 0xA0 SHL SUB DUP1 SWAP2 AND PUSH1 0x0 MSTORE PUSH1 0x7 PUSH1 0x20 MSTORE PUSH1 0x40 PUSH1 0x0 KECCAK256 SWAP2 AND PUSH1 0x0 MSTORE PUSH1 0x20 MSTORE PUSH1 0x20 PUSH1 0x40 PUSH1 0x0 KECCAK256 SLOAD PUSH1 0x40 MLOAD SWAP1 DUP2 MSTORE RETURN JUMPDEST CALLVALUE PUSH3 0x255 JUMPI PUSH1 0x0 CALLDATASIZE PUSH1 0x3 NOT ADD SLT PUSH3 0x255 JUMPI PUSH1 0x6 SLOAD PUSH1 0x40 MLOAD PUSH1 0x1 PUSH1 0x1 PUSH1 0xA0 SHL SUB SWAP1 SWAP2 AND DUP2 MSTORE PUSH1 0x20 SWAP1 RETURN JUMPDEST CALLVALUE PUSH3 0x255 JUMPI PUSH1 0x0 CALLDATASIZE PUSH1 0x3 NOT ADD SLT PUSH3 0x255 JUMPI PUSH1 0x20 SWAP1 PUSH1 0xB SLOAD DUP2 MSTORE RETURN JUMPDEST PUSH1 0x4 CALLDATALOAD SWAP1 PUSH1 0x1 PUSH1 0x1 PUSH1 0xA0 SHL SUB DUP3 AND DUP3 SUB PUSH3 0x255 JUMPI JUMP JUMPDEST PUSH1 0x24 CALLDATALOAD SWAP1 PUSH1 0x1 PUSH1 0x1 PUSH1 0xA0 SHL SUB DUP3 AND DUP3 SUB PUSH3 0x255 JUMPI JUMP JUMPDEST PUSH1 0x44 CALLDATALOAD SWAP1 PUSH1 0x1 PUSH1 0x1 PUSH1 0xA0 SHL SUB DUP3 AND DUP3 SUB PUSH3 0x255 JUMPI JUMP JUMPDEST PUSH1 0x3 SLOAD DUP2 LT ISZERO PUSH3 0x10FF JUMPI PUSH1 0x3 PUSH1 0x0 MSTORE PUSH32 0xC2575A0E9E593C00F959F8C92F12DB2869C3395A3B0502D05E2516446F71F85B ADD SWAP1 PUSH1 0x0 SWAP1 JUMP JUMPDEST PUSH4 0x4E487B71 PUSH1 0xE0 SHL PUSH1 0x0 MSTORE PUSH1 0x32 PUSH1 0x4 MSTORE PUSH1 0x24 PUSH1 0x0 REVERT JUMPDEST PUSH8 0xFFFFFFFFFFFFFFFF DUP2 GT PUSH3 0x868 JUMPI PUSH1 0x40 MSTORE JUMP JUMPDEST SWAP1 PUSH1 0x1F DUP1 NOT SWAP2 ADD AND DUP2 ADD SWAP1 DUP2 LT PUSH8 0xFFFFFFFFFFFFFFFF DUP3 GT OR PUSH3 0x868 JUMPI PUSH1 0x40 MSTORE JUMP JUMPDEST PUSH8 0xFFFFFFFFFFFFFFFF DUP2 GT PUSH3 0x868 JUMPI PUSH1 0x1F ADD PUSH1 0x1F NOT AND PUSH1 0x20 ADD SWAP1 JUMP JUMPDEST DUP2 PUSH1 0x1F DUP3 ADD SLT ISZERO PUSH3 0x255 JUMPI DUP1 CALLDATALOAD SWAP1 PUSH3 0x1184 DUP3 PUSH3 0x114D JUMP JUMPDEST SWAP3 PUSH3 0x1194 PUSH1 0x40 MLOAD SWAP5 DUP6 PUSH3 0x112A JUMP JUMPDEST DUP3 DUP5 MSTORE PUSH1 0x20 DUP4 DUP4 ADD ADD GT PUSH3 0x255 JUMPI DUP2 PUSH1 0x0 SWAP3 PUSH1 0x20 DUP1 SWAP4 ADD DUP4 DUP7 ADD CALLDATACOPY DUP4 ADD ADD MSTORE SWAP1 JUMP JUMPDEST PUSH1 0x0 SLOAD PUSH1 0x1 PUSH1 0x1 PUSH1 0xA0 SHL SUB AND CALLER SUB PUSH3 0x11CC JUMPI JUMP JUMPDEST PUSH1 0x40 MLOAD PUSH4 0x118CDAA7 PUSH1 0xE0 SHL DUP2 MSTORE CALLER PUSH1 0x4 DUP3 ADD MSTORE PUSH1 0x24 SWAP1 REVERT JUMPDEST RETURNDATASIZE ISZERO PUSH3 0x1214 JUMPI RETURNDATASIZE SWAP1 PUSH3 0x11F8 DUP3 PUSH3 0x114D JUMP JUMPDEST SWAP2 PUSH3 0x1208 PUSH1 0x40 MLOAD SWAP4 DUP5 PUSH3 0x112A JUMP JUMPDEST DUP3 MSTORE RETURNDATASIZE PUSH1 0x0 PUSH1 0x20 DUP5 ADD RETURNDATACOPY JUMP JUMPDEST PUSH1 0x60 SWAP1 JUMP JUMPDEST SWAP2 SWAP1 DUP3 SUB SWAP2 DUP3 GT PUSH3 0x402 JUMPI JUMP JUMPDEST SWAP2 SWAP1 DUP3 MLOAD SWAP3 DUP4 DUP3 MSTORE PUSH1 0x0 JUMPDEST DUP5 DUP2 LT PUSH3 0x1254 JUMPI POP POP DUP3 PUSH1 0x0 PUSH1 0x20 DUP1 SWAP5 SWAP6 DUP5 ADD ADD MSTORE PUSH1 0x1F DUP1 NOT SWAP2 ADD AND ADD ADD SWAP1 JUMP JUMPDEST PUSH1 0x20 DUP2 DUP4 ADD DUP2 ADD MLOAD DUP5 DUP4 ADD DUP3 ADD MSTORE ADD PUSH3 0x1232 JUMP JUMPDEST PUSH1 0x2 PUSH1 0x1 SLOAD EQ PUSH3 0x127B JUMPI PUSH1 0x2 PUSH1 0x1 SSTORE JUMP JUMPDEST PUSH1 0x40 MLOAD PUSH4 0x3EE5AEB5 PUSH1 0xE0 SHL DUP2 MSTORE PUSH1 0x4 SWAP1 REVERT JUMPDEST DUP2 DUP2 MUL SWAP3 SWAP2 DUP2 ISZERO SWAP2 DUP5 DIV EQ OR ISZERO PUSH3 0x402 JUMPI JUMP JUMPDEST DUP2 ISZERO PUSH3 0x12AC JUMPI DIV SWAP1 JUMP JUMPDEST PUSH4 0x4E487B71 PUSH1 0xE0 SHL PUSH1 0x0 MSTORE PUSH1 0x12 PUSH1 0x4 MSTORE PUSH1 0x24 PUSH1 0x0 REVERT JUMPDEST SWAP2 SWAP1 DUP3 ADD DUP1 SWAP3 GT PUSH3 0x402 JUMPI JUMP JUMPDEST SWAP1 SWAP3 PUSH1 0x0 PUSH1 0x1 DUP1 PUSH1 0xA0 SHL SUB SWAP4 DUP5 DUP5 AND DUP3 MSTORE PUSH1 0x20 SWAP6 PUSH1 0x2 DUP8 MSTORE PUSH1 0x40 SWAP4 DUP5 DUP5 KECCAK256 SWAP1 DUP8 PUSH1 0x1 DUP4 ADD SLOAD AND ISZERO PUSH3 0x17A8 JUMPI PUSH1 0xFF PUSH1 0x6 DUP4 ADD SLOAD AND PUSH3 0x1797 JUMPI PUSH1 0x96 DUP5 MUL DUP5 DUP2 DIV PUSH1 0x96 EQ DUP6 ISZERO OR ISZERO PUSH3 0x1783 JUMPI PUSH2 0x2710 SWAP1 DIV SWAP4 PUSH3 0x133C DUP5 DUP4 PUSH3 0x1334 DUP9 DUP6 PUSH3 0x1219 JUMP JUMPDEST SWAP8 DUP12 PUSH3 0x17D3 JUMP JUMPDEST PUSH1 0x5 PUSH1 0x2 DUP5 ADD SWAP4 PUSH3 0x1367 DUP6 SLOAD DUP9 PUSH3 0x1378 PUSH3 0x1370 PUSH1 0x3 DUP7 ADD SWAP4 PUSH3 0x3ED DUP6 SLOAD SWAP7 DUP8 SWAP6 DUP4 PUSH3 0x12C2 JUMP JUMPDEST SWAP5 DUP6 SWAP3 PUSH3 0x128D JUMP JUMPDEST DUP1 SWAP5 PUSH3 0x1219 JUMP JUMPDEST SWAP8 SSTORE SSTORE PUSH3 0x138C PUSH1 0x4 DUP3 ADD SWAP8 DUP9 SLOAD PUSH3 0x12C2 JUMP JUMPDEST DUP8 SSTORE ADD DUP1 SLOAD DUP5 DUP2 SUB SWAP2 SWAP1 DUP9 DUP7 SLT DUP1 ISZERO DUP3 DUP6 SGT AND SWAP2 DUP5 SLT AND OR PUSH3 0x176F JUMPI SSTORE DUP9 DUP9 AND EXTCODESIZE ISZERO PUSH3 0x176B JUMPI DUP7 MLOAD PUSH4 0x64A7102B PUSH1 0xE0 SHL DUP2 MSTORE PUSH1 0x1 PUSH1 0x1 PUSH1 0xA0 SHL SUB DUP6 AND PUSH1 0x4 DUP3 ADD MSTORE PUSH1 0x24 DUP2 ADD DUP5 SWAP1 MSTORE DUP7 DUP2 PUSH1 0x44 DUP2 DUP4 DUP15 DUP15 AND GAS CALL DUP1 ISZERO PUSH3 0x1761 JUMPI SWAP1 DUP11 SWAP4 SWAP3 SWAP2 PUSH3 0x1749 JUMPI JUMPDEST POP SWAP1 DUP3 SWAP2 DUP9 MLOAD SWAP5 DUP6 MSTORE DUP12 DUP6 ADD MSTORE AND SWAP3 AND SWAP1 PUSH32 0xE4C62F62C45A0251C0C1BCC84DE28BF8C9575B0841FC32FC2C94D889BAF6AF31 DUP7 DUP10 DUP10 AND SWAP3 LOG4 SLOAD PUSH1 0xC SLOAD GT ISZERO PUSH3 0x143E JUMPI JUMPDEST POP POP POP POP POP JUMP JUMPDEST DUP4 DUP4 AND DUP2 MSTORE PUSH1 0x2 DUP6 MSTORE DUP2 DUP2 KECCAK256 SWAP5 PUSH1 0x6 DUP7 ADD PUSH1 0x1 PUSH1 0xFF NOT DUP3 SLOAD AND OR SWAP1 SSTORE PUSH1 0x8 DUP2 MSTORE DUP3 DUP3 KECCAK256 SLOAD SELFBALANCE SWAP1 DUP1 DUP3 GT PUSH1 0x0 EQ PUSH3 0x173F JUMPI PUSH3 0x147A SWAP2 PUSH3 0x1219 JUMP JUMPDEST SWAP1 JUMPDEST DUP3 PUSH1 0x5 PUSH3 0x149F PUSH3 0x1493 PUSH1 0x3 DUP12 ADD SLOAD DUP7 PUSH3 0x128D JUMP JUMPDEST PUSH1 0x2 DUP12 ADD SLOAD SWAP1 PUSH3 0x12A1 JUMP JUMPDEST SWAP9 DUP3 PUSH1 0x4 DUP3 ADD SSTORE ADD SSTORE DUP7 PUSH3 0x16E1 JUMPI JUMPDEST PUSH1 0x4 DUP1 SLOAD DUP6 MLOAD PUSH4 0x95EA7B3 PUSH1 0xE0 SHL DUP2 MSTORE SWAP1 DUP9 AND PUSH1 0x1 PUSH1 0x1 PUSH1 0xA0 SHL SUB AND SWAP2 DUP2 ADD SWAP2 SWAP1 SWAP2 MSTORE PUSH1 0x24 DUP2 ADD DUP9 SWAP1 MSTORE DUP2 DUP2 PUSH1 0x44 DUP2 DUP8 DUP11 DUP13 AND GAS CALL DUP1 ISZERO PUSH3 0x166C JUMPI PUSH3 0x16BF JUMPI JUMPDEST POP DUP6 PUSH1 0x4 SLOAD AND PUSH2 0x12C TIMESTAMP ADD DUP1 TIMESTAMP GT PUSH3 0x16AB JUMPI DUP8 PUSH1 0xC4 DUP9 DUP7 DUP13 SWAP6 PUSH1 0x60 SWAP6 DUP12 MLOAD SWAP8 DUP9 SWAP7 DUP8 SWAP6 PUSH4 0xF305D719 PUSH1 0xE0 SHL DUP8 MSTORE AND PUSH1 0x4 DUP7 ADD MSTORE PUSH1 0x24 DUP6 ADD MSTORE DUP11 PUSH1 0x44 DUP6 ADD MSTORE DUP11 PUSH1 0x64 DUP6 ADD MSTORE PUSH2 0xDEAD PUSH1 0x84 DUP6 ADD MSTORE PUSH1 0xA4 DUP5 ADD MSTORE GAS CALL DUP1 ISZERO PUSH3 0x166C JUMPI PUSH3 0x1676 JUMPI JUMPDEST POP PUSH1 0x4 DUP2 DUP8 DUP3 SLOAD AND DUP7 MLOAD SWAP3 DUP4 DUP1 SWAP3 PUSH4 0xC45A0155 PUSH1 0xE0 SHL DUP3 MSTORE GAS STATICCALL SWAP1 DUP2 ISZERO PUSH3 0x166C JUMPI PUSH3 0x15BE DUP9 SWAP3 DUP5 SWAP3 DUP8 SWAP2 PUSH3 0x164A JUMPI JUMPDEST POP PUSH1 0x5 SLOAD DUP9 MLOAD PUSH4 0xE6A43905 PUSH1 0xE0 SHL DUP2 MSTORE PUSH1 0x1 PUSH1 0x1 PUSH1 0xA0 SHL SUB DUP12 DUP2 AND PUSH1 0x4 DUP4 ADD MSTORE SWAP2 DUP7 AND SWAP1 SWAP2 AND PUSH1 0x24 DUP3 ADD MSTORE SWAP4 DUP5 SWAP3 DUP4 SWAP2 SWAP1 DUP3 SWAP1 PUSH1 0x44 DUP3 ADD SWAP1 JUMP JUMPDEST SUB SWAP3 AND GAS STATICCALL SWAP4 DUP5 ISZERO PUSH3 0x163F JUMPI SWAP3 DUP8 SWAP6 SWAP4 SWAP3 PUSH1 0x60 SWAP8 SWAP6 SWAP3 PUSH32 0xA44C03AAF0B9A5FCBA3A779474F4366EA6283072D24C8082199F204872B15973 SWAP10 SWAP5 SWAP4 PUSH3 0x161B JUMPI JUMPDEST POP DUP5 MLOAD SWAP10 DUP11 MSTORE DUP10 ADD MSTORE AND SWAP1 DUP7 ADD MSTORE AND SWAP3 LOG2 CODESIZE DUP1 DUP1 DUP1 DUP1 PUSH3 0x1437 JUMP JUMPDEST DUP2 PUSH3 0x1637 SWAP3 SWAP5 POP RETURNDATASIZE DUP6 GT PUSH3 0x4F4 JUMPI PUSH3 0x4E4 DUP2 DUP4 PUSH3 0x112A JUMP JUMPDEST SWAP2 CODESIZE PUSH3 0x15FF JUMP JUMPDEST DUP6 MLOAD SWAP1 RETURNDATASIZE SWAP1 DUP3 RETURNDATACOPY RETURNDATASIZE SWAP1 REVERT JUMPDEST PUSH3 0x1665 SWAP2 POP DUP4 RETURNDATASIZE DUP6 GT PUSH3 0x4F4 JUMPI PUSH3 0x4E4 DUP2 DUP4 PUSH3 0x112A JUMP JUMPDEST CODESIZE PUSH3 0x1584 JUMP JUMPDEST DUP6 MLOAD RETURNDATASIZE DUP7 DUP3 RETURNDATACOPY RETURNDATASIZE SWAP1 REVERT JUMPDEST PUSH1 0x60 SWAP1 DUP2 RETURNDATASIZE DUP2 GT PUSH3 0x16A3 JUMPI JUMPDEST PUSH3 0x168F DUP2 DUP4 PUSH3 0x112A JUMP JUMPDEST DUP2 ADD SUB SLT PUSH3 0x169F JUMPI CODESIZE PUSH3 0x1552 JUMP JUMPDEST DUP3 DUP1 REVERT JUMPDEST POP RETURNDATASIZE PUSH3 0x1683 JUMP JUMPDEST PUSH4 0x4E487B71 PUSH1 0xE0 SHL DUP6 MSTORE PUSH1 0x11 PUSH1 0x4 MSTORE PUSH1 0x24 DUP6 REVERT JUMPDEST PUSH3 0x16D9 SWAP1 DUP3 RETURNDATASIZE DUP5 GT PUSH3 0xF58 JUMPI PUSH3 0xF48 DUP2 DUP4 PUSH3 0x112A JUMP JUMPDEST POP CODESIZE PUSH3 0x14F1 JUMP JUMPDEST DUP6 DUP6 AND EXTCODESIZE ISZERO PUSH3 0x169F JUMPI DUP4 MLOAD PUSH4 0x64A7102B PUSH1 0xE0 SHL DUP2 MSTORE ADDRESS PUSH1 0x4 DUP3 ADD MSTORE PUSH1 0x24 DUP2 ADD DUP9 SWAP1 MSTORE DUP4 DUP2 PUSH1 0x44 DUP2 DUP4 DUP11 DUP13 AND GAS CALL DUP1 ISZERO PUSH3 0x166C JUMPI SWAP1 DUP5 SWAP2 PUSH3 0x1727 JUMPI JUMPDEST POP POP PUSH3 0x14AF JUMP JUMPDEST PUSH3 0x1732 SWAP1 PUSH3 0x1115 JUMP JUMPDEST PUSH3 0x169F JUMPI DUP3 CODESIZE PUSH3 0x171F JUMP JUMPDEST POP POP DUP2 SWAP1 PUSH3 0x147C JUMP JUMPDEST SWAP7 PUSH3 0x1758 DUP5 SWAP4 SWAP3 SWAP9 PUSH3 0x1115 JUMP JUMPDEST SWAP7 SWAP1 SWAP2 PUSH3 0x13F3 JUMP JUMPDEST DUP9 MLOAD RETURNDATASIZE DUP10 DUP3 RETURNDATACOPY RETURNDATASIZE SWAP1 REVERT JUMPDEST DUP6 DUP1 REVERT JUMPDEST PUSH4 0x4E487B71 PUSH1 0xE0 SHL DUP9 MSTORE PUSH1 0x11 PUSH1 0x4 MSTORE PUSH1 0x24 DUP9 REVERT JUMPDEST PUSH4 0x4E487B71 PUSH1 0xE0 SHL DUP7 MSTORE PUSH1 0x11 PUSH1 0x4 MSTORE PUSH1 0x24 DUP7 REVERT JUMPDEST DUP6 MLOAD PUSH4 0xDCFBAAFD PUSH1 0xE0 SHL DUP2 MSTORE PUSH1 0x4 SWAP1 REVERT JUMPDEST DUP6 MLOAD PUSH4 0xC1AB6DC1 PUSH1 0xE0 SHL DUP2 MSTORE PUSH1 0x4 SWAP1 REVERT JUMPDEST SWAP1 DUP2 PUSH1 0x20 SWAP2 SUB SLT PUSH3 0x255 JUMPI MLOAD DUP1 ISZERO ISZERO DUP2 SUB PUSH3 0x255 JUMPI SWAP1 JUMP JUMPDEST PUSH1 0x1 PUSH1 0x1 PUSH1 0xA0 SHL SUB SWAP3 DUP4 AND SWAP4 SWAP2 SWAP3 SWAP1 SWAP2 DUP5 ISZERO ISZERO SWAP1 DUP3 SWAP1 DUP3 PUSH3 0x18CB JUMPI JUMPDEST POP POP ISZERO PUSH3 0x18A7 JUMPI PUSH1 0x4B DUP4 MUL SWAP3 DUP1 DUP5 DIV PUSH1 0x4B EQ DUP2 ISZERO OR ISZERO PUSH3 0x402 JUMPI PUSH1 0x96 PUSH3 0x1825 SWAP5 DIV DUP1 SWAP2 PUSH1 0x0 DUP1 DUP1 SWAP8 DUP2 SWAP5 DUP3 SWAP5 PUSH3 0x1219 JUMP JUMPDEST DUP7 PUSH1 0x6 SLOAD AND GAS CALL PUSH3 0x1836 PUSH3 0x11E4 JUMP JUMPDEST POP ISZERO PUSH3 0x8AD JUMPI PUSH1 0x40 PUSH1 0x20 SWAP3 PUSH32 0x1BC9965D3D009F5176A59391926FB2DED0A94C0505578D85D14732F1B6C56AF4 SWAP5 AND SWAP5 DUP6 DUP2 MSTORE PUSH1 0x7 DUP5 MSTORE DUP2 DUP2 KECCAK256 DUP8 DUP3 MSTORE DUP5 MSTORE DUP2 DUP2 KECCAK256 PUSH3 0x1885 DUP5 DUP3 SLOAD PUSH3 0x12C2 JUMP JUMPDEST SWAP1 SSTORE DUP6 DUP2 MSTORE PUSH1 0x8 DUP5 MSTORE KECCAK256 PUSH3 0x189C DUP3 DUP3 SLOAD PUSH3 0x12C2 JUMP JUMPDEST SWAP1 SSTORE PUSH1 0x40 MLOAD SWAP1 DUP2 MSTORE LOG3 JUMP JUMPDEST PUSH1 0x0 SWAP4 POP DUP4 SWAP3 DUP4 SWAP3 POP DUP3 SWAP2 PUSH1 0x6 SLOAD AND GAS CALL PUSH3 0x18C2 PUSH3 0x11E4 JUMP JUMPDEST POP ISZERO PUSH3 0x8AD JUMPI JUMP JUMPDEST AND DUP6 EQ ISZERO SWAP1 POP DUP2 CODESIZE PUSH3 0x17F0 JUMP JUMPDEST SWAP1 DUP2 PUSH1 0x20 SWAP2 SUB SLT PUSH3 0x255 JUMPI MLOAD PUSH1 0x1 PUSH1 0x1 PUSH1 0xA0 SHL SUB DUP2 AND DUP2 SUB PUSH3 0x255 JUMPI SWAP1 JUMP JUMPDEST PUSH1 0x1 PUSH1 0x1 PUSH1 0xA0 SHL SUB AND PUSH1 0x0 SWAP1 DUP2 MSTORE PUSH1 0x2 PUSH1 0x20 MSTORE PUSH1 0x40 SWAP1 KECCAK256 PUSH1 0x6 DUP2 ADD SLOAD PUSH1 0xFF AND PUSH3 0x1957 JUMPI PUSH1 0x4 ADD SLOAD SWAP1 PUSH2 0x2710 SWAP2 DUP3 DUP2 MUL SWAP1 DUP1 DUP3 DIV DUP5 EQ SWAP1 ISZERO OR ISZERO PUSH3 0x402 JUMPI PUSH1 0xC SLOAD PUSH3 0x1947 SWAP2 PUSH3 0x12A1 JUMP JUMPDEST SWAP2 DUP1 DUP4 GT PUSH3 0x1953 JUMPI POP JUMP JUMPDEST SWAP2 POP JUMP JUMPDEST POP PUSH2 0x2710 SWAP1 JUMP INVALID PUSH1 0xA0 PUSH1 0x40 MSTORE CALLVALUE PUSH3 0x3A3 JUMPI PUSH3 0xBF1 DUP1 CODESIZE SUB DUP1 PUSH3 0x1D DUP2 PUSH3 0x3A8 JUMP JUMPDEST SWAP3 DUP4 CODECOPY DUP2 ADD PUSH1 0x60 DUP3 DUP3 SUB SLT PUSH3 0x3A3 JUMPI DUP2 MLOAD PUSH1 0x1 PUSH1 0x1 PUSH1 0x40 SHL SUB SWAP3 SWAP1 DUP4 DUP2 GT PUSH3 0x3A3 JUMPI DUP3 PUSH3 0x4F SWAP2 DUP4 ADD PUSH3 0x3CE JUMP JUMPDEST SWAP2 PUSH1 0x20 SWAP1 DUP2 DUP4 ADD MLOAD DUP6 DUP2 GT PUSH3 0x3A3 JUMPI PUSH1 0x40 SWAP2 PUSH3 0x6F SWAP2 DUP6 ADD PUSH3 0x3CE JUMP JUMPDEST SWAP3 ADD MLOAD PUSH1 0x1 PUSH1 0x1 PUSH1 0xA0 SHL SUB DUP2 AND SWAP4 SWAP1 DUP5 SWAP1 SUB PUSH3 0x3A3 JUMPI DUP1 MLOAD DUP6 DUP2 GT PUSH3 0x38D JUMPI PUSH1 0x0 SWAP4 DUP5 SLOAD SWAP2 PUSH1 0x1 SWAP4 DUP5 DUP5 DUP2 SHR SWAP5 AND DUP1 ISZERO PUSH3 0x382 JUMPI JUMPDEST DUP7 DUP6 LT EQ PUSH3 0x36E JUMPI DUP2 SWAP1 PUSH1 0x1F SWAP5 DUP6 DUP2 GT PUSH3 0x31B JUMPI JUMPDEST POP DUP7 SWAP1 DUP6 DUP4 GT PUSH1 0x1 EQ PUSH3 0x2B7 JUMPI DUP9 SWAP3 PUSH3 0x2AB JUMPI JUMPDEST POP POP PUSH1 0x0 NOT PUSH1 0x3 DUP4 SWAP1 SHL SHR NOT AND SWAP1 DUP5 SHL OR DUP6 SSTORE JUMPDEST DUP1 MLOAD SWAP7 DUP8 GT PUSH3 0x297 JUMPI DUP3 SLOAD DUP4 DUP2 DUP2 SHR SWAP2 AND DUP1 ISZERO PUSH3 0x28C JUMPI JUMPDEST DUP6 DUP3 LT EQ PUSH3 0x278 JUMPI DUP3 DUP2 GT PUSH3 0x230 JUMPI JUMPDEST POP DUP4 SWAP2 DUP8 GT PUSH1 0x1 EQ PUSH3 0x1BA JUMPI SWAP6 DUP1 SWAP2 DUP6 SWAP7 SWAP8 PUSH1 0x0 DUP1 MLOAD PUSH1 0x20 PUSH3 0xBD1 DUP4 CODECOPY DUP2 MLOAD SWAP2 MSTORE SWAP7 SWAP3 PUSH3 0x1AE JUMPI JUMPDEST POP POP PUSH1 0x0 NOT PUSH1 0x3 DUP4 SWAP1 SHL SHR NOT AND SWAP1 DUP3 SHL OR SWAP1 SSTORE JUMPDEST CALLER PUSH1 0x80 MSTORE DUP4 DUP4 MSTORE PUSH1 0x3 DUP2 MSTORE PUSH1 0x40 DUP4 KECCAK256 PUSH3 0x16E DUP2 SLOAD PUSH3 0x440 JUMP JUMPDEST SWAP1 SSTORE PUSH3 0x17D PUSH1 0x2 SLOAD PUSH3 0x440 JUMP JUMPDEST PUSH1 0x2 SSTORE PUSH1 0x40 MLOAD PUSH8 0xDE0B6B3A7640000 DUP2 MSTORE LOG3 PUSH1 0x40 MLOAD PUSH2 0x764 SWAP1 DUP2 PUSH3 0x46D DUP3 CODECOPY PUSH1 0x80 MLOAD DUP2 DUP2 DUP2 PUSH1 0xFC ADD MSTORE PUSH2 0x361 ADD MSTORE RETURN JUMPDEST ADD MLOAD SWAP1 POP CODESIZE DUP1 PUSH3 0x13F JUMP JUMPDEST DUP3 DUP6 MSTORE DUP4 DUP6 KECCAK256 SWAP2 SWAP1 PUSH1 0x1F NOT DUP9 AND DUP7 JUMPDEST DUP2 DUP2 LT PUSH3 0x21A JUMPI POP SWAP2 DUP5 SWAP4 SWAP2 DUP10 PUSH1 0x0 DUP1 MLOAD PUSH1 0x20 PUSH3 0xBD1 DUP4 CODECOPY DUP2 MLOAD SWAP2 MSTORE SWAP9 SWAP10 SWAP11 SWAP5 LT PUSH3 0x200 JUMPI JUMPDEST POP POP POP DUP2 SHL ADD SWAP1 SSTORE PUSH3 0x153 JUMP JUMPDEST ADD MLOAD PUSH1 0x0 NOT PUSH1 0xF8 DUP5 PUSH1 0x3 SHL AND SHR NOT AND SWAP1 SSTORE CODESIZE DUP1 DUP1 PUSH3 0x1F2 JUMP JUMPDEST DUP3 DUP5 ADD MLOAD DUP6 SSTORE SWAP4 DUP6 ADD SWAP4 SWAP3 DUP7 ADD SWAP3 DUP7 ADD PUSH3 0x1C9 JUMP JUMPDEST DUP4 DUP7 MSTORE DUP5 DUP7 KECCAK256 DUP4 DUP1 DUP11 ADD PUSH1 0x5 SHR DUP3 ADD SWAP3 DUP8 DUP12 LT PUSH3 0x26E JUMPI JUMPDEST ADD PUSH1 0x5 SHR ADD SWAP1 DUP5 SWAP1 JUMPDEST DUP3 DUP2 LT PUSH3 0x262 JUMPI POP POP PUSH3 0x114 JUMP JUMPDEST DUP8 DUP2 SSTORE ADD DUP5 SWAP1 PUSH3 0x252 JUMP JUMPDEST SWAP3 POP DUP2 SWAP3 PUSH3 0x249 JUMP JUMPDEST PUSH4 0x4E487B71 PUSH1 0xE0 SHL DUP7 MSTORE PUSH1 0x22 PUSH1 0x4 MSTORE PUSH1 0x24 DUP7 REVERT JUMPDEST SWAP1 PUSH1 0x7F AND SWAP1 PUSH3 0x102 JUMP JUMPDEST PUSH4 0x4E487B71 PUSH1 0xE0 SHL DUP6 MSTORE PUSH1 0x41 PUSH1 0x4 MSTORE PUSH1 0x24 DUP6 REVERT JUMPDEST ADD MLOAD SWAP1 POP CODESIZE DUP1 PUSH3 0xD4 JUMP JUMPDEST DUP9 DUP1 MSTORE DUP8 DUP10 KECCAK256 DUP8 SWAP5 POP SWAP2 SWAP1 PUSH1 0x1F NOT DUP5 AND DUP11 JUMPDEST DUP11 DUP3 DUP3 LT PUSH3 0x304 JUMPI POP POP DUP5 GT PUSH3 0x2EA JUMPI JUMPDEST POP POP POP DUP2 SHL ADD DUP6 SSTORE PUSH3 0xE8 JUMP JUMPDEST ADD MLOAD PUSH1 0x0 NOT PUSH1 0xF8 DUP5 PUSH1 0x3 SHL AND SHR NOT AND SWAP1 SSTORE CODESIZE DUP1 DUP1 PUSH3 0x2DC JUMP JUMPDEST DUP4 DUP6 ADD MLOAD DUP7 SSTORE DUP11 SWAP8 SWAP1 SWAP6 ADD SWAP5 SWAP4 DUP5 ADD SWAP4 ADD PUSH3 0x2C9 JUMP JUMPDEST SWAP1 SWAP2 POP DUP8 DUP1 MSTORE DUP7 DUP9 KECCAK256 DUP6 DUP1 DUP6 ADD PUSH1 0x5 SHR DUP3 ADD SWAP3 DUP10 DUP7 LT PUSH3 0x364 JUMPI JUMPDEST SWAP2 DUP9 SWAP2 DUP7 SWAP6 SWAP5 SWAP4 ADD PUSH1 0x5 SHR ADD SWAP2 JUMPDEST DUP3 DUP2 LT PUSH3 0x355 JUMPI POP POP PUSH3 0xBE JUMP JUMPDEST DUP11 DUP2 SSTORE DUP6 SWAP5 POP DUP9 SWAP2 ADD PUSH3 0x345 JUMP JUMPDEST SWAP3 POP DUP2 SWAP3 PUSH3 0x337 JUMP JUMPDEST PUSH4 0x4E487B71 PUSH1 0xE0 SHL DUP8 MSTORE PUSH1 0x22 PUSH1 0x4 MSTORE PUSH1 0x24 DUP8 REVERT JUMPDEST SWAP4 PUSH1 0x7F AND SWAP4 PUSH3 0xA7 JUMP JUMPDEST PUSH4 0x4E487B71 PUSH1 0xE0 SHL PUSH1 0x0 MSTORE PUSH1 0x41 PUSH1 0x4 MSTORE PUSH1 0x24 PUSH1 0x0 REVERT JUMPDEST PUSH1 0x0 DUP1 REVERT JUMPDEST PUSH1 0x40 MLOAD SWAP2 SWAP1 PUSH1 0x1F ADD PUSH1 0x1F NOT AND DUP3 ADD PUSH1 0x1 PUSH1 0x1 PUSH1 0x40 SHL SUB DUP2 GT DUP4 DUP3 LT OR PUSH3 0x38D JUMPI PUSH1 0x40 MSTORE JUMP JUMPDEST SWAP2 SWAP1 DUP1 PUSH1 0x1F DUP5 ADD SLT ISZERO PUSH3 0x3A3 JUMPI DUP3 MLOAD PUSH1 0x1 PUSH1 0x1 PUSH1 0x40 SHL SUB DUP2 GT PUSH3 0x38D JUMPI PUSH1 0x20 SWAP1 PUSH3 0x404 PUSH1 0x1F DUP3 ADD PUSH1 0x1F NOT AND DUP4 ADD PUSH3 0x3A8 JUMP JUMPDEST SWAP3 DUP2 DUP5 MSTORE DUP3 DUP3 DUP8 ADD ADD GT PUSH3 0x3A3 JUMPI PUSH1 0x0 JUMPDEST DUP2 DUP2 LT PUSH3 0x42C JUMPI POP DUP3 PUSH1 0x0 SWAP4 SWAP5 SWAP6 POP ADD ADD MSTORE SWAP1 JUMP JUMPDEST DUP6 DUP2 ADD DUP4 ADD MLOAD DUP5 DUP3 ADD DUP5 ADD MSTORE DUP3 ADD PUSH3 0x416 JUMP JUMPDEST SWAP1 PUSH8 0xDE0B6B3A7640000 DUP3 ADD DUP1 SWAP3 GT PUSH3 0x456 JUMPI JUMP JUMPDEST PUSH4 0x4E487B71 PUSH1 0xE0 SHL PUSH1 0x0 MSTORE PUSH1 0x11 PUSH1 0x4 MSTORE PUSH1 0x24 PUSH1 0x0 REVERT INVALID PUSH1 0x80 PUSH1 0x40 DUP2 DUP2 MSTORE PUSH1 0x4 DUP1 CALLDATASIZE LT ISZERO PUSH2 0x15 JUMPI PUSH1 0x0 DUP1 REVERT JUMPDEST PUSH1 0x0 SWAP3 DUP4 CALLDATALOAD PUSH1 0xE0 SHR SWAP1 DUP2 PUSH4 0x6FDDE03 EQ PUSH2 0x591 JUMPI POP DUP1 PUSH4 0x95EA7B3 EQ PUSH2 0x523 JUMPI DUP1 PUSH4 0x18160DDD EQ PUSH2 0x504 JUMPI DUP1 PUSH4 0x23B872DD EQ PUSH2 0x40A JUMPI DUP1 PUSH4 0x313CE567 EQ PUSH2 0x3EE JUMPI DUP1 PUSH4 0x64A7102B EQ PUSH2 0x338 JUMPI DUP1 PUSH4 0x70A08231 EQ PUSH2 0x300 JUMPI DUP1 PUSH4 0x95D89B41 EQ PUSH2 0x1DF JUMPI DUP1 PUSH4 0xA9059CBB EQ PUSH2 0x12F JUMPI DUP1 PUSH4 0xC45A0155 EQ PUSH2 0xE7 JUMPI PUSH4 0xDD62ED3E EQ PUSH2 0x9C JUMPI PUSH1 0x0 DUP1 REVERT JUMPDEST CALLVALUE PUSH2 0xE3 JUMPI DUP2 PUSH1 0x3 NOT CALLDATASIZE ADD SLT PUSH2 0xE3 JUMPI PUSH1 0x20 SWAP3 DUP3 SWAP2 PUSH2 0xB9 PUSH2 0x6CD JUMP JUMPDEST PUSH2 0xC1 PUSH2 0x6E8 JUMP JUMPDEST PUSH1 0x1 PUSH1 0x1 PUSH1 0xA0 SHL SUB SWAP2 DUP3 AND DUP5 MSTORE SWAP2 DUP7 MSTORE DUP4 DUP4 KECCAK256 SWAP2 AND DUP3 MSTORE DUP5 MSTORE KECCAK256 SLOAD SWAP1 MLOAD SWAP1 DUP2 MSTORE RETURN JUMPDEST DUP3 DUP1 REVERT JUMPDEST POP POP CALLVALUE PUSH2 0x12B JUMPI DUP2 PUSH1 0x3 NOT CALLDATASIZE ADD SLT PUSH2 0x12B JUMPI MLOAD PUSH32 0x0 PUSH1 0x1 PUSH1 0x1 PUSH1 0xA0 SHL SUB AND DUP2 MSTORE PUSH1 0x20 SWAP1 RETURN JUMPDEST POP DUP1 REVERT JUMPDEST POP SWAP2 CALLVALUE PUSH2 0x1DC JUMPI DUP2 PUSH1 0x3 NOT CALLDATASIZE ADD SLT PUSH2 0x1DC JUMPI PUSH2 0x149 PUSH2 0x6CD JUMP JUMPDEST SWAP3 PUSH1 0x24 CALLDATALOAD SWAP1 CALLER DUP4 MSTORE PUSH1 0x3 PUSH1 0x20 MSTORE DUP2 DUP5 DUP5 KECCAK256 SLOAD LT PUSH2 0x1CE JUMPI POP DUP3 PUSH1 0x20 SWAP5 CALLER DUP5 MSTORE PUSH1 0x3 DUP7 MSTORE DUP2 DUP5 KECCAK256 PUSH2 0x17A DUP5 DUP3 SLOAD PUSH2 0x721 JUMP JUMPDEST SWAP1 SSTORE PUSH1 0x1 PUSH1 0x1 PUSH1 0xA0 SHL SUB AND DUP1 DUP5 MSTORE PUSH1 0x3 DUP7 MSTORE SWAP3 KECCAK256 DUP1 SLOAD PUSH2 0x19B SWAP1 DUP4 SWAP1 PUSH2 0x6FE JUMP JUMPDEST SWAP1 SSTORE DUP3 MLOAD SWAP1 DUP2 MSTORE PUSH32 0xDDF252AD1BE2C89B69C2B068FC378DAA952BA7F163C4A11628F55A4DF523B3EF DUP5 CALLER SWAP3 LOG3 MLOAD PUSH1 0x1 DUP2 MSTORE RETURN JUMPDEST DUP4 MLOAD PUSH4 0x1E9ACF17 PUSH1 0xE3 SHL DUP2 MSTORE REVERT JUMPDEST DUP1 REVERT JUMPDEST POP SWAP2 SWAP1 CALLVALUE PUSH2 0x12B JUMPI DUP2 PUSH1 0x3 NOT CALLDATASIZE ADD SLT PUSH2 0x12B JUMPI DUP1 MLOAD SWAP1 DUP3 PUSH1 0x1 DUP1 SLOAD SWAP1 DUP2 DUP2 SHR SWAP1 DUP1 DUP4 AND SWAP3 DUP4 ISZERO PUSH2 0x2F6 JUMPI JUMPDEST PUSH1 0x20 SWAP4 DUP5 DUP5 LT DUP2 EQ PUSH2 0x2E3 JUMPI DUP4 DUP9 MSTORE SWAP1 DUP2 ISZERO PUSH2 0x2C7 JUMPI POP PUSH1 0x1 EQ PUSH2 0x272 JUMPI JUMPDEST POP POP POP DUP3 SWAP1 SUB PUSH1 0x1F ADD PUSH1 0x1F NOT AND DUP3 ADD SWAP3 PUSH8 0xFFFFFFFFFFFFFFFF DUP5 GT DUP4 DUP6 LT OR PUSH2 0x25F JUMPI POP DUP3 SWAP2 DUP3 PUSH2 0x25B SWAP3 MSTORE DUP3 PUSH2 0x684 JUMP JUMPDEST SUB SWAP1 RETURN JUMPDEST PUSH4 0x4E487B71 PUSH1 0xE0 SHL DUP2 MSTORE PUSH1 0x41 DUP6 MSTORE PUSH1 0x24 SWAP1 REVERT JUMPDEST DUP1 DUP8 MSTORE SWAP2 SWAP3 POP DUP6 SWAP2 DUP4 PUSH32 0xB10E2D527612073B26EECDFD717E6A320CF44B4AFAC2B0732D9FCBE2B7FA0CF6 JUMPDEST DUP4 DUP6 LT PUSH2 0x2B3 JUMPI POP POP POP POP DUP4 ADD ADD CODESIZE DUP1 DUP1 PUSH2 0x229 JUMP JUMPDEST DUP1 SLOAD DUP9 DUP7 ADD DUP4 ADD MSTORE SWAP4 ADD SWAP3 DUP5 SWAP1 DUP3 ADD PUSH2 0x29D JUMP JUMPDEST PUSH1 0xFF NOT AND DUP8 DUP6 ADD MSTORE POP POP ISZERO ISZERO PUSH1 0x5 SHL DUP5 ADD ADD SWAP1 POP CODESIZE DUP1 DUP1 PUSH2 0x229 JUMP JUMPDEST PUSH4 0x4E487B71 PUSH1 0xE0 SHL DUP10 MSTORE PUSH1 0x22 DUP11 MSTORE PUSH1 0x24 DUP10 REVERT JUMPDEST SWAP2 PUSH1 0x7F AND SWAP2 PUSH2 0x20A JUMP JUMPDEST POP POP CALLVALUE PUSH2 0x12B JUMPI PUSH1 0x20 CALLDATASIZE PUSH1 0x3 NOT ADD SLT PUSH2 0x12B JUMPI PUSH1 0x20 SWAP2 DUP2 SWAP1 PUSH1 0x1 PUSH1 0x1 PUSH1 0xA0 SHL SUB PUSH2 0x328 PUSH2 0x6CD JUMP JUMPDEST AND DUP2 MSTORE PUSH1 0x3 DUP5 MSTORE KECCAK256 SLOAD SWAP1 MLOAD SWAP1 DUP2 MSTORE RETURN JUMPDEST POP CALLVALUE PUSH2 0xE3 JUMPI DUP2 PUSH1 0x3 NOT CALLDATASIZE ADD SLT PUSH2 0xE3 JUMPI PUSH2 0x351 PUSH2 0x6CD JUMP JUMPDEST PUSH1 0x24 CALLDATALOAD SWAP2 PUSH1 0x1 PUSH1 0x1 PUSH1 0xA0 SHL SUB SWAP2 SWAP1 PUSH32 0x0 DUP4 AND CALLER SUB PUSH2 0x3E0 JUMPI POP DUP5 SWAP3 PUSH32 0xDDF252AD1BE2C89B69C2B068FC378DAA952BA7F163C4A11628F55A4DF523B3EF SWAP3 PUSH1 0x20 SWAP3 AND SWAP5 DUP6 DUP6 MSTORE PUSH1 0x3 DUP4 MSTORE DUP1 DUP6 KECCAK256 PUSH2 0x3C7 DUP4 DUP3 SLOAD PUSH2 0x6FE JUMP JUMPDEST SWAP1 SSTORE PUSH2 0x3D5 DUP3 PUSH1 0x2 SLOAD PUSH2 0x6FE JUMP JUMPDEST PUSH1 0x2 SSTORE MLOAD SWAP1 DUP2 MSTORE LOG3 DUP1 RETURN JUMPDEST DUP5 MLOAD PUSH4 0x636A157 PUSH1 0xE1 SHL DUP2 MSTORE REVERT JUMPDEST POP POP CALLVALUE PUSH2 0x12B JUMPI DUP2 PUSH1 0x3 NOT CALLDATASIZE ADD SLT PUSH2 0x12B JUMPI PUSH1 0x20 SWAP1 MLOAD PUSH1 0x12 DUP2 MSTORE RETURN JUMPDEST POP SWAP2 CALLVALUE PUSH2 0x1DC JUMPI PUSH1 0x60 CALLDATASIZE PUSH1 0x3 NOT ADD SLT PUSH2 0x1DC JUMPI PUSH2 0x425 PUSH2 0x6CD JUMP JUMPDEST PUSH2 0x42D PUSH2 0x6E8 JUMP JUMPDEST SWAP1 PUSH1 0x44 CALLDATALOAD SWAP1 PUSH1 0x1 DUP1 PUSH1 0xA0 SHL SUB DUP1 SWAP2 AND SWAP3 DUP4 DUP6 MSTORE PUSH1 0x20 SWAP7 PUSH1 0x3 DUP9 MSTORE DUP4 DUP8 DUP8 KECCAK256 SLOAD LT PUSH2 0x4F6 JUMPI DUP5 DUP7 MSTORE DUP1 DUP9 MSTORE DUP7 DUP7 KECCAK256 CALLER DUP8 MSTORE DUP9 MSTORE DUP4 DUP8 DUP8 KECCAK256 SLOAD LT PUSH2 0x4E8 JUMPI DUP8 SWAP3 PUSH32 0xDDF252AD1BE2C89B69C2B068FC378DAA952BA7F163C4A11628F55A4DF523B3EF SWAP5 SWAP3 DUP9 SWAP3 DUP8 DUP10 MSTORE PUSH1 0x3 DUP7 MSTORE DUP4 DUP10 KECCAK256 PUSH2 0x4A5 DUP7 DUP3 SLOAD PUSH2 0x721 JUMP JUMPDEST SWAP1 SSTORE DUP8 DUP10 MSTORE DUP6 MSTORE DUP3 DUP9 KECCAK256 CALLER DUP10 MSTORE DUP6 MSTORE DUP3 DUP9 KECCAK256 PUSH2 0x4C2 DUP6 DUP3 SLOAD PUSH2 0x721 JUMP JUMPDEST SWAP1 SSTORE AND SWAP6 DUP7 DUP2 MSTORE PUSH1 0x3 DUP5 MSTORE KECCAK256 PUSH2 0x4D9 DUP3 DUP3 SLOAD PUSH2 0x6FE JUMP JUMPDEST SWAP1 SSTORE DUP6 MLOAD SWAP1 DUP2 MSTORE LOG3 MLOAD PUSH1 0x1 DUP2 MSTORE RETURN JUMPDEST DUP7 MLOAD PUSH4 0x13BE252B PUSH1 0xE0 SHL DUP2 MSTORE REVERT JUMPDEST DUP7 MLOAD PUSH4 0x1E9ACF17 PUSH1 0xE3 SHL DUP2 MSTORE REVERT JUMPDEST POP POP CALLVALUE PUSH2 0x12B JUMPI DUP2 PUSH1 0x3 NOT CALLDATASIZE ADD SLT PUSH2 0x12B JUMPI PUSH1 0x20 SWAP1 PUSH1 0x2 SLOAD SWAP1 MLOAD SWAP1 DUP2 MSTORE RETURN JUMPDEST POP CALLVALUE PUSH2 0xE3 JUMPI DUP2 PUSH1 0x3 NOT CALLDATASIZE ADD SLT PUSH2 0xE3 JUMPI PUSH1 0x20 SWAP3 PUSH2 0x53F PUSH2 0x6CD JUMP JUMPDEST SWAP2 DUP4 PUSH1 0x24 CALLDATALOAD SWAP3 DUP4 SWAP3 CALLER DUP3 MSTORE DUP8 MSTORE DUP2 DUP2 KECCAK256 SWAP5 PUSH1 0x1 DUP1 PUSH1 0xA0 SHL SUB AND SWAP5 DUP6 DUP3 MSTORE DUP8 MSTORE KECCAK256 SSTORE DUP3 MLOAD SWAP1 DUP2 MSTORE PUSH32 0x8C5BE1E5EBEC7D5BD14F71427D1E84F3DD0314C0F7B2291E5B200AC8C7C3B925 DUP5 CALLER SWAP3 LOG3 MLOAD PUSH1 0x1 DUP2 MSTORE RETURN JUMPDEST DUP5 SWAP2 POP DUP4 CALLVALUE PUSH2 0xE3 JUMPI DUP3 PUSH1 0x3 NOT CALLDATASIZE ADD SLT PUSH2 0xE3 JUMPI DUP3 DUP4 SLOAD PUSH1 0x1 DUP2 DUP2 SHR SWAP1 DUP1 DUP4 AND SWAP3 DUP4 ISZERO PUSH2 0x67A JUMPI JUMPDEST PUSH1 0x20 SWAP4 DUP5 DUP5 LT DUP2 EQ PUSH2 0x2E3 JUMPI DUP4 DUP9 MSTORE SWAP1 DUP2 ISZERO PUSH2 0x65E JUMPI POP PUSH1 0x1 EQ PUSH2 0x609 JUMPI POP POP POP DUP3 SWAP1 SUB PUSH1 0x1F ADD PUSH1 0x1F NOT AND DUP3 ADD SWAP3 PUSH8 0xFFFFFFFFFFFFFFFF DUP5 GT DUP4 DUP6 LT OR PUSH2 0x25F JUMPI POP DUP3 SWAP2 DUP3 PUSH2 0x25B SWAP3 MSTORE DUP3 PUSH2 0x684 JUMP JUMPDEST DUP7 DUP1 MSTORE SWAP2 SWAP3 POP DUP6 SWAP2 DUP4 PUSH32 0x290DECD9548B62A8D60345A988386FC84BA6BC95484008F6362F93160EF3E563 JUMPDEST DUP4 DUP6 LT PUSH2 0x64A JUMPI POP POP POP POP DUP4 ADD ADD DUP6 DUP1 DUP1 PUSH2 0x229 JUMP JUMPDEST DUP1 SLOAD DUP9 DUP7 ADD DUP4 ADD MSTORE SWAP4 ADD SWAP3 DUP5 SWAP1 DUP3 ADD PUSH2 0x634 JUMP JUMPDEST PUSH1 0xFF NOT AND DUP8 DUP6 ADD MSTORE POP POP ISZERO ISZERO PUSH1 0x5 SHL DUP5 ADD ADD SWAP1 POP DUP6 DUP1 DUP1 PUSH2 0x229 JUMP JUMPDEST SWAP2 PUSH1 0x7F AND SWAP2 PUSH2 0x5B9 JUMP JUMPDEST PUSH1 0x20 DUP1 DUP3 MSTORE DUP3 MLOAD DUP2 DUP4 ADD DUP2 SWAP1 MSTORE SWAP1 SWAP4 SWAP3 PUSH1 0x0 JUMPDEST DUP3 DUP2 LT PUSH2 0x6B9 JUMPI POP POP PUSH1 0x40 SWAP3 SWAP4 POP PUSH1 0x0 DUP4 DUP3 DUP5 ADD ADD MSTORE PUSH1 0x1F DUP1 NOT SWAP2 ADD AND ADD ADD SWAP1 JUMP JUMPDEST DUP2 DUP2 ADD DUP7 ADD MLOAD DUP5 DUP3 ADD PUSH1 0x40 ADD MSTORE DUP6 ADD PUSH2 0x697 JUMP JUMPDEST PUSH1 0x4 CALLDATALOAD SWAP1 PUSH1 0x1 PUSH1 0x1 PUSH1 0xA0 SHL SUB DUP3 AND DUP3 SUB PUSH2 0x6E3 JUMPI JUMP JUMPDEST PUSH1 0x0 DUP1 REVERT JUMPDEST PUSH1 0x24 CALLDATALOAD SWAP1 PUSH1 0x1 PUSH1 0x1 PUSH1 0xA0 SHL SUB DUP3 AND DUP3 SUB PUSH2 0x6E3 JUMPI JUMP JUMPDEST SWAP2 SWAP1 DUP3 ADD DUP1 SWAP3 GT PUSH2 0x70B JUMPI JUMP JUMPDEST PUSH4 0x4E487B71 PUSH1 0xE0 SHL PUSH1 0x0 MSTORE PUSH1 0x11 PUSH1 0x4 MSTORE PUSH1 0x24 PUSH1 0x0 REVERT JUMPDEST SWAP2 SWAP1 DUP3 SUB SWAP2 DUP3 GT PUSH2 0x70B JUMPI JUMP INVALID LOG2 PUSH5 0x6970667358 0x22 SLT KECCAK256 0xBA SWAP4 PUSH21 0x15F3E276274ECA1B73970CB2699D39E197E269C15D 0xC0 0xDF 0xB8 0xEB 0xA8 MSTORE DUP3 SHL PUSH5 0x736F6C6343 STOP ADDMOD EQ STOP CALLER 0xDD CALLCODE MSTORE 0xAD SHL 0xE2 0xC8 SWAP12 PUSH10 0xC2B068FC378DAA952BA7 CALL PUSH4 0xC4A11628 CREATE2 GAS 0x4D CREATE2 0x23 0xB3 0xEF LOG2 PUSH5 0x6970667358 0x22 SLT KECCAK256 0xED 0xD8 0x2C 0xC0 EXP 0xD3 SWAP15 SWAP14 0x2A 0xBB 0xCB 0x27 0xCB DUP4 SHR 0xAF 0xAB SWAP15 SWAP7 CALLDATALOAD PUSH20 0x58BE52E2501672DF02447864736F6C6343000814 STOP CALLER "},"methodIdentifiers":{"BPS_DENOMINATOR()":"e1a45218","DEAD_ADDRESS()":"4e6fd6c4","REFERRAL_FEE_BPS()":"9d72265e","REFERRAL_TIMEOUT()":"4d6e0c19","R_TOKEN_RESERVE()":"208597b0","TRADE_FEE_BPS()":"9185f598","V_ETH_RESERVE()":"995c86d5","V_TOKEN_RESERVE()":"b1a51f35","WETH()":"ad5c4648","allTokens(uint256)":"634282af","buyToken(address,address)":"5ee6cc38","claimReferralReward(address)":"61929d8a","createFee()":"b2db919b","getAmountIn(address,uint256)":"632db21c","getAmountOut(address,uint256)":"ca706bcf","getCurrentPrice(address)":"84cc315b","getMigrationProgress(address)":"c8a1d06e","launchToken(string,string,address)":"94b4cd0a","migrationThreshold()":"90bc1e85","owner()":"8da5cb5b","referralRewards(address,address)":"4c63c518","renounceOwnership()":"715018a6","sellToken(address,uint256,address)":"55a97632","setCreateFee(uint256)":"62914849","setMigrationThreshold(uint256)":"ca92a91b","setRouter(address)":"c0d78655","setTreasuryWallet(address)":"a8602fea","tokens(address)":"e4860339","totalPendingReferral(address)":"70334057","totalTokensLaunched()":"9e1e213e","transferOwnership(address)":"f2fde38b","treasuryWallet()":"4626402b","uniswapRouter()":"735de9f7","updateReserves(uint256,uint256,uint256)":"6148813c"}}}}}