{"contracts/mocks/MockLPLocker.sol":{"MockLPLocker":{"abi":[{"inputs":[{"internalType":"address","name":"token","type":"address"}],"name":"SafeERC20FailedOperation","type":"error"},{"inputs":[],"name":"lockCount","outputs":[{"internalType":"uint256","name":"","type":"uint256"}],"stateMutability":"view","type":"function"},{"inputs":[{"internalType":"address","name":"lpToken","type":"address"},{"internalType":"uint256","name":"amount","type":"uint256"},{"internalType":"uint256","name":"unlockTime","type":"uint256"},{"internalType":"address","name":"beneficiary","type":"address"}],"name":"lockTokens","outputs":[{"internalType":"uint256","name":"lockId","type":"uint256"}],"stateMutability":"nonpayable","type":"function"}],"evm":{"bytecode":{"linkReferences":{},"object":"608080604052346100165761019c908161001c8239f35b600080fdfe60806040818152600436101561001457600080fd5b600091823560e01c9081630aa393f3146100575750639b10b6f51461003857600080fd5b34610053578160031936011261005357602091549051908152f35b5080fd5b905034610162576080366003190112610162576004356001600160a01b03818116929183900361015e576064359081160361015a5760208101906323b872dd60e01b825233602482015230604482015260243560648201526064815260a0810181811067ffffffffffffffff8211176101465784525160209185919082855af11561013b5782513d6101325750803b155b61011c575081549060001982146101085760209260018301905551908152f35b634e487b7160e01b83526011600452602483fd5b6024915190635274afe760e01b82526004820152fd5b600114156100e8565b5051903d90823e3d90fd5b634e487b7160e01b86526041600452602486fd5b8380fd5b8480fd5b8280fdfea26469706673582212207e9f1f19eb6f9334fbe3ec41ad32bfccaf564574e9b415facb7278523f0398b864736f6c63430008140033","opcodes":"PUSH1 0x80 DUP1 PUSH1 0x40 MSTORE CALLVALUE PUSH2 0x16 JUMPI PUSH2 0x19C SWAP1 DUP2 PUSH2 0x1C DUP3 CODECOPY RETURN JUMPDEST PUSH1 0x0 DUP1 REVERT INVALID PUSH1 0x80 PUSH1 0x40 DUP2 DUP2 MSTORE PUSH1 0x4 CALLDATASIZE LT ISZERO PUSH2 0x14 JUMPI PUSH1 0x0 DUP1 REVERT JUMPDEST PUSH1 0x0 SWAP2 DUP3 CALLDATALOAD PUSH1 0xE0 SHR SWAP1 DUP2 PUSH4 0xAA393F3 EQ PUSH2 0x57 JUMPI POP PUSH4 0x9B10B6F5 EQ PUSH2 0x38 JUMPI PUSH1 0x0 DUP1 REVERT JUMPDEST CALLVALUE PUSH2 0x53 JUMPI DUP2 PUSH1 0x3 NOT CALLDATASIZE ADD SLT PUSH2 0x53 JUMPI PUSH1 0x20 SWAP2 SLOAD SWAP1 MLOAD SWAP1 DUP2 MSTORE RETURN JUMPDEST POP DUP1 REVERT JUMPDEST SWAP1 POP CALLVALUE PUSH2 0x162 JUMPI PUSH1 0x80 CALLDATASIZE PUSH1 0x3 NOT ADD SLT PUSH2 0x162 JUMPI PUSH1 0x4 CALLDATALOAD PUSH1 0x1 PUSH1 0x1 PUSH1 0xA0 SHL SUB DUP2 DUP2 AND SWAP3 SWAP2 DUP4 SWAP1 SUB PUSH2 0x15E JUMPI PUSH1 0x64 CALLDATALOAD SWAP1 DUP2 AND SUB PUSH2 0x15A JUMPI PUSH1 0x20 DUP2 ADD SWAP1 PUSH4 0x23B872DD PUSH1 0xE0 SHL DUP3 MSTORE CALLER PUSH1 0x24 DUP3 ADD MSTORE ADDRESS PUSH1 0x44 DUP3 ADD MSTORE PUSH1 0x24 CALLDATALOAD PUSH1 0x64 DUP3 ADD MSTORE PUSH1 0x64 DUP2 MSTORE PUSH1 0xA0 DUP2 ADD DUP2 DUP2 LT PUSH8 0xFFFFFFFFFFFFFFFF DUP3 GT OR PUSH2 0x146 JUMPI DUP5 MSTORE MLOAD PUSH1 0x20 SWAP2 DUP6 SWAP2 SWAP1 DUP3 DUP6 GAS CALL ISZERO PUSH2 0x13B JUMPI DUP3 MLOAD RETURNDATASIZE PUSH2 0x132 JUMPI POP DUP1 EXTCODESIZE ISZERO JUMPDEST PUSH2 0x11C JUMPI POP DUP2 SLOAD SWAP1 PUSH1 0x0 NOT DUP3 EQ PUSH2 0x108 JUMPI PUSH1 0x20 SWAP3 PUSH1 0x1 DUP4 ADD SWAP1 SSTORE MLOAD SWAP1 DUP2 MSTORE RETURN JUMPDEST PUSH4 0x4E487B71 PUSH1 0xE0 SHL DUP4 MSTORE PUSH1 0x11 PUSH1 0x4 MSTORE PUSH1 0x24 DUP4 REVERT JUMPDEST PUSH1 0x24 SWAP2 MLOAD SWAP1 PUSH4 0x5274AFE7 PUSH1 0xE0 SHL DUP3 MSTORE PUSH1 0x4 DUP3 ADD MSTORE REVERT JUMPDEST PUSH1 0x1 EQ ISZERO PUSH2 0xE8 JUMP JUMPDEST POP MLOAD SWAP1 RETURNDATASIZE SWAP1 DUP3 RETURNDATACOPY RETURNDATASIZE SWAP1 REVERT JUMPDEST PUSH4 0x4E487B71 PUSH1 0xE0 SHL DUP7 MSTORE PUSH1 0x41 PUSH1 0x4 MSTORE PUSH1 0x24 DUP7 REVERT JUMPDEST DUP4 DUP1 REVERT JUMPDEST DUP5 DUP1 REVERT JUMPDEST DUP3 DUP1 REVERT INVALID LOG2 PUSH5 0x6970667358 0x22 SLT KECCAK256 PUSH31 0x9F1F19EB6F9334FBE3EC41AD32BFCCAF564574E9B415FACB7278523F0398B8 PUSH5 0x736F6C6343 STOP ADDMOD EQ STOP CALLER "},"methodIdentifiers":{"lockCount()":"9b10b6f5","lockTokens(address,uint256,uint256,address)":"0aa393f3"}}}}}