{"contracts/shared/LPLocker.sol":{"LPLocker":{"abi":[{"inputs":[],"name":"AlreadyWithdrawn","type":"error"},{"inputs":[],"name":"InvalidAmount","type":"error"},{"inputs":[],"name":"InvalidUnlockTime","type":"error"},{"inputs":[],"name":"NotBeneficiary","type":"error"},{"inputs":[],"name":"NotOwner","type":"error"},{"inputs":[],"name":"ReentrancyGuardReentrantCall","type":"error"},{"inputs":[{"internalType":"address","name":"token","type":"address"}],"name":"SafeERC20FailedOperation","type":"error"},{"inputs":[],"name":"StillLocked","type":"error"},{"inputs":[],"name":"ZeroAddress","type":"error"},{"anonymous":false,"inputs":[{"indexed":true,"internalType":"uint256","name":"lockId","type":"uint256"},{"indexed":true,"internalType":"address","name":"oldBeneficiary","type":"address"},{"indexed":true,"internalType":"address","name":"newBeneficiary","type":"address"}],"name":"BeneficiaryTransferred","type":"event"},{"anonymous":false,"inputs":[{"indexed":true,"internalType":"uint256","name":"lockId","type":"uint256"},{"indexed":false,"internalType":"uint256","name":"oldUnlockTime","type":"uint256"},{"indexed":false,"internalType":"uint256","name":"newUnlockTime","type":"uint256"}],"name":"LockExtended","type":"event"},{"anonymous":false,"inputs":[{"indexed":true,"internalType":"uint256","name":"lockId","type":"uint256"},{"indexed":true,"internalType":"address","name":"lpToken","type":"address"},{"indexed":true,"internalType":"address","name":"owner","type":"address"},{"indexed":false,"internalType":"address","name":"beneficiary","type":"address"},{"indexed":false,"internalType":"uint256","name":"amount","type":"uint256"},{"indexed":false,"internalType":"uint256","name":"unlockTime","type":"uint256"}],"name":"TokensLocked","type":"event"},{"anonymous":false,"inputs":[{"indexed":true,"internalType":"uint256","name":"lockId","type":"uint256"},{"indexed":true,"internalType":"address","name":"beneficiary","type":"address"},{"indexed":false,"internalType":"uint256","name":"amount","type":"uint256"}],"name":"TokensWithdrawn","type":"event"},{"inputs":[{"internalType":"uint256","name":"lockId","type":"uint256"},{"internalType":"uint256","name":"newUnlockTime","type":"uint256"}],"name":"extendLock","outputs":[],"stateMutability":"nonpayable","type":"function"},{"inputs":[{"internalType":"uint256","name":"lockId","type":"uint256"}],"name":"getLock","outputs":[{"components":[{"internalType":"address","name":"lpToken","type":"address"},{"internalType":"address","name":"owner","type":"address"},{"internalType":"address","name":"beneficiary","type":"address"},{"internalType":"uint256","name":"amount","type":"uint256"},{"internalType":"uint256","name":"lockTime","type":"uint256"},{"internalType":"uint256","name":"unlockTime","type":"uint256"},{"internalType":"bool","name":"withdrawn","type":"bool"}],"internalType":"struct ILPLocker.Lock","name":"","type":"tuple"}],"stateMutability":"view","type":"function"},{"inputs":[{"internalType":"address","name":"beneficiary","type":"address"}],"name":"getLocksByBeneficiary","outputs":[{"internalType":"uint256[]","name":"","type":"uint256[]"}],"stateMutability":"view","type":"function"},{"inputs":[{"internalType":"address","name":"lpToken","type":"address"}],"name":"getLocksByToken","outputs":[{"internalType":"uint256[]","name":"","type":"uint256[]"}],"stateMutability":"view","type":"function"},{"inputs":[{"internalType":"uint256[]","name":"lockIds","type":"uint256[]"}],"name":"getLocksMulti","outputs":[{"components":[{"internalType":"address","name":"lpToken","type":"address"},{"internalType":"address","name":"owner","type":"address"},{"internalType":"address","name":"beneficiary","type":"address"},{"internalType":"uint256","name":"amount","type":"uint256"},{"internalType":"uint256","name":"lockTime","type":"uint256"},{"internalType":"uint256","name":"unlockTime","type":"uint256"},{"internalType":"bool","name":"withdrawn","type":"bool"}],"internalType":"struct ILPLocker.Lock[]","name":"result","type":"tuple[]"}],"stateMutability":"view","type":"function"},{"inputs":[{"internalType":"uint256","name":"lockId","type":"uint256"}],"name":"getTimeUntilUnlock","outputs":[{"internalType":"uint256","name":"","type":"uint256"}],"stateMutability":"view","type":"function"},{"inputs":[{"internalType":"uint256","name":"lockId","type":"uint256"}],"name":"isLocked","outputs":[{"internalType":"bool","name":"","type":"bool"}],"stateMutability":"view","type":"function"},{"inputs":[{"internalType":"address","name":"lpToken","type":"address"},{"internalType":"uint256","name":"amount","type":"uint256"},{"internalType":"uint256","name":"unlockTime","type":"uint256"},{"internalType":"address","name":"beneficiary","type":"address"}],"name":"lockTokens","outputs":[{"internalType":"uint256","name":"lockId","type":"uint256"}],"stateMutability":"nonpayable","type":"function"},{"inputs":[],"name":"totalLockCount","outputs":[{"internalType":"uint256","name":"","type":"uint256"}],"stateMutability":"view","type":"function"},{"inputs":[{"internalType":"uint256","name":"lockId","type":"uint256"},{"internalType":"address","name":"newBeneficiary","type":"address"}],"name":"transferBeneficiary","outputs":[],"stateMutability":"nonpayable","type":"function"},{"inputs":[{"internalType":"uint256","name":"lockId","type":"uint256"}],"name":"withdrawTokens","outputs":[],"stateMutability":"nonpayable","type":"function"}],"evm":{"bytecode":{"linkReferences":{},"object":"6080806040523461001b576001600055610c9690816100218239f35b600080fdfe608060408181526004908136101561001657600080fd5b60009260e08435811c918263070d66bf146108d1575081630aa393f3146106c35781630d6dd343146105e7578163107bf5921461057357816324ba88b7146104ef5781632f6fe5f7146104c7578163315a095d1461039757816393ad60c4146101ef578163b9cb0a85146101cc578163d68f4dd114610136575063f6aacfb11461009f57600080fd5b3461013257602036600319011261013257806020938335815260018552208151926100c984610a53565b60018060a01b0380835416855280600184015416868601526002830154168385015260038201546060850152810154608084015260ff60066005830154928360a0870152015416159260c0841591015282610128575b50519015158152f35b421091503861011f565b8280fd5b939050346101c95760203660031901126101c9579060ff6006826101c79461015c610b76565b508635815260016020522083519561017387610a53565b81546001600160a01b03908116885260018301548116602089015260028301541685880152600382015460608801528101546080870152600581015460a0870152015416151560c0840152519182906109df565bf35b80fd5b8483346101eb57816003193601126101eb576020906002549051908152f35b5080fd5b939050346101c957602090816003193601126101c95783359367ffffffffffffffff90818611610132573660238701121561013257858101359182116101325760059060243684841b89018201116103935761025084999897959699610c34565b9661025d86519889610a85565b848852601f1961026c86610c34565b01875b818110610371575050865b8581106102d3575050505050508051948594818087019381885286518095528701950193905b8382106102ad5786860387f35b9184965082866102c360019496988498516109df565b01960192018695949293916102a0565b808361036692879d9a999b9c9d1b8401013588528860ff600660018084528d808d209181519561030287610a53565b83546001600160a01b0390811688529184015482169087015260028301541690850152600381015460608501528881015460808501528981015460a0850152015416151560c0820152610355828d610c4c565b52610360818c610c4c565b50610a2e565b99989795969961027a565b9a8b8a82809b9a9c9d9e610383610b76565b92010152019a999896979a61026f565b8480fd5b505034610132576020366003190112610132578135906103b5610b53565b81845260016020528084206002810180546001600160a01b039290831690338290036104b757600581015442106104a75760068101805460ff81166104975760019060ff1916179055600384825416910196875486519363a9059cbb60e01b60208601526024850152604484015260448352608083019083821067ffffffffffffffff831117610484575060209492869492610473927f3f5fbaf86658fdadee77f1d46e7f8a72424ad9839eda6a1dc6eb0a4228e4226e9852610aeb565b541694549051908152a36001815580f35b634e487b7160e01b8a5260419052602489fd5b8651636507689f60e01b81528990fd5b8451636100d92960e11b81528790fd5b845163644d871f60e01b81528790fd5b505082346101c95760203660031901126101c957506104e860209235610bae565b9051908152f35b505034610132576020918260031936011261056f576001600160a01b03610514610989565b16845282528083209281518093808654928381520195835280832092905b82821061055857610554868661054a828b0383610a85565b51918291826109a4565b0390f35b835487529586019560019384019390910190610532565b8380fd5b8483346101eb5760209081600319360112610132576001600160a01b03610598610989565b168352600382528083209281518093808654928381520195835280832092905b8282106105d057610554868661054a828b0383610a85565b8354875295860195600193840193909101906105b8565b505090346101325781600319360112610132576001600160a01b036024358181169383359390918590036106bf578386526001602052818620908360018301541633036106b15760ff6006830154166106a3578515610695575060020180546001600160a01b031981168617909155848652600360205290852061066c908490610aa7565b16907fcac3b813aa052f85279f96655f0ccd339dbf77623d87f74fcd77af7719472d118480a480f35b825163d92e233d60e01b8152fd5b8251636507689f60e01b8152fd5b82516330cd747160e01b8152fd5b8580fd5b838584346101eb5760803660031901126101eb576106df610989565b6001600160a01b0392906064358481169160243591604435919084900361039357610708610b53565b82156108c157428211156108b15783156108a15786169182156108a1578551976020986323b872dd60e01b8a8201523360248201523060448201528260648201526064815260a0810181811067ffffffffffffffff82111761088e5788526107709085610aeb565b600254809861077e82610a2e565b600255848b89898c80519561079287610a53565b8b8752808588019233845280890194855260608901958c875260808a019742895260a08b01998a5260c08b019b828d5282526001905220975116916bffffffffffffffffffffffff60a01b9283895416178855816001890191511683825416179055600287019251169082541617905551600384015551848301555160058201556006019051151560ff198254169060ff1617905584865260038952878787209061083c91610aa7565b8386528852868686209061084f91610aa7565b8551938452878401528483015284339260607f2829c874cc2754efd69c7e3c418a785312752350649b2d9219a7f07b7871839b91a46001905551908152f35b634e487b7160e01b885260418352602488fd5b855163d92e233d60e01b81528890fd5b85516352aba6d360e11b81528890fd5b855163162908e360e11b81528890fd5b8585853461013257806003193601126101325781358084526001602052818420600281015460243596929492906001600160a01b0316330361097b575060ff60068201541661096c57600501948554918282111561095e5750807f12c0f64f942f99aa5210c23a8ab729735389400457b66b06895b0700315c3b339495965582519182526020820152a280f35b83516352aba6d360e11b8152fd5b509051636507689f60e01b8152fd5b63644d871f60e01b81529050fd5b600435906001600160a01b038216820361099f57565b600080fd5b6020908160408183019282815285518094520193019160005b8281106109cb575050505090565b8351855293810193928101926001016109bd565b60c0809160018060a01b038082511685528060208301511660208601526040820151166040850152606081015160608501526080810151608085015260a081015160a085015201511515910152565b6000198114610a3d5760010190565b634e487b7160e01b600052601160045260246000fd5b60e0810190811067ffffffffffffffff821117610a6f57604052565b634e487b7160e01b600052604160045260246000fd5b90601f8019910116810190811067ffffffffffffffff821117610a6f57604052565b80549068010000000000000000821015610a6f5760018201808255821015610ad55760005260206000200155565b634e487b7160e01b600052603260045260246000fd5b906000602091828151910182855af115610b47576000513d610b3e57506001600160a01b0381163b155b610b1c5750565b604051635274afe760e01b81526001600160a01b039091166004820152602490fd5b60011415610b15565b6040513d6000823e3d90fd5b600260005414610b64576002600055565b604051633ee5aeb560e01b8152600490fd5b60405190610b8382610a53565b8160c06000918281528260208201528260408201528260608201528260808201528260a08201520152565b60005260016020526040600020604051610bc781610a53565b60018060a01b038083541682528060018401541660208301526002830154166040820152600382015460608201526004820154608082015260c060ff60066005850154948560a0860152015416151591015280421015610c2e57428103908111610a3d5790565b50600090565b67ffffffffffffffff8111610a6f5760051b60200190565b8051821015610ad55760209160051b01019056fea2646970667358221220d5abac715dcd337475c27271085664d16de3c650df981c032281d42f19b1bad564736f6c63430008140033","opcodes":"PUSH1 0x80 DUP1 PUSH1 0x40 MSTORE CALLVALUE PUSH2 0x1B JUMPI PUSH1 0x1 PUSH1 0x0 SSTORE PUSH2 0xC96 SWAP1 DUP2 PUSH2 0x21 DUP3 CODECOPY RETURN JUMPDEST PUSH1 0x0 DUP1 REVERT INVALID PUSH1 0x80 PUSH1 0x40 DUP2 DUP2 MSTORE PUSH1 0x4 SWAP1 DUP2 CALLDATASIZE LT ISZERO PUSH2 0x16 JUMPI PUSH1 0x0 DUP1 REVERT JUMPDEST PUSH1 0x0 SWAP3 PUSH1 0xE0 DUP5 CALLDATALOAD DUP2 SHR SWAP2 DUP3 PUSH4 0x70D66BF EQ PUSH2 0x8D1 JUMPI POP DUP2 PUSH4 0xAA393F3 EQ PUSH2 0x6C3 JUMPI DUP2 PUSH4 0xD6DD343 EQ PUSH2 0x5E7 JUMPI DUP2 PUSH4 0x107BF592 EQ PUSH2 0x573 JUMPI DUP2 PUSH4 0x24BA88B7 EQ PUSH2 0x4EF JUMPI DUP2 PUSH4 0x2F6FE5F7 EQ PUSH2 0x4C7 JUMPI DUP2 PUSH4 0x315A095D EQ PUSH2 0x397 JUMPI DUP2 PUSH4 0x93AD60C4 EQ PUSH2 0x1EF JUMPI DUP2 PUSH4 0xB9CB0A85 EQ PUSH2 0x1CC JUMPI DUP2 PUSH4 0xD68F4DD1 EQ PUSH2 0x136 JUMPI POP PUSH4 0xF6AACFB1 EQ PUSH2 0x9F JUMPI PUSH1 0x0 DUP1 REVERT JUMPDEST CALLVALUE PUSH2 0x132 JUMPI PUSH1 0x20 CALLDATASIZE PUSH1 0x3 NOT ADD SLT PUSH2 0x132 JUMPI DUP1 PUSH1 0x20 SWAP4 DUP4 CALLDATALOAD DUP2 MSTORE PUSH1 0x1 DUP6 MSTORE KECCAK256 DUP2 MLOAD SWAP3 PUSH2 0xC9 DUP5 PUSH2 0xA53 JUMP JUMPDEST PUSH1 0x1 DUP1 PUSH1 0xA0 SHL SUB DUP1 DUP4 SLOAD AND DUP6 MSTORE DUP1 PUSH1 0x1 DUP5 ADD SLOAD AND DUP7 DUP7 ADD MSTORE PUSH1 0x2 DUP4 ADD SLOAD AND DUP4 DUP6 ADD MSTORE PUSH1 0x3 DUP3 ADD SLOAD PUSH1 0x60 DUP6 ADD MSTORE DUP2 ADD SLOAD PUSH1 0x80 DUP5 ADD MSTORE PUSH1 0xFF PUSH1 0x6 PUSH1 0x5 DUP4 ADD SLOAD SWAP3 DUP4 PUSH1 0xA0 DUP8 ADD MSTORE ADD SLOAD AND ISZERO SWAP3 PUSH1 0xC0 DUP5 ISZERO SWAP2 ADD MSTORE DUP3 PUSH2 0x128 JUMPI JUMPDEST POP MLOAD SWAP1 ISZERO ISZERO DUP2 MSTORE RETURN JUMPDEST TIMESTAMP LT SWAP2 POP CODESIZE PUSH2 0x11F JUMP JUMPDEST DUP3 DUP1 REVERT JUMPDEST SWAP4 SWAP1 POP CALLVALUE PUSH2 0x1C9 JUMPI PUSH1 0x20 CALLDATASIZE PUSH1 0x3 NOT ADD SLT PUSH2 0x1C9 JUMPI SWAP1 PUSH1 0xFF PUSH1 0x6 DUP3 PUSH2 0x1C7 SWAP5 PUSH2 0x15C PUSH2 0xB76 JUMP JUMPDEST POP DUP7 CALLDATALOAD DUP2 MSTORE PUSH1 0x1 PUSH1 0x20 MSTORE KECCAK256 DUP4 MLOAD SWAP6 PUSH2 0x173 DUP8 PUSH2 0xA53 JUMP JUMPDEST DUP2 SLOAD PUSH1 0x1 PUSH1 0x1 PUSH1 0xA0 SHL SUB SWAP1 DUP2 AND DUP9 MSTORE PUSH1 0x1 DUP4 ADD SLOAD DUP2 AND PUSH1 0x20 DUP10 ADD MSTORE PUSH1 0x2 DUP4 ADD SLOAD AND DUP6 DUP9 ADD MSTORE PUSH1 0x3 DUP3 ADD SLOAD PUSH1 0x60 DUP9 ADD MSTORE DUP2 ADD SLOAD PUSH1 0x80 DUP8 ADD MSTORE PUSH1 0x5 DUP2 ADD SLOAD PUSH1 0xA0 DUP8 ADD MSTORE ADD SLOAD AND ISZERO ISZERO PUSH1 0xC0 DUP5 ADD MSTORE MLOAD SWAP2 DUP3 SWAP1 PUSH2 0x9DF JUMP JUMPDEST RETURN JUMPDEST DUP1 REVERT JUMPDEST DUP5 DUP4 CALLVALUE PUSH2 0x1EB JUMPI DUP2 PUSH1 0x3 NOT CALLDATASIZE ADD SLT PUSH2 0x1EB JUMPI PUSH1 0x20 SWAP1 PUSH1 0x2 SLOAD SWAP1 MLOAD SWAP1 DUP2 MSTORE RETURN JUMPDEST POP DUP1 REVERT JUMPDEST SWAP4 SWAP1 POP CALLVALUE PUSH2 0x1C9 JUMPI PUSH1 0x20 SWAP1 DUP2 PUSH1 0x3 NOT CALLDATASIZE ADD SLT PUSH2 0x1C9 JUMPI DUP4 CALLDATALOAD SWAP4 PUSH8 0xFFFFFFFFFFFFFFFF SWAP1 DUP2 DUP7 GT PUSH2 0x132 JUMPI CALLDATASIZE PUSH1 0x23 DUP8 ADD SLT ISZERO PUSH2 0x132 JUMPI DUP6 DUP2 ADD CALLDATALOAD SWAP2 DUP3 GT PUSH2 0x132 JUMPI PUSH1 0x5 SWAP1 PUSH1 0x24 CALLDATASIZE DUP5 DUP5 SHL DUP10 ADD DUP3 ADD GT PUSH2 0x393 JUMPI PUSH2 0x250 DUP5 SWAP10 SWAP9 SWAP8 SWAP6 SWAP7 SWAP10 PUSH2 0xC34 JUMP JUMPDEST SWAP7 PUSH2 0x25D DUP7 MLOAD SWAP9 DUP10 PUSH2 0xA85 JUMP JUMPDEST DUP5 DUP9 MSTORE PUSH1 0x1F NOT PUSH2 0x26C DUP7 PUSH2 0xC34 JUMP JUMPDEST ADD DUP8 JUMPDEST DUP2 DUP2 LT PUSH2 0x371 JUMPI POP POP DUP7 JUMPDEST DUP6 DUP2 LT PUSH2 0x2D3 JUMPI POP POP POP POP POP POP DUP1 MLOAD SWAP5 DUP6 SWAP5 DUP2 DUP1 DUP8 ADD SWAP4 DUP2 DUP9 MSTORE DUP7 MLOAD DUP1 SWAP6 MSTORE DUP8 ADD SWAP6 ADD SWAP4 SWAP1 JUMPDEST DUP4 DUP3 LT PUSH2 0x2AD JUMPI DUP7 DUP7 SUB DUP8 RETURN JUMPDEST SWAP2 DUP5 SWAP7 POP DUP3 DUP7 PUSH2 0x2C3 PUSH1 0x1 SWAP5 SWAP7 SWAP9 DUP5 SWAP9 MLOAD PUSH2 0x9DF JUMP JUMPDEST ADD SWAP7 ADD SWAP3 ADD DUP7 SWAP6 SWAP5 SWAP3 SWAP4 SWAP2 PUSH2 0x2A0 JUMP JUMPDEST DUP1 DUP4 PUSH2 0x366 SWAP3 DUP8 SWAP14 SWAP11 SWAP10 SWAP12 SWAP13 SWAP14 SHL DUP5 ADD ADD CALLDATALOAD DUP9 MSTORE DUP9 PUSH1 0xFF PUSH1 0x6 PUSH1 0x1 DUP1 DUP5 MSTORE DUP14 DUP1 DUP14 KECCAK256 SWAP2 DUP2 MLOAD SWAP6 PUSH2 0x302 DUP8 PUSH2 0xA53 JUMP JUMPDEST DUP4 SLOAD PUSH1 0x1 PUSH1 0x1 PUSH1 0xA0 SHL SUB SWAP1 DUP2 AND DUP9 MSTORE SWAP2 DUP5 ADD SLOAD DUP3 AND SWAP1 DUP8 ADD MSTORE PUSH1 0x2 DUP4 ADD SLOAD AND SWAP1 DUP6 ADD MSTORE PUSH1 0x3 DUP2 ADD SLOAD PUSH1 0x60 DUP6 ADD MSTORE DUP9 DUP2 ADD SLOAD PUSH1 0x80 DUP6 ADD MSTORE DUP10 DUP2 ADD SLOAD PUSH1 0xA0 DUP6 ADD MSTORE ADD SLOAD AND ISZERO ISZERO PUSH1 0xC0 DUP3 ADD MSTORE PUSH2 0x355 DUP3 DUP14 PUSH2 0xC4C JUMP JUMPDEST MSTORE PUSH2 0x360 DUP2 DUP13 PUSH2 0xC4C JUMP JUMPDEST POP PUSH2 0xA2E JUMP JUMPDEST SWAP10 SWAP9 SWAP8 SWAP6 SWAP7 SWAP10 PUSH2 0x27A JUMP JUMPDEST SWAP11 DUP12 DUP11 DUP3 DUP1 SWAP12 SWAP11 SWAP13 SWAP14 SWAP15 PUSH2 0x383 PUSH2 0xB76 JUMP JUMPDEST SWAP3 ADD ADD MSTORE ADD SWAP11 SWAP10 SWAP9 SWAP7 SWAP8 SWAP11 PUSH2 0x26F JUMP JUMPDEST DUP5 DUP1 REVERT JUMPDEST POP POP CALLVALUE PUSH2 0x132 JUMPI PUSH1 0x20 CALLDATASIZE PUSH1 0x3 NOT ADD SLT PUSH2 0x132 JUMPI DUP2 CALLDATALOAD SWAP1 PUSH2 0x3B5 PUSH2 0xB53 JUMP JUMPDEST DUP2 DUP5 MSTORE PUSH1 0x1 PUSH1 0x20 MSTORE DUP1 DUP5 KECCAK256 PUSH1 0x2 DUP2 ADD DUP1 SLOAD PUSH1 0x1 PUSH1 0x1 PUSH1 0xA0 SHL SUB SWAP3 SWAP1 DUP4 AND SWAP1 CALLER DUP3 SWAP1 SUB PUSH2 0x4B7 JUMPI PUSH1 0x5 DUP2 ADD SLOAD TIMESTAMP LT PUSH2 0x4A7 JUMPI PUSH1 0x6 DUP2 ADD DUP1 SLOAD PUSH1 0xFF DUP2 AND PUSH2 0x497 JUMPI PUSH1 0x1 SWAP1 PUSH1 0xFF NOT AND OR SWAP1 SSTORE PUSH1 0x3 DUP5 DUP3 SLOAD AND SWAP2 ADD SWAP7 DUP8 SLOAD DUP7 MLOAD SWAP4 PUSH4 0xA9059CBB PUSH1 0xE0 SHL PUSH1 0x20 DUP7 ADD MSTORE PUSH1 0x24 DUP6 ADD MSTORE PUSH1 0x44 DUP5 ADD MSTORE PUSH1 0x44 DUP4 MSTORE PUSH1 0x80 DUP4 ADD SWAP1 DUP4 DUP3 LT PUSH8 0xFFFFFFFFFFFFFFFF DUP4 GT OR PUSH2 0x484 JUMPI POP PUSH1 0x20 SWAP5 SWAP3 DUP7 SWAP5 SWAP3 PUSH2 0x473 SWAP3 PUSH32 0x3F5FBAF86658FDADEE77F1D46E7F8A72424AD9839EDA6A1DC6EB0A4228E4226E SWAP9 MSTORE PUSH2 0xAEB JUMP JUMPDEST SLOAD AND SWAP5 SLOAD SWAP1 MLOAD SWAP1 DUP2 MSTORE LOG3 PUSH1 0x1 DUP2 SSTORE DUP1 RETURN JUMPDEST PUSH4 0x4E487B71 PUSH1 0xE0 SHL DUP11 MSTORE PUSH1 0x41 SWAP1 MSTORE PUSH1 0x24 DUP10 REVERT JUMPDEST DUP7 MLOAD PUSH4 0x6507689F PUSH1 0xE0 SHL DUP2 MSTORE DUP10 SWAP1 REVERT JUMPDEST DUP5 MLOAD PUSH4 0x6100D929 PUSH1 0xE1 SHL DUP2 MSTORE DUP8 SWAP1 REVERT JUMPDEST DUP5 MLOAD PUSH4 0x644D871F PUSH1 0xE0 SHL DUP2 MSTORE DUP8 SWAP1 REVERT JUMPDEST POP POP DUP3 CALLVALUE PUSH2 0x1C9 JUMPI PUSH1 0x20 CALLDATASIZE PUSH1 0x3 NOT ADD SLT PUSH2 0x1C9 JUMPI POP PUSH2 0x4E8 PUSH1 0x20 SWAP3 CALLDATALOAD PUSH2 0xBAE JUMP JUMPDEST SWAP1 MLOAD SWAP1 DUP2 MSTORE RETURN JUMPDEST POP POP CALLVALUE PUSH2 0x132 JUMPI PUSH1 0x20 SWAP2 DUP3 PUSH1 0x3 NOT CALLDATASIZE ADD SLT PUSH2 0x56F JUMPI PUSH1 0x1 PUSH1 0x1 PUSH1 0xA0 SHL SUB PUSH2 0x514 PUSH2 0x989 JUMP JUMPDEST AND DUP5 MSTORE DUP3 MSTORE DUP1 DUP4 KECCAK256 SWAP3 DUP2 MLOAD DUP1 SWAP4 DUP1 DUP7 SLOAD SWAP3 DUP4 DUP2 MSTORE ADD SWAP6 DUP4 MSTORE DUP1 DUP4 KECCAK256 SWAP3 SWAP1 JUMPDEST DUP3 DUP3 LT PUSH2 0x558 JUMPI PUSH2 0x554 DUP7 DUP7 PUSH2 0x54A DUP3 DUP12 SUB DUP4 PUSH2 0xA85 JUMP JUMPDEST MLOAD SWAP2 DUP3 SWAP2 DUP3 PUSH2 0x9A4 JUMP JUMPDEST SUB SWAP1 RETURN JUMPDEST DUP4 SLOAD DUP8 MSTORE SWAP6 DUP7 ADD SWAP6 PUSH1 0x1 SWAP4 DUP5 ADD SWAP4 SWAP1 SWAP2 ADD SWAP1 PUSH2 0x532 JUMP JUMPDEST DUP4 DUP1 REVERT JUMPDEST DUP5 DUP4 CALLVALUE PUSH2 0x1EB JUMPI PUSH1 0x20 SWAP1 DUP2 PUSH1 0x3 NOT CALLDATASIZE ADD SLT PUSH2 0x132 JUMPI PUSH1 0x1 PUSH1 0x1 PUSH1 0xA0 SHL SUB PUSH2 0x598 PUSH2 0x989 JUMP JUMPDEST AND DUP4 MSTORE PUSH1 0x3 DUP3 MSTORE DUP1 DUP4 KECCAK256 SWAP3 DUP2 MLOAD DUP1 SWAP4 DUP1 DUP7 SLOAD SWAP3 DUP4 DUP2 MSTORE ADD SWAP6 DUP4 MSTORE DUP1 DUP4 KECCAK256 SWAP3 SWAP1 JUMPDEST DUP3 DUP3 LT PUSH2 0x5D0 JUMPI PUSH2 0x554 DUP7 DUP7 PUSH2 0x54A DUP3 DUP12 SUB DUP4 PUSH2 0xA85 JUMP JUMPDEST DUP4 SLOAD DUP8 MSTORE SWAP6 DUP7 ADD SWAP6 PUSH1 0x1 SWAP4 DUP5 ADD SWAP4 SWAP1 SWAP2 ADD SWAP1 PUSH2 0x5B8 JUMP JUMPDEST POP POP SWAP1 CALLVALUE PUSH2 0x132 JUMPI DUP2 PUSH1 0x3 NOT CALLDATASIZE ADD SLT PUSH2 0x132 JUMPI PUSH1 0x1 PUSH1 0x1 PUSH1 0xA0 SHL SUB PUSH1 0x24 CALLDATALOAD DUP2 DUP2 AND SWAP4 DUP4 CALLDATALOAD SWAP4 SWAP1 SWAP2 DUP6 SWAP1 SUB PUSH2 0x6BF JUMPI DUP4 DUP7 MSTORE PUSH1 0x1 PUSH1 0x20 MSTORE DUP2 DUP7 KECCAK256 SWAP1 DUP4 PUSH1 0x1 DUP4 ADD SLOAD AND CALLER SUB PUSH2 0x6B1 JUMPI PUSH1 0xFF PUSH1 0x6 DUP4 ADD SLOAD AND PUSH2 0x6A3 JUMPI DUP6 ISZERO PUSH2 0x695 JUMPI POP PUSH1 0x2 ADD DUP1 SLOAD PUSH1 0x1 PUSH1 0x1 PUSH1 0xA0 SHL SUB NOT DUP2 AND DUP7 OR SWAP1 SWAP2 SSTORE DUP5 DUP7 MSTORE PUSH1 0x3 PUSH1 0x20 MSTORE SWAP1 DUP6 KECCAK256 PUSH2 0x66C SWAP1 DUP5 SWAP1 PUSH2 0xAA7 JUMP JUMPDEST AND SWAP1 PUSH32 0xCAC3B813AA052F85279F96655F0CCD339DBF77623D87F74FCD77AF7719472D11 DUP5 DUP1 LOG4 DUP1 RETURN JUMPDEST DUP3 MLOAD PUSH4 0xD92E233D PUSH1 0xE0 SHL DUP2 MSTORE REVERT JUMPDEST DUP3 MLOAD PUSH4 0x6507689F PUSH1 0xE0 SHL DUP2 MSTORE REVERT JUMPDEST DUP3 MLOAD PUSH4 0x30CD7471 PUSH1 0xE0 SHL DUP2 MSTORE REVERT JUMPDEST DUP6 DUP1 REVERT JUMPDEST DUP4 DUP6 DUP5 CALLVALUE PUSH2 0x1EB JUMPI PUSH1 0x80 CALLDATASIZE PUSH1 0x3 NOT ADD SLT PUSH2 0x1EB JUMPI PUSH2 0x6DF PUSH2 0x989 JUMP JUMPDEST PUSH1 0x1 PUSH1 0x1 PUSH1 0xA0 SHL SUB SWAP3 SWAP1 PUSH1 0x64 CALLDATALOAD DUP5 DUP2 AND SWAP2 PUSH1 0x24 CALLDATALOAD SWAP2 PUSH1 0x44 CALLDATALOAD SWAP2 SWAP1 DUP5 SWAP1 SUB PUSH2 0x393 JUMPI PUSH2 0x708 PUSH2 0xB53 JUMP JUMPDEST DUP3 ISZERO PUSH2 0x8C1 JUMPI TIMESTAMP DUP3 GT ISZERO PUSH2 0x8B1 JUMPI DUP4 ISZERO PUSH2 0x8A1 JUMPI DUP7 AND SWAP2 DUP3 ISZERO PUSH2 0x8A1 JUMPI DUP6 MLOAD SWAP8 PUSH1 0x20 SWAP9 PUSH4 0x23B872DD PUSH1 0xE0 SHL DUP11 DUP3 ADD MSTORE CALLER PUSH1 0x24 DUP3 ADD MSTORE ADDRESS PUSH1 0x44 DUP3 ADD MSTORE DUP3 PUSH1 0x64 DUP3 ADD MSTORE PUSH1 0x64 DUP2 MSTORE PUSH1 0xA0 DUP2 ADD DUP2 DUP2 LT PUSH8 0xFFFFFFFFFFFFFFFF DUP3 GT OR PUSH2 0x88E JUMPI DUP9 MSTORE PUSH2 0x770 SWAP1 DUP6 PUSH2 0xAEB JUMP JUMPDEST PUSH1 0x2 SLOAD DUP1 SWAP9 PUSH2 0x77E DUP3 PUSH2 0xA2E JUMP JUMPDEST PUSH1 0x2 SSTORE DUP5 DUP12 DUP10 DUP10 DUP13 DUP1 MLOAD SWAP6 PUSH2 0x792 DUP8 PUSH2 0xA53 JUMP JUMPDEST DUP12 DUP8 MSTORE DUP1 DUP6 DUP9 ADD SWAP3 CALLER DUP5 MSTORE DUP1 DUP10 ADD SWAP5 DUP6 MSTORE PUSH1 0x60 DUP10 ADD SWAP6 DUP13 DUP8 MSTORE PUSH1 0x80 DUP11 ADD SWAP8 TIMESTAMP DUP10 MSTORE PUSH1 0xA0 DUP12 ADD SWAP10 DUP11 MSTORE PUSH1 0xC0 DUP12 ADD SWAP12 DUP3 DUP14 MSTORE DUP3 MSTORE PUSH1 0x1 SWAP1 MSTORE KECCAK256 SWAP8 MLOAD AND SWAP2 PUSH12 0xFFFFFFFFFFFFFFFFFFFFFFFF PUSH1 0xA0 SHL SWAP3 DUP4 DUP10 SLOAD AND OR DUP9 SSTORE DUP2 PUSH1 0x1 DUP10 ADD SWAP2 MLOAD AND DUP4 DUP3 SLOAD AND OR SWAP1 SSTORE PUSH1 0x2 DUP8 ADD SWAP3 MLOAD AND SWAP1 DUP3 SLOAD AND OR SWAP1 SSTORE MLOAD PUSH1 0x3 DUP5 ADD SSTORE MLOAD DUP5 DUP4 ADD SSTORE MLOAD PUSH1 0x5 DUP3 ADD SSTORE PUSH1 0x6 ADD SWAP1 MLOAD ISZERO ISZERO PUSH1 0xFF NOT DUP3 SLOAD AND SWAP1 PUSH1 0xFF AND OR SWAP1 SSTORE DUP5 DUP7 MSTORE PUSH1 0x3 DUP10 MSTORE DUP8 DUP8 DUP8 KECCAK256 SWAP1 PUSH2 0x83C SWAP2 PUSH2 0xAA7 JUMP JUMPDEST DUP4 DUP7 MSTORE DUP9 MSTORE DUP7 DUP7 DUP7 KECCAK256 SWAP1 PUSH2 0x84F SWAP2 PUSH2 0xAA7 JUMP JUMPDEST DUP6 MLOAD SWAP4 DUP5 MSTORE DUP8 DUP5 ADD MSTORE DUP5 DUP4 ADD MSTORE DUP5 CALLER SWAP3 PUSH1 0x60 PUSH32 0x2829C874CC2754EFD69C7E3C418A785312752350649B2D9219A7F07B7871839B SWAP2 LOG4 PUSH1 0x1 SWAP1 SSTORE MLOAD SWAP1 DUP2 MSTORE RETURN JUMPDEST PUSH4 0x4E487B71 PUSH1 0xE0 SHL DUP9 MSTORE PUSH1 0x41 DUP4 MSTORE PUSH1 0x24 DUP9 REVERT JUMPDEST DUP6 MLOAD PUSH4 0xD92E233D PUSH1 0xE0 SHL DUP2 MSTORE DUP9 SWAP1 REVERT JUMPDEST DUP6 MLOAD PUSH4 0x52ABA6D3 PUSH1 0xE1 SHL DUP2 MSTORE DUP9 SWAP1 REVERT JUMPDEST DUP6 MLOAD PUSH4 0x162908E3 PUSH1 0xE1 SHL DUP2 MSTORE DUP9 SWAP1 REVERT JUMPDEST DUP6 DUP6 DUP6 CALLVALUE PUSH2 0x132 JUMPI DUP1 PUSH1 0x3 NOT CALLDATASIZE ADD SLT PUSH2 0x132 JUMPI DUP2 CALLDATALOAD DUP1 DUP5 MSTORE PUSH1 0x1 PUSH1 0x20 MSTORE DUP2 DUP5 KECCAK256 PUSH1 0x2 DUP2 ADD SLOAD PUSH1 0x24 CALLDATALOAD SWAP7 SWAP3 SWAP5 SWAP3 SWAP1 PUSH1 0x1 PUSH1 0x1 PUSH1 0xA0 SHL SUB AND CALLER SUB PUSH2 0x97B JUMPI POP PUSH1 0xFF PUSH1 0x6 DUP3 ADD SLOAD AND PUSH2 0x96C JUMPI PUSH1 0x5 ADD SWAP5 DUP6 SLOAD SWAP2 DUP3 DUP3 GT ISZERO PUSH2 0x95E JUMPI POP DUP1 PUSH32 0x12C0F64F942F99AA5210C23A8AB729735389400457B66B06895B0700315C3B33 SWAP5 SWAP6 SWAP7 SSTORE DUP3 MLOAD SWAP2 DUP3 MSTORE PUSH1 0x20 DUP3 ADD MSTORE LOG2 DUP1 RETURN JUMPDEST DUP4 MLOAD PUSH4 0x52ABA6D3 PUSH1 0xE1 SHL DUP2 MSTORE REVERT JUMPDEST POP SWAP1 MLOAD PUSH4 0x6507689F PUSH1 0xE0 SHL DUP2 MSTORE REVERT JUMPDEST PUSH4 0x644D871F PUSH1 0xE0 SHL DUP2 MSTORE SWAP1 POP REVERT JUMPDEST PUSH1 0x4 CALLDATALOAD SWAP1 PUSH1 0x1 PUSH1 0x1 PUSH1 0xA0 SHL SUB DUP3 AND DUP3 SUB PUSH2 0x99F JUMPI JUMP JUMPDEST PUSH1 0x0 DUP1 REVERT JUMPDEST PUSH1 0x20 SWAP1 DUP2 PUSH1 0x40 DUP2 DUP4 ADD SWAP3 DUP3 DUP2 MSTORE DUP6 MLOAD DUP1 SWAP5 MSTORE ADD SWAP4 ADD SWAP2 PUSH1 0x0 JUMPDEST DUP3 DUP2 LT PUSH2 0x9CB JUMPI POP POP POP POP SWAP1 JUMP JUMPDEST DUP4 MLOAD DUP6 MSTORE SWAP4 DUP2 ADD SWAP4 SWAP3 DUP2 ADD SWAP3 PUSH1 0x1 ADD PUSH2 0x9BD JUMP JUMPDEST PUSH1 0xC0 DUP1 SWAP2 PUSH1 0x1 DUP1 PUSH1 0xA0 SHL SUB DUP1 DUP3 MLOAD AND DUP6 MSTORE DUP1 PUSH1 0x20 DUP4 ADD MLOAD AND PUSH1 0x20 DUP7 ADD MSTORE PUSH1 0x40 DUP3 ADD MLOAD AND PUSH1 0x40 DUP6 ADD MSTORE PUSH1 0x60 DUP2 ADD MLOAD PUSH1 0x60 DUP6 ADD MSTORE PUSH1 0x80 DUP2 ADD MLOAD PUSH1 0x80 DUP6 ADD MSTORE PUSH1 0xA0 DUP2 ADD MLOAD PUSH1 0xA0 DUP6 ADD MSTORE ADD MLOAD ISZERO ISZERO SWAP2 ADD MSTORE JUMP JUMPDEST PUSH1 0x0 NOT DUP2 EQ PUSH2 0xA3D JUMPI PUSH1 0x1 ADD SWAP1 JUMP JUMPDEST PUSH4 0x4E487B71 PUSH1 0xE0 SHL PUSH1 0x0 MSTORE PUSH1 0x11 PUSH1 0x4 MSTORE PUSH1 0x24 PUSH1 0x0 REVERT JUMPDEST PUSH1 0xE0 DUP2 ADD SWAP1 DUP2 LT PUSH8 0xFFFFFFFFFFFFFFFF DUP3 GT OR PUSH2 0xA6F JUMPI PUSH1 0x40 MSTORE JUMP JUMPDEST PUSH4 0x4E487B71 PUSH1 0xE0 SHL PUSH1 0x0 MSTORE PUSH1 0x41 PUSH1 0x4 MSTORE PUSH1 0x24 PUSH1 0x0 REVERT JUMPDEST SWAP1 PUSH1 0x1F DUP1 NOT SWAP2 ADD AND DUP2 ADD SWAP1 DUP2 LT PUSH8 0xFFFFFFFFFFFFFFFF DUP3 GT OR PUSH2 0xA6F JUMPI PUSH1 0x40 MSTORE JUMP JUMPDEST DUP1 SLOAD SWAP1 PUSH9 0x10000000000000000 DUP3 LT ISZERO PUSH2 0xA6F JUMPI PUSH1 0x1 DUP3 ADD DUP1 DUP3 SSTORE DUP3 LT ISZERO PUSH2 0xAD5 JUMPI PUSH1 0x0 MSTORE PUSH1 0x20 PUSH1 0x0 KECCAK256 ADD SSTORE JUMP JUMPDEST PUSH4 0x4E487B71 PUSH1 0xE0 SHL PUSH1 0x0 MSTORE PUSH1 0x32 PUSH1 0x4 MSTORE PUSH1 0x24 PUSH1 0x0 REVERT JUMPDEST SWAP1 PUSH1 0x0 PUSH1 0x20 SWAP2 DUP3 DUP2 MLOAD SWAP2 ADD DUP3 DUP6 GAS CALL ISZERO PUSH2 0xB47 JUMPI PUSH1 0x0 MLOAD RETURNDATASIZE PUSH2 0xB3E JUMPI POP PUSH1 0x1 PUSH1 0x1 PUSH1 0xA0 SHL SUB DUP2 AND EXTCODESIZE ISZERO JUMPDEST PUSH2 0xB1C JUMPI POP JUMP JUMPDEST PUSH1 0x40 MLOAD PUSH4 0x5274AFE7 PUSH1 0xE0 SHL DUP2 MSTORE PUSH1 0x1 PUSH1 0x1 PUSH1 0xA0 SHL SUB SWAP1 SWAP2 AND PUSH1 0x4 DUP3 ADD MSTORE PUSH1 0x24 SWAP1 REVERT JUMPDEST PUSH1 0x1 EQ ISZERO PUSH2 0xB15 JUMP JUMPDEST PUSH1 0x40 MLOAD RETURNDATASIZE PUSH1 0x0 DUP3 RETURNDATACOPY RETURNDATASIZE SWAP1 REVERT JUMPDEST PUSH1 0x2 PUSH1 0x0 SLOAD EQ PUSH2 0xB64 JUMPI PUSH1 0x2 PUSH1 0x0 SSTORE JUMP JUMPDEST PUSH1 0x40 MLOAD PUSH4 0x3EE5AEB5 PUSH1 0xE0 SHL DUP2 MSTORE PUSH1 0x4 SWAP1 REVERT JUMPDEST PUSH1 0x40 MLOAD SWAP1 PUSH2 0xB83 DUP3 PUSH2 0xA53 JUMP JUMPDEST DUP2 PUSH1 0xC0 PUSH1 0x0 SWAP2 DUP3 DUP2 MSTORE DUP3 PUSH1 0x20 DUP3 ADD MSTORE DUP3 PUSH1 0x40 DUP3 ADD MSTORE DUP3 PUSH1 0x60 DUP3 ADD MSTORE DUP3 PUSH1 0x80 DUP3 ADD MSTORE DUP3 PUSH1 0xA0 DUP3 ADD MSTORE ADD MSTORE JUMP JUMPDEST PUSH1 0x0 MSTORE PUSH1 0x1 PUSH1 0x20 MSTORE PUSH1 0x40 PUSH1 0x0 KECCAK256 PUSH1 0x40 MLOAD PUSH2 0xBC7 DUP2 PUSH2 0xA53 JUMP JUMPDEST PUSH1 0x1 DUP1 PUSH1 0xA0 SHL SUB DUP1 DUP4 SLOAD AND DUP3 MSTORE DUP1 PUSH1 0x1 DUP5 ADD SLOAD AND PUSH1 0x20 DUP4 ADD MSTORE PUSH1 0x2 DUP4 ADD SLOAD AND PUSH1 0x40 DUP3 ADD MSTORE PUSH1 0x3 DUP3 ADD SLOAD PUSH1 0x60 DUP3 ADD MSTORE PUSH1 0x4 DUP3 ADD SLOAD PUSH1 0x80 DUP3 ADD MSTORE PUSH1 0xC0 PUSH1 0xFF PUSH1 0x6 PUSH1 0x5 DUP6 ADD SLOAD SWAP5 DUP6 PUSH1 0xA0 DUP7 ADD MSTORE ADD SLOAD AND ISZERO ISZERO SWAP2 ADD MSTORE DUP1 TIMESTAMP LT ISZERO PUSH2 0xC2E JUMPI TIMESTAMP DUP2 SUB SWAP1 DUP2 GT PUSH2 0xA3D JUMPI SWAP1 JUMP JUMPDEST POP PUSH1 0x0 SWAP1 JUMP JUMPDEST PUSH8 0xFFFFFFFFFFFFFFFF DUP2 GT PUSH2 0xA6F JUMPI PUSH1 0x5 SHL PUSH1 0x20 ADD SWAP1 JUMP JUMPDEST DUP1 MLOAD DUP3 LT ISZERO PUSH2 0xAD5 JUMPI PUSH1 0x20 SWAP2 PUSH1 0x5 SHL ADD ADD SWAP1 JUMP INVALID LOG2 PUSH5 0x6970667358 0x22 SLT KECCAK256 0xD5 0xAB 0xAC PUSH18 0x5DCD337475C27271085664D16DE3C650DF98 SHR SUB 0x22 DUP2 0xD4 0x2F NOT 0xB1 0xBA 0xD5 PUSH5 0x736F6C6343 STOP ADDMOD EQ STOP CALLER "},"methodIdentifiers":{"extendLock(uint256,uint256)":"070d66bf","getLock(uint256)":"d68f4dd1","getLocksByBeneficiary(address)":"107bf592","getLocksByToken(address)":"24ba88b7","getLocksMulti(uint256[])":"93ad60c4","getTimeUntilUnlock(uint256)":"2f6fe5f7","isLocked(uint256)":"f6aacfb1","lockTokens(address,uint256,uint256,address)":"0aa393f3","totalLockCount()":"b9cb0a85","transferBeneficiary(uint256,address)":"0d6dd343","withdrawTokens(uint256)":"315a095d"}}}}}