{
  "_format": "hh-sol-artifact-1",
  "contractName": "PresaleFactory",
  "sourceName": "contracts/std-presale/PresaleFactory.sol",
  "abi": [
    {
      "inputs": [
        {
          "internalType": "address",
          "name": "_feeSplitter",
          "type": "address"
        },
        {
          "internalType": "address",
          "name": "_timelockExecutor",
          "type": "address"
        },
        {
          "internalType": "address",
          "name": "_dexRouter",
          "type": "address"
        },
        {
          "internalType": "address",
          "name": "_lpLocker",
          "type": "address"
        }
      ],
      "stateMutability": "nonpayable",
      "type": "constructor"
    },
    {
      "inputs": [],
      "name": "AccessControlBadConfirmation",
      "type": "error"
    },
    {
      "inputs": [
        {
          "internalType": "address",
          "name": "account",
          "type": "address"
        },
        {
          "internalType": "bytes32",
          "name": "neededRole",
          "type": "bytes32"
        }
      ],
      "name": "AccessControlUnauthorizedAccount",
      "type": "error"
    },
    {
      "inputs": [],
      "name": "InsufficientLPLockDuration",
      "type": "error"
    },
    {
      "inputs": [],
      "name": "InvalidCapRange",
      "type": "error"
    },
    {
      "inputs": [],
      "name": "InvalidContributionRange",
      "type": "error"
    },
    {
      "inputs": [],
      "name": "InvalidLiquidityPercent",
      "type": "error"
    },
    {
      "inputs": [],
      "name": "InvalidTimeRange",
      "type": "error"
    },
    {
      "inputs": [],
      "name": "ZeroAddress",
      "type": "error"
    },
    {
      "anonymous": false,
      "inputs": [
        {
          "indexed": true,
          "internalType": "address",
          "name": "round",
          "type": "address"
        },
        {
          "indexed": false,
          "internalType": "uint256",
          "name": "lockMonths",
          "type": "uint256"
        },
        {
          "indexed": false,
          "internalType": "bytes32",
          "name": "dexId",
          "type": "bytes32"
        },
        {
          "indexed": false,
          "internalType": "uint256",
          "name": "liquidityPercent",
          "type": "uint256"
        }
      ],
      "name": "LPPlanRecorded",
      "type": "event"
    },
    {
      "anonymous": false,
      "inputs": [
        {
          "indexed": true,
          "internalType": "uint256",
          "name": "presaleId",
          "type": "uint256"
        },
        {
          "indexed": true,
          "internalType": "address",
          "name": "round",
          "type": "address"
        },
        {
          "indexed": true,
          "internalType": "address",
          "name": "vesting",
          "type": "address"
        },
        {
          "indexed": false,
          "internalType": "bytes32",
          "name": "scheduleSalt",
          "type": "bytes32"
        },
        {
          "indexed": false,
          "internalType": "bytes32",
          "name": "complianceHash",
          "type": "bytes32"
        }
      ],
      "name": "PresaleCreated",
      "type": "event"
    },
    {
      "anonymous": false,
      "inputs": [
        {
          "indexed": true,
          "internalType": "bytes32",
          "name": "role",
          "type": "bytes32"
        },
        {
          "indexed": true,
          "internalType": "bytes32",
          "name": "previousAdminRole",
          "type": "bytes32"
        },
        {
          "indexed": true,
          "internalType": "bytes32",
          "name": "newAdminRole",
          "type": "bytes32"
        }
      ],
      "name": "RoleAdminChanged",
      "type": "event"
    },
    {
      "anonymous": false,
      "inputs": [
        {
          "indexed": true,
          "internalType": "bytes32",
          "name": "role",
          "type": "bytes32"
        },
        {
          "indexed": true,
          "internalType": "address",
          "name": "account",
          "type": "address"
        },
        {
          "indexed": true,
          "internalType": "address",
          "name": "sender",
          "type": "address"
        }
      ],
      "name": "RoleGranted",
      "type": "event"
    },
    {
      "anonymous": false,
      "inputs": [
        {
          "indexed": true,
          "internalType": "bytes32",
          "name": "role",
          "type": "bytes32"
        },
        {
          "indexed": true,
          "internalType": "address",
          "name": "account",
          "type": "address"
        },
        {
          "indexed": true,
          "internalType": "address",
          "name": "sender",
          "type": "address"
        }
      ],
      "name": "RoleRevoked",
      "type": "event"
    },
    {
      "anonymous": false,
      "inputs": [
        {
          "indexed": true,
          "internalType": "address",
          "name": "vesting",
          "type": "address"
        },
        {
          "indexed": true,
          "internalType": "address",
          "name": "rootSetter",
          "type": "address"
        }
      ],
      "name": "RolesGranted",
      "type": "event"
    },
    {
      "inputs": [],
      "name": "DEFAULT_ADMIN_ROLE",
      "outputs": [
        {
          "internalType": "bytes32",
          "name": "",
          "type": "bytes32"
        }
      ],
      "stateMutability": "view",
      "type": "function"
    },
    {
      "inputs": [],
      "name": "FACTORY_ADMIN_ROLE",
      "outputs": [
        {
          "internalType": "bytes32",
          "name": "",
          "type": "bytes32"
        }
      ],
      "stateMutability": "view",
      "type": "function"
    },
    {
      "inputs": [
        {
          "components": [
            {
              "internalType": "address",
              "name": "projectToken",
              "type": "address"
            },
            {
              "internalType": "address",
              "name": "paymentToken",
              "type": "address"
            },
            {
              "internalType": "uint256",
              "name": "softCap",
              "type": "uint256"
            },
            {
              "internalType": "uint256",
              "name": "hardCap",
              "type": "uint256"
            },
            {
              "internalType": "uint256",
              "name": "minContribution",
              "type": "uint256"
            },
            {
              "internalType": "uint256",
              "name": "maxContribution",
              "type": "uint256"
            },
            {
              "internalType": "uint256",
              "name": "startTime",
              "type": "uint256"
            },
            {
              "internalType": "uint256",
              "name": "endTime",
              "type": "uint256"
            },
            {
              "internalType": "address",
              "name": "projectOwner",
              "type": "address"
            }
          ],
          "internalType": "struct PresaleFactory.CreatePresaleParams",
          "name": "params",
          "type": "tuple"
        },
        {
          "components": [
            {
              "internalType": "uint256",
              "name": "tgeUnlockBps",
              "type": "uint256"
            },
            {
              "internalType": "uint256",
              "name": "cliffDuration",
              "type": "uint256"
            },
            {
              "internalType": "uint256",
              "name": "vestingDuration",
              "type": "uint256"
            }
          ],
          "internalType": "struct PresaleFactory.VestingParams",
          "name": "vestingParams",
          "type": "tuple"
        },
        {
          "components": [
            {
              "internalType": "uint256",
              "name": "lockMonths",
              "type": "uint256"
            },
            {
              "internalType": "bytes32",
              "name": "dexId",
              "type": "bytes32"
            },
            {
              "internalType": "uint256",
              "name": "liquidityPercent",
              "type": "uint256"
            }
          ],
          "internalType": "struct PresaleFactory.LPLockPlan",
          "name": "lpPlan",
          "type": "tuple"
        },
        {
          "internalType": "bytes32",
          "name": "complianceHash",
          "type": "bytes32"
        }
      ],
      "name": "createPresale",
      "outputs": [
        {
          "internalType": "address",
          "name": "round",
          "type": "address"
        },
        {
          "internalType": "address",
          "name": "vesting",
          "type": "address"
        }
      ],
      "stateMutability": "nonpayable",
      "type": "function"
    },
    {
      "inputs": [],
      "name": "dexRouter",
      "outputs": [
        {
          "internalType": "address",
          "name": "",
          "type": "address"
        }
      ],
      "stateMutability": "view",
      "type": "function"
    },
    {
      "inputs": [],
      "name": "feeSplitter",
      "outputs": [
        {
          "internalType": "address",
          "name": "",
          "type": "address"
        }
      ],
      "stateMutability": "view",
      "type": "function"
    },
    {
      "inputs": [
        {
          "internalType": "uint256",
          "name": "presaleId",
          "type": "uint256"
        }
      ],
      "name": "getPresaleDetails",
      "outputs": [
        {
          "internalType": "address",
          "name": "round",
          "type": "address"
        },
        {
          "internalType": "address",
          "name": "vesting",
          "type": "address"
        },
        {
          "internalType": "bytes32",
          "name": "scheduleSalt",
          "type": "bytes32"
        },
        {
          "internalType": "bytes32",
          "name": "complianceHash",
          "type": "bytes32"
        },
        {
          "components": [
            {
              "internalType": "uint256",
              "name": "lockMonths",
              "type": "uint256"
            },
            {
              "internalType": "bytes32",
              "name": "dexId",
              "type": "bytes32"
            },
            {
              "internalType": "uint256",
              "name": "liquidityPercent",
              "type": "uint256"
            }
          ],
          "internalType": "struct PresaleFactory.LPLockPlan",
          "name": "lpPlan",
          "type": "tuple"
        }
      ],
      "stateMutability": "view",
      "type": "function"
    },
    {
      "inputs": [
        {
          "internalType": "bytes32",
          "name": "role",
          "type": "bytes32"
        }
      ],
      "name": "getRoleAdmin",
      "outputs": [
        {
          "internalType": "bytes32",
          "name": "",
          "type": "bytes32"
        }
      ],
      "stateMutability": "view",
      "type": "function"
    },
    {
      "inputs": [
        {
          "internalType": "address",
          "name": "round",
          "type": "address"
        }
      ],
      "name": "getScheduleSalt",
      "outputs": [
        {
          "internalType": "bytes32",
          "name": "",
          "type": "bytes32"
        }
      ],
      "stateMutability": "view",
      "type": "function"
    },
    {
      "inputs": [
        {
          "internalType": "address",
          "name": "round",
          "type": "address"
        }
      ],
      "name": "getVestingForRound",
      "outputs": [
        {
          "internalType": "address",
          "name": "",
          "type": "address"
        }
      ],
      "stateMutability": "view",
      "type": "function"
    },
    {
      "inputs": [
        {
          "internalType": "bytes32",
          "name": "role",
          "type": "bytes32"
        },
        {
          "internalType": "address",
          "name": "account",
          "type": "address"
        }
      ],
      "name": "grantRole",
      "outputs": [],
      "stateMutability": "nonpayable",
      "type": "function"
    },
    {
      "inputs": [
        {
          "internalType": "bytes32",
          "name": "role",
          "type": "bytes32"
        },
        {
          "internalType": "address",
          "name": "account",
          "type": "address"
        }
      ],
      "name": "hasRole",
      "outputs": [
        {
          "internalType": "bool",
          "name": "",
          "type": "bool"
        }
      ],
      "stateMutability": "view",
      "type": "function"
    },
    {
      "inputs": [],
      "name": "lpLocker",
      "outputs": [
        {
          "internalType": "address",
          "name": "",
          "type": "address"
        }
      ],
      "stateMutability": "view",
      "type": "function"
    },
    {
      "inputs": [],
      "name": "presaleCount",
      "outputs": [
        {
          "internalType": "uint256",
          "name": "",
          "type": "uint256"
        }
      ],
      "stateMutability": "view",
      "type": "function"
    },
    {
      "inputs": [
        {
          "internalType": "bytes32",
          "name": "role",
          "type": "bytes32"
        },
        {
          "internalType": "address",
          "name": "callerConfirmation",
          "type": "address"
        }
      ],
      "name": "renounceRole",
      "outputs": [],
      "stateMutability": "nonpayable",
      "type": "function"
    },
    {
      "inputs": [
        {
          "internalType": "bytes32",
          "name": "role",
          "type": "bytes32"
        },
        {
          "internalType": "address",
          "name": "account",
          "type": "address"
        }
      ],
      "name": "revokeRole",
      "outputs": [],
      "stateMutability": "nonpayable",
      "type": "function"
    },
    {
      "inputs": [
        {
          "internalType": "address",
          "name": "",
          "type": "address"
        }
      ],
      "name": "roundToComplianceHash",
      "outputs": [
        {
          "internalType": "bytes32",
          "name": "",
          "type": "bytes32"
        }
      ],
      "stateMutability": "view",
      "type": "function"
    },
    {
      "inputs": [
        {
          "internalType": "address",
          "name": "",
          "type": "address"
        }
      ],
      "name": "roundToLPPlan",
      "outputs": [
        {
          "internalType": "uint256",
          "name": "lockMonths",
          "type": "uint256"
        },
        {
          "internalType": "bytes32",
          "name": "dexId",
          "type": "bytes32"
        },
        {
          "internalType": "uint256",
          "name": "liquidityPercent",
          "type": "uint256"
        }
      ],
      "stateMutability": "view",
      "type": "function"
    },
    {
      "inputs": [
        {
          "internalType": "address",
          "name": "",
          "type": "address"
        }
      ],
      "name": "roundToScheduleSalt",
      "outputs": [
        {
          "internalType": "bytes32",
          "name": "",
          "type": "bytes32"
        }
      ],
      "stateMutability": "view",
      "type": "function"
    },
    {
      "inputs": [
        {
          "internalType": "address",
          "name": "",
          "type": "address"
        }
      ],
      "name": "roundToVesting",
      "outputs": [
        {
          "internalType": "address",
          "name": "",
          "type": "address"
        }
      ],
      "stateMutability": "view",
      "type": "function"
    },
    {
      "inputs": [
        {
          "internalType": "uint256",
          "name": "",
          "type": "uint256"
        }
      ],
      "name": "rounds",
      "outputs": [
        {
          "internalType": "address",
          "name": "",
          "type": "address"
        }
      ],
      "stateMutability": "view",
      "type": "function"
    },
    {
      "inputs": [
        {
          "internalType": "address",
          "name": "_r",
          "type": "address"
        }
      ],
      "name": "setDexRouter",
      "outputs": [],
      "stateMutability": "nonpayable",
      "type": "function"
    },
    {
      "inputs": [
        {
          "internalType": "address",
          "name": "_l",
          "type": "address"
        }
      ],
      "name": "setLPLocker",
      "outputs": [],
      "stateMutability": "nonpayable",
      "type": "function"
    },
    {
      "inputs": [
        {
          "internalType": "bytes4",
          "name": "interfaceId",
          "type": "bytes4"
        }
      ],
      "name": "supportsInterface",
      "outputs": [
        {
          "internalType": "bool",
          "name": "",
          "type": "bool"
        }
      ],
      "stateMutability": "view",
      "type": "function"
    },
    {
      "inputs": [],
      "name": "timelockExecutor",
      "outputs": [
        {
          "internalType": "address",
          "name": "",
          "type": "address"
        }
      ],
      "stateMutability": "view",
      "type": "function"
    }
  ],
  "bytecode": "0x60c0346200014e57601f620054c338819003918201601f191683019291906001600160401b03841183851017620001535781608092849260409687528339810103126200014e57620000518162000169565b90620000606020820162000169565b6200007b60606200007386850162000169565b930162000169565b916001600160a01b0390848216156200013d57818316156200013d5781169283156200013d57169283156200012c5760805260a05260018060a01b0319908160015416176001556002541617600255620000d5336200017e565b50620000e133620001fe565b50516152029081620002a182396080518181816105570152818161065d015281816106a80152610c56015260a0518181816101bc015281816104460152818161059101526107e10152f35b845163d92e233d60e01b8152600490fd5b855163d92e233d60e01b8152600490fd5b600080fd5b634e487b7160e01b600052604160045260246000fd5b51906001600160a01b03821682036200014e57565b6001600160a01b031660008181527fad3228b676f7d3cd4284a5443f17f1962b36e491b30a40b2405849e597ba5fb5602052604081205490919060ff16620001fa57818052816020526040822081835260205260408220600160ff198254161790553391600080516020620054a38339815191528180a4600190565b5090565b6001600160a01b031660008181527f40d6054e7c1e32abf36e71c717b2201c6fb50ee4639813ce060d4f8ffbb78bdd60205260408120549091907fbd5d72ac35ae1e83aa0625c57eddda63fbb064a87fca99dfdd7ce027384ae2829060ff166200029b57808352826020526040832082845260205260408320600160ff19825416179055600080516020620054a3833981519152339380a4600190565b50509056fe60808060405260043610156200001457600080fd5b600090813560e01c90816301ffc9a71462000e7d5750806303fc20131462000e525780630758d9241462000e27578063076e7fd31462000c85578063248a9ca31462000df95780632f2ff15d1462000db45780633360cf5e1462000d7757806336568abe1462000d285780634732f00e1462000cc55780635ccbf6711462000c855780636052970c1462000c3e5780638c65c81f1462000c0957806391d148541462000bbd578063a217fddf1462000b9f578063b1012ec91462000a4e578063b524f87b1462000b51578063bda75e6d1462000a8b578063ca807e681462000a4e578063cde27a351462000a2e578063d547741f14620009e5578063e82f1c0a14620009a8578063ea1b61ba14620001eb578063f6a4ad6514620001a45763f72f863b146200014257600080fd5b34620001a1576020366003190112620001a1576200015f62000ed7565b6200016962000f05565b6001600160a01b031680156200018f576001600160601b0360a01b600154161760015580f35b60405163d92e233d60e01b8152600490fd5b80fd5b5034620001a15780600319360112620001a1576040517f00000000000000000000000000000000000000000000000000000000000000006001600160a01b03168152602090f35b5034620001a15736600319016102008112620009a45761012013620001a157606036610123190112620001a157606036610183190112620001a1577fbd5d72ac35ae1e83aa0625c57eddda63fbb064a87fca99dfdd7ce027384ae282808252816020526040822033835260205260ff604083205416156200098657506064356044351015620009745760443515620009745760e43560c435101562000962574260c4351115620009625760a435608435116200095057608435156200095057600c61018435106200093e576113886101c4351080156200092f575b6200091d576001600160a01b03620002dd6200105c565b16156200018f576001600160a01b03620002f662001073565b16156200018f57600354906200030b62001073565b620003156200105c565b6040519360208501524260408501526001600160601b0319809260601b16606085015260601b166074830152606882528160a081011067ffffffffffffffff60a084011117620009095760a082016040528151602083012091620003786200105c565b60a0820160a0610fcf8401011067ffffffffffffffff60a0610fcf8501011117620008f557610fcf620010d460a08401396001600160a01b0316610fcf820160a0818101929092526101243560c0808301919091526101443560e0830152610164356101008301526101208201869052306101408301529083900301910182f08015620008e8576001600160a01b031690813b15620001a157604051632f2ff15d60e01b81527fa49807205ce4d355092ef5a8a18f56e8913cf4a201fbe287825b095693c2177560048201527f00000000000000000000000000000000000000000000000000000000000000006001600160a01b03166024820152818160448183875af180156200089e57620008d6575b5090620004956200105c565b6024356001600160a01b0381168103620008d157620004b362001073565b6001546002546001600160a01b0390811693911691906101843562278d008082028290041490151715620008bd57604051948561312a81011067ffffffffffffffff61312a88011117620008a95761312a620020a387396001600160a01b0390811661312a8701908152918116602083015260443560408301526064356060830152608435608083015260a43560a083015260c43560c083015260e43560e08301527f0000000000000000000000000000000000000000000000000000000000000000811661010083015261012082018790529182166101408201527f00000000000000000000000000000000000000000000000000000000000000009091166101608201526101808101919091526101a08101919091526101c4356101c08201526101843562278d00026101e0820152819003610200019083f080156200089e576001600160a01b0316813b156200087757604051632f2ff15d60e01b81527fa49807205ce4d355092ef5a8a18f56e8913cf4a201fbe287825b095693c21775600482015260248101829052838160448183875af180156200087b5790849162000886575b50507f00000000000000000000000000000000000000000000000000000000000000006001600160a01b03163b15620008775760405163105fad9b60e21b8152600481018290528381602481837f00000000000000000000000000000000000000000000000000000000000000006001600160a01b03165af180156200087b579084916200085f575b505060035483526004602052604083206001600160601b0360a01b908282825416179055818452600560205282604085209182541617905560066020528360408420556007602052807fda79e99dc31a6b02a1a6d9e3758c6d0ef34606738cc48a1ff703d6566b040626620007d86101e4358060408820556008602052858460408920926101843584556101a4359384600182015560026101c4359101557f42074357c57268478f25edbb5880a4b5604f55cf132f7c8e21ab8d46a128296960406003549c8d9382519182526020820152a46040805161018435815260208101929092526101c435908201529081906060820190565b0390a2604051927f00000000000000000000000000000000000000000000000000000000000000006001600160a01b0316837f68761163edc0e36a9b4d28b0260a8c3d198cf5f21f582d72561bdcb89b3f29078380a360001985146200084b575060016040940160035582526020820152f35b634e487b7160e01b81526011600452602490fd5b6200086a90620010be565b62000877578238620006e2565b8280fd5b6040513d86823e3d90fd5b6200089190620010be565b6200087757823862000659565b6040513d84823e3d90fd5b634e487b7160e01b88526041600452602488fd5b634e487b7160e01b87526011600452602487fd5b600080fd5b620008e190620010be565b3862000489565b50604051903d90823e3d90fd5b634e487b7160e01b83526041600452602483fd5b634e487b7160e01b81526041600452602490fd5b6040516351424f0b60e11b8152600490fd5b506123286101c43511620002c6565b6040516376a12a0f60e11b8152600490fd5b60405163102df2a160e11b8152600490fd5b60405163536a71af60e01b8152600490fd5b60405163f5cae40b60e01b8152600490fd5b6044906040519063e2517d3f60e01b82523360048301526024820152fd5b5080fd5b5034620001a1576020366003190112620001a1576020906040906001600160a01b03620009d462000ed7565b168152600783522054604051908152f35b5034620001a1576040366003190112620001a15762000a2a60043562000a0a62000eee565b908084528360205262000a24600160408620015462000f40565b62000fe6565b5080f35b5034620001a15780600319360112620001a1576020600354604051908152f35b5034620001a1576020366003190112620001a1576020906040906001600160a01b0362000a7a62000ed7565b168152600683522054604051908152f35b5034620001a157602080600319360112620009a4579060e091816040805162000ab4816200108b565b8281528284820152015260043582526004815260018060a01b03918260408220541692838252600583526040822054166006835260408220549160078452604080822054916008865220926040519262000b0e846200108b565b84548452600260018601549587860196875201549560408501968752604051978852870152604086015260608501525160808401525160a08301525160c0820152f35b5034620001a1576020366003190112620001a15762000b6f62000ed7565b62000b7962000f05565b6001600160a01b031680156200018f576001600160601b0360a01b600254161760025580f35b5034620001a15780600319360112620001a157602090604051908152f35b5034620001a1576040366003190112620001a15760ff604060209262000be262000eee565b60043582528185528282206001600160a01b03909116825284522054604051911615158152f35b5034620001a1576020366003190112620001a157602090600435815260048252604060018060a01b0391205416604051908152f35b5034620001a15780600319360112620001a1576040517f00000000000000000000000000000000000000000000000000000000000000006001600160a01b03168152602090f35b5034620001a1576020366003190112620001a1576020906001600160a01b03906040908262000cb362000ed7565b16815260058452205416604051908152f35b5034620001a1576020366003190112620001a1576040906001600160a01b0362000cee62000ed7565b168152600860205220805462000d2460026001840154930154604051938493846040919493926060820195825260208201520152565b0390f35b5034620001a1576040366003190112620001a15762000d4662000eee565b336001600160a01b0382160362000d655762000a2a9060043562000fe6565b60405163334bd91960e11b8152600490fd5b5034620001a15780600319360112620001a15760206040517fbd5d72ac35ae1e83aa0625c57eddda63fbb064a87fca99dfdd7ce027384ae2828152f35b5034620001a1576040366003190112620001a15762000a2a60043562000dd962000eee565b908084528360205262000df3600160408620015462000f40565b62000f67565b5034620001a1576020366003190112620001a157600160406020926004358152808452200154604051908152f35b5034620001a15780600319360112620001a1576001546040516001600160a01b039091168152602090f35b5034620001a15780600319360112620001a1576002546040516001600160a01b039091168152602090f35b905034620009a4576020366003190112620009a45760043563ffffffff60e01b8116809103620008775760209250637965db0b60e01b811490811562000ec5575b5015158152f35b6301ffc9a760e01b1490503862000ebe565b600435906001600160a01b0382168203620008d157565b602435906001600160a01b0382168203620008d157565b3360009081527fad3228b676f7d3cd4284a5443f17f1962b36e491b30a40b2405849e597ba5fb5602052604081205460ff1615620009865750565b80600052600060205260406000203360005260205260ff6040600020541615620009865750565b9060009180835282602052604083209160018060a01b03169182845260205260ff6040842054161560001462000fe157808352826020526040832082845260205260408320600160ff198254161790557f2f8788117e7eff1d82e926ec794901d17c78024a50270940304540a733656f0d339380a4600190565b505090565b9060009180835282602052604083209160018060a01b03169182845260205260ff60408420541660001462000fe15780835282602052604083208284526020526040832060ff1981541690557ff6391f5c32d9c69d2a47ea670b442974b53935d1edc7fd64eb21e047a839171b339380a4600190565b6004356001600160a01b0381168103620008d15790565b610104356001600160a01b0381168103620008d15790565b6060810190811067ffffffffffffffff821117620010a857604052565b634e487b7160e01b600052604160045260246000fd5b67ffffffffffffffff8111620010a85760405256fe6101203461010d57601f610fcf38819003918201601f19168301916001600160401b038311848410176101125780849260c09460405283398101031261010d5761009361004b82610128565b6020830151604084015160608501519161006c60a060808801519701610128565b93600160005560805260a05260c05260e05261010092835261008d8161013c565b506101bb565b50604051610d52918261025d833960805182818161011c0152818161040401526107ce015260a0518281816101aa015281816109dc0152610bf2015260c0518281816101cd0152818161023b0152610c20015260e0518281816101f3015281816109a10152610c4e01525181818161016801526106790152f35b600080fd5b634e487b7160e01b600052604160045260246000fd5b51906001600160a01b038216820361010d57565b6001600160a01b031660008181527fa6eef7e35abe7026729641147f7915573c7e97b47efa546f5f6e3230263bcb49602052604081205490919060ff166101b75781805260016020526040822081835260205260408220600160ff198254161790553391600080516020610faf8339815191528180a4600190565b5090565b6001600160a01b031660008181527f50efbde2d46c37e9785f1791697f77e94bb7b701e19f1930a668820722d3769460205260408120549091907fa49807205ce4d355092ef5a8a18f56e8913cf4a201fbe287825b095693c217759060ff166102575780835260016020526040832082845260205260408320600160ff19825416179055600080516020610faf833981519152339380a4600190565b50509056fe608080604052600436101561001357600080fd5b60003560e01c90816301ffc9a7146109ff5750806314f41d73146109c45780631514617e14610989578063248a9ca31461095a5780632eb4a7ab1461093c5780632f2ff15d146108fd5780632f52ebb7146105f357806336568abe146105ac57806345f7f2491461058e5780636f5244b11461055f57806375b238fc146105245780637c382d0b1461036057806391d1485414610313578063a217fddf146102f7578063a4317ef4146102d9578063c884ef831461029f578063d547741f1461025e578063d85349f714610223578063dc25a3001461018b578063e1f05ec4146101505763fc0c546a1461010657600080fd5b3461014b57600036600319011261014b576040517f00000000000000000000000000000000000000000000000000000000000000006001600160a01b03168152602090f35b600080fd5b3461014b57600036600319011261014b5760206040517f00000000000000000000000000000000000000000000000000000000000000008152f35b3461014b57600036600319011261014b5760a0600354600254604051917f000000000000000000000000000000000000000000000000000000000000000083527f000000000000000000000000000000000000000000000000000000000000000060208401527f0000000000000000000000000000000000000000000000000000000000000000604084015260608301526080820152f35b3461014b57600036600319011261014b5760206040517f00000000000000000000000000000000000000000000000000000000000000008152f35b3461014b57604036600319011261014b5761029d60043561027d610a52565b90806000526001602052610298600160406000200154610a7e565b610b24565b005b3461014b57602036600319011261014b576001600160a01b036102c0610a68565b1660005260056020526020604060002054604051908152f35b3461014b57600036600319011261014b576020600354604051908152f35b3461014b57600036600319011261014b57602060405160008152f35b3461014b57604036600319011261014b5761032c610a52565b600435600052600160205260406000209060018060a01b0316600052602052602060ff604060002054166040519015158152f35b3461014b57604036600319011261014b573360009081527f50efbde2d46c37e9785f1791697f77e94bb7b701e19f1930a668820722d3769460209081526040909120546004359190602435907fa49807205ce4d355092ef5a8a18f56e8913cf4a201fbe287825b095693c217759060ff161561050657506002546104f45782156104e25780156104d0576040516370a0823160e01b815230600482015282816024817f00000000000000000000000000000000000000000000000000000000000000006001600160a01b03165afa80156104c4578291600091610493575b5010610481577fc7ce8037cbac8a577b7d8edd9340b4dbb1e691f2eb699b97f5c7576b0e9ede0491604091846002554260035580600455825191428352820152a2005b6040516314ecd6c760e01b8152600490fd5b809250848092503d83116104bd575b6104ac8183610b9b565b8101031261014b578190518561043e565b503d6104a2565b6040513d6000823e3d90fd5b60405163ba0d87b560e01b8152600490fd5b6040516309bde33960e01b8152600490fd5b60405163b466ddbf60e01b8152600490fd5b6044906040519063e2517d3f60e01b82523360048301526024820152fd5b3461014b57600036600319011261014b5760206040517fa49807205ce4d355092ef5a8a18f56e8913cf4a201fbe287825b095693c217758152f35b3461014b57604036600319011261014b57602061058661057d610a68565b60243590610cd5565b604051908152f35b3461014b57600036600319011261014b576020600454604051908152f35b3461014b57604036600319011261014b576105c5610a52565b336001600160a01b038216036105e15761029d90600435610b24565b60405163334bd91960e11b8152600490fd5b3461014b57604036600319011261014b5767ffffffffffffffff6024351161014b5736602360243501121561014b5767ffffffffffffffff602435600401351161014b576005366024803560040135831b813501011161014b576002600054146108eb57600260005560025480156108d9576040513060601b60208201524660348201527f000000000000000000000000000000000000000000000000000000000000000060548201523360601b60748201526004356088820152608881528060c081011067ffffffffffffffff60c0830111176108a15760c08101604052805160208201206106f1602060243560040135861b0160c08401610b9b565b60248035600481013560c08501520160e083015b6024803560040135871b8135010182106108c9575050906000915b60c08201518310156107845782851b820160e0015190818110156107735760005260205260406000205b91600019811461075d5760010191610720565b634e487b7160e01b600052601160045260246000fd5b90600052602052604060002061074a565b915050036104e257610797600435610bea565b3360005281602052604060002054808211156108b7576107b79082610bbd565b913360005260205260406000205560018060a01b037f0000000000000000000000000000000000000000000000000000000000000000166040516020810163a9059cbb60e01b815233602483015283604483015260448252608082019082821067ffffffffffffffff8311176108a157602092600092604052519082855af1156104c4576000513d6108985750803b155b61088057506040519081527fd8138f8a3f377c5259ca548e70e4c2de94f129f5a11036a15b69513cba2b426a60203392a26001600055005b60249060405190635274afe760e01b82526004820152fd5b60011415610848565b634e487b7160e01b600052604160045260246000fd5b6040516312d37ee560e31b8152600490fd5b8135815260209182019101610705565b604051631c8b625960e01b8152600490fd5b604051633ee5aeb560e01b8152600490fd5b3461014b57604036600319011261014b5761029d60043561091c610a52565b90806000526001602052610937600160406000200154610a7e565b610aa4565b3461014b57600036600319011261014b576020600254604051908152f35b3461014b57602036600319011261014b5760043560005260016020526020600160406000200154604051908152f35b3461014b57600036600319011261014b5760206040517f00000000000000000000000000000000000000000000000000000000000000008152f35b3461014b57600036600319011261014b5760206040517f00000000000000000000000000000000000000000000000000000000000000008152f35b3461014b57602036600319011261014b576004359063ffffffff60e01b821680920361014b57602091637965db0b60e01b8114908115610a41575b5015158152f35b6301ffc9a760e01b14905083610a3a565b602435906001600160a01b038216820361014b57565b600435906001600160a01b038216820361014b57565b80600052600160205260406000203360005260205260ff60406000205416156105065750565b906000918083526001602052604083209160018060a01b03169182845260205260ff60408420541615600014610b1f5780835260016020526040832082845260205260408320600160ff198254161790557f2f8788117e7eff1d82e926ec794901d17c78024a50270940304540a733656f0d339380a4600190565b505090565b906000918083526001602052604083209160018060a01b03169182845260205260ff604084205416600014610b1f578083526001602052604083208284526020526040832060ff1981541690557ff6391f5c32d9c69d2a47ea670b442974b53935d1edc7fd64eb21e047a839171b339380a4600190565b90601f8019910116810190811067ffffffffffffffff8211176108a157604052565b9190820391821161075d57565b8181029291811591840414171561075d57565b9190820180921161075d57565b612710610c177f000000000000000000000000000000000000000000000000000000000000000083610bca565b04610c456003547f000000000000000000000000000000000000000000000000000000000000000090610bdd565b804210610ccf577f000000000000000000000000000000000000000000000000000000000000000092610c788483610bdd565b421015610cc85790610c97610c9084610c9d94610bbd565b9142610bbd565b90610bca565b918015610cb257610caf920490610bdd565b90565b634e487b7160e01b600052601260045260246000fd5b9250505090565b50905090565b9060025415610d1557610ce790610bea565b6001600160a01b03909116600090815260056020526040812054909181811115610b1f57610caf9250610bbd565b505060009056fea26469706673582212208a4b9c712498a497611d6b6e187d91a95c98a0148e64bd12045f9c86e25d5c9d64736f6c634300081400332f8788117e7eff1d82e926ec794901d17c78024a50270940304540a733656f0d34620004de576200312a38819003610280601f8201601f19168101906001600160401b03821190821017620003af576102009282916040526102803912620004de576200004e610280620004e3565b6200005b6102a0620004e3565b6102c0516102e05161030051610320516103405161036051939695949362000085610380620004e3565b91620000936103a0620004e3565b93620000a16103c0620004e3565b95620000af6103e0620004e3565b9a620000bd610400620004e3565b98620000cb610420620004e3565b61044051610260526104605160016000559c909b90828410620004cc5786881115620004cc576001600160a01b0389811615620004ba57808b1615620004ba57808c1615620004ba5761271061026051116200048457808d161580159062000478575b1562000445578d161580159062000439575b1562000406576301e133808e10801590620003fa575b15620003c55760805260a05260c05260e05261010052610120526101405261016052610180526101a0526101c0526101e05261020052620001bd610260519261022093845261024092835260ff1960075416600755620001b681620004f8565b5062000579565b50604051608081016001600160401b03811182821017620003af57604052603260606101f49283815260fa602082015260c86040820152015260035560fa60045560c8600555603260065560405190612aed92836200061d843960805183818161065601528181610b5301528181610c6a01528181610df001528181611b250152611cea015260a0518381816110ef0152818161193901528181611d770152612144015260c05183818161030b015281816111fe01528181611594015281816116be0152611c7f015260e05183818161026e015281816116e30152818161190901528181611e1a01526128550152610100518381816112b701526118b00152610120518381816115cf01526118d70152610140518381816113110152818161166401528181611709015261276a01526101605183818161172f0152818161210c0152612812015261018051838181610aa201528181611a9e01528181611da70152611fbc01526101a05183818161036701528181610c3a015281816114620152611d1101526101c051838181610558015281816107f3015281816114a60152611cc001526101e05183818161063001526122f001526102005183818161077401526123340152518281816104bb01528181610a7001528181610d3b015261104e0152518181816107a60152610f6e0152f35b634e487b7160e01b600052604160045260246000fd5b60405162461bcd60e51b815260206004820152600d60248201526c4d494e5f31325f4d4f4e54485360981b6044820152606490fd5b50610260511562000156565b60405162461bcd60e51b815260206004820152600b60248201526a2722a2a22fa627a1a5a2a960a91b6044820152606490fd5b50610260511562000140565b60405162461bcd60e51b815260206004820152600b60248201526a2722a2a22fa927aaaa22a960a91b6044820152606490fd5b5061026051156200012e565b60405162461bcd60e51b815260206004820152600e60248201526d494e56414c49445f4c505f42505360901b6044820152606490fd5b60405163e6c4247b60e01b8152600490fd5b6040516307a92f1960e51b8152600490fd5b600080fd5b51906001600160a01b0382168203620004de57565b6001600160a01b031660008181527fac33ff75c19e70fe83507db0d683fd3465c996598dc972688b7ace676c89077b602052604081205490919060ff16620005755781805260026020526040822081835260205260408220600160ff1982541617905533916000805160206200310a8339815191528180a4600190565b5090565b6001600160a01b031660008181527fe5ebfa64fca8d502a8e50c1edffd2c31ef4dad5b396e65d9f397fb028f74abc560205260408120549091907fa49807205ce4d355092ef5a8a18f56e8913cf4a201fbe287825b095693c217759060ff16620006175780835260026020526040832082845260205260408320600160ff198254161790556000805160206200310a833981519152339380a4600190565b50509056fe6080604081815260049182361015610022575b505050361561002057600080fd5b005b600092833560e01c91826301ffc9a7146123635750816303fc20131461231f5781630758d924146122db5781630b4f3f3d146122515781631e5eb1d014612218578163200d2ed2146121ef578163248a9ca3146121c4578163260813d51461219d5781632f2ff15d146121735781633013ce291461212f5781633197cbb6146120f457816336568abe146120ae578163387cd2cb14611c315781633f4ba83a14611bc757816342e94c9014611b8f5781634a3b68cc14611b545781634b60ce7714611b1057816350e15fdd14611af15781635c975abb14611acd5781636052970c14611a8957816360b0b0f01461185057816368b68bd51461179557816375b238fc1461175a578163767fa7231461168757816378e979251461164c5781638456cb59146115f25781638d3d6576146115b7578163906a26e01461157c57816391d148541461153657816391ed3ab01461150f578163a217fddf146114f4578163a4317ef4146114d5578163a4475ce414611491578163a5917baf1461144d578163a77d38fa146113fe578163a9725d52146113da578163a9eddf99146112da578163aaffadf31461129f578163ac7c578014611278578163b30ca2da146111bf578163b5545a3c14611090578163c5c4744c14611071578163c9f62af214611036578163ca8c3bea14611017578163cd78d92c14610fd1578163d547741f14610f91578163de35eb2414610f56578163f41e0ba9146102b357508063f86aa92d146102955763fb86a404146102585780610012565b34610291578160031936011261029157602090517f00000000000000000000000000000000000000000000000000000000000000008152f35b5080fd5b50346102915781600319360112610291576020906012549051908152f35b905034610bd35760c0366003190112610bd35760443581356102d361244f565b6102db61273b565b60ff926007908482541682811015610f2857818114610f475760028114159081610f3b575b50610ee7575b6008547f00000000000000000000000000000000000000000000000000000000000000008110610ed857600f549086821615610d1b575b505060118581541615610c2c575b8651632eb4a7ab60e01b815293956020946001600160a01b03907f0000000000000000000000000000000000000000000000000000000000000000821690899088818881865afa908115610c22578d91610bf1575b5080610be757508015610bd757908b91813b15610bd3578291604483928e519485938492637c382d0b60e01b84528c84015260243560248401525af18015610bc957610bb5575b50505b899680151580610baa575b610b3d575b5081835460081c161580610b32575b610a96575b818354818160101c161580610a6d575b80610a62575b80610a57575b610616575b505050815490808260181c16156104a8575b897fc4cc84355ef3f7327b5aa6c366cafe189c44e1a7807ce501f6f3a503a66717e860c08b8b8b8b8b8b4260095560ff19825416179055600a5493600b54600e549282519687528601528401526024356060840152608083015260a0820152a16001815580f35b808260081c16158061060b575b6105fb577f00000000000000000000000000000000000000000000000000000000000000001515806105f0575b806105e3575b6105d357899160101c16806105c6575b6105ac575b61050990600e546125e6565b8061054a575b50805463ff000000191663010000001790558160c07fc4cc84355ef3f7327b5aa6c366cafe189c44e1a7807ce501f6f3a503a66717e8610441565b80471061059c5788808080937f00000000000000000000000000000000000000000000000000000000000000005af16105816128ba565b501561058d573861050f565b508551633d2cec6f60e21b8152fd5b8751639c88354560e01b81528390fd5b506105096105bf600d54601354906128ad565b90506104fd565b50600d54601354106104f8565b8851635961cb6360e11b81528490fd5b50808260101c16156104e8565b50600d5415156104e2565b8851632c17c9c760e21b81528490fd5b50600b5415156104b5565b60081c161580610a4c575b6105fb5747600d5411610a3c577f000000000000000000000000000000000000000000000000000000000000000090606435817f0000000000000000000000000000000000000000000000000000000000000000169161068282858561297d565b600d549061012c420194854211610a2a578d8f918660c48c8660609486519c8d95869463f305d71960e01b86528501528b6024850152608435604485015260a435606485015230608485015260a48401521697885af18015610a1f578c978b958499859286946109d3575b5084516315ab88c960e31b815297889081845afa9687156109aa578f90918e9287996109b4575b50855163c45a015560e01b815292839182905afa80156109aa578f918e888c936044938a9161098d575b508189519c8d96879563e6a4390560e01b8752860152166024840152165afa908115610980578e6084978693610951575b508d877f000000000000000000000000000000000000000000000000000000000000000094169889916107a387878561297d565b887f00000000000000000000000000000000000000000000000000000000000000009a6107d08c426125e6565b978a519889968795630aa393f360e01b87528601528a60248601526044850152817f0000000000000000000000000000000000000000000000000000000000000000166064850152165af19485156109465787928d91966108e4575b5060128690556013829055805462ff000019166201000017905583518a815260208101919091526040810183905293947fce43c008407997433724b443add46562764945cebefa7fb64f11a3537db3a15b946108af92907f64b83944e79c3ce8d4c297411de637c3e102d064677aac0c163976ebdcd6f50e90606090a2426125e6565b82519182528d820152a38281116108c9575b83915061042f565b6108dc926108d6916128ad565b906128fa565b3880806108c1565b969450509350508c84813d831161093f575b610900818361264f565b8101031261093a579251909290918f919085908b7f64b83944e79c3ce8d4c297411de637c3e102d064677aac0c163976ebdcd6f50e61082c565b600080fd5b503d6108f6565b8451903d90823e3d90fd5b816109729294503d8511610979575b61096a818361264f565b810190612a98565b913861076f565b503d610960565b50505051903d90823e3d90fd5b6109a49150863d88116109795761096a818361264f565b3861073e565b84513d87823e3d90fd5b6109cc919950823d84116109795761096a818361264f565b9738610714565b9a505095505050506060863d8211610a17575b816109f36060938361264f565b81010312610a14578d8b8a9488519083838b01519a015191999192386106ed565b80fd5b3d91506109e6565b5051903d90823e3d90fd5b634e487b7160e01b8f5287895260248ffd5b8851639c88354560e01b81528490fd5b50600b541515610621565b50600d54151561042a565b506064351515610424565b507f0000000000000000000000000000000000000000000000000000000000000000151561041e565b600b54939997969594937f00000000000000000000000000000000000000000000000000000000000000008216803b15610b2e578980918d8d518095819363990087b760e01b83525af19182610b16575b5050610afd5788516354ce345960e01b81528a90fd5b61010061ff009a94959697989a1984541617835561040e565b610b1f90612609565b610b2a578838610ae7565b8880fd5b8980fd5b50600b541515610409565b9650610b4b601054886128ad565b96610b7888837f0000000000000000000000000000000000000000000000000000000000000000166128fa565b6010557f3316cd92e8029a9d825199ad5d83f540869e52a9d77cf97560178a0b5ebac6fb86888b51908152a1386103fa565b5080601054106103f5565b610bbe90612609565b610b2e5789386103e7565b8b513d84823e3d90fd5b8280fd5b8a51639dd854d360e01b81528690fd5b99506103ea915050565b90508881813d8311610c1b575b610c08818361264f565b81010312610c175751386103a0565b8c80fd5b503d610bfe565b8c513d8f823e3d90fd5b86516370a0823160e01b81527f00000000000000000000000000000000000000000000000000000000000000006001600160a01b03818116858401527f00000000000000000000000000000000000000000000000000000000000000001690602083602481855afa928315610d11578b93610cde575b50602435808410610cc2575b50505050600160ff1982541617815561034b565b610cd593610ccf916128ad565b91612941565b38808080610cae565b9092506020813d8211610d09575b81610cf96020938361264f565b8101031261093a57519138610ca2565b3d9150610cec565b8a513d8d823e3d90fd5b6127109081610d2c6003548361289a565b0491610d3883836128ad565b907f00000000000000000000000000000000000000000000000000000000000000008015610ed057610d6a908361289a565b045b610d7681836128ad565b918b5160c0810181811067ffffffffffffffff821117610ebb57600191838f60a0938152888352896020840152820152846060820152856080820152015283600a5584600b55600c55600d55600e55600160ff1980941617600f55471061059c5787516370a0823160e01b815230848201526020816024817f00000000000000000000000000000000000000000000000000000000000000006001600160a01b03165afa908115610eb1578a91610e80575b50610e4087610e3b6064356024356125e6565b6125e6565b11610e70579060039115610e5c575b835416178255388061033d565b61010061ff00196011541617601155610e4f565b87516378a7ac6760e11b81528390fd5b90506020813d8211610ea9575b81610e9a6020938361264f565b8101031261093a575138610e28565b3d9150610e8d565b89513d8c823e3d90fd5b604189634e487b7160e01b6000525260246000fd5b50508a610d6c565b5085516346c21a5560e01b8152fd5b610eef61275e565b8482541682811015610f285760028114159081610f1c575b5015610306575b85516307a92f1960e51b8152fd5b60039150141538610f07565b634e487b7160e01b885260218252602488fd5b60039150141538610300565b50855163475a253560e01b8152fd5b505034610291578160031936011261029157602090517f00000000000000000000000000000000000000000000000000000000000000008152f35b91905034610bd35780600319360112610bd357610fcd9135610fc86001610fb6612423565b938387526002602052862001546124c9565b61256f565b5080f35b828434610a14576020366003190112610a14576001600160a01b0380610ff5612439565b1682526014602052828083205492601560205220541682519182526020820152f35b5050346102915781600319360112610291576020906013549051908152f35b505034610291578160031936011261029157602090517f00000000000000000000000000000000000000000000000000000000000000008152f35b5050346102915781600319360112610291576020906008549051908152f35b91905034610bd35782600319360112610bd3576110ab61273b565b60ff6007541660078110156111ac57600581141590816111a0575b5061119357338352601460205280832054918215611185573384526014602052818420849055827f00000000000000000000000000000000000000000000000000000000000000006001600160a01b03168061117457508480808093335af161112d6128ba565b501561116657505b519081527fd7dee2702d63ad89917b6a4da9981c90c4d24f8c2bdfd64c604ecae57d8d065160203392a26001815580f35b905163b9da5d2b60e01b8152fd5b61118092503390612941565b611135565b9051631971fbf360e21b8152fd5b51630b4d698160e01b8152fd5b600691501415386110c6565b634e487b7160e01b845260218352602484fd5b83915034610291576111d0366123b6565b916111d961244f565b6111e161275e565b6007549060ff8216600781101561126557600203610f0e576008547f00000000000000000000000000000000000000000000000000000000000000001115610f0e57507f5b55eccea968a9bf1df9a6702e20475ac67bb0d7f402f51701eef38e619368fe9394600561125f9260ff1916176007555192839283612a70565b0390a180f35b634e487b7160e01b865260218252602486fd5b50503461029157816003193601126102915760209060ff60115460081c1690519015158152f35b505034610291578160031936011261029157602090517f00000000000000000000000000000000000000000000000000000000000000008152f35b905034610bd3576080366003190112610bd3576112f561244f565b60ff6007541660078110156113c7576113ba576008546113ba577f00000000000000000000000000000000000000000000000000000000000000004210156113ba578035916044359060243561134b83826125e6565b9361135960643580966125e6565b86036113ac579181869492608096947f0ad166d8be1925ee44c5a77600b8a5f7e58cbe711c0dbd99624014a81b8350ba98600355558260055583600655815194855260208501528301526060820152a180f35b8251632b00a33d60e11b8152fd5b905162b5d7e160e81b8152fd5b634e487b7160e01b845260218252602484fd5b50503461029157816003193601126102915760209060ff6011541690519015158152f35b50503461029157816003193601126102915760c090600a5490600b5490600c54600d5490600e549260ff600f5416948151968752602087015285015260608401526080830152151560a0820152f35b505034610291578160031936011261029157517f00000000000000000000000000000000000000000000000000000000000000006001600160a01b03168152602090f35b505034610291578160031936011261029157517f00000000000000000000000000000000000000000000000000000000000000006001600160a01b03168152602090f35b5050346102915781600319360112610291576020906009549051908152f35b50503461029157816003193601126102915751908152602090f35b50503461029157816003193601126102915760209060ff60115460181c1690519015158152f35b905034610bd35781600319360112610bd35781602093611554612423565b9235815260028552209060018060a01b0316600052825260ff81600020541690519015158152f35b505034610291578160031936011261029157602090517f00000000000000000000000000000000000000000000000000000000000000008152f35b505034610291578160031936011261029157602090517f00000000000000000000000000000000000000000000000000000000000000008152f35b50503461029157816003193601126102915760207f62e78cea01bee320cd4e420270b5ea74000d11b0c9f74754ebdbfc544b05a2589161163061244f565b61163861271d565b600160ff198154161760015551338152a180f35b505034610291578160031936011261029157602090517f00000000000000000000000000000000000000000000000000000000000000008152f35b50503461029157816003193601126102915760e09060ff600754169060085490600954916116b782518095612400565b60208401527f0000000000000000000000000000000000000000000000000000000000000000908301527f000000000000000000000000000000000000000000000000000000000000000060608301527f000000000000000000000000000000000000000000000000000000000000000060808301527f000000000000000000000000000000000000000000000000000000000000000060a083015260c0820152f35b505034610291578160031936011261029157602090517fa49807205ce4d355092ef5a8a18f56e8913cf4a201fbe287825b095693c217758152f35b91905034610bd3576020366003190112610bd3576117b1612439565b6117b961244f565b6117c161273b565b60ff60075416600781101561183d57830361182f576001600160a01b0381161561182157839047806117f6575b826001815580f35b8280929181925af16118066128ba565b5015611814578281806117ee565b51633d2cec6f60e21b8152fd5b505163e6c4247b60e01b8152fd5b50516307a92f1960e51b8152fd5b634e487b7160e01b855260218452602485fd5b905081600319360112610bd357803590611868612423565b9061187161273b565b61187961271d565b61188161275e565b60ff60075416600781101561126557600103611a7b57338552602091601483526118ae84868820546125e6565b7f00000000000000000000000000000000000000000000000000000000000000008110611a6b577f000000000000000000000000000000000000000000000000000000000000000010611a5c57611907846008546125e6565b7f000000000000000000000000000000000000000000000000000000000000000010611a4d576001600160a01b0391847f0000000000000000000000000000000000000000000000000000000000000000841680611a1357503403610f0e575090807fec470969f3350ca5a15f0d85053f8763ffd0ee39c7b74fcdc5af7862718e292a93925b338852601484528688206119a28782546125e6565b90556119b0866008546125e6565b60085516801515806119ff575b6119de575b5033865260158252848620541693519283523392a36001815580f35b3387526015835285872080546001600160a01b0319169091179055386119c2565b5033875260158352818688205416156119bd565b8493917fec470969f3350ca5a15f0d85053f8763ffd0ee39c7b74fcdc5af7862718e292a96959350611a489130903390612671565b61198d565b508351631c4af3c960e11b8152fd5b5083516374368fb960e11b8152fd5b855163860b82a960e01b81528390fd5b83516307a92f1960e51b8152fd5b505034610291578160031936011261029157517f00000000000000000000000000000000000000000000000000000000000000006001600160a01b03168152602090f35b50503461029157816003193601126102915760209060ff6001541690519015158152f35b5050346102915781600319360112610291576020906010549051908152f35b505034610291578160031936011261029157517f00000000000000000000000000000000000000000000000000000000000000006001600160a01b03168152602090f35b505034610291576020366003190112610291576020916001600160a01b0390829082611b7e612439565b168152601585522054169051908152f35b5050346102915760203660031901126102915760209181906001600160a01b03611bb7612439565b1681526014845220549051908152f35b905034610bd35782600319360112610bd357611be161244f565b6001549060ff821615611c23575060ff1916600155513381527f5db9ee0a495bf2e6ff9c91a7834c1ba4fdd244a5e8aa4e537bd38aeae4b073aa90602090a180f35b8251638dfc202b60e01b8152fd5b8383346102915760603660031901126102915760243560443593611c5361244f565b611c5b61273b565b611c6361275e565b60ff60075416600781101561209b5760020361208d57600854917f0000000000000000000000000000000000000000000000000000000000000000831061207e57611cbe612710611cb66003548661289a565b0480946128ad565b7f0000000000000000000000000000000000000000000000000000000000000000916001600160a01b037f00000000000000000000000000000000000000000000000000000000000000008116929091827f0000000000000000000000000000000000000000000000000000000000000000611d3c83828989612671565b1690813b15610b2e578991604483928b519485938492637c382d0b60e01b84528c358d85015260248401525af1801561207457612061575b507f0000000000000000000000000000000000000000000000000000000000000000828116908115908115611fb95750837f000000000000000000000000000000000000000000000000000000000000000016803b15611fb5578a8991898c518094819363990087b760e01b83525af18015610d1157918b9493918893611f97575b505b15611f88575082809281925af1611e0d6128ba565b5015611f78575b600854977f00000000000000000000000000000000000000000000000000000000000000009889811080611f6f575b611ea0575b4260098190556007805460ff191688179055600854895190815260208101899052604081019190915289907ff3e2f1d90bd58f6807b6468783c27fdc68307b057882b3ca4eb0f3bb2116789990606090a16001815580f35b90611eae611eb4928b6128ad565b9061289a565b978015611f5a577ff3e2f1d90bd58f6807b6468783c27fdc68307b057882b3ca4eb0f3bb211678999798049081611eed575b8897611e48565b7f3316cd92e8029a9d825199ad5d83f540869e52a9d77cf97560178a0b5ebac6fb93602093611f4b928951926323b872dd60e01b8785015216602483015261dead604483015283606483015260648252611f4682612633565b6126b5565b8551908152a185808080611ee6565b601285634e487b7160e01b6000525260246000fd5b50811515611e43565b855163b9da5d2b60e01b81528490fd5b611f929350612941565b611e14565b611fa691935094919394612609565b610b2e5789929186918d611df6565b8a80fd5b847f0000000000000000000000000000000000000000000000000000000000000000611fe68b828761297d565b1690813b1561205d578a5163398da91160e01b81526001600160a01b03909116818a01908152602081018b905290918c9183919082908490829060400103925af18015610d1157918b949391889361203f575b50611df8565b61204e91935094919394612609565b610b2e5789929186918d612039565b8b80fd5b61206d90989198612609565b9689611d74565b88513d8b823e3d90fd5b5082516346c21a5560e01b8152fd5b82516307a92f1960e51b8152fd5b634e487b7160e01b855260218252602485fd5b8383346102915780600319360112610291576120c8612423565b90336001600160a01b038316036120e55750610fcd91923561256f565b5163334bd91960e11b81528390fd5b505034610291578160031936011261029157602090517f00000000000000000000000000000000000000000000000000000000000000008152f35b505034610291578160031936011261029157517f00000000000000000000000000000000000000000000000000000000000000006001600160a01b03168152602090f35b91905034610bd35780600319360112610bd357610fcd91356121986001610fb6612423565b6124ef565b50503461029157816003193601126102915760209060ff60115460101c1690519015158152f35b905034610bd3576020366003190112610bd35781602093600192358152600285522001549051908152f35b50503461029157816003193601126102915760209061221660ff6007541691518092612400565bf35b91905034610bd35782600319360112610bd357608092506003549154906005549060065492815194855260208501528301526060820152f35b8391503461029157612262366123b6565b9161226b61244f565b61227361275e565b6007549060ff821660078110156112655780151590816122cf575b50610f0e57507f2ac842f90dab3279148f7e55ac91d911f75c1c300a202a5250e05400b15fa1569394600661125f9260ff1916176007555192839283612a70565b6001915014158761228e565b505034610291578160031936011261029157517f00000000000000000000000000000000000000000000000000000000000000006001600160a01b03168152602090f35b505034610291578160031936011261029157517f00000000000000000000000000000000000000000000000000000000000000006001600160a01b03168152602090f35b849134610bd3576020366003190112610bd3573563ffffffff60e01b8116809103610bd35760209250637965db0b60e01b81149081156123a5575b5015158152f35b6301ffc9a760e01b1490508361239e565b90602060031983011261093a5760043567ffffffffffffffff9283821161093a578060238301121561093a57816004013593841161093a576024848301011161093a576024019190565b90600782101561240d5752565b634e487b7160e01b600052602160045260246000fd5b602435906001600160a01b038216820361093a57565b600435906001600160a01b038216820361093a57565b3360009081527fe5ebfa64fca8d502a8e50c1edffd2c31ef4dad5b396e65d9f397fb028f74abc560205260409020547fa49807205ce4d355092ef5a8a18f56e8913cf4a201fbe287825b095693c217759060ff16156124ab5750565b6044906040519063e2517d3f60e01b82523360048301526024820152fd5b80600052600260205260406000203360005260205260ff60406000205416156124ab5750565b906000918083526002602052604083209160018060a01b03169182845260205260ff6040842054161560001461256a5780835260026020526040832082845260205260408320600160ff198254161790557f2f8788117e7eff1d82e926ec794901d17c78024a50270940304540a733656f0d339380a4600190565b505090565b906000918083526002602052604083209160018060a01b03169182845260205260ff60408420541660001461256a578083526002602052604083208284526020526040832060ff1981541690557ff6391f5c32d9c69d2a47ea670b442974b53935d1edc7fd64eb21e047a839171b339380a4600190565b919082018092116125f357565b634e487b7160e01b600052601160045260246000fd5b67ffffffffffffffff811161261d57604052565b634e487b7160e01b600052604160045260246000fd5b60a0810190811067ffffffffffffffff82111761261d57604052565b90601f8019910116810190811067ffffffffffffffff82111761261d57604052565b6040516323b872dd60e01b60208201526001600160a01b0392831660248201529290911660448301526064808301939093529181526126b391611f4682612633565b565b906000602091828151910182855af115612711576000513d61270857506001600160a01b0381163b155b6126e65750565b604051635274afe760e01b81526001600160a01b039091166004820152602490fd5b600114156126df565b6040513d6000823e3d90fd5b60ff6001541661272957565b60405163d93c066560e01b8152600490fd5b60026000541461274c576002600055565b604051633ee5aeb560e01b8152600490fd5b600780549060ff8216917f00000000000000000000000000000000000000000000000000000000000000004210158061288a575b61287b575b50805460ff81168281101561240d57600114612810575b5060ff815416908082101561240d5782101561240d578082036127cf575050565b7f0d643a1384921de4b8ad16df0a695f1e75fcfe3bcac27f9c5c8cee46458723829161280d60409261280384518094612400565b6020830190612400565ba1565b7f0000000000000000000000000000000000000000000000000000000000000000421080159061284f575b156127ae5760ff19166002178155386127ae565b506008547f0000000000000000000000000000000000000000000000000000000000000000111561283b565b60ff1916600117815538612797565b508183101561240d578215612792565b818102929181159184041417156125f357565b919082039182116125f357565b3d156128f5573d9067ffffffffffffffff821161261d57604051916128e9601f8201601f19166020018461264f565b82523d6000602084013e565b606090565b906040519063a9059cbb60e01b602083015261dead6024830152604482015260448152608081019181831067ffffffffffffffff84111761261d576126b3926040526126b5565b60405163a9059cbb60e01b60208201526001600160a01b039290921660248301526044808301939093529181526126b391611f4660648361264f565b60405163095ea7b360e01b602082018181526001600160a01b0385166024840152604480840196909652948252949390926129b960648561264f565b60206000809386519082875af182513d82612a4b575b5050156129df575b505050509050565b60405160208101969096526001600160a01b0316602486015260448086018290528552608085019067ffffffffffffffff821186831017612a375750612a2d9394611f4691604052826126b5565b80388080806129d7565b634e487b7160e01b81526041600452602490fd5b909150612a6857506001600160a01b0383163b15155b38806129cf565b600114612a61565b90918060409360208452816020850152848401376000828201840152601f01601f1916010190565b9081602091031261093a57516001600160a01b038116810361093a579056fea2646970667358221220acaab9a44dc2e6c3de8ce9884d27204c69a77c648e1cbb5e299c91e3c8807ebc64736f6c634300081400332f8788117e7eff1d82e926ec794901d17c78024a50270940304540a733656f0da2646970667358221220832e3fd4515186c6bdae960ad0576fc59aa2c48c72d219ee42f342a651e6da4b64736f6c634300081400332f8788117e7eff1d82e926ec794901d17c78024a50270940304540a733656f0d",
  "linkReferences": {},
  "deployedLinkReferences": {}
}