{
  "_format": "hh-sol-artifact-1",
  "contractName": "LPLocker",
  "sourceName": "contracts/fairlaunch/LPLocker.sol",
  "abi": [
    {
      "inputs": [],
      "name": "AlreadyWithdrawn",
      "type": "error"
    },
    {
      "inputs": [],
      "name": "InvalidAmount",
      "type": "error"
    },
    {
      "inputs": [],
      "name": "InvalidUnlockTime",
      "type": "error"
    },
    {
      "inputs": [],
      "name": "NotBeneficiary",
      "type": "error"
    },
    {
      "inputs": [],
      "name": "NotOwner",
      "type": "error"
    },
    {
      "inputs": [],
      "name": "ReentrancyGuardReentrantCall",
      "type": "error"
    },
    {
      "inputs": [
        {
          "internalType": "address",
          "name": "token",
          "type": "address"
        }
      ],
      "name": "SafeERC20FailedOperation",
      "type": "error"
    },
    {
      "inputs": [],
      "name": "StillLocked",
      "type": "error"
    },
    {
      "anonymous": false,
      "inputs": [
        {
          "indexed": true,
          "internalType": "uint256",
          "name": "lockId",
          "type": "uint256"
        },
        {
          "indexed": true,
          "internalType": "address",
          "name": "oldBeneficiary",
          "type": "address"
        },
        {
          "indexed": true,
          "internalType": "address",
          "name": "newBeneficiary",
          "type": "address"
        }
      ],
      "name": "BeneficiaryTransferred",
      "type": "event"
    },
    {
      "anonymous": false,
      "inputs": [
        {
          "indexed": true,
          "internalType": "uint256",
          "name": "lockId",
          "type": "uint256"
        },
        {
          "indexed": true,
          "internalType": "address",
          "name": "lpToken",
          "type": "address"
        },
        {
          "indexed": true,
          "internalType": "address",
          "name": "owner",
          "type": "address"
        },
        {
          "indexed": false,
          "internalType": "address",
          "name": "beneficiary",
          "type": "address"
        },
        {
          "indexed": false,
          "internalType": "uint256",
          "name": "amount",
          "type": "uint256"
        },
        {
          "indexed": false,
          "internalType": "uint256",
          "name": "unlockTime",
          "type": "uint256"
        }
      ],
      "name": "TokensLocked",
      "type": "event"
    },
    {
      "anonymous": false,
      "inputs": [
        {
          "indexed": true,
          "internalType": "uint256",
          "name": "lockId",
          "type": "uint256"
        },
        {
          "indexed": true,
          "internalType": "address",
          "name": "beneficiary",
          "type": "address"
        },
        {
          "indexed": false,
          "internalType": "uint256",
          "name": "amount",
          "type": "uint256"
        }
      ],
      "name": "TokensWithdrawn",
      "type": "event"
    },
    {
      "inputs": [
        {
          "internalType": "uint256",
          "name": "lockId",
          "type": "uint256"
        }
      ],
      "name": "getLock",
      "outputs": [
        {
          "components": [
            {
              "internalType": "address",
              "name": "lpToken",
              "type": "address"
            },
            {
              "internalType": "address",
              "name": "owner",
              "type": "address"
            },
            {
              "internalType": "address",
              "name": "beneficiary",
              "type": "address"
            },
            {
              "internalType": "uint256",
              "name": "amount",
              "type": "uint256"
            },
            {
              "internalType": "uint256",
              "name": "lockTime",
              "type": "uint256"
            },
            {
              "internalType": "uint256",
              "name": "unlockTime",
              "type": "uint256"
            },
            {
              "internalType": "bool",
              "name": "withdrawn",
              "type": "bool"
            }
          ],
          "internalType": "struct LPLocker.Lock",
          "name": "",
          "type": "tuple"
        }
      ],
      "stateMutability": "view",
      "type": "function"
    },
    {
      "inputs": [
        {
          "internalType": "uint256",
          "name": "lockId",
          "type": "uint256"
        }
      ],
      "name": "getTimeUntilUnlock",
      "outputs": [
        {
          "internalType": "uint256",
          "name": "",
          "type": "uint256"
        }
      ],
      "stateMutability": "view",
      "type": "function"
    },
    {
      "inputs": [
        {
          "internalType": "uint256",
          "name": "lockId",
          "type": "uint256"
        }
      ],
      "name": "isLocked",
      "outputs": [
        {
          "internalType": "bool",
          "name": "",
          "type": "bool"
        }
      ],
      "stateMutability": "view",
      "type": "function"
    },
    {
      "inputs": [],
      "name": "lockCount",
      "outputs": [
        {
          "internalType": "uint256",
          "name": "",
          "type": "uint256"
        }
      ],
      "stateMutability": "view",
      "type": "function"
    },
    {
      "inputs": [
        {
          "internalType": "address",
          "name": "lpToken",
          "type": "address"
        },
        {
          "internalType": "uint256",
          "name": "amount",
          "type": "uint256"
        },
        {
          "internalType": "uint256",
          "name": "unlockTime",
          "type": "uint256"
        },
        {
          "internalType": "address",
          "name": "beneficiary",
          "type": "address"
        }
      ],
      "name": "lockTokens",
      "outputs": [
        {
          "internalType": "uint256",
          "name": "lockId",
          "type": "uint256"
        }
      ],
      "stateMutability": "nonpayable",
      "type": "function"
    },
    {
      "inputs": [
        {
          "internalType": "uint256",
          "name": "",
          "type": "uint256"
        }
      ],
      "name": "locks",
      "outputs": [
        {
          "internalType": "address",
          "name": "lpToken",
          "type": "address"
        },
        {
          "internalType": "address",
          "name": "owner",
          "type": "address"
        },
        {
          "internalType": "address",
          "name": "beneficiary",
          "type": "address"
        },
        {
          "internalType": "uint256",
          "name": "amount",
          "type": "uint256"
        },
        {
          "internalType": "uint256",
          "name": "lockTime",
          "type": "uint256"
        },
        {
          "internalType": "uint256",
          "name": "unlockTime",
          "type": "uint256"
        },
        {
          "internalType": "bool",
          "name": "withdrawn",
          "type": "bool"
        }
      ],
      "stateMutability": "view",
      "type": "function"
    },
    {
      "inputs": [
        {
          "internalType": "uint256",
          "name": "lockId",
          "type": "uint256"
        },
        {
          "internalType": "address",
          "name": "newBeneficiary",
          "type": "address"
        }
      ],
      "name": "transferBeneficiary",
      "outputs": [],
      "stateMutability": "nonpayable",
      "type": "function"
    },
    {
      "inputs": [
        {
          "internalType": "uint256",
          "name": "lockId",
          "type": "uint256"
        }
      ],
      "name": "withdrawTokens",
      "outputs": [],
      "stateMutability": "nonpayable",
      "type": "function"
    }
  ],
  "bytecode": "0x6080806040523461001b57600160005561081790816100218239f35b600080fdfe60406080815260048036101561001457600080fd5b600091823560e01c80630aa393f3146104a05780630d6dd343146103f05780632f6fe5f7146103c6578063315a095d146102975780639b10b6f514610274578063d68f4dd114610187578063f4dadc611461010f5763f6aacfb11461007857600080fd5b3461010b57602036600319011261010b57806020938335815260018552208151926100a284610688565b60018060a01b0380835416855280600184015416868601526002830154168385015260038201546060850152810154608084015260ff60066005830154928360a0870152015416159260c0841591015282610101575b50519015158152f35b42109150386100f8565b8280fd5b503461010b57602036600319011261010b578060e0938335815260016020522060018060a01b0391828254169383600184015416936002840154166003840154918401549260ff600660058701549601541695815197885260208801528601526060850152608084015260a0830152151560c0820152f35b50903461010b57602036600319011261010b57818360e09460c083516101ac81610688565b82815282602082015282858201528260608201528260808201528260a08201520152823581526001602052208251916101e483610688565b60018060a01b03908183541694858552826001850154169260208601938452806002860154168287019081528160038701549460608901958652870154956080890196875260c060ff600660058b01549a60a08d019b8c52015416990198151589528451998a52511660208901525116908601525160608501525160808401525160a083015251151560c0820152f35b8382346102935781600319360112610293576020906002549051908152f35b5080fd5b503461010b57602036600319011261010b578135906102b4610722565b81845260016020528084206002810180546001600160a01b039290831690338290036103b657600581015442106103a65760068101805460ff81166103965760019060ff1916179055600384825416910196875486519363a9059cbb60e01b60208601526024850152604484015260448352608083019083821067ffffffffffffffff831117610383575060209492869492610372927f3f5fbaf86658fdadee77f1d46e7f8a72424ad9839eda6a1dc6eb0a4228e4226e98526106ba565b541694549051908152a36001815580f35b634e487b7160e01b8a5260419052602489fd5b8651636507689f60e01b81528990fd5b8451636100d92960e11b81528790fd5b845163644d871f60e01b81528790fd5b5082346103ed5760203660031901126103ed57506103e660209235610745565b9051908152f35b80fd5b50903461010b578160031936011261010b576001600160a01b0360243581811693833593909185900361049c5783865260016020528186209183600184015416330361048f5760ff60068401541661048257505060020180546001600160a01b03198116851790915516907fcac3b813aa052f85279f96655f0ccd339dbf77623d87f74fcd77af7719472d118480a480f35b51636507689f60e01b8152fd5b516330cd747160e01b8152fd5b8580fd5b50829034610293576080366003190112610293576001600160a01b0391833583811690819003610293576024359060443560643592868416809403610684576104e7610722565b801561067457428211156106645785516323b872dd60e01b60208201523360248201523060448201526064808201839052815260a0810167ffffffffffffffff81118282101761065157875261053d90846106ba565b60025496600019881461063e5790856006849360019897969560209c8a8d016002558c8c80519461056d86610688565b8a865260208601338152828701918d83528060608901948c86528b60808b019742895260a08c019a8b5260c08c019d8e52815260206001905220985116916bffffffffffffffffffffffff60a01b92838a5416178955600182908a019151168382541617905560028801925116908254161790555160038501555190830155516005820155019051151560ff8019835416911617905586519384528884015285830152857f2829c874cc2754efd69c7e3c418a785312752350649b2d9219a7f07b7871839b60603394a45551908152f35b634e487b7160e01b865260118952602486fd5b634e487b7160e01b875260418a52602487fd5b85516352aba6d360e11b81528890fd5b855163162908e360e11b81528890fd5b8480fd5b60e0810190811067ffffffffffffffff8211176106a457604052565b634e487b7160e01b600052604160045260246000fd5b906000602091828151910182855af115610716576000513d61070d57506001600160a01b0381163b155b6106eb5750565b604051635274afe760e01b81526001600160a01b039091166004820152602490fd5b600114156106e4565b6040513d6000823e3d90fd5b600260005414610733576002600055565b604051633ee5aeb560e01b8152600490fd5b6000526001602052604060002060405161075e81610688565b60018060a01b038083541682528060018401541660208301526002830154166040820152600382015460608201526004820154608082015260c060ff60066005850154948560a08601520154161515910152804210156107db574281039081116107c55790565b634e487b7160e01b600052601160045260246000fd5b5060009056fea26469706673582212204673a058afa0ae22350989abeaa95a5d3487ab9f008a40017845730da6fc956164736f6c63430008140033",
  "linkReferences": {},
  "deployedLinkReferences": {}
}