{
  "_format": "hh-sol-artifact-1",
  "contractName": "SelsipadBCToken",
  "sourceName": "contracts/bonding-curve/SelsipadBCToken.sol",
  "abi": [
    {
      "inputs": [
        {
          "internalType": "string",
          "name": "_name",
          "type": "string"
        },
        {
          "internalType": "string",
          "name": "_symbol",
          "type": "string"
        },
        {
          "internalType": "address",
          "name": "",
          "type": "address"
        }
      ],
      "stateMutability": "nonpayable",
      "type": "constructor"
    },
    {
      "inputs": [],
      "name": "InsufficientAllowance",
      "type": "error"
    },
    {
      "inputs": [],
      "name": "InsufficientBalance",
      "type": "error"
    },
    {
      "inputs": [],
      "name": "MaxSupplyExceeded",
      "type": "error"
    },
    {
      "inputs": [],
      "name": "OnlyFactory",
      "type": "error"
    },
    {
      "anonymous": false,
      "inputs": [
        {
          "indexed": true,
          "internalType": "address",
          "name": "owner",
          "type": "address"
        },
        {
          "indexed": true,
          "internalType": "address",
          "name": "spender",
          "type": "address"
        },
        {
          "indexed": false,
          "internalType": "uint256",
          "name": "value",
          "type": "uint256"
        }
      ],
      "name": "Approval",
      "type": "event"
    },
    {
      "anonymous": false,
      "inputs": [
        {
          "indexed": true,
          "internalType": "address",
          "name": "from",
          "type": "address"
        },
        {
          "indexed": true,
          "internalType": "address",
          "name": "to",
          "type": "address"
        },
        {
          "indexed": false,
          "internalType": "uint256",
          "name": "value",
          "type": "uint256"
        }
      ],
      "name": "Transfer",
      "type": "event"
    },
    {
      "inputs": [],
      "name": "MAX_SUPPLY",
      "outputs": [
        {
          "internalType": "uint256",
          "name": "",
          "type": "uint256"
        }
      ],
      "stateMutability": "view",
      "type": "function"
    },
    {
      "inputs": [
        {
          "internalType": "address",
          "name": "",
          "type": "address"
        },
        {
          "internalType": "address",
          "name": "",
          "type": "address"
        }
      ],
      "name": "allowance",
      "outputs": [
        {
          "internalType": "uint256",
          "name": "",
          "type": "uint256"
        }
      ],
      "stateMutability": "view",
      "type": "function"
    },
    {
      "inputs": [
        {
          "internalType": "address",
          "name": "spender",
          "type": "address"
        },
        {
          "internalType": "uint256",
          "name": "amount",
          "type": "uint256"
        }
      ],
      "name": "approve",
      "outputs": [
        {
          "internalType": "bool",
          "name": "",
          "type": "bool"
        }
      ],
      "stateMutability": "nonpayable",
      "type": "function"
    },
    {
      "inputs": [
        {
          "internalType": "address",
          "name": "",
          "type": "address"
        }
      ],
      "name": "balanceOf",
      "outputs": [
        {
          "internalType": "uint256",
          "name": "",
          "type": "uint256"
        }
      ],
      "stateMutability": "view",
      "type": "function"
    },
    {
      "inputs": [],
      "name": "decimals",
      "outputs": [
        {
          "internalType": "uint8",
          "name": "",
          "type": "uint8"
        }
      ],
      "stateMutability": "view",
      "type": "function"
    },
    {
      "inputs": [],
      "name": "factory",
      "outputs": [
        {
          "internalType": "address",
          "name": "",
          "type": "address"
        }
      ],
      "stateMutability": "view",
      "type": "function"
    },
    {
      "inputs": [
        {
          "internalType": "address",
          "name": "to",
          "type": "address"
        },
        {
          "internalType": "uint256",
          "name": "amount",
          "type": "uint256"
        }
      ],
      "name": "mintFromFactory",
      "outputs": [],
      "stateMutability": "nonpayable",
      "type": "function"
    },
    {
      "inputs": [],
      "name": "name",
      "outputs": [
        {
          "internalType": "string",
          "name": "",
          "type": "string"
        }
      ],
      "stateMutability": "view",
      "type": "function"
    },
    {
      "inputs": [],
      "name": "symbol",
      "outputs": [
        {
          "internalType": "string",
          "name": "",
          "type": "string"
        }
      ],
      "stateMutability": "view",
      "type": "function"
    },
    {
      "inputs": [],
      "name": "totalSupply",
      "outputs": [
        {
          "internalType": "uint256",
          "name": "",
          "type": "uint256"
        }
      ],
      "stateMutability": "view",
      "type": "function"
    },
    {
      "inputs": [
        {
          "internalType": "address",
          "name": "to",
          "type": "address"
        },
        {
          "internalType": "uint256",
          "name": "amount",
          "type": "uint256"
        }
      ],
      "name": "transfer",
      "outputs": [
        {
          "internalType": "bool",
          "name": "",
          "type": "bool"
        }
      ],
      "stateMutability": "nonpayable",
      "type": "function"
    },
    {
      "inputs": [
        {
          "internalType": "address",
          "name": "from",
          "type": "address"
        },
        {
          "internalType": "address",
          "name": "to",
          "type": "address"
        },
        {
          "internalType": "uint256",
          "name": "amount",
          "type": "uint256"
        }
      ],
      "name": "transferFrom",
      "outputs": [
        {
          "internalType": "bool",
          "name": "",
          "type": "bool"
        }
      ],
      "stateMutability": "nonpayable",
      "type": "function"
    }
  ],
  "bytecode": "0x604060a0815234620003c85762000c5890813803806200001f81620003cd565b9384398201606083820312620003c85782516001600160401b0390818111620003c8578262000050918601620003f3565b60209283860151838111620003c85785916200006e918801620003f3565b9501516001600160a01b03811603620003c857805191808311620003b2576000928354906001938483811c93168015620003a7575b8784101462000393578190601f9384811162000340575b508790848311600114620002dc578792620002d0575b5050600019600383901b1c191690841b1784555b8651918211620002bc5782548381811c91168015620002b1575b868210146200029d5781811162000255575b5084908211600114620001f2578394959682939492620001e6575b5050600019600383901b1c191690821b1790555b336080526b033b2e3c9fd0803ce800000091826200015f60025462000465565b11620001d5577fddf252ad1be2c89b69c2b068fc378daa952ba7f163c4a11628f55a4df523b3ef90338352600381528483206200019d815462000465565b9055620001ac60025462000465565b60025584519384523393a3516107c29081620004968239608051818181610107015261036c0152f35b8351638a164f6360e01b8152600490fd5b0151905038806200012b565b82845284842090601f198316855b8181106200023f5750978385969798991062000225575b505050811b0190556200013f565b015160001960f88460031b161c1916905538808062000217565b8983015184559285019291870191870162000200565b8385528585208280850160051c82019288861062000293575b0160051c019084905b8281106200028757505062000110565b86815501849062000277565b925081926200026e565b634e487b7160e01b85526022600452602485fd5b90607f1690620000fe565b634e487b7160e01b84526041600452602484fd5b015190503880620000d0565b8780528888208794509190601f198416895b8b8282106200032957505084116200030f575b505050811b018455620000e4565b015160001960f88460031b161c1916905538808062000301565b8385015186558a97909501949384019301620002ee565b9091508680528787208480850160051c8201928a861062000389575b918891869594930160051c01915b8281106200037a575050620000ba565b8981558594508891016200036a565b925081926200035c565b634e487b7160e01b86526022600452602486fd5b92607f1692620000a3565b634e487b7160e01b600052604160045260246000fd5b600080fd5b6040519190601f01601f191682016001600160401b03811183821017620003b257604052565b919080601f84011215620003c85782516001600160401b038111620003b25760209062000429601f8201601f19168301620003cd565b92818452828287010111620003c85760005b8181106200045157508260009394955001015290565b85810183015184820184015282016200043b565b906b033b2e3c9fd0803ce800000082018092116200047f57565b634e487b7160e01b600052601160045260246000fdfe6080604081815260048036101561001557600080fd5b600092833560e01c90816306fdde03146105ef57508063095ea7b31461058157806318160ddd1461056257806323b872dd14610468578063313ce5671461044c57806332cb6b0c1461042557806364a7102b1461034357806370a082311461030b57806395d89b41146101ea578063a9059cbb1461013a578063c45a0155146100f25763dd62ed3e146100a757600080fd5b346100ee57816003193601126100ee5760209282916100c461072b565b6100cc610746565b6001600160a01b03918216845291865283832091168252845220549051908152f35b8280fd5b505034610136578160031936011261013657517f00000000000000000000000000000000000000000000000000000000000000006001600160a01b03168152602090f35b5080fd5b5091346101e757816003193601126101e75761015461072b565b926024359033835260036020528184842054106101d95750826020943384526003865281842061018584825461077f565b90556001600160a01b031680845260038652922080546101a690839061075c565b905582519081527fddf252ad1be2c89b69c2b068fc378daa952ba7f163c4a11628f55a4df523b3ef843392a35160018152f35b8351631e9acf1760e31b8152fd5b80fd5b5091903461013657816003193601126101365780519082600180549081811c90808316928315610301575b60209384841081146102ee578388529081156102d2575060011461027d575b505050829003601f01601f191682019267ffffffffffffffff84118385101761026a57508291826102669252826106e2565b0390f35b634e487b7160e01b815260418552602490fd5b8087529192508591837fb10e2d527612073b26eecdfd717e6a320cf44b4afac2b0732d9fcbe2b7fa0cf65b8385106102be5750505050830101388080610234565b8054888601830152930192849082016102a8565b60ff1916878501525050151560051b8401019050388080610234565b634e487b7160e01b895260228a52602489fd5b91607f1691610215565b5050346101365760203660031901126101365760209181906001600160a01b0361033361072b565b1681526003845220549051908152f35b50346100ee57816003193601126100ee5761035c61072b565b602435916001600160a01b0391907f000000000000000000000000000000000000000000000000000000000000000083163303610417576b033b2e3c9fd0803ce80000006103ac8560025461075c565b11610409575084927fddf252ad1be2c89b69c2b068fc378daa952ba7f163c4a11628f55a4df523b3ef926020921694858552600383528085206103f083825461075c565b90556103fe8260025461075c565b60025551908152a380f35b8451638a164f6360e01b8152fd5b8451630636a15760e11b8152fd5b505034610136578160031936011261013657602090516b033b2e3c9fd0803ce80000008152f35b5050346101365781600319360112610136576020905160128152f35b5091346101e75760603660031901126101e75761048361072b565b61048b610746565b906044359060018060a01b0380911692838552602096600388528387872054106105545784865280885286862033875288528387872054106105465787927fddf252ad1be2c89b69c2b068fc378daa952ba7f163c4a11628f55a4df523b3ef949288928789526003865283892061050386825461077f565b90558789528552828820338952855282882061052085825461077f565b90551695868152600384522061053782825461075c565b90558551908152a35160018152f35b86516313be252b60e01b8152fd5b8651631e9acf1760e31b8152fd5b5050346101365781600319360112610136576020906002549051908152f35b50346100ee57816003193601126100ee5760209261059d61072b565b918360243592839233825287528181209460018060a01b0316948582528752205582519081527f8c5be1e5ebec7d5bd14f71427d1e84f3dd0314c0f7b2291e5b200ac8c7c3b925843392a35160018152f35b84915083346100ee57826003193601126100ee57828354600181811c908083169283156106d8575b60209384841081146102ee578388529081156106bc575060011461066757505050829003601f01601f191682019267ffffffffffffffff84118385101761026a57508291826102669252826106e2565b8680529192508591837f290decd9548b62a8d60345a988386fc84ba6bc95484008f6362f93160ef3e5635b8385106106a85750505050830101858080610234565b805488860183015293019284908201610692565b60ff1916878501525050151560051b8401019050858080610234565b91607f1691610617565b6020808252825181830181905290939260005b82811061071757505060409293506000838284010152601f8019910116010190565b8181018601518482016040015285016106f5565b600435906001600160a01b038216820361074157565b600080fd5b602435906001600160a01b038216820361074157565b9190820180921161076957565b634e487b7160e01b600052601160045260246000fd5b919082039182116107695756fea2646970667358221220b4a7a81306531b98d4ab9038f068809c2ec4c02f5bca341a764b2fb59a3b63e864736f6c63430008140033",
  "linkReferences": {},
  "deployedLinkReferences": {}
}