{
  "_format": "hh-sol-artifact-1",
  "contractName": "SelsipadBCToken",
  "sourceName": "contracts/bonding-curve/SelsipadBCToken.sol",
  "abi": [
    {
      "inputs": [
        {
          "internalType": "string",
          "name": "_name",
          "type": "string"
        },
        {
          "internalType": "string",
          "name": "_symbol",
          "type": "string"
        },
        {
          "internalType": "address",
          "name": "_creator",
          "type": "address"
        }
      ],
      "stateMutability": "nonpayable",
      "type": "constructor"
    },
    {
      "inputs": [],
      "name": "InsufficientAllowance",
      "type": "error"
    },
    {
      "inputs": [],
      "name": "InsufficientBalance",
      "type": "error"
    },
    {
      "inputs": [],
      "name": "OnlyFactory",
      "type": "error"
    },
    {
      "anonymous": false,
      "inputs": [
        {
          "indexed": true,
          "internalType": "address",
          "name": "owner",
          "type": "address"
        },
        {
          "indexed": true,
          "internalType": "address",
          "name": "spender",
          "type": "address"
        },
        {
          "indexed": false,
          "internalType": "uint256",
          "name": "value",
          "type": "uint256"
        }
      ],
      "name": "Approval",
      "type": "event"
    },
    {
      "anonymous": false,
      "inputs": [
        {
          "indexed": true,
          "internalType": "address",
          "name": "from",
          "type": "address"
        },
        {
          "indexed": true,
          "internalType": "address",
          "name": "to",
          "type": "address"
        },
        {
          "indexed": false,
          "internalType": "uint256",
          "name": "value",
          "type": "uint256"
        }
      ],
      "name": "Transfer",
      "type": "event"
    },
    {
      "inputs": [
        {
          "internalType": "address",
          "name": "",
          "type": "address"
        },
        {
          "internalType": "address",
          "name": "",
          "type": "address"
        }
      ],
      "name": "allowance",
      "outputs": [
        {
          "internalType": "uint256",
          "name": "",
          "type": "uint256"
        }
      ],
      "stateMutability": "view",
      "type": "function"
    },
    {
      "inputs": [
        {
          "internalType": "address",
          "name": "spender",
          "type": "address"
        },
        {
          "internalType": "uint256",
          "name": "amount",
          "type": "uint256"
        }
      ],
      "name": "approve",
      "outputs": [
        {
          "internalType": "bool",
          "name": "",
          "type": "bool"
        }
      ],
      "stateMutability": "nonpayable",
      "type": "function"
    },
    {
      "inputs": [
        {
          "internalType": "address",
          "name": "",
          "type": "address"
        }
      ],
      "name": "balanceOf",
      "outputs": [
        {
          "internalType": "uint256",
          "name": "",
          "type": "uint256"
        }
      ],
      "stateMutability": "view",
      "type": "function"
    },
    {
      "inputs": [],
      "name": "decimals",
      "outputs": [
        {
          "internalType": "uint8",
          "name": "",
          "type": "uint8"
        }
      ],
      "stateMutability": "view",
      "type": "function"
    },
    {
      "inputs": [],
      "name": "factory",
      "outputs": [
        {
          "internalType": "address",
          "name": "",
          "type": "address"
        }
      ],
      "stateMutability": "view",
      "type": "function"
    },
    {
      "inputs": [
        {
          "internalType": "address",
          "name": "to",
          "type": "address"
        },
        {
          "internalType": "uint256",
          "name": "amount",
          "type": "uint256"
        }
      ],
      "name": "mintFromFactory",
      "outputs": [],
      "stateMutability": "nonpayable",
      "type": "function"
    },
    {
      "inputs": [],
      "name": "name",
      "outputs": [
        {
          "internalType": "string",
          "name": "",
          "type": "string"
        }
      ],
      "stateMutability": "view",
      "type": "function"
    },
    {
      "inputs": [],
      "name": "symbol",
      "outputs": [
        {
          "internalType": "string",
          "name": "",
          "type": "string"
        }
      ],
      "stateMutability": "view",
      "type": "function"
    },
    {
      "inputs": [],
      "name": "totalSupply",
      "outputs": [
        {
          "internalType": "uint256",
          "name": "",
          "type": "uint256"
        }
      ],
      "stateMutability": "view",
      "type": "function"
    },
    {
      "inputs": [
        {
          "internalType": "address",
          "name": "to",
          "type": "address"
        },
        {
          "internalType": "uint256",
          "name": "amount",
          "type": "uint256"
        }
      ],
      "name": "transfer",
      "outputs": [
        {
          "internalType": "bool",
          "name": "",
          "type": "bool"
        }
      ],
      "stateMutability": "nonpayable",
      "type": "function"
    },
    {
      "inputs": [
        {
          "internalType": "address",
          "name": "from",
          "type": "address"
        },
        {
          "internalType": "address",
          "name": "to",
          "type": "address"
        },
        {
          "internalType": "uint256",
          "name": "amount",
          "type": "uint256"
        }
      ],
      "name": "transferFrom",
      "outputs": [
        {
          "internalType": "bool",
          "name": "",
          "type": "bool"
        }
      ],
      "stateMutability": "nonpayable",
      "type": "function"
    }
  ],
  "bytecode": "0x60a060405234620003a35762000bf1803803806200001d81620003a8565b9283398101606082820312620003a35781516001600160401b039290838111620003a357826200004f918301620003ce565b9160209081830151858111620003a3576040916200006f918501620003ce565b9201516001600160a01b0381169390849003620003a35780518581116200038d576000938454916001938484811c9416801562000382575b868510146200036e578190601f948581116200031b575b508690858311600114620002b7578892620002ab575b5050600019600383901b1c191690841b1785555b8051968711620002975782548381811c911680156200028c575b85821014620002785782811162000230575b5083918711600114620001ba5795809185969760008051602062000bd18339815191529692620001ae575b5050600019600383901b1c191690821b1790555b3360805283835260038152604083206200016e815462000440565b90556200017d60025462000440565b600255604051670de0b6b3a76400008152a360405161076490816200046d823960805181818160fc01526103610152f35b0151905038806200013f565b8285528385209190601f198816865b8181106200021a5750918493918960008051602062000bd183398151915298999a941062000200575b505050811b01905562000153565b015160001960f88460031b161c19169055388080620001f2565b82840151855593850193928601928601620001c9565b83865284862083808a0160051c820192878b106200026e575b0160051c019084905b8281106200026257505062000114565b87815501849062000252565b9250819262000249565b634e487b7160e01b86526022600452602486fd5b90607f169062000102565b634e487b7160e01b85526041600452602485fd5b015190503880620000d4565b8880528789208794509190601f1984168a5b8a828210620003045750508411620002ea575b505050811b018555620000e8565b015160001960f88460031b161c19169055388080620002dc565b8385015186558a97909501949384019301620002c9565b9091508780528688208580850160051c82019289861062000364575b918891869594930160051c01915b82811062000355575050620000be565b8a815585945088910162000345565b9250819262000337565b634e487b7160e01b87526022600452602487fd5b93607f1693620000a7565b634e487b7160e01b600052604160045260246000fd5b600080fd5b6040519190601f01601f191682016001600160401b038111838210176200038d57604052565b919080601f84011215620003a35782516001600160401b0381116200038d5760209062000404601f8201601f19168301620003a8565b92818452828287010111620003a35760005b8181106200042c57508260009394955001015290565b858101830151848201840152820162000416565b90670de0b6b3a764000082018092116200045657565b634e487b7160e01b600052601160045260246000fdfe6080604081815260048036101561001557600080fd5b600092833560e01c90816306fdde031461059157508063095ea7b31461052357806318160ddd1461050457806323b872dd1461040a578063313ce567146103ee57806364a7102b1461033857806370a082311461030057806395d89b41146101df578063a9059cbb1461012f578063c45a0155146100e75763dd62ed3e1461009c57600080fd5b346100e357816003193601126100e35760209282916100b96106cd565b6100c16106e8565b6001600160a01b03918216845291865283832091168252845220549051908152f35b8280fd5b50503461012b578160031936011261012b57517f00000000000000000000000000000000000000000000000000000000000000006001600160a01b03168152602090f35b5080fd5b5091346101dc57816003193601126101dc576101496106cd565b926024359033835260036020528184842054106101ce5750826020943384526003865281842061017a848254610721565b90556001600160a01b0316808452600386529220805461019b9083906106fe565b905582519081527fddf252ad1be2c89b69c2b068fc378daa952ba7f163c4a11628f55a4df523b3ef843392a35160018152f35b8351631e9acf1760e31b8152fd5b80fd5b5091903461012b578160031936011261012b5780519082600180549081811c908083169283156102f6575b60209384841081146102e3578388529081156102c75750600114610272575b505050829003601f01601f191682019267ffffffffffffffff84118385101761025f575082918261025b925282610684565b0390f35b634e487b7160e01b815260418552602490fd5b8087529192508591837fb10e2d527612073b26eecdfd717e6a320cf44b4afac2b0732d9fcbe2b7fa0cf65b8385106102b35750505050830101388080610229565b80548886018301529301928490820161029d565b60ff1916878501525050151560051b8401019050388080610229565b634e487b7160e01b895260228a52602489fd5b91607f169161020a565b50503461012b57602036600319011261012b5760209181906001600160a01b036103286106cd565b1681526003845220549051908152f35b50346100e357816003193601126100e3576103516106cd565b602435916001600160a01b0391907f0000000000000000000000000000000000000000000000000000000000000000831633036103e0575084927fddf252ad1be2c89b69c2b068fc378daa952ba7f163c4a11628f55a4df523b3ef926020921694858552600383528085206103c78382546106fe565b90556103d5826002546106fe565b60025551908152a380f35b8451630636a15760e11b8152fd5b50503461012b578160031936011261012b576020905160128152f35b5091346101dc5760603660031901126101dc576104256106cd565b61042d6106e8565b906044359060018060a01b0380911692838552602096600388528387872054106104f65784865280885286862033875288528387872054106104e85787927fddf252ad1be2c89b69c2b068fc378daa952ba7f163c4a11628f55a4df523b3ef94928892878952600386528389206104a5868254610721565b9055878952855282882033895285528288206104c2858254610721565b9055169586815260038452206104d98282546106fe565b90558551908152a35160018152f35b86516313be252b60e01b8152fd5b8651631e9acf1760e31b8152fd5b50503461012b578160031936011261012b576020906002549051908152f35b50346100e357816003193601126100e35760209261053f6106cd565b918360243592839233825287528181209460018060a01b0316948582528752205582519081527f8c5be1e5ebec7d5bd14f71427d1e84f3dd0314c0f7b2291e5b200ac8c7c3b925843392a35160018152f35b84915083346100e357826003193601126100e357828354600181811c9080831692831561067a575b60209384841081146102e35783885290811561065e575060011461060957505050829003601f01601f191682019267ffffffffffffffff84118385101761025f575082918261025b925282610684565b8680529192508591837f290decd9548b62a8d60345a988386fc84ba6bc95484008f6362f93160ef3e5635b83851061064a5750505050830101858080610229565b805488860183015293019284908201610634565b60ff1916878501525050151560051b8401019050858080610229565b91607f16916105b9565b6020808252825181830181905290939260005b8281106106b957505060409293506000838284010152601f8019910116010190565b818101860151848201604001528501610697565b600435906001600160a01b03821682036106e357565b600080fd5b602435906001600160a01b03821682036106e357565b9190820180921161070b57565b634e487b7160e01b600052601160045260246000fd5b9190820391821161070b5756fea2646970667358221220ba937415f3e276274eca1b73970cb2699d39e197e269c15dc0dfb8eba852821b64736f6c63430008140033ddf252ad1be2c89b69c2b068fc378daa952ba7f163c4a11628f55a4df523b3ef",
  "linkReferences": {},
  "deployedLinkReferences": {}
}