{
  "_format": "hh-sol-artifact-1",
  "contractName": "MockFeeSplitter",
  "sourceName": "contracts/mocks/MockFeeSplitter.sol",
  "abi": [
    {
      "anonymous": false,
      "inputs": [
        {
          "indexed": false,
          "internalType": "uint256",
          "name": "amount",
          "type": "uint256"
        }
      ],
      "name": "FeeDistributed",
      "type": "event"
    },
    {
      "anonymous": false,
      "inputs": [
        {
          "indexed": true,
          "internalType": "address",
          "name": "presale",
          "type": "address"
        }
      ],
      "name": "PresaleRoleGranted",
      "type": "event"
    },
    {
      "inputs": [
        {
          "internalType": "address",
          "name": "fairlaunch",
          "type": "address"
        }
      ],
      "name": "distributeFairlaunchFee",
      "outputs": [],
      "stateMutability": "payable",
      "type": "function"
    },
    {
      "inputs": [],
      "name": "distributeFees",
      "outputs": [],
      "stateMutability": "payable",
      "type": "function"
    },
    {
      "inputs": [
        {
          "internalType": "address",
          "name": "presale",
          "type": "address"
        }
      ],
      "name": "grantPresaleRole",
      "outputs": [],
      "stateMutability": "nonpayable",
      "type": "function"
    },
    {
      "inputs": [
        {
          "internalType": "address",
          "name": "",
          "type": "address"
        }
      ],
      "name": "hasPresaleRole",
      "outputs": [
        {
          "internalType": "bool",
          "name": "",
          "type": "bool"
        }
      ],
      "stateMutability": "view",
      "type": "function"
    },
    {
      "stateMutability": "payable",
      "type": "receive"
    }
  ],
  "bytecode": "0x60808060405234610016576101b9908161001c8239f35b600080fdfe608080604052600436101561001d575b50361561001b57600080fd5b005b600090813560e01c90816326f55c62146101415750806339650d1f146100f5578063417eb66c1461008d5763bb57ad200361000f578060031936011261008a577f65fbefa8a319bc4b53d3436a388ac60632281c1ce0b61c4d0d7d2dbd2ad44ec96020604051348152a180f35b80fd5b503461008a57602036600319011261008a576004356001600160a01b038116908190036100f1578082528160205260408220600160ff198254161790557fb84819af5c70c4dcebf5bfcffe270cb4b1b6f6ed4a1a54f7c38ddecaf3abb5aa8280a280f35b5080fd5b50602036600319011261008a576004356001600160a01b0381160361008a577f65fbefa8a319bc4b53d3436a388ac60632281c1ce0b61c4d0d7d2dbd2ad44ec96020604051348152a180f35b9050346100f15760203660031901126100f1576004356001600160a01b0381169081900361017f5760408360ff926020955280855220541615158152f35b8280fdfea26469706673582212203d9b9598d63c2d62c3b64c35bbd0a03703aa7e94b2d8099b0e61eabe138fbb6564736f6c63430008140033",
  "linkReferences": {},
  "deployedLinkReferences": {}
}