{
  "_format": "hh-sol-artifact-1",
  "contractName": "BlueCheckRegistry",
  "sourceName": "contracts/bluecheck/BlueCheckRegistry.sol",
  "abi": [
    {
      "inputs": [
        {
          "internalType": "address",
          "name": "_treasury",
          "type": "address"
        },
        {
          "internalType": "address",
          "name": "_referralPool",
          "type": "address"
        },
        {
          "internalType": "uint256",
          "name": "_initialPriceBNB",
          "type": "uint256"
        }
      ],
      "stateMutability": "nonpayable",
      "type": "constructor"
    },
    {
      "inputs": [],
      "name": "AlreadyPurchased",
      "type": "error"
    },
    {
      "inputs": [],
      "name": "EnforcedPause",
      "type": "error"
    },
    {
      "inputs": [],
      "name": "ExpectedPause",
      "type": "error"
    },
    {
      "inputs": [],
      "name": "InsufficientPayment",
      "type": "error"
    },
    {
      "inputs": [],
      "name": "InvalidAddress",
      "type": "error"
    },
    {
      "inputs": [
        {
          "internalType": "address",
          "name": "owner",
          "type": "address"
        }
      ],
      "name": "OwnableInvalidOwner",
      "type": "error"
    },
    {
      "inputs": [
        {
          "internalType": "address",
          "name": "account",
          "type": "address"
        }
      ],
      "name": "OwnableUnauthorizedAccount",
      "type": "error"
    },
    {
      "inputs": [],
      "name": "ReentrancyGuardReentrantCall",
      "type": "error"
    },
    {
      "inputs": [],
      "name": "TransferFailed",
      "type": "error"
    },
    {
      "anonymous": false,
      "inputs": [
        {
          "indexed": true,
          "internalType": "address",
          "name": "user",
          "type": "address"
        },
        {
          "indexed": false,
          "internalType": "uint256",
          "name": "amountPaid",
          "type": "uint256"
        },
        {
          "indexed": false,
          "internalType": "uint256",
          "name": "treasuryAmount",
          "type": "uint256"
        },
        {
          "indexed": false,
          "internalType": "uint256",
          "name": "referrerReward",
          "type": "uint256"
        },
        {
          "indexed": true,
          "internalType": "address",
          "name": "referrer",
          "type": "address"
        },
        {
          "indexed": false,
          "internalType": "uint256",
          "name": "timestamp",
          "type": "uint256"
        }
      ],
      "name": "BlueCheckPurchased",
      "type": "event"
    },
    {
      "anonymous": false,
      "inputs": [
        {
          "indexed": false,
          "internalType": "uint256",
          "name": "oldPrice",
          "type": "uint256"
        },
        {
          "indexed": false,
          "internalType": "uint256",
          "name": "newPrice",
          "type": "uint256"
        }
      ],
      "name": "ManualPriceUpdated",
      "type": "event"
    },
    {
      "anonymous": false,
      "inputs": [
        {
          "indexed": true,
          "internalType": "address",
          "name": "previousOwner",
          "type": "address"
        },
        {
          "indexed": true,
          "internalType": "address",
          "name": "newOwner",
          "type": "address"
        }
      ],
      "name": "OwnershipTransferred",
      "type": "event"
    },
    {
      "anonymous": false,
      "inputs": [
        {
          "indexed": false,
          "internalType": "address",
          "name": "account",
          "type": "address"
        }
      ],
      "name": "Paused",
      "type": "event"
    },
    {
      "anonymous": false,
      "inputs": [
        {
          "indexed": true,
          "internalType": "address",
          "name": "oldPool",
          "type": "address"
        },
        {
          "indexed": true,
          "internalType": "address",
          "name": "newPool",
          "type": "address"
        }
      ],
      "name": "ReferralPoolUpdated",
      "type": "event"
    },
    {
      "anonymous": false,
      "inputs": [
        {
          "indexed": true,
          "internalType": "address",
          "name": "oldTreasury",
          "type": "address"
        },
        {
          "indexed": true,
          "internalType": "address",
          "name": "newTreasury",
          "type": "address"
        }
      ],
      "name": "TreasuryUpdated",
      "type": "event"
    },
    {
      "anonymous": false,
      "inputs": [
        {
          "indexed": false,
          "internalType": "address",
          "name": "account",
          "type": "address"
        }
      ],
      "name": "Unpaused",
      "type": "event"
    },
    {
      "inputs": [],
      "name": "PRICE_USD",
      "outputs": [
        {
          "internalType": "uint256",
          "name": "",
          "type": "uint256"
        }
      ],
      "stateMutability": "view",
      "type": "function"
    },
    {
      "inputs": [],
      "name": "REFERRAL_POOL_SHARE",
      "outputs": [
        {
          "internalType": "uint256",
          "name": "",
          "type": "uint256"
        }
      ],
      "stateMutability": "view",
      "type": "function"
    },
    {
      "inputs": [],
      "name": "TREASURY_SHARE",
      "outputs": [
        {
          "internalType": "uint256",
          "name": "",
          "type": "uint256"
        }
      ],
      "stateMutability": "view",
      "type": "function"
    },
    {
      "inputs": [
        {
          "internalType": "address",
          "name": "user",
          "type": "address"
        }
      ],
      "name": "checkBlueCheck",
      "outputs": [
        {
          "internalType": "bool",
          "name": "",
          "type": "bool"
        }
      ],
      "stateMutability": "view",
      "type": "function"
    },
    {
      "inputs": [
        {
          "internalType": "uint256",
          "name": "amount",
          "type": "uint256"
        }
      ],
      "name": "emergencyWithdraw",
      "outputs": [],
      "stateMutability": "nonpayable",
      "type": "function"
    },
    {
      "inputs": [],
      "name": "getRequiredBNB",
      "outputs": [
        {
          "internalType": "uint256",
          "name": "",
          "type": "uint256"
        }
      ],
      "stateMutability": "view",
      "type": "function"
    },
    {
      "inputs": [
        {
          "internalType": "address",
          "name": "",
          "type": "address"
        }
      ],
      "name": "hasBlueCheck",
      "outputs": [
        {
          "internalType": "bool",
          "name": "",
          "type": "bool"
        }
      ],
      "stateMutability": "view",
      "type": "function"
    },
    {
      "inputs": [],
      "name": "manualPriceBNB",
      "outputs": [
        {
          "internalType": "uint256",
          "name": "",
          "type": "uint256"
        }
      ],
      "stateMutability": "view",
      "type": "function"
    },
    {
      "inputs": [],
      "name": "owner",
      "outputs": [
        {
          "internalType": "address",
          "name": "",
          "type": "address"
        }
      ],
      "stateMutability": "view",
      "type": "function"
    },
    {
      "inputs": [],
      "name": "pause",
      "outputs": [],
      "stateMutability": "nonpayable",
      "type": "function"
    },
    {
      "inputs": [],
      "name": "paused",
      "outputs": [
        {
          "internalType": "bool",
          "name": "",
          "type": "bool"
        }
      ],
      "stateMutability": "view",
      "type": "function"
    },
    {
      "inputs": [],
      "name": "priceOracle",
      "outputs": [
        {
          "internalType": "address",
          "name": "",
          "type": "address"
        }
      ],
      "stateMutability": "view",
      "type": "function"
    },
    {
      "inputs": [
        {
          "internalType": "address",
          "name": "referrer",
          "type": "address"
        }
      ],
      "name": "purchaseBlueCheck",
      "outputs": [],
      "stateMutability": "payable",
      "type": "function"
    },
    {
      "inputs": [
        {
          "internalType": "address",
          "name": "",
          "type": "address"
        }
      ],
      "name": "purchaseTimestamp",
      "outputs": [
        {
          "internalType": "uint256",
          "name": "",
          "type": "uint256"
        }
      ],
      "stateMutability": "view",
      "type": "function"
    },
    {
      "inputs": [],
      "name": "referralPool",
      "outputs": [
        {
          "internalType": "address",
          "name": "",
          "type": "address"
        }
      ],
      "stateMutability": "view",
      "type": "function"
    },
    {
      "inputs": [],
      "name": "renounceOwnership",
      "outputs": [],
      "stateMutability": "nonpayable",
      "type": "function"
    },
    {
      "inputs": [],
      "name": "totalBNBCollected",
      "outputs": [
        {
          "internalType": "uint256",
          "name": "",
          "type": "uint256"
        }
      ],
      "stateMutability": "view",
      "type": "function"
    },
    {
      "inputs": [],
      "name": "totalPurchases",
      "outputs": [
        {
          "internalType": "uint256",
          "name": "",
          "type": "uint256"
        }
      ],
      "stateMutability": "view",
      "type": "function"
    },
    {
      "inputs": [
        {
          "internalType": "address",
          "name": "newOwner",
          "type": "address"
        }
      ],
      "name": "transferOwnership",
      "outputs": [],
      "stateMutability": "nonpayable",
      "type": "function"
    },
    {
      "inputs": [],
      "name": "treasury",
      "outputs": [
        {
          "internalType": "address",
          "name": "",
          "type": "address"
        }
      ],
      "stateMutability": "view",
      "type": "function"
    },
    {
      "inputs": [],
      "name": "unpause",
      "outputs": [],
      "stateMutability": "nonpayable",
      "type": "function"
    },
    {
      "inputs": [
        {
          "internalType": "uint256",
          "name": "_newPriceBNB",
          "type": "uint256"
        }
      ],
      "name": "updateManualPrice",
      "outputs": [],
      "stateMutability": "nonpayable",
      "type": "function"
    },
    {
      "inputs": [
        {
          "internalType": "address",
          "name": "_newPool",
          "type": "address"
        }
      ],
      "name": "updateReferralPool",
      "outputs": [],
      "stateMutability": "nonpayable",
      "type": "function"
    },
    {
      "inputs": [
        {
          "internalType": "address",
          "name": "_newTreasury",
          "type": "address"
        }
      ],
      "name": "updateTreasury",
      "outputs": [],
      "stateMutability": "nonpayable",
      "type": "function"
    }
  ],
  "bytecode": "0x60803461013657601f610b5238819003918201601f19168301916001600160401b0383118484101761013b578084926060946040528339810103126101365761004781610151565b604061005560208401610151565b92015191331561011d57600080546001600160a01b031980821633908117845560405191956001600160a01b03959490938616907f8be0079c531659141344cd1fd0a4f28419497f9722a3daafe3b4186f6b6457e09080a360018055838216158015610113575b610104575060028054610100600160a81b03191660089290921b610100600160a81b03169190911790556003805490931691161790556005556040516109ec90816101668239f35b63e6c4247b60e01b8152600490fd5b50838316156100bc565b604051631e4fbdf760e01b815260006004820152602490fd5b600080fd5b634e487b7160e01b600052604160045260246000fd5b51906001600160a01b03821682036101365756fe608060408181526004908136101561001657600080fd5b600092833560e01c908163171dca1314610879575080631e4df938146108505780632630c12f1461082857806326fa0cad1461080457806332696174146107e85780633f4ba83a1461077e5780635312ea8e14610740578063553c907e146106ed57806355d08949146106715780635962a941146106525780635c975abb1461062e57806361d027b314610601578063715018a6146105a4578063767551181461056a5780637f51bb1f146104d55780638456cb591461047a5780638da5cb5b1461045257806392423383146104335780639e844bdf14610417578063b1c457c5146103d8578063d2799af5146103d8578063e1ab98ba146103b1578063e9d4789a146101bc5763f2fde38b1461012c57600080fd5b346101b85760203660031901126101b8576001600160a01b038235818116939192908490036101b45761015d610895565b831561019e57505082546001600160a01b0319811683178455167f8be0079c531659141344cd1fd0a4f28419497f9722a3daafe3b4186f6b6457e08380a380f35b51631e4fbdf760e01b8152908101849052602490fd5b8480fd5b8280fd5b509060203660031901126101b8576001600160a01b039181358381168082036103ad57600194600286541461039d57600286556101f7610945565b338752600660205260ff848820541661038d57610212610963565b9283341061037d57918015908115610373575b50610364575b33875260066020528387208660ff1982541617905560076020524284882055600854600019811461035157860160085560095483810180911161035157600955604683028381046046148415171561035157606490049161028c83856108c1565b88808080878760025460081c165af16102a36108e4565b5015610341578880808084865af16102b96108e4565b5015610341579161030b939189959387519385855260208501528784015242606084015216907feb4d2435f2a520ea25b77b07b5a91f31c9dd9bcc7aeb06b6a01f84b1b3f8291160803392a3346108c1565b80610318575b5083805580f35b81808092335af16103276108e4565b5015610334578381610311565b516312171d8360e31b8152fd5b85516312171d8360e31b81528790fd5b634e487b7160e01b885260118652602488fd5b60025460081c8116915061022b565b9050331438610225565b845163cd1c886760e01b81528690fd5b50505051630cd9ed5560e21b8152fd5b50505051633ee5aeb560e01b8152fd5b8580fd5b8382346103d457816003193601126103d45760209051678ac7230489e800008152f35b5080fd5b5090346101b85760203660031901126101b857356001600160a01b038116908190036101b857818360ff92602095526006855220541690519015158152f35b8382346103d457816003193601126103d45760209051601e8152f35b8382346103d457816003193601126103d4576020906009549051908152f35b8382346103d457816003193601126103d457905490516001600160a01b039091168152602090f35b8382346103d457816003193601126103d45760207f62e78cea01bee320cd4e420270b5ea74000d11b0c9f74754ebdbfc544b05a258916104b8610895565b6104c0610945565b600160ff19600254161760025551338152a180f35b5090346101b85760203660031901126101b85780356001600160a01b03818116939092908483036103ad57610508610895565b841561055d57505060028054610100600160a81b03198116600893841b610100600160a81b031617909155901c167f4ab5be82436d353e61ca18726e984e561f5c1cc7c6d38b29d2553c790434705a8380a380f35b5163e6c4247b60e01b8152fd5b5090346101b85760203660031901126101b857356001600160a01b038116908190036101b857828291602094526007845220549051908152f35b83346105fe57806003193601126105fe576105bd610895565b80546001600160a01b03198116825581906001600160a01b03167f8be0079c531659141344cd1fd0a4f28419497f9722a3daafe3b4186f6b6457e08280a380f35b80fd5b8382346103d457816003193601126103d457600254905160089190911c6001600160a01b03168152602090f35b8382346103d457816003193601126103d45760209060ff6002541690519015158152f35b8382346103d457816003193601126103d4576020906008549051908152f35b50346101b85760203660031901126101b8576001600160a01b038235818116939192908490036101b4576106a3610895565b831561055d575050600354826bffffffffffffffffffffffff60a01b821617600355167f66d1693c687b421f540b37c3682deeaee7fe381c4d000c01701498e6f6ed04c88380a380f35b50346101b85760203660031901126101b8577f466b192740ad42c5dd7e4c768afb2d0de60dfb03f791a8a4ff715d0951bc0712913561072a610895565b600554908060055582519182526020820152a180f35b50346101b85760203660031901126101b85761075a610895565b82808080853560018060a01b038254165af16107746108e4565b5015610334578280f35b5090346101b857826003193601126101b857610798610895565b6002549060ff8216156107da575060ff1916600255513381527f5db9ee0a495bf2e6ff9c91a7834c1ba4fdd244a5e8aa4e537bd38aeae4b073aa90602090a180f35b8251638dfc202b60e01b8152fd5b8382346103d457816003193601126103d4576020905160468152f35b8382346103d457816003193601126103d457602090610821610963565b9051908152f35b5090346101b857826003193601126101b8575490516001600160a01b03909116815260209150f35b8382346103d457816003193601126103d45760035490516001600160a01b039091168152602090f35b8490346103d457816003193601126103d4576020906005548152f35b6000546001600160a01b031633036108a957565b60405163118cdaa760e01b8152336004820152602490fd5b919082039182116108ce57565b634e487b7160e01b600052601160045260246000fd5b3d156109405767ffffffffffffffff903d82811161092a5760405192601f8201601f19908116603f011684019081118482101761092a5760405282523d6000602084013e565b634e487b7160e01b600052604160045260246000fd5b606090565b60ff6002541661095157565b60405163d93c066560e01b8152600490fd5b6005548015610981576f0785ee10d5da46d900f436a0000000000490565b60405162461bcd60e51b815260206004820152600d60248201526c141c9a58d9481b9bdd081cd95d609a1b6044820152606490fdfea2646970667358221220c597f45cc57be47789543272b3e7a8d41ce0582aa981ed4ecde269fd6fe9f8c064736f6c63430008140033",
  "linkReferences": {},
  "deployedLinkReferences": {}
}