{
  "_format": "hh-sol-artifact-1",
  "contractName": "MockLPLocker",
  "sourceName": "contracts/mocks/MockLPLocker.sol",
  "abi": [
    {
      "inputs": [
        {
          "internalType": "address",
          "name": "token",
          "type": "address"
        }
      ],
      "name": "SafeERC20FailedOperation",
      "type": "error"
    },
    {
      "inputs": [],
      "name": "lockCount",
      "outputs": [
        {
          "internalType": "uint256",
          "name": "",
          "type": "uint256"
        }
      ],
      "stateMutability": "view",
      "type": "function"
    },
    {
      "inputs": [
        {
          "internalType": "address",
          "name": "lpToken",
          "type": "address"
        },
        {
          "internalType": "uint256",
          "name": "amount",
          "type": "uint256"
        },
        {
          "internalType": "uint256",
          "name": "unlockTime",
          "type": "uint256"
        },
        {
          "internalType": "address",
          "name": "beneficiary",
          "type": "address"
        }
      ],
      "name": "lockTokens",
      "outputs": [
        {
          "internalType": "uint256",
          "name": "lockId",
          "type": "uint256"
        }
      ],
      "stateMutability": "nonpayable",
      "type": "function"
    }
  ],
  "bytecode": "0x608080604052346100165761019c908161001c8239f35b600080fdfe60806040818152600436101561001457600080fd5b600091823560e01c9081630aa393f3146100575750639b10b6f51461003857600080fd5b34610053578160031936011261005357602091549051908152f35b5080fd5b905034610162576080366003190112610162576004356001600160a01b03818116929183900361015e576064359081160361015a5760208101906323b872dd60e01b825233602482015230604482015260243560648201526064815260a0810181811067ffffffffffffffff8211176101465784525160209185919082855af11561013b5782513d6101325750803b155b61011c575081549060001982146101085760209260018301905551908152f35b634e487b7160e01b83526011600452602483fd5b6024915190635274afe760e01b82526004820152fd5b600114156100e8565b5051903d90823e3d90fd5b634e487b7160e01b86526041600452602486fd5b8380fd5b8480fd5b8280fdfea26469706673582212207e9f1f19eb6f9334fbe3ec41ad32bfccaf564574e9b415facb7278523f0398b864736f6c63430008140033",
  "linkReferences": {},
  "deployedLinkReferences": {}
}