{
  "_format": "hh-sol-artifact-1",
  "contractName": "SelsipadBondingCurveFactory",
  "sourceName": "contracts/bonding-curve/SelsipadBondingCurveFactory.sol",
  "abi": [
    {
      "inputs": [
        {
          "internalType": "address",
          "name": "_router",
          "type": "address"
        },
        {
          "internalType": "address",
          "name": "_treasury",
          "type": "address"
        }
      ],
      "stateMutability": "nonpayable",
      "type": "constructor"
    },
    {
      "inputs": [],
      "name": "InsufficientFee",
      "type": "error"
    },
    {
      "inputs": [],
      "name": "InsufficientReserve",
      "type": "error"
    },
    {
      "inputs": [],
      "name": "InvalidAddress",
      "type": "error"
    },
    {
      "inputs": [],
      "name": "InvalidToken",
      "type": "error"
    },
    {
      "inputs": [
        {
          "internalType": "address",
          "name": "owner",
          "type": "address"
        }
      ],
      "name": "OwnableInvalidOwner",
      "type": "error"
    },
    {
      "inputs": [
        {
          "internalType": "address",
          "name": "account",
          "type": "address"
        }
      ],
      "name": "OwnableUnauthorizedAccount",
      "type": "error"
    },
    {
      "inputs": [],
      "name": "ReentrancyGuardReentrantCall",
      "type": "error"
    },
    {
      "inputs": [],
      "name": "SlippageExceeded",
      "type": "error"
    },
    {
      "inputs": [],
      "name": "TradingMigrated",
      "type": "error"
    },
    {
      "inputs": [],
      "name": "TradingNotMigrated",
      "type": "error"
    },
    {
      "inputs": [],
      "name": "TransferFailed",
      "type": "error"
    },
    {
      "inputs": [],
      "name": "ZeroAmount",
      "type": "error"
    },
    {
      "anonymous": false,
      "inputs": [
        {
          "indexed": false,
          "internalType": "uint256",
          "name": "oldFee",
          "type": "uint256"
        },
        {
          "indexed": false,
          "internalType": "uint256",
          "name": "newFee",
          "type": "uint256"
        }
      ],
      "name": "CreateFeeUpdated",
      "type": "event"
    },
    {
      "anonymous": false,
      "inputs": [
        {
          "indexed": true,
          "internalType": "address",
          "name": "token",
          "type": "address"
        },
        {
          "indexed": false,
          "internalType": "uint256",
          "name": "tokenAmount",
          "type": "uint256"
        },
        {
          "indexed": false,
          "internalType": "uint256",
          "name": "ethAmount",
          "type": "uint256"
        },
        {
          "indexed": false,
          "internalType": "address",
          "name": "lpPair",
          "type": "address"
        }
      ],
      "name": "LiquidityMigrated",
      "type": "event"
    },
    {
      "anonymous": false,
      "inputs": [
        {
          "indexed": false,
          "internalType": "uint256",
          "name": "oldThreshold",
          "type": "uint256"
        },
        {
          "indexed": false,
          "internalType": "uint256",
          "name": "newThreshold",
          "type": "uint256"
        }
      ],
      "name": "MigrationThresholdUpdated",
      "type": "event"
    },
    {
      "anonymous": false,
      "inputs": [
        {
          "indexed": true,
          "internalType": "address",
          "name": "previousOwner",
          "type": "address"
        },
        {
          "indexed": true,
          "internalType": "address",
          "name": "newOwner",
          "type": "address"
        }
      ],
      "name": "OwnershipTransferred",
      "type": "event"
    },
    {
      "anonymous": false,
      "inputs": [
        {
          "indexed": true,
          "internalType": "address",
          "name": "token",
          "type": "address"
        },
        {
          "indexed": false,
          "internalType": "string",
          "name": "name",
          "type": "string"
        },
        {
          "indexed": false,
          "internalType": "string",
          "name": "symbol",
          "type": "string"
        },
        {
          "indexed": true,
          "internalType": "address",
          "name": "creator",
          "type": "address"
        }
      ],
      "name": "TokenLaunched",
      "type": "event"
    },
    {
      "anonymous": false,
      "inputs": [
        {
          "indexed": true,
          "internalType": "address",
          "name": "token",
          "type": "address"
        },
        {
          "indexed": true,
          "internalType": "address",
          "name": "buyer",
          "type": "address"
        },
        {
          "indexed": false,
          "internalType": "uint256",
          "name": "tokenAmount",
          "type": "uint256"
        },
        {
          "indexed": false,
          "internalType": "uint256",
          "name": "ethCost",
          "type": "uint256"
        },
        {
          "indexed": true,
          "internalType": "address",
          "name": "referrer",
          "type": "address"
        }
      ],
      "name": "TokensPurchased",
      "type": "event"
    },
    {
      "anonymous": false,
      "inputs": [
        {
          "indexed": true,
          "internalType": "address",
          "name": "token",
          "type": "address"
        },
        {
          "indexed": true,
          "internalType": "address",
          "name": "seller",
          "type": "address"
        },
        {
          "indexed": false,
          "internalType": "uint256",
          "name": "tokenAmount",
          "type": "uint256"
        },
        {
          "indexed": false,
          "internalType": "uint256",
          "name": "ethRefund",
          "type": "uint256"
        },
        {
          "indexed": true,
          "internalType": "address",
          "name": "referrer",
          "type": "address"
        }
      ],
      "name": "TokensSold",
      "type": "event"
    },
    {
      "anonymous": false,
      "inputs": [
        {
          "indexed": false,
          "internalType": "address",
          "name": "oldTreasury",
          "type": "address"
        },
        {
          "indexed": false,
          "internalType": "address",
          "name": "newTreasury",
          "type": "address"
        }
      ],
      "name": "TreasuryUpdated",
      "type": "event"
    },
    {
      "inputs": [],
      "name": "BPS_DENOMINATOR",
      "outputs": [
        {
          "internalType": "uint256",
          "name": "",
          "type": "uint256"
        }
      ],
      "stateMutability": "view",
      "type": "function"
    },
    {
      "inputs": [],
      "name": "DEAD_ADDRESS",
      "outputs": [
        {
          "internalType": "address",
          "name": "",
          "type": "address"
        }
      ],
      "stateMutability": "view",
      "type": "function"
    },
    {
      "inputs": [],
      "name": "MIGRATION_RESERVE",
      "outputs": [
        {
          "internalType": "uint256",
          "name": "",
          "type": "uint256"
        }
      ],
      "stateMutability": "view",
      "type": "function"
    },
    {
      "inputs": [],
      "name": "REFERRAL_FEE_BPS",
      "outputs": [
        {
          "internalType": "uint256",
          "name": "",
          "type": "uint256"
        }
      ],
      "stateMutability": "view",
      "type": "function"
    },
    {
      "inputs": [],
      "name": "TRADE_FEE_BPS",
      "outputs": [
        {
          "internalType": "uint256",
          "name": "",
          "type": "uint256"
        }
      ],
      "stateMutability": "view",
      "type": "function"
    },
    {
      "inputs": [],
      "name": "TRADING_RESERVE",
      "outputs": [
        {
          "internalType": "uint256",
          "name": "",
          "type": "uint256"
        }
      ],
      "stateMutability": "view",
      "type": "function"
    },
    {
      "inputs": [],
      "name": "V_ETH_RESERVE",
      "outputs": [
        {
          "internalType": "uint256",
          "name": "",
          "type": "uint256"
        }
      ],
      "stateMutability": "view",
      "type": "function"
    },
    {
      "inputs": [],
      "name": "V_TOKEN_RESERVE",
      "outputs": [
        {
          "internalType": "uint256",
          "name": "",
          "type": "uint256"
        }
      ],
      "stateMutability": "view",
      "type": "function"
    },
    {
      "inputs": [],
      "name": "WETH",
      "outputs": [
        {
          "internalType": "address",
          "name": "",
          "type": "address"
        }
      ],
      "stateMutability": "view",
      "type": "function"
    },
    {
      "inputs": [
        {
          "internalType": "uint256",
          "name": "",
          "type": "uint256"
        }
      ],
      "name": "allTokens",
      "outputs": [
        {
          "internalType": "address",
          "name": "",
          "type": "address"
        }
      ],
      "stateMutability": "view",
      "type": "function"
    },
    {
      "inputs": [
        {
          "internalType": "address",
          "name": "_token",
          "type": "address"
        },
        {
          "internalType": "address",
          "name": "_referrer",
          "type": "address"
        },
        {
          "internalType": "uint256",
          "name": "_minAmountOut",
          "type": "uint256"
        }
      ],
      "name": "buyToken",
      "outputs": [],
      "stateMutability": "payable",
      "type": "function"
    },
    {
      "inputs": [],
      "name": "createFee",
      "outputs": [
        {
          "internalType": "uint256",
          "name": "",
          "type": "uint256"
        }
      ],
      "stateMutability": "view",
      "type": "function"
    },
    {
      "inputs": [
        {
          "internalType": "address",
          "name": "_token",
          "type": "address"
        },
        {
          "internalType": "uint256",
          "name": "tokenAmount",
          "type": "uint256"
        }
      ],
      "name": "getAmountIn",
      "outputs": [
        {
          "internalType": "uint256",
          "name": "ethOut",
          "type": "uint256"
        }
      ],
      "stateMutability": "view",
      "type": "function"
    },
    {
      "inputs": [
        {
          "internalType": "address",
          "name": "_token",
          "type": "address"
        },
        {
          "internalType": "uint256",
          "name": "ethIn",
          "type": "uint256"
        }
      ],
      "name": "getAmountOut",
      "outputs": [
        {
          "internalType": "uint256",
          "name": "tokensOut",
          "type": "uint256"
        }
      ],
      "stateMutability": "view",
      "type": "function"
    },
    {
      "inputs": [
        {
          "internalType": "address",
          "name": "_token",
          "type": "address"
        }
      ],
      "name": "getCurrentPrice",
      "outputs": [
        {
          "internalType": "uint256",
          "name": "",
          "type": "uint256"
        }
      ],
      "stateMutability": "view",
      "type": "function"
    },
    {
      "inputs": [
        {
          "internalType": "address",
          "name": "_token",
          "type": "address"
        }
      ],
      "name": "getMigrationProgress",
      "outputs": [
        {
          "internalType": "uint256",
          "name": "bps",
          "type": "uint256"
        }
      ],
      "stateMutability": "view",
      "type": "function"
    },
    {
      "inputs": [
        {
          "internalType": "string",
          "name": "_name",
          "type": "string"
        },
        {
          "internalType": "string",
          "name": "_symbol",
          "type": "string"
        },
        {
          "internalType": "address",
          "name": "_referrer",
          "type": "address"
        }
      ],
      "name": "launchToken",
      "outputs": [],
      "stateMutability": "payable",
      "type": "function"
    },
    {
      "inputs": [],
      "name": "migrationThreshold",
      "outputs": [
        {
          "internalType": "uint256",
          "name": "",
          "type": "uint256"
        }
      ],
      "stateMutability": "view",
      "type": "function"
    },
    {
      "inputs": [],
      "name": "owner",
      "outputs": [
        {
          "internalType": "address",
          "name": "",
          "type": "address"
        }
      ],
      "stateMutability": "view",
      "type": "function"
    },
    {
      "inputs": [],
      "name": "renounceOwnership",
      "outputs": [],
      "stateMutability": "nonpayable",
      "type": "function"
    },
    {
      "inputs": [
        {
          "internalType": "address",
          "name": "_token",
          "type": "address"
        },
        {
          "internalType": "uint256",
          "name": "tokenAmount",
          "type": "uint256"
        },
        {
          "internalType": "address",
          "name": "_referrer",
          "type": "address"
        },
        {
          "internalType": "uint256",
          "name": "_minAmountOut",
          "type": "uint256"
        }
      ],
      "name": "sellToken",
      "outputs": [],
      "stateMutability": "nonpayable",
      "type": "function"
    },
    {
      "inputs": [
        {
          "internalType": "uint256",
          "name": "_fee",
          "type": "uint256"
        }
      ],
      "name": "setCreateFee",
      "outputs": [],
      "stateMutability": "nonpayable",
      "type": "function"
    },
    {
      "inputs": [
        {
          "internalType": "uint256",
          "name": "_threshold",
          "type": "uint256"
        }
      ],
      "name": "setMigrationThreshold",
      "outputs": [],
      "stateMutability": "nonpayable",
      "type": "function"
    },
    {
      "inputs": [
        {
          "internalType": "address",
          "name": "_router",
          "type": "address"
        }
      ],
      "name": "setRouter",
      "outputs": [],
      "stateMutability": "nonpayable",
      "type": "function"
    },
    {
      "inputs": [
        {
          "internalType": "address",
          "name": "_treasury",
          "type": "address"
        }
      ],
      "name": "setTreasuryWallet",
      "outputs": [],
      "stateMutability": "nonpayable",
      "type": "function"
    },
    {
      "inputs": [
        {
          "internalType": "address",
          "name": "",
          "type": "address"
        }
      ],
      "name": "tokens",
      "outputs": [
        {
          "internalType": "address",
          "name": "creator",
          "type": "address"
        },
        {
          "internalType": "address",
          "name": "tokenAddress",
          "type": "address"
        },
        {
          "internalType": "uint256",
          "name": "vReserveEth",
          "type": "uint256"
        },
        {
          "internalType": "uint256",
          "name": "vReserveToken",
          "type": "uint256"
        },
        {
          "internalType": "uint256",
          "name": "rReserveEth",
          "type": "uint256"
        },
        {
          "internalType": "uint256",
          "name": "rReserveToken",
          "type": "uint256"
        },
        {
          "internalType": "bool",
          "name": "liquidityMigrated",
          "type": "bool"
        },
        {
          "internalType": "uint256",
          "name": "createdAt",
          "type": "uint256"
        }
      ],
      "stateMutability": "view",
      "type": "function"
    },
    {
      "inputs": [],
      "name": "totalTokensLaunched",
      "outputs": [
        {
          "internalType": "uint256",
          "name": "",
          "type": "uint256"
        }
      ],
      "stateMutability": "view",
      "type": "function"
    },
    {
      "inputs": [
        {
          "internalType": "address",
          "name": "newOwner",
          "type": "address"
        }
      ],
      "name": "transferOwnership",
      "outputs": [],
      "stateMutability": "nonpayable",
      "type": "function"
    },
    {
      "inputs": [],
      "name": "treasuryWallet",
      "outputs": [
        {
          "internalType": "address",
          "name": "",
          "type": "address"
        }
      ],
      "stateMutability": "view",
      "type": "function"
    },
    {
      "inputs": [],
      "name": "uniswapRouter",
      "outputs": [
        {
          "internalType": "address",
          "name": "",
          "type": "address"
        }
      ],
      "stateMutability": "view",
      "type": "function"
    },
    {
      "inputs": [
        {
          "internalType": "uint256",
          "name": "_vEthReserve",
          "type": "uint256"
        },
        {
          "internalType": "uint256",
          "name": "_vTokenReserve",
          "type": "uint256"
        },
        {
          "internalType": "uint256",
          "name": "_tradingReserve",
          "type": "uint256"
        },
        {
          "internalType": "uint256",
          "name": "_migrationReserve",
          "type": "uint256"
        }
      ],
      "name": "updateReserves",
      "outputs": [],
      "stateMutability": "nonpayable",
      "type": "function"
    },
    {
      "stateMutability": "payable",
      "type": "receive"
    }
  ],
  "bytecode": "0x608060409080825234620001e5578181620029f68038038091620000248285620001ea565b833981010312620001e557620000486020620000408362000224565b920162000224565b3315620001cd5760008054336001600160a01b03198083168217845586519590946001600160a01b039493909285929183167f8be0079c531659141344cd1fd0a4f28419497f9722a3daafe3b4186f6b6457e08680a3600180556801a055690d9db800006007556b033b2e3c9fd0803ce80000006008556b0295be96e6406697200000006009556aa56fa5b99019a5c8000000600a55670de0b6b3a7640000600b5566b1a2bc2ec50000600c5516948515620001be57508216938415620001ad576004805485168217815586516315ab88c960e31b815291602091839182905afa918215620001a25780926200015b575b5050168160055416176005556006541617600655516127bc90816200023a8239f35b9091506020823d821162000199575b816200017960209383620001ea565b810103126200019657506200018e9062000224565b388062000139565b80fd5b3d91506200016a565b8651903d90823e3d90fd5b855163e6c4247b60e01b8152600490fd5b63e6c4247b60e01b8152600490fd5b8251631e4fbdf760e01b815260006004820152602490fd5b600080fd5b601f909101601f19168101906001600160401b038211908210176200020e57604052565b634e487b7160e01b600052604160045260246000fd5b51906001600160a01b0382168203620001e55756fe608060405260043610156200001d575b36156200001b57600080fd5b005b60003560e01c80631c27b15d14620016515780634513c9a614620016315780634626402b14620016065780634e6fd6c414620015e7578063629148491462001590578063632db21c146200150a578063634282af14620014c35780636eaaf10114620014a3578063715018a61462001446578063735de9f7146200141b57806384cc315b14620013b45780638da5cb5b146200138957806390bc1e8514620013695780639185f598146200134b57806394b4cd0a1462000c34578063995c86d51462000c145780639d72265e1462000bf65780639e1e213e1462000bd6578063a8602fea1462000b49578063ad5c46481462000b1e578063b1a51f351462000afe578063b2db919b1462000ade578063c0d786551462000a23578063c1d5725f1462000449578063c8a1d06e1462000420578063ca706bcf146200036c578063ca92a91b1462000315578063db7b04eb14620002de578063e1a4521814620002bf578063e4860339146200022b5763f2fde38b036200000f5734620002265760203660031901126200022657620001b36200186d565b620001bd62001976565b6001600160a01b039081169081156200020d57600054826001600160601b0360a01b821617600055167f8be0079c531659141344cd1fd0a4f28419497f9722a3daafe3b4186f6b6457e0600080a3005b604051631e4fbdf760e01b815260006004820152602490fd5b600080fd5b346200022657602036600319011262000226576101006001600160a01b0380620002546200186d565b166000526002602052604060002081815416916001820154169060028101546003820154600483015490600584015492600760ff60068701541695015495604051978852602088015260408701526060860152608085015260a0840152151560c083015260e0820152f35b3462000226576000366003190112620002265760206040516127108152f35b34620002265760803660031901126200022657620002fb62001976565b600435600755602435600855604435600955606435600a55005b346200022657602036600319011262000226576004356200033562001976565b7f5de685d6916f86043147d790b0ba618ff8c5239be31953a0d3b7b5c54c81b27e6040600b548151908152836020820152a1600b55005b34620002265760403660031901126200022657620003896200186d565b6024359060018060a01b0316600052600260205260406000206096820291808304609614811517156200040a57620003fb6200040292620003f5620003da620003ee946127106020980490620019d8565b600360028401549301549485918462001a81565b9262001a4c565b62001a60565b90620019d8565b604051908152f35b634e487b7160e01b600052601160045260246000fd5b34620002265760203660031901126200022657602062000402620004436200186d565b62001aca565b60603660031901126200022657620004606200186d565b6024356001600160a01b038116810362000226576044356200048162001a28565b341562000a11576001600160a01b03838116600090815260026020526040902060018101549093911615620009ff5760ff600684015416620009ed57609634023481046096036200040a57612710900492620004de8434620019d8565b9380620009be575b50620005169260028201546200051e60038401549582620003f56200050d8a8a9662001a81565b98899262001a4c565b8092620019d8565b94600584015492838711620009ac578015159081620009a1575b506200098f576005926200056b92879260028701556003860155620005636004860198895462001a81565b8855620019d8565b91015560405163a9059cbb60e01b81523360048201526024810183905260208160448160006001600160a01b038a165af190811562000882576000916200096b575b50156200095957604080519283523460208401526001600160a01b039182169233928616917fe4c62f62c45a0251c0c1bcc84de28bf8c9575b0841fc32fc2c94d889baf6af3191a454600b54111562000607575b60018055005b6001600160a01b03811660008181526002602090815260409182902060068101805460ff1916600117905591516370a0823160e01b81523060048201529193479390929190829060249082905afa908115620008825760009162000920575b5060056000916200068c6200068060038801548762001a4c565b60028801549062001a60565b908082108414620009175750945b6004818101849055910191909155805460405163095ea7b360e01b81526001600160a01b0390911691810191909152602481018490526020818060448101038160006001600160a01b0387165af180156200088257620008e1575b506004546001600160a01b03164261012c81019081106200040a57839160c4606092604051948593849263f305d71960e01b845260018060a01b03891660048501528a6024850152600060448501526000606485015261dead608485015260a48401525af180156200088257620008b0575b506004805460405163c45a015560e01b8152929160209184919082906001600160a01b03165afa9182156200088257620007df926020916000916200088e575b5060055460405163e6a4390560e01b81526001600160a01b038581166004830152909116602482015293849190829081906044820190565b03916001600160a01b03165afa801562000882577fa44c03aaf0b9a5fcba3a779474f4366ea6283072d24c8082199f204872b15973936060936000926200084a575b506040805196875260208701919091526001600160a01b03918216908601521692a28062000601565b6200087291925060203d6020116200087a575b620008698183620018e9565b81019062001aa9565b908662000821565b503d6200085d565b6040513d6000823e3d90fd5b620008a99150823d84116200087a57620008698183620018e9565b86620007a7565b606090813d8311620008d9575b620008c98183620018e9565b8101031262000226578362000767565b503d620008bd565b620009079060203d6020116200090f575b620008fe8183620018e9565b81019062001a8f565b5083620006f5565b503d620008f2565b9050946200069a565b90506020813d60201162000950575b816200093e60209383620018e9565b81010312620002265751600562000666565b3d91506200092f565b6040516312171d8360e31b8152600490fd5b62000988915060203d6020116200090f57620008fe8183620018e9565b85620005ad565b604051638199f5f360e01b8152600490fd5b905086108962000538565b6040516328b35f2160e01b8152600490fd5b6006546000918291829182916001600160a01b03165af1620009df620019a3565b5015620009595785620004e6565b60405163dcfbaafd60e01b8152600490fd5b60405163c1ab6dc160e01b8152600490fd5b604051631f2a200560e01b8152600490fd5b3462000226576020366003190112620002265762000a406200186d565b62000a4a62001976565b6001600160a01b0390811690811562000acc57600460206001600160601b0360a01b938085845416178355604051928380926315ab88c960e31b82525afa908115620008825760009162000aa9575b5016906005541617600555600080f35b62000ac5915060203d81116200087a57620008698183620018e9565b8362000a99565b60405163e6c4247b60e01b8152600490fd5b346200022657600036600319011262000226576020600c54604051908152f35b346200022657600036600319011262000226576020600854604051908152f35b346200022657600036600319011262000226576005546040516001600160a01b039091168152602090f35b3462000226576020366003190112620002265762000b666200186d565b62000b7062001976565b6001600160a01b0381811691821562000acc57600654604080516001600160a01b0394831685168152929093166020830152917f4ab5be82436d353e61ca18726e984e561f5c1cc7c6d38b29d2553c790434705a91a16001600160a01b03191617600655005b346200022657600036600319011262000226576020600354604051908152f35b346200022657600036600319011262000226576020604051604b8152f35b346200022657600036600319011262000226576020600754604051908152f35b6060366003190112620002265767ffffffffffffffff600435818111620002265762000c6590369060040162001929565b90602435818111620002265762000c8190369060040162001929565b9162000c8c62001884565b9062000c9762001a28565b600c548034106200133a57806200130b575b5062000cb8600c5434620019d8565b6040519093610c589081830190811183821017620012f557829162001b2f83396060815262000cfe62000cef6060830186620019e6565b828103602084015288620019e6565b9060403391015203906000f0938415620008825760018060a01b03851660005260026020526040600020336001600160601b0360a01b8254161781556001810160018060a01b0387166001600160601b0360a01b825416179055600060048201556009546005820155600754600282015560085460038201556006810160ff19815416905560074291015560035468010000000000000000811015620012f55780600162000db092016003556200189b565b81546001600160a01b0388811660039390931b92831b921b191617905560408051818152927fe3b10feb4083662a6dba2542351b61bc6d65beddab11c513004984a0ccad73a29162000e069190850190620019e6565b9280840360208201528062000e26339560018060a01b038a1695620019e6565b0390a3811590811562000e395760018055005b6001600160a01b03848116600090815260026020526040902060018101549093911615620009ff5760ff600684015416620009ed57609684029084820460961417156200040a5761271090049262000e928482620019d8565b9380620012c6575b5082600262000eca94015462000ed260038301549582620003f562000ec18a8a9662001a81565b94859262001a4c565b8096620019d8565b94600583015491828711620009ac5760059262000f0e9288926002870155600386015562000f0660048601998a5462001a81565b8955620019d8565b91015560405163a9059cbb60e01b81523360048201526024810184905260208160448160006001600160a01b038b165af19081156200088257600091620012a2575b501562000959576040805193845260208401919091526001600160a01b039182169233928616917fe4c62f62c45a0251c0c1bcc84de28bf8c9575b0841fc32fc2c94d889baf6af3191a454600b54111562000faf575b80808062000601565b6001600160a01b03811660008181526002602090815260409182902060068101805460ff1916600117905591516370a0823160e01b81523060048201529193479390929190829060249082905afa908115620008825760009162001269575b506005600091620010286200068060038801548762001a4c565b908082108414620012605750945b6004818101849055910191909155805460405163095ea7b360e01b81526001600160a01b0390911691810191909152602481018490526020818060448101038160006001600160a01b0387165af1801562000882576200123c575b506004546001600160a01b03164261012c81019081106200040a57839160c4606092604051948593849263f305d71960e01b845260018060a01b03891660048501528a6024850152600060448501526000606485015261dead608485015260a48401525af1801562000882576200120b575b506004805460405163c45a015560e01b8152929160209184919082906001600160a01b03165afa91821562000882576200117a926020916000916200088e575060055460405163e6a4390560e01b81526001600160a01b038581166004830152909116602482015293849190829081906044820190565b03916001600160a01b03165afa801562000882577fa44c03aaf0b9a5fcba3a779474f4366ea6283072d24c8082199f204872b1597393606093600092620011e5575b506040805196875260208701919091526001600160a01b03918216908601521692a28062000fa6565b6200120391925060203d6020116200087a57620008698183620018e9565b9086620011bc565b606090813d831162001234575b620012248183620018e9565b8101031262000226578362001103565b503d62001218565b620012589060203d6020116200090f57620008fe8183620018e9565b508362001091565b90509462001036565b90506020813d60201162001299575b816200128760209383620018e9565b8101031262000226575160056200100e565b3d915062001278565b620012bf915060203d6020116200090f57620008fe8183620018e9565b8662000f50565b6006546000918291829182916001600160a01b03165af1620012e7620019a3565b501562000959578562000e9a565b634e487b7160e01b600052604160045260246000fd5b6006546000918291829182916001600160a01b03165af16200132c620019a3565b501562000959578462000ca9565b60405162976f7560e21b8152600490fd5b34620002265760003660031901126200022657602060405160968152f35b346200022657600036600319011262000226576020600b54604051908152f35b346200022657600036600319011262000226576000546040516001600160a01b039091168152602090f35b346200022657602036600319011262000226576001600160a01b03620013d96200186d565b1660005260026020526040600020600281015490670de0b6b3a7640000918281029281840414901517156200040a576020916003620004029201549062001a60565b346200022657600036600319011262000226576004546040516001600160a01b039091168152602090f35b346200022657600036600319011262000226576200146362001976565b600080546001600160a01b0319811682556001600160a01b03167f8be0079c531659141344cd1fd0a4f28419497f9722a3daafe3b4186f6b6457e08280a3005b346200022657600036600319011262000226576020600a54604051908152f35b346200022657602036600319011262000226576004356003548110156200022657620014f16020916200189b565b905460405160039290921b1c6001600160a01b03168152f35b346200022657604036600319011262000226576001600160a01b036200152f6200186d565b1660005260026020526200156a6040600020620003fb600382015491620003f560026200155f6024358662001a81565b920154938462001a4c565b60968102818104609614821517156200040a5760209161271062000402920490620019d8565b34620002265760203660031901126200022657600435620015b062001976565b7fef772bbcf0f90db491aaf9f8b6712e886b3a90bb136181a52b675f4c2f11d9376040600c548151908152836020820152a1600c55005b34620002265760003660031901126200022657602060405161dead8152f35b346200022657600036600319011262000226576006546040516001600160a01b039091168152602090f35b346200022657600036600319011262000226576020600954604051908152f35b346200022657608036600319011262000226576200166e6200186d565b6024356200167b62001884565b91606435926200168a62001a28565b821562000a11576001600160a01b0391821660008181526002602052604090206001810154919591841615620009ff5760ff600682015416620009ed5760038101908154620016da878262001a81565b6002830193620016fe620016f683620003f58854968762001a4c565b8094620019d8565b9283158080156200185f575b620009ac57609685029085820460961417156200040a576127109004620017328186620019d8565b97801515908162001854575b506200098f57600060208d60648e60405194859384926323b872dd60e01b845233600485015230602485015260448401525af1908115620008825760009162001831575b50156200095957806200180c575b506005955555620017a760048301918254620019d8565b905501620017b785825462001a81565b9055600080808084335af1620017cc620019a3565b50156200095957604051938452602084015216917f4735a31b3ec23a057c88ee658e79bf4115c33e7d3b5da900cf23c97844f1ec4760403393a460018055005b6000808080938d600654165af162001823620019a3565b501562000959578b62001790565b6200184d915060203d81116200090f57620008fe8183620018e9565b8d62001782565b905088108d6200173e565b50600486015485116200170a565b600435906001600160a01b03821682036200022657565b604435906001600160a01b03821682036200022657565b600354811015620018d35760036000527fc2575a0e9e593c00f959f8c92f12db2869c3395a3b0502d05e2516446f71f85b0190600090565b634e487b7160e01b600052603260045260246000fd5b90601f8019910116810190811067ffffffffffffffff821117620012f557604052565b67ffffffffffffffff8111620012f557601f01601f191660200190565b81601f82011215620002265780359062001943826200190c565b92620019536040519485620018e9565b828452602083830101116200022657816000926020809301838601378301015290565b6000546001600160a01b031633036200198b57565b60405163118cdaa760e01b8152336004820152602490fd5b3d15620019d3573d90620019b7826200190c565b91620019c76040519384620018e9565b82523d6000602084013e565b606090565b919082039182116200040a57565b919082519283825260005b84811062001a13575050826000602080949584010152601f8019910116010190565b602081830181015184830182015201620019f1565b60026001541462001a3a576002600155565b604051633ee5aeb560e01b8152600490fd5b818102929181159184041417156200040a57565b811562001a6b570490565b634e487b7160e01b600052601260045260246000fd5b919082018092116200040a57565b908160209103126200022657518015158103620002265790565b908160209103126200022657516001600160a01b0381168103620002265790565b6001600160a01b03166000908152600260205260409020600681015460ff1662001b2757600401549061271091828102908082048414901517156200040a57600b5462001b179162001a60565b9180831162001b235750565b9150565b506127109056fe604060a0815234620003c85762000c5890813803806200001f81620003cd565b9384398201606083820312620003c85782516001600160401b0390818111620003c8578262000050918601620003f3565b60209283860151838111620003c85785916200006e918801620003f3565b9501516001600160a01b03811603620003c857805191808311620003b2576000928354906001938483811c93168015620003a7575b8784101462000393578190601f9384811162000340575b508790848311600114620002dc578792620002d0575b5050600019600383901b1c191690841b1784555b8651918211620002bc5782548381811c91168015620002b1575b868210146200029d5781811162000255575b5084908211600114620001f2578394959682939492620001e6575b5050600019600383901b1c191690821b1790555b336080526b033b2e3c9fd0803ce800000091826200015f60025462000465565b11620001d5577fddf252ad1be2c89b69c2b068fc378daa952ba7f163c4a11628f55a4df523b3ef90338352600381528483206200019d815462000465565b9055620001ac60025462000465565b60025584519384523393a3516107c29081620004968239608051818181610107015261036c0152f35b8351638a164f6360e01b8152600490fd5b0151905038806200012b565b82845284842090601f198316855b8181106200023f5750978385969798991062000225575b505050811b0190556200013f565b015160001960f88460031b161c1916905538808062000217565b8983015184559285019291870191870162000200565b8385528585208280850160051c82019288861062000293575b0160051c019084905b8281106200028757505062000110565b86815501849062000277565b925081926200026e565b634e487b7160e01b85526022600452602485fd5b90607f1690620000fe565b634e487b7160e01b84526041600452602484fd5b015190503880620000d0565b8780528888208794509190601f198416895b8b8282106200032957505084116200030f575b505050811b018455620000e4565b015160001960f88460031b161c1916905538808062000301565b8385015186558a97909501949384019301620002ee565b9091508680528787208480850160051c8201928a861062000389575b918891869594930160051c01915b8281106200037a575050620000ba565b8981558594508891016200036a565b925081926200035c565b634e487b7160e01b86526022600452602486fd5b92607f1692620000a3565b634e487b7160e01b600052604160045260246000fd5b600080fd5b6040519190601f01601f191682016001600160401b03811183821017620003b257604052565b919080601f84011215620003c85782516001600160401b038111620003b25760209062000429601f8201601f19168301620003cd565b92818452828287010111620003c85760005b8181106200045157508260009394955001015290565b85810183015184820184015282016200043b565b906b033b2e3c9fd0803ce800000082018092116200047f57565b634e487b7160e01b600052601160045260246000fdfe6080604081815260048036101561001557600080fd5b600092833560e01c90816306fdde03146105ef57508063095ea7b31461058157806318160ddd1461056257806323b872dd14610468578063313ce5671461044c57806332cb6b0c1461042557806364a7102b1461034357806370a082311461030b57806395d89b41146101ea578063a9059cbb1461013a578063c45a0155146100f25763dd62ed3e146100a757600080fd5b346100ee57816003193601126100ee5760209282916100c461072b565b6100cc610746565b6001600160a01b03918216845291865283832091168252845220549051908152f35b8280fd5b505034610136578160031936011261013657517f00000000000000000000000000000000000000000000000000000000000000006001600160a01b03168152602090f35b5080fd5b5091346101e757816003193601126101e75761015461072b565b926024359033835260036020528184842054106101d95750826020943384526003865281842061018584825461077f565b90556001600160a01b031680845260038652922080546101a690839061075c565b905582519081527fddf252ad1be2c89b69c2b068fc378daa952ba7f163c4a11628f55a4df523b3ef843392a35160018152f35b8351631e9acf1760e31b8152fd5b80fd5b5091903461013657816003193601126101365780519082600180549081811c90808316928315610301575b60209384841081146102ee578388529081156102d2575060011461027d575b505050829003601f01601f191682019267ffffffffffffffff84118385101761026a57508291826102669252826106e2565b0390f35b634e487b7160e01b815260418552602490fd5b8087529192508591837fb10e2d527612073b26eecdfd717e6a320cf44b4afac2b0732d9fcbe2b7fa0cf65b8385106102be5750505050830101388080610234565b8054888601830152930192849082016102a8565b60ff1916878501525050151560051b8401019050388080610234565b634e487b7160e01b895260228a52602489fd5b91607f1691610215565b5050346101365760203660031901126101365760209181906001600160a01b0361033361072b565b1681526003845220549051908152f35b50346100ee57816003193601126100ee5761035c61072b565b602435916001600160a01b0391907f000000000000000000000000000000000000000000000000000000000000000083163303610417576b033b2e3c9fd0803ce80000006103ac8560025461075c565b11610409575084927fddf252ad1be2c89b69c2b068fc378daa952ba7f163c4a11628f55a4df523b3ef926020921694858552600383528085206103f083825461075c565b90556103fe8260025461075c565b60025551908152a380f35b8451638a164f6360e01b8152fd5b8451630636a15760e11b8152fd5b505034610136578160031936011261013657602090516b033b2e3c9fd0803ce80000008152f35b5050346101365781600319360112610136576020905160128152f35b5091346101e75760603660031901126101e75761048361072b565b61048b610746565b906044359060018060a01b0380911692838552602096600388528387872054106105545784865280885286862033875288528387872054106105465787927fddf252ad1be2c89b69c2b068fc378daa952ba7f163c4a11628f55a4df523b3ef949288928789526003865283892061050386825461077f565b90558789528552828820338952855282882061052085825461077f565b90551695868152600384522061053782825461075c565b90558551908152a35160018152f35b86516313be252b60e01b8152fd5b8651631e9acf1760e31b8152fd5b5050346101365781600319360112610136576020906002549051908152f35b50346100ee57816003193601126100ee5760209261059d61072b565b918360243592839233825287528181209460018060a01b0316948582528752205582519081527f8c5be1e5ebec7d5bd14f71427d1e84f3dd0314c0f7b2291e5b200ac8c7c3b925843392a35160018152f35b84915083346100ee57826003193601126100ee57828354600181811c908083169283156106d8575b60209384841081146102ee578388529081156106bc575060011461066757505050829003601f01601f191682019267ffffffffffffffff84118385101761026a57508291826102669252826106e2565b8680529192508591837f290decd9548b62a8d60345a988386fc84ba6bc95484008f6362f93160ef3e5635b8385106106a85750505050830101858080610234565b805488860183015293019284908201610692565b60ff1916878501525050151560051b8401019050858080610234565b91607f1691610617565b6020808252825181830181905290939260005b82811061071757505060409293506000838284010152601f8019910116010190565b8181018601518482016040015285016106f5565b600435906001600160a01b038216820361074157565b600080fd5b602435906001600160a01b038216820361074157565b9190820180921161076957565b634e487b7160e01b600052601160045260246000fd5b919082039182116107695756fea2646970667358221220b4a7a81306531b98d4ab9038f068809c2ec4c02f5bca341a764b2fb59a3b63e864736f6c63430008140033a2646970667358221220509b86d9a2332a6a52dc6192a7ef1d8f51257ec7decbc455ad05d028b771236464736f6c63430008140033",
  "linkReferences": {},
  "deployedLinkReferences": {}
}