{
  "_format": "hh-sol-artifact-1",
  "contractName": "SelsipadBondingCurveFactory",
  "sourceName": "contracts/bonding-curve/SelsipadBondingCurveFactory.sol",
  "abi": [
    {
      "inputs": [
        {
          "internalType": "address",
          "name": "_router",
          "type": "address"
        },
        {
          "internalType": "address",
          "name": "_treasury",
          "type": "address"
        }
      ],
      "stateMutability": "nonpayable",
      "type": "constructor"
    },
    {
      "inputs": [],
      "name": "InsufficientFee",
      "type": "error"
    },
    {
      "inputs": [],
      "name": "InsufficientReserve",
      "type": "error"
    },
    {
      "inputs": [],
      "name": "InvalidAddress",
      "type": "error"
    },
    {
      "inputs": [],
      "name": "InvalidToken",
      "type": "error"
    },
    {
      "inputs": [
        {
          "internalType": "address",
          "name": "owner",
          "type": "address"
        }
      ],
      "name": "OwnableInvalidOwner",
      "type": "error"
    },
    {
      "inputs": [
        {
          "internalType": "address",
          "name": "account",
          "type": "address"
        }
      ],
      "name": "OwnableUnauthorizedAccount",
      "type": "error"
    },
    {
      "inputs": [],
      "name": "ReentrancyGuardReentrantCall",
      "type": "error"
    },
    {
      "inputs": [],
      "name": "TradingMigrated",
      "type": "error"
    },
    {
      "inputs": [],
      "name": "TradingNotMigrated",
      "type": "error"
    },
    {
      "inputs": [],
      "name": "TransferFailed",
      "type": "error"
    },
    {
      "inputs": [],
      "name": "ZeroAmount",
      "type": "error"
    },
    {
      "anonymous": false,
      "inputs": [
        {
          "indexed": false,
          "internalType": "uint256",
          "name": "oldFee",
          "type": "uint256"
        },
        {
          "indexed": false,
          "internalType": "uint256",
          "name": "newFee",
          "type": "uint256"
        }
      ],
      "name": "CreateFeeUpdated",
      "type": "event"
    },
    {
      "anonymous": false,
      "inputs": [
        {
          "indexed": true,
          "internalType": "address",
          "name": "token",
          "type": "address"
        },
        {
          "indexed": false,
          "internalType": "uint256",
          "name": "tokenAmount",
          "type": "uint256"
        },
        {
          "indexed": false,
          "internalType": "uint256",
          "name": "ethAmount",
          "type": "uint256"
        },
        {
          "indexed": false,
          "internalType": "address",
          "name": "lpPair",
          "type": "address"
        }
      ],
      "name": "LiquidityMigrated",
      "type": "event"
    },
    {
      "anonymous": false,
      "inputs": [
        {
          "indexed": false,
          "internalType": "uint256",
          "name": "oldThreshold",
          "type": "uint256"
        },
        {
          "indexed": false,
          "internalType": "uint256",
          "name": "newThreshold",
          "type": "uint256"
        }
      ],
      "name": "MigrationThresholdUpdated",
      "type": "event"
    },
    {
      "anonymous": false,
      "inputs": [
        {
          "indexed": true,
          "internalType": "address",
          "name": "previousOwner",
          "type": "address"
        },
        {
          "indexed": true,
          "internalType": "address",
          "name": "newOwner",
          "type": "address"
        }
      ],
      "name": "OwnershipTransferred",
      "type": "event"
    },
    {
      "anonymous": false,
      "inputs": [
        {
          "indexed": true,
          "internalType": "address",
          "name": "token",
          "type": "address"
        },
        {
          "indexed": false,
          "internalType": "string",
          "name": "name",
          "type": "string"
        },
        {
          "indexed": false,
          "internalType": "string",
          "name": "symbol",
          "type": "string"
        },
        {
          "indexed": true,
          "internalType": "address",
          "name": "creator",
          "type": "address"
        }
      ],
      "name": "TokenLaunched",
      "type": "event"
    },
    {
      "anonymous": false,
      "inputs": [
        {
          "indexed": true,
          "internalType": "address",
          "name": "token",
          "type": "address"
        },
        {
          "indexed": true,
          "internalType": "address",
          "name": "buyer",
          "type": "address"
        },
        {
          "indexed": false,
          "internalType": "uint256",
          "name": "tokenAmount",
          "type": "uint256"
        },
        {
          "indexed": false,
          "internalType": "uint256",
          "name": "ethCost",
          "type": "uint256"
        },
        {
          "indexed": true,
          "internalType": "address",
          "name": "referrer",
          "type": "address"
        }
      ],
      "name": "TokensPurchased",
      "type": "event"
    },
    {
      "anonymous": false,
      "inputs": [
        {
          "indexed": true,
          "internalType": "address",
          "name": "token",
          "type": "address"
        },
        {
          "indexed": true,
          "internalType": "address",
          "name": "seller",
          "type": "address"
        },
        {
          "indexed": false,
          "internalType": "uint256",
          "name": "tokenAmount",
          "type": "uint256"
        },
        {
          "indexed": false,
          "internalType": "uint256",
          "name": "ethRefund",
          "type": "uint256"
        },
        {
          "indexed": true,
          "internalType": "address",
          "name": "referrer",
          "type": "address"
        }
      ],
      "name": "TokensSold",
      "type": "event"
    },
    {
      "anonymous": false,
      "inputs": [
        {
          "indexed": false,
          "internalType": "address",
          "name": "oldTreasury",
          "type": "address"
        },
        {
          "indexed": false,
          "internalType": "address",
          "name": "newTreasury",
          "type": "address"
        }
      ],
      "name": "TreasuryUpdated",
      "type": "event"
    },
    {
      "inputs": [],
      "name": "BPS_DENOMINATOR",
      "outputs": [
        {
          "internalType": "uint256",
          "name": "",
          "type": "uint256"
        }
      ],
      "stateMutability": "view",
      "type": "function"
    },
    {
      "inputs": [],
      "name": "DEAD_ADDRESS",
      "outputs": [
        {
          "internalType": "address",
          "name": "",
          "type": "address"
        }
      ],
      "stateMutability": "view",
      "type": "function"
    },
    {
      "inputs": [],
      "name": "REFERRAL_FEE_BPS",
      "outputs": [
        {
          "internalType": "uint256",
          "name": "",
          "type": "uint256"
        }
      ],
      "stateMutability": "view",
      "type": "function"
    },
    {
      "inputs": [],
      "name": "R_TOKEN_RESERVE",
      "outputs": [
        {
          "internalType": "uint256",
          "name": "",
          "type": "uint256"
        }
      ],
      "stateMutability": "view",
      "type": "function"
    },
    {
      "inputs": [],
      "name": "TRADE_FEE_BPS",
      "outputs": [
        {
          "internalType": "uint256",
          "name": "",
          "type": "uint256"
        }
      ],
      "stateMutability": "view",
      "type": "function"
    },
    {
      "inputs": [],
      "name": "V_ETH_RESERVE",
      "outputs": [
        {
          "internalType": "uint256",
          "name": "",
          "type": "uint256"
        }
      ],
      "stateMutability": "view",
      "type": "function"
    },
    {
      "inputs": [],
      "name": "V_TOKEN_RESERVE",
      "outputs": [
        {
          "internalType": "uint256",
          "name": "",
          "type": "uint256"
        }
      ],
      "stateMutability": "view",
      "type": "function"
    },
    {
      "inputs": [],
      "name": "WETH",
      "outputs": [
        {
          "internalType": "address",
          "name": "",
          "type": "address"
        }
      ],
      "stateMutability": "view",
      "type": "function"
    },
    {
      "inputs": [
        {
          "internalType": "uint256",
          "name": "",
          "type": "uint256"
        }
      ],
      "name": "allTokens",
      "outputs": [
        {
          "internalType": "address",
          "name": "",
          "type": "address"
        }
      ],
      "stateMutability": "view",
      "type": "function"
    },
    {
      "inputs": [
        {
          "internalType": "address",
          "name": "_token",
          "type": "address"
        },
        {
          "internalType": "address",
          "name": "_referrer",
          "type": "address"
        }
      ],
      "name": "buyToken",
      "outputs": [],
      "stateMutability": "payable",
      "type": "function"
    },
    {
      "inputs": [],
      "name": "createFee",
      "outputs": [
        {
          "internalType": "uint256",
          "name": "",
          "type": "uint256"
        }
      ],
      "stateMutability": "view",
      "type": "function"
    },
    {
      "inputs": [
        {
          "internalType": "address",
          "name": "_token",
          "type": "address"
        },
        {
          "internalType": "uint256",
          "name": "tokenAmount",
          "type": "uint256"
        }
      ],
      "name": "getAmountIn",
      "outputs": [
        {
          "internalType": "uint256",
          "name": "ethOut",
          "type": "uint256"
        }
      ],
      "stateMutability": "view",
      "type": "function"
    },
    {
      "inputs": [
        {
          "internalType": "address",
          "name": "_token",
          "type": "address"
        },
        {
          "internalType": "uint256",
          "name": "ethIn",
          "type": "uint256"
        }
      ],
      "name": "getAmountOut",
      "outputs": [
        {
          "internalType": "uint256",
          "name": "tokensOut",
          "type": "uint256"
        }
      ],
      "stateMutability": "view",
      "type": "function"
    },
    {
      "inputs": [
        {
          "internalType": "address",
          "name": "_token",
          "type": "address"
        }
      ],
      "name": "getCurrentPrice",
      "outputs": [
        {
          "internalType": "uint256",
          "name": "",
          "type": "uint256"
        }
      ],
      "stateMutability": "view",
      "type": "function"
    },
    {
      "inputs": [
        {
          "internalType": "address",
          "name": "_token",
          "type": "address"
        }
      ],
      "name": "getMigrationProgress",
      "outputs": [
        {
          "internalType": "uint256",
          "name": "bps",
          "type": "uint256"
        }
      ],
      "stateMutability": "view",
      "type": "function"
    },
    {
      "inputs": [
        {
          "internalType": "string",
          "name": "_name",
          "type": "string"
        },
        {
          "internalType": "string",
          "name": "_symbol",
          "type": "string"
        },
        {
          "internalType": "address",
          "name": "_referrer",
          "type": "address"
        }
      ],
      "name": "launchToken",
      "outputs": [],
      "stateMutability": "payable",
      "type": "function"
    },
    {
      "inputs": [],
      "name": "migrationThreshold",
      "outputs": [
        {
          "internalType": "uint256",
          "name": "",
          "type": "uint256"
        }
      ],
      "stateMutability": "view",
      "type": "function"
    },
    {
      "inputs": [],
      "name": "owner",
      "outputs": [
        {
          "internalType": "address",
          "name": "",
          "type": "address"
        }
      ],
      "stateMutability": "view",
      "type": "function"
    },
    {
      "inputs": [],
      "name": "renounceOwnership",
      "outputs": [],
      "stateMutability": "nonpayable",
      "type": "function"
    },
    {
      "inputs": [
        {
          "internalType": "address",
          "name": "_token",
          "type": "address"
        },
        {
          "internalType": "uint256",
          "name": "tokenAmount",
          "type": "uint256"
        },
        {
          "internalType": "address",
          "name": "_referrer",
          "type": "address"
        }
      ],
      "name": "sellToken",
      "outputs": [],
      "stateMutability": "nonpayable",
      "type": "function"
    },
    {
      "inputs": [
        {
          "internalType": "uint256",
          "name": "_fee",
          "type": "uint256"
        }
      ],
      "name": "setCreateFee",
      "outputs": [],
      "stateMutability": "nonpayable",
      "type": "function"
    },
    {
      "inputs": [
        {
          "internalType": "uint256",
          "name": "_threshold",
          "type": "uint256"
        }
      ],
      "name": "setMigrationThreshold",
      "outputs": [],
      "stateMutability": "nonpayable",
      "type": "function"
    },
    {
      "inputs": [
        {
          "internalType": "address",
          "name": "_router",
          "type": "address"
        }
      ],
      "name": "setRouter",
      "outputs": [],
      "stateMutability": "nonpayable",
      "type": "function"
    },
    {
      "inputs": [
        {
          "internalType": "address",
          "name": "_treasury",
          "type": "address"
        }
      ],
      "name": "setTreasuryWallet",
      "outputs": [],
      "stateMutability": "nonpayable",
      "type": "function"
    },
    {
      "inputs": [
        {
          "internalType": "address",
          "name": "",
          "type": "address"
        }
      ],
      "name": "tokens",
      "outputs": [
        {
          "internalType": "address",
          "name": "creator",
          "type": "address"
        },
        {
          "internalType": "address",
          "name": "tokenAddress",
          "type": "address"
        },
        {
          "internalType": "uint256",
          "name": "vReserveEth",
          "type": "uint256"
        },
        {
          "internalType": "uint256",
          "name": "vReserveToken",
          "type": "uint256"
        },
        {
          "internalType": "uint256",
          "name": "rReserveEth",
          "type": "uint256"
        },
        {
          "internalType": "int256",
          "name": "rReserveToken",
          "type": "int256"
        },
        {
          "internalType": "bool",
          "name": "liquidityMigrated",
          "type": "bool"
        },
        {
          "internalType": "uint256",
          "name": "createdAt",
          "type": "uint256"
        }
      ],
      "stateMutability": "view",
      "type": "function"
    },
    {
      "inputs": [],
      "name": "totalTokensLaunched",
      "outputs": [
        {
          "internalType": "uint256",
          "name": "",
          "type": "uint256"
        }
      ],
      "stateMutability": "view",
      "type": "function"
    },
    {
      "inputs": [
        {
          "internalType": "address",
          "name": "newOwner",
          "type": "address"
        }
      ],
      "name": "transferOwnership",
      "outputs": [],
      "stateMutability": "nonpayable",
      "type": "function"
    },
    {
      "inputs": [],
      "name": "treasuryWallet",
      "outputs": [
        {
          "internalType": "address",
          "name": "",
          "type": "address"
        }
      ],
      "stateMutability": "view",
      "type": "function"
    },
    {
      "inputs": [],
      "name": "uniswapRouter",
      "outputs": [
        {
          "internalType": "address",
          "name": "",
          "type": "address"
        }
      ],
      "stateMutability": "view",
      "type": "function"
    },
    {
      "inputs": [
        {
          "internalType": "uint256",
          "name": "_vEthReserve",
          "type": "uint256"
        },
        {
          "internalType": "uint256",
          "name": "_vTokenReserve",
          "type": "uint256"
        },
        {
          "internalType": "uint256",
          "name": "_rTokenReserve",
          "type": "uint256"
        }
      ],
      "name": "updateReserves",
      "outputs": [],
      "stateMutability": "nonpayable",
      "type": "function"
    },
    {
      "stateMutability": "payable",
      "type": "receive"
    }
  ],
  "bytecode": "0x608060409080825234620001d4578181620025728038038091620000248285620001d9565b833981010312620001d457620000486020620000408362000213565b920162000213565b3315620001bc5760008054336001600160a01b03198083168217845586519590946001600160a01b039493909285929183167f8be0079c531659141344cd1fd0a4f28419497f9722a3daafe3b4186f6b6457e08680a36001805566354a6ba7a180006007556b037790968dc8efffd10000006008556b029009752660ad62af800000600955670de0b6b3a7640000600a5566b1a2bc2ec50000600b5516948515620001ad575082169384156200019c576004805485168217815586516315ab88c960e31b815291602091839182905afa918215620001915780926200014a575b5050168160055416176005556006541617600655516123499081620002298239f35b9091506020823d821162000188575b816200016860209383620001d9565b810103126200018557506200017d9062000213565b388062000128565b80fd5b3d915062000159565b8651903d90823e3d90fd5b855163e6c4247b60e01b8152600490fd5b63e6c4247b60e01b8152600490fd5b8251631e4fbdf760e01b815260006004820152602490fd5b600080fd5b601f909101601f19168101906001600160401b03821190821017620001fd57604052565b634e487b7160e01b600052604160045260246000fd5b51906001600160a01b0382168203620001d45756fe6080604081815260048036101562000023575b50505036156200002157600080fd5b005b600092833560e01c908163208597b01462000f0b575080634626402b1462000ee05780634e6fd6c41462000ec157806355a976321462000bf25780635ee6cc381462000b885780636148813c1462000b56578063629148491462000aff578063632db21c1462000a79578063634282af1462000a34578063715018a614620009d6578063735de9f714620009ad57806384cc315b14620009335780638da5cb5b146200090957806390bc1e8514620008e85780639185f59814620008ca57806394b4cd0a1462000650578063995c86d5146200062f5780639d72265e14620006115780639e1e213e14620005f0578063a8602fea1462000553578063ad5c46481462000528578063b1a51f351462000507578063b2db919b14620004e6578063c0d786551462000411578063c8a1d06e14620003e5578063ca706bcf1462000332578063ca92a91b14620002db578063e1a4521814620002bc578063e486033914620002245763f2fde38b03620000125734620002205760203660031901126200022057620001b162000f29565b90620001bc62001062565b6001600160a01b039182169283156200020a57505082546001600160a01b0319811683178455167f8be0079c531659141344cd1fd0a4f28419497f9722a3daafe3b4186f6b6457e08380a380f35b51631e4fbdf760e01b8152908101849052602490fd5b8280fd5b50829034620002b8576020366003190112620002b857610100926001600160a01b03928190846200025462000f29565b1681526002602052209083825416936001830154169260028301549060038401549084015491600585015493600760ff60068801541696015496815198895260208901528701526060860152608085015260a0840152151560c083015260e0820152f35b5080fd5b505034620002b85781600319360112620002b857602090516127108152f35b50346200022057602036600319011262000220577f5de685d6916f86043147d790b0ba618ff8c5239be31953a0d3b7b5c54c81b27e9035916200031d62001062565b600a548151908152836020820152a1600a5580f35b509134620003e25781600319360112620003e2576200035062000f29565b6001600160a01b0316815260026020528181209060243590609680830291908383041483151715620003cf57602085620003c8620003b4620003c188620003bb620003a06127108a048b620010c4565b600360028401549301549485918462001183565b926200114e565b62001162565b90620010c4565b9051908152f35b634e487b7160e01b815260118652602490fd5b80fd5b505034620002b8576020366003190112620002b857602090620003c86200040b62000f29565b620016be565b5090346200022057602036600319011262000220576200043062000f29565b906200043b62001062565b6001600160a01b03918216928315620004d85760206bffffffffffffffffffffffff60a01b9480868454161783558351928380926315ab88c960e31b82525afa918215620004cf575084916200049a575b501690600554161760055580f35b620004c0915060203d8111620004c7575b620004b7818362000fd5565b8101906200169d565b386200048c565b503d620004ab565b513d86823e3d90fd5b905163e6c4247b60e01b8152fd5b505034620002b85781600319360112620002b857602090600b549051908152f35b505034620002b85781600319360112620002b8576020906008549051908152f35b505034620002b85781600319360112620002b85760055490516001600160a01b039091168152602090f35b5090346200022057602036600319011262000220576200057262000f29565b6200057c62001062565b6001600160a01b03818116938415620005e2575060065492516001600160a01b0391841682168152911660208201527f4ab5be82436d353e61ca18726e984e561f5c1cc7c6d38b29d2553c790434705a90604090a16001600160a01b0319161760065580f35b835163e6c4247b60e01b8152fd5b505034620002b85781600319360112620002b8576020906003549051908152f35b505034620002b85781600319360112620002b85760209051604b8152f35b505034620002b85781600319360112620002b8576020906007549051908152f35b50906060366003190112620002205767ffffffffffffffff8235818111620008c65762000681903690850162001015565b602435828111620008c2576200069b903690860162001015565b90620006a662000f45565b93620006b16200112a565b600b54803410620008b35780889162000876575b5050620006d5600b5434620010c4565b81519094610bf1808301918211838310176200086357908291620017238339606081526200071a6200070b6060830187620010e8565b828103602084015287620010e8565b908433910152039088f08015620008595760018060a01b038091169687895260026020528289206bffffffffffffffffffffffff60a01b338183541617825589600183019182541617905589828201556009546005820155600754600282015560085460038201556006810160ff198154169055600742910155600354906801000000000000000082101562000846575091879391620007e28460017fe3b10feb4083662a6dba2542351b61bc6d65beddab11c513004984a0ccad73a2960160035562000f5c565b819291549060031b9187831b921b19161790556200081e6200080e8251938385948552840190620010e8565b82810360208401523396620010e8565b0390a38062000830575b836001805580f35b6200083d92339062001191565b38808062000828565b634e487b7160e01b8a5260419052602489fd5b81513d89823e3d90fd5b634e487b7160e01b8a526041895260248afd5b600654829182918291906001600160a01b03165af1620008956200108f565b5015620008a4578638620006c5565b516312171d8360e31b81528590fd5b815162976f7560e21b81528790fd5b8580fd5b8480fd5b505034620002b85781600319360112620002b8576020905160968152f35b505034620002b85781600319360112620002b857602090600a549051908152f35b505034620002b85781600319360112620002b857905490516001600160a01b039091168152602090f35b509134620003e2576020366003190112620003e2576001600160a01b036200095a62000f29565b1681526002602052818120600281015491670de0b6b3a7640000928381029381850414901517156200099a57602084620003c88560038601549062001162565b634e487b7160e01b815260118552602490fd5b503462000220578260031936011262000220575490516001600160a01b03909116815260209150f35b8334620003e25780600319360112620003e257620009f362001062565b80546001600160a01b03198116825581906001600160a01b03167f8be0079c531659141344cd1fd0a4f28419497f9722a3daafe3b4186f6b6457e08280a380f35b50346200022057602036600319011262000220573591600354831015620003e2575062000a6360209262000f5c565b60018060a01b0391549060031b1c169051908152f35b509134620003e25781600319360112620003e2576001600160a01b0362000a9f62000f29565b168152600260205262000ad7828220620003c1600382015491620003bb600262000acc6024358662001183565b92015493846200114e565b906096820290828204609614831517156200099a57602084620003c8612710850486620010c4565b50346200022057602036600319011262000220577fef772bbcf0f90db491aaf9f8b6712e886b3a90bb136181a52b675f4c2f11d93790359162000b4162001062565b600b548151908152836020820152a1600b5580f35b838234620002b8576060366003190112620002b85762000b7562001062565b3560075560243560085560443560095580f35b50919080600319360112620002b85762000ba162000f29565b602435916001600160a01b038316830362000bee5762000bc06200112a565b341562000bdf57509062000bd8913490339062001191565b6001805580f35b51631f2a200560e01b81528490fd5b8380fd5b50919034620002b8576060366003190112620002b85762000c1262000f29565b6024359062000c2062000f45565b9062000c2b6200112a565b821562000eb1576001600160a01b039081168086526002602052848620600181015491939183161562000ea15760ff60068201541662000e915796876003620003bb990180549062000c7e888362001183565b9162000c9f62000c9784600287019e8f5494856200114e565b8092620010c4565b9b8c1580801562000e84575b62000e7457908d94939291609686029e8f04609614171562000e6157848d9e9d8b8e9f8e9f9b9c9d9e60648c8562000ceb612710602096048099620010c4565b9f5195869485936323b872dd60e01b8552339085015230602485015260448401525af191821562000e54579162000e1f575b501562000e0f578e908b8162000dda575b505050555582820180546005939262000d4791620010c4565b905501805490878201918a898412911290801582169115161762000dc757558780808085335af162000d786200108f565b501562000db9575085519485526020850152169233927f4735a31b3ec23a057c88ee658e79bf4115c33e7d3b5da900cf23c97844f1ec479190a46001805580f35b86516312171d8360e31b8152fd5b634e487b7160e01b8a526011835260248afd5b8280928192600654165af162000def6200108f565b501562000dff578d388b62000d2e565b8c516312171d8360e31b81528790fd5b8d516312171d8360e31b81528890fd5b62000e45915060203d811162000e4c575b62000e3c818362000fd5565b81019062001683565b3862000d1d565b503d62000e30565b90508f51903d90823e3d90fd5b634e487b7160e01b8d526011875260248dfd5b8b516328b35f2160e01b81528790fd5b508d878701541062000cab565b855163dcfbaafd60e01b81528890fd5b855163c1ab6dc160e01b81528890fd5b8351631f2a200560e01b81528690fd5b505034620002b85781600319360112620002b8576020905161dead8152f35b505034620002b85781600319360112620002b85760065490516001600160a01b039091168152602090f35b849034620002b85781600319360112620002b8576020906009548152f35b600435906001600160a01b038216820362000f4057565b600080fd5b604435906001600160a01b038216820362000f4057565b60035481101562000f945760036000527fc2575a0e9e593c00f959f8c92f12db2869c3395a3b0502d05e2516446f71f85b0190600090565b634e487b7160e01b600052603260045260246000fd5b67ffffffffffffffff811162000fbf57604052565b634e487b7160e01b600052604160045260246000fd5b90601f8019910116810190811067ffffffffffffffff82111762000fbf57604052565b67ffffffffffffffff811162000fbf57601f01601f191660200190565b81601f8201121562000f40578035906200102f8262000ff8565b926200103f604051948562000fd5565b8284526020838301011162000f4057816000926020809301838601378301015290565b6000546001600160a01b031633036200107757565b60405163118cdaa760e01b8152336004820152602490fd5b3d15620010bf573d90620010a38262000ff8565b91620010b3604051938462000fd5565b82523d6000602084013e565b606090565b91908203918211620010d257565b634e487b7160e01b600052601160045260246000fd5b919082519283825260005b84811062001115575050826000602080949584010152601f8019910116010190565b602081830181015184830182015201620010f3565b6002600154146200113c576002600155565b604051633ee5aeb560e01b8152600490fd5b81810292918115918404141715620010d257565b81156200116d570490565b634e487b7160e01b600052601260045260246000fd5b91908201809211620010d257565b90919260009360018060a01b039384841686526002602052604092838720908660018301541615620016725760ff600683015416620016615760968402848104609614851517156200164d5761271090049388620011f08683620010c4565b958062001618575b50506005600284019362001225855488620012366200122e6003860193620003bb85549687958362001183565b9485926200114e565b8094620010c4565b9755556200124a6004820197885462001183565b875501805484810391908b861280158285131691841216176200160457558787163b15620016005785516364a7102b60e01b81526001600160a01b0385166004820152602481018490528981604481838c8e165af18015620015f657620015db575b508791829187519485526020850152169216907fe4c62f62c45a0251c0c1bcc84de28bf8c9575b0841fc32fc2c94d889baf6af318588881692a454600a541115620012f8575b50505050565b828216845260026020528084209360068501600160ff1982541617905547816005620013396200132d60038a0154856200114e565b60028a01549062001162565b978260048201550155856200157d575b60048054845163095ea7b360e01b81529087166001600160a01b0316918101919091526024810187905260208160448186898b165af180156200150a5762001559575b50846004541661012c42018042116200154557829160c46060928751948593849263f305d71960e01b84528c8c1660048501528d602485015289604485015289606485015261dead608485015260a48401525af180156200150a5762001514575b50600460208682541685519283809263c45a015560e01b82525afa9081156200150a576200145b87926020928691620014e8575b50600554875163e6a4390560e01b81526001600160a01b038a81166004830152918616909116602482015293849283919082906044820190565b0392165afa928315620014dd57928694927fa44c03aaf0b9a5fcba3a779474f4366ea6283072d24c8082199f204872b1597397926060979592620014b7575b508351988952602089015216908601521692a238808080620012f2565b620014d591925060203d602011620004c757620004b7818362000fd5565b90386200149a565b8451903d90823e3d90fd5b620015039150833d8511620004c757620004b7818362000fd5565b3862001421565b84513d85823e3d90fd5b606090813d81116200153d575b6200152d818362000fd5565b81010312620002b85738620013ed565b503d62001521565b634e487b7160e01b84526011600452602484fd5b620015759060203d60201162000e4c5762000e3c818362000fd5565b50386200138c565b8484163b15620002b85782516364a7102b60e01b815230600482015260248101879052828160448183898b165af180156200150a57908391620015c3575b505062001349565b620015ce9062000faa565b620002b8578138620015bb565b91889299620015ec84939b62000faa565b99915091620012ac565b87513d8c823e3d90fd5b8880fd5b634e487b7160e01b8b52601160045260248bfd5b818080928c600654165af16200162d6200108f565b50156200163c578838620011f8565b85516312171d8360e31b8152600490fd5b634e487b7160e01b89526011600452602489fd5b845163dcfbaafd60e01b8152600490fd5b845163c1ab6dc160e01b8152600490fd5b9081602091031262000f405751801515810362000f405790565b9081602091031262000f4057516001600160a01b038116810362000f405790565b6001600160a01b03166000908152600260205260409020600681015460ff166200171b5760040154906127109182810290808204841490151715620010d257600a546200170b9162001162565b91808311620017175750565b9150565b506127109056fe60a060405234620003a35762000bf1803803806200001d81620003a8565b9283398101606082820312620003a35781516001600160401b039290838111620003a357826200004f918301620003ce565b9160209081830151858111620003a3576040916200006f918501620003ce565b9201516001600160a01b0381169390849003620003a35780518581116200038d576000938454916001938484811c9416801562000382575b868510146200036e578190601f948581116200031b575b508690858311600114620002b7578892620002ab575b5050600019600383901b1c191690841b1785555b8051968711620002975782548381811c911680156200028c575b85821014620002785782811162000230575b5083918711600114620001ba5795809185969760008051602062000bd18339815191529692620001ae575b5050600019600383901b1c191690821b1790555b3360805283835260038152604083206200016e815462000440565b90556200017d60025462000440565b600255604051670de0b6b3a76400008152a360405161076490816200046d823960805181818160fc01526103610152f35b0151905038806200013f565b8285528385209190601f198816865b8181106200021a5750918493918960008051602062000bd183398151915298999a941062000200575b505050811b01905562000153565b015160001960f88460031b161c19169055388080620001f2565b82840151855593850193928601928601620001c9565b83865284862083808a0160051c820192878b106200026e575b0160051c019084905b8281106200026257505062000114565b87815501849062000252565b9250819262000249565b634e487b7160e01b86526022600452602486fd5b90607f169062000102565b634e487b7160e01b85526041600452602485fd5b015190503880620000d4565b8880528789208794509190601f1984168a5b8a828210620003045750508411620002ea575b505050811b018555620000e8565b015160001960f88460031b161c19169055388080620002dc565b8385015186558a97909501949384019301620002c9565b9091508780528688208580850160051c82019289861062000364575b918891869594930160051c01915b82811062000355575050620000be565b8a815585945088910162000345565b9250819262000337565b634e487b7160e01b87526022600452602487fd5b93607f1693620000a7565b634e487b7160e01b600052604160045260246000fd5b600080fd5b6040519190601f01601f191682016001600160401b038111838210176200038d57604052565b919080601f84011215620003a35782516001600160401b0381116200038d5760209062000404601f8201601f19168301620003a8565b92818452828287010111620003a35760005b8181106200042c57508260009394955001015290565b858101830151848201840152820162000416565b90670de0b6b3a764000082018092116200045657565b634e487b7160e01b600052601160045260246000fdfe6080604081815260048036101561001557600080fd5b600092833560e01c90816306fdde031461059157508063095ea7b31461052357806318160ddd1461050457806323b872dd1461040a578063313ce567146103ee57806364a7102b1461033857806370a082311461030057806395d89b41146101df578063a9059cbb1461012f578063c45a0155146100e75763dd62ed3e1461009c57600080fd5b346100e357816003193601126100e35760209282916100b96106cd565b6100c16106e8565b6001600160a01b03918216845291865283832091168252845220549051908152f35b8280fd5b50503461012b578160031936011261012b57517f00000000000000000000000000000000000000000000000000000000000000006001600160a01b03168152602090f35b5080fd5b5091346101dc57816003193601126101dc576101496106cd565b926024359033835260036020528184842054106101ce5750826020943384526003865281842061017a848254610721565b90556001600160a01b0316808452600386529220805461019b9083906106fe565b905582519081527fddf252ad1be2c89b69c2b068fc378daa952ba7f163c4a11628f55a4df523b3ef843392a35160018152f35b8351631e9acf1760e31b8152fd5b80fd5b5091903461012b578160031936011261012b5780519082600180549081811c908083169283156102f6575b60209384841081146102e3578388529081156102c75750600114610272575b505050829003601f01601f191682019267ffffffffffffffff84118385101761025f575082918261025b925282610684565b0390f35b634e487b7160e01b815260418552602490fd5b8087529192508591837fb10e2d527612073b26eecdfd717e6a320cf44b4afac2b0732d9fcbe2b7fa0cf65b8385106102b35750505050830101388080610229565b80548886018301529301928490820161029d565b60ff1916878501525050151560051b8401019050388080610229565b634e487b7160e01b895260228a52602489fd5b91607f169161020a565b50503461012b57602036600319011261012b5760209181906001600160a01b036103286106cd565b1681526003845220549051908152f35b50346100e357816003193601126100e3576103516106cd565b602435916001600160a01b0391907f0000000000000000000000000000000000000000000000000000000000000000831633036103e0575084927fddf252ad1be2c89b69c2b068fc378daa952ba7f163c4a11628f55a4df523b3ef926020921694858552600383528085206103c78382546106fe565b90556103d5826002546106fe565b60025551908152a380f35b8451630636a15760e11b8152fd5b50503461012b578160031936011261012b576020905160128152f35b5091346101dc5760603660031901126101dc576104256106cd565b61042d6106e8565b906044359060018060a01b0380911692838552602096600388528387872054106104f65784865280885286862033875288528387872054106104e85787927fddf252ad1be2c89b69c2b068fc378daa952ba7f163c4a11628f55a4df523b3ef94928892878952600386528389206104a5868254610721565b9055878952855282882033895285528288206104c2858254610721565b9055169586815260038452206104d98282546106fe565b90558551908152a35160018152f35b86516313be252b60e01b8152fd5b8651631e9acf1760e31b8152fd5b50503461012b578160031936011261012b576020906002549051908152f35b50346100e357816003193601126100e35760209261053f6106cd565b918360243592839233825287528181209460018060a01b0316948582528752205582519081527f8c5be1e5ebec7d5bd14f71427d1e84f3dd0314c0f7b2291e5b200ac8c7c3b925843392a35160018152f35b84915083346100e357826003193601126100e357828354600181811c9080831692831561067a575b60209384841081146102e35783885290811561065e575060011461060957505050829003601f01601f191682019267ffffffffffffffff84118385101761025f575082918261025b925282610684565b8680529192508591837f290decd9548b62a8d60345a988386fc84ba6bc95484008f6362f93160ef3e5635b83851061064a5750505050830101858080610229565b805488860183015293019284908201610634565b60ff1916878501525050151560051b8401019050858080610229565b91607f16916105b9565b6020808252825181830181905290939260005b8281106106b957505060409293506000838284010152601f8019910116010190565b818101860151848201604001528501610697565b600435906001600160a01b03821682036106e357565b600080fd5b602435906001600160a01b03821682036106e357565b9190820180921161070b57565b634e487b7160e01b600052601160045260246000fd5b9190820391821161070b5756fea2646970667358221220ba937415f3e276274eca1b73970cb2699d39e197e269c15dc0dfb8eba852821b64736f6c63430008140033ddf252ad1be2c89b69c2b068fc378daa952ba7f163c4a11628f55a4df523b3efa26469706673582212209fc5a861a90215d600920c0694b7199006597bc45761d26baf26608534cd35a564736f6c63430008140033",
  "linkReferences": {},
  "deployedLinkReferences": {}
}