{
  "_format": "hh-sol-artifact-1",
  "contractName": "PresaleRound",
  "sourceName": "contracts/std-presale/PresaleRound.sol",
  "abi": [
    {
      "inputs": [
        {
          "internalType": "address",
          "name": "_projectToken",
          "type": "address"
        },
        {
          "internalType": "address",
          "name": "_paymentToken",
          "type": "address"
        },
        {
          "internalType": "uint256",
          "name": "_softCap",
          "type": "uint256"
        },
        {
          "internalType": "uint256",
          "name": "_hardCap",
          "type": "uint256"
        },
        {
          "internalType": "uint256",
          "name": "_minContribution",
          "type": "uint256"
        },
        {
          "internalType": "uint256",
          "name": "_maxContribution",
          "type": "uint256"
        },
        {
          "internalType": "uint256",
          "name": "_startTime",
          "type": "uint256"
        },
        {
          "internalType": "uint256",
          "name": "_endTime",
          "type": "uint256"
        },
        {
          "internalType": "address",
          "name": "_feeSplitter",
          "type": "address"
        },
        {
          "internalType": "address",
          "name": "_vestingVault",
          "type": "address"
        },
        {
          "internalType": "address",
          "name": "_projectOwner",
          "type": "address"
        },
        {
          "internalType": "address",
          "name": "_admin",
          "type": "address"
        },
        {
          "internalType": "address",
          "name": "_dexRouter",
          "type": "address"
        },
        {
          "internalType": "address",
          "name": "_lpLocker",
          "type": "address"
        },
        {
          "internalType": "uint256",
          "name": "_liquidityBps",
          "type": "uint256"
        },
        {
          "internalType": "uint256",
          "name": "_lpLockDuration",
          "type": "uint256"
        }
      ],
      "stateMutability": "nonpayable",
      "type": "constructor"
    },
    {
      "inputs": [],
      "name": "AccessControlBadConfirmation",
      "type": "error"
    },
    {
      "inputs": [
        {
          "internalType": "address",
          "name": "account",
          "type": "address"
        },
        {
          "internalType": "bytes32",
          "name": "neededRole",
          "type": "bytes32"
        }
      ],
      "name": "AccessControlUnauthorizedAccount",
      "type": "error"
    },
    {
      "inputs": [],
      "name": "AlreadyFinalized",
      "type": "error"
    },
    {
      "inputs": [],
      "name": "BelowMinimum",
      "type": "error"
    },
    {
      "inputs": [],
      "name": "ConfigLocked",
      "type": "error"
    },
    {
      "inputs": [],
      "name": "ContributionLimitExceeded",
      "type": "error"
    },
    {
      "inputs": [],
      "name": "EnforcedPause",
      "type": "error"
    },
    {
      "inputs": [],
      "name": "ExpectedPause",
      "type": "error"
    },
    {
      "inputs": [],
      "name": "FeeDistributionFailed",
      "type": "error"
    },
    {
      "inputs": [],
      "name": "FeeNotDone",
      "type": "error"
    },
    {
      "inputs": [],
      "name": "HardCapExceeded",
      "type": "error"
    },
    {
      "inputs": [],
      "name": "InsufficientNativeBal",
      "type": "error"
    },
    {
      "inputs": [],
      "name": "InsufficientTokenBalance",
      "type": "error"
    },
    {
      "inputs": [],
      "name": "InsufficientTokenBudget",
      "type": "error"
    },
    {
      "inputs": [],
      "name": "InvalidAddress",
      "type": "error"
    },
    {
      "inputs": [],
      "name": "InvalidFeeConfig",
      "type": "error"
    },
    {
      "inputs": [],
      "name": "InvalidMerkleRoot",
      "type": "error"
    },
    {
      "inputs": [],
      "name": "InvalidStatus",
      "type": "error"
    },
    {
      "inputs": [],
      "name": "LPNotDone",
      "type": "error"
    },
    {
      "inputs": [],
      "name": "NativeTransferFailed",
      "type": "error"
    },
    {
      "inputs": [],
      "name": "NoContribution",
      "type": "error"
    },
    {
      "inputs": [],
      "name": "ReentrancyGuardReentrantCall",
      "type": "error"
    },
    {
      "inputs": [],
      "name": "RefundNotAvailable",
      "type": "error"
    },
    {
      "inputs": [
        {
          "internalType": "address",
          "name": "token",
          "type": "address"
        }
      ],
      "name": "SafeERC20FailedOperation",
      "type": "error"
    },
    {
      "inputs": [],
      "name": "SoftCapNotMet",
      "type": "error"
    },
    {
      "inputs": [],
      "name": "VestingFundingFailed",
      "type": "error"
    },
    {
      "anonymous": false,
      "inputs": [
        {
          "indexed": false,
          "internalType": "string",
          "name": "reason",
          "type": "string"
        }
      ],
      "name": "Cancelled",
      "type": "event"
    },
    {
      "anonymous": false,
      "inputs": [
        {
          "indexed": true,
          "internalType": "address",
          "name": "contributor",
          "type": "address"
        },
        {
          "indexed": false,
          "internalType": "uint256",
          "name": "amount",
          "type": "uint256"
        },
        {
          "indexed": true,
          "internalType": "address",
          "name": "referrer",
          "type": "address"
        }
      ],
      "name": "Contributed",
      "type": "event"
    },
    {
      "anonymous": false,
      "inputs": [
        {
          "components": [
            {
              "internalType": "uint256",
              "name": "totalBps",
              "type": "uint256"
            },
            {
              "internalType": "uint256",
              "name": "treasuryBps",
              "type": "uint256"
            },
            {
              "internalType": "uint256",
              "name": "referralPoolBps",
              "type": "uint256"
            },
            {
              "internalType": "uint256",
              "name": "sbtStakingBps",
              "type": "uint256"
            }
          ],
          "indexed": false,
          "internalType": "struct PresaleRound.FeeConfig",
          "name": "newConfig",
          "type": "tuple"
        }
      ],
      "name": "FeeConfigUpdated",
      "type": "event"
    },
    {
      "anonymous": false,
      "inputs": [
        {
          "indexed": false,
          "internalType": "string",
          "name": "reason",
          "type": "string"
        }
      ],
      "name": "FinalizedFailed",
      "type": "event"
    },
    {
      "anonymous": false,
      "inputs": [
        {
          "indexed": false,
          "internalType": "uint256",
          "name": "totalRaised",
          "type": "uint256"
        },
        {
          "indexed": false,
          "internalType": "uint256",
          "name": "feeAmount",
          "type": "uint256"
        },
        {
          "indexed": false,
          "internalType": "uint256",
          "name": "tgeTimestamp",
          "type": "uint256"
        }
      ],
      "name": "FinalizedSuccess",
      "type": "event"
    },
    {
      "anonymous": false,
      "inputs": [
        {
          "indexed": false,
          "internalType": "uint256",
          "name": "totalNative",
          "type": "uint256"
        },
        {
          "indexed": false,
          "internalType": "uint256",
          "name": "fee",
          "type": "uint256"
        },
        {
          "indexed": false,
          "internalType": "uint256",
          "name": "net",
          "type": "uint256"
        },
        {
          "indexed": false,
          "internalType": "uint256",
          "name": "vestingTopUp",
          "type": "uint256"
        },
        {
          "indexed": false,
          "internalType": "uint256",
          "name": "burned",
          "type": "uint256"
        },
        {
          "indexed": false,
          "internalType": "bytes32",
          "name": "merkleRoot",
          "type": "bytes32"
        }
      ],
      "name": "FinalizedSuccessEscrow",
      "type": "event"
    },
    {
      "anonymous": false,
      "inputs": [
        {
          "indexed": true,
          "internalType": "uint256",
          "name": "lockId",
          "type": "uint256"
        },
        {
          "indexed": true,
          "internalType": "address",
          "name": "lpToken",
          "type": "address"
        },
        {
          "indexed": false,
          "internalType": "uint256",
          "name": "amount",
          "type": "uint256"
        },
        {
          "indexed": false,
          "internalType": "uint256",
          "name": "unlockTime",
          "type": "uint256"
        }
      ],
      "name": "LPLocked",
      "type": "event"
    },
    {
      "anonymous": false,
      "inputs": [
        {
          "indexed": true,
          "internalType": "address",
          "name": "pair",
          "type": "address"
        },
        {
          "indexed": false,
          "internalType": "uint256",
          "name": "tokenAmount",
          "type": "uint256"
        },
        {
          "indexed": false,
          "internalType": "uint256",
          "name": "bnbAmount",
          "type": "uint256"
        },
        {
          "indexed": false,
          "internalType": "uint256",
          "name": "lpTokens",
          "type": "uint256"
        }
      ],
      "name": "LiquidityAdded",
      "type": "event"
    },
    {
      "anonymous": false,
      "inputs": [
        {
          "indexed": false,
          "internalType": "address",
          "name": "account",
          "type": "address"
        }
      ],
      "name": "Paused",
      "type": "event"
    },
    {
      "anonymous": false,
      "inputs": [
        {
          "indexed": true,
          "internalType": "address",
          "name": "contributor",
          "type": "address"
        },
        {
          "indexed": false,
          "internalType": "uint256",
          "name": "amount",
          "type": "uint256"
        }
      ],
      "name": "Refunded",
      "type": "event"
    },
    {
      "anonymous": false,
      "inputs": [
        {
          "indexed": true,
          "internalType": "bytes32",
          "name": "role",
          "type": "bytes32"
        },
        {
          "indexed": true,
          "internalType": "bytes32",
          "name": "previousAdminRole",
          "type": "bytes32"
        },
        {
          "indexed": true,
          "internalType": "bytes32",
          "name": "newAdminRole",
          "type": "bytes32"
        }
      ],
      "name": "RoleAdminChanged",
      "type": "event"
    },
    {
      "anonymous": false,
      "inputs": [
        {
          "indexed": true,
          "internalType": "bytes32",
          "name": "role",
          "type": "bytes32"
        },
        {
          "indexed": true,
          "internalType": "address",
          "name": "account",
          "type": "address"
        },
        {
          "indexed": true,
          "internalType": "address",
          "name": "sender",
          "type": "address"
        }
      ],
      "name": "RoleGranted",
      "type": "event"
    },
    {
      "anonymous": false,
      "inputs": [
        {
          "indexed": true,
          "internalType": "bytes32",
          "name": "role",
          "type": "bytes32"
        },
        {
          "indexed": true,
          "internalType": "address",
          "name": "account",
          "type": "address"
        },
        {
          "indexed": true,
          "internalType": "address",
          "name": "sender",
          "type": "address"
        }
      ],
      "name": "RoleRevoked",
      "type": "event"
    },
    {
      "anonymous": false,
      "inputs": [
        {
          "indexed": false,
          "internalType": "enum PresaleRound.Status",
          "name": "oldStatus",
          "type": "uint8"
        },
        {
          "indexed": false,
          "internalType": "enum PresaleRound.Status",
          "name": "newStatus",
          "type": "uint8"
        }
      ],
      "name": "StatusSynced",
      "type": "event"
    },
    {
      "anonymous": false,
      "inputs": [
        {
          "indexed": false,
          "internalType": "address",
          "name": "account",
          "type": "address"
        }
      ],
      "name": "Unpaused",
      "type": "event"
    },
    {
      "anonymous": false,
      "inputs": [
        {
          "indexed": false,
          "internalType": "uint256",
          "name": "amount",
          "type": "uint256"
        }
      ],
      "name": "UnsoldTokensBurned",
      "type": "event"
    },
    {
      "inputs": [],
      "name": "ADMIN_ROLE",
      "outputs": [
        {
          "internalType": "bytes32",
          "name": "",
          "type": "bytes32"
        }
      ],
      "stateMutability": "view",
      "type": "function"
    },
    {
      "inputs": [],
      "name": "DEFAULT_ADMIN_ROLE",
      "outputs": [
        {
          "internalType": "bytes32",
          "name": "",
          "type": "bytes32"
        }
      ],
      "stateMutability": "view",
      "type": "function"
    },
    {
      "inputs": [],
      "name": "burnedAmount",
      "outputs": [
        {
          "internalType": "uint256",
          "name": "",
          "type": "uint256"
        }
      ],
      "stateMutability": "view",
      "type": "function"
    },
    {
      "inputs": [
        {
          "internalType": "string",
          "name": "reason",
          "type": "string"
        }
      ],
      "name": "cancel",
      "outputs": [],
      "stateMutability": "nonpayable",
      "type": "function"
    },
    {
      "inputs": [],
      "name": "claimRefund",
      "outputs": [],
      "stateMutability": "nonpayable",
      "type": "function"
    },
    {
      "inputs": [
        {
          "internalType": "uint256",
          "name": "amount",
          "type": "uint256"
        },
        {
          "internalType": "address",
          "name": "referrer",
          "type": "address"
        }
      ],
      "name": "contribute",
      "outputs": [],
      "stateMutability": "payable",
      "type": "function"
    },
    {
      "inputs": [
        {
          "internalType": "address",
          "name": "",
          "type": "address"
        }
      ],
      "name": "contributions",
      "outputs": [
        {
          "internalType": "uint256",
          "name": "",
          "type": "uint256"
        }
      ],
      "stateMutability": "view",
      "type": "function"
    },
    {
      "inputs": [],
      "name": "dexRouter",
      "outputs": [
        {
          "internalType": "address",
          "name": "",
          "type": "address"
        }
      ],
      "stateMutability": "view",
      "type": "function"
    },
    {
      "inputs": [],
      "name": "endTime",
      "outputs": [
        {
          "internalType": "uint256",
          "name": "",
          "type": "uint256"
        }
      ],
      "stateMutability": "view",
      "type": "function"
    },
    {
      "inputs": [],
      "name": "feeConfig",
      "outputs": [
        {
          "internalType": "uint256",
          "name": "totalBps",
          "type": "uint256"
        },
        {
          "internalType": "uint256",
          "name": "treasuryBps",
          "type": "uint256"
        },
        {
          "internalType": "uint256",
          "name": "referralPoolBps",
          "type": "uint256"
        },
        {
          "internalType": "uint256",
          "name": "sbtStakingBps",
          "type": "uint256"
        }
      ],
      "stateMutability": "view",
      "type": "function"
    },
    {
      "inputs": [],
      "name": "feePaid",
      "outputs": [
        {
          "internalType": "bool",
          "name": "",
          "type": "bool"
        }
      ],
      "stateMutability": "view",
      "type": "function"
    },
    {
      "inputs": [],
      "name": "feeSplitter",
      "outputs": [
        {
          "internalType": "address",
          "name": "",
          "type": "address"
        }
      ],
      "stateMutability": "view",
      "type": "function"
    },
    {
      "inputs": [
        {
          "internalType": "string",
          "name": "reason",
          "type": "string"
        }
      ],
      "name": "finalizeFailed",
      "outputs": [],
      "stateMutability": "nonpayable",
      "type": "function"
    },
    {
      "inputs": [
        {
          "internalType": "bytes32",
          "name": "merkleRoot",
          "type": "bytes32"
        },
        {
          "internalType": "uint256",
          "name": "totalVestingAllocation",
          "type": "uint256"
        },
        {
          "internalType": "uint256",
          "name": "totalTokensForSale",
          "type": "uint256"
        }
      ],
      "name": "finalizeSuccess",
      "outputs": [],
      "stateMutability": "nonpayable",
      "type": "function"
    },
    {
      "inputs": [
        {
          "internalType": "bytes32",
          "name": "_merkleRoot",
          "type": "bytes32"
        },
        {
          "internalType": "uint256",
          "name": "totalVestingAllocation",
          "type": "uint256"
        },
        {
          "internalType": "uint256",
          "name": "unsoldToBurn",
          "type": "uint256"
        },
        {
          "internalType": "uint256",
          "name": "tokensForLP",
          "type": "uint256"
        },
        {
          "internalType": "uint256",
          "name": "tokenMinLP",
          "type": "uint256"
        },
        {
          "internalType": "uint256",
          "name": "bnbMinLP",
          "type": "uint256"
        }
      ],
      "name": "finalizeSuccessEscrow",
      "outputs": [],
      "stateMutability": "nonpayable",
      "type": "function"
    },
    {
      "inputs": [
        {
          "internalType": "address",
          "name": "contributor",
          "type": "address"
        }
      ],
      "name": "getContributionInfo",
      "outputs": [
        {
          "internalType": "uint256",
          "name": "contribution",
          "type": "uint256"
        },
        {
          "internalType": "address",
          "name": "referrer",
          "type": "address"
        }
      ],
      "stateMutability": "view",
      "type": "function"
    },
    {
      "inputs": [],
      "name": "getPresaleInfo",
      "outputs": [
        {
          "internalType": "enum PresaleRound.Status",
          "name": "_status",
          "type": "uint8"
        },
        {
          "internalType": "uint256",
          "name": "_totalRaised",
          "type": "uint256"
        },
        {
          "internalType": "uint256",
          "name": "_softCap",
          "type": "uint256"
        },
        {
          "internalType": "uint256",
          "name": "_hardCap",
          "type": "uint256"
        },
        {
          "internalType": "uint256",
          "name": "_startTime",
          "type": "uint256"
        },
        {
          "internalType": "uint256",
          "name": "_endTime",
          "type": "uint256"
        },
        {
          "internalType": "uint256",
          "name": "_tgeTimestamp",
          "type": "uint256"
        }
      ],
      "stateMutability": "view",
      "type": "function"
    },
    {
      "inputs": [
        {
          "internalType": "bytes32",
          "name": "role",
          "type": "bytes32"
        }
      ],
      "name": "getRoleAdmin",
      "outputs": [
        {
          "internalType": "bytes32",
          "name": "",
          "type": "bytes32"
        }
      ],
      "stateMutability": "view",
      "type": "function"
    },
    {
      "inputs": [
        {
          "internalType": "bytes32",
          "name": "role",
          "type": "bytes32"
        },
        {
          "internalType": "address",
          "name": "account",
          "type": "address"
        }
      ],
      "name": "grantRole",
      "outputs": [],
      "stateMutability": "nonpayable",
      "type": "function"
    },
    {
      "inputs": [],
      "name": "hardCap",
      "outputs": [
        {
          "internalType": "uint256",
          "name": "",
          "type": "uint256"
        }
      ],
      "stateMutability": "view",
      "type": "function"
    },
    {
      "inputs": [
        {
          "internalType": "bytes32",
          "name": "role",
          "type": "bytes32"
        },
        {
          "internalType": "address",
          "name": "account",
          "type": "address"
        }
      ],
      "name": "hasRole",
      "outputs": [
        {
          "internalType": "bool",
          "name": "",
          "type": "bool"
        }
      ],
      "stateMutability": "view",
      "type": "function"
    },
    {
      "inputs": [],
      "name": "liquidityBps",
      "outputs": [
        {
          "internalType": "uint256",
          "name": "",
          "type": "uint256"
        }
      ],
      "stateMutability": "view",
      "type": "function"
    },
    {
      "inputs": [],
      "name": "lpCreated",
      "outputs": [
        {
          "internalType": "bool",
          "name": "",
          "type": "bool"
        }
      ],
      "stateMutability": "view",
      "type": "function"
    },
    {
      "inputs": [],
      "name": "lpLockDuration",
      "outputs": [
        {
          "internalType": "uint256",
          "name": "",
          "type": "uint256"
        }
      ],
      "stateMutability": "view",
      "type": "function"
    },
    {
      "inputs": [],
      "name": "lpLockId",
      "outputs": [
        {
          "internalType": "uint256",
          "name": "",
          "type": "uint256"
        }
      ],
      "stateMutability": "view",
      "type": "function"
    },
    {
      "inputs": [],
      "name": "lpLocker",
      "outputs": [
        {
          "internalType": "address",
          "name": "",
          "type": "address"
        }
      ],
      "stateMutability": "view",
      "type": "function"
    },
    {
      "inputs": [],
      "name": "lpUsedBnb",
      "outputs": [
        {
          "internalType": "uint256",
          "name": "",
          "type": "uint256"
        }
      ],
      "stateMutability": "view",
      "type": "function"
    },
    {
      "inputs": [],
      "name": "maxContribution",
      "outputs": [
        {
          "internalType": "uint256",
          "name": "",
          "type": "uint256"
        }
      ],
      "stateMutability": "view",
      "type": "function"
    },
    {
      "inputs": [],
      "name": "minContribution",
      "outputs": [
        {
          "internalType": "uint256",
          "name": "",
          "type": "uint256"
        }
      ],
      "stateMutability": "view",
      "type": "function"
    },
    {
      "inputs": [],
      "name": "ownerPaid",
      "outputs": [
        {
          "internalType": "bool",
          "name": "",
          "type": "bool"
        }
      ],
      "stateMutability": "view",
      "type": "function"
    },
    {
      "inputs": [],
      "name": "pause",
      "outputs": [],
      "stateMutability": "nonpayable",
      "type": "function"
    },
    {
      "inputs": [],
      "name": "paused",
      "outputs": [
        {
          "internalType": "bool",
          "name": "",
          "type": "bool"
        }
      ],
      "stateMutability": "view",
      "type": "function"
    },
    {
      "inputs": [],
      "name": "paymentToken",
      "outputs": [
        {
          "internalType": "address",
          "name": "",
          "type": "address"
        }
      ],
      "stateMutability": "view",
      "type": "function"
    },
    {
      "inputs": [],
      "name": "projectOwner",
      "outputs": [
        {
          "internalType": "address",
          "name": "",
          "type": "address"
        }
      ],
      "stateMutability": "view",
      "type": "function"
    },
    {
      "inputs": [],
      "name": "projectToken",
      "outputs": [
        {
          "internalType": "address",
          "name": "",
          "type": "address"
        }
      ],
      "stateMutability": "view",
      "type": "function"
    },
    {
      "inputs": [
        {
          "internalType": "address",
          "name": "",
          "type": "address"
        }
      ],
      "name": "referrers",
      "outputs": [
        {
          "internalType": "address",
          "name": "",
          "type": "address"
        }
      ],
      "stateMutability": "view",
      "type": "function"
    },
    {
      "inputs": [
        {
          "internalType": "bytes32",
          "name": "role",
          "type": "bytes32"
        },
        {
          "internalType": "address",
          "name": "callerConfirmation",
          "type": "address"
        }
      ],
      "name": "renounceRole",
      "outputs": [],
      "stateMutability": "nonpayable",
      "type": "function"
    },
    {
      "inputs": [
        {
          "internalType": "bytes32",
          "name": "role",
          "type": "bytes32"
        },
        {
          "internalType": "address",
          "name": "account",
          "type": "address"
        }
      ],
      "name": "revokeRole",
      "outputs": [],
      "stateMutability": "nonpayable",
      "type": "function"
    },
    {
      "inputs": [
        {
          "components": [
            {
              "internalType": "uint256",
              "name": "totalBps",
              "type": "uint256"
            },
            {
              "internalType": "uint256",
              "name": "treasuryBps",
              "type": "uint256"
            },
            {
              "internalType": "uint256",
              "name": "referralPoolBps",
              "type": "uint256"
            },
            {
              "internalType": "uint256",
              "name": "sbtStakingBps",
              "type": "uint256"
            }
          ],
          "internalType": "struct PresaleRound.FeeConfig",
          "name": "newConfig",
          "type": "tuple"
        }
      ],
      "name": "setFeeConfig",
      "outputs": [],
      "stateMutability": "nonpayable",
      "type": "function"
    },
    {
      "inputs": [],
      "name": "snap",
      "outputs": [
        {
          "internalType": "uint256",
          "name": "totalNative",
          "type": "uint256"
        },
        {
          "internalType": "uint256",
          "name": "feeAmount",
          "type": "uint256"
        },
        {
          "internalType": "uint256",
          "name": "netAfterFee",
          "type": "uint256"
        },
        {
          "internalType": "uint256",
          "name": "lpBnb",
          "type": "uint256"
        },
        {
          "internalType": "uint256",
          "name": "ownerBnb",
          "type": "uint256"
        },
        {
          "internalType": "bool",
          "name": "taken",
          "type": "bool"
        }
      ],
      "stateMutability": "view",
      "type": "function"
    },
    {
      "inputs": [],
      "name": "softCap",
      "outputs": [
        {
          "internalType": "uint256",
          "name": "",
          "type": "uint256"
        }
      ],
      "stateMutability": "view",
      "type": "function"
    },
    {
      "inputs": [],
      "name": "startTime",
      "outputs": [
        {
          "internalType": "uint256",
          "name": "",
          "type": "uint256"
        }
      ],
      "stateMutability": "view",
      "type": "function"
    },
    {
      "inputs": [],
      "name": "status",
      "outputs": [
        {
          "internalType": "enum PresaleRound.Status",
          "name": "",
          "type": "uint8"
        }
      ],
      "stateMutability": "view",
      "type": "function"
    },
    {
      "inputs": [
        {
          "internalType": "bytes4",
          "name": "interfaceId",
          "type": "bytes4"
        }
      ],
      "name": "supportsInterface",
      "outputs": [
        {
          "internalType": "bool",
          "name": "",
          "type": "bool"
        }
      ],
      "stateMutability": "view",
      "type": "function"
    },
    {
      "inputs": [
        {
          "internalType": "address",
          "name": "to",
          "type": "address"
        }
      ],
      "name": "sweepExcess",
      "outputs": [],
      "stateMutability": "nonpayable",
      "type": "function"
    },
    {
      "inputs": [],
      "name": "tgeTimestamp",
      "outputs": [
        {
          "internalType": "uint256",
          "name": "",
          "type": "uint256"
        }
      ],
      "stateMutability": "view",
      "type": "function"
    },
    {
      "inputs": [],
      "name": "totalRaised",
      "outputs": [
        {
          "internalType": "uint256",
          "name": "",
          "type": "uint256"
        }
      ],
      "stateMutability": "view",
      "type": "function"
    },
    {
      "inputs": [],
      "name": "unpause",
      "outputs": [],
      "stateMutability": "nonpayable",
      "type": "function"
    },
    {
      "inputs": [],
      "name": "vestingFunded",
      "outputs": [
        {
          "internalType": "bool",
          "name": "",
          "type": "bool"
        }
      ],
      "stateMutability": "view",
      "type": "function"
    },
    {
      "inputs": [],
      "name": "vestingVault",
      "outputs": [
        {
          "internalType": "address",
          "name": "",
          "type": "address"
        }
      ],
      "stateMutability": "view",
      "type": "function"
    },
    {
      "stateMutability": "payable",
      "type": "receive"
    }
  ],
  "bytecode": "0x34620004de576200312a38819003610280601f8201601f19168101906001600160401b03821190821017620003af576102009282916040526102803912620004de576200004e610280620004e3565b6200005b6102a0620004e3565b6102c0516102e05161030051610320516103405161036051939695949362000085610380620004e3565b91620000936103a0620004e3565b93620000a16103c0620004e3565b95620000af6103e0620004e3565b9a620000bd610400620004e3565b98620000cb610420620004e3565b61044051610260526104605160016000559c909b90828410620004cc5786881115620004cc576001600160a01b0389811615620004ba57808b1615620004ba57808c1615620004ba5761271061026051116200048457808d161580159062000478575b1562000445578d161580159062000439575b1562000406576301e133808e10801590620003fa575b15620003c55760805260a05260c05260e05261010052610120526101405261016052610180526101a0526101c0526101e05261020052620001bd610260519261022093845261024092835260ff1960075416600755620001b681620004f8565b5062000579565b50604051608081016001600160401b03811182821017620003af57604052603260606101f49283815260fa602082015260c86040820152015260035560fa60045560c8600555603260065560405190612aed92836200061d843960805183818161065601528181610b5301528181610c6a01528181610df001528181611b250152611cea015260a0518381816110ef0152818161193901528181611d770152612144015260c05183818161030b015281816111fe01528181611594015281816116be0152611c7f015260e05183818161026e015281816116e30152818161190901528181611e1a01526128550152610100518381816112b701526118b00152610120518381816115cf01526118d70152610140518381816113110152818161166401528181611709015261276a01526101605183818161172f0152818161210c0152612812015261018051838181610aa201528181611a9e01528181611da70152611fbc01526101a05183818161036701528181610c3a015281816114620152611d1101526101c051838181610558015281816107f3015281816114a60152611cc001526101e05183818161063001526122f001526102005183818161077401526123340152518281816104bb01528181610a7001528181610d3b015261104e0152518181816107a60152610f6e0152f35b634e487b7160e01b600052604160045260246000fd5b60405162461bcd60e51b815260206004820152600d60248201526c4d494e5f31325f4d4f4e54485360981b6044820152606490fd5b50610260511562000156565b60405162461bcd60e51b815260206004820152600b60248201526a2722a2a22fa627a1a5a2a960a91b6044820152606490fd5b50610260511562000140565b60405162461bcd60e51b815260206004820152600b60248201526a2722a2a22fa927aaaa22a960a91b6044820152606490fd5b5061026051156200012e565b60405162461bcd60e51b815260206004820152600e60248201526d494e56414c49445f4c505f42505360901b6044820152606490fd5b60405163e6c4247b60e01b8152600490fd5b6040516307a92f1960e51b8152600490fd5b600080fd5b51906001600160a01b0382168203620004de57565b6001600160a01b031660008181527fac33ff75c19e70fe83507db0d683fd3465c996598dc972688b7ace676c89077b602052604081205490919060ff16620005755781805260026020526040822081835260205260408220600160ff1982541617905533916000805160206200310a8339815191528180a4600190565b5090565b6001600160a01b031660008181527fe5ebfa64fca8d502a8e50c1edffd2c31ef4dad5b396e65d9f397fb028f74abc560205260408120549091907fa49807205ce4d355092ef5a8a18f56e8913cf4a201fbe287825b095693c217759060ff16620006175780835260026020526040832082845260205260408320600160ff198254161790556000805160206200310a833981519152339380a4600190565b50509056fe6080604081815260049182361015610022575b505050361561002057600080fd5b005b600092833560e01c91826301ffc9a7146123635750816303fc20131461231f5781630758d924146122db5781630b4f3f3d146122515781631e5eb1d014612218578163200d2ed2146121ef578163248a9ca3146121c4578163260813d51461219d5781632f2ff15d146121735781633013ce291461212f5781633197cbb6146120f457816336568abe146120ae578163387cd2cb14611c315781633f4ba83a14611bc757816342e94c9014611b8f5781634a3b68cc14611b545781634b60ce7714611b1057816350e15fdd14611af15781635c975abb14611acd5781636052970c14611a8957816360b0b0f01461185057816368b68bd51461179557816375b238fc1461175a578163767fa7231461168757816378e979251461164c5781638456cb59146115f25781638d3d6576146115b7578163906a26e01461157c57816391d148541461153657816391ed3ab01461150f578163a217fddf146114f4578163a4317ef4146114d5578163a4475ce414611491578163a5917baf1461144d578163a77d38fa146113fe578163a9725d52146113da578163a9eddf99146112da578163aaffadf31461129f578163ac7c578014611278578163b30ca2da146111bf578163b5545a3c14611090578163c5c4744c14611071578163c9f62af214611036578163ca8c3bea14611017578163cd78d92c14610fd1578163d547741f14610f91578163de35eb2414610f56578163f41e0ba9146102b357508063f86aa92d146102955763fb86a404146102585780610012565b34610291578160031936011261029157602090517f00000000000000000000000000000000000000000000000000000000000000008152f35b5080fd5b50346102915781600319360112610291576020906012549051908152f35b905034610bd35760c0366003190112610bd35760443581356102d361244f565b6102db61273b565b60ff926007908482541682811015610f2857818114610f475760028114159081610f3b575b50610ee7575b6008547f00000000000000000000000000000000000000000000000000000000000000008110610ed857600f549086821615610d1b575b505060118581541615610c2c575b8651632eb4a7ab60e01b815293956020946001600160a01b03907f0000000000000000000000000000000000000000000000000000000000000000821690899088818881865afa908115610c22578d91610bf1575b5080610be757508015610bd757908b91813b15610bd3578291604483928e519485938492637c382d0b60e01b84528c84015260243560248401525af18015610bc957610bb5575b50505b899680151580610baa575b610b3d575b5081835460081c161580610b32575b610a96575b818354818160101c161580610a6d575b80610a62575b80610a57575b610616575b505050815490808260181c16156104a8575b897fc4cc84355ef3f7327b5aa6c366cafe189c44e1a7807ce501f6f3a503a66717e860c08b8b8b8b8b8b4260095560ff19825416179055600a5493600b54600e549282519687528601528401526024356060840152608083015260a0820152a16001815580f35b808260081c16158061060b575b6105fb577f00000000000000000000000000000000000000000000000000000000000000001515806105f0575b806105e3575b6105d357899160101c16806105c6575b6105ac575b61050990600e546125e6565b8061054a575b50805463ff000000191663010000001790558160c07fc4cc84355ef3f7327b5aa6c366cafe189c44e1a7807ce501f6f3a503a66717e8610441565b80471061059c5788808080937f00000000000000000000000000000000000000000000000000000000000000005af16105816128ba565b501561058d573861050f565b508551633d2cec6f60e21b8152fd5b8751639c88354560e01b81528390fd5b506105096105bf600d54601354906128ad565b90506104fd565b50600d54601354106104f8565b8851635961cb6360e11b81528490fd5b50808260101c16156104e8565b50600d5415156104e2565b8851632c17c9c760e21b81528490fd5b50600b5415156104b5565b60081c161580610a4c575b6105fb5747600d5411610a3c577f000000000000000000000000000000000000000000000000000000000000000090606435817f0000000000000000000000000000000000000000000000000000000000000000169161068282858561297d565b600d549061012c420194854211610a2a578d8f918660c48c8660609486519c8d95869463f305d71960e01b86528501528b6024850152608435604485015260a435606485015230608485015260a48401521697885af18015610a1f578c978b958499859286946109d3575b5084516315ab88c960e31b815297889081845afa9687156109aa578f90918e9287996109b4575b50855163c45a015560e01b815292839182905afa80156109aa578f918e888c936044938a9161098d575b508189519c8d96879563e6a4390560e01b8752860152166024840152165afa908115610980578e6084978693610951575b508d877f000000000000000000000000000000000000000000000000000000000000000094169889916107a387878561297d565b887f00000000000000000000000000000000000000000000000000000000000000009a6107d08c426125e6565b978a519889968795630aa393f360e01b87528601528a60248601526044850152817f0000000000000000000000000000000000000000000000000000000000000000166064850152165af19485156109465787928d91966108e4575b5060128690556013829055805462ff000019166201000017905583518a815260208101919091526040810183905293947fce43c008407997433724b443add46562764945cebefa7fb64f11a3537db3a15b946108af92907f64b83944e79c3ce8d4c297411de637c3e102d064677aac0c163976ebdcd6f50e90606090a2426125e6565b82519182528d820152a38281116108c9575b83915061042f565b6108dc926108d6916128ad565b906128fa565b3880806108c1565b969450509350508c84813d831161093f575b610900818361264f565b8101031261093a579251909290918f919085908b7f64b83944e79c3ce8d4c297411de637c3e102d064677aac0c163976ebdcd6f50e61082c565b600080fd5b503d6108f6565b8451903d90823e3d90fd5b816109729294503d8511610979575b61096a818361264f565b810190612a98565b913861076f565b503d610960565b50505051903d90823e3d90fd5b6109a49150863d88116109795761096a818361264f565b3861073e565b84513d87823e3d90fd5b6109cc919950823d84116109795761096a818361264f565b9738610714565b9a505095505050506060863d8211610a17575b816109f36060938361264f565b81010312610a14578d8b8a9488519083838b01519a015191999192386106ed565b80fd5b3d91506109e6565b5051903d90823e3d90fd5b634e487b7160e01b8f5287895260248ffd5b8851639c88354560e01b81528490fd5b50600b541515610621565b50600d54151561042a565b506064351515610424565b507f0000000000000000000000000000000000000000000000000000000000000000151561041e565b600b54939997969594937f00000000000000000000000000000000000000000000000000000000000000008216803b15610b2e578980918d8d518095819363990087b760e01b83525af19182610b16575b5050610afd5788516354ce345960e01b81528a90fd5b61010061ff009a94959697989a1984541617835561040e565b610b1f90612609565b610b2a578838610ae7565b8880fd5b8980fd5b50600b541515610409565b9650610b4b601054886128ad565b96610b7888837f0000000000000000000000000000000000000000000000000000000000000000166128fa565b6010557f3316cd92e8029a9d825199ad5d83f540869e52a9d77cf97560178a0b5ebac6fb86888b51908152a1386103fa565b5080601054106103f5565b610bbe90612609565b610b2e5789386103e7565b8b513d84823e3d90fd5b8280fd5b8a51639dd854d360e01b81528690fd5b99506103ea915050565b90508881813d8311610c1b575b610c08818361264f565b81010312610c175751386103a0565b8c80fd5b503d610bfe565b8c513d8f823e3d90fd5b86516370a0823160e01b81527f00000000000000000000000000000000000000000000000000000000000000006001600160a01b03818116858401527f00000000000000000000000000000000000000000000000000000000000000001690602083602481855afa928315610d11578b93610cde575b50602435808410610cc2575b50505050600160ff1982541617815561034b565b610cd593610ccf916128ad565b91612941565b38808080610cae565b9092506020813d8211610d09575b81610cf96020938361264f565b8101031261093a57519138610ca2565b3d9150610cec565b8a513d8d823e3d90fd5b6127109081610d2c6003548361289a565b0491610d3883836128ad565b907f00000000000000000000000000000000000000000000000000000000000000008015610ed057610d6a908361289a565b045b610d7681836128ad565b918b5160c0810181811067ffffffffffffffff821117610ebb57600191838f60a0938152888352896020840152820152846060820152856080820152015283600a5584600b55600c55600d55600e55600160ff1980941617600f55471061059c5787516370a0823160e01b815230848201526020816024817f00000000000000000000000000000000000000000000000000000000000000006001600160a01b03165afa908115610eb1578a91610e80575b50610e4087610e3b6064356024356125e6565b6125e6565b11610e70579060039115610e5c575b835416178255388061033d565b61010061ff00196011541617601155610e4f565b87516378a7ac6760e11b81528390fd5b90506020813d8211610ea9575b81610e9a6020938361264f565b8101031261093a575138610e28565b3d9150610e8d565b89513d8c823e3d90fd5b604189634e487b7160e01b6000525260246000fd5b50508a610d6c565b5085516346c21a5560e01b8152fd5b610eef61275e565b8482541682811015610f285760028114159081610f1c575b5015610306575b85516307a92f1960e51b8152fd5b60039150141538610f07565b634e487b7160e01b885260218252602488fd5b60039150141538610300565b50855163475a253560e01b8152fd5b505034610291578160031936011261029157602090517f00000000000000000000000000000000000000000000000000000000000000008152f35b91905034610bd35780600319360112610bd357610fcd9135610fc86001610fb6612423565b938387526002602052862001546124c9565b61256f565b5080f35b828434610a14576020366003190112610a14576001600160a01b0380610ff5612439565b1682526014602052828083205492601560205220541682519182526020820152f35b5050346102915781600319360112610291576020906013549051908152f35b505034610291578160031936011261029157602090517f00000000000000000000000000000000000000000000000000000000000000008152f35b5050346102915781600319360112610291576020906008549051908152f35b91905034610bd35782600319360112610bd3576110ab61273b565b60ff6007541660078110156111ac57600581141590816111a0575b5061119357338352601460205280832054918215611185573384526014602052818420849055827f00000000000000000000000000000000000000000000000000000000000000006001600160a01b03168061117457508480808093335af161112d6128ba565b501561116657505b519081527fd7dee2702d63ad89917b6a4da9981c90c4d24f8c2bdfd64c604ecae57d8d065160203392a26001815580f35b905163b9da5d2b60e01b8152fd5b61118092503390612941565b611135565b9051631971fbf360e21b8152fd5b51630b4d698160e01b8152fd5b600691501415386110c6565b634e487b7160e01b845260218352602484fd5b83915034610291576111d0366123b6565b916111d961244f565b6111e161275e565b6007549060ff8216600781101561126557600203610f0e576008547f00000000000000000000000000000000000000000000000000000000000000001115610f0e57507f5b55eccea968a9bf1df9a6702e20475ac67bb0d7f402f51701eef38e619368fe9394600561125f9260ff1916176007555192839283612a70565b0390a180f35b634e487b7160e01b865260218252602486fd5b50503461029157816003193601126102915760209060ff60115460081c1690519015158152f35b505034610291578160031936011261029157602090517f00000000000000000000000000000000000000000000000000000000000000008152f35b905034610bd3576080366003190112610bd3576112f561244f565b60ff6007541660078110156113c7576113ba576008546113ba577f00000000000000000000000000000000000000000000000000000000000000004210156113ba578035916044359060243561134b83826125e6565b9361135960643580966125e6565b86036113ac579181869492608096947f0ad166d8be1925ee44c5a77600b8a5f7e58cbe711c0dbd99624014a81b8350ba98600355558260055583600655815194855260208501528301526060820152a180f35b8251632b00a33d60e11b8152fd5b905162b5d7e160e81b8152fd5b634e487b7160e01b845260218252602484fd5b50503461029157816003193601126102915760209060ff6011541690519015158152f35b50503461029157816003193601126102915760c090600a5490600b5490600c54600d5490600e549260ff600f5416948151968752602087015285015260608401526080830152151560a0820152f35b505034610291578160031936011261029157517f00000000000000000000000000000000000000000000000000000000000000006001600160a01b03168152602090f35b505034610291578160031936011261029157517f00000000000000000000000000000000000000000000000000000000000000006001600160a01b03168152602090f35b5050346102915781600319360112610291576020906009549051908152f35b50503461029157816003193601126102915751908152602090f35b50503461029157816003193601126102915760209060ff60115460181c1690519015158152f35b905034610bd35781600319360112610bd35781602093611554612423565b9235815260028552209060018060a01b0316600052825260ff81600020541690519015158152f35b505034610291578160031936011261029157602090517f00000000000000000000000000000000000000000000000000000000000000008152f35b505034610291578160031936011261029157602090517f00000000000000000000000000000000000000000000000000000000000000008152f35b50503461029157816003193601126102915760207f62e78cea01bee320cd4e420270b5ea74000d11b0c9f74754ebdbfc544b05a2589161163061244f565b61163861271d565b600160ff198154161760015551338152a180f35b505034610291578160031936011261029157602090517f00000000000000000000000000000000000000000000000000000000000000008152f35b50503461029157816003193601126102915760e09060ff600754169060085490600954916116b782518095612400565b60208401527f0000000000000000000000000000000000000000000000000000000000000000908301527f000000000000000000000000000000000000000000000000000000000000000060608301527f000000000000000000000000000000000000000000000000000000000000000060808301527f000000000000000000000000000000000000000000000000000000000000000060a083015260c0820152f35b505034610291578160031936011261029157602090517fa49807205ce4d355092ef5a8a18f56e8913cf4a201fbe287825b095693c217758152f35b91905034610bd3576020366003190112610bd3576117b1612439565b6117b961244f565b6117c161273b565b60ff60075416600781101561183d57830361182f576001600160a01b0381161561182157839047806117f6575b826001815580f35b8280929181925af16118066128ba565b5015611814578281806117ee565b51633d2cec6f60e21b8152fd5b505163e6c4247b60e01b8152fd5b50516307a92f1960e51b8152fd5b634e487b7160e01b855260218452602485fd5b905081600319360112610bd357803590611868612423565b9061187161273b565b61187961271d565b61188161275e565b60ff60075416600781101561126557600103611a7b57338552602091601483526118ae84868820546125e6565b7f00000000000000000000000000000000000000000000000000000000000000008110611a6b577f000000000000000000000000000000000000000000000000000000000000000010611a5c57611907846008546125e6565b7f000000000000000000000000000000000000000000000000000000000000000010611a4d576001600160a01b0391847f0000000000000000000000000000000000000000000000000000000000000000841680611a1357503403610f0e575090807fec470969f3350ca5a15f0d85053f8763ffd0ee39c7b74fcdc5af7862718e292a93925b338852601484528688206119a28782546125e6565b90556119b0866008546125e6565b60085516801515806119ff575b6119de575b5033865260158252848620541693519283523392a36001815580f35b3387526015835285872080546001600160a01b0319169091179055386119c2565b5033875260158352818688205416156119bd565b8493917fec470969f3350ca5a15f0d85053f8763ffd0ee39c7b74fcdc5af7862718e292a96959350611a489130903390612671565b61198d565b508351631c4af3c960e11b8152fd5b5083516374368fb960e11b8152fd5b855163860b82a960e01b81528390fd5b83516307a92f1960e51b8152fd5b505034610291578160031936011261029157517f00000000000000000000000000000000000000000000000000000000000000006001600160a01b03168152602090f35b50503461029157816003193601126102915760209060ff6001541690519015158152f35b5050346102915781600319360112610291576020906010549051908152f35b505034610291578160031936011261029157517f00000000000000000000000000000000000000000000000000000000000000006001600160a01b03168152602090f35b505034610291576020366003190112610291576020916001600160a01b0390829082611b7e612439565b168152601585522054169051908152f35b5050346102915760203660031901126102915760209181906001600160a01b03611bb7612439565b1681526014845220549051908152f35b905034610bd35782600319360112610bd357611be161244f565b6001549060ff821615611c23575060ff1916600155513381527f5db9ee0a495bf2e6ff9c91a7834c1ba4fdd244a5e8aa4e537bd38aeae4b073aa90602090a180f35b8251638dfc202b60e01b8152fd5b8383346102915760603660031901126102915760243560443593611c5361244f565b611c5b61273b565b611c6361275e565b60ff60075416600781101561209b5760020361208d57600854917f0000000000000000000000000000000000000000000000000000000000000000831061207e57611cbe612710611cb66003548661289a565b0480946128ad565b7f0000000000000000000000000000000000000000000000000000000000000000916001600160a01b037f00000000000000000000000000000000000000000000000000000000000000008116929091827f0000000000000000000000000000000000000000000000000000000000000000611d3c83828989612671565b1690813b15610b2e578991604483928b519485938492637c382d0b60e01b84528c358d85015260248401525af1801561207457612061575b507f0000000000000000000000000000000000000000000000000000000000000000828116908115908115611fb95750837f000000000000000000000000000000000000000000000000000000000000000016803b15611fb5578a8991898c518094819363990087b760e01b83525af18015610d1157918b9493918893611f97575b505b15611f88575082809281925af1611e0d6128ba565b5015611f78575b600854977f00000000000000000000000000000000000000000000000000000000000000009889811080611f6f575b611ea0575b4260098190556007805460ff191688179055600854895190815260208101899052604081019190915289907ff3e2f1d90bd58f6807b6468783c27fdc68307b057882b3ca4eb0f3bb2116789990606090a16001815580f35b90611eae611eb4928b6128ad565b9061289a565b978015611f5a577ff3e2f1d90bd58f6807b6468783c27fdc68307b057882b3ca4eb0f3bb211678999798049081611eed575b8897611e48565b7f3316cd92e8029a9d825199ad5d83f540869e52a9d77cf97560178a0b5ebac6fb93602093611f4b928951926323b872dd60e01b8785015216602483015261dead604483015283606483015260648252611f4682612633565b6126b5565b8551908152a185808080611ee6565b601285634e487b7160e01b6000525260246000fd5b50811515611e43565b855163b9da5d2b60e01b81528490fd5b611f929350612941565b611e14565b611fa691935094919394612609565b610b2e5789929186918d611df6565b8a80fd5b847f0000000000000000000000000000000000000000000000000000000000000000611fe68b828761297d565b1690813b1561205d578a5163398da91160e01b81526001600160a01b03909116818a01908152602081018b905290918c9183919082908490829060400103925af18015610d1157918b949391889361203f575b50611df8565b61204e91935094919394612609565b610b2e5789929186918d612039565b8b80fd5b61206d90989198612609565b9689611d74565b88513d8b823e3d90fd5b5082516346c21a5560e01b8152fd5b82516307a92f1960e51b8152fd5b634e487b7160e01b855260218252602485fd5b8383346102915780600319360112610291576120c8612423565b90336001600160a01b038316036120e55750610fcd91923561256f565b5163334bd91960e11b81528390fd5b505034610291578160031936011261029157602090517f00000000000000000000000000000000000000000000000000000000000000008152f35b505034610291578160031936011261029157517f00000000000000000000000000000000000000000000000000000000000000006001600160a01b03168152602090f35b91905034610bd35780600319360112610bd357610fcd91356121986001610fb6612423565b6124ef565b50503461029157816003193601126102915760209060ff60115460101c1690519015158152f35b905034610bd3576020366003190112610bd35781602093600192358152600285522001549051908152f35b50503461029157816003193601126102915760209061221660ff6007541691518092612400565bf35b91905034610bd35782600319360112610bd357608092506003549154906005549060065492815194855260208501528301526060820152f35b8391503461029157612262366123b6565b9161226b61244f565b61227361275e565b6007549060ff821660078110156112655780151590816122cf575b50610f0e57507f2ac842f90dab3279148f7e55ac91d911f75c1c300a202a5250e05400b15fa1569394600661125f9260ff1916176007555192839283612a70565b6001915014158761228e565b505034610291578160031936011261029157517f00000000000000000000000000000000000000000000000000000000000000006001600160a01b03168152602090f35b505034610291578160031936011261029157517f00000000000000000000000000000000000000000000000000000000000000006001600160a01b03168152602090f35b849134610bd3576020366003190112610bd3573563ffffffff60e01b8116809103610bd35760209250637965db0b60e01b81149081156123a5575b5015158152f35b6301ffc9a760e01b1490508361239e565b90602060031983011261093a5760043567ffffffffffffffff9283821161093a578060238301121561093a57816004013593841161093a576024848301011161093a576024019190565b90600782101561240d5752565b634e487b7160e01b600052602160045260246000fd5b602435906001600160a01b038216820361093a57565b600435906001600160a01b038216820361093a57565b3360009081527fe5ebfa64fca8d502a8e50c1edffd2c31ef4dad5b396e65d9f397fb028f74abc560205260409020547fa49807205ce4d355092ef5a8a18f56e8913cf4a201fbe287825b095693c217759060ff16156124ab5750565b6044906040519063e2517d3f60e01b82523360048301526024820152fd5b80600052600260205260406000203360005260205260ff60406000205416156124ab5750565b906000918083526002602052604083209160018060a01b03169182845260205260ff6040842054161560001461256a5780835260026020526040832082845260205260408320600160ff198254161790557f2f8788117e7eff1d82e926ec794901d17c78024a50270940304540a733656f0d339380a4600190565b505090565b906000918083526002602052604083209160018060a01b03169182845260205260ff60408420541660001461256a578083526002602052604083208284526020526040832060ff1981541690557ff6391f5c32d9c69d2a47ea670b442974b53935d1edc7fd64eb21e047a839171b339380a4600190565b919082018092116125f357565b634e487b7160e01b600052601160045260246000fd5b67ffffffffffffffff811161261d57604052565b634e487b7160e01b600052604160045260246000fd5b60a0810190811067ffffffffffffffff82111761261d57604052565b90601f8019910116810190811067ffffffffffffffff82111761261d57604052565b6040516323b872dd60e01b60208201526001600160a01b0392831660248201529290911660448301526064808301939093529181526126b391611f4682612633565b565b906000602091828151910182855af115612711576000513d61270857506001600160a01b0381163b155b6126e65750565b604051635274afe760e01b81526001600160a01b039091166004820152602490fd5b600114156126df565b6040513d6000823e3d90fd5b60ff6001541661272957565b60405163d93c066560e01b8152600490fd5b60026000541461274c576002600055565b604051633ee5aeb560e01b8152600490fd5b600780549060ff8216917f00000000000000000000000000000000000000000000000000000000000000004210158061288a575b61287b575b50805460ff81168281101561240d57600114612810575b5060ff815416908082101561240d5782101561240d578082036127cf575050565b7f0d643a1384921de4b8ad16df0a695f1e75fcfe3bcac27f9c5c8cee46458723829161280d60409261280384518094612400565b6020830190612400565ba1565b7f0000000000000000000000000000000000000000000000000000000000000000421080159061284f575b156127ae5760ff19166002178155386127ae565b506008547f0000000000000000000000000000000000000000000000000000000000000000111561283b565b60ff1916600117815538612797565b508183101561240d578215612792565b818102929181159184041417156125f357565b919082039182116125f357565b3d156128f5573d9067ffffffffffffffff821161261d57604051916128e9601f8201601f19166020018461264f565b82523d6000602084013e565b606090565b906040519063a9059cbb60e01b602083015261dead6024830152604482015260448152608081019181831067ffffffffffffffff84111761261d576126b3926040526126b5565b60405163a9059cbb60e01b60208201526001600160a01b039290921660248301526044808301939093529181526126b391611f4660648361264f565b60405163095ea7b360e01b602082018181526001600160a01b0385166024840152604480840196909652948252949390926129b960648561264f565b60206000809386519082875af182513d82612a4b575b5050156129df575b505050509050565b60405160208101969096526001600160a01b0316602486015260448086018290528552608085019067ffffffffffffffff821186831017612a375750612a2d9394611f4691604052826126b5565b80388080806129d7565b634e487b7160e01b81526041600452602490fd5b909150612a6857506001600160a01b0383163b15155b38806129cf565b600114612a61565b90918060409360208452816020850152848401376000828201840152601f01601f1916010190565b9081602091031261093a57516001600160a01b038116810361093a579056fea2646970667358221220acaab9a44dc2e6c3de8ce9884d27204c69a77c648e1cbb5e299c91e3c8807ebc64736f6c634300081400332f8788117e7eff1d82e926ec794901d17c78024a50270940304540a733656f0d",
  "linkReferences": {},
  "deployedLinkReferences": {}
}