{
  "_format": "hh-sol-artifact-1",
  "contractName": "LPLocker",
  "sourceName": "contracts/shared/LPLocker.sol",
  "abi": [
    {
      "inputs": [],
      "name": "AlreadyWithdrawn",
      "type": "error"
    },
    {
      "inputs": [],
      "name": "InvalidAmount",
      "type": "error"
    },
    {
      "inputs": [],
      "name": "InvalidUnlockTime",
      "type": "error"
    },
    {
      "inputs": [],
      "name": "NotBeneficiary",
      "type": "error"
    },
    {
      "inputs": [],
      "name": "NotOwner",
      "type": "error"
    },
    {
      "inputs": [],
      "name": "ReentrancyGuardReentrantCall",
      "type": "error"
    },
    {
      "inputs": [
        {
          "internalType": "address",
          "name": "token",
          "type": "address"
        }
      ],
      "name": "SafeERC20FailedOperation",
      "type": "error"
    },
    {
      "inputs": [],
      "name": "StillLocked",
      "type": "error"
    },
    {
      "inputs": [],
      "name": "ZeroAddress",
      "type": "error"
    },
    {
      "anonymous": false,
      "inputs": [
        {
          "indexed": true,
          "internalType": "uint256",
          "name": "lockId",
          "type": "uint256"
        },
        {
          "indexed": true,
          "internalType": "address",
          "name": "oldBeneficiary",
          "type": "address"
        },
        {
          "indexed": true,
          "internalType": "address",
          "name": "newBeneficiary",
          "type": "address"
        }
      ],
      "name": "BeneficiaryTransferred",
      "type": "event"
    },
    {
      "anonymous": false,
      "inputs": [
        {
          "indexed": true,
          "internalType": "uint256",
          "name": "lockId",
          "type": "uint256"
        },
        {
          "indexed": false,
          "internalType": "uint256",
          "name": "oldUnlockTime",
          "type": "uint256"
        },
        {
          "indexed": false,
          "internalType": "uint256",
          "name": "newUnlockTime",
          "type": "uint256"
        }
      ],
      "name": "LockExtended",
      "type": "event"
    },
    {
      "anonymous": false,
      "inputs": [
        {
          "indexed": true,
          "internalType": "uint256",
          "name": "lockId",
          "type": "uint256"
        },
        {
          "indexed": true,
          "internalType": "address",
          "name": "lpToken",
          "type": "address"
        },
        {
          "indexed": true,
          "internalType": "address",
          "name": "owner",
          "type": "address"
        },
        {
          "indexed": false,
          "internalType": "address",
          "name": "beneficiary",
          "type": "address"
        },
        {
          "indexed": false,
          "internalType": "uint256",
          "name": "amount",
          "type": "uint256"
        },
        {
          "indexed": false,
          "internalType": "uint256",
          "name": "unlockTime",
          "type": "uint256"
        }
      ],
      "name": "TokensLocked",
      "type": "event"
    },
    {
      "anonymous": false,
      "inputs": [
        {
          "indexed": true,
          "internalType": "uint256",
          "name": "lockId",
          "type": "uint256"
        },
        {
          "indexed": true,
          "internalType": "address",
          "name": "beneficiary",
          "type": "address"
        },
        {
          "indexed": false,
          "internalType": "uint256",
          "name": "amount",
          "type": "uint256"
        }
      ],
      "name": "TokensWithdrawn",
      "type": "event"
    },
    {
      "inputs": [
        {
          "internalType": "uint256",
          "name": "lockId",
          "type": "uint256"
        },
        {
          "internalType": "uint256",
          "name": "newUnlockTime",
          "type": "uint256"
        }
      ],
      "name": "extendLock",
      "outputs": [],
      "stateMutability": "nonpayable",
      "type": "function"
    },
    {
      "inputs": [
        {
          "internalType": "uint256",
          "name": "lockId",
          "type": "uint256"
        }
      ],
      "name": "getLock",
      "outputs": [
        {
          "components": [
            {
              "internalType": "address",
              "name": "lpToken",
              "type": "address"
            },
            {
              "internalType": "address",
              "name": "owner",
              "type": "address"
            },
            {
              "internalType": "address",
              "name": "beneficiary",
              "type": "address"
            },
            {
              "internalType": "uint256",
              "name": "amount",
              "type": "uint256"
            },
            {
              "internalType": "uint256",
              "name": "lockTime",
              "type": "uint256"
            },
            {
              "internalType": "uint256",
              "name": "unlockTime",
              "type": "uint256"
            },
            {
              "internalType": "bool",
              "name": "withdrawn",
              "type": "bool"
            }
          ],
          "internalType": "struct ILPLocker.Lock",
          "name": "",
          "type": "tuple"
        }
      ],
      "stateMutability": "view",
      "type": "function"
    },
    {
      "inputs": [
        {
          "internalType": "address",
          "name": "beneficiary",
          "type": "address"
        }
      ],
      "name": "getLocksByBeneficiary",
      "outputs": [
        {
          "internalType": "uint256[]",
          "name": "",
          "type": "uint256[]"
        }
      ],
      "stateMutability": "view",
      "type": "function"
    },
    {
      "inputs": [
        {
          "internalType": "address",
          "name": "lpToken",
          "type": "address"
        }
      ],
      "name": "getLocksByToken",
      "outputs": [
        {
          "internalType": "uint256[]",
          "name": "",
          "type": "uint256[]"
        }
      ],
      "stateMutability": "view",
      "type": "function"
    },
    {
      "inputs": [
        {
          "internalType": "uint256[]",
          "name": "lockIds",
          "type": "uint256[]"
        }
      ],
      "name": "getLocksMulti",
      "outputs": [
        {
          "components": [
            {
              "internalType": "address",
              "name": "lpToken",
              "type": "address"
            },
            {
              "internalType": "address",
              "name": "owner",
              "type": "address"
            },
            {
              "internalType": "address",
              "name": "beneficiary",
              "type": "address"
            },
            {
              "internalType": "uint256",
              "name": "amount",
              "type": "uint256"
            },
            {
              "internalType": "uint256",
              "name": "lockTime",
              "type": "uint256"
            },
            {
              "internalType": "uint256",
              "name": "unlockTime",
              "type": "uint256"
            },
            {
              "internalType": "bool",
              "name": "withdrawn",
              "type": "bool"
            }
          ],
          "internalType": "struct ILPLocker.Lock[]",
          "name": "result",
          "type": "tuple[]"
        }
      ],
      "stateMutability": "view",
      "type": "function"
    },
    {
      "inputs": [
        {
          "internalType": "uint256",
          "name": "lockId",
          "type": "uint256"
        }
      ],
      "name": "getTimeUntilUnlock",
      "outputs": [
        {
          "internalType": "uint256",
          "name": "",
          "type": "uint256"
        }
      ],
      "stateMutability": "view",
      "type": "function"
    },
    {
      "inputs": [
        {
          "internalType": "uint256",
          "name": "lockId",
          "type": "uint256"
        }
      ],
      "name": "isLocked",
      "outputs": [
        {
          "internalType": "bool",
          "name": "",
          "type": "bool"
        }
      ],
      "stateMutability": "view",
      "type": "function"
    },
    {
      "inputs": [
        {
          "internalType": "address",
          "name": "lpToken",
          "type": "address"
        },
        {
          "internalType": "uint256",
          "name": "amount",
          "type": "uint256"
        },
        {
          "internalType": "uint256",
          "name": "unlockTime",
          "type": "uint256"
        },
        {
          "internalType": "address",
          "name": "beneficiary",
          "type": "address"
        }
      ],
      "name": "lockTokens",
      "outputs": [
        {
          "internalType": "uint256",
          "name": "lockId",
          "type": "uint256"
        }
      ],
      "stateMutability": "nonpayable",
      "type": "function"
    },
    {
      "inputs": [],
      "name": "totalLockCount",
      "outputs": [
        {
          "internalType": "uint256",
          "name": "",
          "type": "uint256"
        }
      ],
      "stateMutability": "view",
      "type": "function"
    },
    {
      "inputs": [
        {
          "internalType": "uint256",
          "name": "lockId",
          "type": "uint256"
        },
        {
          "internalType": "address",
          "name": "newBeneficiary",
          "type": "address"
        }
      ],
      "name": "transferBeneficiary",
      "outputs": [],
      "stateMutability": "nonpayable",
      "type": "function"
    },
    {
      "inputs": [
        {
          "internalType": "uint256",
          "name": "lockId",
          "type": "uint256"
        }
      ],
      "name": "withdrawTokens",
      "outputs": [],
      "stateMutability": "nonpayable",
      "type": "function"
    }
  ],
  "bytecode": "0x6080806040523461001b576001600055610c9690816100218239f35b600080fdfe608060408181526004908136101561001657600080fd5b60009260e08435811c918263070d66bf146108d1575081630aa393f3146106c35781630d6dd343146105e7578163107bf5921461057357816324ba88b7146104ef5781632f6fe5f7146104c7578163315a095d1461039757816393ad60c4146101ef578163b9cb0a85146101cc578163d68f4dd114610136575063f6aacfb11461009f57600080fd5b3461013257602036600319011261013257806020938335815260018552208151926100c984610a53565b60018060a01b0380835416855280600184015416868601526002830154168385015260038201546060850152810154608084015260ff60066005830154928360a0870152015416159260c0841591015282610128575b50519015158152f35b421091503861011f565b8280fd5b939050346101c95760203660031901126101c9579060ff6006826101c79461015c610b76565b508635815260016020522083519561017387610a53565b81546001600160a01b03908116885260018301548116602089015260028301541685880152600382015460608801528101546080870152600581015460a0870152015416151560c0840152519182906109df565bf35b80fd5b8483346101eb57816003193601126101eb576020906002549051908152f35b5080fd5b939050346101c957602090816003193601126101c95783359367ffffffffffffffff90818611610132573660238701121561013257858101359182116101325760059060243684841b89018201116103935761025084999897959699610c34565b9661025d86519889610a85565b848852601f1961026c86610c34565b01875b818110610371575050865b8581106102d3575050505050508051948594818087019381885286518095528701950193905b8382106102ad5786860387f35b9184965082866102c360019496988498516109df565b01960192018695949293916102a0565b808361036692879d9a999b9c9d1b8401013588528860ff600660018084528d808d209181519561030287610a53565b83546001600160a01b0390811688529184015482169087015260028301541690850152600381015460608501528881015460808501528981015460a0850152015416151560c0820152610355828d610c4c565b52610360818c610c4c565b50610a2e565b99989795969961027a565b9a8b8a82809b9a9c9d9e610383610b76565b92010152019a999896979a61026f565b8480fd5b505034610132576020366003190112610132578135906103b5610b53565b81845260016020528084206002810180546001600160a01b039290831690338290036104b757600581015442106104a75760068101805460ff81166104975760019060ff1916179055600384825416910196875486519363a9059cbb60e01b60208601526024850152604484015260448352608083019083821067ffffffffffffffff831117610484575060209492869492610473927f3f5fbaf86658fdadee77f1d46e7f8a72424ad9839eda6a1dc6eb0a4228e4226e9852610aeb565b541694549051908152a36001815580f35b634e487b7160e01b8a5260419052602489fd5b8651636507689f60e01b81528990fd5b8451636100d92960e11b81528790fd5b845163644d871f60e01b81528790fd5b505082346101c95760203660031901126101c957506104e860209235610bae565b9051908152f35b505034610132576020918260031936011261056f576001600160a01b03610514610989565b16845282528083209281518093808654928381520195835280832092905b82821061055857610554868661054a828b0383610a85565b51918291826109a4565b0390f35b835487529586019560019384019390910190610532565b8380fd5b8483346101eb5760209081600319360112610132576001600160a01b03610598610989565b168352600382528083209281518093808654928381520195835280832092905b8282106105d057610554868661054a828b0383610a85565b8354875295860195600193840193909101906105b8565b505090346101325781600319360112610132576001600160a01b036024358181169383359390918590036106bf578386526001602052818620908360018301541633036106b15760ff6006830154166106a3578515610695575060020180546001600160a01b031981168617909155848652600360205290852061066c908490610aa7565b16907fcac3b813aa052f85279f96655f0ccd339dbf77623d87f74fcd77af7719472d118480a480f35b825163d92e233d60e01b8152fd5b8251636507689f60e01b8152fd5b82516330cd747160e01b8152fd5b8580fd5b838584346101eb5760803660031901126101eb576106df610989565b6001600160a01b0392906064358481169160243591604435919084900361039357610708610b53565b82156108c157428211156108b15783156108a15786169182156108a1578551976020986323b872dd60e01b8a8201523360248201523060448201528260648201526064815260a0810181811067ffffffffffffffff82111761088e5788526107709085610aeb565b600254809861077e82610a2e565b600255848b89898c80519561079287610a53565b8b8752808588019233845280890194855260608901958c875260808a019742895260a08b01998a5260c08b019b828d5282526001905220975116916bffffffffffffffffffffffff60a01b9283895416178855816001890191511683825416179055600287019251169082541617905551600384015551848301555160058201556006019051151560ff198254169060ff1617905584865260038952878787209061083c91610aa7565b8386528852868686209061084f91610aa7565b8551938452878401528483015284339260607f2829c874cc2754efd69c7e3c418a785312752350649b2d9219a7f07b7871839b91a46001905551908152f35b634e487b7160e01b885260418352602488fd5b855163d92e233d60e01b81528890fd5b85516352aba6d360e11b81528890fd5b855163162908e360e11b81528890fd5b8585853461013257806003193601126101325781358084526001602052818420600281015460243596929492906001600160a01b0316330361097b575060ff60068201541661096c57600501948554918282111561095e5750807f12c0f64f942f99aa5210c23a8ab729735389400457b66b06895b0700315c3b339495965582519182526020820152a280f35b83516352aba6d360e11b8152fd5b509051636507689f60e01b8152fd5b63644d871f60e01b81529050fd5b600435906001600160a01b038216820361099f57565b600080fd5b6020908160408183019282815285518094520193019160005b8281106109cb575050505090565b8351855293810193928101926001016109bd565b60c0809160018060a01b038082511685528060208301511660208601526040820151166040850152606081015160608501526080810151608085015260a081015160a085015201511515910152565b6000198114610a3d5760010190565b634e487b7160e01b600052601160045260246000fd5b60e0810190811067ffffffffffffffff821117610a6f57604052565b634e487b7160e01b600052604160045260246000fd5b90601f8019910116810190811067ffffffffffffffff821117610a6f57604052565b80549068010000000000000000821015610a6f5760018201808255821015610ad55760005260206000200155565b634e487b7160e01b600052603260045260246000fd5b906000602091828151910182855af115610b47576000513d610b3e57506001600160a01b0381163b155b610b1c5750565b604051635274afe760e01b81526001600160a01b039091166004820152602490fd5b60011415610b15565b6040513d6000823e3d90fd5b600260005414610b64576002600055565b604051633ee5aeb560e01b8152600490fd5b60405190610b8382610a53565b8160c06000918281528260208201528260408201528260608201528260808201528260a08201520152565b60005260016020526040600020604051610bc781610a53565b60018060a01b038083541682528060018401541660208301526002830154166040820152600382015460608201526004820154608082015260c060ff60066005850154948560a0860152015416151591015280421015610c2e57428103908111610a3d5790565b50600090565b67ffffffffffffffff8111610a6f5760051b60200190565b8051821015610ad55760209160051b01019056fea2646970667358221220d5abac715dcd337475c27271085664d16de3c650df981c032281d42f19b1bad564736f6c63430008140033",
  "linkReferences": {},
  "deployedLinkReferences": {}
}